{
	"Ep12/example.sol": {
		"OverloadingExample": {
			"abi": [
				{
					"inputs": [],
					"name": "callSumWithThreeArguments",
					"outputs": [
						{
							"internalType": "uint256",
							"name": "",
							"type": "uint256"
						}
					],
					"stateMutability": "pure",
					"type": "function"
				},
				{
					"inputs": [],
					"name": "callSumWithTwoArguments",
					"outputs": [
						{
							"internalType": "uint256",
							"name": "",
							"type": "uint256"
						}
					],
					"stateMutability": "pure",
					"type": "function"
				},
				{
					"inputs": [
						{
							"internalType": "uint256",
							"name": "a",
							"type": "uint256"
						},
						{
							"internalType": "uint256",
							"name": "b",
							"type": "uint256"
						}
					],
					"name": "getSum",
					"outputs": [
						{
							"internalType": "uint256",
							"name": "",
							"type": "uint256"
						}
					],
					"stateMutability": "pure",
					"type": "function"
				},
				{
					"inputs": [
						{
							"internalType": "uint256",
							"name": "a",
							"type": "uint256"
						},
						{
							"internalType": "uint256",
							"name": "b",
							"type": "uint256"
						},
						{
							"internalType": "uint256",
							"name": "c",
							"type": "uint256"
						}
					],
					"name": "getSum",
					"outputs": [
						{
							"internalType": "uint256",
							"name": "",
							"type": "uint256"
						}
					],
					"stateMutability": "pure",
					"type": "function"
				}
			],
			"devdoc": {
				"kind": "dev",
				"methods": {},
				"version": 1
			},
			"evm": {
				"assembly": "    /* \"Ep12/example.sol\":62:508  contract OverloadingExample {\r... */\n  mstore(0x40, 0x80)\n  callvalue\n  dup1\n  iszero\n  tag_1\n  jumpi\n  0x00\n  dup1\n  revert\ntag_1:\n  pop\n  dataSize(sub_0)\n  dup1\n  dataOffset(sub_0)\n  0x00\n  codecopy\n  0x00\n  return\nstop\n\nsub_0: assembly {\n        /* \"Ep12/example.sol\":62:508  contract OverloadingExample {\r... */\n      mstore(0x40, 0x80)\n      callvalue\n      dup1\n      iszero\n      tag_1\n      jumpi\n      0x00\n      dup1\n      revert\n    tag_1:\n      pop\n      jumpi(tag_2, lt(calldatasize, 0x04))\n      shr(0xe0, calldataload(0x00))\n      dup1\n      0x4585ba2e\n      eq\n      tag_3\n      jumpi\n      dup1\n      0x8e86b125\n      eq\n      tag_4\n      jumpi\n      dup1\n      0xcb2b0819\n      eq\n      tag_5\n      jumpi\n      dup1\n      0xd2074110\n      eq\n      tag_6\n      jumpi\n    tag_2:\n      0x00\n      dup1\n      revert\n        /* \"Ep12/example.sol\":302:396  function callSumWithTwoArguments() public pure returns(uint){\r... */\n    tag_3:\n      tag_7\n      tag_8\n      jump\t// in\n    tag_7:\n      mload(0x40)\n      tag_9\n      swap2\n      swap1\n      tag_10\n      jump\t// in\n    tag_9:\n      mload(0x40)\n      dup1\n      swap2\n      sub\n      swap1\n      return\n        /* \"Ep12/example.sol\":98:189  function getSum(uint a, uint b) public pure returns(uint){      \r... */\n    tag_4:\n      tag_11\n      0x04\n      dup1\n      calldatasize\n      sub\n      dup2\n      add\n      swap1\n      tag_12\n      swap2\n      swap1\n      tag_13\n      jump\t// in\n    tag_12:\n      tag_14\n      jump\t// in\n    tag_11:\n      mload(0x40)\n      tag_15\n      swap2\n      swap1\n      tag_10\n      jump\t// in\n    tag_15:\n      mload(0x40)\n      dup1\n      swap2\n      sub\n      swap1\n      return\n        /* \"Ep12/example.sol\":194:297  function getSum(uint a, uint b, uint c) public pure returns(uint){      \r... */\n    tag_5:\n      tag_16\n      0x04\n      dup1\n      calldatasize\n      sub\n      dup2\n      add\n      swap1\n      tag_17\n      swap2\n      swap1\n      tag_18\n      jump\t// in\n    tag_17:\n      tag_19\n      jump\t// in\n    tag_16:\n      mload(0x40)\n      tag_20\n      swap2\n      swap1\n      tag_10\n      jump\t// in\n    tag_20:\n      mload(0x40)\n      dup1\n      swap2\n      sub\n      swap1\n      return\n        /* \"Ep12/example.sol\":401:499  function callSumWithThreeArguments() public pure returns(uint){\r... */\n    tag_6:\n      tag_21\n      tag_22\n      jump\t// in\n    tag_21:\n      mload(0x40)\n      tag_23\n      swap2\n      swap1\n      tag_10\n      jump\t// in\n    tag_23:\n      mload(0x40)\n      dup1\n      swap2\n      sub\n      swap1\n      return\n        /* \"Ep12/example.sol\":302:396  function callSumWithTwoArguments() public pure returns(uint){\r... */\n    tag_8:\n        /* \"Ep12/example.sol\":357:361  uint */\n      0x00\n        /* \"Ep12/example.sol\":378:389  getSum(1,2) */\n      tag_25\n        /* \"Ep12/example.sol\":385:386  1 */\n      0x01\n        /* \"Ep12/example.sol\":387:388  2 */\n      0x02\n        /* \"Ep12/example.sol\":378:384  getSum */\n      tag_14\n        /* \"Ep12/example.sol\":378:389  getSum(1,2) */\n      jump\t// in\n    tag_25:\n        /* \"Ep12/example.sol\":371:389  return getSum(1,2) */\n      swap1\n      pop\n        /* \"Ep12/example.sol\":302:396  function callSumWithTwoArguments() public pure returns(uint){\r... */\n      swap1\n      jump\t// out\n        /* \"Ep12/example.sol\":98:189  function getSum(uint a, uint b) public pure returns(uint){      \r... */\n    tag_14:\n        /* \"Ep12/example.sol\":150:154  uint */\n      0x00\n        /* \"Ep12/example.sol\":181:182  b */\n      dup2\n        /* \"Ep12/example.sol\":177:178  a */\n      dup4\n        /* \"Ep12/example.sol\":177:182  a + b */\n      tag_27\n      swap2\n      swap1\n      tag_28\n      jump\t// in\n    tag_27:\n        /* \"Ep12/example.sol\":170:182  return a + b */\n      swap1\n      pop\n        /* \"Ep12/example.sol\":98:189  function getSum(uint a, uint b) public pure returns(uint){      \r... */\n      swap3\n      swap2\n      pop\n      pop\n      jump\t// out\n        /* \"Ep12/example.sol\":194:297  function getSum(uint a, uint b, uint c) public pure returns(uint){      \r... */\n    tag_19:\n        /* \"Ep12/example.sol\":254:258  uint */\n      0x00\n        /* \"Ep12/example.sol\":289:290  c */\n      dup2\n        /* \"Ep12/example.sol\":285:286  b */\n      dup4\n        /* \"Ep12/example.sol\":281:282  a */\n      dup6\n        /* \"Ep12/example.sol\":281:286  a + b */\n      tag_30\n      swap2\n      swap1\n      tag_28\n      jump\t// in\n    tag_30:\n        /* \"Ep12/example.sol\":281:290  a + b + c */\n      tag_31\n      swap2\n      swap1\n      tag_28\n      jump\t// in\n    tag_31:\n        /* \"Ep12/example.sol\":274:290  return a + b + c */\n      swap1\n      pop\n        /* \"Ep12/example.sol\":194:297  function getSum(uint a, uint b, uint c) public pure returns(uint){      \r... */\n      swap4\n      swap3\n      pop\n      pop\n      pop\n      jump\t// out\n        /* \"Ep12/example.sol\":401:499  function callSumWithThreeArguments() public pure returns(uint){\r... */\n    tag_22:\n        /* \"Ep12/example.sol\":458:462  uint */\n      0x00\n        /* \"Ep12/example.sol\":479:492  getSum(1,2,3) */\n      tag_33\n        /* \"Ep12/example.sol\":486:487  1 */\n      0x01\n        /* \"Ep12/example.sol\":488:489  2 */\n      0x02\n        /* \"Ep12/example.sol\":490:491  3 */\n      0x03\n        /* \"Ep12/example.sol\":479:485  getSum */\n      tag_19\n        /* \"Ep12/example.sol\":479:492  getSum(1,2,3) */\n      jump\t// in\n    tag_33:\n        /* \"Ep12/example.sol\":472:492  return getSum(1,2,3) */\n      swap1\n      pop\n        /* \"Ep12/example.sol\":401:499  function callSumWithThreeArguments() public pure returns(uint){\r... */\n      swap1\n      jump\t// out\n        /* \"#utility.yul\":7:146   */\n    tag_35:\n        /* \"#utility.yul\":53:58   */\n      0x00\n        /* \"#utility.yul\":91:97   */\n      dup2\n        /* \"#utility.yul\":78:98   */\n      calldataload\n        /* \"#utility.yul\":69:98   */\n      swap1\n      pop\n        /* \"#utility.yul\":107:140   */\n      tag_37\n        /* \"#utility.yul\":134:139   */\n      dup2\n        /* \"#utility.yul\":107:140   */\n      tag_38\n      jump\t// in\n    tag_37:\n        /* \"#utility.yul\":7:146   */\n      swap3\n      swap2\n      pop\n      pop\n      jump\t// out\n        /* \"#utility.yul\":152:626   */\n    tag_13:\n        /* \"#utility.yul\":220:226   */\n      0x00\n        /* \"#utility.yul\":228:234   */\n      dup1\n        /* \"#utility.yul\":277:279   */\n      0x40\n        /* \"#utility.yul\":265:274   */\n      dup4\n        /* \"#utility.yul\":256:263   */\n      dup6\n        /* \"#utility.yul\":252:275   */\n      sub\n        /* \"#utility.yul\":248:280   */\n      slt\n        /* \"#utility.yul\":245:364   */\n      iszero\n      tag_40\n      jumpi\n        /* \"#utility.yul\":283:362   */\n      tag_41\n      tag_42\n      jump\t// in\n    tag_41:\n        /* \"#utility.yul\":245:364   */\n    tag_40:\n        /* \"#utility.yul\":403:404   */\n      0x00\n        /* \"#utility.yul\":428:481   */\n      tag_43\n        /* \"#utility.yul\":473:480   */\n      dup6\n        /* \"#utility.yul\":464:470   */\n      dup3\n        /* \"#utility.yul\":453:462   */\n      dup7\n        /* \"#utility.yul\":449:471   */\n      add\n        /* \"#utility.yul\":428:481   */\n      tag_35\n      jump\t// in\n    tag_43:\n        /* \"#utility.yul\":418:481   */\n      swap3\n      pop\n        /* \"#utility.yul\":374:491   */\n      pop\n        /* \"#utility.yul\":530:532   */\n      0x20\n        /* \"#utility.yul\":556:609   */\n      tag_44\n        /* \"#utility.yul\":601:608   */\n      dup6\n        /* \"#utility.yul\":592:598   */\n      dup3\n        /* \"#utility.yul\":581:590   */\n      dup7\n        /* \"#utility.yul\":577:599   */\n      add\n        /* \"#utility.yul\":556:609   */\n      tag_35\n      jump\t// in\n    tag_44:\n        /* \"#utility.yul\":546:609   */\n      swap2\n      pop\n        /* \"#utility.yul\":501:619   */\n      pop\n        /* \"#utility.yul\":152:626   */\n      swap3\n      pop\n      swap3\n      swap1\n      pop\n      jump\t// out\n        /* \"#utility.yul\":632:1251   */\n    tag_18:\n        /* \"#utility.yul\":709:715   */\n      0x00\n        /* \"#utility.yul\":717:723   */\n      dup1\n        /* \"#utility.yul\":725:731   */\n      0x00\n        /* \"#utility.yul\":774:776   */\n      0x60\n        /* \"#utility.yul\":762:771   */\n      dup5\n        /* \"#utility.yul\":753:760   */\n      dup7\n        /* \"#utility.yul\":749:772   */\n      sub\n        /* \"#utility.yul\":745:777   */\n      slt\n        /* \"#utility.yul\":742:861   */\n      iszero\n      tag_46\n      jumpi\n        /* \"#utility.yul\":780:859   */\n      tag_47\n      tag_42\n      jump\t// in\n    tag_47:\n        /* \"#utility.yul\":742:861   */\n    tag_46:\n        /* \"#utility.yul\":900:901   */\n      0x00\n        /* \"#utility.yul\":925:978   */\n      tag_48\n        /* \"#utility.yul\":970:977   */\n      dup7\n        /* \"#utility.yul\":961:967   */\n      dup3\n        /* \"#utility.yul\":950:959   */\n      dup8\n        /* \"#utility.yul\":946:968   */\n      add\n        /* \"#utility.yul\":925:978   */\n      tag_35\n      jump\t// in\n    tag_48:\n        /* \"#utility.yul\":915:978   */\n      swap4\n      pop\n        /* \"#utility.yul\":871:988   */\n      pop\n        /* \"#utility.yul\":1027:1029   */\n      0x20\n        /* \"#utility.yul\":1053:1106   */\n      tag_49\n        /* \"#utility.yul\":1098:1105   */\n      dup7\n        /* \"#utility.yul\":1089:1095   */\n      dup3\n        /* \"#utility.yul\":1078:1087   */\n      dup8\n        /* \"#utility.yul\":1074:1096   */\n      add\n        /* \"#utility.yul\":1053:1106   */\n      tag_35\n      jump\t// in\n    tag_49:\n        /* \"#utility.yul\":1043:1106   */\n      swap3\n      pop\n        /* \"#utility.yul\":998:1116   */\n      pop\n        /* \"#utility.yul\":1155:1157   */\n      0x40\n        /* \"#utility.yul\":1181:1234   */\n      tag_50\n        /* \"#utility.yul\":1226:1233   */\n      dup7\n        /* \"#utility.yul\":1217:1223   */\n      dup3\n        /* \"#utility.yul\":1206:1215   */\n      dup8\n        /* \"#utility.yul\":1202:1224   */\n      add\n        /* \"#utility.yul\":1181:1234   */\n      tag_35\n      jump\t// in\n    tag_50:\n        /* \"#utility.yul\":1171:1234   */\n      swap2\n      pop\n        /* \"#utility.yul\":1126:1244   */\n      pop\n        /* \"#utility.yul\":632:1251   */\n      swap3\n      pop\n      swap3\n      pop\n      swap3\n      jump\t// out\n        /* \"#utility.yul\":1257:1375   */\n    tag_51:\n        /* \"#utility.yul\":1344:1368   */\n      tag_53\n        /* \"#utility.yul\":1362:1367   */\n      dup2\n        /* \"#utility.yul\":1344:1368   */\n      tag_54\n      jump\t// in\n    tag_53:\n        /* \"#utility.yul\":1339:1342   */\n      dup3\n        /* \"#utility.yul\":1332:1369   */\n      mstore\n        /* \"#utility.yul\":1257:1375   */\n      pop\n      pop\n      jump\t// out\n        /* \"#utility.yul\":1381:1603   */\n    tag_10:\n        /* \"#utility.yul\":1474:1478   */\n      0x00\n        /* \"#utility.yul\":1512:1514   */\n      0x20\n        /* \"#utility.yul\":1501:1510   */\n      dup3\n        /* \"#utility.yul\":1497:1515   */\n      add\n        /* \"#utility.yul\":1489:1515   */\n      swap1\n      pop\n        /* \"#utility.yul\":1525:1596   */\n      tag_56\n        /* \"#utility.yul\":1593:1594   */\n      0x00\n        /* \"#utility.yul\":1582:1591   */\n      dup4\n        /* \"#utility.yul\":1578:1595   */\n      add\n        /* \"#utility.yul\":1569:1575   */\n      dup5\n        /* \"#utility.yul\":1525:1596   */\n      tag_51\n      jump\t// in\n    tag_56:\n        /* \"#utility.yul\":1381:1603   */\n      swap3\n      swap2\n      pop\n      pop\n      jump\t// out\n        /* \"#utility.yul\":1690:1995   */\n    tag_28:\n        /* \"#utility.yul\":1730:1733   */\n      0x00\n        /* \"#utility.yul\":1749:1769   */\n      tag_60\n        /* \"#utility.yul\":1767:1768   */\n      dup3\n        /* \"#utility.yul\":1749:1769   */\n      tag_54\n      jump\t// in\n    tag_60:\n        /* \"#utility.yul\":1744:1769   */\n      swap2\n      pop\n        /* \"#utility.yul\":1783:1803   */\n      tag_61\n        /* \"#utility.yul\":1801:1802   */\n      dup4\n        /* \"#utility.yul\":1783:1803   */\n      tag_54\n      jump\t// in\n    tag_61:\n        /* \"#utility.yul\":1778:1803   */\n      swap3\n      pop\n        /* \"#utility.yul\":1937:1938   */\n      dup3\n        /* \"#utility.yul\":1869:1935   */\n      0xffffffffffffffffffffffffffffffffffffffffffffffffffffffffffffffff\n        /* \"#utility.yul\":1865:1939   */\n      sub\n        /* \"#utility.yul\":1862:1863   */\n      dup3\n        /* \"#utility.yul\":1859:1940   */\n      gt\n        /* \"#utility.yul\":1856:1963   */\n      iszero\n      tag_62\n      jumpi\n        /* \"#utility.yul\":1943:1961   */\n      tag_63\n      tag_64\n      jump\t// in\n    tag_63:\n        /* \"#utility.yul\":1856:1963   */\n    tag_62:\n        /* \"#utility.yul\":1987:1988   */\n      dup3\n        /* \"#utility.yul\":1984:1985   */\n      dup3\n        /* \"#utility.yul\":1980:1989   */\n      add\n        /* \"#utility.yul\":1973:1989   */\n      swap1\n      pop\n        /* \"#utility.yul\":1690:1995   */\n      swap3\n      swap2\n      pop\n      pop\n      jump\t// out\n        /* \"#utility.yul\":2001:2078   */\n    tag_54:\n        /* \"#utility.yul\":2038:2045   */\n      0x00\n        /* \"#utility.yul\":2067:2072   */\n      dup2\n        /* \"#utility.yul\":2056:2072   */\n      swap1\n      pop\n        /* \"#utility.yul\":2001:2078   */\n      swap2\n      swap1\n      pop\n      jump\t// out\n        /* \"#utility.yul\":2084:2264   */\n    tag_64:\n        /* \"#utility.yul\":2132:2209   */\n      0x4e487b7100000000000000000000000000000000000000000000000000000000\n        /* \"#utility.yul\":2129:2130   */\n      0x00\n        /* \"#utility.yul\":2122:2210   */\n      mstore\n        /* \"#utility.yul\":2229:2233   */\n      0x11\n        /* \"#utility.yul\":2226:2227   */\n      0x04\n        /* \"#utility.yul\":2219:2234   */\n      mstore\n        /* \"#utility.yul\":2253:2257   */\n      0x24\n        /* \"#utility.yul\":2250:2251   */\n      0x00\n        /* \"#utility.yul\":2243:2258   */\n      revert\n        /* \"#utility.yul\":2393:2510   */\n    tag_42:\n        /* \"#utility.yul\":2502:2503   */\n      0x00\n        /* \"#utility.yul\":2499:2500   */\n      dup1\n        /* \"#utility.yul\":2492:2504   */\n      revert\n        /* \"#utility.yul\":2516:2638   */\n    tag_38:\n        /* \"#utility.yul\":2589:2613   */\n      tag_71\n        /* \"#utility.yul\":2607:2612   */\n      dup2\n        /* \"#utility.yul\":2589:2613   */\n      tag_54\n      jump\t// in\n    tag_71:\n        /* \"#utility.yul\":2582:2587   */\n      dup2\n        /* \"#utility.yul\":2579:2614   */\n      eq\n        /* \"#utility.yul\":2569:2632   */\n      tag_72\n      jumpi\n        /* \"#utility.yul\":2628:2629   */\n      0x00\n        /* \"#utility.yul\":2625:2626   */\n      dup1\n        /* \"#utility.yul\":2618:2630   */\n      revert\n        /* \"#utility.yul\":2569:2632   */\n    tag_72:\n        /* \"#utility.yul\":2516:2638   */\n      pop\n      jump\t// out\n\n    auxdata: 0xa2646970667358221220fbbefd58b30fbce9a15664e23a62cb849370cf28961e8438e6b728b498a7713964736f6c63430008070033\n}\n",
				"bytecode": {
					"linkReferences": {},
					"object": "608060405234801561001057600080fd5b50610300806100206000396000f3fe608060405234801561001057600080fd5b506004361061004c5760003560e01c80634585ba2e146100515780638e86b1251461006f578063cb2b08191461009f578063d2074110146100cf575b600080fd5b6100596100ed565b6040516100669190610204565b60405180910390f35b61008960048036038101906100849190610162565b610100565b6040516100969190610204565b60405180910390f35b6100b960048036038101906100b491906101a2565b610116565b6040516100c69190610204565b60405180910390f35b6100d7610138565b6040516100e49190610204565b60405180910390f35b60006100fb60016002610100565b905090565b6000818361010e919061021f565b905092915050565b6000818385610125919061021f565b61012f919061021f565b90509392505050565b6000610148600160026003610116565b905090565b60008135905061015c816102b3565b92915050565b60008060408385031215610179576101786102ae565b5b60006101878582860161014d565b92505060206101988582860161014d565b9150509250929050565b6000806000606084860312156101bb576101ba6102ae565b5b60006101c98682870161014d565b93505060206101da8682870161014d565b92505060406101eb8682870161014d565b9150509250925092565b6101fe81610275565b82525050565b600060208201905061021960008301846101f5565b92915050565b600061022a82610275565b915061023583610275565b9250827fffffffffffffffffffffffffffffffffffffffffffffffffffffffffffffffff0382111561026a5761026961027f565b5b828201905092915050565b6000819050919050565b7f4e487b7100000000000000000000000000000000000000000000000000000000600052601160045260246000fd5b600080fd5b6102bc81610275565b81146102c757600080fd5b5056fea2646970667358221220fbbefd58b30fbce9a15664e23a62cb849370cf28961e8438e6b728b498a7713964736f6c63430008070033",
					"opcodes": "PUSH1 0x80 PUSH1 0x40 MSTORE CALLVALUE DUP1 ISZERO PUSH2 0x10 JUMPI PUSH1 0x0 DUP1 REVERT JUMPDEST POP PUSH2 0x300 DUP1 PUSH2 0x20 PUSH1 0x0 CODECOPY PUSH1 0x0 RETURN INVALID PUSH1 0x80 PUSH1 0x40 MSTORE CALLVALUE DUP1 ISZERO PUSH2 0x10 JUMPI PUSH1 0x0 DUP1 REVERT JUMPDEST POP PUSH1 0x4 CALLDATASIZE LT PUSH2 0x4C JUMPI PUSH1 0x0 CALLDATALOAD PUSH1 0xE0 SHR DUP1 PUSH4 0x4585BA2E EQ PUSH2 0x51 JUMPI DUP1 PUSH4 0x8E86B125 EQ PUSH2 0x6F JUMPI DUP1 PUSH4 0xCB2B0819 EQ PUSH2 0x9F JUMPI DUP1 PUSH4 0xD2074110 EQ PUSH2 0xCF JUMPI JUMPDEST PUSH1 0x0 DUP1 REVERT JUMPDEST PUSH2 0x59 PUSH2 0xED JUMP JUMPDEST PUSH1 0x40 MLOAD PUSH2 0x66 SWAP2 SWAP1 PUSH2 0x204 JUMP JUMPDEST PUSH1 0x40 MLOAD DUP1 SWAP2 SUB SWAP1 RETURN JUMPDEST PUSH2 0x89 PUSH1 0x4 DUP1 CALLDATASIZE SUB DUP2 ADD SWAP1 PUSH2 0x84 SWAP2 SWAP1 PUSH2 0x162 JUMP JUMPDEST PUSH2 0x100 JUMP JUMPDEST PUSH1 0x40 MLOAD PUSH2 0x96 SWAP2 SWAP1 PUSH2 0x204 JUMP JUMPDEST PUSH1 0x40 MLOAD DUP1 SWAP2 SUB SWAP1 RETURN JUMPDEST PUSH2 0xB9 PUSH1 0x4 DUP1 CALLDATASIZE SUB DUP2 ADD SWAP1 PUSH2 0xB4 SWAP2 SWAP1 PUSH2 0x1A2 JUMP JUMPDEST PUSH2 0x116 JUMP JUMPDEST PUSH1 0x40 MLOAD PUSH2 0xC6 SWAP2 SWAP1 PUSH2 0x204 JUMP JUMPDEST PUSH1 0x40 MLOAD DUP1 SWAP2 SUB SWAP1 RETURN JUMPDEST PUSH2 0xD7 PUSH2 0x138 JUMP JUMPDEST PUSH1 0x40 MLOAD PUSH2 0xE4 SWAP2 SWAP1 PUSH2 0x204 JUMP JUMPDEST PUSH1 0x40 MLOAD DUP1 SWAP2 SUB SWAP1 RETURN JUMPDEST PUSH1 0x0 PUSH2 0xFB PUSH1 0x1 PUSH1 0x2 PUSH2 0x100 JUMP JUMPDEST SWAP1 POP SWAP1 JUMP JUMPDEST PUSH1 0x0 DUP2 DUP4 PUSH2 0x10E SWAP2 SWAP1 PUSH2 0x21F JUMP JUMPDEST SWAP1 POP SWAP3 SWAP2 POP POP JUMP JUMPDEST PUSH1 0x0 DUP2 DUP4 DUP6 PUSH2 0x125 SWAP2 SWAP1 PUSH2 0x21F JUMP JUMPDEST PUSH2 0x12F SWAP2 SWAP1 PUSH2 0x21F JUMP JUMPDEST SWAP1 POP SWAP4 SWAP3 POP POP POP JUMP JUMPDEST PUSH1 0x0 PUSH2 0x148 PUSH1 0x1 PUSH1 0x2 PUSH1 0x3 PUSH2 0x116 JUMP JUMPDEST SWAP1 POP SWAP1 JUMP JUMPDEST PUSH1 0x0 DUP2 CALLDATALOAD SWAP1 POP PUSH2 0x15C DUP2 PUSH2 0x2B3 JUMP JUMPDEST SWAP3 SWAP2 POP POP JUMP JUMPDEST PUSH1 0x0 DUP1 PUSH1 0x40 DUP4 DUP6 SUB SLT ISZERO PUSH2 0x179 JUMPI PUSH2 0x178 PUSH2 0x2AE JUMP JUMPDEST JUMPDEST PUSH1 0x0 PUSH2 0x187 DUP6 DUP3 DUP7 ADD PUSH2 0x14D JUMP JUMPDEST SWAP3 POP POP PUSH1 0x20 PUSH2 0x198 DUP6 DUP3 DUP7 ADD PUSH2 0x14D JUMP JUMPDEST SWAP2 POP POP SWAP3 POP SWAP3 SWAP1 POP JUMP JUMPDEST PUSH1 0x0 DUP1 PUSH1 0x0 PUSH1 0x60 DUP5 DUP7 SUB SLT ISZERO PUSH2 0x1BB JUMPI PUSH2 0x1BA PUSH2 0x2AE JUMP JUMPDEST JUMPDEST PUSH1 0x0 PUSH2 0x1C9 DUP7 DUP3 DUP8 ADD PUSH2 0x14D JUMP JUMPDEST SWAP4 POP POP PUSH1 0x20 PUSH2 0x1DA DUP7 DUP3 DUP8 ADD PUSH2 0x14D JUMP JUMPDEST SWAP3 POP POP PUSH1 0x40 PUSH2 0x1EB DUP7 DUP3 DUP8 ADD PUSH2 0x14D JUMP JUMPDEST SWAP2 POP POP SWAP3 POP SWAP3 POP SWAP3 JUMP JUMPDEST PUSH2 0x1FE DUP2 PUSH2 0x275 JUMP JUMPDEST DUP3 MSTORE POP POP JUMP JUMPDEST PUSH1 0x0 PUSH1 0x20 DUP3 ADD SWAP1 POP PUSH2 0x219 PUSH1 0x0 DUP4 ADD DUP5 PUSH2 0x1F5 JUMP JUMPDEST SWAP3 SWAP2 POP POP JUMP JUMPDEST PUSH1 0x0 PUSH2 0x22A DUP3 PUSH2 0x275 JUMP JUMPDEST SWAP2 POP PUSH2 0x235 DUP4 PUSH2 0x275 JUMP JUMPDEST SWAP3 POP DUP3 PUSH32 0xFFFFFFFFFFFFFFFFFFFFFFFFFFFFFFFFFFFFFFFFFFFFFFFFFFFFFFFFFFFFFFFF SUB DUP3 GT ISZERO PUSH2 0x26A JUMPI PUSH2 0x269 PUSH2 0x27F JUMP JUMPDEST JUMPDEST DUP3 DUP3 ADD SWAP1 POP SWAP3 SWAP2 POP POP JUMP JUMPDEST PUSH1 0x0 DUP2 SWAP1 POP SWAP2 SWAP1 POP JUMP JUMPDEST PUSH32 0x4E487B7100000000000000000000000000000000000000000000000000000000 PUSH1 0x0 MSTORE PUSH1 0x11 PUSH1 0x4 MSTORE PUSH1 0x24 PUSH1 0x0 REVERT JUMPDEST PUSH1 0x0 DUP1 REVERT JUMPDEST PUSH2 0x2BC DUP2 PUSH2 0x275 JUMP JUMPDEST DUP2 EQ PUSH2 0x2C7 JUMPI PUSH1 0x0 DUP1 REVERT JUMPDEST POP JUMP INVALID LOG2 PUSH5 0x6970667358 0x22 SLT KECCAK256 0xFB 0xBE REVERT PC 0xB3 0xF 0xBC 0xE9 LOG1 JUMP PUSH5 0xE23A62CB84 SWAP4 PUSH17 0xCF28961E8438E6B728B498A7713964736F PUSH13 0x63430008070033000000000000 "
				},
				"gasEstimates": {
					"creation": {
						"codeDepositCost": "153600",
						"executionCost": "196",
						"totalCost": "153796"
					},
					"external": {
						"callSumWithThreeArguments()": "infinite",
						"callSumWithTwoArguments()": "infinite",
						"getSum(uint256,uint256)": "infinite",
						"getSum(uint256,uint256,uint256)": "infinite"
					}
				},
				"methodIdentifiers": {
					"callSumWithThreeArguments()": "d2074110",
					"callSumWithTwoArguments()": "4585ba2e",
					"getSum(uint256,uint256)": "8e86b125",
					"getSum(uint256,uint256,uint256)": "cb2b0819"
				}
			},
			"storageLayout": {
				"storage": [],
				"types": null
			},
			"userdoc": {
				"kind": "user",
				"methods": {},
				"version": 1
			}
		}
	}
}