{
	"Ep13/example.sol": {
		"Car": {
			"abi": [
				{
					"inputs": [],
					"name": "drive",
					"outputs": [],
					"stateMutability": "nonpayable",
					"type": "function"
				},
				{
					"inputs": [
						{
							"internalType": "uint256",
							"name": "amount",
							"type": "uint256"
						}
					],
					"name": "fill",
					"outputs": [],
					"stateMutability": "nonpayable",
					"type": "function"
				},
				{
					"inputs": [],
					"name": "fill",
					"outputs": [],
					"stateMutability": "nonpayable",
					"type": "function"
				}
			],
			"devdoc": {
				"kind": "dev",
				"methods": {},
				"version": 1
			},
			"evm": {
				"assembly": "    /* \"Ep13/example.sol\":295:486  contract Car is FuelCar {\r... */\n  mstore(0x40, 0x80)\n  callvalue\n  dup1\n  iszero\n  tag_1\n  jumpi\n  0x00\n  dup1\n  revert\ntag_1:\n  pop\n  dataSize(sub_0)\n  dup1\n  dataOffset(sub_0)\n  0x00\n  codecopy\n  0x00\n  return\nstop\n\nsub_0: assembly {\n        /* \"Ep13/example.sol\":295:486  contract Car is FuelCar {\r... */\n      mstore(0x40, 0x80)\n      callvalue\n      dup1\n      iszero\n      tag_1\n      jumpi\n      0x00\n      dup1\n      revert\n    tag_1:\n      pop\n      jumpi(tag_2, lt(calldatasize, 0x04))\n      shr(0xe0, calldataload(0x00))\n      dup1\n      0x3fda5389\n      eq\n      tag_3\n      jumpi\n      dup1\n      0xa54580f2\n      eq\n      tag_4\n      jumpi\n      dup1\n      0xd9c55ce1\n      eq\n      tag_5\n      jumpi\n    tag_2:\n      0x00\n      dup1\n      revert\n        /* \"Ep13/example.sol\":195:265  function fill(uint amount) public {\r... */\n    tag_3:\n      tag_6\n      0x04\n      dup1\n      calldatasize\n      sub\n      dup2\n      add\n      swap1\n      tag_7\n      swap2\n      swap1\n      tag_8\n      jump\t// in\n    tag_7:\n      tag_9\n      jump\t// in\n    tag_6:\n      stop\n        /* \"Ep13/example.sol\":326:419  function drive() public override {\r... */\n    tag_4:\n      tag_10\n      tag_11\n      jump\t// in\n    tag_10:\n      stop\n        /* \"Ep13/example.sol\":427:483  function fill() public {\r... */\n    tag_5:\n      tag_12\n      tag_13\n      jump\t// in\n    tag_12:\n      stop\n        /* \"Ep13/example.sol\":195:265  function fill(uint amount) public {\r... */\n    tag_9:\n      pop\n      jump\t// out\n        /* \"Ep13/example.sol\":326:419  function drive() public override {\r... */\n    tag_11:\n      jump\t// out\n        /* \"Ep13/example.sol\":427:483  function fill() public {\r... */\n    tag_13:\n        /* \"Ep13/example.sol\":461:475  super.fill(30) */\n      tag_17\n        /* \"Ep13/example.sol\":472:474  30 */\n      0x1e\n        /* \"Ep13/example.sol\":461:471  super.fill */\n      tag_9\n        /* \"Ep13/example.sol\":461:475  super.fill(30) */\n      jump\t// in\n    tag_17:\n        /* \"Ep13/example.sol\":427:483  function fill() public {\r... */\n      jump\t// out\n        /* \"#utility.yul\":7:146   */\n    tag_19:\n        /* \"#utility.yul\":53:58   */\n      0x00\n        /* \"#utility.yul\":91:97   */\n      dup2\n        /* \"#utility.yul\":78:98   */\n      calldataload\n        /* \"#utility.yul\":69:98   */\n      swap1\n      pop\n        /* \"#utility.yul\":107:140   */\n      tag_21\n        /* \"#utility.yul\":134:139   */\n      dup2\n        /* \"#utility.yul\":107:140   */\n      tag_22\n      jump\t// in\n    tag_21:\n        /* \"#utility.yul\":7:146   */\n      swap3\n      swap2\n      pop\n      pop\n      jump\t// out\n        /* \"#utility.yul\":152:481   */\n    tag_8:\n        /* \"#utility.yul\":211:217   */\n      0x00\n        /* \"#utility.yul\":260:262   */\n      0x20\n        /* \"#utility.yul\":248:257   */\n      dup3\n        /* \"#utility.yul\":239:246   */\n      dup5\n        /* \"#utility.yul\":235:258   */\n      sub\n        /* \"#utility.yul\":231:263   */\n      slt\n        /* \"#utility.yul\":228:347   */\n      iszero\n      tag_24\n      jumpi\n        /* \"#utility.yul\":266:345   */\n      tag_25\n      tag_26\n      jump\t// in\n    tag_25:\n        /* \"#utility.yul\":228:347   */\n    tag_24:\n        /* \"#utility.yul\":386:387   */\n      0x00\n        /* \"#utility.yul\":411:464   */\n      tag_27\n        /* \"#utility.yul\":456:463   */\n      dup5\n        /* \"#utility.yul\":447:453   */\n      dup3\n        /* \"#utility.yul\":436:445   */\n      dup6\n        /* \"#utility.yul\":432:454   */\n      add\n        /* \"#utility.yul\":411:464   */\n      tag_19\n      jump\t// in\n    tag_27:\n        /* \"#utility.yul\":401:464   */\n      swap2\n      pop\n        /* \"#utility.yul\":357:474   */\n      pop\n        /* \"#utility.yul\":152:481   */\n      swap3\n      swap2\n      pop\n      pop\n      jump\t// out\n        /* \"#utility.yul\":568:645   */\n    tag_30:\n        /* \"#utility.yul\":605:612   */\n      0x00\n        /* \"#utility.yul\":634:639   */\n      dup2\n        /* \"#utility.yul\":623:639   */\n      swap1\n      pop\n        /* \"#utility.yul\":568:645   */\n      swap2\n      swap1\n      pop\n      jump\t// out\n        /* \"#utility.yul\":774:891   */\n    tag_26:\n        /* \"#utility.yul\":883:884   */\n      0x00\n        /* \"#utility.yul\":880:881   */\n      dup1\n        /* \"#utility.yul\":873:885   */\n      revert\n        /* \"#utility.yul\":897:1019   */\n    tag_22:\n        /* \"#utility.yul\":970:994   */\n      tag_36\n        /* \"#utility.yul\":988:993   */\n      dup2\n        /* \"#utility.yul\":970:994   */\n      tag_30\n      jump\t// in\n    tag_36:\n        /* \"#utility.yul\":963:968   */\n      dup2\n        /* \"#utility.yul\":960:995   */\n      eq\n        /* \"#utility.yul\":950:1013   */\n      tag_37\n      jumpi\n        /* \"#utility.yul\":1009:1010   */\n      0x00\n        /* \"#utility.yul\":1006:1007   */\n      dup1\n        /* \"#utility.yul\":999:1011   */\n      revert\n        /* \"#utility.yul\":950:1013   */\n    tag_37:\n        /* \"#utility.yul\":897:1019   */\n      pop\n      jump\t// out\n\n    auxdata: 0xa26469706673582212207f4f69598c4cf161413e06d330b82228c18b1012cf12e5438d71fc8897038d4564736f6c63430008070033\n}\n",
				"bytecode": {
					"linkReferences": {},
					"object": "608060405234801561001057600080fd5b5061010c806100206000396000f3fe6080604052348015600f57600080fd5b5060043610603c5760003560e01c80633fda5389146041578063a54580f2146059578063d9c55ce1146061575b600080fd5b6057600480360381019060539190608b565b6069565b005b605f606c565b005b6067606e565b005b50565b565b6076601e6069565b565b60008135905060858160c2565b92915050565b600060208284031215609e57609d60bd565b5b600060aa848285016078565b91505092915050565b6000819050919050565b600080fd5b60c98160b3565b811460d357600080fd5b5056fea26469706673582212207f4f69598c4cf161413e06d330b82228c18b1012cf12e5438d71fc8897038d4564736f6c63430008070033",
					"opcodes": "PUSH1 0x80 PUSH1 0x40 MSTORE CALLVALUE DUP1 ISZERO PUSH2 0x10 JUMPI PUSH1 0x0 DUP1 REVERT JUMPDEST POP PUSH2 0x10C DUP1 PUSH2 0x20 PUSH1 0x0 CODECOPY PUSH1 0x0 RETURN INVALID PUSH1 0x80 PUSH1 0x40 MSTORE CALLVALUE DUP1 ISZERO PUSH1 0xF JUMPI PUSH1 0x0 DUP1 REVERT JUMPDEST POP PUSH1 0x4 CALLDATASIZE LT PUSH1 0x3C JUMPI PUSH1 0x0 CALLDATALOAD PUSH1 0xE0 SHR DUP1 PUSH4 0x3FDA5389 EQ PUSH1 0x41 JUMPI DUP1 PUSH4 0xA54580F2 EQ PUSH1 0x59 JUMPI DUP1 PUSH4 0xD9C55CE1 EQ PUSH1 0x61 JUMPI JUMPDEST PUSH1 0x0 DUP1 REVERT JUMPDEST PUSH1 0x57 PUSH1 0x4 DUP1 CALLDATASIZE SUB DUP2 ADD SWAP1 PUSH1 0x53 SWAP2 SWAP1 PUSH1 0x8B JUMP JUMPDEST PUSH1 0x69 JUMP JUMPDEST STOP JUMPDEST PUSH1 0x5F PUSH1 0x6C JUMP JUMPDEST STOP JUMPDEST PUSH1 0x67 PUSH1 0x6E JUMP JUMPDEST STOP JUMPDEST POP JUMP JUMPDEST JUMP JUMPDEST PUSH1 0x76 PUSH1 0x1E PUSH1 0x69 JUMP JUMPDEST JUMP JUMPDEST PUSH1 0x0 DUP2 CALLDATALOAD SWAP1 POP PUSH1 0x85 DUP2 PUSH1 0xC2 JUMP JUMPDEST SWAP3 SWAP2 POP POP JUMP JUMPDEST PUSH1 0x0 PUSH1 0x20 DUP3 DUP5 SUB SLT ISZERO PUSH1 0x9E JUMPI PUSH1 0x9D PUSH1 0xBD JUMP JUMPDEST JUMPDEST PUSH1 0x0 PUSH1 0xAA DUP5 DUP3 DUP6 ADD PUSH1 0x78 JUMP JUMPDEST SWAP2 POP POP SWAP3 SWAP2 POP POP JUMP JUMPDEST PUSH1 0x0 DUP2 SWAP1 POP SWAP2 SWAP1 POP JUMP JUMPDEST PUSH1 0x0 DUP1 REVERT JUMPDEST PUSH1 0xC9 DUP2 PUSH1 0xB3 JUMP JUMPDEST DUP2 EQ PUSH1 0xD3 JUMPI PUSH1 0x0 DUP1 REVERT JUMPDEST POP JUMP INVALID LOG2 PUSH5 0x6970667358 0x22 SLT KECCAK256 PUSH32 0x4F69598C4CF161413E06D330B82228C18B1012CF12E5438D71FC8897038D4564 PUSH20 0x6F6C634300080700330000000000000000000000 "
				},
				"gasEstimates": {
					"creation": {
						"codeDepositCost": "53600",
						"executionCost": "105",
						"totalCost": "53705"
					},
					"external": {
						"drive()": "144",
						"fill()": "195",
						"fill(uint256)": "384"
					}
				},
				"methodIdentifiers": {
					"drive()": "a54580f2",
					"fill()": "d9c55ce1",
					"fill(uint256)": "3fda5389"
				}
			},
			"storageLayout": {
				"storage": [],
				"types": null
			},
			"userdoc": {
				"kind": "user",
				"methods": {},
				"version": 1
			}
		}
	}
}