{
	"Ep3/example.sol": {
		"Example": {
			"abi": [
				{
					"inputs": [],
					"name": "booleanExample",
					"outputs": [],
					"stateMutability": "nonpayable",
					"type": "function"
				}
			],
			"devdoc": {
				"kind": "dev",
				"methods": {},
				"stateVariables": {
					"hasChecked": {
						"details": "是否已經被檢查過"
					}
				},
				"version": 1
			},
			"evm": {
				"assembly": "    /* \"Ep3/example.sol\":90:1120  contract Example {\r... */\n  mstore(0x40, 0x80)\n    /* \"Ep3/example.sol\":217:222  false */\n  0x00\n    /* \"Ep3/example.sol\":191:222  bool private hasChecked = false */\n  dup1\n  exp(0x0100, 0x00)\n  dup2\n  sload\n  dup2\n  0xff\n  mul\n  not\n  and\n  swap1\n  dup4\n  iszero\n  iszero\n  mul\n  or\n  swap1\n  sstore\n  pop\n    /* \"Ep3/example.sol\":90:1120  contract Example {\r... */\n  callvalue\n  dup1\n  iszero\n  tag_1\n  jumpi\n  0x00\n  dup1\n  revert\ntag_1:\n  pop\n  dataSize(sub_0)\n  dup1\n  dataOffset(sub_0)\n  0x00\n  codecopy\n  0x00\n  return\nstop\n\nsub_0: assembly {\n        /* \"Ep3/example.sol\":90:1120  contract Example {\r... */\n      mstore(0x40, 0x80)\n      callvalue\n      dup1\n      iszero\n      tag_1\n      jumpi\n      0x00\n      dup1\n      revert\n    tag_1:\n      pop\n      jumpi(tag_2, lt(calldatasize, 0x04))\n      shr(0xe0, calldataload(0x00))\n      dup1\n      0x610e8bad\n      eq\n      tag_3\n      jumpi\n    tag_2:\n      0x00\n      dup1\n      revert\n        /* \"Ep3/example.sol\":231:1115  function booleanExample() public {\r... */\n    tag_3:\n      tag_4\n      tag_5\n      jump\t// in\n    tag_4:\n      stop\n    tag_5:\n        /* \"Ep3/example.sol\":389:399  hasChecked */\n      0x00\n      dup1\n      sload\n      swap1\n      0x0100\n      exp\n      swap1\n      pop\n      pop\n        /* \"Ep3/example.sol\":534:538  true */\n      0x01\n        /* \"Ep3/example.sol\":520:538  hasChecked != true */\n      iszero\n      iszero\n        /* \"Ep3/example.sol\":520:530  hasChecked */\n      0x00\n      dup1\n      sload\n      swap1\n      0x0100\n      exp\n      swap1\n      pop\n      pop\n        /* \"Ep3/example.sol\":520:538  hasChecked != true */\n      pop\n        /* \"Ep3/example.sol\":685:689  true */\n      0x01\n        /* \"Ep3/example.sol\":671:689  hasChecked == true */\n      iszero\n      iszero\n        /* \"Ep3/example.sol\":671:681  hasChecked */\n      0x00\n      dup1\n      sload\n      swap1\n      0x0100\n      exp\n      swap1\n      pop\n      pop\n        /* \"Ep3/example.sol\":671:689  hasChecked == true */\n      pop\n        /* \"Ep3/example.sol\":833:845  bool hasPaid */\n      0x00\n        /* \"Ep3/example.sol\":848:852  true */\n      0x01\n        /* \"Ep3/example.sol\":833:852  bool hasPaid = true */\n      swap1\n      pop\n        /* \"Ep3/example.sol\":867:877  hasChecked */\n      0x00\n      dup1\n      sload\n      swap1\n      0x0100\n      exp\n      swap1\n      div\n      0xff\n      and\n        /* \"Ep3/example.sol\":867:888  hasChecked && hasPaid */\n      dup1\n      iszero\n      tag_10\n      jumpi\n      pop\n        /* \"Ep3/example.sol\":881:888  hasPaid */\n      dup1\n        /* \"Ep3/example.sol\":867:888  hasChecked && hasPaid */\n    tag_10:\n        /* \"Ep3/example.sol\":863:922  if (hasChecked && hasPaid) {\r... */\n      pop\n        /* \"Ep3/example.sol\":1052:1062  hasChecked */\n      0x00\n      dup1\n      sload\n      swap1\n      0x0100\n      exp\n      swap1\n      div\n      0xff\n      and\n        /* \"Ep3/example.sol\":1051:1062  !hasChecked */\n      iszero\n        /* \"Ep3/example.sol\":1051:1074  !hasChecked || !hasPaid */\n      dup1\n      tag_12\n      jumpi\n      pop\n        /* \"Ep3/example.sol\":1067:1074  hasPaid */\n      dup1\n        /* \"Ep3/example.sol\":1066:1074  !hasPaid */\n      iszero\n        /* \"Ep3/example.sol\":1051:1074  !hasChecked || !hasPaid */\n    tag_12:\n        /* \"Ep3/example.sol\":1047:1108  if (!hasChecked || !hasPaid) {\r... */\n      pop\n        /* \"Ep3/example.sol\":264:1115  {\r... */\n      pop\n        /* \"Ep3/example.sol\":231:1115  function booleanExample() public {\r... */\n      jump\t// out\n\n    auxdata: 0xa264697066735822122096bce7ede93c21e3cb934b001eb3c0321db5e5e9e17755549042c6503628c09464736f6c63430008070033\n}\n",
				"bytecode": {
					"linkReferences": {},
					"object": "608060405260008060006101000a81548160ff02191690831515021790555034801561002a57600080fd5b5060d1806100396000396000f3fe6080604052348015600f57600080fd5b506004361060285760003560e01c8063610e8bad14602d575b600080fd5b60336035565b005b60008054906101000a9050506001151560008054906101000a905050506001151560008054906101000a9050505060006001905060008054906101000a900460ff168015607f5750805b5060008054906101000a900460ff1615806097575080155b505056fea264697066735822122096bce7ede93c21e3cb934b001eb3c0321db5e5e9e17755549042c6503628c09464736f6c63430008070033",
					"opcodes": "PUSH1 0x80 PUSH1 0x40 MSTORE PUSH1 0x0 DUP1 PUSH1 0x0 PUSH2 0x100 EXP DUP2 SLOAD DUP2 PUSH1 0xFF MUL NOT AND SWAP1 DUP4 ISZERO ISZERO MUL OR SWAP1 SSTORE POP CALLVALUE DUP1 ISZERO PUSH2 0x2A JUMPI PUSH1 0x0 DUP1 REVERT JUMPDEST POP PUSH1 0xD1 DUP1 PUSH2 0x39 PUSH1 0x0 CODECOPY PUSH1 0x0 RETURN INVALID PUSH1 0x80 PUSH1 0x40 MSTORE CALLVALUE DUP1 ISZERO PUSH1 0xF JUMPI PUSH1 0x0 DUP1 REVERT JUMPDEST POP PUSH1 0x4 CALLDATASIZE LT PUSH1 0x28 JUMPI PUSH1 0x0 CALLDATALOAD PUSH1 0xE0 SHR DUP1 PUSH4 0x610E8BAD EQ PUSH1 0x2D JUMPI JUMPDEST PUSH1 0x0 DUP1 REVERT JUMPDEST PUSH1 0x33 PUSH1 0x35 JUMP JUMPDEST STOP JUMPDEST PUSH1 0x0 DUP1 SLOAD SWAP1 PUSH2 0x100 EXP SWAP1 POP POP PUSH1 0x1 ISZERO ISZERO PUSH1 0x0 DUP1 SLOAD SWAP1 PUSH2 0x100 EXP SWAP1 POP POP POP PUSH1 0x1 ISZERO ISZERO PUSH1 0x0 DUP1 SLOAD SWAP1 PUSH2 0x100 EXP SWAP1 POP POP POP PUSH1 0x0 PUSH1 0x1 SWAP1 POP PUSH1 0x0 DUP1 SLOAD SWAP1 PUSH2 0x100 EXP SWAP1 DIV PUSH1 0xFF AND DUP1 ISZERO PUSH1 0x7F JUMPI POP DUP1 JUMPDEST POP PUSH1 0x0 DUP1 SLOAD SWAP1 PUSH2 0x100 EXP SWAP1 DIV PUSH1 0xFF AND ISZERO DUP1 PUSH1 0x97 JUMPI POP DUP1 ISZERO JUMPDEST POP POP JUMP INVALID LOG2 PUSH5 0x6970667358 0x22 SLT KECCAK256 SWAP7 0xBC 0xE7 0xED 0xE9 EXTCODECOPY 0x21 0xE3 0xCB SWAP4 0x4B STOP 0x1E 0xB3 0xC0 ORIGIN SAR 0xB5 0xE5 0xE9 0xE1 PUSH24 0x55549042C6503628C09464736F6C63430008070033000000 "
				},
				"gasEstimates": {
					"creation": {
						"codeDepositCost": "41800",
						"executionCost": "24360",
						"totalCost": "66160"
					},
					"external": {
						"booleanExample()": "10873"
					}
				},
				"methodIdentifiers": {
					"booleanExample()": "610e8bad"
				}
			},
			"storageLayout": {
				"storage": [
					{
						"astId": 5,
						"contract": "Ep3/example.sol:Example",
						"label": "hasChecked",
						"offset": 0,
						"slot": "0",
						"type": "t_bool"
					}
				],
				"types": {
					"t_bool": {
						"encoding": "inplace",
						"label": "bool",
						"numberOfBytes": "1"
					}
				}
			},
			"userdoc": {
				"kind": "user",
				"methods": {},
				"version": 1
			}
		}
	}
}