{
	"Ep3/example.sol": {
		"Example": {
			"abi": [
				{
					"inputs": [],
					"name": "booleanExample",
					"outputs": [],
					"stateMutability": "nonpayable",
					"type": "function"
				}
			],
			"devdoc": {
				"kind": "dev",
				"methods": {},
				"version": 1
			},
			"evm": {
				"assembly": "    /* \"Ep3/example.sol\":90:1172  contract Example {\r... */\n  mstore(0x40, 0x80)\n  callvalue\n  dup1\n  iszero\n  tag_1\n  jumpi\n  0x00\n  dup1\n  revert\ntag_1:\n  pop\n  dataSize(sub_0)\n  dup1\n  dataOffset(sub_0)\n  0x00\n  codecopy\n  0x00\n  return\nstop\n\nsub_0: assembly {\n        /* \"Ep3/example.sol\":90:1172  contract Example {\r... */\n      mstore(0x40, 0x80)\n      callvalue\n      dup1\n      iszero\n      tag_1\n      jumpi\n      0x00\n      dup1\n      revert\n    tag_1:\n      pop\n      jumpi(tag_2, lt(calldatasize, 0x04))\n      shr(0xe0, calldataload(0x00))\n      dup1\n      0x610e8bad\n      eq\n      tag_3\n      jumpi\n    tag_2:\n      0x00\n      dup1\n      revert\n        /* \"Ep3/example.sol\":116:1167  function booleanExample() public {\r... */\n    tag_3:\n      tag_4\n      tag_5\n      jump\t// in\n    tag_4:\n      stop\n    tag_5:\n        /* \"Ep3/example.sol\":196:211  bool hasChecked */\n      0x00\n        /* \"Ep3/example.sol\":232:242  int8 xInt8 */\n      dup1\n        /* \"Ep3/example.sol\":245:249  -128 */\n      0xffffffffffffffffffffffffffffffffffffffffffffffffffffffffffffff80\n        /* \"Ep3/example.sol\":232:249  int8 xInt8 = -128 */\n      swap1\n      pop\n        /* \"Ep3/example.sol\":260:272  uint8 xUint8 */\n      0x00\n        /* \"Ep3/example.sol\":275:278  128 */\n      0x80\n        /* \"Ep3/example.sol\":260:278  uint8 xUint8 = 128 */\n      swap1\n      pop\n        /* \"Ep3/example.sol\":885:897  bool hasPaid */\n      0x00\n        /* \"Ep3/example.sol\":900:904  true */\n      0x01\n        /* \"Ep3/example.sol\":885:904  bool hasPaid = true */\n      swap1\n      pop\n        /* \"Ep3/example.sol\":919:929  hasChecked */\n      dup4\n        /* \"Ep3/example.sol\":919:940  hasChecked && hasPaid */\n      dup1\n      iszero\n      tag_10\n      jumpi\n      pop\n        /* \"Ep3/example.sol\":933:940  hasPaid */\n      dup1\n        /* \"Ep3/example.sol\":919:940  hasChecked && hasPaid */\n    tag_10:\n        /* \"Ep3/example.sol\":915:974  if (hasChecked && hasPaid) {\r... */\n      pop\n        /* \"Ep3/example.sol\":1104:1114  hasChecked */\n      dup4\n        /* \"Ep3/example.sol\":1103:1114  !hasChecked */\n      iszero\n        /* \"Ep3/example.sol\":1103:1126  !hasChecked || !hasPaid */\n      dup1\n      tag_12\n      jumpi\n      pop\n        /* \"Ep3/example.sol\":1119:1126  hasPaid */\n      dup1\n        /* \"Ep3/example.sol\":1118:1126  !hasPaid */\n      iszero\n        /* \"Ep3/example.sol\":1103:1126  !hasChecked || !hasPaid */\n    tag_12:\n        /* \"Ep3/example.sol\":1099:1160  if (!hasChecked || !hasPaid) {\r... */\n      pop\n        /* \"Ep3/example.sol\":149:1167  {\r... */\n      pop\n      pop\n      pop\n      pop\n        /* \"Ep3/example.sol\":116:1167  function booleanExample() public {\r... */\n      jump\t// out\n\n    auxdata: 0xa26469706673582212204bf43f0146c425fbf2af61af198289352d949cc27001b96d492e6dad48dc101964736f6c63430008070033\n}\n",
				"bytecode": {
					"linkReferences": {},
					"object": "608060405234801561001057600080fd5b5060b88061001f6000396000f3fe6080604052348015600f57600080fd5b506004361060285760003560e01c8063610e8bad14602d575b600080fd5b60336035565b005b6000807fffffffffffffffffffffffffffffffffffffffffffffffffffffffffffffff80905060006080905060006001905083801560705750805b50831580607b575080155b505050505056fea26469706673582212204bf43f0146c425fbf2af61af198289352d949cc27001b96d492e6dad48dc101964736f6c63430008070033",
					"opcodes": "PUSH1 0x80 PUSH1 0x40 MSTORE CALLVALUE DUP1 ISZERO PUSH2 0x10 JUMPI PUSH1 0x0 DUP1 REVERT JUMPDEST POP PUSH1 0xB8 DUP1 PUSH2 0x1F PUSH1 0x0 CODECOPY PUSH1 0x0 RETURN INVALID PUSH1 0x80 PUSH1 0x40 MSTORE CALLVALUE DUP1 ISZERO PUSH1 0xF JUMPI PUSH1 0x0 DUP1 REVERT JUMPDEST POP PUSH1 0x4 CALLDATASIZE LT PUSH1 0x28 JUMPI PUSH1 0x0 CALLDATALOAD PUSH1 0xE0 SHR DUP1 PUSH4 0x610E8BAD EQ PUSH1 0x2D JUMPI JUMPDEST PUSH1 0x0 DUP1 REVERT JUMPDEST PUSH1 0x33 PUSH1 0x35 JUMP JUMPDEST STOP JUMPDEST PUSH1 0x0 DUP1 PUSH32 0xFFFFFFFFFFFFFFFFFFFFFFFFFFFFFFFFFFFFFFFFFFFFFFFFFFFFFFFFFFFFFF80 SWAP1 POP PUSH1 0x0 PUSH1 0x80 SWAP1 POP PUSH1 0x0 PUSH1 0x1 SWAP1 POP DUP4 DUP1 ISZERO PUSH1 0x70 JUMPI POP DUP1 JUMPDEST POP DUP4 ISZERO DUP1 PUSH1 0x7B JUMPI POP DUP1 ISZERO JUMPDEST POP POP POP POP POP JUMP INVALID LOG2 PUSH5 0x6970667358 0x22 SLT KECCAK256 0x4B DELEGATECALL EXTCODEHASH ADD CHAINID 0xC4 0x25 0xFB CALLCODE 0xAF PUSH2 0xAF19 DUP3 DUP10 CALLDATALOAD 0x2D SWAP5 SWAP13 0xC2 PUSH17 0x1B96D492E6DAD48DC101964736F6C6343 STOP ADDMOD SMOD STOP CALLER "
				},
				"gasEstimates": {
					"creation": {
						"codeDepositCost": "36800",
						"executionCost": "87",
						"totalCost": "36887"
					},
					"external": {
						"booleanExample()": "216"
					}
				},
				"methodIdentifiers": {
					"booleanExample()": "610e8bad"
				}
			},
			"storageLayout": {
				"storage": [],
				"types": null
			},
			"userdoc": {
				"kind": "user",
				"methods": {},
				"version": 1
			}
		}
	}
}