{
	"Ep3/example.sol": {
		"Example": {
			"abi": [
				{
					"inputs": [],
					"name": "assignAddress",
					"outputs": [],
					"stateMutability": "nonpayable",
					"type": "function"
				},
				{
					"inputs": [],
					"name": "flowControlExample",
					"outputs": [],
					"stateMutability": "nonpayable",
					"type": "function"
				},
				{
					"inputs": [],
					"name": "hasChecked",
					"outputs": [
						{
							"internalType": "bool",
							"name": "",
							"type": "bool"
						}
					],
					"stateMutability": "view",
					"type": "function"
				}
			],
			"devdoc": {
				"kind": "dev",
				"methods": {
					"flowControlExample()": {
						"details": "流程控制範例"
					}
				},
				"stateVariables": {
					"hasChecked": {
						"details": "尚未檢查過"
					}
				},
				"version": 1
			},
			"evm": {
				"assembly": "    /* \"Ep3/example.sol\":90:977  contract Example {\r... */\n  mstore(0x40, 0x80)\n    /* \"Ep3/example.sol\":169:174  false */\n  0x00\n    /* \"Ep3/example.sol\":144:174  bool public hasChecked = false */\n  dup1\n  exp(0x0100, 0x00)\n  dup2\n  sload\n  dup2\n  0xff\n  mul\n  not\n  and\n  swap1\n  dup4\n  iszero\n  iszero\n  mul\n  or\n  swap1\n  sstore\n  pop\n    /* \"Ep3/example.sol\":208:212  -100 */\n  0xffffffffffffffffffffffffffffffffffffffffffffffffffffffffffffff9c\n    /* \"Ep3/example.sol\":183:212  int256 private xInt256 = -100 */\n  0x01\n  sstore\n    /* \"Ep3/example.sol\":261:265  -100 */\n  0xffffffffffffffffffffffffffffffffffffffffffffffffffffffffffffff9c\n    /* \"Ep3/example.sol\":242:265  int private xInt = -100 */\n  0x02\n  sstore\n    /* \"Ep3/example.sol\":339:342  128 */\n  0x80\n    /* \"Ep3/example.sol\":316:342  uint8 private xUint8 = 128 */\n  0x03\n  exp(0x0100, 0x00)\n  dup2\n  sload\n  dup2\n  0xff\n  mul\n  not\n  and\n  swap1\n  dup4\n  0xff\n  and\n  mul\n  or\n  swap1\n  sstore\n  pop\n    /* \"Ep3/example.sol\":351:381  string private str = \"dynamic\" */\n  mload(0x40)\n  dup1\n  0x40\n  add\n  0x40\n  mstore\n  dup1\n  0x07\n  dup2\n  mstore\n  0x20\n  add\n  0x64796e616d696300000000000000000000000000000000000000000000000000\n  dup2\n  mstore\n  pop\n  0x04\n  swap1\n  dup1\n  mload\n  swap1\n  0x20\n  add\n  swap1\n  tag_1\n  swap3\n  swap2\n  swap1\n  tag_2\n  jump\t// in\ntag_1:\n  pop\n    /* \"Ep3/example.sol\":428:470  0xdCad3a6d3569DF655070DEd06cb7A1b2Ccd1D3AF */\n  0xdcad3a6d3569df655070ded06cb7a1b2ccd1d3af\n    /* \"Ep3/example.sol\":390:471  address payable payableAddr = payable(0xdCad3a6d3569DF655070DEd06cb7A1b2Ccd1D3AF) */\n  0x05\n  exp(0x0100, 0x00)\n  dup2\n  sload\n  dup2\n  0xffffffffffffffffffffffffffffffffffffffff\n  mul\n  not\n  and\n  swap1\n  dup4\n  0xffffffffffffffffffffffffffffffffffffffff\n  and\n  mul\n  or\n  swap1\n  sstore\n  pop\n    /* \"Ep3/example.sol\":501:505  this */\n  address\n    /* \"Ep3/example.sol\":478:506  address addr = address(this) */\n  0x06\n  exp(0x0100, 0x00)\n  dup2\n  sload\n  dup2\n  0xffffffffffffffffffffffffffffffffffffffff\n  mul\n  not\n  and\n  swap1\n  dup4\n  0xffffffffffffffffffffffffffffffffffffffff\n  and\n  mul\n  or\n  swap1\n  sstore\n  pop\n    /* \"Ep3/example.sol\":90:977  contract Example {\r... */\n  callvalue\n  dup1\n  iszero\n  tag_3\n  jumpi\n  0x00\n  dup1\n  revert\ntag_3:\n  pop\n  jump(tag_4)\ntag_2:\n  dup3\n  dup1\n  sload\n  tag_5\n  swap1\n  tag_6\n  jump\t// in\ntag_5:\n  swap1\n  0x00\n  mstore\n  keccak256(0x00, 0x20)\n  swap1\n  0x1f\n  add\n  0x20\n  swap1\n  div\n  dup2\n  add\n  swap3\n  dup3\n  tag_8\n  jumpi\n  0x00\n  dup6\n  sstore\n  jump(tag_7)\ntag_8:\n  dup3\n  0x1f\n  lt\n  tag_9\n  jumpi\n  dup1\n  mload\n  not(0xff)\n  and\n  dup4\n  dup1\n  add\n  or\n  dup6\n  sstore\n  jump(tag_7)\ntag_9:\n  dup3\n  dup1\n  add\n  0x01\n  add\n  dup6\n  sstore\n  dup3\n  iszero\n  tag_7\n  jumpi\n  swap2\n  dup3\n  add\ntag_10:\n  dup3\n  dup2\n  gt\n  iszero\n  tag_11\n  jumpi\n  dup3\n  mload\n  dup3\n  sstore\n  swap2\n  0x20\n  add\n  swap2\n  swap1\n  0x01\n  add\n  swap1\n  jump(tag_10)\ntag_11:\ntag_7:\n  pop\n  swap1\n  pop\n  tag_12\n  swap2\n  swap1\n  tag_13\n  jump\t// in\ntag_12:\n  pop\n  swap1\n  jump\t// out\ntag_13:\ntag_14:\n  dup1\n  dup3\n  gt\n  iszero\n  tag_15\n  jumpi\n  0x00\n  dup2\n  0x00\n  swap1\n  sstore\n  pop\n  0x01\n  add\n  jump(tag_14)\ntag_15:\n  pop\n  swap1\n  jump\t// out\n    /* \"#utility.yul\":7:327   */\ntag_6:\n    /* \"#utility.yul\":51:57   */\n  0x00\n    /* \"#utility.yul\":88:89   */\n  0x02\n    /* \"#utility.yul\":82:86   */\n  dup3\n    /* \"#utility.yul\":78:90   */\n  div\n    /* \"#utility.yul\":68:90   */\n  swap1\n  pop\n    /* \"#utility.yul\":135:136   */\n  0x01\n    /* \"#utility.yul\":129:133   */\n  dup3\n    /* \"#utility.yul\":125:137   */\n  and\n    /* \"#utility.yul\":156:174   */\n  dup1\n    /* \"#utility.yul\":146:227   */\n  tag_18\n  jumpi\n    /* \"#utility.yul\":212:216   */\n  0x7f\n    /* \"#utility.yul\":204:210   */\n  dup3\n    /* \"#utility.yul\":200:217   */\n  and\n    /* \"#utility.yul\":190:217   */\n  swap2\n  pop\n    /* \"#utility.yul\":146:227   */\ntag_18:\n    /* \"#utility.yul\":274:276   */\n  0x20\n    /* \"#utility.yul\":266:272   */\n  dup3\n    /* \"#utility.yul\":263:277   */\n  lt\n    /* \"#utility.yul\":243:261   */\n  dup2\n    /* \"#utility.yul\":240:278   */\n  eq\n    /* \"#utility.yul\":237:321   */\n  iszero\n  tag_19\n  jumpi\n    /* \"#utility.yul\":293:311   */\n  tag_20\n  tag_21\n  jump\t// in\ntag_20:\n    /* \"#utility.yul\":237:321   */\ntag_19:\n    /* \"#utility.yul\":58:327   */\n  pop\n    /* \"#utility.yul\":7:327   */\n  swap2\n  swap1\n  pop\n  jump\t// out\n    /* \"#utility.yul\":333:513   */\ntag_21:\n    /* \"#utility.yul\":381:458   */\n  0x4e487b7100000000000000000000000000000000000000000000000000000000\n    /* \"#utility.yul\":378:379   */\n  0x00\n    /* \"#utility.yul\":371:459   */\n  mstore\n    /* \"#utility.yul\":478:482   */\n  0x22\n    /* \"#utility.yul\":475:476   */\n  0x04\n    /* \"#utility.yul\":468:483   */\n  mstore\n    /* \"#utility.yul\":502:506   */\n  0x24\n    /* \"#utility.yul\":499:500   */\n  0x00\n    /* \"#utility.yul\":492:507   */\n  revert\n    /* \"Ep3/example.sol\":90:977  contract Example {\r... */\ntag_4:\n  dataSize(sub_0)\n  dup1\n  dataOffset(sub_0)\n  0x00\n  codecopy\n  0x00\n  return\nstop\n\nsub_0: assembly {\n        /* \"Ep3/example.sol\":90:977  contract Example {\r... */\n      mstore(0x40, 0x80)\n      callvalue\n      dup1\n      iszero\n      tag_1\n      jumpi\n      0x00\n      dup1\n      revert\n    tag_1:\n      pop\n      jumpi(tag_2, lt(calldatasize, 0x04))\n      shr(0xe0, calldataload(0x00))\n      dup1\n      0x826ea227\n      eq\n      tag_3\n      jumpi\n      dup1\n      0xbfbb2281\n      eq\n      tag_4\n      jumpi\n      dup1\n      0xcbd33d05\n      eq\n      tag_5\n      jumpi\n    tag_2:\n      0x00\n      dup1\n      revert\n        /* \"Ep3/example.sol\":780:974  function flowControlExample() public {\r... */\n    tag_3:\n      tag_6\n      tag_7\n      jump\t// in\n    tag_6:\n      stop\n        /* \"Ep3/example.sol\":144:174  bool public hasChecked = false */\n    tag_4:\n      tag_8\n      tag_9\n      jump\t// in\n    tag_8:\n      mload(0x40)\n      tag_10\n      swap2\n      swap1\n      tag_11\n      jump\t// in\n    tag_10:\n      mload(0x40)\n      dup1\n      swap2\n      sub\n      swap1\n      return\n        /* \"Ep3/example.sol\":515:739  function assignAddress() public {\r... */\n    tag_5:\n      tag_12\n      tag_13\n      jump\t// in\n    tag_12:\n      stop\n        /* \"Ep3/example.sol\":780:974  function flowControlExample() public {\r... */\n    tag_7:\n        /* \"Ep3/example.sol\":828:839  uint8 count */\n      0x00\n        /* \"Ep3/example.sol\":920:930  hasChecked */\n      dup1\n      dup1\n      sload\n      swap1\n      0x0100\n      exp\n      swap1\n      div\n      0xff\n      and\n        /* \"Ep3/example.sol\":916:967  if (hasChecked) {\r... */\n      iszero\n      tag_15\n      jumpi\n        /* \"Ep3/example.sol\":954:955  1 */\n      0x01\n        /* \"Ep3/example.sol\":947:955  count+=1 */\n      dup2\n      tag_16\n      swap2\n      swap1\n      tag_17\n      jump\t// in\n    tag_16:\n      swap1\n      pop\n        /* \"Ep3/example.sol\":916:967  if (hasChecked) {\r... */\n    tag_15:\n        /* \"Ep3/example.sol\":817:974  {\r... */\n      pop\n        /* \"Ep3/example.sol\":780:974  function flowControlExample() public {\r... */\n      jump\t// out\n        /* \"Ep3/example.sol\":144:174  bool public hasChecked = false */\n    tag_9:\n      0x00\n      dup1\n      sload\n      swap1\n      0x0100\n      exp\n      swap1\n      div\n      0xff\n      and\n      dup2\n      jump\t// out\n        /* \"Ep3/example.sol\":515:739  function assignAddress() public {\r... */\n    tag_13:\n        /* \"Ep3/example.sol\":616:627  payableAddr */\n      0x05\n      0x00\n      swap1\n      sload\n      swap1\n      0x0100\n      exp\n      swap1\n      pop\n      pop\n        /* \"Ep3/example.sol\":707:718  payableAddr */\n      0x05\n      0x00\n      swap1\n      sload\n      swap1\n      0x0100\n      exp\n      swap1\n      div\n      0xffffffffffffffffffffffffffffffffffffffff\n      and\n        /* \"Ep3/example.sol\":707:727  payableAddr.transfer */\n      0xffffffffffffffffffffffffffffffffffffffff\n      and\n        /* \"Ep3/example.sol\":707:731  payableAddr.transfer(10) */\n      0x08fc\n        /* \"Ep3/example.sol\":728:730  10 */\n      0x0a\n        /* \"Ep3/example.sol\":707:731  payableAddr.transfer(10) */\n      swap1\n      dup2\n      iszero\n      mul\n      swap1\n      mload(0x40)\n      0x00\n      mload(0x40)\n      dup1\n      dup4\n      sub\n      dup2\n      dup6\n      dup9\n      dup9\n      call\n      swap4\n      pop\n      pop\n      pop\n      pop\n      iszero\n      dup1\n      iszero\n      tag_20\n      jumpi\n      returndatasize\n      0x00\n      dup1\n      returndatacopy\n      revert(0x00, returndatasize)\n    tag_20:\n      pop\n        /* \"Ep3/example.sol\":515:739  function assignAddress() public {\r... */\n      jump\t// out\n        /* \"#utility.yul\":7:116   */\n    tag_22:\n        /* \"#utility.yul\":88:109   */\n      tag_24\n        /* \"#utility.yul\":103:108   */\n      dup2\n        /* \"#utility.yul\":88:109   */\n      tag_25\n      jump\t// in\n    tag_24:\n        /* \"#utility.yul\":83:86   */\n      dup3\n        /* \"#utility.yul\":76:110   */\n      mstore\n        /* \"#utility.yul\":7:116   */\n      pop\n      pop\n      jump\t// out\n        /* \"#utility.yul\":122:332   */\n    tag_11:\n        /* \"#utility.yul\":209:213   */\n      0x00\n        /* \"#utility.yul\":247:249   */\n      0x20\n        /* \"#utility.yul\":236:245   */\n      dup3\n        /* \"#utility.yul\":232:250   */\n      add\n        /* \"#utility.yul\":224:250   */\n      swap1\n      pop\n        /* \"#utility.yul\":260:325   */\n      tag_27\n        /* \"#utility.yul\":322:323   */\n      0x00\n        /* \"#utility.yul\":311:320   */\n      dup4\n        /* \"#utility.yul\":307:324   */\n      add\n        /* \"#utility.yul\":298:304   */\n      dup5\n        /* \"#utility.yul\":260:325   */\n      tag_22\n      jump\t// in\n    tag_27:\n        /* \"#utility.yul\":122:332   */\n      swap3\n      swap2\n      pop\n      pop\n      jump\t// out\n        /* \"#utility.yul\":338:575   */\n    tag_17:\n        /* \"#utility.yul\":376:379   */\n      0x00\n        /* \"#utility.yul\":395:413   */\n      tag_29\n        /* \"#utility.yul\":411:412   */\n      dup3\n        /* \"#utility.yul\":395:413   */\n      tag_30\n      jump\t// in\n    tag_29:\n        /* \"#utility.yul\":390:413   */\n      swap2\n      pop\n        /* \"#utility.yul\":427:445   */\n      tag_31\n        /* \"#utility.yul\":443:444   */\n      dup4\n        /* \"#utility.yul\":427:445   */\n      tag_30\n      jump\t// in\n    tag_31:\n        /* \"#utility.yul\":422:445   */\n      swap3\n      pop\n        /* \"#utility.yul\":517:518   */\n      dup3\n        /* \"#utility.yul\":511:515   */\n      0xff\n        /* \"#utility.yul\":507:519   */\n      sub\n        /* \"#utility.yul\":504:505   */\n      dup3\n        /* \"#utility.yul\":501:520   */\n      gt\n        /* \"#utility.yul\":498:543   */\n      iszero\n      tag_32\n      jumpi\n        /* \"#utility.yul\":523:541   */\n      tag_33\n      tag_34\n      jump\t// in\n    tag_33:\n        /* \"#utility.yul\":498:543   */\n    tag_32:\n        /* \"#utility.yul\":567:568   */\n      dup3\n        /* \"#utility.yul\":564:565   */\n      dup3\n        /* \"#utility.yul\":560:569   */\n      add\n        /* \"#utility.yul\":553:569   */\n      swap1\n      pop\n        /* \"#utility.yul\":338:575   */\n      swap3\n      swap2\n      pop\n      pop\n      jump\t// out\n        /* \"#utility.yul\":581:671   */\n    tag_25:\n        /* \"#utility.yul\":615:622   */\n      0x00\n        /* \"#utility.yul\":658:663   */\n      dup2\n        /* \"#utility.yul\":651:664   */\n      iszero\n        /* \"#utility.yul\":644:665   */\n      iszero\n        /* \"#utility.yul\":633:665   */\n      swap1\n      pop\n        /* \"#utility.yul\":581:671   */\n      swap2\n      swap1\n      pop\n      jump\t// out\n        /* \"#utility.yul\":677:763   */\n    tag_30:\n        /* \"#utility.yul\":712:719   */\n      0x00\n        /* \"#utility.yul\":752:756   */\n      0xff\n        /* \"#utility.yul\":745:750   */\n      dup3\n        /* \"#utility.yul\":741:757   */\n      and\n        /* \"#utility.yul\":730:757   */\n      swap1\n      pop\n        /* \"#utility.yul\":677:763   */\n      swap2\n      swap1\n      pop\n      jump\t// out\n        /* \"#utility.yul\":769:949   */\n    tag_34:\n        /* \"#utility.yul\":817:894   */\n      0x4e487b7100000000000000000000000000000000000000000000000000000000\n        /* \"#utility.yul\":814:815   */\n      0x00\n        /* \"#utility.yul\":807:895   */\n      mstore\n        /* \"#utility.yul\":914:918   */\n      0x11\n        /* \"#utility.yul\":911:912   */\n      0x04\n        /* \"#utility.yul\":904:919   */\n      mstore\n        /* \"#utility.yul\":938:942   */\n      0x24\n        /* \"#utility.yul\":935:936   */\n      0x00\n        /* \"#utility.yul\":928:943   */\n      revert\n\n    auxdata: 0xa2646970667358221220098a2700456efbfba0bd62e47075df0814db0e6a32ec887da390474977c31dff64736f6c63430008070033\n}\n",
				"bytecode": {
					"linkReferences": {},
					"object": "608060405260008060006101000a81548160ff0219169083151502179055507fffffffffffffffffffffffffffffffffffffffffffffffffffffffffffffff9c6001557fffffffffffffffffffffffffffffffffffffffffffffffffffffffffffffff9c6002556080600360006101000a81548160ff021916908360ff1602179055506040518060400160405280600781526020017f64796e616d696300000000000000000000000000000000000000000000000000815250600490805190602001906100cd929190610176565b5073dcad3a6d3569df655070ded06cb7a1b2ccd1d3af600560006101000a81548173ffffffffffffffffffffffffffffffffffffffff021916908373ffffffffffffffffffffffffffffffffffffffff16021790555030600660006101000a81548173ffffffffffffffffffffffffffffffffffffffff021916908373ffffffffffffffffffffffffffffffffffffffff16021790555034801561017057600080fd5b5061027a565b82805461018290610219565b90600052602060002090601f0160209004810192826101a457600085556101eb565b82601f106101bd57805160ff19168380011785556101eb565b828001600101855582156101eb579182015b828111156101ea5782518255916020019190600101906101cf565b5b5090506101f891906101fc565b5090565b5b808211156102155760008160009055506001016101fd565b5090565b6000600282049050600182168061023157607f821691505b602082108114156102455761024461024b565b5b50919050565b7f4e487b7100000000000000000000000000000000000000000000000000000000600052602260045260246000fd5b610209806102896000396000f3fe608060405234801561001057600080fd5b50600436106100415760003560e01c8063826ea22714610046578063bfbb228114610050578063cbd33d051461006e575b600080fd5b61004e610078565b005b61005861009f565b6040516100659190610139565b60405180910390f35b6100766100b0565b005b6000808054906101000a900460ff161561009c576001816100999190610154565b90505b50565b60008054906101000a900460ff1681565b600560009054906101000a905050600560009054906101000a900473ffffffffffffffffffffffffffffffffffffffff1673ffffffffffffffffffffffffffffffffffffffff166108fc600a9081150290604051600060405180830381858888f19350505050158015610127573d6000803e3d6000fd5b50565b6101338161018b565b82525050565b600060208201905061014e600083018461012a565b92915050565b600061015f82610197565b915061016a83610197565b92508260ff038211156101805761017f6101a4565b5b828201905092915050565b60008115159050919050565b600060ff82169050919050565b7f4e487b7100000000000000000000000000000000000000000000000000000000600052601160045260246000fdfea2646970667358221220098a2700456efbfba0bd62e47075df0814db0e6a32ec887da390474977c31dff64736f6c63430008070033",
					"opcodes": "PUSH1 0x80 PUSH1 0x40 MSTORE PUSH1 0x0 DUP1 PUSH1 0x0 PUSH2 0x100 EXP DUP2 SLOAD DUP2 PUSH1 0xFF MUL NOT AND SWAP1 DUP4 ISZERO ISZERO MUL OR SWAP1 SSTORE POP PUSH32 0xFFFFFFFFFFFFFFFFFFFFFFFFFFFFFFFFFFFFFFFFFFFFFFFFFFFFFFFFFFFFFF9C PUSH1 0x1 SSTORE PUSH32 0xFFFFFFFFFFFFFFFFFFFFFFFFFFFFFFFFFFFFFFFFFFFFFFFFFFFFFFFFFFFFFF9C PUSH1 0x2 SSTORE PUSH1 0x80 PUSH1 0x3 PUSH1 0x0 PUSH2 0x100 EXP DUP2 SLOAD DUP2 PUSH1 0xFF MUL NOT AND SWAP1 DUP4 PUSH1 0xFF AND MUL OR SWAP1 SSTORE POP PUSH1 0x40 MLOAD DUP1 PUSH1 0x40 ADD PUSH1 0x40 MSTORE DUP1 PUSH1 0x7 DUP2 MSTORE PUSH1 0x20 ADD PUSH32 0x64796E616D696300000000000000000000000000000000000000000000000000 DUP2 MSTORE POP PUSH1 0x4 SWAP1 DUP1 MLOAD SWAP1 PUSH1 0x20 ADD SWAP1 PUSH2 0xCD SWAP3 SWAP2 SWAP1 PUSH2 0x176 JUMP JUMPDEST POP PUSH20 0xDCAD3A6D3569DF655070DED06CB7A1B2CCD1D3AF PUSH1 0x5 PUSH1 0x0 PUSH2 0x100 EXP DUP2 SLOAD DUP2 PUSH20 0xFFFFFFFFFFFFFFFFFFFFFFFFFFFFFFFFFFFFFFFF MUL NOT AND SWAP1 DUP4 PUSH20 0xFFFFFFFFFFFFFFFFFFFFFFFFFFFFFFFFFFFFFFFF AND MUL OR SWAP1 SSTORE POP ADDRESS PUSH1 0x6 PUSH1 0x0 PUSH2 0x100 EXP DUP2 SLOAD DUP2 PUSH20 0xFFFFFFFFFFFFFFFFFFFFFFFFFFFFFFFFFFFFFFFF MUL NOT AND SWAP1 DUP4 PUSH20 0xFFFFFFFFFFFFFFFFFFFFFFFFFFFFFFFFFFFFFFFF AND MUL OR SWAP1 SSTORE POP CALLVALUE DUP1 ISZERO PUSH2 0x170 JUMPI PUSH1 0x0 DUP1 REVERT JUMPDEST POP PUSH2 0x27A JUMP JUMPDEST DUP3 DUP1 SLOAD PUSH2 0x182 SWAP1 PUSH2 0x219 JUMP JUMPDEST SWAP1 PUSH1 0x0 MSTORE PUSH1 0x20 PUSH1 0x0 KECCAK256 SWAP1 PUSH1 0x1F ADD PUSH1 0x20 SWAP1 DIV DUP2 ADD SWAP3 DUP3 PUSH2 0x1A4 JUMPI PUSH1 0x0 DUP6 SSTORE PUSH2 0x1EB JUMP JUMPDEST DUP3 PUSH1 0x1F LT PUSH2 0x1BD JUMPI DUP1 MLOAD PUSH1 0xFF NOT AND DUP4 DUP1 ADD OR DUP6 SSTORE PUSH2 0x1EB JUMP JUMPDEST DUP3 DUP1 ADD PUSH1 0x1 ADD DUP6 SSTORE DUP3 ISZERO PUSH2 0x1EB JUMPI SWAP2 DUP3 ADD JUMPDEST DUP3 DUP2 GT ISZERO PUSH2 0x1EA JUMPI DUP3 MLOAD DUP3 SSTORE SWAP2 PUSH1 0x20 ADD SWAP2 SWAP1 PUSH1 0x1 ADD SWAP1 PUSH2 0x1CF JUMP JUMPDEST JUMPDEST POP SWAP1 POP PUSH2 0x1F8 SWAP2 SWAP1 PUSH2 0x1FC JUMP JUMPDEST POP SWAP1 JUMP JUMPDEST JUMPDEST DUP1 DUP3 GT ISZERO PUSH2 0x215 JUMPI PUSH1 0x0 DUP2 PUSH1 0x0 SWAP1 SSTORE POP PUSH1 0x1 ADD PUSH2 0x1FD JUMP JUMPDEST POP SWAP1 JUMP JUMPDEST PUSH1 0x0 PUSH1 0x2 DUP3 DIV SWAP1 POP PUSH1 0x1 DUP3 AND DUP1 PUSH2 0x231 JUMPI PUSH1 0x7F DUP3 AND SWAP2 POP JUMPDEST PUSH1 0x20 DUP3 LT DUP2 EQ ISZERO PUSH2 0x245 JUMPI PUSH2 0x244 PUSH2 0x24B JUMP JUMPDEST JUMPDEST POP SWAP2 SWAP1 POP JUMP JUMPDEST PUSH32 0x4E487B7100000000000000000000000000000000000000000000000000000000 PUSH1 0x0 MSTORE PUSH1 0x22 PUSH1 0x4 MSTORE PUSH1 0x24 PUSH1 0x0 REVERT JUMPDEST PUSH2 0x209 DUP1 PUSH2 0x289 PUSH1 0x0 CODECOPY PUSH1 0x0 RETURN INVALID PUSH1 0x80 PUSH1 0x40 MSTORE CALLVALUE DUP1 ISZERO PUSH2 0x10 JUMPI PUSH1 0x0 DUP1 REVERT JUMPDEST POP PUSH1 0x4 CALLDATASIZE LT PUSH2 0x41 JUMPI PUSH1 0x0 CALLDATALOAD PUSH1 0xE0 SHR DUP1 PUSH4 0x826EA227 EQ PUSH2 0x46 JUMPI DUP1 PUSH4 0xBFBB2281 EQ PUSH2 0x50 JUMPI DUP1 PUSH4 0xCBD33D05 EQ PUSH2 0x6E JUMPI JUMPDEST PUSH1 0x0 DUP1 REVERT JUMPDEST PUSH2 0x4E PUSH2 0x78 JUMP JUMPDEST STOP JUMPDEST PUSH2 0x58 PUSH2 0x9F JUMP JUMPDEST PUSH1 0x40 MLOAD PUSH2 0x65 SWAP2 SWAP1 PUSH2 0x139 JUMP JUMPDEST PUSH1 0x40 MLOAD DUP1 SWAP2 SUB SWAP1 RETURN JUMPDEST PUSH2 0x76 PUSH2 0xB0 JUMP JUMPDEST STOP JUMPDEST PUSH1 0x0 DUP1 DUP1 SLOAD SWAP1 PUSH2 0x100 EXP SWAP1 DIV PUSH1 0xFF AND ISZERO PUSH2 0x9C JUMPI PUSH1 0x1 DUP2 PUSH2 0x99 SWAP2 SWAP1 PUSH2 0x154 JUMP JUMPDEST SWAP1 POP JUMPDEST POP JUMP JUMPDEST PUSH1 0x0 DUP1 SLOAD SWAP1 PUSH2 0x100 EXP SWAP1 DIV PUSH1 0xFF AND DUP2 JUMP JUMPDEST PUSH1 0x5 PUSH1 0x0 SWAP1 SLOAD SWAP1 PUSH2 0x100 EXP SWAP1 POP POP PUSH1 0x5 PUSH1 0x0 SWAP1 SLOAD SWAP1 PUSH2 0x100 EXP SWAP1 DIV PUSH20 0xFFFFFFFFFFFFFFFFFFFFFFFFFFFFFFFFFFFFFFFF AND PUSH20 0xFFFFFFFFFFFFFFFFFFFFFFFFFFFFFFFFFFFFFFFF AND PUSH2 0x8FC PUSH1 0xA SWAP1 DUP2 ISZERO MUL SWAP1 PUSH1 0x40 MLOAD PUSH1 0x0 PUSH1 0x40 MLOAD DUP1 DUP4 SUB DUP2 DUP6 DUP9 DUP9 CALL SWAP4 POP POP POP POP ISZERO DUP1 ISZERO PUSH2 0x127 JUMPI RETURNDATASIZE PUSH1 0x0 DUP1 RETURNDATACOPY RETURNDATASIZE PUSH1 0x0 REVERT JUMPDEST POP JUMP JUMPDEST PUSH2 0x133 DUP2 PUSH2 0x18B JUMP JUMPDEST DUP3 MSTORE POP POP JUMP JUMPDEST PUSH1 0x0 PUSH1 0x20 DUP3 ADD SWAP1 POP PUSH2 0x14E PUSH1 0x0 DUP4 ADD DUP5 PUSH2 0x12A JUMP JUMPDEST SWAP3 SWAP2 POP POP JUMP JUMPDEST PUSH1 0x0 PUSH2 0x15F DUP3 PUSH2 0x197 JUMP JUMPDEST SWAP2 POP PUSH2 0x16A DUP4 PUSH2 0x197 JUMP JUMPDEST SWAP3 POP DUP3 PUSH1 0xFF SUB DUP3 GT ISZERO PUSH2 0x180 JUMPI PUSH2 0x17F PUSH2 0x1A4 JUMP JUMPDEST JUMPDEST DUP3 DUP3 ADD SWAP1 POP SWAP3 SWAP2 POP POP JUMP JUMPDEST PUSH1 0x0 DUP2 ISZERO ISZERO SWAP1 POP SWAP2 SWAP1 POP JUMP JUMPDEST PUSH1 0x0 PUSH1 0xFF DUP3 AND SWAP1 POP SWAP2 SWAP1 POP JUMP JUMPDEST PUSH32 0x4E487B7100000000000000000000000000000000000000000000000000000000 PUSH1 0x0 MSTORE PUSH1 0x11 PUSH1 0x4 MSTORE PUSH1 0x24 PUSH1 0x0 REVERT INVALID LOG2 PUSH5 0x6970667358 0x22 SLT KECCAK256 MULMOD DUP11 0x27 STOP GASLIMIT PUSH15 0xFBFBA0BD62E47075DF0814DB0E6A32 0xEC DUP9 PUSH30 0xA390474977C31DFF64736F6C634300080700330000000000000000000000 "
				},
				"gasEstimates": {
					"creation": {
						"codeDepositCost": "104200",
						"executionCost": "infinite",
						"totalCost": "infinite"
					},
					"external": {
						"assignAddress()": "infinite",
						"flowControlExample()": "infinite",
						"hasChecked()": "2468"
					}
				},
				"methodIdentifiers": {
					"assignAddress()": "cbd33d05",
					"flowControlExample()": "826ea227",
					"hasChecked()": "bfbb2281"
				}
			},
			"storageLayout": {
				"storage": [
					{
						"astId": 5,
						"contract": "Ep3/example.sol:Example",
						"label": "hasChecked",
						"offset": 0,
						"slot": "0",
						"type": "t_bool"
					},
					{
						"astId": 9,
						"contract": "Ep3/example.sol:Example",
						"label": "xInt256",
						"offset": 0,
						"slot": "1",
						"type": "t_int256"
					},
					{
						"astId": 13,
						"contract": "Ep3/example.sol:Example",
						"label": "xInt",
						"offset": 0,
						"slot": "2",
						"type": "t_int256"
					},
					{
						"astId": 16,
						"contract": "Ep3/example.sol:Example",
						"label": "xUint8",
						"offset": 0,
						"slot": "3",
						"type": "t_uint8"
					},
					{
						"astId": 19,
						"contract": "Ep3/example.sol:Example",
						"label": "str",
						"offset": 0,
						"slot": "4",
						"type": "t_string_storage"
					},
					{
						"astId": 25,
						"contract": "Ep3/example.sol:Example",
						"label": "payableAddr",
						"offset": 0,
						"slot": "5",
						"type": "t_address_payable"
					},
					{
						"astId": 31,
						"contract": "Ep3/example.sol:Example",
						"label": "addr",
						"offset": 0,
						"slot": "6",
						"type": "t_address"
					}
				],
				"types": {
					"t_address": {
						"encoding": "inplace",
						"label": "address",
						"numberOfBytes": "20"
					},
					"t_address_payable": {
						"encoding": "inplace",
						"label": "address payable",
						"numberOfBytes": "20"
					},
					"t_bool": {
						"encoding": "inplace",
						"label": "bool",
						"numberOfBytes": "1"
					},
					"t_int256": {
						"encoding": "inplace",
						"label": "int256",
						"numberOfBytes": "32"
					},
					"t_string_storage": {
						"encoding": "bytes",
						"label": "string",
						"numberOfBytes": "32"
					},
					"t_uint8": {
						"encoding": "inplace",
						"label": "uint8",
						"numberOfBytes": "1"
					}
				}
			},
			"userdoc": {
				"kind": "user",
				"methods": {},
				"version": 1
			}
		}
	}
}