{
	"Ep3/example.sol": {
		"Example": {
			"abi": [
				{
					"inputs": [],
					"name": "booleanExample",
					"outputs": [],
					"stateMutability": "nonpayable",
					"type": "function"
				}
			],
			"devdoc": {
				"kind": "dev",
				"methods": {},
				"stateVariables": {
					"hasChecked": {
						"details": "是否已經被檢查過"
					}
				},
				"version": 1
			},
			"evm": {
				"assembly": "    /* \"Ep3/example.sol\":90:1158  contract Example {\r... */\n  mstore(0x40, 0x80)\n    /* \"Ep3/example.sol\":217:222  false */\n  0x00\n    /* \"Ep3/example.sol\":191:222  bool private hasChecked = false */\n  dup1\n  exp(0x0100, 0x00)\n  dup2\n  sload\n  dup2\n  0xff\n  mul\n  not\n  and\n  swap1\n  dup4\n  iszero\n  iszero\n  mul\n  or\n  swap1\n  sstore\n  pop\n    /* \"Ep3/example.sol\":90:1158  contract Example {\r... */\n  callvalue\n  dup1\n  iszero\n  tag_1\n  jumpi\n  0x00\n  dup1\n  revert\ntag_1:\n  pop\n  dataSize(sub_0)\n  dup1\n  dataOffset(sub_0)\n  0x00\n  codecopy\n  0x00\n  return\nstop\n\nsub_0: assembly {\n        /* \"Ep3/example.sol\":90:1158  contract Example {\r... */\n      mstore(0x40, 0x80)\n      callvalue\n      dup1\n      iszero\n      tag_1\n      jumpi\n      0x00\n      dup1\n      revert\n    tag_1:\n      pop\n      jumpi(tag_2, lt(calldatasize, 0x04))\n      shr(0xe0, calldataload(0x00))\n      dup1\n      0x610e8bad\n      eq\n      tag_3\n      jumpi\n    tag_2:\n      0x00\n      dup1\n      revert\n        /* \"Ep3/example.sol\":231:1153  function booleanExample() public {\r... */\n    tag_3:\n      tag_4\n      tag_5\n      jump\t// in\n    tag_4:\n      stop\n    tag_5:\n        /* \"Ep3/example.sol\":391:401  hasChecked */\n      0x00\n      dup1\n      sload\n      swap1\n      0x0100\n      exp\n      swap1\n      pop\n      pop\n        /* \"Ep3/example.sol\":536:540  true */\n      0x01\n        /* \"Ep3/example.sol\":522:540  hasChecked != true */\n      iszero\n      iszero\n        /* \"Ep3/example.sol\":522:532  hasChecked */\n      0x00\n      dup1\n      sload\n      swap1\n      0x0100\n      exp\n      swap1\n      pop\n      pop\n        /* \"Ep3/example.sol\":522:540  hasChecked != true */\n      pop\n        /* \"Ep3/example.sol\":705:709  true */\n      0x01\n        /* \"Ep3/example.sol\":691:709  hasChecked == true */\n      iszero\n      iszero\n        /* \"Ep3/example.sol\":691:701  hasChecked */\n      0x00\n      dup1\n      sload\n      swap1\n      0x0100\n      exp\n      swap1\n      pop\n      pop\n        /* \"Ep3/example.sol\":691:709  hasChecked == true */\n      pop\n        /* \"Ep3/example.sol\":871:883  bool hasPaid */\n      0x00\n        /* \"Ep3/example.sol\":886:890  true */\n      0x01\n        /* \"Ep3/example.sol\":871:890  bool hasPaid = true */\n      swap1\n      pop\n        /* \"Ep3/example.sol\":905:915  hasChecked */\n      0x00\n      dup1\n      sload\n      swap1\n      0x0100\n      exp\n      swap1\n      div\n      0xff\n      and\n        /* \"Ep3/example.sol\":905:926  hasChecked && hasPaid */\n      dup1\n      iszero\n      tag_10\n      jumpi\n      pop\n        /* \"Ep3/example.sol\":919:926  hasPaid */\n      dup1\n        /* \"Ep3/example.sol\":905:926  hasChecked && hasPaid */\n    tag_10:\n        /* \"Ep3/example.sol\":901:960  if (hasChecked && hasPaid) {\r... */\n      pop\n        /* \"Ep3/example.sol\":1090:1100  hasChecked */\n      0x00\n      dup1\n      sload\n      swap1\n      0x0100\n      exp\n      swap1\n      div\n      0xff\n      and\n        /* \"Ep3/example.sol\":1089:1100  !hasChecked */\n      iszero\n        /* \"Ep3/example.sol\":1089:1112  !hasChecked || !hasPaid */\n      dup1\n      tag_12\n      jumpi\n      pop\n        /* \"Ep3/example.sol\":1105:1112  hasPaid */\n      dup1\n        /* \"Ep3/example.sol\":1104:1112  !hasPaid */\n      iszero\n        /* \"Ep3/example.sol\":1089:1112  !hasChecked || !hasPaid */\n    tag_12:\n        /* \"Ep3/example.sol\":1085:1146  if (!hasChecked || !hasPaid) {\r... */\n      pop\n        /* \"Ep3/example.sol\":264:1153  {\r... */\n      pop\n        /* \"Ep3/example.sol\":231:1153  function booleanExample() public {\r... */\n      jump\t// out\n\n    auxdata: 0xa2646970667358221220037c07f3cf693cf073a1b72fad305a46df46a0cb61e695f86f840a087b7378e064736f6c63430008070033\n}\n",
				"bytecode": {
					"linkReferences": {},
					"object": "608060405260008060006101000a81548160ff02191690831515021790555034801561002a57600080fd5b5060d1806100396000396000f3fe6080604052348015600f57600080fd5b506004361060285760003560e01c8063610e8bad14602d575b600080fd5b60336035565b005b60008054906101000a9050506001151560008054906101000a905050506001151560008054906101000a9050505060006001905060008054906101000a900460ff168015607f5750805b5060008054906101000a900460ff1615806097575080155b505056fea2646970667358221220037c07f3cf693cf073a1b72fad305a46df46a0cb61e695f86f840a087b7378e064736f6c63430008070033",
					"opcodes": "PUSH1 0x80 PUSH1 0x40 MSTORE PUSH1 0x0 DUP1 PUSH1 0x0 PUSH2 0x100 EXP DUP2 SLOAD DUP2 PUSH1 0xFF MUL NOT AND SWAP1 DUP4 ISZERO ISZERO MUL OR SWAP1 SSTORE POP CALLVALUE DUP1 ISZERO PUSH2 0x2A JUMPI PUSH1 0x0 DUP1 REVERT JUMPDEST POP PUSH1 0xD1 DUP1 PUSH2 0x39 PUSH1 0x0 CODECOPY PUSH1 0x0 RETURN INVALID PUSH1 0x80 PUSH1 0x40 MSTORE CALLVALUE DUP1 ISZERO PUSH1 0xF JUMPI PUSH1 0x0 DUP1 REVERT JUMPDEST POP PUSH1 0x4 CALLDATASIZE LT PUSH1 0x28 JUMPI PUSH1 0x0 CALLDATALOAD PUSH1 0xE0 SHR DUP1 PUSH4 0x610E8BAD EQ PUSH1 0x2D JUMPI JUMPDEST PUSH1 0x0 DUP1 REVERT JUMPDEST PUSH1 0x33 PUSH1 0x35 JUMP JUMPDEST STOP JUMPDEST PUSH1 0x0 DUP1 SLOAD SWAP1 PUSH2 0x100 EXP SWAP1 POP POP PUSH1 0x1 ISZERO ISZERO PUSH1 0x0 DUP1 SLOAD SWAP1 PUSH2 0x100 EXP SWAP1 POP POP POP PUSH1 0x1 ISZERO ISZERO PUSH1 0x0 DUP1 SLOAD SWAP1 PUSH2 0x100 EXP SWAP1 POP POP POP PUSH1 0x0 PUSH1 0x1 SWAP1 POP PUSH1 0x0 DUP1 SLOAD SWAP1 PUSH2 0x100 EXP SWAP1 DIV PUSH1 0xFF AND DUP1 ISZERO PUSH1 0x7F JUMPI POP DUP1 JUMPDEST POP PUSH1 0x0 DUP1 SLOAD SWAP1 PUSH2 0x100 EXP SWAP1 DIV PUSH1 0xFF AND ISZERO DUP1 PUSH1 0x97 JUMPI POP DUP1 ISZERO JUMPDEST POP POP JUMP INVALID LOG2 PUSH5 0x6970667358 0x22 SLT KECCAK256 SUB PUSH29 0x7F3CF693CF073A1B72FAD305A46DF46A0CB61E695F86F840A087B7378 0xE0 PUSH5 0x736F6C6343 STOP ADDMOD SMOD STOP CALLER "
				},
				"gasEstimates": {
					"creation": {
						"codeDepositCost": "41800",
						"executionCost": "24360",
						"totalCost": "66160"
					},
					"external": {
						"booleanExample()": "10873"
					}
				},
				"methodIdentifiers": {
					"booleanExample()": "610e8bad"
				}
			},
			"storageLayout": {
				"storage": [
					{
						"astId": 5,
						"contract": "Ep3/example.sol:Example",
						"label": "hasChecked",
						"offset": 0,
						"slot": "0",
						"type": "t_bool"
					}
				],
				"types": {
					"t_bool": {
						"encoding": "inplace",
						"label": "bool",
						"numberOfBytes": "1"
					}
				}
			},
			"userdoc": {
				"kind": "user",
				"methods": {},
				"version": 1
			}
		}
	}
}