{
	"Ep4/example.sol": {
		"Example": {
			"abi": [
				{
					"inputs": [],
					"name": "EtherUnitExample",
					"outputs": [],
					"stateMutability": "pure",
					"type": "function"
				},
				{
					"inputs": [],
					"name": "TimeUnitExample",
					"outputs": [],
					"stateMutability": "pure",
					"type": "function"
				},
				{
					"inputs": [
						{
							"internalType": "uint256",
							"name": "start",
							"type": "uint256"
						},
						{
							"internalType": "uint256",
							"name": "secondsAfter",
							"type": "uint256"
						}
					],
					"name": "validate",
					"outputs": [],
					"stateMutability": "view",
					"type": "function"
				}
			],
			"devdoc": {
				"kind": "dev",
				"methods": {},
				"version": 1
			},
			"evm": {
				"assembly": "    /* \"Ep4/example.sol\":60:778  contract Example {\r... */\n  mstore(0x40, 0x80)\n  callvalue\n  dup1\n  iszero\n  tag_1\n  jumpi\n  0x00\n  dup1\n  revert\ntag_1:\n  pop\n  dataSize(sub_0)\n  dup1\n  dataOffset(sub_0)\n  0x00\n  codecopy\n  0x00\n  return\nstop\n\nsub_0: assembly {\n        /* \"Ep4/example.sol\":60:778  contract Example {\r... */\n      mstore(0x40, 0x80)\n      callvalue\n      dup1\n      iszero\n      tag_1\n      jumpi\n      0x00\n      dup1\n      revert\n    tag_1:\n      pop\n      jumpi(tag_2, lt(calldatasize, 0x04))\n      shr(0xe0, calldataload(0x00))\n      dup1\n      0x19730b44\n      eq\n      tag_3\n      jumpi\n      dup1\n      0x822d0647\n      eq\n      tag_4\n      jumpi\n      dup1\n      0x9b92a9e8\n      eq\n      tag_5\n      jumpi\n    tag_2:\n      0x00\n      dup1\n      revert\n        /* \"Ep4/example.sol\":546:775  function validate(uint start, uint secondsAfter) public view {\r... */\n    tag_3:\n      tag_6\n      0x04\n      dup1\n      calldatasize\n      sub\n      dup2\n      add\n      swap1\n      tag_7\n      swap2\n      swap1\n      tag_8\n      jump\t// in\n    tag_7:\n      tag_9\n      jump\t// in\n    tag_6:\n      stop\n        /* \"Ep4/example.sol\":84:161  function EtherUnitExample() public pure {\r... */\n    tag_4:\n      tag_10\n      tag_11\n      jump\t// in\n    tag_10:\n      stop\n        /* \"Ep4/example.sol\":169:538  function TimeUnitExample() public pure {\r... */\n    tag_5:\n      tag_12\n      tag_13\n      jump\t// in\n    tag_12:\n      stop\n        /* \"Ep4/example.sol\":546:775  function validate(uint start, uint secondsAfter) public view {\r... */\n    tag_9:\n        /* \"Ep4/example.sol\":725:734  3 seconds */\n      0x03\n        /* \"Ep4/example.sol\":710:722  secondsAfter */\n      dup2\n        /* \"Ep4/example.sol\":710:734  secondsAfter * 3 seconds */\n      tag_15\n      swap2\n      swap1\n      tag_16\n      jump\t// in\n    tag_15:\n        /* \"Ep4/example.sol\":702:707  start */\n      dup3\n        /* \"Ep4/example.sol\":702:734  start + secondsAfter * 3 seconds */\n      tag_17\n      swap2\n      swap1\n      tag_18\n      jump\t// in\n    tag_17:\n        /* \"Ep4/example.sol\":683:734  block.timestamp >= start + secondsAfter * 3 seconds */\n      pop\n        /* \"Ep4/example.sol\":546:775  function validate(uint start, uint secondsAfter) public view {\r... */\n      pop\n      pop\n      jump\t// out\n        /* \"Ep4/example.sol\":84:161  function EtherUnitExample() public pure {\r... */\n    tag_11:\n        /* \"Ep4/example.sol\":151:152  1 */\n      0x01\n        /* \"Ep4/example.sol\":142:147  1 wei */\n      dup1\n        /* \"Ep4/example.sol\":142:152  1 wei == 1 */\n      eq\n        /* \"Ep4/example.sol\":135:153  assert(1 wei == 1) */\n      tag_21\n      jumpi\n      tag_22\n      tag_23\n      jump\t// in\n    tag_22:\n    tag_21:\n        /* \"Ep4/example.sol\":84:161  function EtherUnitExample() public pure {\r... */\n      jump\t// out\n        /* \"Ep4/example.sol\":169:538  function TimeUnitExample() public pure {\r... */\n    tag_13:\n        /* \"Ep4/example.sol\":256:257  1 */\n      0x01\n        /* \"Ep4/example.sol\":243:252  1 seconds */\n      dup1\n        /* \"Ep4/example.sol\":243:257  1 seconds == 1 */\n      eq\n        /* \"Ep4/example.sol\":236:258  assert(1 seconds == 1) */\n      tag_25\n      jumpi\n      tag_26\n      tag_23\n      jump\t// in\n    tag_26:\n    tag_25:\n        /* \"Ep4/example.sol\":319:329  60 seconds */\n      0x3c\n        /* \"Ep4/example.sol\":306:315  1 minutes */\n      dup1\n        /* \"Ep4/example.sol\":306:329  1 minutes == 60 seconds */\n      eq\n        /* \"Ep4/example.sol\":299:330  assert(1 minutes == 60 seconds) */\n      tag_27\n      jumpi\n      tag_28\n      tag_23\n      jump\t// in\n    tag_28:\n    tag_27:\n        /* \"Ep4/example.sol\":392:402  60 minutes */\n      0x0e10\n        /* \"Ep4/example.sol\":381:388  1 hours */\n      dup1\n        /* \"Ep4/example.sol\":381:402  1 hours == 60 minutes */\n      eq\n        /* \"Ep4/example.sol\":374:403  assert(1 hours == 60 minutes) */\n      tag_29\n      jumpi\n      tag_30\n      tag_23\n      jump\t// in\n    tag_30:\n    tag_29:\n        /* \"Ep4/example.sol\":459:467  24 hours */\n      0x015180\n        /* \"Ep4/example.sol\":449:455  1 days */\n      dup1\n        /* \"Ep4/example.sol\":449:467  1 days == 24 hours */\n      eq\n        /* \"Ep4/example.sol\":442:468  assert(1 days == 24 hours) */\n      tag_31\n      jumpi\n      tag_32\n      tag_23\n      jump\t// in\n    tag_32:\n    tag_31:\n        /* \"Ep4/example.sol\":523:529  7 days */\n      0x093a80\n        /* \"Ep4/example.sol\":512:519  1 weeks */\n      dup1\n        /* \"Ep4/example.sol\":512:529  1 weeks == 7 days */\n      eq\n        /* \"Ep4/example.sol\":505:530  assert(1 weeks == 7 days) */\n      tag_33\n      jumpi\n      tag_34\n      tag_23\n      jump\t// in\n    tag_34:\n    tag_33:\n        /* \"Ep4/example.sol\":169:538  function TimeUnitExample() public pure {\r... */\n      jump\t// out\n        /* \"#utility.yul\":7:146   */\n    tag_36:\n        /* \"#utility.yul\":53:58   */\n      0x00\n        /* \"#utility.yul\":91:97   */\n      dup2\n        /* \"#utility.yul\":78:98   */\n      calldataload\n        /* \"#utility.yul\":69:98   */\n      swap1\n      pop\n        /* \"#utility.yul\":107:140   */\n      tag_38\n        /* \"#utility.yul\":134:139   */\n      dup2\n        /* \"#utility.yul\":107:140   */\n      tag_39\n      jump\t// in\n    tag_38:\n        /* \"#utility.yul\":7:146   */\n      swap3\n      swap2\n      pop\n      pop\n      jump\t// out\n        /* \"#utility.yul\":152:626   */\n    tag_8:\n        /* \"#utility.yul\":220:226   */\n      0x00\n        /* \"#utility.yul\":228:234   */\n      dup1\n        /* \"#utility.yul\":277:279   */\n      0x40\n        /* \"#utility.yul\":265:274   */\n      dup4\n        /* \"#utility.yul\":256:263   */\n      dup6\n        /* \"#utility.yul\":252:275   */\n      sub\n        /* \"#utility.yul\":248:280   */\n      slt\n        /* \"#utility.yul\":245:364   */\n      iszero\n      tag_41\n      jumpi\n        /* \"#utility.yul\":283:362   */\n      tag_42\n      tag_43\n      jump\t// in\n    tag_42:\n        /* \"#utility.yul\":245:364   */\n    tag_41:\n        /* \"#utility.yul\":403:404   */\n      0x00\n        /* \"#utility.yul\":428:481   */\n      tag_44\n        /* \"#utility.yul\":473:480   */\n      dup6\n        /* \"#utility.yul\":464:470   */\n      dup3\n        /* \"#utility.yul\":453:462   */\n      dup7\n        /* \"#utility.yul\":449:471   */\n      add\n        /* \"#utility.yul\":428:481   */\n      tag_36\n      jump\t// in\n    tag_44:\n        /* \"#utility.yul\":418:481   */\n      swap3\n      pop\n        /* \"#utility.yul\":374:491   */\n      pop\n        /* \"#utility.yul\":530:532   */\n      0x20\n        /* \"#utility.yul\":556:609   */\n      tag_45\n        /* \"#utility.yul\":601:608   */\n      dup6\n        /* \"#utility.yul\":592:598   */\n      dup3\n        /* \"#utility.yul\":581:590   */\n      dup7\n        /* \"#utility.yul\":577:599   */\n      add\n        /* \"#utility.yul\":556:609   */\n      tag_36\n      jump\t// in\n    tag_45:\n        /* \"#utility.yul\":546:609   */\n      swap2\n      pop\n        /* \"#utility.yul\":501:619   */\n      pop\n        /* \"#utility.yul\":152:626   */\n      swap3\n      pop\n      swap3\n      swap1\n      pop\n      jump\t// out\n        /* \"#utility.yul\":713:1018   */\n    tag_18:\n        /* \"#utility.yul\":753:756   */\n      0x00\n        /* \"#utility.yul\":772:792   */\n      tag_49\n        /* \"#utility.yul\":790:791   */\n      dup3\n        /* \"#utility.yul\":772:792   */\n      tag_50\n      jump\t// in\n    tag_49:\n        /* \"#utility.yul\":767:792   */\n      swap2\n      pop\n        /* \"#utility.yul\":806:826   */\n      tag_51\n        /* \"#utility.yul\":824:825   */\n      dup4\n        /* \"#utility.yul\":806:826   */\n      tag_50\n      jump\t// in\n    tag_51:\n        /* \"#utility.yul\":801:826   */\n      swap3\n      pop\n        /* \"#utility.yul\":960:961   */\n      dup3\n        /* \"#utility.yul\":892:958   */\n      0xffffffffffffffffffffffffffffffffffffffffffffffffffffffffffffffff\n        /* \"#utility.yul\":888:962   */\n      sub\n        /* \"#utility.yul\":885:886   */\n      dup3\n        /* \"#utility.yul\":882:963   */\n      gt\n        /* \"#utility.yul\":879:986   */\n      iszero\n      tag_52\n      jumpi\n        /* \"#utility.yul\":966:984   */\n      tag_53\n      tag_54\n      jump\t// in\n    tag_53:\n        /* \"#utility.yul\":879:986   */\n    tag_52:\n        /* \"#utility.yul\":1010:1011   */\n      dup3\n        /* \"#utility.yul\":1007:1008   */\n      dup3\n        /* \"#utility.yul\":1003:1012   */\n      add\n        /* \"#utility.yul\":996:1012   */\n      swap1\n      pop\n        /* \"#utility.yul\":713:1018   */\n      swap3\n      swap2\n      pop\n      pop\n      jump\t// out\n        /* \"#utility.yul\":1024:1372   */\n    tag_16:\n        /* \"#utility.yul\":1064:1071   */\n      0x00\n        /* \"#utility.yul\":1087:1107   */\n      tag_56\n        /* \"#utility.yul\":1105:1106   */\n      dup3\n        /* \"#utility.yul\":1087:1107   */\n      tag_50\n      jump\t// in\n    tag_56:\n        /* \"#utility.yul\":1082:1107   */\n      swap2\n      pop\n        /* \"#utility.yul\":1121:1141   */\n      tag_57\n        /* \"#utility.yul\":1139:1140   */\n      dup4\n        /* \"#utility.yul\":1121:1141   */\n      tag_50\n      jump\t// in\n    tag_57:\n        /* \"#utility.yul\":1116:1141   */\n      swap3\n      pop\n        /* \"#utility.yul\":1309:1310   */\n      dup2\n        /* \"#utility.yul\":1241:1307   */\n      0xffffffffffffffffffffffffffffffffffffffffffffffffffffffffffffffff\n        /* \"#utility.yul\":1237:1311   */\n      div\n        /* \"#utility.yul\":1234:1235   */\n      dup4\n        /* \"#utility.yul\":1231:1312   */\n      gt\n        /* \"#utility.yul\":1226:1227   */\n      dup3\n        /* \"#utility.yul\":1219:1228   */\n      iszero\n        /* \"#utility.yul\":1212:1229   */\n      iszero\n        /* \"#utility.yul\":1208:1313   */\n      and\n        /* \"#utility.yul\":1205:1336   */\n      iszero\n      tag_58\n      jumpi\n        /* \"#utility.yul\":1316:1334   */\n      tag_59\n      tag_54\n      jump\t// in\n    tag_59:\n        /* \"#utility.yul\":1205:1336   */\n    tag_58:\n        /* \"#utility.yul\":1364:1365   */\n      dup3\n        /* \"#utility.yul\":1361:1362   */\n      dup3\n        /* \"#utility.yul\":1357:1366   */\n      mul\n        /* \"#utility.yul\":1346:1366   */\n      swap1\n      pop\n        /* \"#utility.yul\":1024:1372   */\n      swap3\n      swap2\n      pop\n      pop\n      jump\t// out\n        /* \"#utility.yul\":1378:1455   */\n    tag_50:\n        /* \"#utility.yul\":1415:1422   */\n      0x00\n        /* \"#utility.yul\":1444:1449   */\n      dup2\n        /* \"#utility.yul\":1433:1449   */\n      swap1\n      pop\n        /* \"#utility.yul\":1378:1455   */\n      swap2\n      swap1\n      pop\n      jump\t// out\n        /* \"#utility.yul\":1461:1641   */\n    tag_23:\n        /* \"#utility.yul\":1509:1586   */\n      0x4e487b7100000000000000000000000000000000000000000000000000000000\n        /* \"#utility.yul\":1506:1507   */\n      0x00\n        /* \"#utility.yul\":1499:1587   */\n      mstore\n        /* \"#utility.yul\":1606:1610   */\n      0x01\n        /* \"#utility.yul\":1603:1604   */\n      0x04\n        /* \"#utility.yul\":1596:1611   */\n      mstore\n        /* \"#utility.yul\":1630:1634   */\n      0x24\n        /* \"#utility.yul\":1627:1628   */\n      0x00\n        /* \"#utility.yul\":1620:1635   */\n      revert\n        /* \"#utility.yul\":1647:1827   */\n    tag_54:\n        /* \"#utility.yul\":1695:1772   */\n      0x4e487b7100000000000000000000000000000000000000000000000000000000\n        /* \"#utility.yul\":1692:1693   */\n      0x00\n        /* \"#utility.yul\":1685:1773   */\n      mstore\n        /* \"#utility.yul\":1792:1796   */\n      0x11\n        /* \"#utility.yul\":1789:1790   */\n      0x04\n        /* \"#utility.yul\":1782:1797   */\n      mstore\n        /* \"#utility.yul\":1816:1820   */\n      0x24\n        /* \"#utility.yul\":1813:1814   */\n      0x00\n        /* \"#utility.yul\":1806:1821   */\n      revert\n        /* \"#utility.yul\":1956:2073   */\n    tag_43:\n        /* \"#utility.yul\":2065:2066   */\n      0x00\n        /* \"#utility.yul\":2062:2063   */\n      dup1\n        /* \"#utility.yul\":2055:2067   */\n      revert\n        /* \"#utility.yul\":2079:2201   */\n    tag_39:\n        /* \"#utility.yul\":2152:2176   */\n      tag_67\n        /* \"#utility.yul\":2170:2175   */\n      dup2\n        /* \"#utility.yul\":2152:2176   */\n      tag_50\n      jump\t// in\n    tag_67:\n        /* \"#utility.yul\":2145:2150   */\n      dup2\n        /* \"#utility.yul\":2142:2177   */\n      eq\n        /* \"#utility.yul\":2132:2195   */\n      tag_68\n      jumpi\n        /* \"#utility.yul\":2191:2192   */\n      0x00\n        /* \"#utility.yul\":2188:2189   */\n      dup1\n        /* \"#utility.yul\":2181:2193   */\n      revert\n        /* \"#utility.yul\":2132:2195   */\n    tag_68:\n        /* \"#utility.yul\":2079:2201   */\n      pop\n      jump\t// out\n\n    auxdata: 0xa2646970667358221220429954f07493af1e52c21a1219e7553120426aaa2bbbbc27e135995e256ced6664736f6c63430008070033\n}\n",
				"bytecode": {
					"linkReferences": {},
					"object": "608060405234801561001057600080fd5b506102c1806100206000396000f3fe608060405234801561001057600080fd5b50600436106100415760003560e01c806319730b4414610046578063822d0647146100625780639b92a9e81461006c575b600080fd5b610060600480360381019061005b9190610117565b610076565b005b61006a610093565b005b6100746100a6565b005b60038161008391906101ad565b8261008e9190610157565b505050565b600180146100a4576100a3610211565b5b565b600180146100b7576100b6610211565b5b603c80146100c8576100c7610211565b5b610e1080146100da576100d9610211565b5b6201518080146100ed576100ec610211565b5b62093a808014610100576100ff610211565b5b565b60008135905061011181610274565b92915050565b6000806040838503121561012e5761012d61026f565b5b600061013c85828601610102565b925050602061014d85828601610102565b9150509250929050565b600061016282610207565b915061016d83610207565b9250827fffffffffffffffffffffffffffffffffffffffffffffffffffffffffffffffff038211156101a2576101a1610240565b5b828201905092915050565b60006101b882610207565b91506101c383610207565b9250817fffffffffffffffffffffffffffffffffffffffffffffffffffffffffffffffff04831182151516156101fc576101fb610240565b5b828202905092915050565b6000819050919050565b7f4e487b7100000000000000000000000000000000000000000000000000000000600052600160045260246000fd5b7f4e487b7100000000000000000000000000000000000000000000000000000000600052601160045260246000fd5b600080fd5b61027d81610207565b811461028857600080fd5b5056fea2646970667358221220429954f07493af1e52c21a1219e7553120426aaa2bbbbc27e135995e256ced6664736f6c63430008070033",
					"opcodes": "PUSH1 0x80 PUSH1 0x40 MSTORE CALLVALUE DUP1 ISZERO PUSH2 0x10 JUMPI PUSH1 0x0 DUP1 REVERT JUMPDEST POP PUSH2 0x2C1 DUP1 PUSH2 0x20 PUSH1 0x0 CODECOPY PUSH1 0x0 RETURN INVALID PUSH1 0x80 PUSH1 0x40 MSTORE CALLVALUE DUP1 ISZERO PUSH2 0x10 JUMPI PUSH1 0x0 DUP1 REVERT JUMPDEST POP PUSH1 0x4 CALLDATASIZE LT PUSH2 0x41 JUMPI PUSH1 0x0 CALLDATALOAD PUSH1 0xE0 SHR DUP1 PUSH4 0x19730B44 EQ PUSH2 0x46 JUMPI DUP1 PUSH4 0x822D0647 EQ PUSH2 0x62 JUMPI DUP1 PUSH4 0x9B92A9E8 EQ PUSH2 0x6C JUMPI JUMPDEST PUSH1 0x0 DUP1 REVERT JUMPDEST PUSH2 0x60 PUSH1 0x4 DUP1 CALLDATASIZE SUB DUP2 ADD SWAP1 PUSH2 0x5B SWAP2 SWAP1 PUSH2 0x117 JUMP JUMPDEST PUSH2 0x76 JUMP JUMPDEST STOP JUMPDEST PUSH2 0x6A PUSH2 0x93 JUMP JUMPDEST STOP JUMPDEST PUSH2 0x74 PUSH2 0xA6 JUMP JUMPDEST STOP JUMPDEST PUSH1 0x3 DUP2 PUSH2 0x83 SWAP2 SWAP1 PUSH2 0x1AD JUMP JUMPDEST DUP3 PUSH2 0x8E SWAP2 SWAP1 PUSH2 0x157 JUMP JUMPDEST POP POP POP JUMP JUMPDEST PUSH1 0x1 DUP1 EQ PUSH2 0xA4 JUMPI PUSH2 0xA3 PUSH2 0x211 JUMP JUMPDEST JUMPDEST JUMP JUMPDEST PUSH1 0x1 DUP1 EQ PUSH2 0xB7 JUMPI PUSH2 0xB6 PUSH2 0x211 JUMP JUMPDEST JUMPDEST PUSH1 0x3C DUP1 EQ PUSH2 0xC8 JUMPI PUSH2 0xC7 PUSH2 0x211 JUMP JUMPDEST JUMPDEST PUSH2 0xE10 DUP1 EQ PUSH2 0xDA JUMPI PUSH2 0xD9 PUSH2 0x211 JUMP JUMPDEST JUMPDEST PUSH3 0x15180 DUP1 EQ PUSH2 0xED JUMPI PUSH2 0xEC PUSH2 0x211 JUMP JUMPDEST JUMPDEST PUSH3 0x93A80 DUP1 EQ PUSH2 0x100 JUMPI PUSH2 0xFF PUSH2 0x211 JUMP JUMPDEST JUMPDEST JUMP JUMPDEST PUSH1 0x0 DUP2 CALLDATALOAD SWAP1 POP PUSH2 0x111 DUP2 PUSH2 0x274 JUMP JUMPDEST SWAP3 SWAP2 POP POP JUMP JUMPDEST PUSH1 0x0 DUP1 PUSH1 0x40 DUP4 DUP6 SUB SLT ISZERO PUSH2 0x12E JUMPI PUSH2 0x12D PUSH2 0x26F JUMP JUMPDEST JUMPDEST PUSH1 0x0 PUSH2 0x13C DUP6 DUP3 DUP7 ADD PUSH2 0x102 JUMP JUMPDEST SWAP3 POP POP PUSH1 0x20 PUSH2 0x14D DUP6 DUP3 DUP7 ADD PUSH2 0x102 JUMP JUMPDEST SWAP2 POP POP SWAP3 POP SWAP3 SWAP1 POP JUMP JUMPDEST PUSH1 0x0 PUSH2 0x162 DUP3 PUSH2 0x207 JUMP JUMPDEST SWAP2 POP PUSH2 0x16D DUP4 PUSH2 0x207 JUMP JUMPDEST SWAP3 POP DUP3 PUSH32 0xFFFFFFFFFFFFFFFFFFFFFFFFFFFFFFFFFFFFFFFFFFFFFFFFFFFFFFFFFFFFFFFF SUB DUP3 GT ISZERO PUSH2 0x1A2 JUMPI PUSH2 0x1A1 PUSH2 0x240 JUMP JUMPDEST JUMPDEST DUP3 DUP3 ADD SWAP1 POP SWAP3 SWAP2 POP POP JUMP JUMPDEST PUSH1 0x0 PUSH2 0x1B8 DUP3 PUSH2 0x207 JUMP JUMPDEST SWAP2 POP PUSH2 0x1C3 DUP4 PUSH2 0x207 JUMP JUMPDEST SWAP3 POP DUP2 PUSH32 0xFFFFFFFFFFFFFFFFFFFFFFFFFFFFFFFFFFFFFFFFFFFFFFFFFFFFFFFFFFFFFFFF DIV DUP4 GT DUP3 ISZERO ISZERO AND ISZERO PUSH2 0x1FC JUMPI PUSH2 0x1FB PUSH2 0x240 JUMP JUMPDEST JUMPDEST DUP3 DUP3 MUL SWAP1 POP SWAP3 SWAP2 POP POP JUMP JUMPDEST PUSH1 0x0 DUP2 SWAP1 POP SWAP2 SWAP1 POP JUMP JUMPDEST PUSH32 0x4E487B7100000000000000000000000000000000000000000000000000000000 PUSH1 0x0 MSTORE PUSH1 0x1 PUSH1 0x4 MSTORE PUSH1 0x24 PUSH1 0x0 REVERT JUMPDEST PUSH32 0x4E487B7100000000000000000000000000000000000000000000000000000000 PUSH1 0x0 MSTORE PUSH1 0x11 PUSH1 0x4 MSTORE PUSH1 0x24 PUSH1 0x0 REVERT JUMPDEST PUSH1 0x0 DUP1 REVERT JUMPDEST PUSH2 0x27D DUP2 PUSH2 0x207 JUMP JUMPDEST DUP2 EQ PUSH2 0x288 JUMPI PUSH1 0x0 DUP1 REVERT JUMPDEST POP JUMP INVALID LOG2 PUSH5 0x6970667358 0x22 SLT KECCAK256 TIMESTAMP SWAP10 SLOAD CREATE PUSH21 0x93AF1E52C21A1219E7553120426AAA2BBBBC27E135 SWAP10 0x5E 0x25 PUSH13 0xED6664736F6C63430008070033 "
				},
				"gasEstimates": {
					"creation": {
						"codeDepositCost": "141000",
						"executionCost": "190",
						"totalCost": "141190"
					},
					"external": {
						"EtherUnitExample()": "167",
						"TimeUnitExample()": "281",
						"validate(uint256,uint256)": "infinite"
					}
				},
				"methodIdentifiers": {
					"EtherUnitExample()": "822d0647",
					"TimeUnitExample()": "9b92a9e8",
					"validate(uint256,uint256)": "19730b44"
				}
			},
			"storageLayout": {
				"storage": [],
				"types": null
			},
			"userdoc": {
				"kind": "user",
				"methods": {},
				"version": 1
			}
		}
	}
}