{
	"Ep4/example.sol": {
		"Example": {
			"abi": [
				{
					"inputs": [],
					"name": "etherUnitExample",
					"outputs": [],
					"stateMutability": "pure",
					"type": "function"
				},
				{
					"inputs": [
						{
							"internalType": "uint256",
							"name": "base",
							"type": "uint256"
						},
						{
							"internalType": "uint256",
							"name": "n",
							"type": "uint256"
						}
					],
					"name": "pow",
					"outputs": [
						{
							"internalType": "uint256",
							"name": "",
							"type": "uint256"
						}
					],
					"stateMutability": "nonpayable",
					"type": "function"
				},
				{
					"inputs": [],
					"name": "timeUnitExample",
					"outputs": [],
					"stateMutability": "pure",
					"type": "function"
				},
				{
					"inputs": [
						{
							"internalType": "uint256",
							"name": "start",
							"type": "uint256"
						},
						{
							"internalType": "uint256",
							"name": "secondsAfter",
							"type": "uint256"
						}
					],
					"name": "validate",
					"outputs": [
						{
							"internalType": "bool",
							"name": "",
							"type": "bool"
						}
					],
					"stateMutability": "view",
					"type": "function"
				}
			],
			"devdoc": {
				"kind": "dev",
				"methods": {},
				"version": 1
			},
			"evm": {
				"assembly": "    /* \"Ep4/example.sol\":62:1429  contract Example {\r... */\n  mstore(0x40, 0x80)\n  callvalue\n  dup1\n  iszero\n  tag_1\n  jumpi\n  0x00\n  dup1\n  revert\ntag_1:\n  pop\n  dataSize(sub_0)\n  dup1\n  dataOffset(sub_0)\n  0x00\n  codecopy\n  0x00\n  return\nstop\n\nsub_0: assembly {\n        /* \"Ep4/example.sol\":62:1429  contract Example {\r... */\n      mstore(0x40, 0x80)\n      callvalue\n      dup1\n      iszero\n      tag_1\n      jumpi\n      0x00\n      dup1\n      revert\n    tag_1:\n      pop\n      jumpi(tag_2, lt(calldatasize, 0x04))\n      shr(0xe0, calldataload(0x00))\n      dup1\n      0x19730b44\n      eq\n      tag_3\n      jumpi\n      dup1\n      0x24475f4c\n      eq\n      tag_4\n      jumpi\n      dup1\n      0x2e4c697f\n      eq\n      tag_5\n      jumpi\n      dup1\n      0x97e82183\n      eq\n      tag_6\n      jumpi\n    tag_2:\n      0x00\n      dup1\n      revert\n        /* \"Ep4/example.sol\":972:1426  function validate(uint start, uint secondsAfter) public view returns(bool) {\r... */\n    tag_3:\n      tag_7\n      0x04\n      dup1\n      calldatasize\n      sub\n      dup2\n      add\n      swap1\n      tag_8\n      swap2\n      swap1\n      tag_9\n      jump\t// in\n    tag_8:\n      tag_10\n      jump\t// in\n    tag_7:\n      mload(0x40)\n      tag_11\n      swap2\n      swap1\n      tag_12\n      jump\t// in\n    tag_11:\n      mload(0x40)\n      dup1\n      swap2\n      sub\n      swap1\n      return\n        /* \"Ep4/example.sol\":595:964  function timeUnitExample() public pure {\r... */\n    tag_4:\n      tag_13\n      tag_14\n      jump\t// in\n    tag_13:\n      stop\n        /* \"Ep4/example.sol\":86:172  function pow(uint base, uint n) public returns(uint) {\r... */\n    tag_5:\n      tag_15\n      0x04\n      dup1\n      calldatasize\n      sub\n      dup2\n      add\n      swap1\n      tag_16\n      swap2\n      swap1\n      tag_9\n      jump\t// in\n    tag_16:\n      tag_17\n      jump\t// in\n    tag_15:\n      mload(0x40)\n      tag_18\n      swap2\n      swap1\n      tag_19\n      jump\t// in\n    tag_18:\n      mload(0x40)\n      dup1\n      swap2\n      sub\n      swap1\n      return\n        /* \"Ep4/example.sol\":180:587  function etherUnitExample() public pure {\r... */\n    tag_6:\n      tag_20\n      tag_21\n      jump\t// in\n    tag_20:\n      stop\n        /* \"Ep4/example.sol\":972:1426  function validate(uint start, uint secondsAfter) public view returns(bool) {\r... */\n    tag_10:\n        /* \"Ep4/example.sol\":1041:1045  bool */\n      0x00\n        /* \"Ep4/example.sol\":1058:1074  bool isValidated */\n      dup1\n        /* \"Ep4/example.sol\":1077:1082  false */\n      0x00\n        /* \"Ep4/example.sol\":1058:1082  bool isValidated = false */\n      swap1\n      pop\n        /* \"Ep4/example.sol\":1324:1333  3 seconds */\n      0x03\n        /* \"Ep4/example.sol\":1309:1321  secondsAfter */\n      dup4\n        /* \"Ep4/example.sol\":1309:1333  secondsAfter * 3 seconds */\n      tag_23\n      swap2\n      swap1\n      tag_24\n      jump\t// in\n    tag_23:\n        /* \"Ep4/example.sol\":1301:1306  start */\n      dup5\n        /* \"Ep4/example.sol\":1301:1333  start + secondsAfter * 3 seconds */\n      tag_25\n      swap2\n      swap1\n      tag_26\n      jump\t// in\n    tag_25:\n        /* \"Ep4/example.sol\":1282:1297  block.timestamp */\n      timestamp\n        /* \"Ep4/example.sol\":1282:1333  block.timestamp >= start + secondsAfter * 3 seconds */\n      lt\n        /* \"Ep4/example.sol\":1278:1380  if (block.timestamp >= start + secondsAfter * 3 seconds) {\r... */\n      tag_27\n      jumpi\n        /* \"Ep4/example.sol\":1364:1368  true */\n      0x01\n        /* \"Ep4/example.sol\":1350:1368  isValidated = true */\n      swap1\n      pop\n        /* \"Ep4/example.sol\":1278:1380  if (block.timestamp >= start + secondsAfter * 3 seconds) {\r... */\n    tag_27:\n        /* \"Ep4/example.sol\":1407:1418  isValidated */\n      dup1\n        /* \"Ep4/example.sol\":1400:1418  return isValidated */\n      swap2\n      pop\n      pop\n        /* \"Ep4/example.sol\":972:1426  function validate(uint start, uint secondsAfter) public view returns(bool) {\r... */\n      swap3\n      swap2\n      pop\n      pop\n      jump\t// out\n        /* \"Ep4/example.sol\":595:964  function timeUnitExample() public pure {\r... */\n    tag_14:\n        /* \"Ep4/example.sol\":682:683  1 */\n      0x01\n        /* \"Ep4/example.sol\":669:678  1 seconds */\n      dup1\n        /* \"Ep4/example.sol\":669:683  1 seconds == 1 */\n      eq\n        /* \"Ep4/example.sol\":662:684  assert(1 seconds == 1) */\n      tag_29\n      jumpi\n      tag_30\n      tag_31\n      jump\t// in\n    tag_30:\n    tag_29:\n        /* \"Ep4/example.sol\":745:755  60 seconds */\n      0x3c\n        /* \"Ep4/example.sol\":732:741  1 minutes */\n      dup1\n        /* \"Ep4/example.sol\":732:755  1 minutes == 60 seconds */\n      eq\n        /* \"Ep4/example.sol\":725:756  assert(1 minutes == 60 seconds) */\n      tag_32\n      jumpi\n      tag_33\n      tag_31\n      jump\t// in\n    tag_33:\n    tag_32:\n        /* \"Ep4/example.sol\":818:828  60 minutes */\n      0x0e10\n        /* \"Ep4/example.sol\":807:814  1 hours */\n      dup1\n        /* \"Ep4/example.sol\":807:828  1 hours == 60 minutes */\n      eq\n        /* \"Ep4/example.sol\":800:829  assert(1 hours == 60 minutes) */\n      tag_34\n      jumpi\n      tag_35\n      tag_31\n      jump\t// in\n    tag_35:\n    tag_34:\n        /* \"Ep4/example.sol\":885:893  24 hours */\n      0x015180\n        /* \"Ep4/example.sol\":875:881  1 days */\n      dup1\n        /* \"Ep4/example.sol\":875:893  1 days == 24 hours */\n      eq\n        /* \"Ep4/example.sol\":868:894  assert(1 days == 24 hours) */\n      tag_36\n      jumpi\n      tag_37\n      tag_31\n      jump\t// in\n    tag_37:\n    tag_36:\n        /* \"Ep4/example.sol\":949:955  7 days */\n      0x093a80\n        /* \"Ep4/example.sol\":938:945  1 weeks */\n      dup1\n        /* \"Ep4/example.sol\":938:955  1 weeks == 7 days */\n      eq\n        /* \"Ep4/example.sol\":931:956  assert(1 weeks == 7 days) */\n      tag_38\n      jumpi\n      tag_39\n      tag_31\n      jump\t// in\n    tag_39:\n    tag_38:\n        /* \"Ep4/example.sol\":595:964  function timeUnitExample() public pure {\r... */\n      jump\t// out\n        /* \"Ep4/example.sol\":86:172  function pow(uint base, uint n) public returns(uint) {\r... */\n    tag_17:\n        /* \"Ep4/example.sol\":133:137  uint */\n      0x00\n        /* \"Ep4/example.sol\":163:164  n */\n      dup2\n        /* \"Ep4/example.sol\":157:161  base */\n      dup4\n        /* \"Ep4/example.sol\":157:164  base**n */\n      tag_41\n      swap2\n      swap1\n      tag_42\n      jump\t// in\n    tag_41:\n        /* \"Ep4/example.sol\":150:164  return base**n */\n      swap1\n      pop\n        /* \"Ep4/example.sol\":86:172  function pow(uint base, uint n) public returns(uint) {\r... */\n      swap3\n      swap2\n      pop\n      pop\n      jump\t// out\n        /* \"Ep4/example.sol\":180:587  function etherUnitExample() public pure {\r... */\n    tag_21:\n        /* \"Ep4/example.sol\":276:287  uint oneWei */\n      0x00\n        /* \"Ep4/example.sol\":290:295  1 wei */\n      0x01\n        /* \"Ep4/example.sol\":276:295  uint oneWei = 1 wei */\n      swap1\n      pop\n        /* \"Ep4/example.sol\":334:335  1 */\n      0x01\n        /* \"Ep4/example.sol\":324:330  oneWei */\n      dup2\n        /* \"Ep4/example.sol\":324:335  oneWei == 1 */\n      eq\n        /* \"Ep4/example.sol\":316:363  require(oneWei == 1, \"1 wei is not equal to 1\") */\n      tag_44\n      jumpi\n      mload(0x40)\n      0x08c379a000000000000000000000000000000000000000000000000000000000\n      dup2\n      mstore\n      0x04\n      add\n      tag_45\n      swap1\n      tag_46\n      jump\t// in\n    tag_45:\n      mload(0x40)\n      dup1\n      swap2\n      sub\n      swap1\n      revert\n    tag_44:\n        /* \"Ep4/example.sol\":434:437  1e9 */\n      0x3b9aca00\n        /* \"Ep4/example.sol\":424:430  1 gwei */\n      dup1\n        /* \"Ep4/example.sol\":424:437  1 gwei == 1e9 */\n      eq\n        /* \"Ep4/example.sol\":416:468  require(1 gwei == 1e9, \"1 gwei is not equal to 1e9\") */\n      tag_47\n      jumpi\n      mload(0x40)\n      0x08c379a000000000000000000000000000000000000000000000000000000000\n      dup2\n      mstore\n      0x04\n      add\n      tag_48\n      swap1\n      tag_49\n      jump\t// in\n    tag_48:\n      mload(0x40)\n      dup1\n      swap2\n      sub\n      swap1\n      revert\n    tag_47:\n        /* \"Ep4/example.sol\":542:546  1e18 */\n      0x0de0b6b3a7640000\n        /* \"Ep4/example.sol\":531:538  1 ether */\n      dup1\n        /* \"Ep4/example.sol\":531:546  1 ether == 1e18 */\n      eq\n        /* \"Ep4/example.sol\":523:579  require(1 ether == 1e18, \"1 ether is not equal to 1e18\") */\n      tag_50\n      jumpi\n      mload(0x40)\n      0x08c379a000000000000000000000000000000000000000000000000000000000\n      dup2\n      mstore\n      0x04\n      add\n      tag_51\n      swap1\n      tag_52\n      jump\t// in\n    tag_51:\n      mload(0x40)\n      dup1\n      swap2\n      sub\n      swap1\n      revert\n    tag_50:\n        /* \"Ep4/example.sol\":220:587  {\r... */\n      pop\n        /* \"Ep4/example.sol\":180:587  function etherUnitExample() public pure {\r... */\n      jump\t// out\n        /* \"#utility.yul\":7:146   */\n    tag_54:\n        /* \"#utility.yul\":53:58   */\n      0x00\n        /* \"#utility.yul\":91:97   */\n      dup2\n        /* \"#utility.yul\":78:98   */\n      calldataload\n        /* \"#utility.yul\":69:98   */\n      swap1\n      pop\n        /* \"#utility.yul\":107:140   */\n      tag_56\n        /* \"#utility.yul\":134:139   */\n      dup2\n        /* \"#utility.yul\":107:140   */\n      tag_57\n      jump\t// in\n    tag_56:\n        /* \"#utility.yul\":7:146   */\n      swap3\n      swap2\n      pop\n      pop\n      jump\t// out\n        /* \"#utility.yul\":152:626   */\n    tag_9:\n        /* \"#utility.yul\":220:226   */\n      0x00\n        /* \"#utility.yul\":228:234   */\n      dup1\n        /* \"#utility.yul\":277:279   */\n      0x40\n        /* \"#utility.yul\":265:274   */\n      dup4\n        /* \"#utility.yul\":256:263   */\n      dup6\n        /* \"#utility.yul\":252:275   */\n      sub\n        /* \"#utility.yul\":248:280   */\n      slt\n        /* \"#utility.yul\":245:364   */\n      iszero\n      tag_59\n      jumpi\n        /* \"#utility.yul\":283:362   */\n      tag_60\n      tag_61\n      jump\t// in\n    tag_60:\n        /* \"#utility.yul\":245:364   */\n    tag_59:\n        /* \"#utility.yul\":403:404   */\n      0x00\n        /* \"#utility.yul\":428:481   */\n      tag_62\n        /* \"#utility.yul\":473:480   */\n      dup6\n        /* \"#utility.yul\":464:470   */\n      dup3\n        /* \"#utility.yul\":453:462   */\n      dup7\n        /* \"#utility.yul\":449:471   */\n      add\n        /* \"#utility.yul\":428:481   */\n      tag_54\n      jump\t// in\n    tag_62:\n        /* \"#utility.yul\":418:481   */\n      swap3\n      pop\n        /* \"#utility.yul\":374:491   */\n      pop\n        /* \"#utility.yul\":530:532   */\n      0x20\n        /* \"#utility.yul\":556:609   */\n      tag_63\n        /* \"#utility.yul\":601:608   */\n      dup6\n        /* \"#utility.yul\":592:598   */\n      dup3\n        /* \"#utility.yul\":581:590   */\n      dup7\n        /* \"#utility.yul\":577:599   */\n      add\n        /* \"#utility.yul\":556:609   */\n      tag_54\n      jump\t// in\n    tag_63:\n        /* \"#utility.yul\":546:609   */\n      swap2\n      pop\n        /* \"#utility.yul\":501:619   */\n      pop\n        /* \"#utility.yul\":152:626   */\n      swap3\n      pop\n      swap3\n      swap1\n      pop\n      jump\t// out\n        /* \"#utility.yul\":632:741   */\n    tag_64:\n        /* \"#utility.yul\":713:734   */\n      tag_66\n        /* \"#utility.yul\":728:733   */\n      dup2\n        /* \"#utility.yul\":713:734   */\n      tag_67\n      jump\t// in\n    tag_66:\n        /* \"#utility.yul\":708:711   */\n      dup3\n        /* \"#utility.yul\":701:735   */\n      mstore\n        /* \"#utility.yul\":632:741   */\n      pop\n      pop\n      jump\t// out\n        /* \"#utility.yul\":747:1113   */\n    tag_68:\n        /* \"#utility.yul\":889:892   */\n      0x00\n        /* \"#utility.yul\":910:977   */\n      tag_70\n        /* \"#utility.yul\":974:976   */\n      0x1a\n        /* \"#utility.yul\":969:972   */\n      dup4\n        /* \"#utility.yul\":910:977   */\n      tag_71\n      jump\t// in\n    tag_70:\n        /* \"#utility.yul\":903:977   */\n      swap2\n      pop\n        /* \"#utility.yul\":986:1079   */\n      tag_72\n        /* \"#utility.yul\":1075:1078   */\n      dup3\n        /* \"#utility.yul\":986:1079   */\n      tag_73\n      jump\t// in\n    tag_72:\n        /* \"#utility.yul\":1104:1106   */\n      0x20\n        /* \"#utility.yul\":1099:1102   */\n      dup3\n        /* \"#utility.yul\":1095:1107   */\n      add\n        /* \"#utility.yul\":1088:1107   */\n      swap1\n      pop\n        /* \"#utility.yul\":747:1113   */\n      swap2\n      swap1\n      pop\n      jump\t// out\n        /* \"#utility.yul\":1119:1485   */\n    tag_74:\n        /* \"#utility.yul\":1261:1264   */\n      0x00\n        /* \"#utility.yul\":1282:1349   */\n      tag_76\n        /* \"#utility.yul\":1346:1348   */\n      0x17\n        /* \"#utility.yul\":1341:1344   */\n      dup4\n        /* \"#utility.yul\":1282:1349   */\n      tag_71\n      jump\t// in\n    tag_76:\n        /* \"#utility.yul\":1275:1349   */\n      swap2\n      pop\n        /* \"#utility.yul\":1358:1451   */\n      tag_77\n        /* \"#utility.yul\":1447:1450   */\n      dup3\n        /* \"#utility.yul\":1358:1451   */\n      tag_78\n      jump\t// in\n    tag_77:\n        /* \"#utility.yul\":1476:1478   */\n      0x20\n        /* \"#utility.yul\":1471:1474   */\n      dup3\n        /* \"#utility.yul\":1467:1479   */\n      add\n        /* \"#utility.yul\":1460:1479   */\n      swap1\n      pop\n        /* \"#utility.yul\":1119:1485   */\n      swap2\n      swap1\n      pop\n      jump\t// out\n        /* \"#utility.yul\":1491:1857   */\n    tag_79:\n        /* \"#utility.yul\":1633:1636   */\n      0x00\n        /* \"#utility.yul\":1654:1721   */\n      tag_81\n        /* \"#utility.yul\":1718:1720   */\n      0x1c\n        /* \"#utility.yul\":1713:1716   */\n      dup4\n        /* \"#utility.yul\":1654:1721   */\n      tag_71\n      jump\t// in\n    tag_81:\n        /* \"#utility.yul\":1647:1721   */\n      swap2\n      pop\n        /* \"#utility.yul\":1730:1823   */\n      tag_82\n        /* \"#utility.yul\":1819:1822   */\n      dup3\n        /* \"#utility.yul\":1730:1823   */\n      tag_83\n      jump\t// in\n    tag_82:\n        /* \"#utility.yul\":1848:1850   */\n      0x20\n        /* \"#utility.yul\":1843:1846   */\n      dup3\n        /* \"#utility.yul\":1839:1851   */\n      add\n        /* \"#utility.yul\":1832:1851   */\n      swap1\n      pop\n        /* \"#utility.yul\":1491:1857   */\n      swap2\n      swap1\n      pop\n      jump\t// out\n        /* \"#utility.yul\":1863:1981   */\n    tag_84:\n        /* \"#utility.yul\":1950:1974   */\n      tag_86\n        /* \"#utility.yul\":1968:1973   */\n      dup2\n        /* \"#utility.yul\":1950:1974   */\n      tag_87\n      jump\t// in\n    tag_86:\n        /* \"#utility.yul\":1945:1948   */\n      dup3\n        /* \"#utility.yul\":1938:1975   */\n      mstore\n        /* \"#utility.yul\":1863:1981   */\n      pop\n      pop\n      jump\t// out\n        /* \"#utility.yul\":1987:2197   */\n    tag_12:\n        /* \"#utility.yul\":2074:2078   */\n      0x00\n        /* \"#utility.yul\":2112:2114   */\n      0x20\n        /* \"#utility.yul\":2101:2110   */\n      dup3\n        /* \"#utility.yul\":2097:2115   */\n      add\n        /* \"#utility.yul\":2089:2115   */\n      swap1\n      pop\n        /* \"#utility.yul\":2125:2190   */\n      tag_89\n        /* \"#utility.yul\":2187:2188   */\n      0x00\n        /* \"#utility.yul\":2176:2185   */\n      dup4\n        /* \"#utility.yul\":2172:2189   */\n      add\n        /* \"#utility.yul\":2163:2169   */\n      dup5\n        /* \"#utility.yul\":2125:2190   */\n      tag_64\n      jump\t// in\n    tag_89:\n        /* \"#utility.yul\":1987:2197   */\n      swap3\n      swap2\n      pop\n      pop\n      jump\t// out\n        /* \"#utility.yul\":2203:2622   */\n    tag_49:\n        /* \"#utility.yul\":2369:2373   */\n      0x00\n        /* \"#utility.yul\":2407:2409   */\n      0x20\n        /* \"#utility.yul\":2396:2405   */\n      dup3\n        /* \"#utility.yul\":2392:2410   */\n      add\n        /* \"#utility.yul\":2384:2410   */\n      swap1\n      pop\n        /* \"#utility.yul\":2456:2465   */\n      dup2\n        /* \"#utility.yul\":2450:2454   */\n      dup2\n        /* \"#utility.yul\":2446:2466   */\n      sub\n        /* \"#utility.yul\":2442:2443   */\n      0x00\n        /* \"#utility.yul\":2431:2440   */\n      dup4\n        /* \"#utility.yul\":2427:2444   */\n      add\n        /* \"#utility.yul\":2420:2467   */\n      mstore\n        /* \"#utility.yul\":2484:2615   */\n      tag_91\n        /* \"#utility.yul\":2610:2614   */\n      dup2\n        /* \"#utility.yul\":2484:2615   */\n      tag_68\n      jump\t// in\n    tag_91:\n        /* \"#utility.yul\":2476:2615   */\n      swap1\n      pop\n        /* \"#utility.yul\":2203:2622   */\n      swap2\n      swap1\n      pop\n      jump\t// out\n        /* \"#utility.yul\":2628:3047   */\n    tag_46:\n        /* \"#utility.yul\":2794:2798   */\n      0x00\n        /* \"#utility.yul\":2832:2834   */\n      0x20\n        /* \"#utility.yul\":2821:2830   */\n      dup3\n        /* \"#utility.yul\":2817:2835   */\n      add\n        /* \"#utility.yul\":2809:2835   */\n      swap1\n      pop\n        /* \"#utility.yul\":2881:2890   */\n      dup2\n        /* \"#utility.yul\":2875:2879   */\n      dup2\n        /* \"#utility.yul\":2871:2891   */\n      sub\n        /* \"#utility.yul\":2867:2868   */\n      0x00\n        /* \"#utility.yul\":2856:2865   */\n      dup4\n        /* \"#utility.yul\":2852:2869   */\n      add\n        /* \"#utility.yul\":2845:2892   */\n      mstore\n        /* \"#utility.yul\":2909:3040   */\n      tag_93\n        /* \"#utility.yul\":3035:3039   */\n      dup2\n        /* \"#utility.yul\":2909:3040   */\n      tag_74\n      jump\t// in\n    tag_93:\n        /* \"#utility.yul\":2901:3040   */\n      swap1\n      pop\n        /* \"#utility.yul\":2628:3047   */\n      swap2\n      swap1\n      pop\n      jump\t// out\n        /* \"#utility.yul\":3053:3472   */\n    tag_52:\n        /* \"#utility.yul\":3219:3223   */\n      0x00\n        /* \"#utility.yul\":3257:3259   */\n      0x20\n        /* \"#utility.yul\":3246:3255   */\n      dup3\n        /* \"#utility.yul\":3242:3260   */\n      add\n        /* \"#utility.yul\":3234:3260   */\n      swap1\n      pop\n        /* \"#utility.yul\":3306:3315   */\n      dup2\n        /* \"#utility.yul\":3300:3304   */\n      dup2\n        /* \"#utility.yul\":3296:3316   */\n      sub\n        /* \"#utility.yul\":3292:3293   */\n      0x00\n        /* \"#utility.yul\":3281:3290   */\n      dup4\n        /* \"#utility.yul\":3277:3294   */\n      add\n        /* \"#utility.yul\":3270:3317   */\n      mstore\n        /* \"#utility.yul\":3334:3465   */\n      tag_95\n        /* \"#utility.yul\":3460:3464   */\n      dup2\n        /* \"#utility.yul\":3334:3465   */\n      tag_79\n      jump\t// in\n    tag_95:\n        /* \"#utility.yul\":3326:3465   */\n      swap1\n      pop\n        /* \"#utility.yul\":3053:3472   */\n      swap2\n      swap1\n      pop\n      jump\t// out\n        /* \"#utility.yul\":3478:3700   */\n    tag_19:\n        /* \"#utility.yul\":3571:3575   */\n      0x00\n        /* \"#utility.yul\":3609:3611   */\n      0x20\n        /* \"#utility.yul\":3598:3607   */\n      dup3\n        /* \"#utility.yul\":3594:3612   */\n      add\n        /* \"#utility.yul\":3586:3612   */\n      swap1\n      pop\n        /* \"#utility.yul\":3622:3693   */\n      tag_97\n        /* \"#utility.yul\":3690:3691   */\n      0x00\n        /* \"#utility.yul\":3679:3688   */\n      dup4\n        /* \"#utility.yul\":3675:3692   */\n      add\n        /* \"#utility.yul\":3666:3672   */\n      dup5\n        /* \"#utility.yul\":3622:3693   */\n      tag_84\n      jump\t// in\n    tag_97:\n        /* \"#utility.yul\":3478:3700   */\n      swap3\n      swap2\n      pop\n      pop\n      jump\t// out\n        /* \"#utility.yul\":3787:3956   */\n    tag_71:\n        /* \"#utility.yul\":3871:3882   */\n      0x00\n        /* \"#utility.yul\":3905:3911   */\n      dup3\n        /* \"#utility.yul\":3900:3903   */\n      dup3\n        /* \"#utility.yul\":3893:3912   */\n      mstore\n        /* \"#utility.yul\":3945:3949   */\n      0x20\n        /* \"#utility.yul\":3940:3943   */\n      dup3\n        /* \"#utility.yul\":3936:3950   */\n      add\n        /* \"#utility.yul\":3921:3950   */\n      swap1\n      pop\n        /* \"#utility.yul\":3787:3956   */\n      swap3\n      swap2\n      pop\n      pop\n      jump\t// out\n        /* \"#utility.yul\":3962:4267   */\n    tag_26:\n        /* \"#utility.yul\":4002:4005   */\n      0x00\n        /* \"#utility.yul\":4021:4041   */\n      tag_102\n        /* \"#utility.yul\":4039:4040   */\n      dup3\n        /* \"#utility.yul\":4021:4041   */\n      tag_87\n      jump\t// in\n    tag_102:\n        /* \"#utility.yul\":4016:4041   */\n      swap2\n      pop\n        /* \"#utility.yul\":4055:4075   */\n      tag_103\n        /* \"#utility.yul\":4073:4074   */\n      dup4\n        /* \"#utility.yul\":4055:4075   */\n      tag_87\n      jump\t// in\n    tag_103:\n        /* \"#utility.yul\":4050:4075   */\n      swap3\n      pop\n        /* \"#utility.yul\":4209:4210   */\n      dup3\n        /* \"#utility.yul\":4141:4207   */\n      0xffffffffffffffffffffffffffffffffffffffffffffffffffffffffffffffff\n        /* \"#utility.yul\":4137:4211   */\n      sub\n        /* \"#utility.yul\":4134:4135   */\n      dup3\n        /* \"#utility.yul\":4131:4212   */\n      gt\n        /* \"#utility.yul\":4128:4235   */\n      iszero\n      tag_104\n      jumpi\n        /* \"#utility.yul\":4215:4233   */\n      tag_105\n      tag_106\n      jump\t// in\n    tag_105:\n        /* \"#utility.yul\":4128:4235   */\n    tag_104:\n        /* \"#utility.yul\":4259:4260   */\n      dup3\n        /* \"#utility.yul\":4256:4257   */\n      dup3\n        /* \"#utility.yul\":4252:4261   */\n      add\n        /* \"#utility.yul\":4245:4261   */\n      swap1\n      pop\n        /* \"#utility.yul\":3962:4267   */\n      swap3\n      swap2\n      pop\n      pop\n      jump\t// out\n        /* \"#utility.yul\":4273:5121   */\n    tag_107:\n        /* \"#utility.yul\":4334:4339   */\n      0x00\n        /* \"#utility.yul\":4341:4345   */\n      dup1\n        /* \"#utility.yul\":4365:4371   */\n      dup3\n        /* \"#utility.yul\":4356:4371   */\n      swap2\n      pop\n        /* \"#utility.yul\":4389:4394   */\n      dup4\n        /* \"#utility.yul\":4380:4394   */\n      swap1\n      pop\n        /* \"#utility.yul\":4403:5115   */\n    tag_109:\n        /* \"#utility.yul\":4424:4425   */\n      0x01\n        /* \"#utility.yul\":4414:4422   */\n      dup6\n        /* \"#utility.yul\":4411:4426   */\n      gt\n        /* \"#utility.yul\":4403:5115   */\n      iszero\n      tag_111\n      jumpi\n        /* \"#utility.yul\":4519:4523   */\n      dup1\n        /* \"#utility.yul\":4514:4517   */\n      dup7\n        /* \"#utility.yul\":4510:4524   */\n      div\n        /* \"#utility.yul\":4504:4508   */\n      dup2\n        /* \"#utility.yul\":4501:4525   */\n      gt\n        /* \"#utility.yul\":4498:4548   */\n      iszero\n      tag_112\n      jumpi\n        /* \"#utility.yul\":4528:4546   */\n      tag_113\n      tag_106\n      jump\t// in\n    tag_113:\n        /* \"#utility.yul\":4498:4548   */\n    tag_112:\n        /* \"#utility.yul\":4578:4579   */\n      0x01\n        /* \"#utility.yul\":4568:4576   */\n      dup6\n        /* \"#utility.yul\":4564:4580   */\n      and\n        /* \"#utility.yul\":4561:5012   */\n      iszero\n      tag_114\n      jumpi\n        /* \"#utility.yul\":4993:4997   */\n      dup1\n        /* \"#utility.yul\":4986:4991   */\n      dup3\n        /* \"#utility.yul\":4982:4998   */\n      mul\n        /* \"#utility.yul\":4973:4998   */\n      swap2\n      pop\n        /* \"#utility.yul\":4561:5012   */\n    tag_114:\n        /* \"#utility.yul\":5043:5047   */\n      dup1\n        /* \"#utility.yul\":5037:5041   */\n      dup2\n        /* \"#utility.yul\":5033:5048   */\n      mul\n        /* \"#utility.yul\":5025:5048   */\n      swap1\n      pop\n        /* \"#utility.yul\":5073:5105   */\n      tag_115\n        /* \"#utility.yul\":5096:5104   */\n      dup6\n        /* \"#utility.yul\":5073:5105   */\n      tag_116\n      jump\t// in\n    tag_115:\n        /* \"#utility.yul\":5061:5105   */\n      swap5\n      pop\n        /* \"#utility.yul\":4403:5115   */\n      jump(tag_109)\n    tag_111:\n        /* \"#utility.yul\":4273:5121   */\n      swap5\n      pop\n      swap5\n      swap3\n      pop\n      pop\n      pop\n      jump\t// out\n        /* \"#utility.yul\":5127:5412   */\n    tag_42:\n        /* \"#utility.yul\":5187:5192   */\n      0x00\n        /* \"#utility.yul\":5211:5234   */\n      tag_118\n        /* \"#utility.yul\":5229:5233   */\n      dup3\n        /* \"#utility.yul\":5211:5234   */\n      tag_87\n      jump\t// in\n    tag_118:\n        /* \"#utility.yul\":5203:5234   */\n      swap2\n      pop\n        /* \"#utility.yul\":5255:5282   */\n      tag_119\n        /* \"#utility.yul\":5273:5281   */\n      dup4\n        /* \"#utility.yul\":5255:5282   */\n      tag_87\n      jump\t// in\n    tag_119:\n        /* \"#utility.yul\":5243:5282   */\n      swap3\n      pop\n        /* \"#utility.yul\":5301:5405   */\n      tag_120\n        /* \"#utility.yul\":5338:5404   */\n      0xffffffffffffffffffffffffffffffffffffffffffffffffffffffffffffffff\n        /* \"#utility.yul\":5328:5336   */\n      dup5\n        /* \"#utility.yul\":5322:5326   */\n      dup5\n        /* \"#utility.yul\":5301:5405   */\n      tag_121\n      jump\t// in\n    tag_120:\n        /* \"#utility.yul\":5292:5405   */\n      swap1\n      pop\n        /* \"#utility.yul\":5127:5412   */\n      swap3\n      swap2\n      pop\n      pop\n      jump\t// out\n        /* \"#utility.yul\":5418:6491   */\n    tag_121:\n        /* \"#utility.yul\":5472:5477   */\n      0x00\n        /* \"#utility.yul\":5663:5671   */\n      dup3\n        /* \"#utility.yul\":5653:5693   */\n      tag_123\n      jumpi\n        /* \"#utility.yul\":5684:5685   */\n      0x01\n        /* \"#utility.yul\":5675:5685   */\n      swap1\n      pop\n        /* \"#utility.yul\":5686:5691   */\n      jump(tag_122)\n        /* \"#utility.yul\":5653:5693   */\n    tag_123:\n        /* \"#utility.yul\":5712:5716   */\n      dup2\n        /* \"#utility.yul\":5702:5738   */\n      tag_124\n      jumpi\n        /* \"#utility.yul\":5729:5730   */\n      0x00\n        /* \"#utility.yul\":5720:5730   */\n      swap1\n      pop\n        /* \"#utility.yul\":5731:5736   */\n      jump(tag_122)\n        /* \"#utility.yul\":5702:5738   */\n    tag_124:\n        /* \"#utility.yul\":5798:5802   */\n      dup2\n        /* \"#utility.yul\":5846:5847   */\n      0x01\n        /* \"#utility.yul\":5841:5868   */\n      dup2\n      eq\n      tag_126\n      jumpi\n        /* \"#utility.yul\":5882:5883   */\n      0x02\n        /* \"#utility.yul\":5877:6068   */\n      dup2\n      eq\n      tag_127\n      jumpi\n        /* \"#utility.yul\":5791:6068   */\n      jump(tag_125)\n        /* \"#utility.yul\":5841:5868   */\n    tag_126:\n        /* \"#utility.yul\":5859:5860   */\n      0x01\n        /* \"#utility.yul\":5850:5860   */\n      swap2\n      pop\n        /* \"#utility.yul\":5861:5866   */\n      pop\n      jump(tag_122)\n        /* \"#utility.yul\":5877:6068   */\n    tag_127:\n        /* \"#utility.yul\":5922:5925   */\n      0xff\n        /* \"#utility.yul\":5912:5920   */\n      dup5\n        /* \"#utility.yul\":5909:5926   */\n      gt\n        /* \"#utility.yul\":5906:5949   */\n      iszero\n      tag_128\n      jumpi\n        /* \"#utility.yul\":5929:5947   */\n      tag_129\n      tag_106\n      jump\t// in\n    tag_129:\n        /* \"#utility.yul\":5906:5949   */\n    tag_128:\n        /* \"#utility.yul\":5978:5986   */\n      dup4\n        /* \"#utility.yul\":5975:5976   */\n      0x02\n        /* \"#utility.yul\":5971:5987   */\n      exp\n        /* \"#utility.yul\":5962:5987   */\n      swap2\n      pop\n        /* \"#utility.yul\":6013:6016   */\n      dup5\n        /* \"#utility.yul\":6006:6011   */\n      dup3\n        /* \"#utility.yul\":6003:6017   */\n      gt\n        /* \"#utility.yul\":6000:6040   */\n      iszero\n      tag_130\n      jumpi\n        /* \"#utility.yul\":6020:6038   */\n      tag_131\n      tag_106\n      jump\t// in\n    tag_131:\n        /* \"#utility.yul\":6000:6040   */\n    tag_130:\n        /* \"#utility.yul\":6053:6058   */\n      pop\n      jump(tag_122)\n        /* \"#utility.yul\":5791:6068   */\n    tag_125:\n      pop\n        /* \"#utility.yul\":6177:6179   */\n      0x20\n        /* \"#utility.yul\":6167:6175   */\n      dup4\n        /* \"#utility.yul\":6164:6180   */\n      lt\n        /* \"#utility.yul\":6158:6161   */\n      0x0133\n        /* \"#utility.yul\":6152:6156   */\n      dup4\n        /* \"#utility.yul\":6149:6162   */\n      lt\n        /* \"#utility.yul\":6145:6181   */\n      and\n        /* \"#utility.yul\":6127:6129   */\n      0x4e\n        /* \"#utility.yul\":6117:6125   */\n      dup5\n        /* \"#utility.yul\":6114:6130   */\n      lt\n        /* \"#utility.yul\":6109:6111   */\n      0x0b\n        /* \"#utility.yul\":6103:6107   */\n      dup5\n        /* \"#utility.yul\":6100:6112   */\n      lt\n        /* \"#utility.yul\":6096:6131   */\n      and\n        /* \"#utility.yul\":6080:6191   */\n      or\n        /* \"#utility.yul\":6077:6323   */\n      iszero\n      tag_132\n      jumpi\n        /* \"#utility.yul\":6233:6241   */\n      dup3\n        /* \"#utility.yul\":6227:6231   */\n      dup3\n        /* \"#utility.yul\":6223:6242   */\n      exp\n        /* \"#utility.yul\":6214:6242   */\n      swap1\n      pop\n        /* \"#utility.yul\":6268:6271   */\n      dup4\n        /* \"#utility.yul\":6261:6266   */\n      dup2\n        /* \"#utility.yul\":6258:6272   */\n      gt\n        /* \"#utility.yul\":6255:6295   */\n      iszero\n      tag_133\n      jumpi\n        /* \"#utility.yul\":6275:6293   */\n      tag_134\n      tag_106\n      jump\t// in\n    tag_134:\n        /* \"#utility.yul\":6255:6295   */\n    tag_133:\n        /* \"#utility.yul\":6308:6313   */\n      jump(tag_122)\n        /* \"#utility.yul\":6077:6323   */\n    tag_132:\n        /* \"#utility.yul\":6348:6390   */\n      tag_135\n        /* \"#utility.yul\":6386:6389   */\n      dup5\n        /* \"#utility.yul\":6376:6384   */\n      dup5\n        /* \"#utility.yul\":6370:6374   */\n      dup5\n        /* \"#utility.yul\":6367:6368   */\n      0x01\n        /* \"#utility.yul\":6348:6390   */\n      tag_107\n      jump\t// in\n    tag_135:\n        /* \"#utility.yul\":6333:6390   */\n      swap3\n      pop\n      swap1\n      pop\n        /* \"#utility.yul\":6422:6426   */\n      dup2\n        /* \"#utility.yul\":6417:6420   */\n      dup5\n        /* \"#utility.yul\":6413:6427   */\n      div\n        /* \"#utility.yul\":6406:6411   */\n      dup2\n        /* \"#utility.yul\":6403:6428   */\n      gt\n        /* \"#utility.yul\":6400:6451   */\n      iszero\n      tag_136\n      jumpi\n        /* \"#utility.yul\":6431:6449   */\n      tag_137\n      tag_106\n      jump\t// in\n    tag_137:\n        /* \"#utility.yul\":6400:6451   */\n    tag_136:\n        /* \"#utility.yul\":6480:6484   */\n      dup2\n        /* \"#utility.yul\":6473:6478   */\n      dup2\n        /* \"#utility.yul\":6469:6485   */\n      mul\n        /* \"#utility.yul\":6460:6485   */\n      swap1\n      pop\n        /* \"#utility.yul\":5418:6491   */\n    tag_122:\n      swap4\n      swap3\n      pop\n      pop\n      pop\n      jump\t// out\n        /* \"#utility.yul\":6497:6845   */\n    tag_24:\n        /* \"#utility.yul\":6537:6544   */\n      0x00\n        /* \"#utility.yul\":6560:6580   */\n      tag_139\n        /* \"#utility.yul\":6578:6579   */\n      dup3\n        /* \"#utility.yul\":6560:6580   */\n      tag_87\n      jump\t// in\n    tag_139:\n        /* \"#utility.yul\":6555:6580   */\n      swap2\n      pop\n        /* \"#utility.yul\":6594:6614   */\n      tag_140\n        /* \"#utility.yul\":6612:6613   */\n      dup4\n        /* \"#utility.yul\":6594:6614   */\n      tag_87\n      jump\t// in\n    tag_140:\n        /* \"#utility.yul\":6589:6614   */\n      swap3\n      pop\n        /* \"#utility.yul\":6782:6783   */\n      dup2\n        /* \"#utility.yul\":6714:6780   */\n      0xffffffffffffffffffffffffffffffffffffffffffffffffffffffffffffffff\n        /* \"#utility.yul\":6710:6784   */\n      div\n        /* \"#utility.yul\":6707:6708   */\n      dup4\n        /* \"#utility.yul\":6704:6785   */\n      gt\n        /* \"#utility.yul\":6699:6700   */\n      dup3\n        /* \"#utility.yul\":6692:6701   */\n      iszero\n        /* \"#utility.yul\":6685:6702   */\n      iszero\n        /* \"#utility.yul\":6681:6786   */\n      and\n        /* \"#utility.yul\":6678:6809   */\n      iszero\n      tag_141\n      jumpi\n        /* \"#utility.yul\":6789:6807   */\n      tag_142\n      tag_106\n      jump\t// in\n    tag_142:\n        /* \"#utility.yul\":6678:6809   */\n    tag_141:\n        /* \"#utility.yul\":6837:6838   */\n      dup3\n        /* \"#utility.yul\":6834:6835   */\n      dup3\n        /* \"#utility.yul\":6830:6839   */\n      mul\n        /* \"#utility.yul\":6819:6839   */\n      swap1\n      pop\n        /* \"#utility.yul\":6497:6845   */\n      swap3\n      swap2\n      pop\n      pop\n      jump\t// out\n        /* \"#utility.yul\":6851:6941   */\n    tag_67:\n        /* \"#utility.yul\":6885:6892   */\n      0x00\n        /* \"#utility.yul\":6928:6933   */\n      dup2\n        /* \"#utility.yul\":6921:6934   */\n      iszero\n        /* \"#utility.yul\":6914:6935   */\n      iszero\n        /* \"#utility.yul\":6903:6935   */\n      swap1\n      pop\n        /* \"#utility.yul\":6851:6941   */\n      swap2\n      swap1\n      pop\n      jump\t// out\n        /* \"#utility.yul\":6947:7024   */\n    tag_87:\n        /* \"#utility.yul\":6984:6991   */\n      0x00\n        /* \"#utility.yul\":7013:7018   */\n      dup2\n        /* \"#utility.yul\":7002:7018   */\n      swap1\n      pop\n        /* \"#utility.yul\":6947:7024   */\n      swap2\n      swap1\n      pop\n      jump\t// out\n        /* \"#utility.yul\":7030:7210   */\n    tag_31:\n        /* \"#utility.yul\":7078:7155   */\n      0x4e487b7100000000000000000000000000000000000000000000000000000000\n        /* \"#utility.yul\":7075:7076   */\n      0x00\n        /* \"#utility.yul\":7068:7156   */\n      mstore\n        /* \"#utility.yul\":7175:7179   */\n      0x01\n        /* \"#utility.yul\":7172:7173   */\n      0x04\n        /* \"#utility.yul\":7165:7180   */\n      mstore\n        /* \"#utility.yul\":7199:7203   */\n      0x24\n        /* \"#utility.yul\":7196:7197   */\n      0x00\n        /* \"#utility.yul\":7189:7204   */\n      revert\n        /* \"#utility.yul\":7216:7396   */\n    tag_106:\n        /* \"#utility.yul\":7264:7341   */\n      0x4e487b7100000000000000000000000000000000000000000000000000000000\n        /* \"#utility.yul\":7261:7262   */\n      0x00\n        /* \"#utility.yul\":7254:7342   */\n      mstore\n        /* \"#utility.yul\":7361:7365   */\n      0x11\n        /* \"#utility.yul\":7358:7359   */\n      0x04\n        /* \"#utility.yul\":7351:7366   */\n      mstore\n        /* \"#utility.yul\":7385:7389   */\n      0x24\n        /* \"#utility.yul\":7382:7383   */\n      0x00\n        /* \"#utility.yul\":7375:7390   */\n      revert\n        /* \"#utility.yul\":7525:7642   */\n    tag_61:\n        /* \"#utility.yul\":7634:7635   */\n      0x00\n        /* \"#utility.yul\":7631:7632   */\n      dup1\n        /* \"#utility.yul\":7624:7636   */\n      revert\n        /* \"#utility.yul\":7648:7750   */\n    tag_116:\n        /* \"#utility.yul\":7690:7698   */\n      0x00\n        /* \"#utility.yul\":7737:7742   */\n      dup2\n        /* \"#utility.yul\":7734:7735   */\n      0x01\n        /* \"#utility.yul\":7730:7743   */\n      shr\n        /* \"#utility.yul\":7709:7743   */\n      swap1\n      pop\n        /* \"#utility.yul\":7648:7750   */\n      swap2\n      swap1\n      pop\n      jump\t// out\n        /* \"#utility.yul\":7756:7932   */\n    tag_73:\n        /* \"#utility.yul\":7896:7924   */\n      0x312067776569206973206e6f7420657175616c20746f20316539000000000000\n        /* \"#utility.yul\":7892:7893   */\n      0x00\n        /* \"#utility.yul\":7884:7890   */\n      dup3\n        /* \"#utility.yul\":7880:7894   */\n      add\n        /* \"#utility.yul\":7873:7925   */\n      mstore\n        /* \"#utility.yul\":7756:7932   */\n      pop\n      jump\t// out\n        /* \"#utility.yul\":7938:8111   */\n    tag_78:\n        /* \"#utility.yul\":8078:8103   */\n      0x3120776569206973206e6f7420657175616c20746f2031000000000000000000\n        /* \"#utility.yul\":8074:8075   */\n      0x00\n        /* \"#utility.yul\":8066:8072   */\n      dup3\n        /* \"#utility.yul\":8062:8076   */\n      add\n        /* \"#utility.yul\":8055:8104   */\n      mstore\n        /* \"#utility.yul\":7938:8111   */\n      pop\n      jump\t// out\n        /* \"#utility.yul\":8117:8295   */\n    tag_83:\n        /* \"#utility.yul\":8257:8287   */\n      0x31206574686572206973206e6f7420657175616c20746f203165313800000000\n        /* \"#utility.yul\":8253:8254   */\n      0x00\n        /* \"#utility.yul\":8245:8251   */\n      dup3\n        /* \"#utility.yul\":8241:8255   */\n      add\n        /* \"#utility.yul\":8234:8288   */\n      mstore\n        /* \"#utility.yul\":8117:8295   */\n      pop\n      jump\t// out\n        /* \"#utility.yul\":8301:8423   */\n    tag_57:\n        /* \"#utility.yul\":8374:8398   */\n      tag_155\n        /* \"#utility.yul\":8392:8397   */\n      dup2\n        /* \"#utility.yul\":8374:8398   */\n      tag_87\n      jump\t// in\n    tag_155:\n        /* \"#utility.yul\":8367:8372   */\n      dup2\n        /* \"#utility.yul\":8364:8399   */\n      eq\n        /* \"#utility.yul\":8354:8417   */\n      tag_156\n      jumpi\n        /* \"#utility.yul\":8413:8414   */\n      0x00\n        /* \"#utility.yul\":8410:8411   */\n      dup1\n        /* \"#utility.yul\":8403:8415   */\n      revert\n        /* \"#utility.yul\":8354:8417   */\n    tag_156:\n        /* \"#utility.yul\":8301:8423   */\n      pop\n      jump\t// out\n\n    auxdata: 0xa2646970667358221220df9866b270e073a4162cceca1a0aff0898b00eb210ce3975b28c92d6dce8605f64736f6c63430008070033\n}\n",
				"bytecode": {
					"linkReferences": {},
					"object": "608060405234801561001057600080fd5b50610739806100206000396000f3fe608060405234801561001057600080fd5b506004361061004c5760003560e01c806319730b441461005157806324475f4c146100815780632e4c697f1461008b57806397e82183146100bb575b600080fd5b61006b6004803603810190610066919061025c565b6100c5565b6040516100789190610323565b60405180910390f35b6100896100f9565b005b6100a560048036038101906100a0919061025c565b610155565b6040516100b2919061039e565b60405180910390f35b6100c361016b565b005b600080600090506003836100d99190610591565b846100e491906103ca565b42106100ef57600190505b8091505092915050565b6001801461010a57610109610601565b5b603c801461011b5761011a610601565b5b610e10801461012d5761012c610601565b5b6201518080146101405761013f610601565b5b62093a80801461015357610152610601565b5b565b600081836101639190610473565b905092915050565b600060019050600181146101b4576040517f08c379a00000000000000000000000000000000000000000000000000000000081526004016101ab9061035e565b60405180910390fd5b633b9aca0080146101fa576040517f08c379a00000000000000000000000000000000000000000000000000000000081526004016101f19061033e565b60405180910390fd5b670de0b6b3a76400008014610244576040517f08c379a000000000000000000000000000000000000000000000000000000000815260040161023b9061037e565b60405180910390fd5b50565b600081359050610256816106ec565b92915050565b600080604083850312156102735761027261065f565b5b600061028185828601610247565b925050602061029285828601610247565b9150509250929050565b6102a5816105eb565b82525050565b60006102b8601a836103b9565b91506102c382610671565b602082019050919050565b60006102db6017836103b9565b91506102e68261069a565b602082019050919050565b60006102fe601c836103b9565b9150610309826106c3565b602082019050919050565b61031d816105f7565b82525050565b6000602082019050610338600083018461029c565b92915050565b60006020820190508181036000830152610357816102ab565b9050919050565b60006020820190508181036000830152610377816102ce565b9050919050565b60006020820190508181036000830152610397816102f1565b9050919050565b60006020820190506103b36000830184610314565b92915050565b600082825260208201905092915050565b60006103d5826105f7565b91506103e0836105f7565b9250827fffffffffffffffffffffffffffffffffffffffffffffffffffffffffffffffff0382111561041557610414610630565b5b828201905092915050565b6000808291508390505b600185111561046a5780860481111561044657610445610630565b5b60018516156104555780820291505b808102905061046385610664565b945061042a565b94509492505050565b600061047e826105f7565b9150610489836105f7565b92506104b67fffffffffffffffffffffffffffffffffffffffffffffffffffffffffffffffff84846104be565b905092915050565b6000826104ce576001905061058a565b816104dc576000905061058a565b81600181146104f257600281146104fc5761052b565b600191505061058a565b60ff84111561050e5761050d610630565b5b8360020a91508482111561052557610524610630565b5b5061058a565b5060208310610133831016604e8410600b84101617156105605782820a90508381111561055b5761055a610630565b5b61058a565b61056d8484846001610420565b9250905081840481111561058457610583610630565b5b81810290505b9392505050565b600061059c826105f7565b91506105a7836105f7565b9250817fffffffffffffffffffffffffffffffffffffffffffffffffffffffffffffffff04831182151516156105e0576105df610630565b5b828202905092915050565b60008115159050919050565b6000819050919050565b7f4e487b7100000000000000000000000000000000000000000000000000000000600052600160045260246000fd5b7f4e487b7100000000000000000000000000000000000000000000000000000000600052601160045260246000fd5b600080fd5b60008160011c9050919050565b7f312067776569206973206e6f7420657175616c20746f20316539000000000000600082015250565b7f3120776569206973206e6f7420657175616c20746f2031000000000000000000600082015250565b7f31206574686572206973206e6f7420657175616c20746f203165313800000000600082015250565b6106f5816105f7565b811461070057600080fd5b5056fea2646970667358221220df9866b270e073a4162cceca1a0aff0898b00eb210ce3975b28c92d6dce8605f64736f6c63430008070033",
					"opcodes": "PUSH1 0x80 PUSH1 0x40 MSTORE CALLVALUE DUP1 ISZERO PUSH2 0x10 JUMPI PUSH1 0x0 DUP1 REVERT JUMPDEST POP PUSH2 0x739 DUP1 PUSH2 0x20 PUSH1 0x0 CODECOPY PUSH1 0x0 RETURN INVALID PUSH1 0x80 PUSH1 0x40 MSTORE CALLVALUE DUP1 ISZERO PUSH2 0x10 JUMPI PUSH1 0x0 DUP1 REVERT JUMPDEST POP PUSH1 0x4 CALLDATASIZE LT PUSH2 0x4C JUMPI PUSH1 0x0 CALLDATALOAD PUSH1 0xE0 SHR DUP1 PUSH4 0x19730B44 EQ PUSH2 0x51 JUMPI DUP1 PUSH4 0x24475F4C EQ PUSH2 0x81 JUMPI DUP1 PUSH4 0x2E4C697F EQ PUSH2 0x8B JUMPI DUP1 PUSH4 0x97E82183 EQ PUSH2 0xBB JUMPI JUMPDEST PUSH1 0x0 DUP1 REVERT JUMPDEST PUSH2 0x6B PUSH1 0x4 DUP1 CALLDATASIZE SUB DUP2 ADD SWAP1 PUSH2 0x66 SWAP2 SWAP1 PUSH2 0x25C JUMP JUMPDEST PUSH2 0xC5 JUMP JUMPDEST PUSH1 0x40 MLOAD PUSH2 0x78 SWAP2 SWAP1 PUSH2 0x323 JUMP JUMPDEST PUSH1 0x40 MLOAD DUP1 SWAP2 SUB SWAP1 RETURN JUMPDEST PUSH2 0x89 PUSH2 0xF9 JUMP JUMPDEST STOP JUMPDEST PUSH2 0xA5 PUSH1 0x4 DUP1 CALLDATASIZE SUB DUP2 ADD SWAP1 PUSH2 0xA0 SWAP2 SWAP1 PUSH2 0x25C JUMP JUMPDEST PUSH2 0x155 JUMP JUMPDEST PUSH1 0x40 MLOAD PUSH2 0xB2 SWAP2 SWAP1 PUSH2 0x39E JUMP JUMPDEST PUSH1 0x40 MLOAD DUP1 SWAP2 SUB SWAP1 RETURN JUMPDEST PUSH2 0xC3 PUSH2 0x16B JUMP JUMPDEST STOP JUMPDEST PUSH1 0x0 DUP1 PUSH1 0x0 SWAP1 POP PUSH1 0x3 DUP4 PUSH2 0xD9 SWAP2 SWAP1 PUSH2 0x591 JUMP JUMPDEST DUP5 PUSH2 0xE4 SWAP2 SWAP1 PUSH2 0x3CA JUMP JUMPDEST TIMESTAMP LT PUSH2 0xEF JUMPI PUSH1 0x1 SWAP1 POP JUMPDEST DUP1 SWAP2 POP POP SWAP3 SWAP2 POP POP JUMP JUMPDEST PUSH1 0x1 DUP1 EQ PUSH2 0x10A JUMPI PUSH2 0x109 PUSH2 0x601 JUMP JUMPDEST JUMPDEST PUSH1 0x3C DUP1 EQ PUSH2 0x11B JUMPI PUSH2 0x11A PUSH2 0x601 JUMP JUMPDEST JUMPDEST PUSH2 0xE10 DUP1 EQ PUSH2 0x12D JUMPI PUSH2 0x12C PUSH2 0x601 JUMP JUMPDEST JUMPDEST PUSH3 0x15180 DUP1 EQ PUSH2 0x140 JUMPI PUSH2 0x13F PUSH2 0x601 JUMP JUMPDEST JUMPDEST PUSH3 0x93A80 DUP1 EQ PUSH2 0x153 JUMPI PUSH2 0x152 PUSH2 0x601 JUMP JUMPDEST JUMPDEST JUMP JUMPDEST PUSH1 0x0 DUP2 DUP4 PUSH2 0x163 SWAP2 SWAP1 PUSH2 0x473 JUMP JUMPDEST SWAP1 POP SWAP3 SWAP2 POP POP JUMP JUMPDEST PUSH1 0x0 PUSH1 0x1 SWAP1 POP PUSH1 0x1 DUP2 EQ PUSH2 0x1B4 JUMPI PUSH1 0x40 MLOAD PUSH32 0x8C379A000000000000000000000000000000000000000000000000000000000 DUP2 MSTORE PUSH1 0x4 ADD PUSH2 0x1AB SWAP1 PUSH2 0x35E JUMP JUMPDEST PUSH1 0x40 MLOAD DUP1 SWAP2 SUB SWAP1 REVERT JUMPDEST PUSH4 0x3B9ACA00 DUP1 EQ PUSH2 0x1FA JUMPI PUSH1 0x40 MLOAD PUSH32 0x8C379A000000000000000000000000000000000000000000000000000000000 DUP2 MSTORE PUSH1 0x4 ADD PUSH2 0x1F1 SWAP1 PUSH2 0x33E JUMP JUMPDEST PUSH1 0x40 MLOAD DUP1 SWAP2 SUB SWAP1 REVERT JUMPDEST PUSH8 0xDE0B6B3A7640000 DUP1 EQ PUSH2 0x244 JUMPI PUSH1 0x40 MLOAD PUSH32 0x8C379A000000000000000000000000000000000000000000000000000000000 DUP2 MSTORE PUSH1 0x4 ADD PUSH2 0x23B SWAP1 PUSH2 0x37E JUMP JUMPDEST PUSH1 0x40 MLOAD DUP1 SWAP2 SUB SWAP1 REVERT JUMPDEST POP JUMP JUMPDEST PUSH1 0x0 DUP2 CALLDATALOAD SWAP1 POP PUSH2 0x256 DUP2 PUSH2 0x6EC JUMP JUMPDEST SWAP3 SWAP2 POP POP JUMP JUMPDEST PUSH1 0x0 DUP1 PUSH1 0x40 DUP4 DUP6 SUB SLT ISZERO PUSH2 0x273 JUMPI PUSH2 0x272 PUSH2 0x65F JUMP JUMPDEST JUMPDEST PUSH1 0x0 PUSH2 0x281 DUP6 DUP3 DUP7 ADD PUSH2 0x247 JUMP JUMPDEST SWAP3 POP POP PUSH1 0x20 PUSH2 0x292 DUP6 DUP3 DUP7 ADD PUSH2 0x247 JUMP JUMPDEST SWAP2 POP POP SWAP3 POP SWAP3 SWAP1 POP JUMP JUMPDEST PUSH2 0x2A5 DUP2 PUSH2 0x5EB JUMP JUMPDEST DUP3 MSTORE POP POP JUMP JUMPDEST PUSH1 0x0 PUSH2 0x2B8 PUSH1 0x1A DUP4 PUSH2 0x3B9 JUMP JUMPDEST SWAP2 POP PUSH2 0x2C3 DUP3 PUSH2 0x671 JUMP JUMPDEST PUSH1 0x20 DUP3 ADD SWAP1 POP SWAP2 SWAP1 POP JUMP JUMPDEST PUSH1 0x0 PUSH2 0x2DB PUSH1 0x17 DUP4 PUSH2 0x3B9 JUMP JUMPDEST SWAP2 POP PUSH2 0x2E6 DUP3 PUSH2 0x69A JUMP JUMPDEST PUSH1 0x20 DUP3 ADD SWAP1 POP SWAP2 SWAP1 POP JUMP JUMPDEST PUSH1 0x0 PUSH2 0x2FE PUSH1 0x1C DUP4 PUSH2 0x3B9 JUMP JUMPDEST SWAP2 POP PUSH2 0x309 DUP3 PUSH2 0x6C3 JUMP JUMPDEST PUSH1 0x20 DUP3 ADD SWAP1 POP SWAP2 SWAP1 POP JUMP JUMPDEST PUSH2 0x31D DUP2 PUSH2 0x5F7 JUMP JUMPDEST DUP3 MSTORE POP POP JUMP JUMPDEST PUSH1 0x0 PUSH1 0x20 DUP3 ADD SWAP1 POP PUSH2 0x338 PUSH1 0x0 DUP4 ADD DUP5 PUSH2 0x29C JUMP JUMPDEST SWAP3 SWAP2 POP POP JUMP JUMPDEST PUSH1 0x0 PUSH1 0x20 DUP3 ADD SWAP1 POP DUP2 DUP2 SUB PUSH1 0x0 DUP4 ADD MSTORE PUSH2 0x357 DUP2 PUSH2 0x2AB JUMP JUMPDEST SWAP1 POP SWAP2 SWAP1 POP JUMP JUMPDEST PUSH1 0x0 PUSH1 0x20 DUP3 ADD SWAP1 POP DUP2 DUP2 SUB PUSH1 0x0 DUP4 ADD MSTORE PUSH2 0x377 DUP2 PUSH2 0x2CE JUMP JUMPDEST SWAP1 POP SWAP2 SWAP1 POP JUMP JUMPDEST PUSH1 0x0 PUSH1 0x20 DUP3 ADD SWAP1 POP DUP2 DUP2 SUB PUSH1 0x0 DUP4 ADD MSTORE PUSH2 0x397 DUP2 PUSH2 0x2F1 JUMP JUMPDEST SWAP1 POP SWAP2 SWAP1 POP JUMP JUMPDEST PUSH1 0x0 PUSH1 0x20 DUP3 ADD SWAP1 POP PUSH2 0x3B3 PUSH1 0x0 DUP4 ADD DUP5 PUSH2 0x314 JUMP JUMPDEST SWAP3 SWAP2 POP POP JUMP JUMPDEST PUSH1 0x0 DUP3 DUP3 MSTORE PUSH1 0x20 DUP3 ADD SWAP1 POP SWAP3 SWAP2 POP POP JUMP JUMPDEST PUSH1 0x0 PUSH2 0x3D5 DUP3 PUSH2 0x5F7 JUMP JUMPDEST SWAP2 POP PUSH2 0x3E0 DUP4 PUSH2 0x5F7 JUMP JUMPDEST SWAP3 POP DUP3 PUSH32 0xFFFFFFFFFFFFFFFFFFFFFFFFFFFFFFFFFFFFFFFFFFFFFFFFFFFFFFFFFFFFFFFF SUB DUP3 GT ISZERO PUSH2 0x415 JUMPI PUSH2 0x414 PUSH2 0x630 JUMP JUMPDEST JUMPDEST DUP3 DUP3 ADD SWAP1 POP SWAP3 SWAP2 POP POP JUMP JUMPDEST PUSH1 0x0 DUP1 DUP3 SWAP2 POP DUP4 SWAP1 POP JUMPDEST PUSH1 0x1 DUP6 GT ISZERO PUSH2 0x46A JUMPI DUP1 DUP7 DIV DUP2 GT ISZERO PUSH2 0x446 JUMPI PUSH2 0x445 PUSH2 0x630 JUMP JUMPDEST JUMPDEST PUSH1 0x1 DUP6 AND ISZERO PUSH2 0x455 JUMPI DUP1 DUP3 MUL SWAP2 POP JUMPDEST DUP1 DUP2 MUL SWAP1 POP PUSH2 0x463 DUP6 PUSH2 0x664 JUMP JUMPDEST SWAP5 POP PUSH2 0x42A JUMP JUMPDEST SWAP5 POP SWAP5 SWAP3 POP POP POP JUMP JUMPDEST PUSH1 0x0 PUSH2 0x47E DUP3 PUSH2 0x5F7 JUMP JUMPDEST SWAP2 POP PUSH2 0x489 DUP4 PUSH2 0x5F7 JUMP JUMPDEST SWAP3 POP PUSH2 0x4B6 PUSH32 0xFFFFFFFFFFFFFFFFFFFFFFFFFFFFFFFFFFFFFFFFFFFFFFFFFFFFFFFFFFFFFFFF DUP5 DUP5 PUSH2 0x4BE JUMP JUMPDEST SWAP1 POP SWAP3 SWAP2 POP POP JUMP JUMPDEST PUSH1 0x0 DUP3 PUSH2 0x4CE JUMPI PUSH1 0x1 SWAP1 POP PUSH2 0x58A JUMP JUMPDEST DUP2 PUSH2 0x4DC JUMPI PUSH1 0x0 SWAP1 POP PUSH2 0x58A JUMP JUMPDEST DUP2 PUSH1 0x1 DUP2 EQ PUSH2 0x4F2 JUMPI PUSH1 0x2 DUP2 EQ PUSH2 0x4FC JUMPI PUSH2 0x52B JUMP JUMPDEST PUSH1 0x1 SWAP2 POP POP PUSH2 0x58A JUMP JUMPDEST PUSH1 0xFF DUP5 GT ISZERO PUSH2 0x50E JUMPI PUSH2 0x50D PUSH2 0x630 JUMP JUMPDEST JUMPDEST DUP4 PUSH1 0x2 EXP SWAP2 POP DUP5 DUP3 GT ISZERO PUSH2 0x525 JUMPI PUSH2 0x524 PUSH2 0x630 JUMP JUMPDEST JUMPDEST POP PUSH2 0x58A JUMP JUMPDEST POP PUSH1 0x20 DUP4 LT PUSH2 0x133 DUP4 LT AND PUSH1 0x4E DUP5 LT PUSH1 0xB DUP5 LT AND OR ISZERO PUSH2 0x560 JUMPI DUP3 DUP3 EXP SWAP1 POP DUP4 DUP2 GT ISZERO PUSH2 0x55B JUMPI PUSH2 0x55A PUSH2 0x630 JUMP JUMPDEST JUMPDEST PUSH2 0x58A JUMP JUMPDEST PUSH2 0x56D DUP5 DUP5 DUP5 PUSH1 0x1 PUSH2 0x420 JUMP JUMPDEST SWAP3 POP SWAP1 POP DUP2 DUP5 DIV DUP2 GT ISZERO PUSH2 0x584 JUMPI PUSH2 0x583 PUSH2 0x630 JUMP JUMPDEST JUMPDEST DUP2 DUP2 MUL SWAP1 POP JUMPDEST SWAP4 SWAP3 POP POP POP JUMP JUMPDEST PUSH1 0x0 PUSH2 0x59C DUP3 PUSH2 0x5F7 JUMP JUMPDEST SWAP2 POP PUSH2 0x5A7 DUP4 PUSH2 0x5F7 JUMP JUMPDEST SWAP3 POP DUP2 PUSH32 0xFFFFFFFFFFFFFFFFFFFFFFFFFFFFFFFFFFFFFFFFFFFFFFFFFFFFFFFFFFFFFFFF DIV DUP4 GT DUP3 ISZERO ISZERO AND ISZERO PUSH2 0x5E0 JUMPI PUSH2 0x5DF PUSH2 0x630 JUMP JUMPDEST JUMPDEST DUP3 DUP3 MUL SWAP1 POP SWAP3 SWAP2 POP POP JUMP JUMPDEST PUSH1 0x0 DUP2 ISZERO ISZERO SWAP1 POP SWAP2 SWAP1 POP JUMP JUMPDEST PUSH1 0x0 DUP2 SWAP1 POP SWAP2 SWAP1 POP JUMP JUMPDEST PUSH32 0x4E487B7100000000000000000000000000000000000000000000000000000000 PUSH1 0x0 MSTORE PUSH1 0x1 PUSH1 0x4 MSTORE PUSH1 0x24 PUSH1 0x0 REVERT JUMPDEST PUSH32 0x4E487B7100000000000000000000000000000000000000000000000000000000 PUSH1 0x0 MSTORE PUSH1 0x11 PUSH1 0x4 MSTORE PUSH1 0x24 PUSH1 0x0 REVERT JUMPDEST PUSH1 0x0 DUP1 REVERT JUMPDEST PUSH1 0x0 DUP2 PUSH1 0x1 SHR SWAP1 POP SWAP2 SWAP1 POP JUMP JUMPDEST PUSH32 0x312067776569206973206E6F7420657175616C20746F20316539000000000000 PUSH1 0x0 DUP3 ADD MSTORE POP JUMP JUMPDEST PUSH32 0x3120776569206973206E6F7420657175616C20746F2031000000000000000000 PUSH1 0x0 DUP3 ADD MSTORE POP JUMP JUMPDEST PUSH32 0x31206574686572206973206E6F7420657175616C20746F203165313800000000 PUSH1 0x0 DUP3 ADD MSTORE POP JUMP JUMPDEST PUSH2 0x6F5 DUP2 PUSH2 0x5F7 JUMP JUMPDEST DUP2 EQ PUSH2 0x700 JUMPI PUSH1 0x0 DUP1 REVERT JUMPDEST POP JUMP INVALID LOG2 PUSH5 0x6970667358 0x22 SLT KECCAK256 0xDF SWAP9 PUSH7 0xB270E073A4162C 0xCE 0xCA BYTE EXP SELFDESTRUCT ADDMOD SWAP9 0xB0 0xE 0xB2 LT 0xCE CODECOPY PUSH22 0xB28C92D6DCE8605F64736F6C63430008070033000000 "
				},
				"gasEstimates": {
					"creation": {
						"codeDepositCost": "369800",
						"executionCost": "405",
						"totalCost": "370205"
					},
					"external": {
						"etherUnitExample()": "270",
						"pow(uint256,uint256)": "infinite",
						"timeUnitExample()": "259",
						"validate(uint256,uint256)": "infinite"
					}
				},
				"methodIdentifiers": {
					"etherUnitExample()": "97e82183",
					"pow(uint256,uint256)": "2e4c697f",
					"timeUnitExample()": "24475f4c",
					"validate(uint256,uint256)": "19730b44"
				}
			},
			"storageLayout": {
				"storage": [],
				"types": null
			},
			"userdoc": {
				"kind": "user",
				"methods": {},
				"version": 1
			}
		}
	}
}