{
	"Ep4/example.sol": {
		"Example": {
			"abi": [
				{
					"inputs": [],
					"name": "etherUnitExample",
					"outputs": [],
					"stateMutability": "pure",
					"type": "function"
				},
				{
					"inputs": [],
					"name": "timeUnitExample",
					"outputs": [],
					"stateMutability": "pure",
					"type": "function"
				},
				{
					"inputs": [
						{
							"internalType": "uint256",
							"name": "start",
							"type": "uint256"
						},
						{
							"internalType": "uint256",
							"name": "secondsAfter",
							"type": "uint256"
						}
					],
					"name": "validate",
					"outputs": [
						{
							"internalType": "bool",
							"name": "",
							"type": "bool"
						}
					],
					"stateMutability": "view",
					"type": "function"
				}
			],
			"devdoc": {
				"kind": "dev",
				"methods": {},
				"version": 1
			},
			"evm": {
				"assembly": "    /* \"Ep4/example.sol\":62:1304  contract Example {\r... */\n  mstore(0x40, 0x80)\n    /* \"Ep4/example.sol\":103:104  5 */\n  0x05\n    /* \"Ep4/example.sol\":86:104  uint private p = 5 */\n  0x00\n  sstore\n    /* \"Ep4/example.sol\":62:1304  contract Example {\r... */\n  callvalue\n  dup1\n  iszero\n  tag_1\n  jumpi\n  0x00\n  dup1\n  revert\ntag_1:\n  pop\n  dataSize(sub_0)\n  dup1\n  dataOffset(sub_0)\n  0x00\n  codecopy\n  0x00\n  return\nstop\n\nsub_0: assembly {\n        /* \"Ep4/example.sol\":62:1304  contract Example {\r... */\n      mstore(0x40, 0x80)\n      callvalue\n      dup1\n      iszero\n      tag_1\n      jumpi\n      0x00\n      dup1\n      revert\n    tag_1:\n      pop\n      jumpi(tag_2, lt(calldatasize, 0x04))\n      shr(0xe0, calldataload(0x00))\n      dup1\n      0x19730b44\n      eq\n      tag_3\n      jumpi\n      dup1\n      0x24475f4c\n      eq\n      tag_4\n      jumpi\n      dup1\n      0x97e82183\n      eq\n      tag_5\n      jumpi\n    tag_2:\n      0x00\n      dup1\n      revert\n        /* \"Ep4/example.sol\":847:1301  function validate(uint start, uint secondsAfter) public view returns(bool) {\r... */\n    tag_3:\n      tag_6\n      0x04\n      dup1\n      calldatasize\n      sub\n      dup2\n      add\n      swap1\n      tag_7\n      swap2\n      swap1\n      tag_8\n      jump\t// in\n    tag_7:\n      tag_9\n      jump\t// in\n    tag_6:\n      mload(0x40)\n      tag_10\n      swap2\n      swap1\n      tag_11\n      jump\t// in\n    tag_10:\n      mload(0x40)\n      dup1\n      swap2\n      sub\n      swap1\n      return\n        /* \"Ep4/example.sol\":470:839  function timeUnitExample() public pure {\r... */\n    tag_4:\n      tag_12\n      tag_13\n      jump\t// in\n    tag_12:\n      stop\n        /* \"Ep4/example.sol\":113:462  function etherUnitExample() public pure {\r... */\n    tag_5:\n      tag_14\n      tag_15\n      jump\t// in\n    tag_14:\n      stop\n        /* \"Ep4/example.sol\":847:1301  function validate(uint start, uint secondsAfter) public view returns(bool) {\r... */\n    tag_9:\n        /* \"Ep4/example.sol\":916:920  bool */\n      0x00\n        /* \"Ep4/example.sol\":933:949  bool isValidated */\n      dup1\n        /* \"Ep4/example.sol\":952:957  false */\n      0x00\n        /* \"Ep4/example.sol\":933:957  bool isValidated = false */\n      swap1\n      pop\n        /* \"Ep4/example.sol\":1199:1208  3 seconds */\n      0x03\n        /* \"Ep4/example.sol\":1184:1196  secondsAfter */\n      dup4\n        /* \"Ep4/example.sol\":1184:1208  secondsAfter * 3 seconds */\n      tag_17\n      swap2\n      swap1\n      tag_18\n      jump\t// in\n    tag_17:\n        /* \"Ep4/example.sol\":1176:1181  start */\n      dup5\n        /* \"Ep4/example.sol\":1176:1208  start + secondsAfter * 3 seconds */\n      tag_19\n      swap2\n      swap1\n      tag_20\n      jump\t// in\n    tag_19:\n        /* \"Ep4/example.sol\":1157:1172  block.timestamp */\n      timestamp\n        /* \"Ep4/example.sol\":1157:1208  block.timestamp >= start + secondsAfter * 3 seconds */\n      lt\n        /* \"Ep4/example.sol\":1153:1255  if (block.timestamp >= start + secondsAfter * 3 seconds) {\r... */\n      tag_21\n      jumpi\n        /* \"Ep4/example.sol\":1239:1243  true */\n      0x01\n        /* \"Ep4/example.sol\":1225:1243  isValidated = true */\n      swap1\n      pop\n        /* \"Ep4/example.sol\":1153:1255  if (block.timestamp >= start + secondsAfter * 3 seconds) {\r... */\n    tag_21:\n        /* \"Ep4/example.sol\":1282:1293  isValidated */\n      dup1\n        /* \"Ep4/example.sol\":1275:1293  return isValidated */\n      swap2\n      pop\n      pop\n        /* \"Ep4/example.sol\":847:1301  function validate(uint start, uint secondsAfter) public view returns(bool) {\r... */\n      swap3\n      swap2\n      pop\n      pop\n      jump\t// out\n        /* \"Ep4/example.sol\":470:839  function timeUnitExample() public pure {\r... */\n    tag_13:\n        /* \"Ep4/example.sol\":557:558  1 */\n      0x01\n        /* \"Ep4/example.sol\":544:553  1 seconds */\n      dup1\n        /* \"Ep4/example.sol\":544:558  1 seconds == 1 */\n      eq\n        /* \"Ep4/example.sol\":537:559  assert(1 seconds == 1) */\n      tag_23\n      jumpi\n      tag_24\n      tag_25\n      jump\t// in\n    tag_24:\n    tag_23:\n        /* \"Ep4/example.sol\":620:630  60 seconds */\n      0x3c\n        /* \"Ep4/example.sol\":607:616  1 minutes */\n      dup1\n        /* \"Ep4/example.sol\":607:630  1 minutes == 60 seconds */\n      eq\n        /* \"Ep4/example.sol\":600:631  assert(1 minutes == 60 seconds) */\n      tag_26\n      jumpi\n      tag_27\n      tag_25\n      jump\t// in\n    tag_27:\n    tag_26:\n        /* \"Ep4/example.sol\":693:703  60 minutes */\n      0x0e10\n        /* \"Ep4/example.sol\":682:689  1 hours */\n      dup1\n        /* \"Ep4/example.sol\":682:703  1 hours == 60 minutes */\n      eq\n        /* \"Ep4/example.sol\":675:704  assert(1 hours == 60 minutes) */\n      tag_28\n      jumpi\n      tag_29\n      tag_25\n      jump\t// in\n    tag_29:\n    tag_28:\n        /* \"Ep4/example.sol\":760:768  24 hours */\n      0x015180\n        /* \"Ep4/example.sol\":750:756  1 days */\n      dup1\n        /* \"Ep4/example.sol\":750:768  1 days == 24 hours */\n      eq\n        /* \"Ep4/example.sol\":743:769  assert(1 days == 24 hours) */\n      tag_30\n      jumpi\n      tag_31\n      tag_25\n      jump\t// in\n    tag_31:\n    tag_30:\n        /* \"Ep4/example.sol\":824:830  7 days */\n      0x093a80\n        /* \"Ep4/example.sol\":813:820  1 weeks */\n      dup1\n        /* \"Ep4/example.sol\":813:830  1 weeks == 7 days */\n      eq\n        /* \"Ep4/example.sol\":806:831  assert(1 weeks == 7 days) */\n      tag_32\n      jumpi\n      tag_33\n      tag_25\n      jump\t// in\n    tag_33:\n    tag_32:\n        /* \"Ep4/example.sol\":470:839  function timeUnitExample() public pure {\r... */\n      jump\t// out\n        /* \"Ep4/example.sol\":113:462  function etherUnitExample() public pure {\r... */\n    tag_15:\n        /* \"Ep4/example.sol\":164:170  uint a */\n      0x00\n        /* \"Ep4/example.sol\":173:174  5 */\n      0x05\n        /* \"Ep4/example.sol\":164:174  uint a = 5 */\n      swap1\n      pop\n        /* \"Ep4/example.sol\":300:301  1 */\n      0x01\n        /* \"Ep4/example.sol\":291:296  1 wei */\n      dup1\n        /* \"Ep4/example.sol\":291:301  1 wei == 1 */\n      eq\n        /* \"Ep4/example.sol\":284:302  assert(1 wei == 1) */\n      tag_36\n      jumpi\n      tag_37\n      tag_25\n      jump\t// in\n    tag_37:\n    tag_36:\n        /* \"Ep4/example.sol\":372:375  1e9 */\n      0x3b9aca00\n        /* \"Ep4/example.sol\":362:368  1 gwei */\n      dup1\n        /* \"Ep4/example.sol\":362:375  1 gwei == 1e9 */\n      eq\n        /* \"Ep4/example.sol\":355:376  assert(1 gwei == 1e9) */\n      tag_38\n      jumpi\n      tag_39\n      tag_25\n      jump\t// in\n    tag_39:\n    tag_38:\n        /* \"Ep4/example.sol\":449:453  1e18 */\n      0x0de0b6b3a7640000\n        /* \"Ep4/example.sol\":438:445  1 ether */\n      dup1\n        /* \"Ep4/example.sol\":438:453  1 ether == 1e18 */\n      eq\n        /* \"Ep4/example.sol\":431:454  assert(1 ether == 1e18) */\n      tag_40\n      jumpi\n      tag_41\n      tag_25\n      jump\t// in\n    tag_41:\n    tag_40:\n        /* \"Ep4/example.sol\":153:462  {\r... */\n      pop\n        /* \"Ep4/example.sol\":113:462  function etherUnitExample() public pure {\r... */\n      jump\t// out\n        /* \"#utility.yul\":7:146   */\n    tag_43:\n        /* \"#utility.yul\":53:58   */\n      0x00\n        /* \"#utility.yul\":91:97   */\n      dup2\n        /* \"#utility.yul\":78:98   */\n      calldataload\n        /* \"#utility.yul\":69:98   */\n      swap1\n      pop\n        /* \"#utility.yul\":107:140   */\n      tag_45\n        /* \"#utility.yul\":134:139   */\n      dup2\n        /* \"#utility.yul\":107:140   */\n      tag_46\n      jump\t// in\n    tag_45:\n        /* \"#utility.yul\":7:146   */\n      swap3\n      swap2\n      pop\n      pop\n      jump\t// out\n        /* \"#utility.yul\":152:626   */\n    tag_8:\n        /* \"#utility.yul\":220:226   */\n      0x00\n        /* \"#utility.yul\":228:234   */\n      dup1\n        /* \"#utility.yul\":277:279   */\n      0x40\n        /* \"#utility.yul\":265:274   */\n      dup4\n        /* \"#utility.yul\":256:263   */\n      dup6\n        /* \"#utility.yul\":252:275   */\n      sub\n        /* \"#utility.yul\":248:280   */\n      slt\n        /* \"#utility.yul\":245:364   */\n      iszero\n      tag_48\n      jumpi\n        /* \"#utility.yul\":283:362   */\n      tag_49\n      tag_50\n      jump\t// in\n    tag_49:\n        /* \"#utility.yul\":245:364   */\n    tag_48:\n        /* \"#utility.yul\":403:404   */\n      0x00\n        /* \"#utility.yul\":428:481   */\n      tag_51\n        /* \"#utility.yul\":473:480   */\n      dup6\n        /* \"#utility.yul\":464:470   */\n      dup3\n        /* \"#utility.yul\":453:462   */\n      dup7\n        /* \"#utility.yul\":449:471   */\n      add\n        /* \"#utility.yul\":428:481   */\n      tag_43\n      jump\t// in\n    tag_51:\n        /* \"#utility.yul\":418:481   */\n      swap3\n      pop\n        /* \"#utility.yul\":374:491   */\n      pop\n        /* \"#utility.yul\":530:532   */\n      0x20\n        /* \"#utility.yul\":556:609   */\n      tag_52\n        /* \"#utility.yul\":601:608   */\n      dup6\n        /* \"#utility.yul\":592:598   */\n      dup3\n        /* \"#utility.yul\":581:590   */\n      dup7\n        /* \"#utility.yul\":577:599   */\n      add\n        /* \"#utility.yul\":556:609   */\n      tag_43\n      jump\t// in\n    tag_52:\n        /* \"#utility.yul\":546:609   */\n      swap2\n      pop\n        /* \"#utility.yul\":501:619   */\n      pop\n        /* \"#utility.yul\":152:626   */\n      swap3\n      pop\n      swap3\n      swap1\n      pop\n      jump\t// out\n        /* \"#utility.yul\":632:741   */\n    tag_53:\n        /* \"#utility.yul\":713:734   */\n      tag_55\n        /* \"#utility.yul\":728:733   */\n      dup2\n        /* \"#utility.yul\":713:734   */\n      tag_56\n      jump\t// in\n    tag_55:\n        /* \"#utility.yul\":708:711   */\n      dup3\n        /* \"#utility.yul\":701:735   */\n      mstore\n        /* \"#utility.yul\":632:741   */\n      pop\n      pop\n      jump\t// out\n        /* \"#utility.yul\":747:957   */\n    tag_11:\n        /* \"#utility.yul\":834:838   */\n      0x00\n        /* \"#utility.yul\":872:874   */\n      0x20\n        /* \"#utility.yul\":861:870   */\n      dup3\n        /* \"#utility.yul\":857:875   */\n      add\n        /* \"#utility.yul\":849:875   */\n      swap1\n      pop\n        /* \"#utility.yul\":885:950   */\n      tag_58\n        /* \"#utility.yul\":947:948   */\n      0x00\n        /* \"#utility.yul\":936:945   */\n      dup4\n        /* \"#utility.yul\":932:949   */\n      add\n        /* \"#utility.yul\":923:929   */\n      dup5\n        /* \"#utility.yul\":885:950   */\n      tag_53\n      jump\t// in\n    tag_58:\n        /* \"#utility.yul\":747:957   */\n      swap3\n      swap2\n      pop\n      pop\n      jump\t// out\n        /* \"#utility.yul\":1044:1349   */\n    tag_20:\n        /* \"#utility.yul\":1084:1087   */\n      0x00\n        /* \"#utility.yul\":1103:1123   */\n      tag_62\n        /* \"#utility.yul\":1121:1122   */\n      dup3\n        /* \"#utility.yul\":1103:1123   */\n      tag_63\n      jump\t// in\n    tag_62:\n        /* \"#utility.yul\":1098:1123   */\n      swap2\n      pop\n        /* \"#utility.yul\":1137:1157   */\n      tag_64\n        /* \"#utility.yul\":1155:1156   */\n      dup4\n        /* \"#utility.yul\":1137:1157   */\n      tag_63\n      jump\t// in\n    tag_64:\n        /* \"#utility.yul\":1132:1157   */\n      swap3\n      pop\n        /* \"#utility.yul\":1291:1292   */\n      dup3\n        /* \"#utility.yul\":1223:1289   */\n      0xffffffffffffffffffffffffffffffffffffffffffffffffffffffffffffffff\n        /* \"#utility.yul\":1219:1293   */\n      sub\n        /* \"#utility.yul\":1216:1217   */\n      dup3\n        /* \"#utility.yul\":1213:1294   */\n      gt\n        /* \"#utility.yul\":1210:1317   */\n      iszero\n      tag_65\n      jumpi\n        /* \"#utility.yul\":1297:1315   */\n      tag_66\n      tag_67\n      jump\t// in\n    tag_66:\n        /* \"#utility.yul\":1210:1317   */\n    tag_65:\n        /* \"#utility.yul\":1341:1342   */\n      dup3\n        /* \"#utility.yul\":1338:1339   */\n      dup3\n        /* \"#utility.yul\":1334:1343   */\n      add\n        /* \"#utility.yul\":1327:1343   */\n      swap1\n      pop\n        /* \"#utility.yul\":1044:1349   */\n      swap3\n      swap2\n      pop\n      pop\n      jump\t// out\n        /* \"#utility.yul\":1355:1703   */\n    tag_18:\n        /* \"#utility.yul\":1395:1402   */\n      0x00\n        /* \"#utility.yul\":1418:1438   */\n      tag_69\n        /* \"#utility.yul\":1436:1437   */\n      dup3\n        /* \"#utility.yul\":1418:1438   */\n      tag_63\n      jump\t// in\n    tag_69:\n        /* \"#utility.yul\":1413:1438   */\n      swap2\n      pop\n        /* \"#utility.yul\":1452:1472   */\n      tag_70\n        /* \"#utility.yul\":1470:1471   */\n      dup4\n        /* \"#utility.yul\":1452:1472   */\n      tag_63\n      jump\t// in\n    tag_70:\n        /* \"#utility.yul\":1447:1472   */\n      swap3\n      pop\n        /* \"#utility.yul\":1640:1641   */\n      dup2\n        /* \"#utility.yul\":1572:1638   */\n      0xffffffffffffffffffffffffffffffffffffffffffffffffffffffffffffffff\n        /* \"#utility.yul\":1568:1642   */\n      div\n        /* \"#utility.yul\":1565:1566   */\n      dup4\n        /* \"#utility.yul\":1562:1643   */\n      gt\n        /* \"#utility.yul\":1557:1558   */\n      dup3\n        /* \"#utility.yul\":1550:1559   */\n      iszero\n        /* \"#utility.yul\":1543:1560   */\n      iszero\n        /* \"#utility.yul\":1539:1644   */\n      and\n        /* \"#utility.yul\":1536:1667   */\n      iszero\n      tag_71\n      jumpi\n        /* \"#utility.yul\":1647:1665   */\n      tag_72\n      tag_67\n      jump\t// in\n    tag_72:\n        /* \"#utility.yul\":1536:1667   */\n    tag_71:\n        /* \"#utility.yul\":1695:1696   */\n      dup3\n        /* \"#utility.yul\":1692:1693   */\n      dup3\n        /* \"#utility.yul\":1688:1697   */\n      mul\n        /* \"#utility.yul\":1677:1697   */\n      swap1\n      pop\n        /* \"#utility.yul\":1355:1703   */\n      swap3\n      swap2\n      pop\n      pop\n      jump\t// out\n        /* \"#utility.yul\":1709:1799   */\n    tag_56:\n        /* \"#utility.yul\":1743:1750   */\n      0x00\n        /* \"#utility.yul\":1786:1791   */\n      dup2\n        /* \"#utility.yul\":1779:1792   */\n      iszero\n        /* \"#utility.yul\":1772:1793   */\n      iszero\n        /* \"#utility.yul\":1761:1793   */\n      swap1\n      pop\n        /* \"#utility.yul\":1709:1799   */\n      swap2\n      swap1\n      pop\n      jump\t// out\n        /* \"#utility.yul\":1805:1882   */\n    tag_63:\n        /* \"#utility.yul\":1842:1849   */\n      0x00\n        /* \"#utility.yul\":1871:1876   */\n      dup2\n        /* \"#utility.yul\":1860:1876   */\n      swap1\n      pop\n        /* \"#utility.yul\":1805:1882   */\n      swap2\n      swap1\n      pop\n      jump\t// out\n        /* \"#utility.yul\":1888:2068   */\n    tag_25:\n        /* \"#utility.yul\":1936:2013   */\n      0x4e487b7100000000000000000000000000000000000000000000000000000000\n        /* \"#utility.yul\":1933:1934   */\n      0x00\n        /* \"#utility.yul\":1926:2014   */\n      mstore\n        /* \"#utility.yul\":2033:2037   */\n      0x01\n        /* \"#utility.yul\":2030:2031   */\n      0x04\n        /* \"#utility.yul\":2023:2038   */\n      mstore\n        /* \"#utility.yul\":2057:2061   */\n      0x24\n        /* \"#utility.yul\":2054:2055   */\n      0x00\n        /* \"#utility.yul\":2047:2062   */\n      revert\n        /* \"#utility.yul\":2074:2254   */\n    tag_67:\n        /* \"#utility.yul\":2122:2199   */\n      0x4e487b7100000000000000000000000000000000000000000000000000000000\n        /* \"#utility.yul\":2119:2120   */\n      0x00\n        /* \"#utility.yul\":2112:2200   */\n      mstore\n        /* \"#utility.yul\":2219:2223   */\n      0x11\n        /* \"#utility.yul\":2216:2217   */\n      0x04\n        /* \"#utility.yul\":2209:2224   */\n      mstore\n        /* \"#utility.yul\":2243:2247   */\n      0x24\n        /* \"#utility.yul\":2240:2241   */\n      0x00\n        /* \"#utility.yul\":2233:2248   */\n      revert\n        /* \"#utility.yul\":2383:2500   */\n    tag_50:\n        /* \"#utility.yul\":2492:2493   */\n      0x00\n        /* \"#utility.yul\":2489:2490   */\n      dup1\n        /* \"#utility.yul\":2482:2494   */\n      revert\n        /* \"#utility.yul\":2506:2628   */\n    tag_46:\n        /* \"#utility.yul\":2579:2603   */\n      tag_81\n        /* \"#utility.yul\":2597:2602   */\n      dup2\n        /* \"#utility.yul\":2579:2603   */\n      tag_63\n      jump\t// in\n    tag_81:\n        /* \"#utility.yul\":2572:2577   */\n      dup2\n        /* \"#utility.yul\":2569:2604   */\n      eq\n        /* \"#utility.yul\":2559:2622   */\n      tag_82\n      jumpi\n        /* \"#utility.yul\":2618:2619   */\n      0x00\n        /* \"#utility.yul\":2615:2616   */\n      dup1\n        /* \"#utility.yul\":2608:2620   */\n      revert\n        /* \"#utility.yul\":2559:2622   */\n    tag_82:\n        /* \"#utility.yul\":2506:2628   */\n      pop\n      jump\t// out\n\n    auxdata: 0xa2646970667358221220919626de2f0643fe3c709b1a9d5578e6d5f983f55451ac8af6782813cefec4ed64736f6c63430008070033\n}\n",
				"bytecode": {
					"linkReferences": {},
					"object": "6080604052600560005534801561001557600080fd5b50610355806100256000396000f3fe608060405234801561001057600080fd5b50600436106100415760003560e01c806319730b441461004657806324475f4c1461007657806397e8218314610080575b600080fd5b610060600480360381019061005b9190610175565b61008a565b60405161006d91906101c4565b60405180910390f35b61007e6100be565b005b61008861011a565b005b6000806000905060038361009e9190610235565b846100a991906101df565b42106100b457600190505b8091505092915050565b600180146100cf576100ce6102a5565b5b603c80146100e0576100df6102a5565b5b610e1080146100f2576100f16102a5565b5b620151808014610105576101046102a5565b5b62093a808014610118576101176102a5565b5b565b60006005905060018014610131576101306102a5565b5b633b9aca008014610145576101446102a5565b5b670de0b6b3a7640000801461015d5761015c6102a5565b5b50565b60008135905061016f81610308565b92915050565b6000806040838503121561018c5761018b610303565b5b600061019a85828601610160565b92505060206101ab85828601610160565b9150509250929050565b6101be8161028f565b82525050565b60006020820190506101d960008301846101b5565b92915050565b60006101ea8261029b565b91506101f58361029b565b9250827fffffffffffffffffffffffffffffffffffffffffffffffffffffffffffffffff0382111561022a576102296102d4565b5b828201905092915050565b60006102408261029b565b915061024b8361029b565b9250817fffffffffffffffffffffffffffffffffffffffffffffffffffffffffffffffff0483118215151615610284576102836102d4565b5b828202905092915050565b60008115159050919050565b6000819050919050565b7f4e487b7100000000000000000000000000000000000000000000000000000000600052600160045260246000fd5b7f4e487b7100000000000000000000000000000000000000000000000000000000600052601160045260246000fd5b600080fd5b6103118161029b565b811461031c57600080fd5b5056fea2646970667358221220919626de2f0643fe3c709b1a9d5578e6d5f983f55451ac8af6782813cefec4ed64736f6c63430008070033",
					"opcodes": "PUSH1 0x80 PUSH1 0x40 MSTORE PUSH1 0x5 PUSH1 0x0 SSTORE CALLVALUE DUP1 ISZERO PUSH2 0x15 JUMPI PUSH1 0x0 DUP1 REVERT JUMPDEST POP PUSH2 0x355 DUP1 PUSH2 0x25 PUSH1 0x0 CODECOPY PUSH1 0x0 RETURN INVALID PUSH1 0x80 PUSH1 0x40 MSTORE CALLVALUE DUP1 ISZERO PUSH2 0x10 JUMPI PUSH1 0x0 DUP1 REVERT JUMPDEST POP PUSH1 0x4 CALLDATASIZE LT PUSH2 0x41 JUMPI PUSH1 0x0 CALLDATALOAD PUSH1 0xE0 SHR DUP1 PUSH4 0x19730B44 EQ PUSH2 0x46 JUMPI DUP1 PUSH4 0x24475F4C EQ PUSH2 0x76 JUMPI DUP1 PUSH4 0x97E82183 EQ PUSH2 0x80 JUMPI JUMPDEST PUSH1 0x0 DUP1 REVERT JUMPDEST PUSH2 0x60 PUSH1 0x4 DUP1 CALLDATASIZE SUB DUP2 ADD SWAP1 PUSH2 0x5B SWAP2 SWAP1 PUSH2 0x175 JUMP JUMPDEST PUSH2 0x8A JUMP JUMPDEST PUSH1 0x40 MLOAD PUSH2 0x6D SWAP2 SWAP1 PUSH2 0x1C4 JUMP JUMPDEST PUSH1 0x40 MLOAD DUP1 SWAP2 SUB SWAP1 RETURN JUMPDEST PUSH2 0x7E PUSH2 0xBE JUMP JUMPDEST STOP JUMPDEST PUSH2 0x88 PUSH2 0x11A JUMP JUMPDEST STOP JUMPDEST PUSH1 0x0 DUP1 PUSH1 0x0 SWAP1 POP PUSH1 0x3 DUP4 PUSH2 0x9E SWAP2 SWAP1 PUSH2 0x235 JUMP JUMPDEST DUP5 PUSH2 0xA9 SWAP2 SWAP1 PUSH2 0x1DF JUMP JUMPDEST TIMESTAMP LT PUSH2 0xB4 JUMPI PUSH1 0x1 SWAP1 POP JUMPDEST DUP1 SWAP2 POP POP SWAP3 SWAP2 POP POP JUMP JUMPDEST PUSH1 0x1 DUP1 EQ PUSH2 0xCF JUMPI PUSH2 0xCE PUSH2 0x2A5 JUMP JUMPDEST JUMPDEST PUSH1 0x3C DUP1 EQ PUSH2 0xE0 JUMPI PUSH2 0xDF PUSH2 0x2A5 JUMP JUMPDEST JUMPDEST PUSH2 0xE10 DUP1 EQ PUSH2 0xF2 JUMPI PUSH2 0xF1 PUSH2 0x2A5 JUMP JUMPDEST JUMPDEST PUSH3 0x15180 DUP1 EQ PUSH2 0x105 JUMPI PUSH2 0x104 PUSH2 0x2A5 JUMP JUMPDEST JUMPDEST PUSH3 0x93A80 DUP1 EQ PUSH2 0x118 JUMPI PUSH2 0x117 PUSH2 0x2A5 JUMP JUMPDEST JUMPDEST JUMP JUMPDEST PUSH1 0x0 PUSH1 0x5 SWAP1 POP PUSH1 0x1 DUP1 EQ PUSH2 0x131 JUMPI PUSH2 0x130 PUSH2 0x2A5 JUMP JUMPDEST JUMPDEST PUSH4 0x3B9ACA00 DUP1 EQ PUSH2 0x145 JUMPI PUSH2 0x144 PUSH2 0x2A5 JUMP JUMPDEST JUMPDEST PUSH8 0xDE0B6B3A7640000 DUP1 EQ PUSH2 0x15D JUMPI PUSH2 0x15C PUSH2 0x2A5 JUMP JUMPDEST JUMPDEST POP JUMP JUMPDEST PUSH1 0x0 DUP2 CALLDATALOAD SWAP1 POP PUSH2 0x16F DUP2 PUSH2 0x308 JUMP JUMPDEST SWAP3 SWAP2 POP POP JUMP JUMPDEST PUSH1 0x0 DUP1 PUSH1 0x40 DUP4 DUP6 SUB SLT ISZERO PUSH2 0x18C JUMPI PUSH2 0x18B PUSH2 0x303 JUMP JUMPDEST JUMPDEST PUSH1 0x0 PUSH2 0x19A DUP6 DUP3 DUP7 ADD PUSH2 0x160 JUMP JUMPDEST SWAP3 POP POP PUSH1 0x20 PUSH2 0x1AB DUP6 DUP3 DUP7 ADD PUSH2 0x160 JUMP JUMPDEST SWAP2 POP POP SWAP3 POP SWAP3 SWAP1 POP JUMP JUMPDEST PUSH2 0x1BE DUP2 PUSH2 0x28F JUMP JUMPDEST DUP3 MSTORE POP POP JUMP JUMPDEST PUSH1 0x0 PUSH1 0x20 DUP3 ADD SWAP1 POP PUSH2 0x1D9 PUSH1 0x0 DUP4 ADD DUP5 PUSH2 0x1B5 JUMP JUMPDEST SWAP3 SWAP2 POP POP JUMP JUMPDEST PUSH1 0x0 PUSH2 0x1EA DUP3 PUSH2 0x29B JUMP JUMPDEST SWAP2 POP PUSH2 0x1F5 DUP4 PUSH2 0x29B JUMP JUMPDEST SWAP3 POP DUP3 PUSH32 0xFFFFFFFFFFFFFFFFFFFFFFFFFFFFFFFFFFFFFFFFFFFFFFFFFFFFFFFFFFFFFFFF SUB DUP3 GT ISZERO PUSH2 0x22A JUMPI PUSH2 0x229 PUSH2 0x2D4 JUMP JUMPDEST JUMPDEST DUP3 DUP3 ADD SWAP1 POP SWAP3 SWAP2 POP POP JUMP JUMPDEST PUSH1 0x0 PUSH2 0x240 DUP3 PUSH2 0x29B JUMP JUMPDEST SWAP2 POP PUSH2 0x24B DUP4 PUSH2 0x29B JUMP JUMPDEST SWAP3 POP DUP2 PUSH32 0xFFFFFFFFFFFFFFFFFFFFFFFFFFFFFFFFFFFFFFFFFFFFFFFFFFFFFFFFFFFFFFFF DIV DUP4 GT DUP3 ISZERO ISZERO AND ISZERO PUSH2 0x284 JUMPI PUSH2 0x283 PUSH2 0x2D4 JUMP JUMPDEST JUMPDEST DUP3 DUP3 MUL SWAP1 POP SWAP3 SWAP2 POP POP JUMP JUMPDEST PUSH1 0x0 DUP2 ISZERO ISZERO SWAP1 POP SWAP2 SWAP1 POP JUMP JUMPDEST PUSH1 0x0 DUP2 SWAP1 POP SWAP2 SWAP1 POP JUMP JUMPDEST PUSH32 0x4E487B7100000000000000000000000000000000000000000000000000000000 PUSH1 0x0 MSTORE PUSH1 0x1 PUSH1 0x4 MSTORE PUSH1 0x24 PUSH1 0x0 REVERT JUMPDEST PUSH32 0x4E487B7100000000000000000000000000000000000000000000000000000000 PUSH1 0x0 MSTORE PUSH1 0x11 PUSH1 0x4 MSTORE PUSH1 0x24 PUSH1 0x0 REVERT JUMPDEST PUSH1 0x0 DUP1 REVERT JUMPDEST PUSH2 0x311 DUP2 PUSH2 0x29B JUMP JUMPDEST DUP2 EQ PUSH2 0x31C JUMPI PUSH1 0x0 DUP1 REVERT JUMPDEST POP JUMP INVALID LOG2 PUSH5 0x6970667358 0x22 SLT KECCAK256 SWAP2 SWAP7 0x26 0xDE 0x2F MOD NUMBER INVALID EXTCODECOPY PUSH17 0x9B1A9D5578E6D5F983F55451AC8AF67828 SGT 0xCE INVALID 0xC4 0xED PUSH5 0x736F6C6343 STOP ADDMOD SMOD STOP CALLER "
				},
				"gasEstimates": {
					"creation": {
						"codeDepositCost": "170600",
						"executionCost": "22320",
						"totalCost": "192920"
					},
					"external": {
						"etherUnitExample()": "248",
						"timeUnitExample()": "259",
						"validate(uint256,uint256)": "infinite"
					}
				},
				"methodIdentifiers": {
					"etherUnitExample()": "97e82183",
					"timeUnitExample()": "24475f4c",
					"validate(uint256,uint256)": "19730b44"
				}
			},
			"storageLayout": {
				"storage": [
					{
						"astId": 4,
						"contract": "Ep4/example.sol:Example",
						"label": "p",
						"offset": 0,
						"slot": "0",
						"type": "t_uint256"
					}
				],
				"types": {
					"t_uint256": {
						"encoding": "inplace",
						"label": "uint256",
						"numberOfBytes": "32"
					}
				}
			},
			"userdoc": {
				"kind": "user",
				"methods": {},
				"version": 1
			}
		}
	}
}