{
	"Ep4/example.sol": {
		"Example": {
			"abi": [
				{
					"inputs": [],
					"name": "etherUnitExample",
					"outputs": [],
					"stateMutability": "pure",
					"type": "function"
				},
				{
					"inputs": [],
					"name": "timeUnitExample",
					"outputs": [],
					"stateMutability": "pure",
					"type": "function"
				},
				{
					"inputs": [
						{
							"internalType": "uint256",
							"name": "start",
							"type": "uint256"
						},
						{
							"internalType": "uint256",
							"name": "secondsAfter",
							"type": "uint256"
						}
					],
					"name": "validate",
					"outputs": [
						{
							"internalType": "bool",
							"name": "",
							"type": "bool"
						}
					],
					"stateMutability": "view",
					"type": "function"
				}
			],
			"devdoc": {
				"kind": "dev",
				"methods": {},
				"version": 1
			},
			"evm": {
				"assembly": "    /* \"Ep4/example.sol\":62:1344  contract Example {\r... */\n  mstore(0x40, 0x80)\n  callvalue\n  dup1\n  iszero\n  tag_1\n  jumpi\n  0x00\n  dup1\n  revert\ntag_1:\n  pop\n  dataSize(sub_0)\n  dup1\n  dataOffset(sub_0)\n  0x00\n  codecopy\n  0x00\n  return\nstop\n\nsub_0: assembly {\n        /* \"Ep4/example.sol\":62:1344  contract Example {\r... */\n      mstore(0x40, 0x80)\n      callvalue\n      dup1\n      iszero\n      tag_1\n      jumpi\n      0x00\n      dup1\n      revert\n    tag_1:\n      pop\n      jumpi(tag_2, lt(calldatasize, 0x04))\n      shr(0xe0, calldataload(0x00))\n      dup1\n      0x19730b44\n      eq\n      tag_3\n      jumpi\n      dup1\n      0x24475f4c\n      eq\n      tag_4\n      jumpi\n      dup1\n      0x97e82183\n      eq\n      tag_5\n      jumpi\n    tag_2:\n      0x00\n      dup1\n      revert\n        /* \"Ep4/example.sol\":887:1341  function validate(uint start, uint secondsAfter) public view returns(bool) {\r... */\n    tag_3:\n      tag_6\n      0x04\n      dup1\n      calldatasize\n      sub\n      dup2\n      add\n      swap1\n      tag_7\n      swap2\n      swap1\n      tag_8\n      jump\t// in\n    tag_7:\n      tag_9\n      jump\t// in\n    tag_6:\n      mload(0x40)\n      tag_10\n      swap2\n      swap1\n      tag_11\n      jump\t// in\n    tag_10:\n      mload(0x40)\n      dup1\n      swap2\n      sub\n      swap1\n      return\n        /* \"Ep4/example.sol\":510:879  function timeUnitExample() public pure {\r... */\n    tag_4:\n      tag_12\n      tag_13\n      jump\t// in\n    tag_12:\n      stop\n        /* \"Ep4/example.sol\":86:502  function etherUnitExample() public pure {\r... */\n    tag_5:\n      tag_14\n      tag_15\n      jump\t// in\n    tag_14:\n      stop\n        /* \"Ep4/example.sol\":887:1341  function validate(uint start, uint secondsAfter) public view returns(bool) {\r... */\n    tag_9:\n        /* \"Ep4/example.sol\":956:960  bool */\n      0x00\n        /* \"Ep4/example.sol\":973:989  bool isValidated */\n      dup1\n        /* \"Ep4/example.sol\":992:997  false */\n      0x00\n        /* \"Ep4/example.sol\":973:997  bool isValidated = false */\n      swap1\n      pop\n        /* \"Ep4/example.sol\":1239:1248  3 seconds */\n      0x03\n        /* \"Ep4/example.sol\":1224:1236  secondsAfter */\n      dup4\n        /* \"Ep4/example.sol\":1224:1248  secondsAfter * 3 seconds */\n      tag_17\n      swap2\n      swap1\n      tag_18\n      jump\t// in\n    tag_17:\n        /* \"Ep4/example.sol\":1216:1221  start */\n      dup5\n        /* \"Ep4/example.sol\":1216:1248  start + secondsAfter * 3 seconds */\n      tag_19\n      swap2\n      swap1\n      tag_20\n      jump\t// in\n    tag_19:\n        /* \"Ep4/example.sol\":1197:1212  block.timestamp */\n      timestamp\n        /* \"Ep4/example.sol\":1197:1248  block.timestamp >= start + secondsAfter * 3 seconds */\n      lt\n        /* \"Ep4/example.sol\":1193:1295  if (block.timestamp >= start + secondsAfter * 3 seconds) {\r... */\n      tag_21\n      jumpi\n        /* \"Ep4/example.sol\":1279:1283  true */\n      0x01\n        /* \"Ep4/example.sol\":1265:1283  isValidated = true */\n      swap1\n      pop\n        /* \"Ep4/example.sol\":1193:1295  if (block.timestamp >= start + secondsAfter * 3 seconds) {\r... */\n    tag_21:\n        /* \"Ep4/example.sol\":1322:1333  isValidated */\n      dup1\n        /* \"Ep4/example.sol\":1315:1333  return isValidated */\n      swap2\n      pop\n      pop\n        /* \"Ep4/example.sol\":887:1341  function validate(uint start, uint secondsAfter) public view returns(bool) {\r... */\n      swap3\n      swap2\n      pop\n      pop\n      jump\t// out\n        /* \"Ep4/example.sol\":510:879  function timeUnitExample() public pure {\r... */\n    tag_13:\n        /* \"Ep4/example.sol\":597:598  1 */\n      0x01\n        /* \"Ep4/example.sol\":584:593  1 seconds */\n      dup1\n        /* \"Ep4/example.sol\":584:598  1 seconds == 1 */\n      eq\n        /* \"Ep4/example.sol\":577:599  assert(1 seconds == 1) */\n      tag_23\n      jumpi\n      tag_24\n      tag_25\n      jump\t// in\n    tag_24:\n    tag_23:\n        /* \"Ep4/example.sol\":660:670  60 seconds */\n      0x3c\n        /* \"Ep4/example.sol\":647:656  1 minutes */\n      dup1\n        /* \"Ep4/example.sol\":647:670  1 minutes == 60 seconds */\n      eq\n        /* \"Ep4/example.sol\":640:671  assert(1 minutes == 60 seconds) */\n      tag_26\n      jumpi\n      tag_27\n      tag_25\n      jump\t// in\n    tag_27:\n    tag_26:\n        /* \"Ep4/example.sol\":733:743  60 minutes */\n      0x0e10\n        /* \"Ep4/example.sol\":722:729  1 hours */\n      dup1\n        /* \"Ep4/example.sol\":722:743  1 hours == 60 minutes */\n      eq\n        /* \"Ep4/example.sol\":715:744  assert(1 hours == 60 minutes) */\n      tag_28\n      jumpi\n      tag_29\n      tag_25\n      jump\t// in\n    tag_29:\n    tag_28:\n        /* \"Ep4/example.sol\":800:808  24 hours */\n      0x015180\n        /* \"Ep4/example.sol\":790:796  1 days */\n      dup1\n        /* \"Ep4/example.sol\":790:808  1 days == 24 hours */\n      eq\n        /* \"Ep4/example.sol\":783:809  assert(1 days == 24 hours) */\n      tag_30\n      jumpi\n      tag_31\n      tag_25\n      jump\t// in\n    tag_31:\n    tag_30:\n        /* \"Ep4/example.sol\":864:870  7 days */\n      0x093a80\n        /* \"Ep4/example.sol\":853:860  1 weeks */\n      dup1\n        /* \"Ep4/example.sol\":853:870  1 weeks == 7 days */\n      eq\n        /* \"Ep4/example.sol\":846:871  assert(1 weeks == 7 days) */\n      tag_32\n      jumpi\n      tag_33\n      tag_25\n      jump\t// in\n    tag_33:\n    tag_32:\n        /* \"Ep4/example.sol\":510:879  function timeUnitExample() public pure {\r... */\n      jump\t// out\n        /* \"Ep4/example.sol\":86:502  function etherUnitExample() public pure {\r... */\n    tag_15:\n        /* \"Ep4/example.sol\":139:145  uint n */\n      0x00\n        /* \"Ep4/example.sol\":148:149  1 */\n      0x01\n        /* \"Ep4/example.sol\":139:149  uint n = 1 */\n      swap1\n      pop\n        /* \"Ep4/example.sol\":174:175  1 */\n      0x01\n        /* \"Ep4/example.sol\":169:170  n */\n      dup2\n        /* \"Ep4/example.sol\":169:175  n == 1 */\n      eq\n        /* \"Ep4/example.sol\":162:176  assert(n == 1) */\n      tag_35\n      jumpi\n      tag_36\n      tag_25\n      jump\t// in\n    tag_36:\n    tag_35:\n        /* \"Ep4/example.sol\":249:250  1 */\n      0x01\n        /* \"Ep4/example.sol\":240:245  1 wei */\n      dup1\n        /* \"Ep4/example.sol\":240:250  1 wei == 1 */\n      eq\n        /* \"Ep4/example.sol\":232:278  require(1 wei == 1, \"1 wei is not equal to 1\") */\n      tag_37\n      jumpi\n      mload(0x40)\n      0x08c379a000000000000000000000000000000000000000000000000000000000\n      dup2\n      mstore\n      0x04\n      add\n      tag_38\n      swap1\n      tag_39\n      jump\t// in\n    tag_38:\n      mload(0x40)\n      dup1\n      swap2\n      sub\n      swap1\n      revert\n    tag_37:\n        /* \"Ep4/example.sol\":349:352  1e9 */\n      0x3b9aca00\n        /* \"Ep4/example.sol\":339:345  1 gwei */\n      dup1\n        /* \"Ep4/example.sol\":339:352  1 gwei == 1e9 */\n      eq\n        /* \"Ep4/example.sol\":331:383  require(1 gwei == 1e9, \"1 gwei is not equal to 1e9\") */\n      tag_40\n      jumpi\n      mload(0x40)\n      0x08c379a000000000000000000000000000000000000000000000000000000000\n      dup2\n      mstore\n      0x04\n      add\n      tag_41\n      swap1\n      tag_42\n      jump\t// in\n    tag_41:\n      mload(0x40)\n      dup1\n      swap2\n      sub\n      swap1\n      revert\n    tag_40:\n        /* \"Ep4/example.sol\":457:461  1e18 */\n      0x0de0b6b3a7640000\n        /* \"Ep4/example.sol\":446:453  1 ether */\n      dup1\n        /* \"Ep4/example.sol\":446:461  1 ether == 1e18 */\n      eq\n        /* \"Ep4/example.sol\":438:494  require(1 ether == 1e18, \"1 ether is not equal to 1e18\") */\n      tag_43\n      jumpi\n      mload(0x40)\n      0x08c379a000000000000000000000000000000000000000000000000000000000\n      dup2\n      mstore\n      0x04\n      add\n      tag_44\n      swap1\n      tag_45\n      jump\t// in\n    tag_44:\n      mload(0x40)\n      dup1\n      swap2\n      sub\n      swap1\n      revert\n    tag_43:\n        /* \"Ep4/example.sol\":126:502  {\r... */\n      pop\n        /* \"Ep4/example.sol\":86:502  function etherUnitExample() public pure {\r... */\n      jump\t// out\n        /* \"#utility.yul\":7:146   */\n    tag_47:\n        /* \"#utility.yul\":53:58   */\n      0x00\n        /* \"#utility.yul\":91:97   */\n      dup2\n        /* \"#utility.yul\":78:98   */\n      calldataload\n        /* \"#utility.yul\":69:98   */\n      swap1\n      pop\n        /* \"#utility.yul\":107:140   */\n      tag_49\n        /* \"#utility.yul\":134:139   */\n      dup2\n        /* \"#utility.yul\":107:140   */\n      tag_50\n      jump\t// in\n    tag_49:\n        /* \"#utility.yul\":7:146   */\n      swap3\n      swap2\n      pop\n      pop\n      jump\t// out\n        /* \"#utility.yul\":152:626   */\n    tag_8:\n        /* \"#utility.yul\":220:226   */\n      0x00\n        /* \"#utility.yul\":228:234   */\n      dup1\n        /* \"#utility.yul\":277:279   */\n      0x40\n        /* \"#utility.yul\":265:274   */\n      dup4\n        /* \"#utility.yul\":256:263   */\n      dup6\n        /* \"#utility.yul\":252:275   */\n      sub\n        /* \"#utility.yul\":248:280   */\n      slt\n        /* \"#utility.yul\":245:364   */\n      iszero\n      tag_52\n      jumpi\n        /* \"#utility.yul\":283:362   */\n      tag_53\n      tag_54\n      jump\t// in\n    tag_53:\n        /* \"#utility.yul\":245:364   */\n    tag_52:\n        /* \"#utility.yul\":403:404   */\n      0x00\n        /* \"#utility.yul\":428:481   */\n      tag_55\n        /* \"#utility.yul\":473:480   */\n      dup6\n        /* \"#utility.yul\":464:470   */\n      dup3\n        /* \"#utility.yul\":453:462   */\n      dup7\n        /* \"#utility.yul\":449:471   */\n      add\n        /* \"#utility.yul\":428:481   */\n      tag_47\n      jump\t// in\n    tag_55:\n        /* \"#utility.yul\":418:481   */\n      swap3\n      pop\n        /* \"#utility.yul\":374:491   */\n      pop\n        /* \"#utility.yul\":530:532   */\n      0x20\n        /* \"#utility.yul\":556:609   */\n      tag_56\n        /* \"#utility.yul\":601:608   */\n      dup6\n        /* \"#utility.yul\":592:598   */\n      dup3\n        /* \"#utility.yul\":581:590   */\n      dup7\n        /* \"#utility.yul\":577:599   */\n      add\n        /* \"#utility.yul\":556:609   */\n      tag_47\n      jump\t// in\n    tag_56:\n        /* \"#utility.yul\":546:609   */\n      swap2\n      pop\n        /* \"#utility.yul\":501:619   */\n      pop\n        /* \"#utility.yul\":152:626   */\n      swap3\n      pop\n      swap3\n      swap1\n      pop\n      jump\t// out\n        /* \"#utility.yul\":632:741   */\n    tag_57:\n        /* \"#utility.yul\":713:734   */\n      tag_59\n        /* \"#utility.yul\":728:733   */\n      dup2\n        /* \"#utility.yul\":713:734   */\n      tag_60\n      jump\t// in\n    tag_59:\n        /* \"#utility.yul\":708:711   */\n      dup3\n        /* \"#utility.yul\":701:735   */\n      mstore\n        /* \"#utility.yul\":632:741   */\n      pop\n      pop\n      jump\t// out\n        /* \"#utility.yul\":747:1113   */\n    tag_61:\n        /* \"#utility.yul\":889:892   */\n      0x00\n        /* \"#utility.yul\":910:977   */\n      tag_63\n        /* \"#utility.yul\":974:976   */\n      0x1a\n        /* \"#utility.yul\":969:972   */\n      dup4\n        /* \"#utility.yul\":910:977   */\n      tag_64\n      jump\t// in\n    tag_63:\n        /* \"#utility.yul\":903:977   */\n      swap2\n      pop\n        /* \"#utility.yul\":986:1079   */\n      tag_65\n        /* \"#utility.yul\":1075:1078   */\n      dup3\n        /* \"#utility.yul\":986:1079   */\n      tag_66\n      jump\t// in\n    tag_65:\n        /* \"#utility.yul\":1104:1106   */\n      0x20\n        /* \"#utility.yul\":1099:1102   */\n      dup3\n        /* \"#utility.yul\":1095:1107   */\n      add\n        /* \"#utility.yul\":1088:1107   */\n      swap1\n      pop\n        /* \"#utility.yul\":747:1113   */\n      swap2\n      swap1\n      pop\n      jump\t// out\n        /* \"#utility.yul\":1119:1485   */\n    tag_67:\n        /* \"#utility.yul\":1261:1264   */\n      0x00\n        /* \"#utility.yul\":1282:1349   */\n      tag_69\n        /* \"#utility.yul\":1346:1348   */\n      0x17\n        /* \"#utility.yul\":1341:1344   */\n      dup4\n        /* \"#utility.yul\":1282:1349   */\n      tag_64\n      jump\t// in\n    tag_69:\n        /* \"#utility.yul\":1275:1349   */\n      swap2\n      pop\n        /* \"#utility.yul\":1358:1451   */\n      tag_70\n        /* \"#utility.yul\":1447:1450   */\n      dup3\n        /* \"#utility.yul\":1358:1451   */\n      tag_71\n      jump\t// in\n    tag_70:\n        /* \"#utility.yul\":1476:1478   */\n      0x20\n        /* \"#utility.yul\":1471:1474   */\n      dup3\n        /* \"#utility.yul\":1467:1479   */\n      add\n        /* \"#utility.yul\":1460:1479   */\n      swap1\n      pop\n        /* \"#utility.yul\":1119:1485   */\n      swap2\n      swap1\n      pop\n      jump\t// out\n        /* \"#utility.yul\":1491:1857   */\n    tag_72:\n        /* \"#utility.yul\":1633:1636   */\n      0x00\n        /* \"#utility.yul\":1654:1721   */\n      tag_74\n        /* \"#utility.yul\":1718:1720   */\n      0x1c\n        /* \"#utility.yul\":1713:1716   */\n      dup4\n        /* \"#utility.yul\":1654:1721   */\n      tag_64\n      jump\t// in\n    tag_74:\n        /* \"#utility.yul\":1647:1721   */\n      swap2\n      pop\n        /* \"#utility.yul\":1730:1823   */\n      tag_75\n        /* \"#utility.yul\":1819:1822   */\n      dup3\n        /* \"#utility.yul\":1730:1823   */\n      tag_76\n      jump\t// in\n    tag_75:\n        /* \"#utility.yul\":1848:1850   */\n      0x20\n        /* \"#utility.yul\":1843:1846   */\n      dup3\n        /* \"#utility.yul\":1839:1851   */\n      add\n        /* \"#utility.yul\":1832:1851   */\n      swap1\n      pop\n        /* \"#utility.yul\":1491:1857   */\n      swap2\n      swap1\n      pop\n      jump\t// out\n        /* \"#utility.yul\":1863:2073   */\n    tag_11:\n        /* \"#utility.yul\":1950:1954   */\n      0x00\n        /* \"#utility.yul\":1988:1990   */\n      0x20\n        /* \"#utility.yul\":1977:1986   */\n      dup3\n        /* \"#utility.yul\":1973:1991   */\n      add\n        /* \"#utility.yul\":1965:1991   */\n      swap1\n      pop\n        /* \"#utility.yul\":2001:2066   */\n      tag_78\n        /* \"#utility.yul\":2063:2064   */\n      0x00\n        /* \"#utility.yul\":2052:2061   */\n      dup4\n        /* \"#utility.yul\":2048:2065   */\n      add\n        /* \"#utility.yul\":2039:2045   */\n      dup5\n        /* \"#utility.yul\":2001:2066   */\n      tag_57\n      jump\t// in\n    tag_78:\n        /* \"#utility.yul\":1863:2073   */\n      swap3\n      swap2\n      pop\n      pop\n      jump\t// out\n        /* \"#utility.yul\":2079:2498   */\n    tag_42:\n        /* \"#utility.yul\":2245:2249   */\n      0x00\n        /* \"#utility.yul\":2283:2285   */\n      0x20\n        /* \"#utility.yul\":2272:2281   */\n      dup3\n        /* \"#utility.yul\":2268:2286   */\n      add\n        /* \"#utility.yul\":2260:2286   */\n      swap1\n      pop\n        /* \"#utility.yul\":2332:2341   */\n      dup2\n        /* \"#utility.yul\":2326:2330   */\n      dup2\n        /* \"#utility.yul\":2322:2342   */\n      sub\n        /* \"#utility.yul\":2318:2319   */\n      0x00\n        /* \"#utility.yul\":2307:2316   */\n      dup4\n        /* \"#utility.yul\":2303:2320   */\n      add\n        /* \"#utility.yul\":2296:2343   */\n      mstore\n        /* \"#utility.yul\":2360:2491   */\n      tag_80\n        /* \"#utility.yul\":2486:2490   */\n      dup2\n        /* \"#utility.yul\":2360:2491   */\n      tag_61\n      jump\t// in\n    tag_80:\n        /* \"#utility.yul\":2352:2491   */\n      swap1\n      pop\n        /* \"#utility.yul\":2079:2498   */\n      swap2\n      swap1\n      pop\n      jump\t// out\n        /* \"#utility.yul\":2504:2923   */\n    tag_39:\n        /* \"#utility.yul\":2670:2674   */\n      0x00\n        /* \"#utility.yul\":2708:2710   */\n      0x20\n        /* \"#utility.yul\":2697:2706   */\n      dup3\n        /* \"#utility.yul\":2693:2711   */\n      add\n        /* \"#utility.yul\":2685:2711   */\n      swap1\n      pop\n        /* \"#utility.yul\":2757:2766   */\n      dup2\n        /* \"#utility.yul\":2751:2755   */\n      dup2\n        /* \"#utility.yul\":2747:2767   */\n      sub\n        /* \"#utility.yul\":2743:2744   */\n      0x00\n        /* \"#utility.yul\":2732:2741   */\n      dup4\n        /* \"#utility.yul\":2728:2745   */\n      add\n        /* \"#utility.yul\":2721:2768   */\n      mstore\n        /* \"#utility.yul\":2785:2916   */\n      tag_82\n        /* \"#utility.yul\":2911:2915   */\n      dup2\n        /* \"#utility.yul\":2785:2916   */\n      tag_67\n      jump\t// in\n    tag_82:\n        /* \"#utility.yul\":2777:2916   */\n      swap1\n      pop\n        /* \"#utility.yul\":2504:2923   */\n      swap2\n      swap1\n      pop\n      jump\t// out\n        /* \"#utility.yul\":2929:3348   */\n    tag_45:\n        /* \"#utility.yul\":3095:3099   */\n      0x00\n        /* \"#utility.yul\":3133:3135   */\n      0x20\n        /* \"#utility.yul\":3122:3131   */\n      dup3\n        /* \"#utility.yul\":3118:3136   */\n      add\n        /* \"#utility.yul\":3110:3136   */\n      swap1\n      pop\n        /* \"#utility.yul\":3182:3191   */\n      dup2\n        /* \"#utility.yul\":3176:3180   */\n      dup2\n        /* \"#utility.yul\":3172:3192   */\n      sub\n        /* \"#utility.yul\":3168:3169   */\n      0x00\n        /* \"#utility.yul\":3157:3166   */\n      dup4\n        /* \"#utility.yul\":3153:3170   */\n      add\n        /* \"#utility.yul\":3146:3193   */\n      mstore\n        /* \"#utility.yul\":3210:3341   */\n      tag_84\n        /* \"#utility.yul\":3336:3340   */\n      dup2\n        /* \"#utility.yul\":3210:3341   */\n      tag_72\n      jump\t// in\n    tag_84:\n        /* \"#utility.yul\":3202:3341   */\n      swap1\n      pop\n        /* \"#utility.yul\":2929:3348   */\n      swap2\n      swap1\n      pop\n      jump\t// out\n        /* \"#utility.yul\":3435:3604   */\n    tag_64:\n        /* \"#utility.yul\":3519:3530   */\n      0x00\n        /* \"#utility.yul\":3553:3559   */\n      dup3\n        /* \"#utility.yul\":3548:3551   */\n      dup3\n        /* \"#utility.yul\":3541:3560   */\n      mstore\n        /* \"#utility.yul\":3593:3597   */\n      0x20\n        /* \"#utility.yul\":3588:3591   */\n      dup3\n        /* \"#utility.yul\":3584:3598   */\n      add\n        /* \"#utility.yul\":3569:3598   */\n      swap1\n      pop\n        /* \"#utility.yul\":3435:3604   */\n      swap3\n      swap2\n      pop\n      pop\n      jump\t// out\n        /* \"#utility.yul\":3610:3915   */\n    tag_20:\n        /* \"#utility.yul\":3650:3653   */\n      0x00\n        /* \"#utility.yul\":3669:3689   */\n      tag_89\n        /* \"#utility.yul\":3687:3688   */\n      dup3\n        /* \"#utility.yul\":3669:3689   */\n      tag_90\n      jump\t// in\n    tag_89:\n        /* \"#utility.yul\":3664:3689   */\n      swap2\n      pop\n        /* \"#utility.yul\":3703:3723   */\n      tag_91\n        /* \"#utility.yul\":3721:3722   */\n      dup4\n        /* \"#utility.yul\":3703:3723   */\n      tag_90\n      jump\t// in\n    tag_91:\n        /* \"#utility.yul\":3698:3723   */\n      swap3\n      pop\n        /* \"#utility.yul\":3857:3858   */\n      dup3\n        /* \"#utility.yul\":3789:3855   */\n      0xffffffffffffffffffffffffffffffffffffffffffffffffffffffffffffffff\n        /* \"#utility.yul\":3785:3859   */\n      sub\n        /* \"#utility.yul\":3782:3783   */\n      dup3\n        /* \"#utility.yul\":3779:3860   */\n      gt\n        /* \"#utility.yul\":3776:3883   */\n      iszero\n      tag_92\n      jumpi\n        /* \"#utility.yul\":3863:3881   */\n      tag_93\n      tag_94\n      jump\t// in\n    tag_93:\n        /* \"#utility.yul\":3776:3883   */\n    tag_92:\n        /* \"#utility.yul\":3907:3908   */\n      dup3\n        /* \"#utility.yul\":3904:3905   */\n      dup3\n        /* \"#utility.yul\":3900:3909   */\n      add\n        /* \"#utility.yul\":3893:3909   */\n      swap1\n      pop\n        /* \"#utility.yul\":3610:3915   */\n      swap3\n      swap2\n      pop\n      pop\n      jump\t// out\n        /* \"#utility.yul\":3921:4269   */\n    tag_18:\n        /* \"#utility.yul\":3961:3968   */\n      0x00\n        /* \"#utility.yul\":3984:4004   */\n      tag_96\n        /* \"#utility.yul\":4002:4003   */\n      dup3\n        /* \"#utility.yul\":3984:4004   */\n      tag_90\n      jump\t// in\n    tag_96:\n        /* \"#utility.yul\":3979:4004   */\n      swap2\n      pop\n        /* \"#utility.yul\":4018:4038   */\n      tag_97\n        /* \"#utility.yul\":4036:4037   */\n      dup4\n        /* \"#utility.yul\":4018:4038   */\n      tag_90\n      jump\t// in\n    tag_97:\n        /* \"#utility.yul\":4013:4038   */\n      swap3\n      pop\n        /* \"#utility.yul\":4206:4207   */\n      dup2\n        /* \"#utility.yul\":4138:4204   */\n      0xffffffffffffffffffffffffffffffffffffffffffffffffffffffffffffffff\n        /* \"#utility.yul\":4134:4208   */\n      div\n        /* \"#utility.yul\":4131:4132   */\n      dup4\n        /* \"#utility.yul\":4128:4209   */\n      gt\n        /* \"#utility.yul\":4123:4124   */\n      dup3\n        /* \"#utility.yul\":4116:4125   */\n      iszero\n        /* \"#utility.yul\":4109:4126   */\n      iszero\n        /* \"#utility.yul\":4105:4210   */\n      and\n        /* \"#utility.yul\":4102:4233   */\n      iszero\n      tag_98\n      jumpi\n        /* \"#utility.yul\":4213:4231   */\n      tag_99\n      tag_94\n      jump\t// in\n    tag_99:\n        /* \"#utility.yul\":4102:4233   */\n    tag_98:\n        /* \"#utility.yul\":4261:4262   */\n      dup3\n        /* \"#utility.yul\":4258:4259   */\n      dup3\n        /* \"#utility.yul\":4254:4263   */\n      mul\n        /* \"#utility.yul\":4243:4263   */\n      swap1\n      pop\n        /* \"#utility.yul\":3921:4269   */\n      swap3\n      swap2\n      pop\n      pop\n      jump\t// out\n        /* \"#utility.yul\":4275:4365   */\n    tag_60:\n        /* \"#utility.yul\":4309:4316   */\n      0x00\n        /* \"#utility.yul\":4352:4357   */\n      dup2\n        /* \"#utility.yul\":4345:4358   */\n      iszero\n        /* \"#utility.yul\":4338:4359   */\n      iszero\n        /* \"#utility.yul\":4327:4359   */\n      swap1\n      pop\n        /* \"#utility.yul\":4275:4365   */\n      swap2\n      swap1\n      pop\n      jump\t// out\n        /* \"#utility.yul\":4371:4448   */\n    tag_90:\n        /* \"#utility.yul\":4408:4415   */\n      0x00\n        /* \"#utility.yul\":4437:4442   */\n      dup2\n        /* \"#utility.yul\":4426:4442   */\n      swap1\n      pop\n        /* \"#utility.yul\":4371:4448   */\n      swap2\n      swap1\n      pop\n      jump\t// out\n        /* \"#utility.yul\":4454:4634   */\n    tag_25:\n        /* \"#utility.yul\":4502:4579   */\n      0x4e487b7100000000000000000000000000000000000000000000000000000000\n        /* \"#utility.yul\":4499:4500   */\n      0x00\n        /* \"#utility.yul\":4492:4580   */\n      mstore\n        /* \"#utility.yul\":4599:4603   */\n      0x01\n        /* \"#utility.yul\":4596:4597   */\n      0x04\n        /* \"#utility.yul\":4589:4604   */\n      mstore\n        /* \"#utility.yul\":4623:4627   */\n      0x24\n        /* \"#utility.yul\":4620:4621   */\n      0x00\n        /* \"#utility.yul\":4613:4628   */\n      revert\n        /* \"#utility.yul\":4640:4820   */\n    tag_94:\n        /* \"#utility.yul\":4688:4765   */\n      0x4e487b7100000000000000000000000000000000000000000000000000000000\n        /* \"#utility.yul\":4685:4686   */\n      0x00\n        /* \"#utility.yul\":4678:4766   */\n      mstore\n        /* \"#utility.yul\":4785:4789   */\n      0x11\n        /* \"#utility.yul\":4782:4783   */\n      0x04\n        /* \"#utility.yul\":4775:4790   */\n      mstore\n        /* \"#utility.yul\":4809:4813   */\n      0x24\n        /* \"#utility.yul\":4806:4807   */\n      0x00\n        /* \"#utility.yul\":4799:4814   */\n      revert\n        /* \"#utility.yul\":4949:5066   */\n    tag_54:\n        /* \"#utility.yul\":5058:5059   */\n      0x00\n        /* \"#utility.yul\":5055:5056   */\n      dup1\n        /* \"#utility.yul\":5048:5060   */\n      revert\n        /* \"#utility.yul\":5072:5248   */\n    tag_66:\n        /* \"#utility.yul\":5212:5240   */\n      0x312067776569206973206e6f7420657175616c20746f20316539000000000000\n        /* \"#utility.yul\":5208:5209   */\n      0x00\n        /* \"#utility.yul\":5200:5206   */\n      dup3\n        /* \"#utility.yul\":5196:5210   */\n      add\n        /* \"#utility.yul\":5189:5241   */\n      mstore\n        /* \"#utility.yul\":5072:5248   */\n      pop\n      jump\t// out\n        /* \"#utility.yul\":5254:5427   */\n    tag_71:\n        /* \"#utility.yul\":5394:5419   */\n      0x3120776569206973206e6f7420657175616c20746f2031000000000000000000\n        /* \"#utility.yul\":5390:5391   */\n      0x00\n        /* \"#utility.yul\":5382:5388   */\n      dup3\n        /* \"#utility.yul\":5378:5392   */\n      add\n        /* \"#utility.yul\":5371:5420   */\n      mstore\n        /* \"#utility.yul\":5254:5427   */\n      pop\n      jump\t// out\n        /* \"#utility.yul\":5433:5611   */\n    tag_76:\n        /* \"#utility.yul\":5573:5603   */\n      0x31206574686572206973206e6f7420657175616c20746f203165313800000000\n        /* \"#utility.yul\":5569:5570   */\n      0x00\n        /* \"#utility.yul\":5561:5567   */\n      dup3\n        /* \"#utility.yul\":5557:5571   */\n      add\n        /* \"#utility.yul\":5550:5604   */\n      mstore\n        /* \"#utility.yul\":5433:5611   */\n      pop\n      jump\t// out\n        /* \"#utility.yul\":5617:5739   */\n    tag_50:\n        /* \"#utility.yul\":5690:5714   */\n      tag_111\n        /* \"#utility.yul\":5708:5713   */\n      dup2\n        /* \"#utility.yul\":5690:5714   */\n      tag_90\n      jump\t// in\n    tag_111:\n        /* \"#utility.yul\":5683:5688   */\n      dup2\n        /* \"#utility.yul\":5680:5715   */\n      eq\n        /* \"#utility.yul\":5670:5733   */\n      tag_112\n      jumpi\n        /* \"#utility.yul\":5729:5730   */\n      0x00\n        /* \"#utility.yul\":5726:5727   */\n      dup1\n        /* \"#utility.yul\":5719:5731   */\n      revert\n        /* \"#utility.yul\":5670:5733   */\n    tag_112:\n        /* \"#utility.yul\":5617:5739   */\n      pop\n      jump\t// out\n\n    auxdata: 0xa2646970667358221220c9f5af7e97951b989664dea1d6608560830d82d94386d16d5a113bcadf9e46aa64736f6c63430008070033\n}\n",
				"bytecode": {
					"linkReferences": {},
					"object": "608060405234801561001057600080fd5b50610551806100206000396000f3fe608060405234801561001057600080fd5b50600436106100415760003560e01c806319730b441461004657806324475f4c1461007657806397e8218314610080575b600080fd5b610060600480360381019061005b919061021c565b61008a565b60405161006d91906102d4565b60405180910390f35b61007e6100be565b005b61008861011a565b005b6000806000905060038361009e91906103b6565b846100a99190610360565b42106100b457600190505b8091505092915050565b600180146100cf576100ce610426565b5b603c80146100e0576100df610426565b5b610e1080146100f2576100f1610426565b5b62015180801461010557610104610426565b5b62093a80801461011857610117610426565b5b565b6000600190506001811461013157610130610426565b5b60018014610174576040517f08c379a000000000000000000000000000000000000000000000000000000000815260040161016b9061030f565b60405180910390fd5b633b9aca0080146101ba576040517f08c379a00000000000000000000000000000000000000000000000000000000081526004016101b1906102ef565b60405180910390fd5b670de0b6b3a76400008014610204576040517f08c379a00000000000000000000000000000000000000000000000000000000081526004016101fb9061032f565b60405180910390fd5b50565b60008135905061021681610504565b92915050565b6000806040838503121561023357610232610484565b5b600061024185828601610207565b925050602061025285828601610207565b9150509250929050565b61026581610410565b82525050565b6000610278601a8361034f565b915061028382610489565b602082019050919050565b600061029b60178361034f565b91506102a6826104b2565b602082019050919050565b60006102be601c8361034f565b91506102c9826104db565b602082019050919050565b60006020820190506102e9600083018461025c565b92915050565b600060208201905081810360008301526103088161026b565b9050919050565b600060208201905081810360008301526103288161028e565b9050919050565b60006020820190508181036000830152610348816102b1565b9050919050565b600082825260208201905092915050565b600061036b8261041c565b91506103768361041c565b9250827fffffffffffffffffffffffffffffffffffffffffffffffffffffffffffffffff038211156103ab576103aa610455565b5b828201905092915050565b60006103c18261041c565b91506103cc8361041c565b9250817fffffffffffffffffffffffffffffffffffffffffffffffffffffffffffffffff048311821515161561040557610404610455565b5b828202905092915050565b60008115159050919050565b6000819050919050565b7f4e487b7100000000000000000000000000000000000000000000000000000000600052600160045260246000fd5b7f4e487b7100000000000000000000000000000000000000000000000000000000600052601160045260246000fd5b600080fd5b7f312067776569206973206e6f7420657175616c20746f20316539000000000000600082015250565b7f3120776569206973206e6f7420657175616c20746f2031000000000000000000600082015250565b7f31206574686572206973206e6f7420657175616c20746f203165313800000000600082015250565b61050d8161041c565b811461051857600080fd5b5056fea2646970667358221220c9f5af7e97951b989664dea1d6608560830d82d94386d16d5a113bcadf9e46aa64736f6c63430008070033",
					"opcodes": "PUSH1 0x80 PUSH1 0x40 MSTORE CALLVALUE DUP1 ISZERO PUSH2 0x10 JUMPI PUSH1 0x0 DUP1 REVERT JUMPDEST POP PUSH2 0x551 DUP1 PUSH2 0x20 PUSH1 0x0 CODECOPY PUSH1 0x0 RETURN INVALID PUSH1 0x80 PUSH1 0x40 MSTORE CALLVALUE DUP1 ISZERO PUSH2 0x10 JUMPI PUSH1 0x0 DUP1 REVERT JUMPDEST POP PUSH1 0x4 CALLDATASIZE LT PUSH2 0x41 JUMPI PUSH1 0x0 CALLDATALOAD PUSH1 0xE0 SHR DUP1 PUSH4 0x19730B44 EQ PUSH2 0x46 JUMPI DUP1 PUSH4 0x24475F4C EQ PUSH2 0x76 JUMPI DUP1 PUSH4 0x97E82183 EQ PUSH2 0x80 JUMPI JUMPDEST PUSH1 0x0 DUP1 REVERT JUMPDEST PUSH2 0x60 PUSH1 0x4 DUP1 CALLDATASIZE SUB DUP2 ADD SWAP1 PUSH2 0x5B SWAP2 SWAP1 PUSH2 0x21C JUMP JUMPDEST PUSH2 0x8A JUMP JUMPDEST PUSH1 0x40 MLOAD PUSH2 0x6D SWAP2 SWAP1 PUSH2 0x2D4 JUMP JUMPDEST PUSH1 0x40 MLOAD DUP1 SWAP2 SUB SWAP1 RETURN JUMPDEST PUSH2 0x7E PUSH2 0xBE JUMP JUMPDEST STOP JUMPDEST PUSH2 0x88 PUSH2 0x11A JUMP JUMPDEST STOP JUMPDEST PUSH1 0x0 DUP1 PUSH1 0x0 SWAP1 POP PUSH1 0x3 DUP4 PUSH2 0x9E SWAP2 SWAP1 PUSH2 0x3B6 JUMP JUMPDEST DUP5 PUSH2 0xA9 SWAP2 SWAP1 PUSH2 0x360 JUMP JUMPDEST TIMESTAMP LT PUSH2 0xB4 JUMPI PUSH1 0x1 SWAP1 POP JUMPDEST DUP1 SWAP2 POP POP SWAP3 SWAP2 POP POP JUMP JUMPDEST PUSH1 0x1 DUP1 EQ PUSH2 0xCF JUMPI PUSH2 0xCE PUSH2 0x426 JUMP JUMPDEST JUMPDEST PUSH1 0x3C DUP1 EQ PUSH2 0xE0 JUMPI PUSH2 0xDF PUSH2 0x426 JUMP JUMPDEST JUMPDEST PUSH2 0xE10 DUP1 EQ PUSH2 0xF2 JUMPI PUSH2 0xF1 PUSH2 0x426 JUMP JUMPDEST JUMPDEST PUSH3 0x15180 DUP1 EQ PUSH2 0x105 JUMPI PUSH2 0x104 PUSH2 0x426 JUMP JUMPDEST JUMPDEST PUSH3 0x93A80 DUP1 EQ PUSH2 0x118 JUMPI PUSH2 0x117 PUSH2 0x426 JUMP JUMPDEST JUMPDEST JUMP JUMPDEST PUSH1 0x0 PUSH1 0x1 SWAP1 POP PUSH1 0x1 DUP2 EQ PUSH2 0x131 JUMPI PUSH2 0x130 PUSH2 0x426 JUMP JUMPDEST JUMPDEST PUSH1 0x1 DUP1 EQ PUSH2 0x174 JUMPI PUSH1 0x40 MLOAD PUSH32 0x8C379A000000000000000000000000000000000000000000000000000000000 DUP2 MSTORE PUSH1 0x4 ADD PUSH2 0x16B SWAP1 PUSH2 0x30F JUMP JUMPDEST PUSH1 0x40 MLOAD DUP1 SWAP2 SUB SWAP1 REVERT JUMPDEST PUSH4 0x3B9ACA00 DUP1 EQ PUSH2 0x1BA JUMPI PUSH1 0x40 MLOAD PUSH32 0x8C379A000000000000000000000000000000000000000000000000000000000 DUP2 MSTORE PUSH1 0x4 ADD PUSH2 0x1B1 SWAP1 PUSH2 0x2EF JUMP JUMPDEST PUSH1 0x40 MLOAD DUP1 SWAP2 SUB SWAP1 REVERT JUMPDEST PUSH8 0xDE0B6B3A7640000 DUP1 EQ PUSH2 0x204 JUMPI PUSH1 0x40 MLOAD PUSH32 0x8C379A000000000000000000000000000000000000000000000000000000000 DUP2 MSTORE PUSH1 0x4 ADD PUSH2 0x1FB SWAP1 PUSH2 0x32F JUMP JUMPDEST PUSH1 0x40 MLOAD DUP1 SWAP2 SUB SWAP1 REVERT JUMPDEST POP JUMP JUMPDEST PUSH1 0x0 DUP2 CALLDATALOAD SWAP1 POP PUSH2 0x216 DUP2 PUSH2 0x504 JUMP JUMPDEST SWAP3 SWAP2 POP POP JUMP JUMPDEST PUSH1 0x0 DUP1 PUSH1 0x40 DUP4 DUP6 SUB SLT ISZERO PUSH2 0x233 JUMPI PUSH2 0x232 PUSH2 0x484 JUMP JUMPDEST JUMPDEST PUSH1 0x0 PUSH2 0x241 DUP6 DUP3 DUP7 ADD PUSH2 0x207 JUMP JUMPDEST SWAP3 POP POP PUSH1 0x20 PUSH2 0x252 DUP6 DUP3 DUP7 ADD PUSH2 0x207 JUMP JUMPDEST SWAP2 POP POP SWAP3 POP SWAP3 SWAP1 POP JUMP JUMPDEST PUSH2 0x265 DUP2 PUSH2 0x410 JUMP JUMPDEST DUP3 MSTORE POP POP JUMP JUMPDEST PUSH1 0x0 PUSH2 0x278 PUSH1 0x1A DUP4 PUSH2 0x34F JUMP JUMPDEST SWAP2 POP PUSH2 0x283 DUP3 PUSH2 0x489 JUMP JUMPDEST PUSH1 0x20 DUP3 ADD SWAP1 POP SWAP2 SWAP1 POP JUMP JUMPDEST PUSH1 0x0 PUSH2 0x29B PUSH1 0x17 DUP4 PUSH2 0x34F JUMP JUMPDEST SWAP2 POP PUSH2 0x2A6 DUP3 PUSH2 0x4B2 JUMP JUMPDEST PUSH1 0x20 DUP3 ADD SWAP1 POP SWAP2 SWAP1 POP JUMP JUMPDEST PUSH1 0x0 PUSH2 0x2BE PUSH1 0x1C DUP4 PUSH2 0x34F JUMP JUMPDEST SWAP2 POP PUSH2 0x2C9 DUP3 PUSH2 0x4DB JUMP JUMPDEST PUSH1 0x20 DUP3 ADD SWAP1 POP SWAP2 SWAP1 POP JUMP JUMPDEST PUSH1 0x0 PUSH1 0x20 DUP3 ADD SWAP1 POP PUSH2 0x2E9 PUSH1 0x0 DUP4 ADD DUP5 PUSH2 0x25C JUMP JUMPDEST SWAP3 SWAP2 POP POP JUMP JUMPDEST PUSH1 0x0 PUSH1 0x20 DUP3 ADD SWAP1 POP DUP2 DUP2 SUB PUSH1 0x0 DUP4 ADD MSTORE PUSH2 0x308 DUP2 PUSH2 0x26B JUMP JUMPDEST SWAP1 POP SWAP2 SWAP1 POP JUMP JUMPDEST PUSH1 0x0 PUSH1 0x20 DUP3 ADD SWAP1 POP DUP2 DUP2 SUB PUSH1 0x0 DUP4 ADD MSTORE PUSH2 0x328 DUP2 PUSH2 0x28E JUMP JUMPDEST SWAP1 POP SWAP2 SWAP1 POP JUMP JUMPDEST PUSH1 0x0 PUSH1 0x20 DUP3 ADD SWAP1 POP DUP2 DUP2 SUB PUSH1 0x0 DUP4 ADD MSTORE PUSH2 0x348 DUP2 PUSH2 0x2B1 JUMP JUMPDEST SWAP1 POP SWAP2 SWAP1 POP JUMP JUMPDEST PUSH1 0x0 DUP3 DUP3 MSTORE PUSH1 0x20 DUP3 ADD SWAP1 POP SWAP3 SWAP2 POP POP JUMP JUMPDEST PUSH1 0x0 PUSH2 0x36B DUP3 PUSH2 0x41C JUMP JUMPDEST SWAP2 POP PUSH2 0x376 DUP4 PUSH2 0x41C JUMP JUMPDEST SWAP3 POP DUP3 PUSH32 0xFFFFFFFFFFFFFFFFFFFFFFFFFFFFFFFFFFFFFFFFFFFFFFFFFFFFFFFFFFFFFFFF SUB DUP3 GT ISZERO PUSH2 0x3AB JUMPI PUSH2 0x3AA PUSH2 0x455 JUMP JUMPDEST JUMPDEST DUP3 DUP3 ADD SWAP1 POP SWAP3 SWAP2 POP POP JUMP JUMPDEST PUSH1 0x0 PUSH2 0x3C1 DUP3 PUSH2 0x41C JUMP JUMPDEST SWAP2 POP PUSH2 0x3CC DUP4 PUSH2 0x41C JUMP JUMPDEST SWAP3 POP DUP2 PUSH32 0xFFFFFFFFFFFFFFFFFFFFFFFFFFFFFFFFFFFFFFFFFFFFFFFFFFFFFFFFFFFFFFFF DIV DUP4 GT DUP3 ISZERO ISZERO AND ISZERO PUSH2 0x405 JUMPI PUSH2 0x404 PUSH2 0x455 JUMP JUMPDEST JUMPDEST DUP3 DUP3 MUL SWAP1 POP SWAP3 SWAP2 POP POP JUMP JUMPDEST PUSH1 0x0 DUP2 ISZERO ISZERO SWAP1 POP SWAP2 SWAP1 POP JUMP JUMPDEST PUSH1 0x0 DUP2 SWAP1 POP SWAP2 SWAP1 POP JUMP JUMPDEST PUSH32 0x4E487B7100000000000000000000000000000000000000000000000000000000 PUSH1 0x0 MSTORE PUSH1 0x1 PUSH1 0x4 MSTORE PUSH1 0x24 PUSH1 0x0 REVERT JUMPDEST PUSH32 0x4E487B7100000000000000000000000000000000000000000000000000000000 PUSH1 0x0 MSTORE PUSH1 0x11 PUSH1 0x4 MSTORE PUSH1 0x24 PUSH1 0x0 REVERT JUMPDEST PUSH1 0x0 DUP1 REVERT JUMPDEST PUSH32 0x312067776569206973206E6F7420657175616C20746F20316539000000000000 PUSH1 0x0 DUP3 ADD MSTORE POP JUMP JUMPDEST PUSH32 0x3120776569206973206E6F7420657175616C20746F2031000000000000000000 PUSH1 0x0 DUP3 ADD MSTORE POP JUMP JUMPDEST PUSH32 0x31206574686572206973206E6F7420657175616C20746F203165313800000000 PUSH1 0x0 DUP3 ADD MSTORE POP JUMP JUMPDEST PUSH2 0x50D DUP2 PUSH2 0x41C JUMP JUMPDEST DUP2 EQ PUSH2 0x518 JUMPI PUSH1 0x0 DUP1 REVERT JUMPDEST POP JUMP INVALID LOG2 PUSH5 0x6970667358 0x22 SLT KECCAK256 0xC9 CREATE2 0xAF PUSH31 0x97951B989664DEA1D6608560830D82D94386D16D5A113BCADF9E46AA64736F PUSH13 0x63430008070033000000000000 "
				},
				"gasEstimates": {
					"creation": {
						"codeDepositCost": "272200",
						"executionCost": "312",
						"totalCost": "272512"
					},
					"external": {
						"etherUnitExample()": "271",
						"timeUnitExample()": "259",
						"validate(uint256,uint256)": "infinite"
					}
				},
				"methodIdentifiers": {
					"etherUnitExample()": "97e82183",
					"timeUnitExample()": "24475f4c",
					"validate(uint256,uint256)": "19730b44"
				}
			},
			"storageLayout": {
				"storage": [],
				"types": null
			},
			"userdoc": {
				"kind": "user",
				"methods": {},
				"version": 1
			}
		}
	}
}