{
	"Ep4/example.sol": {
		"Example": {
			"abi": [
				{
					"inputs": [],
					"name": "TimeUnitExample",
					"outputs": [],
					"stateMutability": "nonpayable",
					"type": "function"
				}
			],
			"devdoc": {
				"kind": "dev",
				"methods": {},
				"version": 1
			},
			"evm": {
				"assembly": "    /* \"Ep4/example.sol\":60:451  contract Example {\r... */\n  mstore(0x40, 0x80)\n  callvalue\n  dup1\n  iszero\n  tag_1\n  jumpi\n  0x00\n  dup1\n  revert\ntag_1:\n  pop\n  dataSize(sub_0)\n  dup1\n  dataOffset(sub_0)\n  0x00\n  codecopy\n  0x00\n  return\nstop\n\nsub_0: assembly {\n        /* \"Ep4/example.sol\":60:451  contract Example {\r... */\n      mstore(0x40, 0x80)\n      callvalue\n      dup1\n      iszero\n      tag_1\n      jumpi\n      0x00\n      dup1\n      revert\n    tag_1:\n      pop\n      jumpi(tag_2, lt(calldatasize, 0x04))\n      shr(0xe0, calldataload(0x00))\n      dup1\n      0x9b92a9e8\n      eq\n      tag_3\n      jumpi\n    tag_2:\n      0x00\n      dup1\n      revert\n        /* \"Ep4/example.sol\":84:448  function TimeUnitExample() public {\r... */\n    tag_3:\n      tag_4\n      tag_5\n      jump\t// in\n    tag_4:\n      stop\n    tag_5:\n        /* \"Ep4/example.sol\":166:167  1 */\n      0x01\n        /* \"Ep4/example.sol\":153:162  1 seconds */\n      dup1\n        /* \"Ep4/example.sol\":153:167  1 seconds == 1 */\n      eq\n        /* \"Ep4/example.sol\":146:168  assert(1 seconds == 1) */\n      tag_7\n      jumpi\n      tag_8\n      tag_9\n      jump\t// in\n    tag_8:\n    tag_7:\n        /* \"Ep4/example.sol\":229:239  60 seconds */\n      0x3c\n        /* \"Ep4/example.sol\":216:225  1 minutes */\n      dup1\n        /* \"Ep4/example.sol\":216:239  1 minutes == 60 seconds */\n      eq\n        /* \"Ep4/example.sol\":209:240  assert(1 minutes == 60 seconds) */\n      tag_10\n      jumpi\n      tag_11\n      tag_9\n      jump\t// in\n    tag_11:\n    tag_10:\n        /* \"Ep4/example.sol\":302:312  60 minutes */\n      0x0e10\n        /* \"Ep4/example.sol\":291:298  1 hours */\n      dup1\n        /* \"Ep4/example.sol\":291:312  1 hours == 60 minutes */\n      eq\n        /* \"Ep4/example.sol\":284:313  assert(1 hours == 60 minutes) */\n      tag_12\n      jumpi\n      tag_13\n      tag_9\n      jump\t// in\n    tag_13:\n    tag_12:\n        /* \"Ep4/example.sol\":369:377  24 hours */\n      0x015180\n        /* \"Ep4/example.sol\":359:365  1 days */\n      dup1\n        /* \"Ep4/example.sol\":359:377  1 days == 24 hours */\n      eq\n        /* \"Ep4/example.sol\":352:378  assert(1 days == 24 hours) */\n      tag_14\n      jumpi\n      tag_15\n      tag_9\n      jump\t// in\n    tag_15:\n    tag_14:\n        /* \"Ep4/example.sol\":433:439  7 days */\n      0x093a80\n        /* \"Ep4/example.sol\":422:429  1 weeks */\n      dup1\n        /* \"Ep4/example.sol\":422:439  1 weeks == 7 days */\n      eq\n        /* \"Ep4/example.sol\":415:440  assert(1 weeks == 7 days) */\n      tag_16\n      jumpi\n      tag_17\n      tag_9\n      jump\t// in\n    tag_17:\n    tag_16:\n        /* \"Ep4/example.sol\":84:448  function TimeUnitExample() public {\r... */\n      jump\t// out\n        /* \"#utility.yul\":7:187   */\n    tag_9:\n        /* \"#utility.yul\":55:132   */\n      0x4e487b7100000000000000000000000000000000000000000000000000000000\n        /* \"#utility.yul\":52:53   */\n      0x00\n        /* \"#utility.yul\":45:133   */\n      mstore\n        /* \"#utility.yul\":152:156   */\n      0x01\n        /* \"#utility.yul\":149:150   */\n      0x04\n        /* \"#utility.yul\":142:157   */\n      mstore\n        /* \"#utility.yul\":176:180   */\n      0x24\n        /* \"#utility.yul\":173:174   */\n      0x00\n        /* \"#utility.yul\":166:181   */\n      revert\n\n    auxdata: 0xa26469706673582212208716bc5905aa98047055b589d6de943622de076eb3a023a9c9a804fe9459719f64736f6c63430008070033\n}\n",
				"bytecode": {
					"linkReferences": {},
					"object": "608060405234801561001057600080fd5b5060e78061001f6000396000f3fe6080604052348015600f57600080fd5b506004361060285760003560e01c80639b92a9e814602d575b600080fd5b60336035565b005b6001801460435760426082565b5b603c801460515760506082565b5b610e108014606057605f6082565b5b620151808014607057606f6082565b5b62093a808014608057607f6082565b5b565b7f4e487b7100000000000000000000000000000000000000000000000000000000600052600160045260246000fdfea26469706673582212208716bc5905aa98047055b589d6de943622de076eb3a023a9c9a804fe9459719f64736f6c63430008070033",
					"opcodes": "PUSH1 0x80 PUSH1 0x40 MSTORE CALLVALUE DUP1 ISZERO PUSH2 0x10 JUMPI PUSH1 0x0 DUP1 REVERT JUMPDEST POP PUSH1 0xE7 DUP1 PUSH2 0x1F PUSH1 0x0 CODECOPY PUSH1 0x0 RETURN INVALID PUSH1 0x80 PUSH1 0x40 MSTORE CALLVALUE DUP1 ISZERO PUSH1 0xF JUMPI PUSH1 0x0 DUP1 REVERT JUMPDEST POP PUSH1 0x4 CALLDATASIZE LT PUSH1 0x28 JUMPI PUSH1 0x0 CALLDATALOAD PUSH1 0xE0 SHR DUP1 PUSH4 0x9B92A9E8 EQ PUSH1 0x2D JUMPI JUMPDEST PUSH1 0x0 DUP1 REVERT JUMPDEST PUSH1 0x33 PUSH1 0x35 JUMP JUMPDEST STOP JUMPDEST PUSH1 0x1 DUP1 EQ PUSH1 0x43 JUMPI PUSH1 0x42 PUSH1 0x82 JUMP JUMPDEST JUMPDEST PUSH1 0x3C DUP1 EQ PUSH1 0x51 JUMPI PUSH1 0x50 PUSH1 0x82 JUMP JUMPDEST JUMPDEST PUSH2 0xE10 DUP1 EQ PUSH1 0x60 JUMPI PUSH1 0x5F PUSH1 0x82 JUMP JUMPDEST JUMPDEST PUSH3 0x15180 DUP1 EQ PUSH1 0x70 JUMPI PUSH1 0x6F PUSH1 0x82 JUMP JUMPDEST JUMPDEST PUSH3 0x93A80 DUP1 EQ PUSH1 0x80 JUMPI PUSH1 0x7F PUSH1 0x82 JUMP JUMPDEST JUMPDEST JUMP JUMPDEST PUSH32 0x4E487B7100000000000000000000000000000000000000000000000000000000 PUSH1 0x0 MSTORE PUSH1 0x1 PUSH1 0x4 MSTORE PUSH1 0x24 PUSH1 0x0 REVERT INVALID LOG2 PUSH5 0x6970667358 0x22 SLT KECCAK256 DUP8 AND 0xBC MSIZE SDIV 0xAA SWAP9 DIV PUSH17 0x55B589D6DE943622DE076EB3A023A9C9A8 DIV INVALID SWAP5 MSIZE PUSH18 0x9F64736F6C63430008070033000000000000 "
				},
				"gasEstimates": {
					"creation": {
						"codeDepositCost": "46200",
						"executionCost": "99",
						"totalCost": "46299"
					},
					"external": {
						"TimeUnitExample()": "237"
					}
				},
				"methodIdentifiers": {
					"TimeUnitExample()": "9b92a9e8"
				}
			},
			"storageLayout": {
				"storage": [],
				"types": null
			},
			"userdoc": {
				"kind": "user",
				"methods": {},
				"version": 1
			}
		}
	}
}