{
	"Ep4/example.sol": {
		"Example": {
			"abi": [
				{
					"inputs": [],
					"name": "etherUnitExample",
					"outputs": [],
					"stateMutability": "pure",
					"type": "function"
				},
				{
					"inputs": [
						{
							"internalType": "uint256",
							"name": "base",
							"type": "uint256"
						},
						{
							"internalType": "uint256",
							"name": "n",
							"type": "uint256"
						}
					],
					"name": "pow",
					"outputs": [
						{
							"internalType": "uint256",
							"name": "",
							"type": "uint256"
						}
					],
					"stateMutability": "pure",
					"type": "function"
				},
				{
					"inputs": [],
					"name": "timeUnitExample",
					"outputs": [],
					"stateMutability": "pure",
					"type": "function"
				},
				{
					"inputs": [
						{
							"internalType": "uint256",
							"name": "start",
							"type": "uint256"
						},
						{
							"internalType": "uint256",
							"name": "secondsAfter",
							"type": "uint256"
						}
					],
					"name": "validate",
					"outputs": [
						{
							"internalType": "bool",
							"name": "",
							"type": "bool"
						}
					],
					"stateMutability": "view",
					"type": "function"
				}
			],
			"devdoc": {
				"kind": "dev",
				"methods": {},
				"version": 1
			},
			"evm": {
				"assembly": "    /* \"Ep4/example.sol\":62:1683  contract Example {\r... */\n  mstore(0x40, 0x80)\n  callvalue\n  dup1\n  iszero\n  tag_1\n  jumpi\n  0x00\n  dup1\n  revert\ntag_1:\n  pop\n  dataSize(sub_0)\n  dup1\n  dataOffset(sub_0)\n  0x00\n  codecopy\n  0x00\n  return\nstop\n\nsub_0: assembly {\n        /* \"Ep4/example.sol\":62:1683  contract Example {\r... */\n      mstore(0x40, 0x80)\n      callvalue\n      dup1\n      iszero\n      tag_1\n      jumpi\n      0x00\n      dup1\n      revert\n    tag_1:\n      pop\n      jumpi(tag_2, lt(calldatasize, 0x04))\n      shr(0xe0, calldataload(0x00))\n      dup1\n      0x19730b44\n      eq\n      tag_3\n      jumpi\n      dup1\n      0x24475f4c\n      eq\n      tag_4\n      jumpi\n      dup1\n      0x2e4c697f\n      eq\n      tag_5\n      jumpi\n      dup1\n      0x97e82183\n      eq\n      tag_6\n      jumpi\n    tag_2:\n      0x00\n      dup1\n      revert\n        /* \"Ep4/example.sol\":1226:1680  function validate(uint start, uint secondsAfter) public view returns(bool) {\r... */\n    tag_3:\n      tag_7\n      0x04\n      dup1\n      calldatasize\n      sub\n      dup2\n      add\n      swap1\n      tag_8\n      swap2\n      swap1\n      tag_9\n      jump\t// in\n    tag_8:\n      tag_10\n      jump\t// in\n    tag_7:\n      mload(0x40)\n      tag_11\n      swap2\n      swap1\n      tag_12\n      jump\t// in\n    tag_11:\n      mload(0x40)\n      dup1\n      swap2\n      sub\n      swap1\n      return\n        /* \"Ep4/example.sol\":849:1218  function timeUnitExample() public pure {\r... */\n    tag_4:\n      tag_13\n      tag_14\n      jump\t// in\n    tag_13:\n      stop\n        /* \"Ep4/example.sol\":86:177  function pow(uint base, uint n) public pure returns(uint) {\r... */\n    tag_5:\n      tag_15\n      0x04\n      dup1\n      calldatasize\n      sub\n      dup2\n      add\n      swap1\n      tag_16\n      swap2\n      swap1\n      tag_9\n      jump\t// in\n    tag_16:\n      tag_17\n      jump\t// in\n    tag_15:\n      mload(0x40)\n      tag_18\n      swap2\n      swap1\n      tag_19\n      jump\t// in\n    tag_18:\n      mload(0x40)\n      dup1\n      swap2\n      sub\n      swap1\n      return\n        /* \"Ep4/example.sol\":185:841  function etherUnitExample() public pure {\r... */\n    tag_6:\n      tag_20\n      tag_21\n      jump\t// in\n    tag_20:\n      stop\n        /* \"Ep4/example.sol\":1226:1680  function validate(uint start, uint secondsAfter) public view returns(bool) {\r... */\n    tag_10:\n        /* \"Ep4/example.sol\":1295:1299  bool */\n      0x00\n        /* \"Ep4/example.sol\":1312:1328  bool isValidated */\n      dup1\n        /* \"Ep4/example.sol\":1331:1336  false */\n      0x00\n        /* \"Ep4/example.sol\":1312:1336  bool isValidated = false */\n      swap1\n      pop\n        /* \"Ep4/example.sol\":1578:1587  3 seconds */\n      0x03\n        /* \"Ep4/example.sol\":1563:1575  secondsAfter */\n      dup4\n        /* \"Ep4/example.sol\":1563:1587  secondsAfter * 3 seconds */\n      tag_23\n      swap2\n      swap1\n      tag_24\n      jump\t// in\n    tag_23:\n        /* \"Ep4/example.sol\":1555:1560  start */\n      dup5\n        /* \"Ep4/example.sol\":1555:1587  start + secondsAfter * 3 seconds */\n      tag_25\n      swap2\n      swap1\n      tag_26\n      jump\t// in\n    tag_25:\n        /* \"Ep4/example.sol\":1536:1551  block.timestamp */\n      timestamp\n        /* \"Ep4/example.sol\":1536:1587  block.timestamp >= start + secondsAfter * 3 seconds */\n      lt\n        /* \"Ep4/example.sol\":1532:1634  if (block.timestamp >= start + secondsAfter * 3 seconds) {\r... */\n      tag_27\n      jumpi\n        /* \"Ep4/example.sol\":1618:1622  true */\n      0x01\n        /* \"Ep4/example.sol\":1604:1622  isValidated = true */\n      swap1\n      pop\n        /* \"Ep4/example.sol\":1532:1634  if (block.timestamp >= start + secondsAfter * 3 seconds) {\r... */\n    tag_27:\n        /* \"Ep4/example.sol\":1661:1672  isValidated */\n      dup1\n        /* \"Ep4/example.sol\":1654:1672  return isValidated */\n      swap2\n      pop\n      pop\n        /* \"Ep4/example.sol\":1226:1680  function validate(uint start, uint secondsAfter) public view returns(bool) {\r... */\n      swap3\n      swap2\n      pop\n      pop\n      jump\t// out\n        /* \"Ep4/example.sol\":849:1218  function timeUnitExample() public pure {\r... */\n    tag_14:\n        /* \"Ep4/example.sol\":936:937  1 */\n      0x01\n        /* \"Ep4/example.sol\":923:932  1 seconds */\n      dup1\n        /* \"Ep4/example.sol\":923:937  1 seconds == 1 */\n      eq\n        /* \"Ep4/example.sol\":916:938  assert(1 seconds == 1) */\n      tag_29\n      jumpi\n      tag_30\n      tag_31\n      jump\t// in\n    tag_30:\n    tag_29:\n        /* \"Ep4/example.sol\":999:1009  60 seconds */\n      0x3c\n        /* \"Ep4/example.sol\":986:995  1 minutes */\n      dup1\n        /* \"Ep4/example.sol\":986:1009  1 minutes == 60 seconds */\n      eq\n        /* \"Ep4/example.sol\":979:1010  assert(1 minutes == 60 seconds) */\n      tag_32\n      jumpi\n      tag_33\n      tag_31\n      jump\t// in\n    tag_33:\n    tag_32:\n        /* \"Ep4/example.sol\":1072:1082  60 minutes */\n      0x0e10\n        /* \"Ep4/example.sol\":1061:1068  1 hours */\n      dup1\n        /* \"Ep4/example.sol\":1061:1082  1 hours == 60 minutes */\n      eq\n        /* \"Ep4/example.sol\":1054:1083  assert(1 hours == 60 minutes) */\n      tag_34\n      jumpi\n      tag_35\n      tag_31\n      jump\t// in\n    tag_35:\n    tag_34:\n        /* \"Ep4/example.sol\":1139:1147  24 hours */\n      0x015180\n        /* \"Ep4/example.sol\":1129:1135  1 days */\n      dup1\n        /* \"Ep4/example.sol\":1129:1147  1 days == 24 hours */\n      eq\n        /* \"Ep4/example.sol\":1122:1148  assert(1 days == 24 hours) */\n      tag_36\n      jumpi\n      tag_37\n      tag_31\n      jump\t// in\n    tag_37:\n    tag_36:\n        /* \"Ep4/example.sol\":1203:1209  7 days */\n      0x093a80\n        /* \"Ep4/example.sol\":1192:1199  1 weeks */\n      dup1\n        /* \"Ep4/example.sol\":1192:1209  1 weeks == 7 days */\n      eq\n        /* \"Ep4/example.sol\":1185:1210  assert(1 weeks == 7 days) */\n      tag_38\n      jumpi\n      tag_39\n      tag_31\n      jump\t// in\n    tag_39:\n    tag_38:\n        /* \"Ep4/example.sol\":849:1218  function timeUnitExample() public pure {\r... */\n      jump\t// out\n        /* \"Ep4/example.sol\":86:177  function pow(uint base, uint n) public pure returns(uint) {\r... */\n    tag_17:\n        /* \"Ep4/example.sol\":138:142  uint */\n      0x00\n        /* \"Ep4/example.sol\":168:169  n */\n      dup2\n        /* \"Ep4/example.sol\":162:166  base */\n      dup4\n        /* \"Ep4/example.sol\":162:169  base**n */\n      tag_41\n      swap2\n      swap1\n      tag_42\n      jump\t// in\n    tag_41:\n        /* \"Ep4/example.sol\":155:169  return base**n */\n      swap1\n      pop\n        /* \"Ep4/example.sol\":86:177  function pow(uint base, uint n) public pure returns(uint) {\r... */\n      swap3\n      swap2\n      pop\n      pop\n      jump\t// out\n        /* \"Ep4/example.sol\":185:841  function etherUnitExample() public pure {\r... */\n    tag_21:\n        /* \"Ep4/example.sol\":283:294  uint oneWei */\n      0x00\n        /* \"Ep4/example.sol\":297:302  1 wei */\n      0x01\n        /* \"Ep4/example.sol\":283:302  uint oneWei = 1 wei */\n      swap1\n      pop\n        /* \"Ep4/example.sol\":341:342  1 */\n      0x01\n        /* \"Ep4/example.sol\":331:337  oneWei */\n      dup2\n        /* \"Ep4/example.sol\":331:342  oneWei == 1 */\n      eq\n        /* \"Ep4/example.sol\":323:370  require(oneWei == 1, \"1 wei is not equal to 1\") */\n      tag_44\n      jumpi\n      mload(0x40)\n      0x08c379a000000000000000000000000000000000000000000000000000000000\n      dup2\n      mstore\n      0x04\n      add\n      tag_45\n      swap1\n      tag_46\n      jump\t// in\n    tag_45:\n      mload(0x40)\n      dup1\n      swap2\n      sub\n      swap1\n      revert\n    tag_44:\n        /* \"Ep4/example.sol\":423:435  uint oneGWei */\n      0x00\n        /* \"Ep4/example.sol\":438:444  1 gwei */\n      0x3b9aca00\n        /* \"Ep4/example.sol\":423:444  uint oneGWei = 1 gwei */\n      swap1\n      pop\n        /* \"Ep4/example.sol\":474:477  1e9 */\n      0x3b9aca00\n        /* \"Ep4/example.sol\":463:470  oneGWei */\n      dup2\n        /* \"Ep4/example.sol\":463:477  oneGWei == 1e9 */\n      eq\n        /* \"Ep4/example.sol\":455:508  require(oneGWei == 1e9, \"1 gwei is not equal to 1e9\") */\n      tag_47\n      jumpi\n      mload(0x40)\n      0x08c379a000000000000000000000000000000000000000000000000000000000\n      dup2\n      mstore\n      0x04\n      add\n      tag_48\n      swap1\n      tag_49\n      jump\t// in\n    tag_48:\n      mload(0x40)\n      dup1\n      swap2\n      sub\n      swap1\n      revert\n    tag_47:\n        /* \"Ep4/example.sol\":538:548  pow(10, 9) */\n      tag_50\n        /* \"Ep4/example.sol\":542:544  10 */\n      0x0a\n        /* \"Ep4/example.sol\":546:547  9 */\n      0x09\n        /* \"Ep4/example.sol\":538:541  pow */\n      tag_17\n        /* \"Ep4/example.sol\":538:548  pow(10, 9) */\n      jump\t// in\n    tag_50:\n        /* \"Ep4/example.sol\":527:534  oneGWei */\n      dup2\n        /* \"Ep4/example.sol\":527:548  oneGWei == pow(10, 9) */\n      eq\n        /* \"Ep4/example.sol\":519:549  require(oneGWei == pow(10, 9)) */\n      tag_51\n      jumpi\n      0x00\n      dup1\n      revert\n    tag_51:\n        /* \"Ep4/example.sol\":604:617  uint oneEther */\n      0x00\n        /* \"Ep4/example.sol\":620:627  1 ether */\n      0x0de0b6b3a7640000\n        /* \"Ep4/example.sol\":604:627  uint oneEther = 1 ether */\n      swap1\n      pop\n        /* \"Ep4/example.sol\":658:662  1e18 */\n      0x0de0b6b3a7640000\n        /* \"Ep4/example.sol\":646:654  oneEther */\n      dup2\n        /* \"Ep4/example.sol\":646:662  oneEther == 1e18 */\n      eq\n        /* \"Ep4/example.sol\":638:695  require(oneEther == 1e18, \"1 ether is not equal to 1e18\") */\n      tag_52\n      jumpi\n      mload(0x40)\n      0x08c379a000000000000000000000000000000000000000000000000000000000\n      dup2\n      mstore\n      0x04\n      add\n      tag_53\n      swap1\n      tag_54\n      jump\t// in\n    tag_53:\n      mload(0x40)\n      dup1\n      swap2\n      sub\n      swap1\n      revert\n    tag_52:\n        /* \"Ep4/example.sol\":726:737  pow(10, 18) */\n      tag_55\n        /* \"Ep4/example.sol\":730:732  10 */\n      0x0a\n        /* \"Ep4/example.sol\":734:736  18 */\n      0x12\n        /* \"Ep4/example.sol\":726:729  pow */\n      tag_17\n        /* \"Ep4/example.sol\":726:737  pow(10, 18) */\n      jump\t// in\n    tag_55:\n        /* \"Ep4/example.sol\":714:722  oneEther */\n      dup2\n        /* \"Ep4/example.sol\":714:737  oneEther == pow(10, 18) */\n      eq\n        /* \"Ep4/example.sol\":706:738  require(oneEther == pow(10, 18)) */\n      tag_56\n      jumpi\n      0x00\n      dup1\n      revert\n    tag_56:\n        /* \"Ep4/example.sol\":782:789  oneGWei */\n      dup2\n        /* \"Ep4/example.sol\":769:779  1000000000 */\n      0x3b9aca00\n        /* \"Ep4/example.sol\":769:789  1000000000 * oneGWei */\n      tag_57\n      swap2\n      swap1\n      tag_24\n      jump\t// in\n    tag_57:\n        /* \"Ep4/example.sol\":757:765  oneEther */\n      dup2\n        /* \"Ep4/example.sol\":757:789  oneEther == 1000000000 * oneGWei */\n      eq\n        /* \"Ep4/example.sol\":749:833  require(oneEther == 1000000000 * oneGWei, \"1 ether is not equal to 1000000000 gwei\") */\n      tag_58\n      jumpi\n      mload(0x40)\n      0x08c379a000000000000000000000000000000000000000000000000000000000\n      dup2\n      mstore\n      0x04\n      add\n      tag_59\n      swap1\n      tag_60\n      jump\t// in\n    tag_59:\n      mload(0x40)\n      dup1\n      swap2\n      sub\n      swap1\n      revert\n    tag_58:\n        /* \"Ep4/example.sol\":225:841  {\r... */\n      pop\n      pop\n      pop\n        /* \"Ep4/example.sol\":185:841  function etherUnitExample() public pure {\r... */\n      jump\t// out\n        /* \"#utility.yul\":7:146   */\n    tag_62:\n        /* \"#utility.yul\":53:58   */\n      0x00\n        /* \"#utility.yul\":91:97   */\n      dup2\n        /* \"#utility.yul\":78:98   */\n      calldataload\n        /* \"#utility.yul\":69:98   */\n      swap1\n      pop\n        /* \"#utility.yul\":107:140   */\n      tag_64\n        /* \"#utility.yul\":134:139   */\n      dup2\n        /* \"#utility.yul\":107:140   */\n      tag_65\n      jump\t// in\n    tag_64:\n        /* \"#utility.yul\":7:146   */\n      swap3\n      swap2\n      pop\n      pop\n      jump\t// out\n        /* \"#utility.yul\":152:626   */\n    tag_9:\n        /* \"#utility.yul\":220:226   */\n      0x00\n        /* \"#utility.yul\":228:234   */\n      dup1\n        /* \"#utility.yul\":277:279   */\n      0x40\n        /* \"#utility.yul\":265:274   */\n      dup4\n        /* \"#utility.yul\":256:263   */\n      dup6\n        /* \"#utility.yul\":252:275   */\n      sub\n        /* \"#utility.yul\":248:280   */\n      slt\n        /* \"#utility.yul\":245:364   */\n      iszero\n      tag_67\n      jumpi\n        /* \"#utility.yul\":283:362   */\n      tag_68\n      tag_69\n      jump\t// in\n    tag_68:\n        /* \"#utility.yul\":245:364   */\n    tag_67:\n        /* \"#utility.yul\":403:404   */\n      0x00\n        /* \"#utility.yul\":428:481   */\n      tag_70\n        /* \"#utility.yul\":473:480   */\n      dup6\n        /* \"#utility.yul\":464:470   */\n      dup3\n        /* \"#utility.yul\":453:462   */\n      dup7\n        /* \"#utility.yul\":449:471   */\n      add\n        /* \"#utility.yul\":428:481   */\n      tag_62\n      jump\t// in\n    tag_70:\n        /* \"#utility.yul\":418:481   */\n      swap3\n      pop\n        /* \"#utility.yul\":374:491   */\n      pop\n        /* \"#utility.yul\":530:532   */\n      0x20\n        /* \"#utility.yul\":556:609   */\n      tag_71\n        /* \"#utility.yul\":601:608   */\n      dup6\n        /* \"#utility.yul\":592:598   */\n      dup3\n        /* \"#utility.yul\":581:590   */\n      dup7\n        /* \"#utility.yul\":577:599   */\n      add\n        /* \"#utility.yul\":556:609   */\n      tag_62\n      jump\t// in\n    tag_71:\n        /* \"#utility.yul\":546:609   */\n      swap2\n      pop\n        /* \"#utility.yul\":501:619   */\n      pop\n        /* \"#utility.yul\":152:626   */\n      swap3\n      pop\n      swap3\n      swap1\n      pop\n      jump\t// out\n        /* \"#utility.yul\":632:741   */\n    tag_72:\n        /* \"#utility.yul\":713:734   */\n      tag_74\n        /* \"#utility.yul\":728:733   */\n      dup2\n        /* \"#utility.yul\":713:734   */\n      tag_75\n      jump\t// in\n    tag_74:\n        /* \"#utility.yul\":708:711   */\n      dup3\n        /* \"#utility.yul\":701:735   */\n      mstore\n        /* \"#utility.yul\":632:741   */\n      pop\n      pop\n      jump\t// out\n        /* \"#utility.yul\":747:1113   */\n    tag_76:\n        /* \"#utility.yul\":889:892   */\n      0x00\n        /* \"#utility.yul\":910:977   */\n      tag_78\n        /* \"#utility.yul\":974:976   */\n      0x1a\n        /* \"#utility.yul\":969:972   */\n      dup4\n        /* \"#utility.yul\":910:977   */\n      tag_79\n      jump\t// in\n    tag_78:\n        /* \"#utility.yul\":903:977   */\n      swap2\n      pop\n        /* \"#utility.yul\":986:1079   */\n      tag_80\n        /* \"#utility.yul\":1075:1078   */\n      dup3\n        /* \"#utility.yul\":986:1079   */\n      tag_81\n      jump\t// in\n    tag_80:\n        /* \"#utility.yul\":1104:1106   */\n      0x20\n        /* \"#utility.yul\":1099:1102   */\n      dup3\n        /* \"#utility.yul\":1095:1107   */\n      add\n        /* \"#utility.yul\":1088:1107   */\n      swap1\n      pop\n        /* \"#utility.yul\":747:1113   */\n      swap2\n      swap1\n      pop\n      jump\t// out\n        /* \"#utility.yul\":1119:1485   */\n    tag_82:\n        /* \"#utility.yul\":1261:1264   */\n      0x00\n        /* \"#utility.yul\":1282:1349   */\n      tag_84\n        /* \"#utility.yul\":1346:1348   */\n      0x27\n        /* \"#utility.yul\":1341:1344   */\n      dup4\n        /* \"#utility.yul\":1282:1349   */\n      tag_79\n      jump\t// in\n    tag_84:\n        /* \"#utility.yul\":1275:1349   */\n      swap2\n      pop\n        /* \"#utility.yul\":1358:1451   */\n      tag_85\n        /* \"#utility.yul\":1447:1450   */\n      dup3\n        /* \"#utility.yul\":1358:1451   */\n      tag_86\n      jump\t// in\n    tag_85:\n        /* \"#utility.yul\":1476:1478   */\n      0x40\n        /* \"#utility.yul\":1471:1474   */\n      dup3\n        /* \"#utility.yul\":1467:1479   */\n      add\n        /* \"#utility.yul\":1460:1479   */\n      swap1\n      pop\n        /* \"#utility.yul\":1119:1485   */\n      swap2\n      swap1\n      pop\n      jump\t// out\n        /* \"#utility.yul\":1491:1857   */\n    tag_87:\n        /* \"#utility.yul\":1633:1636   */\n      0x00\n        /* \"#utility.yul\":1654:1721   */\n      tag_89\n        /* \"#utility.yul\":1718:1720   */\n      0x17\n        /* \"#utility.yul\":1713:1716   */\n      dup4\n        /* \"#utility.yul\":1654:1721   */\n      tag_79\n      jump\t// in\n    tag_89:\n        /* \"#utility.yul\":1647:1721   */\n      swap2\n      pop\n        /* \"#utility.yul\":1730:1823   */\n      tag_90\n        /* \"#utility.yul\":1819:1822   */\n      dup3\n        /* \"#utility.yul\":1730:1823   */\n      tag_91\n      jump\t// in\n    tag_90:\n        /* \"#utility.yul\":1848:1850   */\n      0x20\n        /* \"#utility.yul\":1843:1846   */\n      dup3\n        /* \"#utility.yul\":1839:1851   */\n      add\n        /* \"#utility.yul\":1832:1851   */\n      swap1\n      pop\n        /* \"#utility.yul\":1491:1857   */\n      swap2\n      swap1\n      pop\n      jump\t// out\n        /* \"#utility.yul\":1863:2229   */\n    tag_92:\n        /* \"#utility.yul\":2005:2008   */\n      0x00\n        /* \"#utility.yul\":2026:2093   */\n      tag_94\n        /* \"#utility.yul\":2090:2092   */\n      0x1c\n        /* \"#utility.yul\":2085:2088   */\n      dup4\n        /* \"#utility.yul\":2026:2093   */\n      tag_79\n      jump\t// in\n    tag_94:\n        /* \"#utility.yul\":2019:2093   */\n      swap2\n      pop\n        /* \"#utility.yul\":2102:2195   */\n      tag_95\n        /* \"#utility.yul\":2191:2194   */\n      dup3\n        /* \"#utility.yul\":2102:2195   */\n      tag_96\n      jump\t// in\n    tag_95:\n        /* \"#utility.yul\":2220:2222   */\n      0x20\n        /* \"#utility.yul\":2215:2218   */\n      dup3\n        /* \"#utility.yul\":2211:2223   */\n      add\n        /* \"#utility.yul\":2204:2223   */\n      swap1\n      pop\n        /* \"#utility.yul\":1863:2229   */\n      swap2\n      swap1\n      pop\n      jump\t// out\n        /* \"#utility.yul\":2235:2353   */\n    tag_97:\n        /* \"#utility.yul\":2322:2346   */\n      tag_99\n        /* \"#utility.yul\":2340:2345   */\n      dup2\n        /* \"#utility.yul\":2322:2346   */\n      tag_100\n      jump\t// in\n    tag_99:\n        /* \"#utility.yul\":2317:2320   */\n      dup3\n        /* \"#utility.yul\":2310:2347   */\n      mstore\n        /* \"#utility.yul\":2235:2353   */\n      pop\n      pop\n      jump\t// out\n        /* \"#utility.yul\":2359:2569   */\n    tag_12:\n        /* \"#utility.yul\":2446:2450   */\n      0x00\n        /* \"#utility.yul\":2484:2486   */\n      0x20\n        /* \"#utility.yul\":2473:2482   */\n      dup3\n        /* \"#utility.yul\":2469:2487   */\n      add\n        /* \"#utility.yul\":2461:2487   */\n      swap1\n      pop\n        /* \"#utility.yul\":2497:2562   */\n      tag_102\n        /* \"#utility.yul\":2559:2560   */\n      0x00\n        /* \"#utility.yul\":2548:2557   */\n      dup4\n        /* \"#utility.yul\":2544:2561   */\n      add\n        /* \"#utility.yul\":2535:2541   */\n      dup5\n        /* \"#utility.yul\":2497:2562   */\n      tag_72\n      jump\t// in\n    tag_102:\n        /* \"#utility.yul\":2359:2569   */\n      swap3\n      swap2\n      pop\n      pop\n      jump\t// out\n        /* \"#utility.yul\":2575:2994   */\n    tag_49:\n        /* \"#utility.yul\":2741:2745   */\n      0x00\n        /* \"#utility.yul\":2779:2781   */\n      0x20\n        /* \"#utility.yul\":2768:2777   */\n      dup3\n        /* \"#utility.yul\":2764:2782   */\n      add\n        /* \"#utility.yul\":2756:2782   */\n      swap1\n      pop\n        /* \"#utility.yul\":2828:2837   */\n      dup2\n        /* \"#utility.yul\":2822:2826   */\n      dup2\n        /* \"#utility.yul\":2818:2838   */\n      sub\n        /* \"#utility.yul\":2814:2815   */\n      0x00\n        /* \"#utility.yul\":2803:2812   */\n      dup4\n        /* \"#utility.yul\":2799:2816   */\n      add\n        /* \"#utility.yul\":2792:2839   */\n      mstore\n        /* \"#utility.yul\":2856:2987   */\n      tag_104\n        /* \"#utility.yul\":2982:2986   */\n      dup2\n        /* \"#utility.yul\":2856:2987   */\n      tag_76\n      jump\t// in\n    tag_104:\n        /* \"#utility.yul\":2848:2987   */\n      swap1\n      pop\n        /* \"#utility.yul\":2575:2994   */\n      swap2\n      swap1\n      pop\n      jump\t// out\n        /* \"#utility.yul\":3000:3419   */\n    tag_60:\n        /* \"#utility.yul\":3166:3170   */\n      0x00\n        /* \"#utility.yul\":3204:3206   */\n      0x20\n        /* \"#utility.yul\":3193:3202   */\n      dup3\n        /* \"#utility.yul\":3189:3207   */\n      add\n        /* \"#utility.yul\":3181:3207   */\n      swap1\n      pop\n        /* \"#utility.yul\":3253:3262   */\n      dup2\n        /* \"#utility.yul\":3247:3251   */\n      dup2\n        /* \"#utility.yul\":3243:3263   */\n      sub\n        /* \"#utility.yul\":3239:3240   */\n      0x00\n        /* \"#utility.yul\":3228:3237   */\n      dup4\n        /* \"#utility.yul\":3224:3241   */\n      add\n        /* \"#utility.yul\":3217:3264   */\n      mstore\n        /* \"#utility.yul\":3281:3412   */\n      tag_106\n        /* \"#utility.yul\":3407:3411   */\n      dup2\n        /* \"#utility.yul\":3281:3412   */\n      tag_82\n      jump\t// in\n    tag_106:\n        /* \"#utility.yul\":3273:3412   */\n      swap1\n      pop\n        /* \"#utility.yul\":3000:3419   */\n      swap2\n      swap1\n      pop\n      jump\t// out\n        /* \"#utility.yul\":3425:3844   */\n    tag_46:\n        /* \"#utility.yul\":3591:3595   */\n      0x00\n        /* \"#utility.yul\":3629:3631   */\n      0x20\n        /* \"#utility.yul\":3618:3627   */\n      dup3\n        /* \"#utility.yul\":3614:3632   */\n      add\n        /* \"#utility.yul\":3606:3632   */\n      swap1\n      pop\n        /* \"#utility.yul\":3678:3687   */\n      dup2\n        /* \"#utility.yul\":3672:3676   */\n      dup2\n        /* \"#utility.yul\":3668:3688   */\n      sub\n        /* \"#utility.yul\":3664:3665   */\n      0x00\n        /* \"#utility.yul\":3653:3662   */\n      dup4\n        /* \"#utility.yul\":3649:3666   */\n      add\n        /* \"#utility.yul\":3642:3689   */\n      mstore\n        /* \"#utility.yul\":3706:3837   */\n      tag_108\n        /* \"#utility.yul\":3832:3836   */\n      dup2\n        /* \"#utility.yul\":3706:3837   */\n      tag_87\n      jump\t// in\n    tag_108:\n        /* \"#utility.yul\":3698:3837   */\n      swap1\n      pop\n        /* \"#utility.yul\":3425:3844   */\n      swap2\n      swap1\n      pop\n      jump\t// out\n        /* \"#utility.yul\":3850:4269   */\n    tag_54:\n        /* \"#utility.yul\":4016:4020   */\n      0x00\n        /* \"#utility.yul\":4054:4056   */\n      0x20\n        /* \"#utility.yul\":4043:4052   */\n      dup3\n        /* \"#utility.yul\":4039:4057   */\n      add\n        /* \"#utility.yul\":4031:4057   */\n      swap1\n      pop\n        /* \"#utility.yul\":4103:4112   */\n      dup2\n        /* \"#utility.yul\":4097:4101   */\n      dup2\n        /* \"#utility.yul\":4093:4113   */\n      sub\n        /* \"#utility.yul\":4089:4090   */\n      0x00\n        /* \"#utility.yul\":4078:4087   */\n      dup4\n        /* \"#utility.yul\":4074:4091   */\n      add\n        /* \"#utility.yul\":4067:4114   */\n      mstore\n        /* \"#utility.yul\":4131:4262   */\n      tag_110\n        /* \"#utility.yul\":4257:4261   */\n      dup2\n        /* \"#utility.yul\":4131:4262   */\n      tag_92\n      jump\t// in\n    tag_110:\n        /* \"#utility.yul\":4123:4262   */\n      swap1\n      pop\n        /* \"#utility.yul\":3850:4269   */\n      swap2\n      swap1\n      pop\n      jump\t// out\n        /* \"#utility.yul\":4275:4497   */\n    tag_19:\n        /* \"#utility.yul\":4368:4372   */\n      0x00\n        /* \"#utility.yul\":4406:4408   */\n      0x20\n        /* \"#utility.yul\":4395:4404   */\n      dup3\n        /* \"#utility.yul\":4391:4409   */\n      add\n        /* \"#utility.yul\":4383:4409   */\n      swap1\n      pop\n        /* \"#utility.yul\":4419:4490   */\n      tag_112\n        /* \"#utility.yul\":4487:4488   */\n      0x00\n        /* \"#utility.yul\":4476:4485   */\n      dup4\n        /* \"#utility.yul\":4472:4489   */\n      add\n        /* \"#utility.yul\":4463:4469   */\n      dup5\n        /* \"#utility.yul\":4419:4490   */\n      tag_97\n      jump\t// in\n    tag_112:\n        /* \"#utility.yul\":4275:4497   */\n      swap3\n      swap2\n      pop\n      pop\n      jump\t// out\n        /* \"#utility.yul\":4584:4753   */\n    tag_79:\n        /* \"#utility.yul\":4668:4679   */\n      0x00\n        /* \"#utility.yul\":4702:4708   */\n      dup3\n        /* \"#utility.yul\":4697:4700   */\n      dup3\n        /* \"#utility.yul\":4690:4709   */\n      mstore\n        /* \"#utility.yul\":4742:4746   */\n      0x20\n        /* \"#utility.yul\":4737:4740   */\n      dup3\n        /* \"#utility.yul\":4733:4747   */\n      add\n        /* \"#utility.yul\":4718:4747   */\n      swap1\n      pop\n        /* \"#utility.yul\":4584:4753   */\n      swap3\n      swap2\n      pop\n      pop\n      jump\t// out\n        /* \"#utility.yul\":4759:5064   */\n    tag_26:\n        /* \"#utility.yul\":4799:4802   */\n      0x00\n        /* \"#utility.yul\":4818:4838   */\n      tag_117\n        /* \"#utility.yul\":4836:4837   */\n      dup3\n        /* \"#utility.yul\":4818:4838   */\n      tag_100\n      jump\t// in\n    tag_117:\n        /* \"#utility.yul\":4813:4838   */\n      swap2\n      pop\n        /* \"#utility.yul\":4852:4872   */\n      tag_118\n        /* \"#utility.yul\":4870:4871   */\n      dup4\n        /* \"#utility.yul\":4852:4872   */\n      tag_100\n      jump\t// in\n    tag_118:\n        /* \"#utility.yul\":4847:4872   */\n      swap3\n      pop\n        /* \"#utility.yul\":5006:5007   */\n      dup3\n        /* \"#utility.yul\":4938:5004   */\n      0xffffffffffffffffffffffffffffffffffffffffffffffffffffffffffffffff\n        /* \"#utility.yul\":4934:5008   */\n      sub\n        /* \"#utility.yul\":4931:4932   */\n      dup3\n        /* \"#utility.yul\":4928:5009   */\n      gt\n        /* \"#utility.yul\":4925:5032   */\n      iszero\n      tag_119\n      jumpi\n        /* \"#utility.yul\":5012:5030   */\n      tag_120\n      tag_121\n      jump\t// in\n    tag_120:\n        /* \"#utility.yul\":4925:5032   */\n    tag_119:\n        /* \"#utility.yul\":5056:5057   */\n      dup3\n        /* \"#utility.yul\":5053:5054   */\n      dup3\n        /* \"#utility.yul\":5049:5058   */\n      add\n        /* \"#utility.yul\":5042:5058   */\n      swap1\n      pop\n        /* \"#utility.yul\":4759:5064   */\n      swap3\n      swap2\n      pop\n      pop\n      jump\t// out\n        /* \"#utility.yul\":5070:5918   */\n    tag_122:\n        /* \"#utility.yul\":5131:5136   */\n      0x00\n        /* \"#utility.yul\":5138:5142   */\n      dup1\n        /* \"#utility.yul\":5162:5168   */\n      dup3\n        /* \"#utility.yul\":5153:5168   */\n      swap2\n      pop\n        /* \"#utility.yul\":5186:5191   */\n      dup4\n        /* \"#utility.yul\":5177:5191   */\n      swap1\n      pop\n        /* \"#utility.yul\":5200:5912   */\n    tag_124:\n        /* \"#utility.yul\":5221:5222   */\n      0x01\n        /* \"#utility.yul\":5211:5219   */\n      dup6\n        /* \"#utility.yul\":5208:5223   */\n      gt\n        /* \"#utility.yul\":5200:5912   */\n      iszero\n      tag_126\n      jumpi\n        /* \"#utility.yul\":5316:5320   */\n      dup1\n        /* \"#utility.yul\":5311:5314   */\n      dup7\n        /* \"#utility.yul\":5307:5321   */\n      div\n        /* \"#utility.yul\":5301:5305   */\n      dup2\n        /* \"#utility.yul\":5298:5322   */\n      gt\n        /* \"#utility.yul\":5295:5345   */\n      iszero\n      tag_127\n      jumpi\n        /* \"#utility.yul\":5325:5343   */\n      tag_128\n      tag_121\n      jump\t// in\n    tag_128:\n        /* \"#utility.yul\":5295:5345   */\n    tag_127:\n        /* \"#utility.yul\":5375:5376   */\n      0x01\n        /* \"#utility.yul\":5365:5373   */\n      dup6\n        /* \"#utility.yul\":5361:5377   */\n      and\n        /* \"#utility.yul\":5358:5809   */\n      iszero\n      tag_129\n      jumpi\n        /* \"#utility.yul\":5790:5794   */\n      dup1\n        /* \"#utility.yul\":5783:5788   */\n      dup3\n        /* \"#utility.yul\":5779:5795   */\n      mul\n        /* \"#utility.yul\":5770:5795   */\n      swap2\n      pop\n        /* \"#utility.yul\":5358:5809   */\n    tag_129:\n        /* \"#utility.yul\":5840:5844   */\n      dup1\n        /* \"#utility.yul\":5834:5838   */\n      dup2\n        /* \"#utility.yul\":5830:5845   */\n      mul\n        /* \"#utility.yul\":5822:5845   */\n      swap1\n      pop\n        /* \"#utility.yul\":5870:5902   */\n      tag_130\n        /* \"#utility.yul\":5893:5901   */\n      dup6\n        /* \"#utility.yul\":5870:5902   */\n      tag_131\n      jump\t// in\n    tag_130:\n        /* \"#utility.yul\":5858:5902   */\n      swap5\n      pop\n        /* \"#utility.yul\":5200:5912   */\n      jump(tag_124)\n    tag_126:\n        /* \"#utility.yul\":5070:5918   */\n      swap5\n      pop\n      swap5\n      swap3\n      pop\n      pop\n      pop\n      jump\t// out\n        /* \"#utility.yul\":5924:6209   */\n    tag_42:\n        /* \"#utility.yul\":5984:5989   */\n      0x00\n        /* \"#utility.yul\":6008:6031   */\n      tag_133\n        /* \"#utility.yul\":6026:6030   */\n      dup3\n        /* \"#utility.yul\":6008:6031   */\n      tag_100\n      jump\t// in\n    tag_133:\n        /* \"#utility.yul\":6000:6031   */\n      swap2\n      pop\n        /* \"#utility.yul\":6052:6079   */\n      tag_134\n        /* \"#utility.yul\":6070:6078   */\n      dup4\n        /* \"#utility.yul\":6052:6079   */\n      tag_100\n      jump\t// in\n    tag_134:\n        /* \"#utility.yul\":6040:6079   */\n      swap3\n      pop\n        /* \"#utility.yul\":6098:6202   */\n      tag_135\n        /* \"#utility.yul\":6135:6201   */\n      0xffffffffffffffffffffffffffffffffffffffffffffffffffffffffffffffff\n        /* \"#utility.yul\":6125:6133   */\n      dup5\n        /* \"#utility.yul\":6119:6123   */\n      dup5\n        /* \"#utility.yul\":6098:6202   */\n      tag_136\n      jump\t// in\n    tag_135:\n        /* \"#utility.yul\":6089:6202   */\n      swap1\n      pop\n        /* \"#utility.yul\":5924:6209   */\n      swap3\n      swap2\n      pop\n      pop\n      jump\t// out\n        /* \"#utility.yul\":6215:7288   */\n    tag_136:\n        /* \"#utility.yul\":6269:6274   */\n      0x00\n        /* \"#utility.yul\":6460:6468   */\n      dup3\n        /* \"#utility.yul\":6450:6490   */\n      tag_138\n      jumpi\n        /* \"#utility.yul\":6481:6482   */\n      0x01\n        /* \"#utility.yul\":6472:6482   */\n      swap1\n      pop\n        /* \"#utility.yul\":6483:6488   */\n      jump(tag_137)\n        /* \"#utility.yul\":6450:6490   */\n    tag_138:\n        /* \"#utility.yul\":6509:6513   */\n      dup2\n        /* \"#utility.yul\":6499:6535   */\n      tag_139\n      jumpi\n        /* \"#utility.yul\":6526:6527   */\n      0x00\n        /* \"#utility.yul\":6517:6527   */\n      swap1\n      pop\n        /* \"#utility.yul\":6528:6533   */\n      jump(tag_137)\n        /* \"#utility.yul\":6499:6535   */\n    tag_139:\n        /* \"#utility.yul\":6595:6599   */\n      dup2\n        /* \"#utility.yul\":6643:6644   */\n      0x01\n        /* \"#utility.yul\":6638:6665   */\n      dup2\n      eq\n      tag_141\n      jumpi\n        /* \"#utility.yul\":6679:6680   */\n      0x02\n        /* \"#utility.yul\":6674:6865   */\n      dup2\n      eq\n      tag_142\n      jumpi\n        /* \"#utility.yul\":6588:6865   */\n      jump(tag_140)\n        /* \"#utility.yul\":6638:6665   */\n    tag_141:\n        /* \"#utility.yul\":6656:6657   */\n      0x01\n        /* \"#utility.yul\":6647:6657   */\n      swap2\n      pop\n        /* \"#utility.yul\":6658:6663   */\n      pop\n      jump(tag_137)\n        /* \"#utility.yul\":6674:6865   */\n    tag_142:\n        /* \"#utility.yul\":6719:6722   */\n      0xff\n        /* \"#utility.yul\":6709:6717   */\n      dup5\n        /* \"#utility.yul\":6706:6723   */\n      gt\n        /* \"#utility.yul\":6703:6746   */\n      iszero\n      tag_143\n      jumpi\n        /* \"#utility.yul\":6726:6744   */\n      tag_144\n      tag_121\n      jump\t// in\n    tag_144:\n        /* \"#utility.yul\":6703:6746   */\n    tag_143:\n        /* \"#utility.yul\":6775:6783   */\n      dup4\n        /* \"#utility.yul\":6772:6773   */\n      0x02\n        /* \"#utility.yul\":6768:6784   */\n      exp\n        /* \"#utility.yul\":6759:6784   */\n      swap2\n      pop\n        /* \"#utility.yul\":6810:6813   */\n      dup5\n        /* \"#utility.yul\":6803:6808   */\n      dup3\n        /* \"#utility.yul\":6800:6814   */\n      gt\n        /* \"#utility.yul\":6797:6837   */\n      iszero\n      tag_145\n      jumpi\n        /* \"#utility.yul\":6817:6835   */\n      tag_146\n      tag_121\n      jump\t// in\n    tag_146:\n        /* \"#utility.yul\":6797:6837   */\n    tag_145:\n        /* \"#utility.yul\":6850:6855   */\n      pop\n      jump(tag_137)\n        /* \"#utility.yul\":6588:6865   */\n    tag_140:\n      pop\n        /* \"#utility.yul\":6974:6976   */\n      0x20\n        /* \"#utility.yul\":6964:6972   */\n      dup4\n        /* \"#utility.yul\":6961:6977   */\n      lt\n        /* \"#utility.yul\":6955:6958   */\n      0x0133\n        /* \"#utility.yul\":6949:6953   */\n      dup4\n        /* \"#utility.yul\":6946:6959   */\n      lt\n        /* \"#utility.yul\":6942:6978   */\n      and\n        /* \"#utility.yul\":6924:6926   */\n      0x4e\n        /* \"#utility.yul\":6914:6922   */\n      dup5\n        /* \"#utility.yul\":6911:6927   */\n      lt\n        /* \"#utility.yul\":6906:6908   */\n      0x0b\n        /* \"#utility.yul\":6900:6904   */\n      dup5\n        /* \"#utility.yul\":6897:6909   */\n      lt\n        /* \"#utility.yul\":6893:6928   */\n      and\n        /* \"#utility.yul\":6877:6988   */\n      or\n        /* \"#utility.yul\":6874:7120   */\n      iszero\n      tag_147\n      jumpi\n        /* \"#utility.yul\":7030:7038   */\n      dup3\n        /* \"#utility.yul\":7024:7028   */\n      dup3\n        /* \"#utility.yul\":7020:7039   */\n      exp\n        /* \"#utility.yul\":7011:7039   */\n      swap1\n      pop\n        /* \"#utility.yul\":7065:7068   */\n      dup4\n        /* \"#utility.yul\":7058:7063   */\n      dup2\n        /* \"#utility.yul\":7055:7069   */\n      gt\n        /* \"#utility.yul\":7052:7092   */\n      iszero\n      tag_148\n      jumpi\n        /* \"#utility.yul\":7072:7090   */\n      tag_149\n      tag_121\n      jump\t// in\n    tag_149:\n        /* \"#utility.yul\":7052:7092   */\n    tag_148:\n        /* \"#utility.yul\":7105:7110   */\n      jump(tag_137)\n        /* \"#utility.yul\":6874:7120   */\n    tag_147:\n        /* \"#utility.yul\":7145:7187   */\n      tag_150\n        /* \"#utility.yul\":7183:7186   */\n      dup5\n        /* \"#utility.yul\":7173:7181   */\n      dup5\n        /* \"#utility.yul\":7167:7171   */\n      dup5\n        /* \"#utility.yul\":7164:7165   */\n      0x01\n        /* \"#utility.yul\":7145:7187   */\n      tag_122\n      jump\t// in\n    tag_150:\n        /* \"#utility.yul\":7130:7187   */\n      swap3\n      pop\n      swap1\n      pop\n        /* \"#utility.yul\":7219:7223   */\n      dup2\n        /* \"#utility.yul\":7214:7217   */\n      dup5\n        /* \"#utility.yul\":7210:7224   */\n      div\n        /* \"#utility.yul\":7203:7208   */\n      dup2\n        /* \"#utility.yul\":7200:7225   */\n      gt\n        /* \"#utility.yul\":7197:7248   */\n      iszero\n      tag_151\n      jumpi\n        /* \"#utility.yul\":7228:7246   */\n      tag_152\n      tag_121\n      jump\t// in\n    tag_152:\n        /* \"#utility.yul\":7197:7248   */\n    tag_151:\n        /* \"#utility.yul\":7277:7281   */\n      dup2\n        /* \"#utility.yul\":7270:7275   */\n      dup2\n        /* \"#utility.yul\":7266:7282   */\n      mul\n        /* \"#utility.yul\":7257:7282   */\n      swap1\n      pop\n        /* \"#utility.yul\":6215:7288   */\n    tag_137:\n      swap4\n      swap3\n      pop\n      pop\n      pop\n      jump\t// out\n        /* \"#utility.yul\":7294:7642   */\n    tag_24:\n        /* \"#utility.yul\":7334:7341   */\n      0x00\n        /* \"#utility.yul\":7357:7377   */\n      tag_154\n        /* \"#utility.yul\":7375:7376   */\n      dup3\n        /* \"#utility.yul\":7357:7377   */\n      tag_100\n      jump\t// in\n    tag_154:\n        /* \"#utility.yul\":7352:7377   */\n      swap2\n      pop\n        /* \"#utility.yul\":7391:7411   */\n      tag_155\n        /* \"#utility.yul\":7409:7410   */\n      dup4\n        /* \"#utility.yul\":7391:7411   */\n      tag_100\n      jump\t// in\n    tag_155:\n        /* \"#utility.yul\":7386:7411   */\n      swap3\n      pop\n        /* \"#utility.yul\":7579:7580   */\n      dup2\n        /* \"#utility.yul\":7511:7577   */\n      0xffffffffffffffffffffffffffffffffffffffffffffffffffffffffffffffff\n        /* \"#utility.yul\":7507:7581   */\n      div\n        /* \"#utility.yul\":7504:7505   */\n      dup4\n        /* \"#utility.yul\":7501:7582   */\n      gt\n        /* \"#utility.yul\":7496:7497   */\n      dup3\n        /* \"#utility.yul\":7489:7498   */\n      iszero\n        /* \"#utility.yul\":7482:7499   */\n      iszero\n        /* \"#utility.yul\":7478:7583   */\n      and\n        /* \"#utility.yul\":7475:7606   */\n      iszero\n      tag_156\n      jumpi\n        /* \"#utility.yul\":7586:7604   */\n      tag_157\n      tag_121\n      jump\t// in\n    tag_157:\n        /* \"#utility.yul\":7475:7606   */\n    tag_156:\n        /* \"#utility.yul\":7634:7635   */\n      dup3\n        /* \"#utility.yul\":7631:7632   */\n      dup3\n        /* \"#utility.yul\":7627:7636   */\n      mul\n        /* \"#utility.yul\":7616:7636   */\n      swap1\n      pop\n        /* \"#utility.yul\":7294:7642   */\n      swap3\n      swap2\n      pop\n      pop\n      jump\t// out\n        /* \"#utility.yul\":7648:7738   */\n    tag_75:\n        /* \"#utility.yul\":7682:7689   */\n      0x00\n        /* \"#utility.yul\":7725:7730   */\n      dup2\n        /* \"#utility.yul\":7718:7731   */\n      iszero\n        /* \"#utility.yul\":7711:7732   */\n      iszero\n        /* \"#utility.yul\":7700:7732   */\n      swap1\n      pop\n        /* \"#utility.yul\":7648:7738   */\n      swap2\n      swap1\n      pop\n      jump\t// out\n        /* \"#utility.yul\":7744:7821   */\n    tag_100:\n        /* \"#utility.yul\":7781:7788   */\n      0x00\n        /* \"#utility.yul\":7810:7815   */\n      dup2\n        /* \"#utility.yul\":7799:7815   */\n      swap1\n      pop\n        /* \"#utility.yul\":7744:7821   */\n      swap2\n      swap1\n      pop\n      jump\t// out\n        /* \"#utility.yul\":7827:8007   */\n    tag_31:\n        /* \"#utility.yul\":7875:7952   */\n      0x4e487b7100000000000000000000000000000000000000000000000000000000\n        /* \"#utility.yul\":7872:7873   */\n      0x00\n        /* \"#utility.yul\":7865:7953   */\n      mstore\n        /* \"#utility.yul\":7972:7976   */\n      0x01\n        /* \"#utility.yul\":7969:7970   */\n      0x04\n        /* \"#utility.yul\":7962:7977   */\n      mstore\n        /* \"#utility.yul\":7996:8000   */\n      0x24\n        /* \"#utility.yul\":7993:7994   */\n      0x00\n        /* \"#utility.yul\":7986:8001   */\n      revert\n        /* \"#utility.yul\":8013:8193   */\n    tag_121:\n        /* \"#utility.yul\":8061:8138   */\n      0x4e487b7100000000000000000000000000000000000000000000000000000000\n        /* \"#utility.yul\":8058:8059   */\n      0x00\n        /* \"#utility.yul\":8051:8139   */\n      mstore\n        /* \"#utility.yul\":8158:8162   */\n      0x11\n        /* \"#utility.yul\":8155:8156   */\n      0x04\n        /* \"#utility.yul\":8148:8163   */\n      mstore\n        /* \"#utility.yul\":8182:8186   */\n      0x24\n        /* \"#utility.yul\":8179:8180   */\n      0x00\n        /* \"#utility.yul\":8172:8187   */\n      revert\n        /* \"#utility.yul\":8322:8439   */\n    tag_69:\n        /* \"#utility.yul\":8431:8432   */\n      0x00\n        /* \"#utility.yul\":8428:8429   */\n      dup1\n        /* \"#utility.yul\":8421:8433   */\n      revert\n        /* \"#utility.yul\":8445:8547   */\n    tag_131:\n        /* \"#utility.yul\":8487:8495   */\n      0x00\n        /* \"#utility.yul\":8534:8539   */\n      dup2\n        /* \"#utility.yul\":8531:8532   */\n      0x01\n        /* \"#utility.yul\":8527:8540   */\n      shr\n        /* \"#utility.yul\":8506:8540   */\n      swap1\n      pop\n        /* \"#utility.yul\":8445:8547   */\n      swap2\n      swap1\n      pop\n      jump\t// out\n        /* \"#utility.yul\":8553:8729   */\n    tag_81:\n        /* \"#utility.yul\":8693:8721   */\n      0x312067776569206973206e6f7420657175616c20746f20316539000000000000\n        /* \"#utility.yul\":8689:8690   */\n      0x00\n        /* \"#utility.yul\":8681:8687   */\n      dup3\n        /* \"#utility.yul\":8677:8691   */\n      add\n        /* \"#utility.yul\":8670:8722   */\n      mstore\n        /* \"#utility.yul\":8553:8729   */\n      pop\n      jump\t// out\n        /* \"#utility.yul\":8735:8961   */\n    tag_86:\n        /* \"#utility.yul\":8875:8909   */\n      0x31206574686572206973206e6f7420657175616c20746f203130303030303030\n        /* \"#utility.yul\":8871:8872   */\n      0x00\n        /* \"#utility.yul\":8863:8869   */\n      dup3\n        /* \"#utility.yul\":8859:8873   */\n      add\n        /* \"#utility.yul\":8852:8910   */\n      mstore\n        /* \"#utility.yul\":8944:8953   */\n      0x3030206777656900000000000000000000000000000000000000000000000000\n        /* \"#utility.yul\":8939:8941   */\n      0x20\n        /* \"#utility.yul\":8931:8937   */\n      dup3\n        /* \"#utility.yul\":8927:8942   */\n      add\n        /* \"#utility.yul\":8920:8954   */\n      mstore\n        /* \"#utility.yul\":8735:8961   */\n      pop\n      jump\t// out\n        /* \"#utility.yul\":8967:9140   */\n    tag_91:\n        /* \"#utility.yul\":9107:9132   */\n      0x3120776569206973206e6f7420657175616c20746f2031000000000000000000\n        /* \"#utility.yul\":9103:9104   */\n      0x00\n        /* \"#utility.yul\":9095:9101   */\n      dup3\n        /* \"#utility.yul\":9091:9105   */\n      add\n        /* \"#utility.yul\":9084:9133   */\n      mstore\n        /* \"#utility.yul\":8967:9140   */\n      pop\n      jump\t// out\n        /* \"#utility.yul\":9146:9324   */\n    tag_96:\n        /* \"#utility.yul\":9286:9316   */\n      0x31206574686572206973206e6f7420657175616c20746f203165313800000000\n        /* \"#utility.yul\":9282:9283   */\n      0x00\n        /* \"#utility.yul\":9274:9280   */\n      dup3\n        /* \"#utility.yul\":9270:9284   */\n      add\n        /* \"#utility.yul\":9263:9317   */\n      mstore\n        /* \"#utility.yul\":9146:9324   */\n      pop\n      jump\t// out\n        /* \"#utility.yul\":9330:9452   */\n    tag_65:\n        /* \"#utility.yul\":9403:9427   */\n      tag_171\n        /* \"#utility.yul\":9421:9426   */\n      dup2\n        /* \"#utility.yul\":9403:9427   */\n      tag_100\n      jump\t// in\n    tag_171:\n        /* \"#utility.yul\":9396:9401   */\n      dup2\n        /* \"#utility.yul\":9393:9428   */\n      eq\n        /* \"#utility.yul\":9383:9446   */\n      tag_172\n      jumpi\n        /* \"#utility.yul\":9442:9443   */\n      0x00\n        /* \"#utility.yul\":9439:9440   */\n      dup1\n        /* \"#utility.yul\":9432:9444   */\n      revert\n        /* \"#utility.yul\":9383:9446   */\n    tag_172:\n        /* \"#utility.yul\":9330:9452   */\n      pop\n      jump\t// out\n\n    auxdata: 0xa2646970667358221220ee150a55e64e8a6b4db5c2e6a3276ed03ef4373c6edda79e198de90436284fd964736f6c63430008070033\n}\n",
				"bytecode": {
					"linkReferences": {},
					"object": "608060405234801561001057600080fd5b50610862806100206000396000f3fe608060405234801561001057600080fd5b506004361061004c5760003560e01c806319730b441461005157806324475f4c146100815780632e4c697f1461008b57806397e82183146100bb575b600080fd5b61006b600480360381019061006691906102f3565b6100c5565b60405161007891906103dd565b60405180910390f35b6100896100f9565b005b6100a560048036038101906100a091906102f3565b610155565b6040516100b29190610478565b60405180910390f35b6100c361016b565b005b600080600090506003836100d9919061066b565b846100e491906104a4565b42106100ef57600190505b8091505092915050565b6001801461010a576101096106db565b5b603c801461011b5761011a6106db565b5b610e10801461012d5761012c6106db565b5b6201518080146101405761013f6106db565b5b62093a808014610153576101526106db565b5b565b60008183610163919061054d565b905092915050565b600060019050600181146101b4576040517f08c379a00000000000000000000000000000000000000000000000000000000081526004016101ab90610438565b60405180910390fd5b6000633b9aca009050633b9aca008114610203576040517f08c379a00000000000000000000000000000000000000000000000000000000081526004016101fa906103f8565b60405180910390fd5b61020f600a6009610155565b811461021a57600080fd5b6000670de0b6b3a76400009050670de0b6b3a76400008114610271576040517f08c379a000000000000000000000000000000000000000000000000000000000815260040161026890610458565b60405180910390fd5b61027d600a6012610155565b811461028857600080fd5b81633b9aca00610298919061066b565b81146102d9576040517f08c379a00000000000000000000000000000000000000000000000000000000081526004016102d090610418565b60405180910390fd5b505050565b6000813590506102ed81610815565b92915050565b6000806040838503121561030a57610309610739565b5b6000610318858286016102de565b9250506020610329858286016102de565b9150509250929050565b61033c816106c5565b82525050565b600061034f601a83610493565b915061035a8261074b565b602082019050919050565b6000610372602783610493565b915061037d82610774565b604082019050919050565b6000610395601783610493565b91506103a0826107c3565b602082019050919050565b60006103b8601c83610493565b91506103c3826107ec565b602082019050919050565b6103d7816106d1565b82525050565b60006020820190506103f26000830184610333565b92915050565b6000602082019050818103600083015261041181610342565b9050919050565b6000602082019050818103600083015261043181610365565b9050919050565b6000602082019050818103600083015261045181610388565b9050919050565b60006020820190508181036000830152610471816103ab565b9050919050565b600060208201905061048d60008301846103ce565b92915050565b600082825260208201905092915050565b60006104af826106d1565b91506104ba836106d1565b9250827fffffffffffffffffffffffffffffffffffffffffffffffffffffffffffffffff038211156104ef576104ee61070a565b5b828201905092915050565b6000808291508390505b6001851115610544578086048111156105205761051f61070a565b5b600185161561052f5780820291505b808102905061053d8561073e565b9450610504565b94509492505050565b6000610558826106d1565b9150610563836106d1565b92506105907fffffffffffffffffffffffffffffffffffffffffffffffffffffffffffffffff8484610598565b905092915050565b6000826105a85760019050610664565b816105b65760009050610664565b81600181146105cc57600281146105d657610605565b6001915050610664565b60ff8411156105e8576105e761070a565b5b8360020a9150848211156105ff576105fe61070a565b5b50610664565b5060208310610133831016604e8410600b841016171561063a5782820a9050838111156106355761063461070a565b5b610664565b61064784848460016104fa565b9250905081840481111561065e5761065d61070a565b5b81810290505b9392505050565b6000610676826106d1565b9150610681836106d1565b9250817fffffffffffffffffffffffffffffffffffffffffffffffffffffffffffffffff04831182151516156106ba576106b961070a565b5b828202905092915050565b60008115159050919050565b6000819050919050565b7f4e487b7100000000000000000000000000000000000000000000000000000000600052600160045260246000fd5b7f4e487b7100000000000000000000000000000000000000000000000000000000600052601160045260246000fd5b600080fd5b60008160011c9050919050565b7f312067776569206973206e6f7420657175616c20746f20316539000000000000600082015250565b7f31206574686572206973206e6f7420657175616c20746f20313030303030303060008201527f3030206777656900000000000000000000000000000000000000000000000000602082015250565b7f3120776569206973206e6f7420657175616c20746f2031000000000000000000600082015250565b7f31206574686572206973206e6f7420657175616c20746f203165313800000000600082015250565b61081e816106d1565b811461082957600080fd5b5056fea2646970667358221220ee150a55e64e8a6b4db5c2e6a3276ed03ef4373c6edda79e198de90436284fd964736f6c63430008070033",
					"opcodes": "PUSH1 0x80 PUSH1 0x40 MSTORE CALLVALUE DUP1 ISZERO PUSH2 0x10 JUMPI PUSH1 0x0 DUP1 REVERT JUMPDEST POP PUSH2 0x862 DUP1 PUSH2 0x20 PUSH1 0x0 CODECOPY PUSH1 0x0 RETURN INVALID PUSH1 0x80 PUSH1 0x40 MSTORE CALLVALUE DUP1 ISZERO PUSH2 0x10 JUMPI PUSH1 0x0 DUP1 REVERT JUMPDEST POP PUSH1 0x4 CALLDATASIZE LT PUSH2 0x4C JUMPI PUSH1 0x0 CALLDATALOAD PUSH1 0xE0 SHR DUP1 PUSH4 0x19730B44 EQ PUSH2 0x51 JUMPI DUP1 PUSH4 0x24475F4C EQ PUSH2 0x81 JUMPI DUP1 PUSH4 0x2E4C697F EQ PUSH2 0x8B JUMPI DUP1 PUSH4 0x97E82183 EQ PUSH2 0xBB JUMPI JUMPDEST PUSH1 0x0 DUP1 REVERT JUMPDEST PUSH2 0x6B PUSH1 0x4 DUP1 CALLDATASIZE SUB DUP2 ADD SWAP1 PUSH2 0x66 SWAP2 SWAP1 PUSH2 0x2F3 JUMP JUMPDEST PUSH2 0xC5 JUMP JUMPDEST PUSH1 0x40 MLOAD PUSH2 0x78 SWAP2 SWAP1 PUSH2 0x3DD JUMP JUMPDEST PUSH1 0x40 MLOAD DUP1 SWAP2 SUB SWAP1 RETURN JUMPDEST PUSH2 0x89 PUSH2 0xF9 JUMP JUMPDEST STOP JUMPDEST PUSH2 0xA5 PUSH1 0x4 DUP1 CALLDATASIZE SUB DUP2 ADD SWAP1 PUSH2 0xA0 SWAP2 SWAP1 PUSH2 0x2F3 JUMP JUMPDEST PUSH2 0x155 JUMP JUMPDEST PUSH1 0x40 MLOAD PUSH2 0xB2 SWAP2 SWAP1 PUSH2 0x478 JUMP JUMPDEST PUSH1 0x40 MLOAD DUP1 SWAP2 SUB SWAP1 RETURN JUMPDEST PUSH2 0xC3 PUSH2 0x16B JUMP JUMPDEST STOP JUMPDEST PUSH1 0x0 DUP1 PUSH1 0x0 SWAP1 POP PUSH1 0x3 DUP4 PUSH2 0xD9 SWAP2 SWAP1 PUSH2 0x66B JUMP JUMPDEST DUP5 PUSH2 0xE4 SWAP2 SWAP1 PUSH2 0x4A4 JUMP JUMPDEST TIMESTAMP LT PUSH2 0xEF JUMPI PUSH1 0x1 SWAP1 POP JUMPDEST DUP1 SWAP2 POP POP SWAP3 SWAP2 POP POP JUMP JUMPDEST PUSH1 0x1 DUP1 EQ PUSH2 0x10A JUMPI PUSH2 0x109 PUSH2 0x6DB JUMP JUMPDEST JUMPDEST PUSH1 0x3C DUP1 EQ PUSH2 0x11B JUMPI PUSH2 0x11A PUSH2 0x6DB JUMP JUMPDEST JUMPDEST PUSH2 0xE10 DUP1 EQ PUSH2 0x12D JUMPI PUSH2 0x12C PUSH2 0x6DB JUMP JUMPDEST JUMPDEST PUSH3 0x15180 DUP1 EQ PUSH2 0x140 JUMPI PUSH2 0x13F PUSH2 0x6DB JUMP JUMPDEST JUMPDEST PUSH3 0x93A80 DUP1 EQ PUSH2 0x153 JUMPI PUSH2 0x152 PUSH2 0x6DB JUMP JUMPDEST JUMPDEST JUMP JUMPDEST PUSH1 0x0 DUP2 DUP4 PUSH2 0x163 SWAP2 SWAP1 PUSH2 0x54D JUMP JUMPDEST SWAP1 POP SWAP3 SWAP2 POP POP JUMP JUMPDEST PUSH1 0x0 PUSH1 0x1 SWAP1 POP PUSH1 0x1 DUP2 EQ PUSH2 0x1B4 JUMPI PUSH1 0x40 MLOAD PUSH32 0x8C379A000000000000000000000000000000000000000000000000000000000 DUP2 MSTORE PUSH1 0x4 ADD PUSH2 0x1AB SWAP1 PUSH2 0x438 JUMP JUMPDEST PUSH1 0x40 MLOAD DUP1 SWAP2 SUB SWAP1 REVERT JUMPDEST PUSH1 0x0 PUSH4 0x3B9ACA00 SWAP1 POP PUSH4 0x3B9ACA00 DUP2 EQ PUSH2 0x203 JUMPI PUSH1 0x40 MLOAD PUSH32 0x8C379A000000000000000000000000000000000000000000000000000000000 DUP2 MSTORE PUSH1 0x4 ADD PUSH2 0x1FA SWAP1 PUSH2 0x3F8 JUMP JUMPDEST PUSH1 0x40 MLOAD DUP1 SWAP2 SUB SWAP1 REVERT JUMPDEST PUSH2 0x20F PUSH1 0xA PUSH1 0x9 PUSH2 0x155 JUMP JUMPDEST DUP2 EQ PUSH2 0x21A JUMPI PUSH1 0x0 DUP1 REVERT JUMPDEST PUSH1 0x0 PUSH8 0xDE0B6B3A7640000 SWAP1 POP PUSH8 0xDE0B6B3A7640000 DUP2 EQ PUSH2 0x271 JUMPI PUSH1 0x40 MLOAD PUSH32 0x8C379A000000000000000000000000000000000000000000000000000000000 DUP2 MSTORE PUSH1 0x4 ADD PUSH2 0x268 SWAP1 PUSH2 0x458 JUMP JUMPDEST PUSH1 0x40 MLOAD DUP1 SWAP2 SUB SWAP1 REVERT JUMPDEST PUSH2 0x27D PUSH1 0xA PUSH1 0x12 PUSH2 0x155 JUMP JUMPDEST DUP2 EQ PUSH2 0x288 JUMPI PUSH1 0x0 DUP1 REVERT JUMPDEST DUP2 PUSH4 0x3B9ACA00 PUSH2 0x298 SWAP2 SWAP1 PUSH2 0x66B JUMP JUMPDEST DUP2 EQ PUSH2 0x2D9 JUMPI PUSH1 0x40 MLOAD PUSH32 0x8C379A000000000000000000000000000000000000000000000000000000000 DUP2 MSTORE PUSH1 0x4 ADD PUSH2 0x2D0 SWAP1 PUSH2 0x418 JUMP JUMPDEST PUSH1 0x40 MLOAD DUP1 SWAP2 SUB SWAP1 REVERT JUMPDEST POP POP POP JUMP JUMPDEST PUSH1 0x0 DUP2 CALLDATALOAD SWAP1 POP PUSH2 0x2ED DUP2 PUSH2 0x815 JUMP JUMPDEST SWAP3 SWAP2 POP POP JUMP JUMPDEST PUSH1 0x0 DUP1 PUSH1 0x40 DUP4 DUP6 SUB SLT ISZERO PUSH2 0x30A JUMPI PUSH2 0x309 PUSH2 0x739 JUMP JUMPDEST JUMPDEST PUSH1 0x0 PUSH2 0x318 DUP6 DUP3 DUP7 ADD PUSH2 0x2DE JUMP JUMPDEST SWAP3 POP POP PUSH1 0x20 PUSH2 0x329 DUP6 DUP3 DUP7 ADD PUSH2 0x2DE JUMP JUMPDEST SWAP2 POP POP SWAP3 POP SWAP3 SWAP1 POP JUMP JUMPDEST PUSH2 0x33C DUP2 PUSH2 0x6C5 JUMP JUMPDEST DUP3 MSTORE POP POP JUMP JUMPDEST PUSH1 0x0 PUSH2 0x34F PUSH1 0x1A DUP4 PUSH2 0x493 JUMP JUMPDEST SWAP2 POP PUSH2 0x35A DUP3 PUSH2 0x74B JUMP JUMPDEST PUSH1 0x20 DUP3 ADD SWAP1 POP SWAP2 SWAP1 POP JUMP JUMPDEST PUSH1 0x0 PUSH2 0x372 PUSH1 0x27 DUP4 PUSH2 0x493 JUMP JUMPDEST SWAP2 POP PUSH2 0x37D DUP3 PUSH2 0x774 JUMP JUMPDEST PUSH1 0x40 DUP3 ADD SWAP1 POP SWAP2 SWAP1 POP JUMP JUMPDEST PUSH1 0x0 PUSH2 0x395 PUSH1 0x17 DUP4 PUSH2 0x493 JUMP JUMPDEST SWAP2 POP PUSH2 0x3A0 DUP3 PUSH2 0x7C3 JUMP JUMPDEST PUSH1 0x20 DUP3 ADD SWAP1 POP SWAP2 SWAP1 POP JUMP JUMPDEST PUSH1 0x0 PUSH2 0x3B8 PUSH1 0x1C DUP4 PUSH2 0x493 JUMP JUMPDEST SWAP2 POP PUSH2 0x3C3 DUP3 PUSH2 0x7EC JUMP JUMPDEST PUSH1 0x20 DUP3 ADD SWAP1 POP SWAP2 SWAP1 POP JUMP JUMPDEST PUSH2 0x3D7 DUP2 PUSH2 0x6D1 JUMP JUMPDEST DUP3 MSTORE POP POP JUMP JUMPDEST PUSH1 0x0 PUSH1 0x20 DUP3 ADD SWAP1 POP PUSH2 0x3F2 PUSH1 0x0 DUP4 ADD DUP5 PUSH2 0x333 JUMP JUMPDEST SWAP3 SWAP2 POP POP JUMP JUMPDEST PUSH1 0x0 PUSH1 0x20 DUP3 ADD SWAP1 POP DUP2 DUP2 SUB PUSH1 0x0 DUP4 ADD MSTORE PUSH2 0x411 DUP2 PUSH2 0x342 JUMP JUMPDEST SWAP1 POP SWAP2 SWAP1 POP JUMP JUMPDEST PUSH1 0x0 PUSH1 0x20 DUP3 ADD SWAP1 POP DUP2 DUP2 SUB PUSH1 0x0 DUP4 ADD MSTORE PUSH2 0x431 DUP2 PUSH2 0x365 JUMP JUMPDEST SWAP1 POP SWAP2 SWAP1 POP JUMP JUMPDEST PUSH1 0x0 PUSH1 0x20 DUP3 ADD SWAP1 POP DUP2 DUP2 SUB PUSH1 0x0 DUP4 ADD MSTORE PUSH2 0x451 DUP2 PUSH2 0x388 JUMP JUMPDEST SWAP1 POP SWAP2 SWAP1 POP JUMP JUMPDEST PUSH1 0x0 PUSH1 0x20 DUP3 ADD SWAP1 POP DUP2 DUP2 SUB PUSH1 0x0 DUP4 ADD MSTORE PUSH2 0x471 DUP2 PUSH2 0x3AB JUMP JUMPDEST SWAP1 POP SWAP2 SWAP1 POP JUMP JUMPDEST PUSH1 0x0 PUSH1 0x20 DUP3 ADD SWAP1 POP PUSH2 0x48D PUSH1 0x0 DUP4 ADD DUP5 PUSH2 0x3CE JUMP JUMPDEST SWAP3 SWAP2 POP POP JUMP JUMPDEST PUSH1 0x0 DUP3 DUP3 MSTORE PUSH1 0x20 DUP3 ADD SWAP1 POP SWAP3 SWAP2 POP POP JUMP JUMPDEST PUSH1 0x0 PUSH2 0x4AF DUP3 PUSH2 0x6D1 JUMP JUMPDEST SWAP2 POP PUSH2 0x4BA DUP4 PUSH2 0x6D1 JUMP JUMPDEST SWAP3 POP DUP3 PUSH32 0xFFFFFFFFFFFFFFFFFFFFFFFFFFFFFFFFFFFFFFFFFFFFFFFFFFFFFFFFFFFFFFFF SUB DUP3 GT ISZERO PUSH2 0x4EF JUMPI PUSH2 0x4EE PUSH2 0x70A JUMP JUMPDEST JUMPDEST DUP3 DUP3 ADD SWAP1 POP SWAP3 SWAP2 POP POP JUMP JUMPDEST PUSH1 0x0 DUP1 DUP3 SWAP2 POP DUP4 SWAP1 POP JUMPDEST PUSH1 0x1 DUP6 GT ISZERO PUSH2 0x544 JUMPI DUP1 DUP7 DIV DUP2 GT ISZERO PUSH2 0x520 JUMPI PUSH2 0x51F PUSH2 0x70A JUMP JUMPDEST JUMPDEST PUSH1 0x1 DUP6 AND ISZERO PUSH2 0x52F JUMPI DUP1 DUP3 MUL SWAP2 POP JUMPDEST DUP1 DUP2 MUL SWAP1 POP PUSH2 0x53D DUP6 PUSH2 0x73E JUMP JUMPDEST SWAP5 POP PUSH2 0x504 JUMP JUMPDEST SWAP5 POP SWAP5 SWAP3 POP POP POP JUMP JUMPDEST PUSH1 0x0 PUSH2 0x558 DUP3 PUSH2 0x6D1 JUMP JUMPDEST SWAP2 POP PUSH2 0x563 DUP4 PUSH2 0x6D1 JUMP JUMPDEST SWAP3 POP PUSH2 0x590 PUSH32 0xFFFFFFFFFFFFFFFFFFFFFFFFFFFFFFFFFFFFFFFFFFFFFFFFFFFFFFFFFFFFFFFF DUP5 DUP5 PUSH2 0x598 JUMP JUMPDEST SWAP1 POP SWAP3 SWAP2 POP POP JUMP JUMPDEST PUSH1 0x0 DUP3 PUSH2 0x5A8 JUMPI PUSH1 0x1 SWAP1 POP PUSH2 0x664 JUMP JUMPDEST DUP2 PUSH2 0x5B6 JUMPI PUSH1 0x0 SWAP1 POP PUSH2 0x664 JUMP JUMPDEST DUP2 PUSH1 0x1 DUP2 EQ PUSH2 0x5CC JUMPI PUSH1 0x2 DUP2 EQ PUSH2 0x5D6 JUMPI PUSH2 0x605 JUMP JUMPDEST PUSH1 0x1 SWAP2 POP POP PUSH2 0x664 JUMP JUMPDEST PUSH1 0xFF DUP5 GT ISZERO PUSH2 0x5E8 JUMPI PUSH2 0x5E7 PUSH2 0x70A JUMP JUMPDEST JUMPDEST DUP4 PUSH1 0x2 EXP SWAP2 POP DUP5 DUP3 GT ISZERO PUSH2 0x5FF JUMPI PUSH2 0x5FE PUSH2 0x70A JUMP JUMPDEST JUMPDEST POP PUSH2 0x664 JUMP JUMPDEST POP PUSH1 0x20 DUP4 LT PUSH2 0x133 DUP4 LT AND PUSH1 0x4E DUP5 LT PUSH1 0xB DUP5 LT AND OR ISZERO PUSH2 0x63A JUMPI DUP3 DUP3 EXP SWAP1 POP DUP4 DUP2 GT ISZERO PUSH2 0x635 JUMPI PUSH2 0x634 PUSH2 0x70A JUMP JUMPDEST JUMPDEST PUSH2 0x664 JUMP JUMPDEST PUSH2 0x647 DUP5 DUP5 DUP5 PUSH1 0x1 PUSH2 0x4FA JUMP JUMPDEST SWAP3 POP SWAP1 POP DUP2 DUP5 DIV DUP2 GT ISZERO PUSH2 0x65E JUMPI PUSH2 0x65D PUSH2 0x70A JUMP JUMPDEST JUMPDEST DUP2 DUP2 MUL SWAP1 POP JUMPDEST SWAP4 SWAP3 POP POP POP JUMP JUMPDEST PUSH1 0x0 PUSH2 0x676 DUP3 PUSH2 0x6D1 JUMP JUMPDEST SWAP2 POP PUSH2 0x681 DUP4 PUSH2 0x6D1 JUMP JUMPDEST SWAP3 POP DUP2 PUSH32 0xFFFFFFFFFFFFFFFFFFFFFFFFFFFFFFFFFFFFFFFFFFFFFFFFFFFFFFFFFFFFFFFF DIV DUP4 GT DUP3 ISZERO ISZERO AND ISZERO PUSH2 0x6BA JUMPI PUSH2 0x6B9 PUSH2 0x70A JUMP JUMPDEST JUMPDEST DUP3 DUP3 MUL SWAP1 POP SWAP3 SWAP2 POP POP JUMP JUMPDEST PUSH1 0x0 DUP2 ISZERO ISZERO SWAP1 POP SWAP2 SWAP1 POP JUMP JUMPDEST PUSH1 0x0 DUP2 SWAP1 POP SWAP2 SWAP1 POP JUMP JUMPDEST PUSH32 0x4E487B7100000000000000000000000000000000000000000000000000000000 PUSH1 0x0 MSTORE PUSH1 0x1 PUSH1 0x4 MSTORE PUSH1 0x24 PUSH1 0x0 REVERT JUMPDEST PUSH32 0x4E487B7100000000000000000000000000000000000000000000000000000000 PUSH1 0x0 MSTORE PUSH1 0x11 PUSH1 0x4 MSTORE PUSH1 0x24 PUSH1 0x0 REVERT JUMPDEST PUSH1 0x0 DUP1 REVERT JUMPDEST PUSH1 0x0 DUP2 PUSH1 0x1 SHR SWAP1 POP SWAP2 SWAP1 POP JUMP JUMPDEST PUSH32 0x312067776569206973206E6F7420657175616C20746F20316539000000000000 PUSH1 0x0 DUP3 ADD MSTORE POP JUMP JUMPDEST PUSH32 0x31206574686572206973206E6F7420657175616C20746F203130303030303030 PUSH1 0x0 DUP3 ADD MSTORE PUSH32 0x3030206777656900000000000000000000000000000000000000000000000000 PUSH1 0x20 DUP3 ADD MSTORE POP JUMP JUMPDEST PUSH32 0x3120776569206973206E6F7420657175616C20746F2031000000000000000000 PUSH1 0x0 DUP3 ADD MSTORE POP JUMP JUMPDEST PUSH32 0x31206574686572206973206E6F7420657175616C20746F203165313800000000 PUSH1 0x0 DUP3 ADD MSTORE POP JUMP JUMPDEST PUSH2 0x81E DUP2 PUSH2 0x6D1 JUMP JUMPDEST DUP2 EQ PUSH2 0x829 JUMPI PUSH1 0x0 DUP1 REVERT JUMPDEST POP JUMP INVALID LOG2 PUSH5 0x6970667358 0x22 SLT KECCAK256 0xEE ISZERO EXP SSTORE 0xE6 0x4E DUP11 PUSH12 0x4DB5C2E6A3276ED03EF4373C PUSH15 0xDDA79E198DE90436284FD964736F6C PUSH4 0x43000807 STOP CALLER "
				},
				"gasEstimates": {
					"creation": {
						"codeDepositCost": "429200",
						"executionCost": "468",
						"totalCost": "429668"
					},
					"external": {
						"etherUnitExample()": "infinite",
						"pow(uint256,uint256)": "infinite",
						"timeUnitExample()": "259",
						"validate(uint256,uint256)": "infinite"
					}
				},
				"methodIdentifiers": {
					"etherUnitExample()": "97e82183",
					"pow(uint256,uint256)": "2e4c697f",
					"timeUnitExample()": "24475f4c",
					"validate(uint256,uint256)": "19730b44"
				}
			},
			"storageLayout": {
				"storage": [],
				"types": null
			},
			"userdoc": {
				"kind": "user",
				"methods": {},
				"version": 1
			}
		}
	}
}