{
	"data": {
		"bytecode": {
			"linkReferences": {},
			"object": "608060405234801561001057600080fd5b50610299806100206000396000f3fe608060405234801561001057600080fd5b50600436106100365760003560e01c806319730b441461003b5780639b92a9e814610057575b600080fd5b610055600480360381019061005091906100ef565b610061565b005b61005f61007e565b005b60038161006e9190610185565b82610079919061012f565b505050565b6001801461008f5761008e6101e9565b5b603c80146100a05761009f6101e9565b5b610e1080146100b2576100b16101e9565b5b6201518080146100c5576100c46101e9565b5b62093a8080146100d8576100d76101e9565b5b565b6000813590506100e98161024c565b92915050565b6000806040838503121561010657610105610247565b5b6000610114858286016100da565b9250506020610125858286016100da565b9150509250929050565b600061013a826101df565b9150610145836101df565b9250827fffffffffffffffffffffffffffffffffffffffffffffffffffffffffffffffff0382111561017a57610179610218565b5b828201905092915050565b6000610190826101df565b915061019b836101df565b9250817fffffffffffffffffffffffffffffffffffffffffffffffffffffffffffffffff04831182151516156101d4576101d3610218565b5b828202905092915050565b6000819050919050565b7f4e487b7100000000000000000000000000000000000000000000000000000000600052600160045260246000fd5b7f4e487b7100000000000000000000000000000000000000000000000000000000600052601160045260246000fd5b600080fd5b610255816101df565b811461026057600080fd5b5056fea2646970667358221220eff1b74e49e8309f18b3ea4b265d436e4695c331ee99a01c4e1a14bf37c074e464736f6c63430008070033",
			"opcodes": "PUSH1 0x80 PUSH1 0x40 MSTORE CALLVALUE DUP1 ISZERO PUSH2 0x10 JUMPI PUSH1 0x0 DUP1 REVERT JUMPDEST POP PUSH2 0x299 DUP1 PUSH2 0x20 PUSH1 0x0 CODECOPY PUSH1 0x0 RETURN INVALID PUSH1 0x80 PUSH1 0x40 MSTORE CALLVALUE DUP1 ISZERO PUSH2 0x10 JUMPI PUSH1 0x0 DUP1 REVERT JUMPDEST POP PUSH1 0x4 CALLDATASIZE LT PUSH2 0x36 JUMPI PUSH1 0x0 CALLDATALOAD PUSH1 0xE0 SHR DUP1 PUSH4 0x19730B44 EQ PUSH2 0x3B JUMPI DUP1 PUSH4 0x9B92A9E8 EQ PUSH2 0x57 JUMPI JUMPDEST PUSH1 0x0 DUP1 REVERT JUMPDEST PUSH2 0x55 PUSH1 0x4 DUP1 CALLDATASIZE SUB DUP2 ADD SWAP1 PUSH2 0x50 SWAP2 SWAP1 PUSH2 0xEF JUMP JUMPDEST PUSH2 0x61 JUMP JUMPDEST STOP JUMPDEST PUSH2 0x5F PUSH2 0x7E JUMP JUMPDEST STOP JUMPDEST PUSH1 0x3 DUP2 PUSH2 0x6E SWAP2 SWAP1 PUSH2 0x185 JUMP JUMPDEST DUP3 PUSH2 0x79 SWAP2 SWAP1 PUSH2 0x12F JUMP JUMPDEST POP POP POP JUMP JUMPDEST PUSH1 0x1 DUP1 EQ PUSH2 0x8F JUMPI PUSH2 0x8E PUSH2 0x1E9 JUMP JUMPDEST JUMPDEST PUSH1 0x3C DUP1 EQ PUSH2 0xA0 JUMPI PUSH2 0x9F PUSH2 0x1E9 JUMP JUMPDEST JUMPDEST PUSH2 0xE10 DUP1 EQ PUSH2 0xB2 JUMPI PUSH2 0xB1 PUSH2 0x1E9 JUMP JUMPDEST JUMPDEST PUSH3 0x15180 DUP1 EQ PUSH2 0xC5 JUMPI PUSH2 0xC4 PUSH2 0x1E9 JUMP JUMPDEST JUMPDEST PUSH3 0x93A80 DUP1 EQ PUSH2 0xD8 JUMPI PUSH2 0xD7 PUSH2 0x1E9 JUMP JUMPDEST JUMPDEST JUMP JUMPDEST PUSH1 0x0 DUP2 CALLDATALOAD SWAP1 POP PUSH2 0xE9 DUP2 PUSH2 0x24C JUMP JUMPDEST SWAP3 SWAP2 POP POP JUMP JUMPDEST PUSH1 0x0 DUP1 PUSH1 0x40 DUP4 DUP6 SUB SLT ISZERO PUSH2 0x106 JUMPI PUSH2 0x105 PUSH2 0x247 JUMP JUMPDEST JUMPDEST PUSH1 0x0 PUSH2 0x114 DUP6 DUP3 DUP7 ADD PUSH2 0xDA JUMP JUMPDEST SWAP3 POP POP PUSH1 0x20 PUSH2 0x125 DUP6 DUP3 DUP7 ADD PUSH2 0xDA JUMP JUMPDEST SWAP2 POP POP SWAP3 POP SWAP3 SWAP1 POP JUMP JUMPDEST PUSH1 0x0 PUSH2 0x13A DUP3 PUSH2 0x1DF JUMP JUMPDEST SWAP2 POP PUSH2 0x145 DUP4 PUSH2 0x1DF JUMP JUMPDEST SWAP3 POP DUP3 PUSH32 0xFFFFFFFFFFFFFFFFFFFFFFFFFFFFFFFFFFFFFFFFFFFFFFFFFFFFFFFFFFFFFFFF SUB DUP3 GT ISZERO PUSH2 0x17A JUMPI PUSH2 0x179 PUSH2 0x218 JUMP JUMPDEST JUMPDEST DUP3 DUP3 ADD SWAP1 POP SWAP3 SWAP2 POP POP JUMP JUMPDEST PUSH1 0x0 PUSH2 0x190 DUP3 PUSH2 0x1DF JUMP JUMPDEST SWAP2 POP PUSH2 0x19B DUP4 PUSH2 0x1DF JUMP JUMPDEST SWAP3 POP DUP2 PUSH32 0xFFFFFFFFFFFFFFFFFFFFFFFFFFFFFFFFFFFFFFFFFFFFFFFFFFFFFFFFFFFFFFFF DIV DUP4 GT DUP3 ISZERO ISZERO AND ISZERO PUSH2 0x1D4 JUMPI PUSH2 0x1D3 PUSH2 0x218 JUMP JUMPDEST JUMPDEST DUP3 DUP3 MUL SWAP1 POP SWAP3 SWAP2 POP POP JUMP JUMPDEST PUSH1 0x0 DUP2 SWAP1 POP SWAP2 SWAP1 POP JUMP JUMPDEST PUSH32 0x4E487B7100000000000000000000000000000000000000000000000000000000 PUSH1 0x0 MSTORE PUSH1 0x1 PUSH1 0x4 MSTORE PUSH1 0x24 PUSH1 0x0 REVERT JUMPDEST PUSH32 0x4E487B7100000000000000000000000000000000000000000000000000000000 PUSH1 0x0 MSTORE PUSH1 0x11 PUSH1 0x4 MSTORE PUSH1 0x24 PUSH1 0x0 REVERT JUMPDEST PUSH1 0x0 DUP1 REVERT JUMPDEST PUSH2 0x255 DUP2 PUSH2 0x1DF JUMP JUMPDEST DUP2 EQ PUSH2 0x260 JUMPI PUSH1 0x0 DUP1 REVERT JUMPDEST POP JUMP INVALID LOG2 PUSH5 0x6970667358 0x22 SLT KECCAK256 0xEF CALL 0xB7 0x4E 0x49 0xE8 ADDRESS SWAP16 XOR 0xB3 0xEA 0x4B 0x26 0x5D NUMBER PUSH15 0x4695C331EE99A01C4E1A14BF37C074 0xE4 PUSH5 0x736F6C6343 STOP ADDMOD SMOD STOP CALLER "
		},
		"gasEstimates": {
			"creation": {
				"codeDepositCost": "133000",
				"executionCost": "177",
				"totalCost": "133177"
			},
			"external": {
				"TimeUnitExample()": "259",
				"validate(uint256,uint256)": "infinite"
			}
		},
		"methodIdentifiers": {
			"TimeUnitExample()": "9b92a9e8",
			"validate(uint256,uint256)": "19730b44"
		}
	},
	"abi": [
		{
			"inputs": [],
			"name": "TimeUnitExample",
			"outputs": [],
			"stateMutability": "pure",
			"type": "function"
		},
		{
			"inputs": [
				{
					"internalType": "uint256",
					"name": "start",
					"type": "uint256"
				},
				{
					"internalType": "uint256",
					"name": "secondsAfter",
					"type": "uint256"
				}
			],
			"name": "validate",
			"outputs": [],
			"stateMutability": "view",
			"type": "function"
		}
	]
}