{
	"data": {
		"bytecode": {
			"linkReferences": {},
			"object": "608060405234801561001057600080fd5b5060e78061001f6000396000f3fe6080604052348015600f57600080fd5b506004361060285760003560e01c80639b92a9e814602d575b600080fd5b60336035565b005b6001801460435760426082565b5b603c801460515760506082565b5b610e108014606057605f6082565b5b620151808014607057606f6082565b5b62093a808014608057607f6082565b5b565b7f4e487b7100000000000000000000000000000000000000000000000000000000600052600160045260246000fdfea26469706673582212206e5600294fe1d5136bd814eab61083a6d1bd4588ed1af20a188c08b05c5a9ecf64736f6c63430008070033",
			"opcodes": "PUSH1 0x80 PUSH1 0x40 MSTORE CALLVALUE DUP1 ISZERO PUSH2 0x10 JUMPI PUSH1 0x0 DUP1 REVERT JUMPDEST POP PUSH1 0xE7 DUP1 PUSH2 0x1F PUSH1 0x0 CODECOPY PUSH1 0x0 RETURN INVALID PUSH1 0x80 PUSH1 0x40 MSTORE CALLVALUE DUP1 ISZERO PUSH1 0xF JUMPI PUSH1 0x0 DUP1 REVERT JUMPDEST POP PUSH1 0x4 CALLDATASIZE LT PUSH1 0x28 JUMPI PUSH1 0x0 CALLDATALOAD PUSH1 0xE0 SHR DUP1 PUSH4 0x9B92A9E8 EQ PUSH1 0x2D JUMPI JUMPDEST PUSH1 0x0 DUP1 REVERT JUMPDEST PUSH1 0x33 PUSH1 0x35 JUMP JUMPDEST STOP JUMPDEST PUSH1 0x1 DUP1 EQ PUSH1 0x43 JUMPI PUSH1 0x42 PUSH1 0x82 JUMP JUMPDEST JUMPDEST PUSH1 0x3C DUP1 EQ PUSH1 0x51 JUMPI PUSH1 0x50 PUSH1 0x82 JUMP JUMPDEST JUMPDEST PUSH2 0xE10 DUP1 EQ PUSH1 0x60 JUMPI PUSH1 0x5F PUSH1 0x82 JUMP JUMPDEST JUMPDEST PUSH3 0x15180 DUP1 EQ PUSH1 0x70 JUMPI PUSH1 0x6F PUSH1 0x82 JUMP JUMPDEST JUMPDEST PUSH3 0x93A80 DUP1 EQ PUSH1 0x80 JUMPI PUSH1 0x7F PUSH1 0x82 JUMP JUMPDEST JUMPDEST JUMP JUMPDEST PUSH32 0x4E487B7100000000000000000000000000000000000000000000000000000000 PUSH1 0x0 MSTORE PUSH1 0x1 PUSH1 0x4 MSTORE PUSH1 0x24 PUSH1 0x0 REVERT INVALID LOG2 PUSH5 0x6970667358 0x22 SLT KECCAK256 PUSH15 0x5600294FE1D5136BD814EAB61083A6 0xD1 0xBD GASLIMIT DUP9 0xED BYTE CALLCODE EXP XOR DUP13 ADDMOD 0xB0 0x5C GAS SWAP15 0xCF PUSH5 0x736F6C6343 STOP ADDMOD SMOD STOP CALLER "
		},
		"gasEstimates": {
			"creation": {
				"codeDepositCost": "46200",
				"executionCost": "99",
				"totalCost": "46299"
			},
			"external": {
				"TimeUnitExample()": "237"
			}
		},
		"methodIdentifiers": {
			"TimeUnitExample()": "9b92a9e8"
		}
	},
	"abi": [
		{
			"inputs": [],
			"name": "TimeUnitExample",
			"outputs": [],
			"stateMutability": "pure",
			"type": "function"
		}
	]
}