{
	"Ep14/math.sol": {
		"Math": {
			"abi": [
				{
					"inputs": [
						{
							"internalType": "uint256",
							"name": "value",
							"type": "uint256"
						}
					],
					"name": "checkOdd",
					"outputs": [
						{
							"internalType": "bool",
							"name": "",
							"type": "bool"
						}
					],
					"stateMutability": "pure",
					"type": "function"
				}
			],
			"devdoc": {
				"kind": "dev",
				"methods": {},
				"version": 1
			},
			"evm": {
				"assembly": "    /* \"Ep14/math.sol\":62:281  library Math {\r... */\n  dataSize(sub_0)\n  dataOffset(sub_0)\n  0x0b\n  dup3\n  dup3\n  dup3\n  codecopy\n  dup1\n  mload\n  0x00\n  byte\n  0x73\n  eq\n  tag_1\n  jumpi\n  mstore(0x00, 0x4e487b7100000000000000000000000000000000000000000000000000000000)\n  mstore(0x04, 0x00)\n  revert(0x00, 0x24)\ntag_1:\n  mstore(0x00, address)\n  0x73\n  dup2\n  mstore8\n  dup3\n  dup2\n  return\nstop\n\nsub_0: assembly {\n        /* \"Ep14/math.sol\":62:281  library Math {\r... */\n      eq(address, deployTimeAddress())\n      mstore(0x40, 0x80)\n      jumpi(tag_1, lt(calldatasize, 0x04))\n      shr(0xe0, calldataload(0x00))\n      dup1\n      0xbf024365\n      eq\n      tag_2\n      jumpi\n    tag_1:\n      0x00\n      dup1\n      revert\n        /* \"Ep14/math.sol\":82:278  function checkOdd(uint value) public pure returns(bool) {\r... */\n    tag_2:\n      tag_3\n      0x04\n      dup1\n      calldatasize\n      sub\n      dup2\n      add\n      swap1\n      tag_4\n      swap2\n      swap1\n      tag_5\n      jump\t// in\n    tag_4:\n      tag_6\n      jump\t// in\n    tag_3:\n      mload(0x40)\n      tag_7\n      swap2\n      swap1\n      tag_8\n      jump\t// in\n    tag_7:\n      mload(0x40)\n      dup1\n      swap2\n      sub\n      swap1\n      return\n    tag_6:\n        /* \"Ep14/math.sol\":132:136  bool */\n      0x00\n        /* \"Ep14/math.sol\":149:163  uint remainder */\n      dup1\n        /* \"Ep14/math.sol\":174:175  2 */\n      0x02\n        /* \"Ep14/math.sol\":166:171  value */\n      dup4\n        /* \"Ep14/math.sol\":166:175  value % 2 */\n      tag_10\n      swap2\n      swap1\n      tag_11\n      jump\t// in\n    tag_10:\n        /* \"Ep14/math.sol\":149:175  uint remainder = value % 2 */\n      swap1\n      pop\n        /* \"Ep14/math.sol\":202:203  0 */\n      0x00\n        /* \"Ep14/math.sol\":191:200  remainder */\n      dup2\n        /* \"Ep14/math.sol\":191:203  remainder!=0 */\n      eq\n        /* \"Ep14/math.sol\":188:270  if(remainder!=0)\r... */\n      tag_12\n      jumpi\n        /* \"Ep14/math.sol\":225:229  true */\n      0x01\n        /* \"Ep14/math.sol\":218:229  return true */\n      swap2\n      pop\n      pop\n      jump(tag_9)\n        /* \"Ep14/math.sol\":188:270  if(remainder!=0)\r... */\n    tag_12:\n        /* \"Ep14/math.sol\":265:270  false */\n      0x00\n        /* \"Ep14/math.sol\":258:270  return false */\n      swap2\n      pop\n      pop\n        /* \"Ep14/math.sol\":82:278  function checkOdd(uint value) public pure returns(bool) {\r... */\n    tag_9:\n      swap2\n      swap1\n      pop\n      jump\t// out\n        /* \"#utility.yul\":7:146   */\n    tag_15:\n        /* \"#utility.yul\":53:58   */\n      0x00\n        /* \"#utility.yul\":91:97   */\n      dup2\n        /* \"#utility.yul\":78:98   */\n      calldataload\n        /* \"#utility.yul\":69:98   */\n      swap1\n      pop\n        /* \"#utility.yul\":107:140   */\n      tag_17\n        /* \"#utility.yul\":134:139   */\n      dup2\n        /* \"#utility.yul\":107:140   */\n      tag_18\n      jump\t// in\n    tag_17:\n        /* \"#utility.yul\":7:146   */\n      swap3\n      swap2\n      pop\n      pop\n      jump\t// out\n        /* \"#utility.yul\":152:481   */\n    tag_5:\n        /* \"#utility.yul\":211:217   */\n      0x00\n        /* \"#utility.yul\":260:262   */\n      0x20\n        /* \"#utility.yul\":248:257   */\n      dup3\n        /* \"#utility.yul\":239:246   */\n      dup5\n        /* \"#utility.yul\":235:258   */\n      sub\n        /* \"#utility.yul\":231:263   */\n      slt\n        /* \"#utility.yul\":228:347   */\n      iszero\n      tag_20\n      jumpi\n        /* \"#utility.yul\":266:345   */\n      tag_21\n      tag_22\n      jump\t// in\n    tag_21:\n        /* \"#utility.yul\":228:347   */\n    tag_20:\n        /* \"#utility.yul\":386:387   */\n      0x00\n        /* \"#utility.yul\":411:464   */\n      tag_23\n        /* \"#utility.yul\":456:463   */\n      dup5\n        /* \"#utility.yul\":447:453   */\n      dup3\n        /* \"#utility.yul\":436:445   */\n      dup6\n        /* \"#utility.yul\":432:454   */\n      add\n        /* \"#utility.yul\":411:464   */\n      tag_15\n      jump\t// in\n    tag_23:\n        /* \"#utility.yul\":401:464   */\n      swap2\n      pop\n        /* \"#utility.yul\":357:474   */\n      pop\n        /* \"#utility.yul\":152:481   */\n      swap3\n      swap2\n      pop\n      pop\n      jump\t// out\n        /* \"#utility.yul\":487:604   */\n    tag_24:\n        /* \"#utility.yul\":576:597   */\n      tag_26\n        /* \"#utility.yul\":591:596   */\n      dup2\n        /* \"#utility.yul\":576:597   */\n      tag_27\n      jump\t// in\n    tag_26:\n        /* \"#utility.yul\":571:574   */\n      dup3\n        /* \"#utility.yul\":564:598   */\n      mstore\n        /* \"#utility.yul\":487:604   */\n      pop\n      pop\n      jump\t// out\n        /* \"#utility.yul\":610:836   */\n    tag_8:\n        /* \"#utility.yul\":705:709   */\n      0x00\n        /* \"#utility.yul\":743:745   */\n      0x20\n        /* \"#utility.yul\":732:741   */\n      dup3\n        /* \"#utility.yul\":728:746   */\n      add\n        /* \"#utility.yul\":720:746   */\n      swap1\n      pop\n        /* \"#utility.yul\":756:829   */\n      tag_29\n        /* \"#utility.yul\":826:827   */\n      0x00\n        /* \"#utility.yul\":815:824   */\n      dup4\n        /* \"#utility.yul\":811:828   */\n      add\n        /* \"#utility.yul\":802:808   */\n      dup5\n        /* \"#utility.yul\":756:829   */\n      tag_24\n      jump\t// in\n    tag_29:\n        /* \"#utility.yul\":610:836   */\n      swap3\n      swap2\n      pop\n      pop\n      jump\t// out\n        /* \"#utility.yul\":923:1013   */\n    tag_27:\n        /* \"#utility.yul\":957:964   */\n      0x00\n        /* \"#utility.yul\":1000:1005   */\n      dup2\n        /* \"#utility.yul\":993:1006   */\n      iszero\n        /* \"#utility.yul\":986:1007   */\n      iszero\n        /* \"#utility.yul\":975:1007   */\n      swap1\n      pop\n        /* \"#utility.yul\":923:1013   */\n      swap2\n      swap1\n      pop\n      jump\t// out\n        /* \"#utility.yul\":1019:1096   */\n    tag_33:\n        /* \"#utility.yul\":1056:1063   */\n      0x00\n        /* \"#utility.yul\":1085:1090   */\n      dup2\n        /* \"#utility.yul\":1074:1090   */\n      swap1\n      pop\n        /* \"#utility.yul\":1019:1096   */\n      swap2\n      swap1\n      pop\n      jump\t// out\n        /* \"#utility.yul\":1102:1278   */\n    tag_11:\n        /* \"#utility.yul\":1134:1135   */\n      0x00\n        /* \"#utility.yul\":1151:1171   */\n      tag_36\n        /* \"#utility.yul\":1169:1170   */\n      dup3\n        /* \"#utility.yul\":1151:1171   */\n      tag_33\n      jump\t// in\n    tag_36:\n        /* \"#utility.yul\":1146:1171   */\n      swap2\n      pop\n        /* \"#utility.yul\":1185:1205   */\n      tag_37\n        /* \"#utility.yul\":1203:1204   */\n      dup4\n        /* \"#utility.yul\":1185:1205   */\n      tag_33\n      jump\t// in\n    tag_37:\n        /* \"#utility.yul\":1180:1205   */\n      swap3\n      pop\n        /* \"#utility.yul\":1224:1225   */\n      dup3\n        /* \"#utility.yul\":1214:1249   */\n      tag_38\n      jumpi\n        /* \"#utility.yul\":1229:1247   */\n      tag_39\n      tag_40\n      jump\t// in\n    tag_39:\n        /* \"#utility.yul\":1214:1249   */\n    tag_38:\n        /* \"#utility.yul\":1270:1271   */\n      dup3\n        /* \"#utility.yul\":1267:1268   */\n      dup3\n        /* \"#utility.yul\":1263:1272   */\n      mod\n        /* \"#utility.yul\":1258:1272   */\n      swap1\n      pop\n        /* \"#utility.yul\":1102:1278   */\n      swap3\n      swap2\n      pop\n      pop\n      jump\t// out\n        /* \"#utility.yul\":1284:1464   */\n    tag_40:\n        /* \"#utility.yul\":1332:1409   */\n      0x4e487b7100000000000000000000000000000000000000000000000000000000\n        /* \"#utility.yul\":1329:1330   */\n      0x00\n        /* \"#utility.yul\":1322:1410   */\n      mstore\n        /* \"#utility.yul\":1429:1433   */\n      0x12\n        /* \"#utility.yul\":1426:1427   */\n      0x04\n        /* \"#utility.yul\":1419:1434   */\n      mstore\n        /* \"#utility.yul\":1453:1457   */\n      0x24\n        /* \"#utility.yul\":1450:1451   */\n      0x00\n        /* \"#utility.yul\":1443:1458   */\n      revert\n        /* \"#utility.yul\":1593:1710   */\n    tag_22:\n        /* \"#utility.yul\":1702:1703   */\n      0x00\n        /* \"#utility.yul\":1699:1700   */\n      dup1\n        /* \"#utility.yul\":1692:1704   */\n      revert\n        /* \"#utility.yul\":1716:1838   */\n    tag_18:\n        /* \"#utility.yul\":1789:1813   */\n      tag_46\n        /* \"#utility.yul\":1807:1812   */\n      dup2\n        /* \"#utility.yul\":1789:1813   */\n      tag_33\n      jump\t// in\n    tag_46:\n        /* \"#utility.yul\":1782:1787   */\n      dup2\n        /* \"#utility.yul\":1779:1814   */\n      eq\n        /* \"#utility.yul\":1769:1832   */\n      tag_47\n      jumpi\n        /* \"#utility.yul\":1828:1829   */\n      0x00\n        /* \"#utility.yul\":1825:1826   */\n      dup1\n        /* \"#utility.yul\":1818:1830   */\n      revert\n        /* \"#utility.yul\":1769:1832   */\n    tag_47:\n        /* \"#utility.yul\":1716:1838   */\n      pop\n      jump\t// out\n\n    auxdata: 0xa26469706673582212200c2012a8da963734bbc3f4354dacd27f310915fdaeb0b0be47cf63665cf5695364736f6c63430008070033\n}\n",
				"bytecode": {
					"linkReferences": {},
					"object": "6101cd610053600b82828239805160001a607314610046577f4e487b7100000000000000000000000000000000000000000000000000000000600052600060045260246000fd5b30600052607381538281f3fe73000000000000000000000000000000000000000030146080604052600436106100355760003560e01c8063bf0243651461003a575b600080fd5b610054600480360381019061004f91906100ae565b61006a565b60405161006191906100ea565b60405180910390f35b60008060028361007a919061011b565b90506000811461008e576001915050610094565b60009150505b919050565b6000813590506100a881610180565b92915050565b6000602082840312156100c4576100c361017b565b5b60006100d284828501610099565b91505092915050565b6100e481610105565b82525050565b60006020820190506100ff60008301846100db565b92915050565b60008115159050919050565b6000819050919050565b600061012682610111565b915061013183610111565b9250826101415761014061014c565b5b828206905092915050565b7f4e487b7100000000000000000000000000000000000000000000000000000000600052601260045260246000fd5b600080fd5b61018981610111565b811461019457600080fd5b5056fea26469706673582212200c2012a8da963734bbc3f4354dacd27f310915fdaeb0b0be47cf63665cf5695364736f6c63430008070033",
					"opcodes": "PUSH2 0x1CD PUSH2 0x53 PUSH1 0xB DUP3 DUP3 DUP3 CODECOPY DUP1 MLOAD PUSH1 0x0 BYTE PUSH1 0x73 EQ PUSH2 0x46 JUMPI PUSH32 0x4E487B7100000000000000000000000000000000000000000000000000000000 PUSH1 0x0 MSTORE PUSH1 0x0 PUSH1 0x4 MSTORE PUSH1 0x24 PUSH1 0x0 REVERT JUMPDEST ADDRESS PUSH1 0x0 MSTORE PUSH1 0x73 DUP2 MSTORE8 DUP3 DUP2 RETURN INVALID PUSH20 0x0 ADDRESS EQ PUSH1 0x80 PUSH1 0x40 MSTORE PUSH1 0x4 CALLDATASIZE LT PUSH2 0x35 JUMPI PUSH1 0x0 CALLDATALOAD PUSH1 0xE0 SHR DUP1 PUSH4 0xBF024365 EQ PUSH2 0x3A JUMPI JUMPDEST PUSH1 0x0 DUP1 REVERT JUMPDEST PUSH2 0x54 PUSH1 0x4 DUP1 CALLDATASIZE SUB DUP2 ADD SWAP1 PUSH2 0x4F SWAP2 SWAP1 PUSH2 0xAE JUMP JUMPDEST PUSH2 0x6A JUMP JUMPDEST PUSH1 0x40 MLOAD PUSH2 0x61 SWAP2 SWAP1 PUSH2 0xEA JUMP JUMPDEST PUSH1 0x40 MLOAD DUP1 SWAP2 SUB SWAP1 RETURN JUMPDEST PUSH1 0x0 DUP1 PUSH1 0x2 DUP4 PUSH2 0x7A SWAP2 SWAP1 PUSH2 0x11B JUMP JUMPDEST SWAP1 POP PUSH1 0x0 DUP2 EQ PUSH2 0x8E JUMPI PUSH1 0x1 SWAP2 POP POP PUSH2 0x94 JUMP JUMPDEST PUSH1 0x0 SWAP2 POP POP JUMPDEST SWAP2 SWAP1 POP JUMP JUMPDEST PUSH1 0x0 DUP2 CALLDATALOAD SWAP1 POP PUSH2 0xA8 DUP2 PUSH2 0x180 JUMP JUMPDEST SWAP3 SWAP2 POP POP JUMP JUMPDEST PUSH1 0x0 PUSH1 0x20 DUP3 DUP5 SUB SLT ISZERO PUSH2 0xC4 JUMPI PUSH2 0xC3 PUSH2 0x17B JUMP JUMPDEST JUMPDEST PUSH1 0x0 PUSH2 0xD2 DUP5 DUP3 DUP6 ADD PUSH2 0x99 JUMP JUMPDEST SWAP2 POP POP SWAP3 SWAP2 POP POP JUMP JUMPDEST PUSH2 0xE4 DUP2 PUSH2 0x105 JUMP JUMPDEST DUP3 MSTORE POP POP JUMP JUMPDEST PUSH1 0x0 PUSH1 0x20 DUP3 ADD SWAP1 POP PUSH2 0xFF PUSH1 0x0 DUP4 ADD DUP5 PUSH2 0xDB JUMP JUMPDEST SWAP3 SWAP2 POP POP JUMP JUMPDEST PUSH1 0x0 DUP2 ISZERO ISZERO SWAP1 POP SWAP2 SWAP1 POP JUMP JUMPDEST PUSH1 0x0 DUP2 SWAP1 POP SWAP2 SWAP1 POP JUMP JUMPDEST PUSH1 0x0 PUSH2 0x126 DUP3 PUSH2 0x111 JUMP JUMPDEST SWAP2 POP PUSH2 0x131 DUP4 PUSH2 0x111 JUMP JUMPDEST SWAP3 POP DUP3 PUSH2 0x141 JUMPI PUSH2 0x140 PUSH2 0x14C JUMP JUMPDEST JUMPDEST DUP3 DUP3 MOD SWAP1 POP SWAP3 SWAP2 POP POP JUMP JUMPDEST PUSH32 0x4E487B7100000000000000000000000000000000000000000000000000000000 PUSH1 0x0 MSTORE PUSH1 0x12 PUSH1 0x4 MSTORE PUSH1 0x24 PUSH1 0x0 REVERT JUMPDEST PUSH1 0x0 DUP1 REVERT JUMPDEST PUSH2 0x189 DUP2 PUSH2 0x111 JUMP JUMPDEST DUP2 EQ PUSH2 0x194 JUMPI PUSH1 0x0 DUP1 REVERT JUMPDEST POP JUMP INVALID LOG2 PUSH5 0x6970667358 0x22 SLT KECCAK256 0xC KECCAK256 SLT 0xA8 0xDA SWAP7 CALLDATACOPY CALLVALUE 0xBB 0xC3 DELEGATECALL CALLDATALOAD 0x4D 0xAC 0xD2 PUSH32 0x310915FDAEB0B0BE47CF63665CF5695364736F6C634300080700330000000000 "
				},
				"gasEstimates": {
					"creation": {
						"codeDepositCost": "92200",
						"executionCost": "166",
						"totalCost": "92366"
					},
					"external": {
						"checkOdd(uint256)": "infinite"
					}
				},
				"methodIdentifiers": {
					"checkOdd(uint256)": "bf024365"
				}
			},
			"storageLayout": {
				"storage": [],
				"types": null
			},
			"userdoc": {
				"kind": "user",
				"methods": {},
				"version": 1
			}
		}
	}
}