{
	"Ep14/search.sol": {
		"Search": {
			"abi": [
				{
					"inputs": [
						{
							"internalType": "string",
							"name": "str",
							"type": "string"
						}
					],
					"name": "indexOf",
					"outputs": [
						{
							"internalType": "uint256",
							"name": "",
							"type": "uint256"
						}
					],
					"stateMutability": "pure",
					"type": "function"
				}
			],
			"devdoc": {
				"kind": "dev",
				"methods": {},
				"version": 1
			},
			"evm": {
				"assembly": "    /* \"Ep14/search.sol\":62:159  library Search {\r... */\n  dataSize(sub_0)\n  dataOffset(sub_0)\n  0x0b\n  dup3\n  dup3\n  dup3\n  codecopy\n  dup1\n  mload\n  0x00\n  byte\n  0x73\n  eq\n  tag_1\n  jumpi\n  mstore(0x00, 0x4e487b7100000000000000000000000000000000000000000000000000000000)\n  mstore(0x04, 0x00)\n  revert(0x00, 0x24)\ntag_1:\n  mstore(0x00, address)\n  0x73\n  dup2\n  mstore8\n  dup3\n  dup2\n  return\nstop\n\nsub_0: assembly {\n        /* \"Ep14/search.sol\":62:159  library Search {\r... */\n      eq(address, deployTimeAddress())\n      mstore(0x40, 0x80)\n      jumpi(tag_1, lt(calldatasize, 0x04))\n      shr(0xe0, calldataload(0x00))\n      dup1\n      0xc8f64ed7\n      eq\n      tag_2\n      jumpi\n    tag_1:\n      0x00\n      dup1\n      revert\n        /* \"Ep14/search.sol\":84:156  function indexOf(string memory str) public pure returns(uint) {\r... */\n    tag_2:\n      tag_3\n      0x04\n      dup1\n      calldatasize\n      sub\n      dup2\n      add\n      swap1\n      tag_4\n      swap2\n      swap1\n      tag_5\n      jump\t// in\n    tag_4:\n      tag_6\n      jump\t// in\n    tag_3:\n      mload(0x40)\n      tag_7\n      swap2\n      swap1\n      tag_8\n      jump\t// in\n    tag_7:\n      mload(0x40)\n      dup1\n      swap2\n      sub\n      swap1\n      return\n    tag_6:\n        /* \"Ep14/search.sol\":140:144  uint */\n      0x00\n        /* \"Ep14/search.sol\":84:156  function indexOf(string memory str) public pure returns(uint) {\r... */\n      swap2\n      swap1\n      pop\n      jump\t// out\n        /* \"#utility.yul\":7:419   */\n    tag_11:\n        /* \"#utility.yul\":85:90   */\n      0x00\n        /* \"#utility.yul\":110:176   */\n      tag_13\n        /* \"#utility.yul\":126:175   */\n      tag_14\n        /* \"#utility.yul\":168:174   */\n      dup5\n        /* \"#utility.yul\":126:175   */\n      tag_15\n      jump\t// in\n    tag_14:\n        /* \"#utility.yul\":110:176   */\n      tag_16\n      jump\t// in\n    tag_13:\n        /* \"#utility.yul\":101:176   */\n      swap1\n      pop\n        /* \"#utility.yul\":199:205   */\n      dup3\n        /* \"#utility.yul\":192:197   */\n      dup2\n        /* \"#utility.yul\":185:206   */\n      mstore\n        /* \"#utility.yul\":237:241   */\n      0x20\n        /* \"#utility.yul\":230:235   */\n      dup2\n        /* \"#utility.yul\":226:242   */\n      add\n        /* \"#utility.yul\":275:278   */\n      dup5\n        /* \"#utility.yul\":266:272   */\n      dup5\n        /* \"#utility.yul\":261:264   */\n      dup5\n        /* \"#utility.yul\":257:273   */\n      add\n        /* \"#utility.yul\":254:279   */\n      gt\n        /* \"#utility.yul\":251:363   */\n      iszero\n      tag_17\n      jumpi\n        /* \"#utility.yul\":282:361   */\n      tag_18\n      tag_19\n      jump\t// in\n    tag_18:\n        /* \"#utility.yul\":251:363   */\n    tag_17:\n        /* \"#utility.yul\":372:413   */\n      tag_20\n        /* \"#utility.yul\":406:412   */\n      dup5\n        /* \"#utility.yul\":401:404   */\n      dup3\n        /* \"#utility.yul\":396:399   */\n      dup6\n        /* \"#utility.yul\":372:413   */\n      tag_21\n      jump\t// in\n    tag_20:\n        /* \"#utility.yul\":91:419   */\n      pop\n        /* \"#utility.yul\":7:419   */\n      swap4\n      swap3\n      pop\n      pop\n      pop\n      jump\t// out\n        /* \"#utility.yul\":439:779   */\n    tag_22:\n        /* \"#utility.yul\":495:500   */\n      0x00\n        /* \"#utility.yul\":544:547   */\n      dup3\n        /* \"#utility.yul\":537:541   */\n      0x1f\n        /* \"#utility.yul\":529:535   */\n      dup4\n        /* \"#utility.yul\":525:542   */\n      add\n        /* \"#utility.yul\":521:548   */\n      slt\n        /* \"#utility.yul\":511:633   */\n      tag_24\n      jumpi\n        /* \"#utility.yul\":552:631   */\n      tag_25\n      tag_26\n      jump\t// in\n    tag_25:\n        /* \"#utility.yul\":511:633   */\n    tag_24:\n        /* \"#utility.yul\":669:675   */\n      dup2\n        /* \"#utility.yul\":656:676   */\n      calldataload\n        /* \"#utility.yul\":694:773   */\n      tag_27\n        /* \"#utility.yul\":769:772   */\n      dup5\n        /* \"#utility.yul\":761:767   */\n      dup3\n        /* \"#utility.yul\":754:758   */\n      0x20\n        /* \"#utility.yul\":746:752   */\n      dup7\n        /* \"#utility.yul\":742:759   */\n      add\n        /* \"#utility.yul\":694:773   */\n      tag_11\n      jump\t// in\n    tag_27:\n        /* \"#utility.yul\":685:773   */\n      swap2\n      pop\n        /* \"#utility.yul\":501:779   */\n      pop\n        /* \"#utility.yul\":439:779   */\n      swap3\n      swap2\n      pop\n      pop\n      jump\t// out\n        /* \"#utility.yul\":785:1294   */\n    tag_5:\n        /* \"#utility.yul\":854:860   */\n      0x00\n        /* \"#utility.yul\":903:905   */\n      0x20\n        /* \"#utility.yul\":891:900   */\n      dup3\n        /* \"#utility.yul\":882:889   */\n      dup5\n        /* \"#utility.yul\":878:901   */\n      sub\n        /* \"#utility.yul\":874:906   */\n      slt\n        /* \"#utility.yul\":871:990   */\n      iszero\n      tag_29\n      jumpi\n        /* \"#utility.yul\":909:988   */\n      tag_30\n      tag_31\n      jump\t// in\n    tag_30:\n        /* \"#utility.yul\":871:990   */\n    tag_29:\n        /* \"#utility.yul\":1057:1058   */\n      0x00\n        /* \"#utility.yul\":1046:1055   */\n      dup3\n        /* \"#utility.yul\":1042:1059   */\n      add\n        /* \"#utility.yul\":1029:1060   */\n      calldataload\n        /* \"#utility.yul\":1087:1105   */\n      0xffffffffffffffff\n        /* \"#utility.yul\":1079:1085   */\n      dup2\n        /* \"#utility.yul\":1076:1106   */\n      gt\n        /* \"#utility.yul\":1073:1190   */\n      iszero\n      tag_32\n      jumpi\n        /* \"#utility.yul\":1109:1188   */\n      tag_33\n      tag_34\n      jump\t// in\n    tag_33:\n        /* \"#utility.yul\":1073:1190   */\n    tag_32:\n        /* \"#utility.yul\":1214:1277   */\n      tag_35\n        /* \"#utility.yul\":1269:1276   */\n      dup5\n        /* \"#utility.yul\":1260:1266   */\n      dup3\n        /* \"#utility.yul\":1249:1258   */\n      dup6\n        /* \"#utility.yul\":1245:1267   */\n      add\n        /* \"#utility.yul\":1214:1277   */\n      tag_22\n      jump\t// in\n    tag_35:\n        /* \"#utility.yul\":1204:1277   */\n      swap2\n      pop\n        /* \"#utility.yul\":1000:1287   */\n      pop\n        /* \"#utility.yul\":785:1294   */\n      swap3\n      swap2\n      pop\n      pop\n      jump\t// out\n        /* \"#utility.yul\":1300:1426   */\n    tag_36:\n        /* \"#utility.yul\":1395:1419   */\n      tag_38\n        /* \"#utility.yul\":1413:1418   */\n      dup2\n        /* \"#utility.yul\":1395:1419   */\n      tag_39\n      jump\t// in\n    tag_38:\n        /* \"#utility.yul\":1390:1393   */\n      dup3\n        /* \"#utility.yul\":1383:1420   */\n      mstore\n        /* \"#utility.yul\":1300:1426   */\n      pop\n      pop\n      jump\t// out\n        /* \"#utility.yul\":1432:1670   */\n    tag_8:\n        /* \"#utility.yul\":1533:1537   */\n      0x00\n        /* \"#utility.yul\":1571:1573   */\n      0x20\n        /* \"#utility.yul\":1560:1569   */\n      dup3\n        /* \"#utility.yul\":1556:1574   */\n      add\n        /* \"#utility.yul\":1548:1574   */\n      swap1\n      pop\n        /* \"#utility.yul\":1584:1663   */\n      tag_41\n        /* \"#utility.yul\":1660:1661   */\n      0x00\n        /* \"#utility.yul\":1649:1658   */\n      dup4\n        /* \"#utility.yul\":1645:1662   */\n      add\n        /* \"#utility.yul\":1636:1642   */\n      dup5\n        /* \"#utility.yul\":1584:1663   */\n      tag_36\n      jump\t// in\n    tag_41:\n        /* \"#utility.yul\":1432:1670   */\n      swap3\n      swap2\n      pop\n      pop\n      jump\t// out\n        /* \"#utility.yul\":1676:1805   */\n    tag_16:\n        /* \"#utility.yul\":1710:1716   */\n      0x00\n        /* \"#utility.yul\":1737:1757   */\n      tag_43\n      tag_44\n      jump\t// in\n    tag_43:\n        /* \"#utility.yul\":1727:1757   */\n      swap1\n      pop\n        /* \"#utility.yul\":1766:1799   */\n      tag_45\n        /* \"#utility.yul\":1794:1798   */\n      dup3\n        /* \"#utility.yul\":1786:1792   */\n      dup3\n        /* \"#utility.yul\":1766:1799   */\n      tag_46\n      jump\t// in\n    tag_45:\n        /* \"#utility.yul\":1676:1805   */\n      swap2\n      swap1\n      pop\n      jump\t// out\n        /* \"#utility.yul\":1811:1886   */\n    tag_44:\n        /* \"#utility.yul\":1844:1850   */\n      0x00\n        /* \"#utility.yul\":1877:1879   */\n      0x40\n        /* \"#utility.yul\":1871:1880   */\n      mload\n        /* \"#utility.yul\":1861:1880   */\n      swap1\n      pop\n        /* \"#utility.yul\":1811:1886   */\n      swap1\n      jump\t// out\n        /* \"#utility.yul\":1892:2200   */\n    tag_15:\n        /* \"#utility.yul\":1954:1958   */\n      0x00\n        /* \"#utility.yul\":2044:2062   */\n      0xffffffffffffffff\n        /* \"#utility.yul\":2036:2042   */\n      dup3\n        /* \"#utility.yul\":2033:2063   */\n      gt\n        /* \"#utility.yul\":2030:2086   */\n      iszero\n      tag_49\n      jumpi\n        /* \"#utility.yul\":2066:2084   */\n      tag_50\n      tag_51\n      jump\t// in\n    tag_50:\n        /* \"#utility.yul\":2030:2086   */\n    tag_49:\n        /* \"#utility.yul\":2104:2133   */\n      tag_52\n        /* \"#utility.yul\":2126:2132   */\n      dup3\n        /* \"#utility.yul\":2104:2133   */\n      tag_53\n      jump\t// in\n    tag_52:\n        /* \"#utility.yul\":2096:2133   */\n      swap1\n      pop\n        /* \"#utility.yul\":2188:2192   */\n      0x20\n        /* \"#utility.yul\":2182:2186   */\n      dup2\n        /* \"#utility.yul\":2178:2193   */\n      add\n        /* \"#utility.yul\":2170:2193   */\n      swap1\n      pop\n        /* \"#utility.yul\":1892:2200   */\n      swap2\n      swap1\n      pop\n      jump\t// out\n        /* \"#utility.yul\":2206:2283   */\n    tag_39:\n        /* \"#utility.yul\":2243:2250   */\n      0x00\n        /* \"#utility.yul\":2272:2277   */\n      dup2\n        /* \"#utility.yul\":2261:2277   */\n      swap1\n      pop\n        /* \"#utility.yul\":2206:2283   */\n      swap2\n      swap1\n      pop\n      jump\t// out\n        /* \"#utility.yul\":2289:2443   */\n    tag_21:\n        /* \"#utility.yul\":2373:2379   */\n      dup3\n        /* \"#utility.yul\":2368:2371   */\n      dup2\n        /* \"#utility.yul\":2363:2366   */\n      dup4\n        /* \"#utility.yul\":2350:2380   */\n      calldatacopy\n        /* \"#utility.yul\":2435:2436   */\n      0x00\n        /* \"#utility.yul\":2426:2432   */\n      dup4\n        /* \"#utility.yul\":2421:2424   */\n      dup4\n        /* \"#utility.yul\":2417:2433   */\n      add\n        /* \"#utility.yul\":2410:2437   */\n      mstore\n        /* \"#utility.yul\":2289:2443   */\n      pop\n      pop\n      pop\n      jump\t// out\n        /* \"#utility.yul\":2449:2730   */\n    tag_46:\n        /* \"#utility.yul\":2532:2559   */\n      tag_57\n        /* \"#utility.yul\":2554:2558   */\n      dup3\n        /* \"#utility.yul\":2532:2559   */\n      tag_53\n      jump\t// in\n    tag_57:\n        /* \"#utility.yul\":2524:2530   */\n      dup2\n        /* \"#utility.yul\":2520:2560   */\n      add\n        /* \"#utility.yul\":2662:2668   */\n      dup2\n        /* \"#utility.yul\":2650:2660   */\n      dup2\n        /* \"#utility.yul\":2647:2669   */\n      lt\n        /* \"#utility.yul\":2626:2644   */\n      0xffffffffffffffff\n        /* \"#utility.yul\":2614:2624   */\n      dup3\n        /* \"#utility.yul\":2611:2645   */\n      gt\n        /* \"#utility.yul\":2608:2670   */\n      or\n        /* \"#utility.yul\":2605:2693   */\n      iszero\n      tag_58\n      jumpi\n        /* \"#utility.yul\":2673:2691   */\n      tag_59\n      tag_51\n      jump\t// in\n    tag_59:\n        /* \"#utility.yul\":2605:2693   */\n    tag_58:\n        /* \"#utility.yul\":2713:2723   */\n      dup1\n        /* \"#utility.yul\":2709:2711   */\n      0x40\n        /* \"#utility.yul\":2702:2724   */\n      mstore\n        /* \"#utility.yul\":2492:2730   */\n      pop\n        /* \"#utility.yul\":2449:2730   */\n      pop\n      pop\n      jump\t// out\n        /* \"#utility.yul\":2736:2916   */\n    tag_51:\n        /* \"#utility.yul\":2784:2861   */\n      0x4e487b7100000000000000000000000000000000000000000000000000000000\n        /* \"#utility.yul\":2781:2782   */\n      0x00\n        /* \"#utility.yul\":2774:2862   */\n      mstore\n        /* \"#utility.yul\":2881:2885   */\n      0x41\n        /* \"#utility.yul\":2878:2879   */\n      0x04\n        /* \"#utility.yul\":2871:2886   */\n      mstore\n        /* \"#utility.yul\":2905:2909   */\n      0x24\n        /* \"#utility.yul\":2902:2903   */\n      0x00\n        /* \"#utility.yul\":2895:2910   */\n      revert\n        /* \"#utility.yul\":2922:3039   */\n    tag_26:\n        /* \"#utility.yul\":3031:3032   */\n      0x00\n        /* \"#utility.yul\":3028:3029   */\n      dup1\n        /* \"#utility.yul\":3021:3033   */\n      revert\n        /* \"#utility.yul\":3045:3162   */\n    tag_19:\n        /* \"#utility.yul\":3154:3155   */\n      0x00\n        /* \"#utility.yul\":3151:3152   */\n      dup1\n        /* \"#utility.yul\":3144:3156   */\n      revert\n        /* \"#utility.yul\":3168:3285   */\n    tag_34:\n        /* \"#utility.yul\":3277:3278   */\n      0x00\n        /* \"#utility.yul\":3274:3275   */\n      dup1\n        /* \"#utility.yul\":3267:3279   */\n      revert\n        /* \"#utility.yul\":3291:3408   */\n    tag_31:\n        /* \"#utility.yul\":3400:3401   */\n      0x00\n        /* \"#utility.yul\":3397:3398   */\n      dup1\n        /* \"#utility.yul\":3390:3402   */\n      revert\n        /* \"#utility.yul\":3414:3516   */\n    tag_53:\n        /* \"#utility.yul\":3455:3461   */\n      0x00\n        /* \"#utility.yul\":3506:3508   */\n      0x1f\n        /* \"#utility.yul\":3502:3509   */\n      not\n        /* \"#utility.yul\":3497:3499   */\n      0x1f\n        /* \"#utility.yul\":3490:3495   */\n      dup4\n        /* \"#utility.yul\":3486:3500   */\n      add\n        /* \"#utility.yul\":3482:3510   */\n      and\n        /* \"#utility.yul\":3472:3510   */\n      swap1\n      pop\n        /* \"#utility.yul\":3414:3516   */\n      swap2\n      swap1\n      pop\n      jump\t// out\n\n    auxdata: 0xa2646970667358221220db5e142944e415fbed182d501807910bfa89e133dd6ac6774fb7784d5ed6190d64736f6c63430008070033\n}\n",
				"bytecode": {
					"linkReferences": {},
					"object": "61027e610053600b82828239805160001a607314610046577f4e487b7100000000000000000000000000000000000000000000000000000000600052600060045260246000fd5b30600052607381538281f3fe73000000000000000000000000000000000000000030146080604052600436106100355760003560e01c8063c8f64ed71461003a575b600080fd5b610054600480360381019061004f91906100e1565b61006a565b6040516100619190610139565b60405180910390f35b6000919050565b600061008461007f84610179565b610154565b9050828152602081018484840111156100a05761009f610228565b5b6100ab8482856101b4565b509392505050565b600082601f8301126100c8576100c7610223565b5b81356100d8848260208601610071565b91505092915050565b6000602082840312156100f7576100f6610232565b5b600082013567ffffffffffffffff8111156101155761011461022d565b5b610121848285016100b3565b91505092915050565b610133816101aa565b82525050565b600060208201905061014e600083018461012a565b92915050565b600061015e61016f565b905061016a82826101c3565b919050565b6000604051905090565b600067ffffffffffffffff821115610194576101936101f4565b5b61019d82610237565b9050602081019050919050565b6000819050919050565b82818337600083830152505050565b6101cc82610237565b810181811067ffffffffffffffff821117156101eb576101ea6101f4565b5b80604052505050565b7f4e487b7100000000000000000000000000000000000000000000000000000000600052604160045260246000fd5b600080fd5b600080fd5b600080fd5b600080fd5b6000601f19601f830116905091905056fea2646970667358221220db5e142944e415fbed182d501807910bfa89e133dd6ac6774fb7784d5ed6190d64736f6c63430008070033",
					"opcodes": "PUSH2 0x27E PUSH2 0x53 PUSH1 0xB DUP3 DUP3 DUP3 CODECOPY DUP1 MLOAD PUSH1 0x0 BYTE PUSH1 0x73 EQ PUSH2 0x46 JUMPI PUSH32 0x4E487B7100000000000000000000000000000000000000000000000000000000 PUSH1 0x0 MSTORE PUSH1 0x0 PUSH1 0x4 MSTORE PUSH1 0x24 PUSH1 0x0 REVERT JUMPDEST ADDRESS PUSH1 0x0 MSTORE PUSH1 0x73 DUP2 MSTORE8 DUP3 DUP2 RETURN INVALID PUSH20 0x0 ADDRESS EQ PUSH1 0x80 PUSH1 0x40 MSTORE PUSH1 0x4 CALLDATASIZE LT PUSH2 0x35 JUMPI PUSH1 0x0 CALLDATALOAD PUSH1 0xE0 SHR DUP1 PUSH4 0xC8F64ED7 EQ PUSH2 0x3A JUMPI JUMPDEST PUSH1 0x0 DUP1 REVERT JUMPDEST PUSH2 0x54 PUSH1 0x4 DUP1 CALLDATASIZE SUB DUP2 ADD SWAP1 PUSH2 0x4F SWAP2 SWAP1 PUSH2 0xE1 JUMP JUMPDEST PUSH2 0x6A JUMP JUMPDEST PUSH1 0x40 MLOAD PUSH2 0x61 SWAP2 SWAP1 PUSH2 0x139 JUMP JUMPDEST PUSH1 0x40 MLOAD DUP1 SWAP2 SUB SWAP1 RETURN JUMPDEST PUSH1 0x0 SWAP2 SWAP1 POP JUMP JUMPDEST PUSH1 0x0 PUSH2 0x84 PUSH2 0x7F DUP5 PUSH2 0x179 JUMP JUMPDEST PUSH2 0x154 JUMP JUMPDEST SWAP1 POP DUP3 DUP2 MSTORE PUSH1 0x20 DUP2 ADD DUP5 DUP5 DUP5 ADD GT ISZERO PUSH2 0xA0 JUMPI PUSH2 0x9F PUSH2 0x228 JUMP JUMPDEST JUMPDEST PUSH2 0xAB DUP5 DUP3 DUP6 PUSH2 0x1B4 JUMP JUMPDEST POP SWAP4 SWAP3 POP POP POP JUMP JUMPDEST PUSH1 0x0 DUP3 PUSH1 0x1F DUP4 ADD SLT PUSH2 0xC8 JUMPI PUSH2 0xC7 PUSH2 0x223 JUMP JUMPDEST JUMPDEST DUP2 CALLDATALOAD PUSH2 0xD8 DUP5 DUP3 PUSH1 0x20 DUP7 ADD PUSH2 0x71 JUMP JUMPDEST SWAP2 POP POP SWAP3 SWAP2 POP POP JUMP JUMPDEST PUSH1 0x0 PUSH1 0x20 DUP3 DUP5 SUB SLT ISZERO PUSH2 0xF7 JUMPI PUSH2 0xF6 PUSH2 0x232 JUMP JUMPDEST JUMPDEST PUSH1 0x0 DUP3 ADD CALLDATALOAD PUSH8 0xFFFFFFFFFFFFFFFF DUP2 GT ISZERO PUSH2 0x115 JUMPI PUSH2 0x114 PUSH2 0x22D JUMP JUMPDEST JUMPDEST PUSH2 0x121 DUP5 DUP3 DUP6 ADD PUSH2 0xB3 JUMP JUMPDEST SWAP2 POP POP SWAP3 SWAP2 POP POP JUMP JUMPDEST PUSH2 0x133 DUP2 PUSH2 0x1AA JUMP JUMPDEST DUP3 MSTORE POP POP JUMP JUMPDEST PUSH1 0x0 PUSH1 0x20 DUP3 ADD SWAP1 POP PUSH2 0x14E PUSH1 0x0 DUP4 ADD DUP5 PUSH2 0x12A JUMP JUMPDEST SWAP3 SWAP2 POP POP JUMP JUMPDEST PUSH1 0x0 PUSH2 0x15E PUSH2 0x16F JUMP JUMPDEST SWAP1 POP PUSH2 0x16A DUP3 DUP3 PUSH2 0x1C3 JUMP JUMPDEST SWAP2 SWAP1 POP JUMP JUMPDEST PUSH1 0x0 PUSH1 0x40 MLOAD SWAP1 POP SWAP1 JUMP JUMPDEST PUSH1 0x0 PUSH8 0xFFFFFFFFFFFFFFFF DUP3 GT ISZERO PUSH2 0x194 JUMPI PUSH2 0x193 PUSH2 0x1F4 JUMP JUMPDEST JUMPDEST PUSH2 0x19D DUP3 PUSH2 0x237 JUMP JUMPDEST SWAP1 POP PUSH1 0x20 DUP2 ADD SWAP1 POP SWAP2 SWAP1 POP JUMP JUMPDEST PUSH1 0x0 DUP2 SWAP1 POP SWAP2 SWAP1 POP JUMP JUMPDEST DUP3 DUP2 DUP4 CALLDATACOPY PUSH1 0x0 DUP4 DUP4 ADD MSTORE POP POP POP JUMP JUMPDEST PUSH2 0x1CC DUP3 PUSH2 0x237 JUMP JUMPDEST DUP2 ADD DUP2 DUP2 LT PUSH8 0xFFFFFFFFFFFFFFFF DUP3 GT OR ISZERO PUSH2 0x1EB JUMPI PUSH2 0x1EA PUSH2 0x1F4 JUMP JUMPDEST JUMPDEST DUP1 PUSH1 0x40 MSTORE POP POP POP JUMP JUMPDEST PUSH32 0x4E487B7100000000000000000000000000000000000000000000000000000000 PUSH1 0x0 MSTORE PUSH1 0x41 PUSH1 0x4 MSTORE PUSH1 0x24 PUSH1 0x0 REVERT JUMPDEST PUSH1 0x0 DUP1 REVERT JUMPDEST PUSH1 0x0 DUP1 REVERT JUMPDEST PUSH1 0x0 DUP1 REVERT JUMPDEST PUSH1 0x0 DUP1 REVERT JUMPDEST PUSH1 0x0 PUSH1 0x1F NOT PUSH1 0x1F DUP4 ADD AND SWAP1 POP SWAP2 SWAP1 POP JUMP INVALID LOG2 PUSH5 0x6970667358 0x22 SLT KECCAK256 0xDB 0x5E EQ 0x29 DIFFICULTY 0xE4 ISZERO 0xFB 0xED XOR 0x2D POP XOR SMOD SWAP2 SIGNEXTEND STATICCALL DUP10 0xE1 CALLER 0xDD PUSH11 0xC6774FB7784D5ED6190D64 PUSH20 0x6F6C634300080700330000000000000000000000 "
				},
				"gasEstimates": {
					"creation": {
						"codeDepositCost": "127600",
						"executionCost": "199",
						"totalCost": "127799"
					},
					"external": {
						"indexOf(string)": "infinite"
					}
				},
				"methodIdentifiers": {
					"indexOf(string)": "c8f64ed7"
				}
			},
			"storageLayout": {
				"storage": [],
				"types": null
			},
			"userdoc": {
				"kind": "user",
				"methods": {},
				"version": 1
			}
		}
	}
}