{
	"Ep14/math.sol": {
		"Math": {
			"abi": [
				{
					"inputs": [
						{
							"internalType": "uint256",
							"name": "value",
							"type": "uint256"
						}
					],
					"name": "odd",
					"outputs": [
						{
							"internalType": "uint256",
							"name": "",
							"type": "uint256"
						}
					],
					"stateMutability": "pure",
					"type": "function"
				}
			],
			"devdoc": {
				"kind": "dev",
				"methods": {},
				"version": 1
			},
			"evm": {
				"assembly": "    /* \"Ep14/math.sol\":62:181  library Math {\r... */\n  dataSize(sub_0)\n  dataOffset(sub_0)\n  0x0b\n  dup3\n  dup3\n  dup3\n  codecopy\n  dup1\n  mload\n  0x00\n  byte\n  0x73\n  eq\n  tag_1\n  jumpi\n  mstore(0x00, 0x4e487b7100000000000000000000000000000000000000000000000000000000)\n  mstore(0x04, 0x00)\n  revert(0x00, 0x24)\ntag_1:\n  mstore(0x00, address)\n  0x73\n  dup2\n  mstore8\n  dup3\n  dup2\n  return\nstop\n\nsub_0: assembly {\n        /* \"Ep14/math.sol\":62:181  library Math {\r... */\n      eq(address, deployTimeAddress())\n      mstore(0x40, 0x80)\n      jumpi(tag_1, lt(calldatasize, 0x04))\n      shr(0xe0, calldataload(0x00))\n      dup1\n      0x0602c36a\n      eq\n      tag_2\n      jumpi\n    tag_1:\n      0x00\n      dup1\n      revert\n        /* \"Ep14/math.sol\":82:178  function odd(uint value) public pure returns(uint) {\r... */\n    tag_2:\n      tag_3\n      0x04\n      dup1\n      calldatasize\n      sub\n      dup2\n      add\n      swap1\n      tag_4\n      swap2\n      swap1\n      tag_5\n      jump\t// in\n    tag_4:\n      tag_6\n      jump\t// in\n    tag_3:\n      mload(0x40)\n      tag_7\n      swap2\n      swap1\n      tag_8\n      jump\t// in\n    tag_7:\n      mload(0x40)\n      dup1\n      swap2\n      sub\n      swap1\n      return\n    tag_6:\n        /* \"Ep14/math.sol\":127:131  uint */\n      0x00\n        /* \"Ep14/math.sol\":144:158  uint remainder */\n      dup1\n        /* \"Ep14/math.sol\":169:170  2 */\n      0x02\n        /* \"Ep14/math.sol\":161:166  value */\n      dup4\n        /* \"Ep14/math.sol\":161:170  value % 2 */\n      tag_10\n      swap2\n      swap1\n      tag_11\n      jump\t// in\n    tag_10:\n        /* \"Ep14/math.sol\":144:170  uint remainder = value % 2 */\n      swap1\n      pop\n        /* \"Ep14/math.sol\":133:178  {\r... */\n      pop\n        /* \"Ep14/math.sol\":82:178  function odd(uint value) public pure returns(uint) {\r... */\n      swap2\n      swap1\n      pop\n      jump\t// out\n        /* \"#utility.yul\":7:146   */\n    tag_13:\n        /* \"#utility.yul\":53:58   */\n      0x00\n        /* \"#utility.yul\":91:97   */\n      dup2\n        /* \"#utility.yul\":78:98   */\n      calldataload\n        /* \"#utility.yul\":69:98   */\n      swap1\n      pop\n        /* \"#utility.yul\":107:140   */\n      tag_15\n        /* \"#utility.yul\":134:139   */\n      dup2\n        /* \"#utility.yul\":107:140   */\n      tag_16\n      jump\t// in\n    tag_15:\n        /* \"#utility.yul\":7:146   */\n      swap3\n      swap2\n      pop\n      pop\n      jump\t// out\n        /* \"#utility.yul\":152:481   */\n    tag_5:\n        /* \"#utility.yul\":211:217   */\n      0x00\n        /* \"#utility.yul\":260:262   */\n      0x20\n        /* \"#utility.yul\":248:257   */\n      dup3\n        /* \"#utility.yul\":239:246   */\n      dup5\n        /* \"#utility.yul\":235:258   */\n      sub\n        /* \"#utility.yul\":231:263   */\n      slt\n        /* \"#utility.yul\":228:347   */\n      iszero\n      tag_18\n      jumpi\n        /* \"#utility.yul\":266:345   */\n      tag_19\n      tag_20\n      jump\t// in\n    tag_19:\n        /* \"#utility.yul\":228:347   */\n    tag_18:\n        /* \"#utility.yul\":386:387   */\n      0x00\n        /* \"#utility.yul\":411:464   */\n      tag_21\n        /* \"#utility.yul\":456:463   */\n      dup5\n        /* \"#utility.yul\":447:453   */\n      dup3\n        /* \"#utility.yul\":436:445   */\n      dup6\n        /* \"#utility.yul\":432:454   */\n      add\n        /* \"#utility.yul\":411:464   */\n      tag_13\n      jump\t// in\n    tag_21:\n        /* \"#utility.yul\":401:464   */\n      swap2\n      pop\n        /* \"#utility.yul\":357:474   */\n      pop\n        /* \"#utility.yul\":152:481   */\n      swap3\n      swap2\n      pop\n      pop\n      jump\t// out\n        /* \"#utility.yul\":487:613   */\n    tag_22:\n        /* \"#utility.yul\":582:606   */\n      tag_24\n        /* \"#utility.yul\":600:605   */\n      dup2\n        /* \"#utility.yul\":582:606   */\n      tag_25\n      jump\t// in\n    tag_24:\n        /* \"#utility.yul\":577:580   */\n      dup3\n        /* \"#utility.yul\":570:607   */\n      mstore\n        /* \"#utility.yul\":487:613   */\n      pop\n      pop\n      jump\t// out\n        /* \"#utility.yul\":619:857   */\n    tag_8:\n        /* \"#utility.yul\":720:724   */\n      0x00\n        /* \"#utility.yul\":758:760   */\n      0x20\n        /* \"#utility.yul\":747:756   */\n      dup3\n        /* \"#utility.yul\":743:761   */\n      add\n        /* \"#utility.yul\":735:761   */\n      swap1\n      pop\n        /* \"#utility.yul\":771:850   */\n      tag_27\n        /* \"#utility.yul\":847:848   */\n      0x00\n        /* \"#utility.yul\":836:845   */\n      dup4\n        /* \"#utility.yul\":832:849   */\n      add\n        /* \"#utility.yul\":823:829   */\n      dup5\n        /* \"#utility.yul\":771:850   */\n      tag_22\n      jump\t// in\n    tag_27:\n        /* \"#utility.yul\":619:857   */\n      swap3\n      swap2\n      pop\n      pop\n      jump\t// out\n        /* \"#utility.yul\":944:1021   */\n    tag_25:\n        /* \"#utility.yul\":981:988   */\n      0x00\n        /* \"#utility.yul\":1010:1015   */\n      dup2\n        /* \"#utility.yul\":999:1015   */\n      swap1\n      pop\n        /* \"#utility.yul\":944:1021   */\n      swap2\n      swap1\n      pop\n      jump\t// out\n        /* \"#utility.yul\":1027:1203   */\n    tag_11:\n        /* \"#utility.yul\":1059:1060   */\n      0x00\n        /* \"#utility.yul\":1076:1096   */\n      tag_32\n        /* \"#utility.yul\":1094:1095   */\n      dup3\n        /* \"#utility.yul\":1076:1096   */\n      tag_25\n      jump\t// in\n    tag_32:\n        /* \"#utility.yul\":1071:1096   */\n      swap2\n      pop\n        /* \"#utility.yul\":1110:1130   */\n      tag_33\n        /* \"#utility.yul\":1128:1129   */\n      dup4\n        /* \"#utility.yul\":1110:1130   */\n      tag_25\n      jump\t// in\n    tag_33:\n        /* \"#utility.yul\":1105:1130   */\n      swap3\n      pop\n        /* \"#utility.yul\":1149:1150   */\n      dup3\n        /* \"#utility.yul\":1139:1174   */\n      tag_34\n      jumpi\n        /* \"#utility.yul\":1154:1172   */\n      tag_35\n      tag_36\n      jump\t// in\n    tag_35:\n        /* \"#utility.yul\":1139:1174   */\n    tag_34:\n        /* \"#utility.yul\":1195:1196   */\n      dup3\n        /* \"#utility.yul\":1192:1193   */\n      dup3\n        /* \"#utility.yul\":1188:1197   */\n      mod\n        /* \"#utility.yul\":1183:1197   */\n      swap1\n      pop\n        /* \"#utility.yul\":1027:1203   */\n      swap3\n      swap2\n      pop\n      pop\n      jump\t// out\n        /* \"#utility.yul\":1209:1389   */\n    tag_36:\n        /* \"#utility.yul\":1257:1334   */\n      0x4e487b7100000000000000000000000000000000000000000000000000000000\n        /* \"#utility.yul\":1254:1255   */\n      0x00\n        /* \"#utility.yul\":1247:1335   */\n      mstore\n        /* \"#utility.yul\":1354:1358   */\n      0x12\n        /* \"#utility.yul\":1351:1352   */\n      0x04\n        /* \"#utility.yul\":1344:1359   */\n      mstore\n        /* \"#utility.yul\":1378:1382   */\n      0x24\n        /* \"#utility.yul\":1375:1376   */\n      0x00\n        /* \"#utility.yul\":1368:1383   */\n      revert\n        /* \"#utility.yul\":1518:1635   */\n    tag_20:\n        /* \"#utility.yul\":1627:1628   */\n      0x00\n        /* \"#utility.yul\":1624:1625   */\n      dup1\n        /* \"#utility.yul\":1617:1629   */\n      revert\n        /* \"#utility.yul\":1641:1763   */\n    tag_16:\n        /* \"#utility.yul\":1714:1738   */\n      tag_42\n        /* \"#utility.yul\":1732:1737   */\n      dup2\n        /* \"#utility.yul\":1714:1738   */\n      tag_25\n      jump\t// in\n    tag_42:\n        /* \"#utility.yul\":1707:1712   */\n      dup2\n        /* \"#utility.yul\":1704:1739   */\n      eq\n        /* \"#utility.yul\":1694:1757   */\n      tag_43\n      jumpi\n        /* \"#utility.yul\":1753:1754   */\n      0x00\n        /* \"#utility.yul\":1750:1751   */\n      dup1\n        /* \"#utility.yul\":1743:1755   */\n      revert\n        /* \"#utility.yul\":1694:1757   */\n    tag_43:\n        /* \"#utility.yul\":1641:1763   */\n      pop\n      jump\t// out\n\n    auxdata: 0xa264697066735822122065bdcd8878e839b839e95eb5c8a66f2d0022f93d5d5c45ee0c5af622a4b49f8964736f6c63430008070033\n}\n",
				"bytecode": {
					"linkReferences": {},
					"object": "6101aa610053600b82828239805160001a607314610046577f4e487b7100000000000000000000000000000000000000000000000000000000600052600060045260246000fd5b30600052607381538281f3fe73000000000000000000000000000000000000000030146080604052600436106100355760003560e01c80630602c36a1461003a575b600080fd5b610054600480360381019061004f9190610097565b61006a565b60405161006191906100d3565b60405180910390f35b60008060028361007a91906100f8565b905050919050565b6000813590506100918161015d565b92915050565b6000602082840312156100ad576100ac610158565b5b60006100bb84828501610082565b91505092915050565b6100cd816100ee565b82525050565b60006020820190506100e860008301846100c4565b92915050565b6000819050919050565b6000610103826100ee565b915061010e836100ee565b92508261011e5761011d610129565b5b828206905092915050565b7f4e487b7100000000000000000000000000000000000000000000000000000000600052601260045260246000fd5b600080fd5b610166816100ee565b811461017157600080fd5b5056fea264697066735822122065bdcd8878e839b839e95eb5c8a66f2d0022f93d5d5c45ee0c5af622a4b49f8964736f6c63430008070033",
					"opcodes": "PUSH2 0x1AA PUSH2 0x53 PUSH1 0xB DUP3 DUP3 DUP3 CODECOPY DUP1 MLOAD PUSH1 0x0 BYTE PUSH1 0x73 EQ PUSH2 0x46 JUMPI PUSH32 0x4E487B7100000000000000000000000000000000000000000000000000000000 PUSH1 0x0 MSTORE PUSH1 0x0 PUSH1 0x4 MSTORE PUSH1 0x24 PUSH1 0x0 REVERT JUMPDEST ADDRESS PUSH1 0x0 MSTORE PUSH1 0x73 DUP2 MSTORE8 DUP3 DUP2 RETURN INVALID PUSH20 0x0 ADDRESS EQ PUSH1 0x80 PUSH1 0x40 MSTORE PUSH1 0x4 CALLDATASIZE LT PUSH2 0x35 JUMPI PUSH1 0x0 CALLDATALOAD PUSH1 0xE0 SHR DUP1 PUSH4 0x602C36A EQ PUSH2 0x3A JUMPI JUMPDEST PUSH1 0x0 DUP1 REVERT JUMPDEST PUSH2 0x54 PUSH1 0x4 DUP1 CALLDATASIZE SUB DUP2 ADD SWAP1 PUSH2 0x4F SWAP2 SWAP1 PUSH2 0x97 JUMP JUMPDEST PUSH2 0x6A JUMP JUMPDEST PUSH1 0x40 MLOAD PUSH2 0x61 SWAP2 SWAP1 PUSH2 0xD3 JUMP JUMPDEST PUSH1 0x40 MLOAD DUP1 SWAP2 SUB SWAP1 RETURN JUMPDEST PUSH1 0x0 DUP1 PUSH1 0x2 DUP4 PUSH2 0x7A SWAP2 SWAP1 PUSH2 0xF8 JUMP JUMPDEST SWAP1 POP POP SWAP2 SWAP1 POP JUMP JUMPDEST PUSH1 0x0 DUP2 CALLDATALOAD SWAP1 POP PUSH2 0x91 DUP2 PUSH2 0x15D JUMP JUMPDEST SWAP3 SWAP2 POP POP JUMP JUMPDEST PUSH1 0x0 PUSH1 0x20 DUP3 DUP5 SUB SLT ISZERO PUSH2 0xAD JUMPI PUSH2 0xAC PUSH2 0x158 JUMP JUMPDEST JUMPDEST PUSH1 0x0 PUSH2 0xBB DUP5 DUP3 DUP6 ADD PUSH2 0x82 JUMP JUMPDEST SWAP2 POP POP SWAP3 SWAP2 POP POP JUMP JUMPDEST PUSH2 0xCD DUP2 PUSH2 0xEE JUMP JUMPDEST DUP3 MSTORE POP POP JUMP JUMPDEST PUSH1 0x0 PUSH1 0x20 DUP3 ADD SWAP1 POP PUSH2 0xE8 PUSH1 0x0 DUP4 ADD DUP5 PUSH2 0xC4 JUMP JUMPDEST SWAP3 SWAP2 POP POP JUMP JUMPDEST PUSH1 0x0 DUP2 SWAP1 POP SWAP2 SWAP1 POP JUMP JUMPDEST PUSH1 0x0 PUSH2 0x103 DUP3 PUSH2 0xEE JUMP JUMPDEST SWAP2 POP PUSH2 0x10E DUP4 PUSH2 0xEE JUMP JUMPDEST SWAP3 POP DUP3 PUSH2 0x11E JUMPI PUSH2 0x11D PUSH2 0x129 JUMP JUMPDEST JUMPDEST DUP3 DUP3 MOD SWAP1 POP SWAP3 SWAP2 POP POP JUMP JUMPDEST PUSH32 0x4E487B7100000000000000000000000000000000000000000000000000000000 PUSH1 0x0 MSTORE PUSH1 0x12 PUSH1 0x4 MSTORE PUSH1 0x24 PUSH1 0x0 REVERT JUMPDEST PUSH1 0x0 DUP1 REVERT JUMPDEST PUSH2 0x166 DUP2 PUSH2 0xEE JUMP JUMPDEST DUP2 EQ PUSH2 0x171 JUMPI PUSH1 0x0 DUP1 REVERT JUMPDEST POP JUMP INVALID LOG2 PUSH5 0x6970667358 0x22 SLT KECCAK256 PUSH6 0xBDCD8878E839 0xB8 CODECOPY 0xE9 0x5E 0xB5 0xC8 0xA6 PUSH16 0x2D0022F93D5D5C45EE0C5AF622A4B49F DUP10 PUSH5 0x736F6C6343 STOP ADDMOD SMOD STOP CALLER "
				},
				"gasEstimates": {
					"creation": {
						"codeDepositCost": "85200",
						"executionCost": "160",
						"totalCost": "85360"
					},
					"external": {
						"odd(uint256)": "infinite"
					}
				},
				"methodIdentifiers": {
					"odd(uint256)": "0602c36a"
				}
			},
			"storageLayout": {
				"storage": [],
				"types": null
			},
			"userdoc": {
				"kind": "user",
				"methods": {},
				"version": 1
			}
		}
	}
}