{
	"Ep5/example.sol": {
		"Example": {
			"abi": [
				{
					"inputs": [
						{
							"internalType": "uint256",
							"name": "requested",
							"type": "uint256"
						},
						{
							"internalType": "uint256",
							"name": "available",
							"type": "uint256"
						}
					],
					"name": "NotEnoughFunds",
					"type": "error"
				},
				{
					"inputs": [
						{
							"internalType": "uint256",
							"name": "amount",
							"type": "uint256"
						}
					],
					"name": "withdraw",
					"outputs": [],
					"stateMutability": "pure",
					"type": "function"
				}
			],
			"devdoc": {
				"errors": {
					"NotEnoughFunds(uint256,uint256)": [
						{
							"details": "自訂錯誤類型: 資金不足",
							"params": {
								"available": "可用的資金",
								"requested": "要求的資金"
							}
						}
					]
				},
				"kind": "dev",
				"methods": {},
				"version": 1
			},
			"evm": {
				"assembly": "    /* \"Ep5/example.sol\":62:923  contract Example {\r... */\n  mstore(0x40, 0x80)\n  callvalue\n  dup1\n  iszero\n  tag_1\n  jumpi\n  0x00\n  dup1\n  revert\ntag_1:\n  pop\n  dataSize(sub_0)\n  dup1\n  dataOffset(sub_0)\n  0x00\n  codecopy\n  0x00\n  return\nstop\n\nsub_0: assembly {\n        /* \"Ep5/example.sol\":62:923  contract Example {\r... */\n      mstore(0x40, 0x80)\n      callvalue\n      dup1\n      iszero\n      tag_1\n      jumpi\n      0x00\n      dup1\n      revert\n    tag_1:\n      pop\n      jumpi(tag_2, lt(calldatasize, 0x04))\n      shr(0xe0, calldataload(0x00))\n      dup1\n      0x2e1a7d4d\n      eq\n      tag_3\n      jumpi\n    tag_2:\n      0x00\n      dup1\n      revert\n        /* \"Ep5/example.sol\":278:920  function withdraw(uint amount) public pure {\r... */\n    tag_3:\n      tag_4\n      0x04\n      dup1\n      calldatasize\n      sub\n      dup2\n      add\n      swap1\n      tag_5\n      swap2\n      swap1\n      tag_6\n      jump\t// in\n    tag_5:\n      tag_7\n      jump\t// in\n    tag_4:\n      stop\n    tag_7:\n        /* \"Ep5/example.sol\":332:342  uint total */\n      0x00\n        /* \"Ep5/example.sol\":345:348  100 */\n      0x64\n        /* \"Ep5/example.sol\":332:348  uint total = 100 */\n      swap1\n      pop\n        /* \"Ep5/example.sol\":551:556  total */\n      dup1\n        /* \"Ep5/example.sol\":541:547  amount */\n      dup3\n        /* \"Ep5/example.sol\":541:556  amount <= total */\n      gt\n      iszero\n        /* \"Ep5/example.sol\":533:588  require(amount <= total, \"amount must less then total\") */\n      tag_9\n      jumpi\n      mload(0x40)\n      0x08c379a000000000000000000000000000000000000000000000000000000000\n      dup2\n      mstore\n      0x04\n      add\n      tag_10\n      swap1\n      tag_11\n      jump\t// in\n    tag_10:\n      mload(0x40)\n      dup1\n      swap2\n      sub\n      swap1\n      revert\n    tag_9:\n        /* \"Ep5/example.sol\":760:765  total */\n      dup1\n        /* \"Ep5/example.sol\":751:757  amount */\n      dup3\n        /* \"Ep5/example.sol\":751:765  amount > total */\n      gt\n        /* \"Ep5/example.sol\":747:830  if (amount > total) {\r... */\n      iszero\n      tag_12\n      jumpi\n        /* \"Ep5/example.sol\":804:810  amount */\n      dup2\n        /* \"Ep5/example.sol\":812:817  total */\n      dup2\n        /* \"Ep5/example.sol\":789:818  NotEnoughFunds(amount, total) */\n      mload(0x40)\n      0x8c90536800000000000000000000000000000000000000000000000000000000\n      dup2\n      mstore\n      0x04\n      add\n      tag_13\n      swap3\n      swap2\n      swap1\n      tag_14\n      jump\t// in\n    tag_13:\n      mload(0x40)\n      dup1\n      swap2\n      sub\n      swap1\n      revert\n        /* \"Ep5/example.sol\":747:830  if (amount > total) {\r... */\n    tag_12:\n        /* \"Ep5/example.sol\":910:911  0 */\n      0x00\n        /* \"Ep5/example.sol\":901:907  amount */\n      dup3\n        /* \"Ep5/example.sol\":901:911  amount > 0 */\n      gt\n        /* \"Ep5/example.sol\":894:912  assert(amount > 0) */\n      tag_15\n      jumpi\n      tag_16\n      tag_17\n      jump\t// in\n    tag_16:\n    tag_15:\n        /* \"Ep5/example.sol\":321:920  {\r... */\n      pop\n        /* \"Ep5/example.sol\":278:920  function withdraw(uint amount) public pure {\r... */\n      pop\n      jump\t// out\n        /* \"#utility.yul\":7:146   */\n    tag_19:\n        /* \"#utility.yul\":53:58   */\n      0x00\n        /* \"#utility.yul\":91:97   */\n      dup2\n        /* \"#utility.yul\":78:98   */\n      calldataload\n        /* \"#utility.yul\":69:98   */\n      swap1\n      pop\n        /* \"#utility.yul\":107:140   */\n      tag_21\n        /* \"#utility.yul\":134:139   */\n      dup2\n        /* \"#utility.yul\":107:140   */\n      tag_22\n      jump\t// in\n    tag_21:\n        /* \"#utility.yul\":7:146   */\n      swap3\n      swap2\n      pop\n      pop\n      jump\t// out\n        /* \"#utility.yul\":152:481   */\n    tag_6:\n        /* \"#utility.yul\":211:217   */\n      0x00\n        /* \"#utility.yul\":260:262   */\n      0x20\n        /* \"#utility.yul\":248:257   */\n      dup3\n        /* \"#utility.yul\":239:246   */\n      dup5\n        /* \"#utility.yul\":235:258   */\n      sub\n        /* \"#utility.yul\":231:263   */\n      slt\n        /* \"#utility.yul\":228:347   */\n      iszero\n      tag_24\n      jumpi\n        /* \"#utility.yul\":266:345   */\n      tag_25\n      tag_26\n      jump\t// in\n    tag_25:\n        /* \"#utility.yul\":228:347   */\n    tag_24:\n        /* \"#utility.yul\":386:387   */\n      0x00\n        /* \"#utility.yul\":411:464   */\n      tag_27\n        /* \"#utility.yul\":456:463   */\n      dup5\n        /* \"#utility.yul\":447:453   */\n      dup3\n        /* \"#utility.yul\":436:445   */\n      dup6\n        /* \"#utility.yul\":432:454   */\n      add\n        /* \"#utility.yul\":411:464   */\n      tag_19\n      jump\t// in\n    tag_27:\n        /* \"#utility.yul\":401:464   */\n      swap2\n      pop\n        /* \"#utility.yul\":357:474   */\n      pop\n        /* \"#utility.yul\":152:481   */\n      swap3\n      swap2\n      pop\n      pop\n      jump\t// out\n        /* \"#utility.yul\":487:853   */\n    tag_28:\n        /* \"#utility.yul\":629:632   */\n      0x00\n        /* \"#utility.yul\":650:717   */\n      tag_30\n        /* \"#utility.yul\":714:716   */\n      0x1b\n        /* \"#utility.yul\":709:712   */\n      dup4\n        /* \"#utility.yul\":650:717   */\n      tag_31\n      jump\t// in\n    tag_30:\n        /* \"#utility.yul\":643:717   */\n      swap2\n      pop\n        /* \"#utility.yul\":726:819   */\n      tag_32\n        /* \"#utility.yul\":815:818   */\n      dup3\n        /* \"#utility.yul\":726:819   */\n      tag_33\n      jump\t// in\n    tag_32:\n        /* \"#utility.yul\":844:846   */\n      0x20\n        /* \"#utility.yul\":839:842   */\n      dup3\n        /* \"#utility.yul\":835:847   */\n      add\n        /* \"#utility.yul\":828:847   */\n      swap1\n      pop\n        /* \"#utility.yul\":487:853   */\n      swap2\n      swap1\n      pop\n      jump\t// out\n        /* \"#utility.yul\":859:977   */\n    tag_34:\n        /* \"#utility.yul\":946:970   */\n      tag_36\n        /* \"#utility.yul\":964:969   */\n      dup2\n        /* \"#utility.yul\":946:970   */\n      tag_37\n      jump\t// in\n    tag_36:\n        /* \"#utility.yul\":941:944   */\n      dup3\n        /* \"#utility.yul\":934:971   */\n      mstore\n        /* \"#utility.yul\":859:977   */\n      pop\n      pop\n      jump\t// out\n        /* \"#utility.yul\":983:1402   */\n    tag_11:\n        /* \"#utility.yul\":1149:1153   */\n      0x00\n        /* \"#utility.yul\":1187:1189   */\n      0x20\n        /* \"#utility.yul\":1176:1185   */\n      dup3\n        /* \"#utility.yul\":1172:1190   */\n      add\n        /* \"#utility.yul\":1164:1190   */\n      swap1\n      pop\n        /* \"#utility.yul\":1236:1245   */\n      dup2\n        /* \"#utility.yul\":1230:1234   */\n      dup2\n        /* \"#utility.yul\":1226:1246   */\n      sub\n        /* \"#utility.yul\":1222:1223   */\n      0x00\n        /* \"#utility.yul\":1211:1220   */\n      dup4\n        /* \"#utility.yul\":1207:1224   */\n      add\n        /* \"#utility.yul\":1200:1247   */\n      mstore\n        /* \"#utility.yul\":1264:1395   */\n      tag_39\n        /* \"#utility.yul\":1390:1394   */\n      dup2\n        /* \"#utility.yul\":1264:1395   */\n      tag_28\n      jump\t// in\n    tag_39:\n        /* \"#utility.yul\":1256:1395   */\n      swap1\n      pop\n        /* \"#utility.yul\":983:1402   */\n      swap2\n      swap1\n      pop\n      jump\t// out\n        /* \"#utility.yul\":1408:1740   */\n    tag_14:\n        /* \"#utility.yul\":1529:1533   */\n      0x00\n        /* \"#utility.yul\":1567:1569   */\n      0x40\n        /* \"#utility.yul\":1556:1565   */\n      dup3\n        /* \"#utility.yul\":1552:1570   */\n      add\n        /* \"#utility.yul\":1544:1570   */\n      swap1\n      pop\n        /* \"#utility.yul\":1580:1651   */\n      tag_41\n        /* \"#utility.yul\":1648:1649   */\n      0x00\n        /* \"#utility.yul\":1637:1646   */\n      dup4\n        /* \"#utility.yul\":1633:1650   */\n      add\n        /* \"#utility.yul\":1624:1630   */\n      dup6\n        /* \"#utility.yul\":1580:1651   */\n      tag_34\n      jump\t// in\n    tag_41:\n        /* \"#utility.yul\":1661:1733   */\n      tag_42\n        /* \"#utility.yul\":1729:1731   */\n      0x20\n        /* \"#utility.yul\":1718:1727   */\n      dup4\n        /* \"#utility.yul\":1714:1732   */\n      add\n        /* \"#utility.yul\":1705:1711   */\n      dup5\n        /* \"#utility.yul\":1661:1733   */\n      tag_34\n      jump\t// in\n    tag_42:\n        /* \"#utility.yul\":1408:1740   */\n      swap4\n      swap3\n      pop\n      pop\n      pop\n      jump\t// out\n        /* \"#utility.yul\":1827:1996   */\n    tag_31:\n        /* \"#utility.yul\":1911:1922   */\n      0x00\n        /* \"#utility.yul\":1945:1951   */\n      dup3\n        /* \"#utility.yul\":1940:1943   */\n      dup3\n        /* \"#utility.yul\":1933:1952   */\n      mstore\n        /* \"#utility.yul\":1985:1989   */\n      0x20\n        /* \"#utility.yul\":1980:1983   */\n      dup3\n        /* \"#utility.yul\":1976:1990   */\n      add\n        /* \"#utility.yul\":1961:1990   */\n      swap1\n      pop\n        /* \"#utility.yul\":1827:1996   */\n      swap3\n      swap2\n      pop\n      pop\n      jump\t// out\n        /* \"#utility.yul\":2002:2079   */\n    tag_37:\n        /* \"#utility.yul\":2039:2046   */\n      0x00\n        /* \"#utility.yul\":2068:2073   */\n      dup2\n        /* \"#utility.yul\":2057:2073   */\n      swap1\n      pop\n        /* \"#utility.yul\":2002:2079   */\n      swap2\n      swap1\n      pop\n      jump\t// out\n        /* \"#utility.yul\":2085:2265   */\n    tag_17:\n        /* \"#utility.yul\":2133:2210   */\n      0x4e487b7100000000000000000000000000000000000000000000000000000000\n        /* \"#utility.yul\":2130:2131   */\n      0x00\n        /* \"#utility.yul\":2123:2211   */\n      mstore\n        /* \"#utility.yul\":2230:2234   */\n      0x01\n        /* \"#utility.yul\":2227:2228   */\n      0x04\n        /* \"#utility.yul\":2220:2235   */\n      mstore\n        /* \"#utility.yul\":2254:2258   */\n      0x24\n        /* \"#utility.yul\":2251:2252   */\n      0x00\n        /* \"#utility.yul\":2244:2259   */\n      revert\n        /* \"#utility.yul\":2394:2511   */\n    tag_26:\n        /* \"#utility.yul\":2503:2504   */\n      0x00\n        /* \"#utility.yul\":2500:2501   */\n      dup1\n        /* \"#utility.yul\":2493:2505   */\n      revert\n        /* \"#utility.yul\":2517:2694   */\n    tag_33:\n        /* \"#utility.yul\":2657:2686   */\n      0x616d6f756e74206d757374206c657373207468656e20746f74616c0000000000\n        /* \"#utility.yul\":2653:2654   */\n      0x00\n        /* \"#utility.yul\":2645:2651   */\n      dup3\n        /* \"#utility.yul\":2641:2655   */\n      add\n        /* \"#utility.yul\":2634:2687   */\n      mstore\n        /* \"#utility.yul\":2517:2694   */\n      pop\n      jump\t// out\n        /* \"#utility.yul\":2700:2822   */\n    tag_22:\n        /* \"#utility.yul\":2773:2797   */\n      tag_53\n        /* \"#utility.yul\":2791:2796   */\n      dup2\n        /* \"#utility.yul\":2773:2797   */\n      tag_37\n      jump\t// in\n    tag_53:\n        /* \"#utility.yul\":2766:2771   */\n      dup2\n        /* \"#utility.yul\":2763:2798   */\n      eq\n        /* \"#utility.yul\":2753:2816   */\n      tag_54\n      jumpi\n        /* \"#utility.yul\":2812:2813   */\n      0x00\n        /* \"#utility.yul\":2809:2810   */\n      dup1\n        /* \"#utility.yul\":2802:2814   */\n      revert\n        /* \"#utility.yul\":2753:2816   */\n    tag_54:\n        /* \"#utility.yul\":2700:2822   */\n      pop\n      jump\t// out\n\n    auxdata: 0xa2646970667358221220533a916193f8f50e2a076572971a9a4176ae7f5aad448e7ef7bcffb97645d82a64736f6c63430008070033\n}\n",
				"bytecode": {
					"linkReferences": {},
					"object": "608060405234801561001057600080fd5b50610273806100206000396000f3fe608060405234801561001057600080fd5b506004361061002b5760003560e01c80632e1a7d4d14610030575b600080fd5b61004a60048036038101906100459190610106565b61004c565b005b60006064905080821115610095576040517f08c379a000000000000000000000000000000000000000000000000000000000815260040161008c90610165565b60405180910390fd5b808211156100dc5781816040517f8c9053680000000000000000000000000000000000000000000000000000000081526004016100d3929190610185565b60405180910390fd5b600082116100ed576100ec6101c9565b5b5050565b60008135905061010081610226565b92915050565b60006020828403121561011c5761011b6101f8565b5b600061012a848285016100f1565b91505092915050565b6000610140601b836101ae565b915061014b826101fd565b602082019050919050565b61015f816101bf565b82525050565b6000602082019050818103600083015261017e81610133565b9050919050565b600060408201905061019a6000830185610156565b6101a76020830184610156565b9392505050565b600082825260208201905092915050565b6000819050919050565b7f4e487b7100000000000000000000000000000000000000000000000000000000600052600160045260246000fd5b600080fd5b7f616d6f756e74206d757374206c657373207468656e20746f74616c0000000000600082015250565b61022f816101bf565b811461023a57600080fd5b5056fea2646970667358221220533a916193f8f50e2a076572971a9a4176ae7f5aad448e7ef7bcffb97645d82a64736f6c63430008070033",
					"opcodes": "PUSH1 0x80 PUSH1 0x40 MSTORE CALLVALUE DUP1 ISZERO PUSH2 0x10 JUMPI PUSH1 0x0 DUP1 REVERT JUMPDEST POP PUSH2 0x273 DUP1 PUSH2 0x20 PUSH1 0x0 CODECOPY PUSH1 0x0 RETURN INVALID PUSH1 0x80 PUSH1 0x40 MSTORE CALLVALUE DUP1 ISZERO PUSH2 0x10 JUMPI PUSH1 0x0 DUP1 REVERT JUMPDEST POP PUSH1 0x4 CALLDATASIZE LT PUSH2 0x2B JUMPI PUSH1 0x0 CALLDATALOAD PUSH1 0xE0 SHR DUP1 PUSH4 0x2E1A7D4D EQ PUSH2 0x30 JUMPI JUMPDEST PUSH1 0x0 DUP1 REVERT JUMPDEST PUSH2 0x4A PUSH1 0x4 DUP1 CALLDATASIZE SUB DUP2 ADD SWAP1 PUSH2 0x45 SWAP2 SWAP1 PUSH2 0x106 JUMP JUMPDEST PUSH2 0x4C JUMP JUMPDEST STOP JUMPDEST PUSH1 0x0 PUSH1 0x64 SWAP1 POP DUP1 DUP3 GT ISZERO PUSH2 0x95 JUMPI PUSH1 0x40 MLOAD PUSH32 0x8C379A000000000000000000000000000000000000000000000000000000000 DUP2 MSTORE PUSH1 0x4 ADD PUSH2 0x8C SWAP1 PUSH2 0x165 JUMP JUMPDEST PUSH1 0x40 MLOAD DUP1 SWAP2 SUB SWAP1 REVERT JUMPDEST DUP1 DUP3 GT ISZERO PUSH2 0xDC JUMPI DUP2 DUP2 PUSH1 0x40 MLOAD PUSH32 0x8C90536800000000000000000000000000000000000000000000000000000000 DUP2 MSTORE PUSH1 0x4 ADD PUSH2 0xD3 SWAP3 SWAP2 SWAP1 PUSH2 0x185 JUMP JUMPDEST PUSH1 0x40 MLOAD DUP1 SWAP2 SUB SWAP1 REVERT JUMPDEST PUSH1 0x0 DUP3 GT PUSH2 0xED JUMPI PUSH2 0xEC PUSH2 0x1C9 JUMP JUMPDEST JUMPDEST POP POP JUMP JUMPDEST PUSH1 0x0 DUP2 CALLDATALOAD SWAP1 POP PUSH2 0x100 DUP2 PUSH2 0x226 JUMP JUMPDEST SWAP3 SWAP2 POP POP JUMP JUMPDEST PUSH1 0x0 PUSH1 0x20 DUP3 DUP5 SUB SLT ISZERO PUSH2 0x11C JUMPI PUSH2 0x11B PUSH2 0x1F8 JUMP JUMPDEST JUMPDEST PUSH1 0x0 PUSH2 0x12A DUP5 DUP3 DUP6 ADD PUSH2 0xF1 JUMP JUMPDEST SWAP2 POP POP SWAP3 SWAP2 POP POP JUMP JUMPDEST PUSH1 0x0 PUSH2 0x140 PUSH1 0x1B DUP4 PUSH2 0x1AE JUMP JUMPDEST SWAP2 POP PUSH2 0x14B DUP3 PUSH2 0x1FD JUMP JUMPDEST PUSH1 0x20 DUP3 ADD SWAP1 POP SWAP2 SWAP1 POP JUMP JUMPDEST PUSH2 0x15F DUP2 PUSH2 0x1BF JUMP JUMPDEST DUP3 MSTORE POP POP JUMP JUMPDEST PUSH1 0x0 PUSH1 0x20 DUP3 ADD SWAP1 POP DUP2 DUP2 SUB PUSH1 0x0 DUP4 ADD MSTORE PUSH2 0x17E DUP2 PUSH2 0x133 JUMP JUMPDEST SWAP1 POP SWAP2 SWAP1 POP JUMP JUMPDEST PUSH1 0x0 PUSH1 0x40 DUP3 ADD SWAP1 POP PUSH2 0x19A PUSH1 0x0 DUP4 ADD DUP6 PUSH2 0x156 JUMP JUMPDEST PUSH2 0x1A7 PUSH1 0x20 DUP4 ADD DUP5 PUSH2 0x156 JUMP JUMPDEST SWAP4 SWAP3 POP POP POP JUMP JUMPDEST PUSH1 0x0 DUP3 DUP3 MSTORE PUSH1 0x20 DUP3 ADD SWAP1 POP SWAP3 SWAP2 POP POP JUMP JUMPDEST PUSH1 0x0 DUP2 SWAP1 POP SWAP2 SWAP1 POP JUMP JUMPDEST PUSH32 0x4E487B7100000000000000000000000000000000000000000000000000000000 PUSH1 0x0 MSTORE PUSH1 0x1 PUSH1 0x4 MSTORE PUSH1 0x24 PUSH1 0x0 REVERT JUMPDEST PUSH1 0x0 DUP1 REVERT JUMPDEST PUSH32 0x616D6F756E74206D757374206C657373207468656E20746F74616C0000000000 PUSH1 0x0 DUP3 ADD MSTORE POP JUMP JUMPDEST PUSH2 0x22F DUP2 PUSH2 0x1BF JUMP JUMPDEST DUP2 EQ PUSH2 0x23A JUMPI PUSH1 0x0 DUP1 REVERT JUMPDEST POP JUMP INVALID LOG2 PUSH5 0x6970667358 0x22 SLT KECCAK256 MSTORE8 GASPRICE SWAP2 PUSH2 0x93F8 CREATE2 0xE 0x2A SMOD PUSH6 0x72971A9A4176 0xAE PUSH32 0x5AAD448E7EF7BCFFB97645D82A64736F6C634300080700330000000000000000 "
				},
				"gasEstimates": {
					"creation": {
						"codeDepositCost": "125400",
						"executionCost": "171",
						"totalCost": "125571"
					},
					"external": {
						"withdraw(uint256)": "infinite"
					}
				},
				"methodIdentifiers": {
					"withdraw(uint256)": "2e1a7d4d"
				}
			},
			"storageLayout": {
				"storage": [],
				"types": null
			},
			"userdoc": {
				"kind": "user",
				"methods": {},
				"version": 1
			}
		}
	}
}