{
	"Ep5/example.sol": {
		"TryCatcher": {
			"abi": [
				{
					"inputs": [],
					"stateMutability": "nonpayable",
					"type": "constructor"
				},
				{
					"inputs": [],
					"name": "exec",
					"outputs": [],
					"stateMutability": "view",
					"type": "function"
				},
				{
					"inputs": [],
					"name": "externalContract",
					"outputs": [
						{
							"internalType": "contract Example",
							"name": "",
							"type": "address"
						}
					],
					"stateMutability": "view",
					"type": "function"
				}
			],
			"devdoc": {
				"kind": "dev",
				"methods": {},
				"version": 1
			},
			"evm": {
				"assembly": "    /* \"Ep5/example.sol\":927:1223  contract TryCatcher {\r... */\n  mstore(0x40, 0x80)\n    /* \"Ep5/example.sol\":994:1059  constructor() {\r... */\n  callvalue\n  dup1\n  iszero\n  tag_1\n  jumpi\n  0x00\n  dup1\n  revert\ntag_1:\n  pop\n    /* \"Ep5/example.sol\":1038:1051  new Example() */\n  mload(0x40)\n  tag_4\n  swap1\n  tag_5\n  jump\t// in\ntag_4:\n  mload(0x40)\n  dup1\n  swap2\n  sub\n  swap1\n  0x00\n  create\n  dup1\n  iszero\n  dup1\n  iszero\n  tag_6\n  jumpi\n  returndatasize\n  0x00\n  dup1\n  returndatacopy\n  revert(0x00, returndatasize)\ntag_6:\n  pop\n    /* \"Ep5/example.sol\":1019:1035  externalContract */\n  0x00\n  dup1\n    /* \"Ep5/example.sol\":1019:1051  externalContract = new Example() */\n  0x0100\n  exp\n  dup2\n  sload\n  dup2\n  0xffffffffffffffffffffffffffffffffffffffff\n  mul\n  not\n  and\n  swap1\n  dup4\n  0xffffffffffffffffffffffffffffffffffffffff\n  and\n  mul\n  or\n  swap1\n  sstore\n  pop\n    /* \"Ep5/example.sol\":927:1223  contract TryCatcher {\r... */\n  jump(tag_7)\ntag_5:\n  dataSize(sub_1)\n  dup1\n  dataOffset(sub_1)\n  dup4\n  codecopy\n  add\n  swap1\n  jump\t// out\ntag_7:\n  dataSize(sub_0)\n  dup1\n  dataOffset(sub_0)\n  0x00\n  codecopy\n  0x00\n  return\nstop\n\nsub_0: assembly {\n        /* \"Ep5/example.sol\":927:1223  contract TryCatcher {\r... */\n      mstore(0x40, 0x80)\n      callvalue\n      dup1\n      iszero\n      tag_1\n      jumpi\n      0x00\n      dup1\n      revert\n    tag_1:\n      pop\n      jumpi(tag_2, lt(calldatasize, 0x04))\n      shr(0xe0, calldataload(0x00))\n      dup1\n      0xc1c0e9c4\n      eq\n      tag_3\n      jumpi\n      dup1\n      0xd895540f\n      eq\n      tag_4\n      jumpi\n    tag_2:\n      0x00\n      dup1\n      revert\n        /* \"Ep5/example.sol\":1067:1220  function exec() public view {\r... */\n    tag_3:\n      tag_5\n      tag_6\n      jump\t// in\n    tag_5:\n      stop\n        /* \"Ep5/example.sol\":954:985  Example public externalContract */\n    tag_4:\n      tag_7\n      tag_8\n      jump\t// in\n    tag_7:\n      mload(0x40)\n      tag_9\n      swap2\n      swap1\n      tag_10\n      jump\t// in\n    tag_9:\n      mload(0x40)\n      dup1\n      swap2\n      sub\n      swap1\n      return\n        /* \"Ep5/example.sol\":1067:1220  function exec() public view {\r... */\n    tag_6:\n        /* \"Ep5/example.sol\":1110:1126  externalContract */\n      0x00\n      dup1\n      sload\n      swap1\n      0x0100\n      exp\n      swap1\n      div\n      0xffffffffffffffffffffffffffffffffffffffff\n      and\n        /* \"Ep5/example.sol\":1110:1135  externalContract.withdraw */\n      0xffffffffffffffffffffffffffffffffffffffff\n      and\n      0x2e1a7d4d\n        /* \"Ep5/example.sol\":1136:1139  101 */\n      0x65\n        /* \"Ep5/example.sol\":1110:1140  externalContract.withdraw(101) */\n      mload(0x40)\n      dup3\n      0xffffffff\n      and\n      0xe0\n      shl\n      dup2\n      mstore\n      0x04\n      add\n      tag_12\n      swap2\n      swap1\n      tag_13\n      jump\t// in\n    tag_12:\n      0x00\n      mload(0x40)\n      dup1\n      dup4\n      sub\n      dup2\n      dup7\n      dup1\n      extcodesize\n      iszero\n      dup1\n      iszero\n      tag_14\n      jumpi\n      0x00\n      dup1\n      revert\n    tag_14:\n      pop\n      gas\n      staticcall\n      swap3\n      pop\n      pop\n      pop\n      dup1\n      iszero\n      tag_15\n      jumpi\n      pop\n      0x01\n    tag_15:\n        /* \"Ep5/example.sol\":1106:1213  try externalContract.withdraw(101) {\r... */\n      tag_16\n      jumpi\n      jump(tag_20)\n    tag_16:\n    tag_20:\n        /* \"Ep5/example.sol\":1067:1220  function exec() public view {\r... */\n      jump\t// out\n        /* \"Ep5/example.sol\":954:985  Example public externalContract */\n    tag_8:\n      0x00\n      dup1\n      sload\n      swap1\n      0x0100\n      exp\n      swap1\n      div\n      0xffffffffffffffffffffffffffffffffffffffff\n      and\n      dup2\n      jump\t// out\n        /* \"#utility.yul\":7:166   */\n    tag_22:\n        /* \"#utility.yul\":108:159   */\n      tag_24\n        /* \"#utility.yul\":153:158   */\n      dup2\n        /* \"#utility.yul\":108:159   */\n      tag_25\n      jump\t// in\n    tag_24:\n        /* \"#utility.yul\":103:106   */\n      dup3\n        /* \"#utility.yul\":96:160   */\n      mstore\n        /* \"#utility.yul\":7:166   */\n      pop\n      pop\n      jump\t// out\n        /* \"#utility.yul\":172:323   */\n    tag_26:\n        /* \"#utility.yul\":269:316   */\n      tag_28\n        /* \"#utility.yul\":310:315   */\n      dup2\n        /* \"#utility.yul\":269:316   */\n      tag_29\n      jump\t// in\n    tag_28:\n        /* \"#utility.yul\":264:267   */\n      dup3\n        /* \"#utility.yul\":257:317   */\n      mstore\n        /* \"#utility.yul\":172:323   */\n      pop\n      pop\n      jump\t// out\n        /* \"#utility.yul\":329:579   */\n    tag_10:\n        /* \"#utility.yul\":436:440   */\n      0x00\n        /* \"#utility.yul\":474:476   */\n      0x20\n        /* \"#utility.yul\":463:472   */\n      dup3\n        /* \"#utility.yul\":459:477   */\n      add\n        /* \"#utility.yul\":451:477   */\n      swap1\n      pop\n        /* \"#utility.yul\":487:572   */\n      tag_31\n        /* \"#utility.yul\":569:570   */\n      0x00\n        /* \"#utility.yul\":558:567   */\n      dup4\n        /* \"#utility.yul\":554:571   */\n      add\n        /* \"#utility.yul\":545:551   */\n      dup5\n        /* \"#utility.yul\":487:572   */\n      tag_22\n      jump\t// in\n    tag_31:\n        /* \"#utility.yul\":329:579   */\n      swap3\n      swap2\n      pop\n      pop\n      jump\t// out\n        /* \"#utility.yul\":585:827   */\n    tag_13:\n        /* \"#utility.yul\":688:692   */\n      0x00\n        /* \"#utility.yul\":726:728   */\n      0x20\n        /* \"#utility.yul\":715:724   */\n      dup3\n        /* \"#utility.yul\":711:729   */\n      add\n        /* \"#utility.yul\":703:729   */\n      swap1\n      pop\n        /* \"#utility.yul\":739:820   */\n      tag_33\n        /* \"#utility.yul\":817:818   */\n      0x00\n        /* \"#utility.yul\":806:815   */\n      dup4\n        /* \"#utility.yul\":802:819   */\n      add\n        /* \"#utility.yul\":793:799   */\n      dup5\n        /* \"#utility.yul\":739:820   */\n      tag_26\n      jump\t// in\n    tag_33:\n        /* \"#utility.yul\":585:827   */\n      swap3\n      swap2\n      pop\n      pop\n      jump\t// out\n        /* \"#utility.yul\":833:959   */\n    tag_34:\n        /* \"#utility.yul\":870:877   */\n      0x00\n        /* \"#utility.yul\":910:952   */\n      0xffffffffffffffffffffffffffffffffffffffff\n        /* \"#utility.yul\":903:908   */\n      dup3\n        /* \"#utility.yul\":899:953   */\n      and\n        /* \"#utility.yul\":888:953   */\n      swap1\n      pop\n        /* \"#utility.yul\":833:959   */\n      swap2\n      swap1\n      pop\n      jump\t// out\n        /* \"#utility.yul\":965:1042   */\n    tag_36:\n        /* \"#utility.yul\":1002:1009   */\n      0x00\n        /* \"#utility.yul\":1031:1036   */\n      dup2\n        /* \"#utility.yul\":1020:1036   */\n      swap1\n      pop\n        /* \"#utility.yul\":965:1042   */\n      swap2\n      swap1\n      pop\n      jump\t// out\n        /* \"#utility.yul\":1048:1188   */\n    tag_25:\n        /* \"#utility.yul\":1112:1121   */\n      0x00\n        /* \"#utility.yul\":1145:1182   */\n      tag_39\n        /* \"#utility.yul\":1176:1181   */\n      dup3\n        /* \"#utility.yul\":1145:1182   */\n      tag_40\n      jump\t// in\n    tag_39:\n        /* \"#utility.yul\":1132:1182   */\n      swap1\n      pop\n        /* \"#utility.yul\":1048:1188   */\n      swap2\n      swap1\n      pop\n      jump\t// out\n        /* \"#utility.yul\":1194:1317   */\n    tag_29:\n        /* \"#utility.yul\":1254:1263   */\n      0x00\n        /* \"#utility.yul\":1287:1311   */\n      tag_42\n        /* \"#utility.yul\":1305:1310   */\n      dup3\n        /* \"#utility.yul\":1287:1311   */\n      tag_36\n      jump\t// in\n    tag_42:\n        /* \"#utility.yul\":1274:1311   */\n      swap1\n      pop\n        /* \"#utility.yul\":1194:1317   */\n      swap2\n      swap1\n      pop\n      jump\t// out\n        /* \"#utility.yul\":1323:1449   */\n    tag_40:\n        /* \"#utility.yul\":1373:1382   */\n      0x00\n        /* \"#utility.yul\":1406:1443   */\n      tag_44\n        /* \"#utility.yul\":1437:1442   */\n      dup3\n        /* \"#utility.yul\":1406:1443   */\n      tag_45\n      jump\t// in\n    tag_44:\n        /* \"#utility.yul\":1393:1443   */\n      swap1\n      pop\n        /* \"#utility.yul\":1323:1449   */\n      swap2\n      swap1\n      pop\n      jump\t// out\n        /* \"#utility.yul\":1455:1568   */\n    tag_45:\n        /* \"#utility.yul\":1505:1514   */\n      0x00\n        /* \"#utility.yul\":1538:1562   */\n      tag_47\n        /* \"#utility.yul\":1556:1561   */\n      dup3\n        /* \"#utility.yul\":1538:1562   */\n      tag_34\n      jump\t// in\n    tag_47:\n        /* \"#utility.yul\":1525:1562   */\n      swap1\n      pop\n        /* \"#utility.yul\":1455:1568   */\n      swap2\n      swap1\n      pop\n      jump\t// out\n\n    auxdata: 0xa2646970667358221220796c1bb472d637d7bc359c5e111b8547758b53188b3359b6c0fc9fe68b1914a964736f6c63430008070033\n}\n\nsub_1: assembly {\n        /* \"Ep5/example.sol\":62:923  contract Example {\r... */\n      mstore(0x40, 0x80)\n      callvalue\n      dup1\n      iszero\n      tag_1\n      jumpi\n      0x00\n      dup1\n      revert\n    tag_1:\n      pop\n      dataSize(sub_0)\n      dup1\n      dataOffset(sub_0)\n      0x00\n      codecopy\n      0x00\n      return\n    stop\n\n    sub_0: assembly {\n            /* \"Ep5/example.sol\":62:923  contract Example {\r... */\n          mstore(0x40, 0x80)\n          callvalue\n          dup1\n          iszero\n          tag_1\n          jumpi\n          0x00\n          dup1\n          revert\n        tag_1:\n          pop\n          jumpi(tag_2, lt(calldatasize, 0x04))\n          shr(0xe0, calldataload(0x00))\n          dup1\n          0x2e1a7d4d\n          eq\n          tag_3\n          jumpi\n        tag_2:\n          0x00\n          dup1\n          revert\n            /* \"Ep5/example.sol\":278:920  function withdraw(uint amount) public pure {\r... */\n        tag_3:\n          tag_4\n          0x04\n          dup1\n          calldatasize\n          sub\n          dup2\n          add\n          swap1\n          tag_5\n          swap2\n          swap1\n          tag_6\n          jump\t// in\n        tag_5:\n          tag_7\n          jump\t// in\n        tag_4:\n          stop\n        tag_7:\n            /* \"Ep5/example.sol\":332:342  uint total */\n          0x00\n            /* \"Ep5/example.sol\":345:348  100 */\n          0x64\n            /* \"Ep5/example.sol\":332:348  uint total = 100 */\n          swap1\n          pop\n            /* \"Ep5/example.sol\":551:556  total */\n          dup1\n            /* \"Ep5/example.sol\":541:547  amount */\n          dup3\n            /* \"Ep5/example.sol\":541:556  amount <= total */\n          gt\n          iszero\n            /* \"Ep5/example.sol\":533:588  require(amount <= total, \"amount must less then total\") */\n          tag_9\n          jumpi\n          mload(0x40)\n          0x08c379a000000000000000000000000000000000000000000000000000000000\n          dup2\n          mstore\n          0x04\n          add\n          tag_10\n          swap1\n          tag_11\n          jump\t// in\n        tag_10:\n          mload(0x40)\n          dup1\n          swap2\n          sub\n          swap1\n          revert\n        tag_9:\n            /* \"Ep5/example.sol\":760:765  total */\n          dup1\n            /* \"Ep5/example.sol\":751:757  amount */\n          dup3\n            /* \"Ep5/example.sol\":751:765  amount > total */\n          gt\n            /* \"Ep5/example.sol\":747:830  if (amount > total) {\r... */\n          iszero\n          tag_12\n          jumpi\n            /* \"Ep5/example.sol\":804:810  amount */\n          dup2\n            /* \"Ep5/example.sol\":812:817  total */\n          dup2\n            /* \"Ep5/example.sol\":789:818  NotEnoughFunds(amount, total) */\n          mload(0x40)\n          0x8c90536800000000000000000000000000000000000000000000000000000000\n          dup2\n          mstore\n          0x04\n          add\n          tag_13\n          swap3\n          swap2\n          swap1\n          tag_14\n          jump\t// in\n        tag_13:\n          mload(0x40)\n          dup1\n          swap2\n          sub\n          swap1\n          revert\n            /* \"Ep5/example.sol\":747:830  if (amount > total) {\r... */\n        tag_12:\n            /* \"Ep5/example.sol\":910:911  0 */\n          0x00\n            /* \"Ep5/example.sol\":901:907  amount */\n          dup3\n            /* \"Ep5/example.sol\":901:911  amount > 0 */\n          gt\n            /* \"Ep5/example.sol\":894:912  assert(amount > 0) */\n          tag_15\n          jumpi\n          tag_16\n          tag_17\n          jump\t// in\n        tag_16:\n        tag_15:\n            /* \"Ep5/example.sol\":321:920  {\r... */\n          pop\n            /* \"Ep5/example.sol\":278:920  function withdraw(uint amount) public pure {\r... */\n          pop\n          jump\t// out\n            /* \"#utility.yul\":7:146   */\n        tag_19:\n            /* \"#utility.yul\":53:58   */\n          0x00\n            /* \"#utility.yul\":91:97   */\n          dup2\n            /* \"#utility.yul\":78:98   */\n          calldataload\n            /* \"#utility.yul\":69:98   */\n          swap1\n          pop\n            /* \"#utility.yul\":107:140   */\n          tag_21\n            /* \"#utility.yul\":134:139   */\n          dup2\n            /* \"#utility.yul\":107:140   */\n          tag_22\n          jump\t// in\n        tag_21:\n            /* \"#utility.yul\":7:146   */\n          swap3\n          swap2\n          pop\n          pop\n          jump\t// out\n            /* \"#utility.yul\":152:481   */\n        tag_6:\n            /* \"#utility.yul\":211:217   */\n          0x00\n            /* \"#utility.yul\":260:262   */\n          0x20\n            /* \"#utility.yul\":248:257   */\n          dup3\n            /* \"#utility.yul\":239:246   */\n          dup5\n            /* \"#utility.yul\":235:258   */\n          sub\n            /* \"#utility.yul\":231:263   */\n          slt\n            /* \"#utility.yul\":228:347   */\n          iszero\n          tag_24\n          jumpi\n            /* \"#utility.yul\":266:345   */\n          tag_25\n          tag_26\n          jump\t// in\n        tag_25:\n            /* \"#utility.yul\":228:347   */\n        tag_24:\n            /* \"#utility.yul\":386:387   */\n          0x00\n            /* \"#utility.yul\":411:464   */\n          tag_27\n            /* \"#utility.yul\":456:463   */\n          dup5\n            /* \"#utility.yul\":447:453   */\n          dup3\n            /* \"#utility.yul\":436:445   */\n          dup6\n            /* \"#utility.yul\":432:454   */\n          add\n            /* \"#utility.yul\":411:464   */\n          tag_19\n          jump\t// in\n        tag_27:\n            /* \"#utility.yul\":401:464   */\n          swap2\n          pop\n            /* \"#utility.yul\":357:474   */\n          pop\n            /* \"#utility.yul\":152:481   */\n          swap3\n          swap2\n          pop\n          pop\n          jump\t// out\n            /* \"#utility.yul\":487:853   */\n        tag_28:\n            /* \"#utility.yul\":629:632   */\n          0x00\n            /* \"#utility.yul\":650:717   */\n          tag_30\n            /* \"#utility.yul\":714:716   */\n          0x1b\n            /* \"#utility.yul\":709:712   */\n          dup4\n            /* \"#utility.yul\":650:717   */\n          tag_31\n          jump\t// in\n        tag_30:\n            /* \"#utility.yul\":643:717   */\n          swap2\n          pop\n            /* \"#utility.yul\":726:819   */\n          tag_32\n            /* \"#utility.yul\":815:818   */\n          dup3\n            /* \"#utility.yul\":726:819   */\n          tag_33\n          jump\t// in\n        tag_32:\n            /* \"#utility.yul\":844:846   */\n          0x20\n            /* \"#utility.yul\":839:842   */\n          dup3\n            /* \"#utility.yul\":835:847   */\n          add\n            /* \"#utility.yul\":828:847   */\n          swap1\n          pop\n            /* \"#utility.yul\":487:853   */\n          swap2\n          swap1\n          pop\n          jump\t// out\n            /* \"#utility.yul\":859:977   */\n        tag_34:\n            /* \"#utility.yul\":946:970   */\n          tag_36\n            /* \"#utility.yul\":964:969   */\n          dup2\n            /* \"#utility.yul\":946:970   */\n          tag_37\n          jump\t// in\n        tag_36:\n            /* \"#utility.yul\":941:944   */\n          dup3\n            /* \"#utility.yul\":934:971   */\n          mstore\n            /* \"#utility.yul\":859:977   */\n          pop\n          pop\n          jump\t// out\n            /* \"#utility.yul\":983:1402   */\n        tag_11:\n            /* \"#utility.yul\":1149:1153   */\n          0x00\n            /* \"#utility.yul\":1187:1189   */\n          0x20\n            /* \"#utility.yul\":1176:1185   */\n          dup3\n            /* \"#utility.yul\":1172:1190   */\n          add\n            /* \"#utility.yul\":1164:1190   */\n          swap1\n          pop\n            /* \"#utility.yul\":1236:1245   */\n          dup2\n            /* \"#utility.yul\":1230:1234   */\n          dup2\n            /* \"#utility.yul\":1226:1246   */\n          sub\n            /* \"#utility.yul\":1222:1223   */\n          0x00\n            /* \"#utility.yul\":1211:1220   */\n          dup4\n            /* \"#utility.yul\":1207:1224   */\n          add\n            /* \"#utility.yul\":1200:1247   */\n          mstore\n            /* \"#utility.yul\":1264:1395   */\n          tag_39\n            /* \"#utility.yul\":1390:1394   */\n          dup2\n            /* \"#utility.yul\":1264:1395   */\n          tag_28\n          jump\t// in\n        tag_39:\n            /* \"#utility.yul\":1256:1395   */\n          swap1\n          pop\n            /* \"#utility.yul\":983:1402   */\n          swap2\n          swap1\n          pop\n          jump\t// out\n            /* \"#utility.yul\":1408:1740   */\n        tag_14:\n            /* \"#utility.yul\":1529:1533   */\n          0x00\n            /* \"#utility.yul\":1567:1569   */\n          0x40\n            /* \"#utility.yul\":1556:1565   */\n          dup3\n            /* \"#utility.yul\":1552:1570   */\n          add\n            /* \"#utility.yul\":1544:1570   */\n          swap1\n          pop\n            /* \"#utility.yul\":1580:1651   */\n          tag_41\n            /* \"#utility.yul\":1648:1649   */\n          0x00\n            /* \"#utility.yul\":1637:1646   */\n          dup4\n            /* \"#utility.yul\":1633:1650   */\n          add\n            /* \"#utility.yul\":1624:1630   */\n          dup6\n            /* \"#utility.yul\":1580:1651   */\n          tag_34\n          jump\t// in\n        tag_41:\n            /* \"#utility.yul\":1661:1733   */\n          tag_42\n            /* \"#utility.yul\":1729:1731   */\n          0x20\n            /* \"#utility.yul\":1718:1727   */\n          dup4\n            /* \"#utility.yul\":1714:1732   */\n          add\n            /* \"#utility.yul\":1705:1711   */\n          dup5\n            /* \"#utility.yul\":1661:1733   */\n          tag_34\n          jump\t// in\n        tag_42:\n            /* \"#utility.yul\":1408:1740   */\n          swap4\n          swap3\n          pop\n          pop\n          pop\n          jump\t// out\n            /* \"#utility.yul\":1827:1996   */\n        tag_31:\n            /* \"#utility.yul\":1911:1922   */\n          0x00\n            /* \"#utility.yul\":1945:1951   */\n          dup3\n            /* \"#utility.yul\":1940:1943   */\n          dup3\n            /* \"#utility.yul\":1933:1952   */\n          mstore\n            /* \"#utility.yul\":1985:1989   */\n          0x20\n            /* \"#utility.yul\":1980:1983   */\n          dup3\n            /* \"#utility.yul\":1976:1990   */\n          add\n            /* \"#utility.yul\":1961:1990   */\n          swap1\n          pop\n            /* \"#utility.yul\":1827:1996   */\n          swap3\n          swap2\n          pop\n          pop\n          jump\t// out\n            /* \"#utility.yul\":2002:2079   */\n        tag_37:\n            /* \"#utility.yul\":2039:2046   */\n          0x00\n            /* \"#utility.yul\":2068:2073   */\n          dup2\n            /* \"#utility.yul\":2057:2073   */\n          swap1\n          pop\n            /* \"#utility.yul\":2002:2079   */\n          swap2\n          swap1\n          pop\n          jump\t// out\n            /* \"#utility.yul\":2085:2265   */\n        tag_17:\n            /* \"#utility.yul\":2133:2210   */\n          0x4e487b7100000000000000000000000000000000000000000000000000000000\n            /* \"#utility.yul\":2130:2131   */\n          0x00\n            /* \"#utility.yul\":2123:2211   */\n          mstore\n            /* \"#utility.yul\":2230:2234   */\n          0x01\n            /* \"#utility.yul\":2227:2228   */\n          0x04\n            /* \"#utility.yul\":2220:2235   */\n          mstore\n            /* \"#utility.yul\":2254:2258   */\n          0x24\n            /* \"#utility.yul\":2251:2252   */\n          0x00\n            /* \"#utility.yul\":2244:2259   */\n          revert\n            /* \"#utility.yul\":2394:2511   */\n        tag_26:\n            /* \"#utility.yul\":2503:2504   */\n          0x00\n            /* \"#utility.yul\":2500:2501   */\n          dup1\n            /* \"#utility.yul\":2493:2505   */\n          revert\n            /* \"#utility.yul\":2517:2694   */\n        tag_33:\n            /* \"#utility.yul\":2657:2686   */\n          0x616d6f756e74206d757374206c657373207468656e20746f74616c0000000000\n            /* \"#utility.yul\":2653:2654   */\n          0x00\n            /* \"#utility.yul\":2645:2651   */\n          dup3\n            /* \"#utility.yul\":2641:2655   */\n          add\n            /* \"#utility.yul\":2634:2687   */\n          mstore\n            /* \"#utility.yul\":2517:2694   */\n          pop\n          jump\t// out\n            /* \"#utility.yul\":2700:2822   */\n        tag_22:\n            /* \"#utility.yul\":2773:2797   */\n          tag_53\n            /* \"#utility.yul\":2791:2796   */\n          dup2\n            /* \"#utility.yul\":2773:2797   */\n          tag_37\n          jump\t// in\n        tag_53:\n            /* \"#utility.yul\":2766:2771   */\n          dup2\n            /* \"#utility.yul\":2763:2798   */\n          eq\n            /* \"#utility.yul\":2753:2816   */\n          tag_54\n          jumpi\n            /* \"#utility.yul\":2812:2813   */\n          0x00\n            /* \"#utility.yul\":2809:2810   */\n          dup1\n            /* \"#utility.yul\":2802:2814   */\n          revert\n            /* \"#utility.yul\":2753:2816   */\n        tag_54:\n            /* \"#utility.yul\":2700:2822   */\n          pop\n          jump\t// out\n\n        auxdata: 0xa2646970667358221220b9ce52444c809d360ab2853fc3a594505f8b0db521d80d652bdd74f8c27fd89164736f6c63430008070033\n    }\n}\n",
				"bytecode": {
					"linkReferences": {},
					"object": "608060405234801561001057600080fd5b5060405161001d9061007e565b604051809103906000f080158015610039573d6000803e3d6000fd5b506000806101000a81548173ffffffffffffffffffffffffffffffffffffffff021916908373ffffffffffffffffffffffffffffffffffffffff16021790555061008b565b610293806102ac83390190565b6102128061009a6000396000f3fe608060405234801561001057600080fd5b50600436106100365760003560e01c8063c1c0e9c41461003b578063d895540f14610045575b600080fd5b610043610063565b005b61004d6100f2565b60405161005a9190610134565b60405180910390f35b60008054906101000a900473ffffffffffffffffffffffffffffffffffffffff1673ffffffffffffffffffffffffffffffffffffffff16632e1a7d4d60656040518263ffffffff1660e01b81526004016100bd919061014f565b60006040518083038186803b1580156100d557600080fd5b505afa9250505080156100e6575060015b6100ef576100f0565b5b565b60008054906101000a900473ffffffffffffffffffffffffffffffffffffffff1681565b61011f81610194565b82525050565b61012e816101a6565b82525050565b60006020820190506101496000830184610116565b92915050565b60006020820190506101646000830184610125565b92915050565b600073ffffffffffffffffffffffffffffffffffffffff82169050919050565b6000819050919050565b600061019f826101b8565b9050919050565b60006101b18261018a565b9050919050565b60006101c3826101ca565b9050919050565b60006101d58261016a565b905091905056fea2646970667358221220796c1bb472d637d7bc359c5e111b8547758b53188b3359b6c0fc9fe68b1914a964736f6c63430008070033608060405234801561001057600080fd5b50610273806100206000396000f3fe608060405234801561001057600080fd5b506004361061002b5760003560e01c80632e1a7d4d14610030575b600080fd5b61004a60048036038101906100459190610106565b61004c565b005b60006064905080821115610095576040517f08c379a000000000000000000000000000000000000000000000000000000000815260040161008c90610165565b60405180910390fd5b808211156100dc5781816040517f8c9053680000000000000000000000000000000000000000000000000000000081526004016100d3929190610185565b60405180910390fd5b600082116100ed576100ec6101c9565b5b5050565b60008135905061010081610226565b92915050565b60006020828403121561011c5761011b6101f8565b5b600061012a848285016100f1565b91505092915050565b6000610140601b836101ae565b915061014b826101fd565b602082019050919050565b61015f816101bf565b82525050565b6000602082019050818103600083015261017e81610133565b9050919050565b600060408201905061019a6000830185610156565b6101a76020830184610156565b9392505050565b600082825260208201905092915050565b6000819050919050565b7f4e487b7100000000000000000000000000000000000000000000000000000000600052600160045260246000fd5b600080fd5b7f616d6f756e74206d757374206c657373207468656e20746f74616c0000000000600082015250565b61022f816101bf565b811461023a57600080fd5b5056fea2646970667358221220b9ce52444c809d360ab2853fc3a594505f8b0db521d80d652bdd74f8c27fd89164736f6c63430008070033",
					"opcodes": "PUSH1 0x80 PUSH1 0x40 MSTORE CALLVALUE DUP1 ISZERO PUSH2 0x10 JUMPI PUSH1 0x0 DUP1 REVERT JUMPDEST POP PUSH1 0x40 MLOAD PUSH2 0x1D SWAP1 PUSH2 0x7E JUMP JUMPDEST PUSH1 0x40 MLOAD DUP1 SWAP2 SUB SWAP1 PUSH1 0x0 CREATE DUP1 ISZERO DUP1 ISZERO PUSH2 0x39 JUMPI RETURNDATASIZE PUSH1 0x0 DUP1 RETURNDATACOPY RETURNDATASIZE PUSH1 0x0 REVERT JUMPDEST POP PUSH1 0x0 DUP1 PUSH2 0x100 EXP DUP2 SLOAD DUP2 PUSH20 0xFFFFFFFFFFFFFFFFFFFFFFFFFFFFFFFFFFFFFFFF MUL NOT AND SWAP1 DUP4 PUSH20 0xFFFFFFFFFFFFFFFFFFFFFFFFFFFFFFFFFFFFFFFF AND MUL OR SWAP1 SSTORE POP PUSH2 0x8B JUMP JUMPDEST PUSH2 0x293 DUP1 PUSH2 0x2AC DUP4 CODECOPY ADD SWAP1 JUMP JUMPDEST PUSH2 0x212 DUP1 PUSH2 0x9A PUSH1 0x0 CODECOPY PUSH1 0x0 RETURN INVALID PUSH1 0x80 PUSH1 0x40 MSTORE CALLVALUE DUP1 ISZERO PUSH2 0x10 JUMPI PUSH1 0x0 DUP1 REVERT JUMPDEST POP PUSH1 0x4 CALLDATASIZE LT PUSH2 0x36 JUMPI PUSH1 0x0 CALLDATALOAD PUSH1 0xE0 SHR DUP1 PUSH4 0xC1C0E9C4 EQ PUSH2 0x3B JUMPI DUP1 PUSH4 0xD895540F EQ PUSH2 0x45 JUMPI JUMPDEST PUSH1 0x0 DUP1 REVERT JUMPDEST PUSH2 0x43 PUSH2 0x63 JUMP JUMPDEST STOP JUMPDEST PUSH2 0x4D PUSH2 0xF2 JUMP JUMPDEST PUSH1 0x40 MLOAD PUSH2 0x5A SWAP2 SWAP1 PUSH2 0x134 JUMP JUMPDEST PUSH1 0x40 MLOAD DUP1 SWAP2 SUB SWAP1 RETURN JUMPDEST PUSH1 0x0 DUP1 SLOAD SWAP1 PUSH2 0x100 EXP SWAP1 DIV PUSH20 0xFFFFFFFFFFFFFFFFFFFFFFFFFFFFFFFFFFFFFFFF AND PUSH20 0xFFFFFFFFFFFFFFFFFFFFFFFFFFFFFFFFFFFFFFFF AND PUSH4 0x2E1A7D4D PUSH1 0x65 PUSH1 0x40 MLOAD DUP3 PUSH4 0xFFFFFFFF AND PUSH1 0xE0 SHL DUP2 MSTORE PUSH1 0x4 ADD PUSH2 0xBD SWAP2 SWAP1 PUSH2 0x14F JUMP JUMPDEST PUSH1 0x0 PUSH1 0x40 MLOAD DUP1 DUP4 SUB DUP2 DUP7 DUP1 EXTCODESIZE ISZERO DUP1 ISZERO PUSH2 0xD5 JUMPI PUSH1 0x0 DUP1 REVERT JUMPDEST POP GAS STATICCALL SWAP3 POP POP POP DUP1 ISZERO PUSH2 0xE6 JUMPI POP PUSH1 0x1 JUMPDEST PUSH2 0xEF JUMPI PUSH2 0xF0 JUMP JUMPDEST JUMPDEST JUMP JUMPDEST PUSH1 0x0 DUP1 SLOAD SWAP1 PUSH2 0x100 EXP SWAP1 DIV PUSH20 0xFFFFFFFFFFFFFFFFFFFFFFFFFFFFFFFFFFFFFFFF AND DUP2 JUMP JUMPDEST PUSH2 0x11F DUP2 PUSH2 0x194 JUMP JUMPDEST DUP3 MSTORE POP POP JUMP JUMPDEST PUSH2 0x12E DUP2 PUSH2 0x1A6 JUMP JUMPDEST DUP3 MSTORE POP POP JUMP JUMPDEST PUSH1 0x0 PUSH1 0x20 DUP3 ADD SWAP1 POP PUSH2 0x149 PUSH1 0x0 DUP4 ADD DUP5 PUSH2 0x116 JUMP JUMPDEST SWAP3 SWAP2 POP POP JUMP JUMPDEST PUSH1 0x0 PUSH1 0x20 DUP3 ADD SWAP1 POP PUSH2 0x164 PUSH1 0x0 DUP4 ADD DUP5 PUSH2 0x125 JUMP JUMPDEST SWAP3 SWAP2 POP POP JUMP JUMPDEST PUSH1 0x0 PUSH20 0xFFFFFFFFFFFFFFFFFFFFFFFFFFFFFFFFFFFFFFFF DUP3 AND SWAP1 POP SWAP2 SWAP1 POP JUMP JUMPDEST PUSH1 0x0 DUP2 SWAP1 POP SWAP2 SWAP1 POP JUMP JUMPDEST PUSH1 0x0 PUSH2 0x19F DUP3 PUSH2 0x1B8 JUMP JUMPDEST SWAP1 POP SWAP2 SWAP1 POP JUMP JUMPDEST PUSH1 0x0 PUSH2 0x1B1 DUP3 PUSH2 0x18A JUMP JUMPDEST SWAP1 POP SWAP2 SWAP1 POP JUMP JUMPDEST PUSH1 0x0 PUSH2 0x1C3 DUP3 PUSH2 0x1CA JUMP JUMPDEST SWAP1 POP SWAP2 SWAP1 POP JUMP JUMPDEST PUSH1 0x0 PUSH2 0x1D5 DUP3 PUSH2 0x16A JUMP JUMPDEST SWAP1 POP SWAP2 SWAP1 POP JUMP INVALID LOG2 PUSH5 0x6970667358 0x22 SLT KECCAK256 PUSH26 0x6C1BB472D637D7BC359C5E111B8547758B53188B3359B6C0FC9F 0xE6 DUP12 NOT EQ 0xA9 PUSH5 0x736F6C6343 STOP ADDMOD SMOD STOP CALLER PUSH1 0x80 PUSH1 0x40 MSTORE CALLVALUE DUP1 ISZERO PUSH2 0x10 JUMPI PUSH1 0x0 DUP1 REVERT JUMPDEST POP PUSH2 0x273 DUP1 PUSH2 0x20 PUSH1 0x0 CODECOPY PUSH1 0x0 RETURN INVALID PUSH1 0x80 PUSH1 0x40 MSTORE CALLVALUE DUP1 ISZERO PUSH2 0x10 JUMPI PUSH1 0x0 DUP1 REVERT JUMPDEST POP PUSH1 0x4 CALLDATASIZE LT PUSH2 0x2B JUMPI PUSH1 0x0 CALLDATALOAD PUSH1 0xE0 SHR DUP1 PUSH4 0x2E1A7D4D EQ PUSH2 0x30 JUMPI JUMPDEST PUSH1 0x0 DUP1 REVERT JUMPDEST PUSH2 0x4A PUSH1 0x4 DUP1 CALLDATASIZE SUB DUP2 ADD SWAP1 PUSH2 0x45 SWAP2 SWAP1 PUSH2 0x106 JUMP JUMPDEST PUSH2 0x4C JUMP JUMPDEST STOP JUMPDEST PUSH1 0x0 PUSH1 0x64 SWAP1 POP DUP1 DUP3 GT ISZERO PUSH2 0x95 JUMPI PUSH1 0x40 MLOAD PUSH32 0x8C379A000000000000000000000000000000000000000000000000000000000 DUP2 MSTORE PUSH1 0x4 ADD PUSH2 0x8C SWAP1 PUSH2 0x165 JUMP JUMPDEST PUSH1 0x40 MLOAD DUP1 SWAP2 SUB SWAP1 REVERT JUMPDEST DUP1 DUP3 GT ISZERO PUSH2 0xDC JUMPI DUP2 DUP2 PUSH1 0x40 MLOAD PUSH32 0x8C90536800000000000000000000000000000000000000000000000000000000 DUP2 MSTORE PUSH1 0x4 ADD PUSH2 0xD3 SWAP3 SWAP2 SWAP1 PUSH2 0x185 JUMP JUMPDEST PUSH1 0x40 MLOAD DUP1 SWAP2 SUB SWAP1 REVERT JUMPDEST PUSH1 0x0 DUP3 GT PUSH2 0xED JUMPI PUSH2 0xEC PUSH2 0x1C9 JUMP JUMPDEST JUMPDEST POP POP JUMP JUMPDEST PUSH1 0x0 DUP2 CALLDATALOAD SWAP1 POP PUSH2 0x100 DUP2 PUSH2 0x226 JUMP JUMPDEST SWAP3 SWAP2 POP POP JUMP JUMPDEST PUSH1 0x0 PUSH1 0x20 DUP3 DUP5 SUB SLT ISZERO PUSH2 0x11C JUMPI PUSH2 0x11B PUSH2 0x1F8 JUMP JUMPDEST JUMPDEST PUSH1 0x0 PUSH2 0x12A DUP5 DUP3 DUP6 ADD PUSH2 0xF1 JUMP JUMPDEST SWAP2 POP POP SWAP3 SWAP2 POP POP JUMP JUMPDEST PUSH1 0x0 PUSH2 0x140 PUSH1 0x1B DUP4 PUSH2 0x1AE JUMP JUMPDEST SWAP2 POP PUSH2 0x14B DUP3 PUSH2 0x1FD JUMP JUMPDEST PUSH1 0x20 DUP3 ADD SWAP1 POP SWAP2 SWAP1 POP JUMP JUMPDEST PUSH2 0x15F DUP2 PUSH2 0x1BF JUMP JUMPDEST DUP3 MSTORE POP POP JUMP JUMPDEST PUSH1 0x0 PUSH1 0x20 DUP3 ADD SWAP1 POP DUP2 DUP2 SUB PUSH1 0x0 DUP4 ADD MSTORE PUSH2 0x17E DUP2 PUSH2 0x133 JUMP JUMPDEST SWAP1 POP SWAP2 SWAP1 POP JUMP JUMPDEST PUSH1 0x0 PUSH1 0x40 DUP3 ADD SWAP1 POP PUSH2 0x19A PUSH1 0x0 DUP4 ADD DUP6 PUSH2 0x156 JUMP JUMPDEST PUSH2 0x1A7 PUSH1 0x20 DUP4 ADD DUP5 PUSH2 0x156 JUMP JUMPDEST SWAP4 SWAP3 POP POP POP JUMP JUMPDEST PUSH1 0x0 DUP3 DUP3 MSTORE PUSH1 0x20 DUP3 ADD SWAP1 POP SWAP3 SWAP2 POP POP JUMP JUMPDEST PUSH1 0x0 DUP2 SWAP1 POP SWAP2 SWAP1 POP JUMP JUMPDEST PUSH32 0x4E487B7100000000000000000000000000000000000000000000000000000000 PUSH1 0x0 MSTORE PUSH1 0x1 PUSH1 0x4 MSTORE PUSH1 0x24 PUSH1 0x0 REVERT JUMPDEST PUSH1 0x0 DUP1 REVERT JUMPDEST PUSH32 0x616D6F756E74206D757374206C657373207468656E20746F74616C0000000000 PUSH1 0x0 DUP3 ADD MSTORE POP JUMP JUMPDEST PUSH2 0x22F DUP2 PUSH2 0x1BF JUMP JUMPDEST DUP2 EQ PUSH2 0x23A JUMPI PUSH1 0x0 DUP1 REVERT JUMPDEST POP JUMP INVALID LOG2 PUSH5 0x6970667358 0x22 SLT KECCAK256 0xB9 0xCE MSTORE DIFFICULTY 0x4C DUP1 SWAP14 CALLDATASIZE EXP 0xB2 DUP6 EXTCODEHASH 0xC3 0xA5 SWAP5 POP 0x5F DUP12 0xD 0xB5 0x21 0xD8 0xD PUSH6 0x2BDD74F8C27F 0xD8 SWAP2 PUSH5 0x736F6C6343 STOP ADDMOD SMOD STOP CALLER "
				},
				"gasEstimates": {
					"creation": {
						"codeDepositCost": "106000",
						"executionCost": "infinite",
						"totalCost": "infinite"
					},
					"external": {
						"exec()": "infinite",
						"externalContract()": "2597"
					}
				},
				"methodIdentifiers": {
					"exec()": "c1c0e9c4",
					"externalContract()": "d895540f"
				}
			},
			"storageLayout": {
				"storage": [
					{
						"astId": 45,
						"contract": "Ep5/example.sol:TryCatcher",
						"label": "externalContract",
						"offset": 0,
						"slot": "0",
						"type": "t_contract(Example)42"
					}
				],
				"types": {
					"t_contract(Example)42": {
						"encoding": "inplace",
						"label": "contract Example",
						"numberOfBytes": "20"
					}
				}
			},
			"userdoc": {
				"kind": "user",
				"methods": {},
				"version": 1
			}
		}
	}
}