{
	"Ep9/example.sol": {
		"Basic0": {
			"abi": [
				{
					"inputs": [],
					"name": "getTitle",
					"outputs": [
						{
							"internalType": "string",
							"name": "",
							"type": "string"
						}
					],
					"stateMutability": "view",
					"type": "function"
				},
				{
					"inputs": [],
					"name": "title",
					"outputs": [
						{
							"internalType": "string",
							"name": "",
							"type": "string"
						}
					],
					"stateMutability": "view",
					"type": "function"
				}
			],
			"devdoc": {
				"kind": "dev",
				"methods": {},
				"version": 1
			},
			"evm": {
				"assembly": "    /* \"Ep9/example.sol\":316:362  contract Basic0 is Basic(\"i am Basic0\") {\r... */\n  mstore(0x40, 0x80)\n  callvalue\n  dup1\n  iszero\n  tag_1\n  jumpi\n  0x00\n  dup1\n  revert\ntag_1:\n  pop\n    /* \"Ep9/example.sol\":110:175  constructor(string memory _title) {\r... */\n  mload(0x40)\n  dup1\n  0x40\n  add\n  0x40\n  mstore\n  dup1\n  0x0b\n  dup2\n  mstore\n  0x20\n  add\n  0x6920616d20426173696330000000000000000000000000000000000000000000\n  dup2\n  mstore\n  pop\n    /* \"Ep9/example.sol\":162:168  _title */\n  dup1\n    /* \"Ep9/example.sol\":154:159  title */\n  0x00\n    /* \"Ep9/example.sol\":154:168  title = _title */\n  swap1\n  dup1\n  mload\n  swap1\n  0x20\n  add\n  swap1\n  tag_4\n  swap3\n  swap2\n  swap1\n  tag_5\n  jump\t// in\ntag_4:\n  pop\n    /* \"Ep9/example.sol\":110:175  constructor(string memory _title) {\r... */\n  pop\n    /* \"Ep9/example.sol\":316:362  contract Basic0 is Basic(\"i am Basic0\") {\r... */\n  jump(tag_6)\ntag_5:\n  dup3\n  dup1\n  sload\n  tag_7\n  swap1\n  tag_8\n  jump\t// in\ntag_7:\n  swap1\n  0x00\n  mstore\n  keccak256(0x00, 0x20)\n  swap1\n  0x1f\n  add\n  0x20\n  swap1\n  div\n  dup2\n  add\n  swap3\n  dup3\n  tag_10\n  jumpi\n  0x00\n  dup6\n  sstore\n  jump(tag_9)\ntag_10:\n  dup3\n  0x1f\n  lt\n  tag_11\n  jumpi\n  dup1\n  mload\n  not(0xff)\n  and\n  dup4\n  dup1\n  add\n  or\n  dup6\n  sstore\n  jump(tag_9)\ntag_11:\n  dup3\n  dup1\n  add\n  0x01\n  add\n  dup6\n  sstore\n  dup3\n  iszero\n  tag_9\n  jumpi\n  swap2\n  dup3\n  add\ntag_12:\n  dup3\n  dup2\n  gt\n  iszero\n  tag_13\n  jumpi\n  dup3\n  mload\n  dup3\n  sstore\n  swap2\n  0x20\n  add\n  swap2\n  swap1\n  0x01\n  add\n  swap1\n  jump(tag_12)\ntag_13:\ntag_9:\n  pop\n  swap1\n  pop\n  tag_14\n  swap2\n  swap1\n  tag_15\n  jump\t// in\ntag_14:\n  pop\n  swap1\n  jump\t// out\ntag_15:\ntag_16:\n  dup1\n  dup3\n  gt\n  iszero\n  tag_17\n  jumpi\n  0x00\n  dup2\n  0x00\n  swap1\n  sstore\n  pop\n  0x01\n  add\n  jump(tag_16)\ntag_17:\n  pop\n  swap1\n  jump\t// out\n    /* \"#utility.yul\":7:327   */\ntag_8:\n    /* \"#utility.yul\":51:57   */\n  0x00\n    /* \"#utility.yul\":88:89   */\n  0x02\n    /* \"#utility.yul\":82:86   */\n  dup3\n    /* \"#utility.yul\":78:90   */\n  div\n    /* \"#utility.yul\":68:90   */\n  swap1\n  pop\n    /* \"#utility.yul\":135:136   */\n  0x01\n    /* \"#utility.yul\":129:133   */\n  dup3\n    /* \"#utility.yul\":125:137   */\n  and\n    /* \"#utility.yul\":156:174   */\n  dup1\n    /* \"#utility.yul\":146:227   */\n  tag_20\n  jumpi\n    /* \"#utility.yul\":212:216   */\n  0x7f\n    /* \"#utility.yul\":204:210   */\n  dup3\n    /* \"#utility.yul\":200:217   */\n  and\n    /* \"#utility.yul\":190:217   */\n  swap2\n  pop\n    /* \"#utility.yul\":146:227   */\ntag_20:\n    /* \"#utility.yul\":274:276   */\n  0x20\n    /* \"#utility.yul\":266:272   */\n  dup3\n    /* \"#utility.yul\":263:277   */\n  lt\n    /* \"#utility.yul\":243:261   */\n  dup2\n    /* \"#utility.yul\":240:278   */\n  eq\n    /* \"#utility.yul\":237:321   */\n  iszero\n  tag_21\n  jumpi\n    /* \"#utility.yul\":293:311   */\n  tag_22\n  tag_23\n  jump\t// in\ntag_22:\n    /* \"#utility.yul\":237:321   */\ntag_21:\n    /* \"#utility.yul\":58:327   */\n  pop\n    /* \"#utility.yul\":7:327   */\n  swap2\n  swap1\n  pop\n  jump\t// out\n    /* \"#utility.yul\":333:513   */\ntag_23:\n    /* \"#utility.yul\":381:458   */\n  0x4e487b7100000000000000000000000000000000000000000000000000000000\n    /* \"#utility.yul\":378:379   */\n  0x00\n    /* \"#utility.yul\":371:459   */\n  mstore\n    /* \"#utility.yul\":478:482   */\n  0x22\n    /* \"#utility.yul\":475:476   */\n  0x04\n    /* \"#utility.yul\":468:483   */\n  mstore\n    /* \"#utility.yul\":502:506   */\n  0x24\n    /* \"#utility.yul\":499:500   */\n  0x00\n    /* \"#utility.yul\":492:507   */\n  revert\n    /* \"Ep9/example.sol\":316:362  contract Basic0 is Basic(\"i am Basic0\") {\r... */\ntag_6:\n  dataSize(sub_0)\n  dup1\n  dataOffset(sub_0)\n  0x00\n  codecopy\n  0x00\n  return\nstop\n\nsub_0: assembly {\n        /* \"Ep9/example.sol\":316:362  contract Basic0 is Basic(\"i am Basic0\") {\r... */\n      mstore(0x40, 0x80)\n      callvalue\n      dup1\n      iszero\n      tag_1\n      jumpi\n      0x00\n      dup1\n      revert\n    tag_1:\n      pop\n      jumpi(tag_2, lt(calldatasize, 0x04))\n      shr(0xe0, calldataload(0x00))\n      dup1\n      0x4a79d50c\n      eq\n      tag_3\n      jumpi\n      dup1\n      0xff3c1a8f\n      eq\n      tag_4\n      jumpi\n    tag_2:\n      0x00\n      dup1\n      revert\n        /* \"Ep9/example.sol\":83:102  string public title */\n    tag_3:\n      tag_5\n      tag_6\n      jump\t// in\n    tag_5:\n      mload(0x40)\n      tag_7\n      swap2\n      swap1\n      tag_8\n      jump\t// in\n    tag_7:\n      mload(0x40)\n      dup1\n      swap2\n      sub\n      swap1\n      return\n        /* \"Ep9/example.sol\":182:266  function getTitle() public view returns(string memory) {\r... */\n    tag_4:\n      tag_9\n      tag_10\n      jump\t// in\n    tag_9:\n      mload(0x40)\n      tag_11\n      swap2\n      swap1\n      tag_8\n      jump\t// in\n    tag_11:\n      mload(0x40)\n      dup1\n      swap2\n      sub\n      swap1\n      return\n        /* \"Ep9/example.sol\":83:102  string public title */\n    tag_6:\n      0x00\n      dup1\n      sload\n      tag_12\n      swap1\n      tag_13\n      jump\t// in\n    tag_12:\n      dup1\n      0x1f\n      add\n      0x20\n      dup1\n      swap2\n      div\n      mul\n      0x20\n      add\n      mload(0x40)\n      swap1\n      dup2\n      add\n      0x40\n      mstore\n      dup1\n      swap3\n      swap2\n      swap1\n      dup2\n      dup2\n      mstore\n      0x20\n      add\n      dup3\n      dup1\n      sload\n      tag_14\n      swap1\n      tag_13\n      jump\t// in\n    tag_14:\n      dup1\n      iszero\n      tag_15\n      jumpi\n      dup1\n      0x1f\n      lt\n      tag_16\n      jumpi\n      0x0100\n      dup1\n      dup4\n      sload\n      div\n      mul\n      dup4\n      mstore\n      swap2\n      0x20\n      add\n      swap2\n      jump(tag_15)\n    tag_16:\n      dup3\n      add\n      swap2\n      swap1\n      0x00\n      mstore\n      keccak256(0x00, 0x20)\n      swap1\n    tag_17:\n      dup2\n      sload\n      dup2\n      mstore\n      swap1\n      0x01\n      add\n      swap1\n      0x20\n      add\n      dup1\n      dup4\n      gt\n      tag_17\n      jumpi\n      dup3\n      swap1\n      sub\n      0x1f\n      and\n      dup3\n      add\n      swap2\n    tag_15:\n      pop\n      pop\n      pop\n      pop\n      pop\n      dup2\n      jump\t// out\n        /* \"Ep9/example.sol\":182:266  function getTitle() public view returns(string memory) {\r... */\n    tag_10:\n        /* \"Ep9/example.sol\":222:235  string memory */\n      0x60\n        /* \"Ep9/example.sol\":254:259  title */\n      0x00\n        /* \"Ep9/example.sol\":247:259  return title */\n      dup1\n      sload\n      tag_19\n      swap1\n      tag_13\n      jump\t// in\n    tag_19:\n      dup1\n      0x1f\n      add\n      0x20\n      dup1\n      swap2\n      div\n      mul\n      0x20\n      add\n      mload(0x40)\n      swap1\n      dup2\n      add\n      0x40\n      mstore\n      dup1\n      swap3\n      swap2\n      swap1\n      dup2\n      dup2\n      mstore\n      0x20\n      add\n      dup3\n      dup1\n      sload\n      tag_20\n      swap1\n      tag_13\n      jump\t// in\n    tag_20:\n      dup1\n      iszero\n      tag_21\n      jumpi\n      dup1\n      0x1f\n      lt\n      tag_22\n      jumpi\n      0x0100\n      dup1\n      dup4\n      sload\n      div\n      mul\n      dup4\n      mstore\n      swap2\n      0x20\n      add\n      swap2\n      jump(tag_21)\n    tag_22:\n      dup3\n      add\n      swap2\n      swap1\n      0x00\n      mstore\n      keccak256(0x00, 0x20)\n      swap1\n    tag_23:\n      dup2\n      sload\n      dup2\n      mstore\n      swap1\n      0x01\n      add\n      swap1\n      0x20\n      add\n      dup1\n      dup4\n      gt\n      tag_23\n      jumpi\n      dup3\n      swap1\n      sub\n      0x1f\n      and\n      dup3\n      add\n      swap2\n    tag_21:\n      pop\n      pop\n      pop\n      pop\n      pop\n      swap1\n      pop\n        /* \"Ep9/example.sol\":182:266  function getTitle() public view returns(string memory) {\r... */\n      swap1\n      jump\t// out\n        /* \"#utility.yul\":7:371   */\n    tag_25:\n        /* \"#utility.yul\":95:98   */\n      0x00\n        /* \"#utility.yul\":123:162   */\n      tag_27\n        /* \"#utility.yul\":156:161   */\n      dup3\n        /* \"#utility.yul\":123:162   */\n      tag_28\n      jump\t// in\n    tag_27:\n        /* \"#utility.yul\":178:249   */\n      tag_29\n        /* \"#utility.yul\":242:248   */\n      dup2\n        /* \"#utility.yul\":237:240   */\n      dup6\n        /* \"#utility.yul\":178:249   */\n      tag_30\n      jump\t// in\n    tag_29:\n        /* \"#utility.yul\":171:249   */\n      swap4\n      pop\n        /* \"#utility.yul\":258:310   */\n      tag_31\n        /* \"#utility.yul\":303:309   */\n      dup2\n        /* \"#utility.yul\":298:301   */\n      dup6\n        /* \"#utility.yul\":291:295   */\n      0x20\n        /* \"#utility.yul\":284:289   */\n      dup7\n        /* \"#utility.yul\":280:296   */\n      add\n        /* \"#utility.yul\":258:310   */\n      tag_32\n      jump\t// in\n    tag_31:\n        /* \"#utility.yul\":335:364   */\n      tag_33\n        /* \"#utility.yul\":357:363   */\n      dup2\n        /* \"#utility.yul\":335:364   */\n      tag_34\n      jump\t// in\n    tag_33:\n        /* \"#utility.yul\":330:333   */\n      dup5\n        /* \"#utility.yul\":326:365   */\n      add\n        /* \"#utility.yul\":319:365   */\n      swap2\n      pop\n        /* \"#utility.yul\":99:371   */\n      pop\n        /* \"#utility.yul\":7:371   */\n      swap3\n      swap2\n      pop\n      pop\n      jump\t// out\n        /* \"#utility.yul\":377:690   */\n    tag_8:\n        /* \"#utility.yul\":490:494   */\n      0x00\n        /* \"#utility.yul\":528:530   */\n      0x20\n        /* \"#utility.yul\":517:526   */\n      dup3\n        /* \"#utility.yul\":513:531   */\n      add\n        /* \"#utility.yul\":505:531   */\n      swap1\n      pop\n        /* \"#utility.yul\":577:586   */\n      dup2\n        /* \"#utility.yul\":571:575   */\n      dup2\n        /* \"#utility.yul\":567:587   */\n      sub\n        /* \"#utility.yul\":563:564   */\n      0x00\n        /* \"#utility.yul\":552:561   */\n      dup4\n        /* \"#utility.yul\":548:565   */\n      add\n        /* \"#utility.yul\":541:588   */\n      mstore\n        /* \"#utility.yul\":605:683   */\n      tag_36\n        /* \"#utility.yul\":678:682   */\n      dup2\n        /* \"#utility.yul\":669:675   */\n      dup5\n        /* \"#utility.yul\":605:683   */\n      tag_25\n      jump\t// in\n    tag_36:\n        /* \"#utility.yul\":597:683   */\n      swap1\n      pop\n        /* \"#utility.yul\":377:690   */\n      swap3\n      swap2\n      pop\n      pop\n      jump\t// out\n        /* \"#utility.yul\":696:795   */\n    tag_28:\n        /* \"#utility.yul\":748:754   */\n      0x00\n        /* \"#utility.yul\":782:787   */\n      dup2\n        /* \"#utility.yul\":776:788   */\n      mload\n        /* \"#utility.yul\":766:788   */\n      swap1\n      pop\n        /* \"#utility.yul\":696:795   */\n      swap2\n      swap1\n      pop\n      jump\t// out\n        /* \"#utility.yul\":801:970   */\n    tag_30:\n        /* \"#utility.yul\":885:896   */\n      0x00\n        /* \"#utility.yul\":919:925   */\n      dup3\n        /* \"#utility.yul\":914:917   */\n      dup3\n        /* \"#utility.yul\":907:926   */\n      mstore\n        /* \"#utility.yul\":959:963   */\n      0x20\n        /* \"#utility.yul\":954:957   */\n      dup3\n        /* \"#utility.yul\":950:964   */\n      add\n        /* \"#utility.yul\":935:964   */\n      swap1\n      pop\n        /* \"#utility.yul\":801:970   */\n      swap3\n      swap2\n      pop\n      pop\n      jump\t// out\n        /* \"#utility.yul\":976:1283   */\n    tag_32:\n        /* \"#utility.yul\":1044:1045   */\n      0x00\n        /* \"#utility.yul\":1054:1167   */\n    tag_40:\n        /* \"#utility.yul\":1068:1074   */\n      dup4\n        /* \"#utility.yul\":1065:1066   */\n      dup2\n        /* \"#utility.yul\":1062:1075   */\n      lt\n        /* \"#utility.yul\":1054:1167   */\n      iszero\n      tag_42\n      jumpi\n        /* \"#utility.yul\":1153:1154   */\n      dup1\n        /* \"#utility.yul\":1148:1151   */\n      dup3\n        /* \"#utility.yul\":1144:1155   */\n      add\n        /* \"#utility.yul\":1138:1156   */\n      mload\n        /* \"#utility.yul\":1134:1135   */\n      dup2\n        /* \"#utility.yul\":1129:1132   */\n      dup5\n        /* \"#utility.yul\":1125:1136   */\n      add\n        /* \"#utility.yul\":1118:1157   */\n      mstore\n        /* \"#utility.yul\":1090:1092   */\n      0x20\n        /* \"#utility.yul\":1087:1088   */\n      dup2\n        /* \"#utility.yul\":1083:1093   */\n      add\n        /* \"#utility.yul\":1078:1093   */\n      swap1\n      pop\n        /* \"#utility.yul\":1054:1167   */\n      jump(tag_40)\n    tag_42:\n        /* \"#utility.yul\":1185:1191   */\n      dup4\n        /* \"#utility.yul\":1182:1183   */\n      dup2\n        /* \"#utility.yul\":1179:1192   */\n      gt\n        /* \"#utility.yul\":1176:1277   */\n      iszero\n      tag_43\n      jumpi\n        /* \"#utility.yul\":1265:1266   */\n      0x00\n        /* \"#utility.yul\":1256:1262   */\n      dup5\n        /* \"#utility.yul\":1251:1254   */\n      dup5\n        /* \"#utility.yul\":1247:1263   */\n      add\n        /* \"#utility.yul\":1240:1267   */\n      mstore\n        /* \"#utility.yul\":1176:1277   */\n    tag_43:\n        /* \"#utility.yul\":1025:1283   */\n      pop\n        /* \"#utility.yul\":976:1283   */\n      pop\n      pop\n      pop\n      jump\t// out\n        /* \"#utility.yul\":1289:1609   */\n    tag_13:\n        /* \"#utility.yul\":1333:1339   */\n      0x00\n        /* \"#utility.yul\":1370:1371   */\n      0x02\n        /* \"#utility.yul\":1364:1368   */\n      dup3\n        /* \"#utility.yul\":1360:1372   */\n      div\n        /* \"#utility.yul\":1350:1372   */\n      swap1\n      pop\n        /* \"#utility.yul\":1417:1418   */\n      0x01\n        /* \"#utility.yul\":1411:1415   */\n      dup3\n        /* \"#utility.yul\":1407:1419   */\n      and\n        /* \"#utility.yul\":1438:1456   */\n      dup1\n        /* \"#utility.yul\":1428:1509   */\n      tag_45\n      jumpi\n        /* \"#utility.yul\":1494:1498   */\n      0x7f\n        /* \"#utility.yul\":1486:1492   */\n      dup3\n        /* \"#utility.yul\":1482:1499   */\n      and\n        /* \"#utility.yul\":1472:1499   */\n      swap2\n      pop\n        /* \"#utility.yul\":1428:1509   */\n    tag_45:\n        /* \"#utility.yul\":1556:1558   */\n      0x20\n        /* \"#utility.yul\":1548:1554   */\n      dup3\n        /* \"#utility.yul\":1545:1559   */\n      lt\n        /* \"#utility.yul\":1525:1543   */\n      dup2\n        /* \"#utility.yul\":1522:1560   */\n      eq\n        /* \"#utility.yul\":1519:1603   */\n      iszero\n      tag_46\n      jumpi\n        /* \"#utility.yul\":1575:1593   */\n      tag_47\n      tag_48\n      jump\t// in\n    tag_47:\n        /* \"#utility.yul\":1519:1603   */\n    tag_46:\n        /* \"#utility.yul\":1340:1609   */\n      pop\n        /* \"#utility.yul\":1289:1609   */\n      swap2\n      swap1\n      pop\n      jump\t// out\n        /* \"#utility.yul\":1615:1795   */\n    tag_48:\n        /* \"#utility.yul\":1663:1740   */\n      0x4e487b7100000000000000000000000000000000000000000000000000000000\n        /* \"#utility.yul\":1660:1661   */\n      0x00\n        /* \"#utility.yul\":1653:1741   */\n      mstore\n        /* \"#utility.yul\":1760:1764   */\n      0x22\n        /* \"#utility.yul\":1757:1758   */\n      0x04\n        /* \"#utility.yul\":1750:1765   */\n      mstore\n        /* \"#utility.yul\":1784:1788   */\n      0x24\n        /* \"#utility.yul\":1781:1782   */\n      0x00\n        /* \"#utility.yul\":1774:1789   */\n      revert\n        /* \"#utility.yul\":1801:1903   */\n    tag_34:\n        /* \"#utility.yul\":1842:1848   */\n      0x00\n        /* \"#utility.yul\":1893:1895   */\n      0x1f\n        /* \"#utility.yul\":1889:1896   */\n      not\n        /* \"#utility.yul\":1884:1886   */\n      0x1f\n        /* \"#utility.yul\":1877:1882   */\n      dup4\n        /* \"#utility.yul\":1873:1887   */\n      add\n        /* \"#utility.yul\":1869:1897   */\n      and\n        /* \"#utility.yul\":1859:1897   */\n      swap1\n      pop\n        /* \"#utility.yul\":1801:1903   */\n      swap2\n      swap1\n      pop\n      jump\t// out\n\n    auxdata: 0xa264697066735822122073587b5b7831c9a455b7f713cae788e926e1199f0e835f8050ce9337f932529a64736f6c63430008070033\n}\n",
				"bytecode": {
					"linkReferences": {},
					"object": "608060405234801561001057600080fd5b506040518060400160405280600b81526020017f6920616d20426173696330000000000000000000000000000000000000000000815250806000908051906020019061005d929190610064565b5050610168565b82805461007090610107565b90600052602060002090601f01602090048101928261009257600085556100d9565b82601f106100ab57805160ff19168380011785556100d9565b828001600101855582156100d9579182015b828111156100d85782518255916020019190600101906100bd565b5b5090506100e691906100ea565b5090565b5b808211156101035760008160009055506001016100eb565b5090565b6000600282049050600182168061011f57607f821691505b6020821081141561013357610132610139565b5b50919050565b7f4e487b7100000000000000000000000000000000000000000000000000000000600052602260045260246000fd5b6102e9806101776000396000f3fe608060405234801561001057600080fd5b50600436106100365760003560e01c80634a79d50c1461003b578063ff3c1a8f14610059575b600080fd5b610043610077565b60405161005091906101d0565b60405180910390f35b610061610105565b60405161006e91906101d0565b60405180910390f35b6000805461008490610241565b80601f01602080910402602001604051908101604052809291908181526020018280546100b090610241565b80156100fd5780601f106100d2576101008083540402835291602001916100fd565b820191906000526020600020905b8154815290600101906020018083116100e057829003601f168201915b505050505081565b60606000805461011490610241565b80601f016020809104026020016040519081016040528092919081815260200182805461014090610241565b801561018d5780601f106101625761010080835404028352916020019161018d565b820191906000526020600020905b81548152906001019060200180831161017057829003601f168201915b5050505050905090565b60006101a2826101f2565b6101ac81856101fd565b93506101bc81856020860161020e565b6101c5816102a2565b840191505092915050565b600060208201905081810360008301526101ea8184610197565b905092915050565b600081519050919050565b600082825260208201905092915050565b60005b8381101561022c578082015181840152602081019050610211565b8381111561023b576000848401525b50505050565b6000600282049050600182168061025957607f821691505b6020821081141561026d5761026c610273565b5b50919050565b7f4e487b7100000000000000000000000000000000000000000000000000000000600052602260045260246000fd5b6000601f19601f830116905091905056fea264697066735822122073587b5b7831c9a455b7f713cae788e926e1199f0e835f8050ce9337f932529a64736f6c63430008070033",
					"opcodes": "PUSH1 0x80 PUSH1 0x40 MSTORE CALLVALUE DUP1 ISZERO PUSH2 0x10 JUMPI PUSH1 0x0 DUP1 REVERT JUMPDEST POP PUSH1 0x40 MLOAD DUP1 PUSH1 0x40 ADD PUSH1 0x40 MSTORE DUP1 PUSH1 0xB DUP2 MSTORE PUSH1 0x20 ADD PUSH32 0x6920616D20426173696330000000000000000000000000000000000000000000 DUP2 MSTORE POP DUP1 PUSH1 0x0 SWAP1 DUP1 MLOAD SWAP1 PUSH1 0x20 ADD SWAP1 PUSH2 0x5D SWAP3 SWAP2 SWAP1 PUSH2 0x64 JUMP JUMPDEST POP POP PUSH2 0x168 JUMP JUMPDEST DUP3 DUP1 SLOAD PUSH2 0x70 SWAP1 PUSH2 0x107 JUMP JUMPDEST SWAP1 PUSH1 0x0 MSTORE PUSH1 0x20 PUSH1 0x0 KECCAK256 SWAP1 PUSH1 0x1F ADD PUSH1 0x20 SWAP1 DIV DUP2 ADD SWAP3 DUP3 PUSH2 0x92 JUMPI PUSH1 0x0 DUP6 SSTORE PUSH2 0xD9 JUMP JUMPDEST DUP3 PUSH1 0x1F LT PUSH2 0xAB JUMPI DUP1 MLOAD PUSH1 0xFF NOT AND DUP4 DUP1 ADD OR DUP6 SSTORE PUSH2 0xD9 JUMP JUMPDEST DUP3 DUP1 ADD PUSH1 0x1 ADD DUP6 SSTORE DUP3 ISZERO PUSH2 0xD9 JUMPI SWAP2 DUP3 ADD JUMPDEST DUP3 DUP2 GT ISZERO PUSH2 0xD8 JUMPI DUP3 MLOAD DUP3 SSTORE SWAP2 PUSH1 0x20 ADD SWAP2 SWAP1 PUSH1 0x1 ADD SWAP1 PUSH2 0xBD JUMP JUMPDEST JUMPDEST POP SWAP1 POP PUSH2 0xE6 SWAP2 SWAP1 PUSH2 0xEA JUMP JUMPDEST POP SWAP1 JUMP JUMPDEST JUMPDEST DUP1 DUP3 GT ISZERO PUSH2 0x103 JUMPI PUSH1 0x0 DUP2 PUSH1 0x0 SWAP1 SSTORE POP PUSH1 0x1 ADD PUSH2 0xEB JUMP JUMPDEST POP SWAP1 JUMP JUMPDEST PUSH1 0x0 PUSH1 0x2 DUP3 DIV SWAP1 POP PUSH1 0x1 DUP3 AND DUP1 PUSH2 0x11F JUMPI PUSH1 0x7F DUP3 AND SWAP2 POP JUMPDEST PUSH1 0x20 DUP3 LT DUP2 EQ ISZERO PUSH2 0x133 JUMPI PUSH2 0x132 PUSH2 0x139 JUMP JUMPDEST JUMPDEST POP SWAP2 SWAP1 POP JUMP JUMPDEST PUSH32 0x4E487B7100000000000000000000000000000000000000000000000000000000 PUSH1 0x0 MSTORE PUSH1 0x22 PUSH1 0x4 MSTORE PUSH1 0x24 PUSH1 0x0 REVERT JUMPDEST PUSH2 0x2E9 DUP1 PUSH2 0x177 PUSH1 0x0 CODECOPY PUSH1 0x0 RETURN INVALID PUSH1 0x80 PUSH1 0x40 MSTORE CALLVALUE DUP1 ISZERO PUSH2 0x10 JUMPI PUSH1 0x0 DUP1 REVERT JUMPDEST POP PUSH1 0x4 CALLDATASIZE LT PUSH2 0x36 JUMPI PUSH1 0x0 CALLDATALOAD PUSH1 0xE0 SHR DUP1 PUSH4 0x4A79D50C EQ PUSH2 0x3B JUMPI DUP1 PUSH4 0xFF3C1A8F EQ PUSH2 0x59 JUMPI JUMPDEST PUSH1 0x0 DUP1 REVERT JUMPDEST PUSH2 0x43 PUSH2 0x77 JUMP JUMPDEST PUSH1 0x40 MLOAD PUSH2 0x50 SWAP2 SWAP1 PUSH2 0x1D0 JUMP JUMPDEST PUSH1 0x40 MLOAD DUP1 SWAP2 SUB SWAP1 RETURN JUMPDEST PUSH2 0x61 PUSH2 0x105 JUMP JUMPDEST PUSH1 0x40 MLOAD PUSH2 0x6E SWAP2 SWAP1 PUSH2 0x1D0 JUMP JUMPDEST PUSH1 0x40 MLOAD DUP1 SWAP2 SUB SWAP1 RETURN JUMPDEST PUSH1 0x0 DUP1 SLOAD PUSH2 0x84 SWAP1 PUSH2 0x241 JUMP JUMPDEST DUP1 PUSH1 0x1F ADD PUSH1 0x20 DUP1 SWAP2 DIV MUL PUSH1 0x20 ADD PUSH1 0x40 MLOAD SWAP1 DUP2 ADD PUSH1 0x40 MSTORE DUP1 SWAP3 SWAP2 SWAP1 DUP2 DUP2 MSTORE PUSH1 0x20 ADD DUP3 DUP1 SLOAD PUSH2 0xB0 SWAP1 PUSH2 0x241 JUMP JUMPDEST DUP1 ISZERO PUSH2 0xFD JUMPI DUP1 PUSH1 0x1F LT PUSH2 0xD2 JUMPI PUSH2 0x100 DUP1 DUP4 SLOAD DIV MUL DUP4 MSTORE SWAP2 PUSH1 0x20 ADD SWAP2 PUSH2 0xFD JUMP JUMPDEST DUP3 ADD SWAP2 SWAP1 PUSH1 0x0 MSTORE PUSH1 0x20 PUSH1 0x0 KECCAK256 SWAP1 JUMPDEST DUP2 SLOAD DUP2 MSTORE SWAP1 PUSH1 0x1 ADD SWAP1 PUSH1 0x20 ADD DUP1 DUP4 GT PUSH2 0xE0 JUMPI DUP3 SWAP1 SUB PUSH1 0x1F AND DUP3 ADD SWAP2 JUMPDEST POP POP POP POP POP DUP2 JUMP JUMPDEST PUSH1 0x60 PUSH1 0x0 DUP1 SLOAD PUSH2 0x114 SWAP1 PUSH2 0x241 JUMP JUMPDEST DUP1 PUSH1 0x1F ADD PUSH1 0x20 DUP1 SWAP2 DIV MUL PUSH1 0x20 ADD PUSH1 0x40 MLOAD SWAP1 DUP2 ADD PUSH1 0x40 MSTORE DUP1 SWAP3 SWAP2 SWAP1 DUP2 DUP2 MSTORE PUSH1 0x20 ADD DUP3 DUP1 SLOAD PUSH2 0x140 SWAP1 PUSH2 0x241 JUMP JUMPDEST DUP1 ISZERO PUSH2 0x18D JUMPI DUP1 PUSH1 0x1F LT PUSH2 0x162 JUMPI PUSH2 0x100 DUP1 DUP4 SLOAD DIV MUL DUP4 MSTORE SWAP2 PUSH1 0x20 ADD SWAP2 PUSH2 0x18D JUMP JUMPDEST DUP3 ADD SWAP2 SWAP1 PUSH1 0x0 MSTORE PUSH1 0x20 PUSH1 0x0 KECCAK256 SWAP1 JUMPDEST DUP2 SLOAD DUP2 MSTORE SWAP1 PUSH1 0x1 ADD SWAP1 PUSH1 0x20 ADD DUP1 DUP4 GT PUSH2 0x170 JUMPI DUP3 SWAP1 SUB PUSH1 0x1F AND DUP3 ADD SWAP2 JUMPDEST POP POP POP POP POP SWAP1 POP SWAP1 JUMP JUMPDEST PUSH1 0x0 PUSH2 0x1A2 DUP3 PUSH2 0x1F2 JUMP JUMPDEST PUSH2 0x1AC DUP2 DUP6 PUSH2 0x1FD JUMP JUMPDEST SWAP4 POP PUSH2 0x1BC DUP2 DUP6 PUSH1 0x20 DUP7 ADD PUSH2 0x20E JUMP JUMPDEST PUSH2 0x1C5 DUP2 PUSH2 0x2A2 JUMP JUMPDEST DUP5 ADD SWAP2 POP POP SWAP3 SWAP2 POP POP JUMP JUMPDEST PUSH1 0x0 PUSH1 0x20 DUP3 ADD SWAP1 POP DUP2 DUP2 SUB PUSH1 0x0 DUP4 ADD MSTORE PUSH2 0x1EA DUP2 DUP5 PUSH2 0x197 JUMP JUMPDEST SWAP1 POP SWAP3 SWAP2 POP POP JUMP JUMPDEST PUSH1 0x0 DUP2 MLOAD SWAP1 POP SWAP2 SWAP1 POP JUMP JUMPDEST PUSH1 0x0 DUP3 DUP3 MSTORE PUSH1 0x20 DUP3 ADD SWAP1 POP SWAP3 SWAP2 POP POP JUMP JUMPDEST PUSH1 0x0 JUMPDEST DUP4 DUP2 LT ISZERO PUSH2 0x22C JUMPI DUP1 DUP3 ADD MLOAD DUP2 DUP5 ADD MSTORE PUSH1 0x20 DUP2 ADD SWAP1 POP PUSH2 0x211 JUMP JUMPDEST DUP4 DUP2 GT ISZERO PUSH2 0x23B JUMPI PUSH1 0x0 DUP5 DUP5 ADD MSTORE JUMPDEST POP POP POP POP JUMP JUMPDEST PUSH1 0x0 PUSH1 0x2 DUP3 DIV SWAP1 POP PUSH1 0x1 DUP3 AND DUP1 PUSH2 0x259 JUMPI PUSH1 0x7F DUP3 AND SWAP2 POP JUMPDEST PUSH1 0x20 DUP3 LT DUP2 EQ ISZERO PUSH2 0x26D JUMPI PUSH2 0x26C PUSH2 0x273 JUMP JUMPDEST JUMPDEST POP SWAP2 SWAP1 POP JUMP JUMPDEST PUSH32 0x4E487B7100000000000000000000000000000000000000000000000000000000 PUSH1 0x0 MSTORE PUSH1 0x22 PUSH1 0x4 MSTORE PUSH1 0x24 PUSH1 0x0 REVERT JUMPDEST PUSH1 0x0 PUSH1 0x1F NOT PUSH1 0x1F DUP4 ADD AND SWAP1 POP SWAP2 SWAP1 POP JUMP INVALID LOG2 PUSH5 0x6970667358 0x22 SLT KECCAK256 PUSH20 0x587B5B7831C9A455B7F713CAE788E926E1199F0E DUP4 0x5F DUP1 POP 0xCE SWAP4 CALLDATACOPY 0xF9 ORIGIN MSTORE SWAP11 PUSH5 0x736F6C6343 STOP ADDMOD SMOD STOP CALLER "
				},
				"gasEstimates": {
					"creation": {
						"codeDepositCost": "149000",
						"executionCost": "infinite",
						"totalCost": "infinite"
					},
					"external": {
						"getTitle()": "infinite",
						"title()": "infinite"
					}
				},
				"methodIdentifiers": {
					"getTitle()": "ff3c1a8f",
					"title()": "4a79d50c"
				}
			},
			"storageLayout": {
				"storage": [
					{
						"astId": 3,
						"contract": "Ep9/example.sol:Basic0",
						"label": "title",
						"offset": 0,
						"slot": "0",
						"type": "t_string_storage"
					}
				],
				"types": {
					"t_string_storage": {
						"encoding": "bytes",
						"label": "string",
						"numberOfBytes": "32"
					}
				}
			},
			"userdoc": {
				"kind": "user",
				"methods": {},
				"version": 1
			}
		}
	}
}