{
	"Ep9/example.sol": {
		"Basic1": {
			"abi": [
				{
					"inputs": [
						{
							"internalType": "string",
							"name": "_title",
							"type": "string"
						}
					],
					"stateMutability": "nonpayable",
					"type": "constructor"
				},
				{
					"inputs": [],
					"name": "basic",
					"outputs": [
						{
							"internalType": "string",
							"name": "",
							"type": "string"
						}
					],
					"stateMutability": "view",
					"type": "function"
				},
				{
					"inputs": [],
					"name": "basic1",
					"outputs": [
						{
							"internalType": "string",
							"name": "",
							"type": "string"
						}
					],
					"stateMutability": "view",
					"type": "function"
				},
				{
					"inputs": [],
					"name": "getTitle",
					"outputs": [
						{
							"internalType": "string",
							"name": "",
							"type": "string"
						}
					],
					"stateMutability": "view",
					"type": "function"
				},
				{
					"inputs": [],
					"name": "title",
					"outputs": [
						{
							"internalType": "string",
							"name": "",
							"type": "string"
						}
					],
					"stateMutability": "view",
					"type": "function"
				}
			],
			"devdoc": {
				"kind": "dev",
				"methods": {},
				"version": 1
			},
			"evm": {
				"assembly": "    /* \"Ep9/example.sol\":491:622  contract Basic1 is Basic {\r... */\n  mstore(0x40, 0x80)\n    /* \"Ep9/example.sol\":83:112  string public basic = \"basic\" */\n  mload(0x40)\n  dup1\n  0x40\n  add\n  0x40\n  mstore\n  dup1\n  0x05\n  dup2\n  mstore\n  0x20\n  add\n  0x6261736963000000000000000000000000000000000000000000000000000000\n  dup2\n  mstore\n  pop\n  0x00\n  swap1\n  dup1\n  mload\n  swap1\n  0x20\n  add\n  swap1\n  tag_1\n  swap3\n  swap2\n  swap1\n  tag_2\n  jump\t// in\ntag_1:\n  pop\n    /* \"Ep9/example.sol\":523:554  string public basic1 = \"basic1\" */\n  mload(0x40)\n  dup1\n  0x40\n  add\n  0x40\n  mstore\n  dup1\n  0x06\n  dup2\n  mstore\n  0x20\n  add\n  0x6261736963310000000000000000000000000000000000000000000000000000\n  dup2\n  mstore\n  pop\n  0x02\n  swap1\n  dup1\n  mload\n  swap1\n  0x20\n  add\n  swap1\n  tag_3\n  swap3\n  swap2\n  swap1\n  tag_2\n  jump\t// in\ntag_3:\n  pop\n    /* \"Ep9/example.sol\":561:619  constructor(string memory _title) Basic(_title) {\r... */\n  callvalue\n  dup1\n  iszero\n  tag_4\n  jumpi\n  0x00\n  dup1\n  revert\ntag_4:\n  pop\n  mload(0x40)\n  sub(codesize, bytecodeSize)\n  dup1\n  bytecodeSize\n  dup4\n  codecopy\n  dup2\n  dup2\n  add\n  0x40\n  mstore\n  dup2\n  add\n  swap1\n  tag_5\n  swap2\n  swap1\n  tag_6\n  jump\t// in\ntag_5:\n    /* \"Ep9/example.sol\":601:607  _title */\n  dup1\n    /* \"Ep9/example.sol\":197:203  _title */\n  dup1\n    /* \"Ep9/example.sol\":189:194  title */\n  0x01\n    /* \"Ep9/example.sol\":189:203  title = _title */\n  swap1\n  dup1\n  mload\n  swap1\n  0x20\n  add\n  swap1\n  tag_10\n  swap3\n  swap2\n  swap1\n  tag_2\n  jump\t// in\ntag_10:\n  pop\n    /* \"Ep9/example.sol\":145:210  constructor(string memory _title) {\r... */\n  pop\n    /* \"Ep9/example.sol\":561:619  constructor(string memory _title) Basic(_title) {\r... */\n  pop\n    /* \"Ep9/example.sol\":491:622  contract Basic1 is Basic {\r... */\n  jump(tag_12)\ntag_2:\n  dup3\n  dup1\n  sload\n  tag_13\n  swap1\n  tag_14\n  jump\t// in\ntag_13:\n  swap1\n  0x00\n  mstore\n  keccak256(0x00, 0x20)\n  swap1\n  0x1f\n  add\n  0x20\n  swap1\n  div\n  dup2\n  add\n  swap3\n  dup3\n  tag_16\n  jumpi\n  0x00\n  dup6\n  sstore\n  jump(tag_15)\ntag_16:\n  dup3\n  0x1f\n  lt\n  tag_17\n  jumpi\n  dup1\n  mload\n  not(0xff)\n  and\n  dup4\n  dup1\n  add\n  or\n  dup6\n  sstore\n  jump(tag_15)\ntag_17:\n  dup3\n  dup1\n  add\n  0x01\n  add\n  dup6\n  sstore\n  dup3\n  iszero\n  tag_15\n  jumpi\n  swap2\n  dup3\n  add\ntag_18:\n  dup3\n  dup2\n  gt\n  iszero\n  tag_19\n  jumpi\n  dup3\n  mload\n  dup3\n  sstore\n  swap2\n  0x20\n  add\n  swap2\n  swap1\n  0x01\n  add\n  swap1\n  jump(tag_18)\ntag_19:\ntag_15:\n  pop\n  swap1\n  pop\n  tag_20\n  swap2\n  swap1\n  tag_21\n  jump\t// in\ntag_20:\n  pop\n  swap1\n  jump\t// out\ntag_21:\ntag_22:\n  dup1\n  dup3\n  gt\n  iszero\n  tag_23\n  jumpi\n  0x00\n  dup2\n  0x00\n  swap1\n  sstore\n  pop\n  0x01\n  add\n  jump(tag_22)\ntag_23:\n  pop\n  swap1\n  jump\t// out\n    /* \"#utility.yul\":7:428   */\ntag_25:\n    /* \"#utility.yul\":96:101   */\n  0x00\n    /* \"#utility.yul\":121:187   */\n  tag_27\n    /* \"#utility.yul\":137:186   */\n  tag_28\n    /* \"#utility.yul\":179:185   */\n  dup5\n    /* \"#utility.yul\":137:186   */\n  tag_29\n  jump\t// in\ntag_28:\n    /* \"#utility.yul\":121:187   */\n  tag_30\n  jump\t// in\ntag_27:\n    /* \"#utility.yul\":112:187   */\n  swap1\n  pop\n    /* \"#utility.yul\":210:216   */\n  dup3\n    /* \"#utility.yul\":203:208   */\n  dup2\n    /* \"#utility.yul\":196:217   */\n  mstore\n    /* \"#utility.yul\":248:252   */\n  0x20\n    /* \"#utility.yul\":241:246   */\n  dup2\n    /* \"#utility.yul\":237:253   */\n  add\n    /* \"#utility.yul\":286:289   */\n  dup5\n    /* \"#utility.yul\":277:283   */\n  dup5\n    /* \"#utility.yul\":272:275   */\n  dup5\n    /* \"#utility.yul\":268:284   */\n  add\n    /* \"#utility.yul\":265:290   */\n  gt\n    /* \"#utility.yul\":262:374   */\n  iszero\n  tag_31\n  jumpi\n    /* \"#utility.yul\":293:372   */\n  tag_32\n  tag_33\n  jump\t// in\ntag_32:\n    /* \"#utility.yul\":262:374   */\ntag_31:\n    /* \"#utility.yul\":383:422   */\n  tag_34\n    /* \"#utility.yul\":415:421   */\n  dup5\n    /* \"#utility.yul\":410:413   */\n  dup3\n    /* \"#utility.yul\":405:408   */\n  dup6\n    /* \"#utility.yul\":383:422   */\n  tag_35\n  jump\t// in\ntag_34:\n    /* \"#utility.yul\":102:428   */\n  pop\n    /* \"#utility.yul\":7:428   */\n  swap4\n  swap3\n  pop\n  pop\n  pop\n  jump\t// out\n    /* \"#utility.yul\":448:803   */\ntag_36:\n    /* \"#utility.yul\":515:520   */\n  0x00\n    /* \"#utility.yul\":564:567   */\n  dup3\n    /* \"#utility.yul\":557:561   */\n  0x1f\n    /* \"#utility.yul\":549:555   */\n  dup4\n    /* \"#utility.yul\":545:562   */\n  add\n    /* \"#utility.yul\":541:568   */\n  slt\n    /* \"#utility.yul\":531:653   */\n  tag_38\n  jumpi\n    /* \"#utility.yul\":572:651   */\n  tag_39\n  tag_40\n  jump\t// in\ntag_39:\n    /* \"#utility.yul\":531:653   */\ntag_38:\n    /* \"#utility.yul\":682:688   */\n  dup2\n    /* \"#utility.yul\":676:689   */\n  mload\n    /* \"#utility.yul\":707:797   */\n  tag_41\n    /* \"#utility.yul\":793:796   */\n  dup5\n    /* \"#utility.yul\":785:791   */\n  dup3\n    /* \"#utility.yul\":778:782   */\n  0x20\n    /* \"#utility.yul\":770:776   */\n  dup7\n    /* \"#utility.yul\":766:783   */\n  add\n    /* \"#utility.yul\":707:797   */\n  tag_25\n  jump\t// in\ntag_41:\n    /* \"#utility.yul\":698:797   */\n  swap2\n  pop\n    /* \"#utility.yul\":521:803   */\n  pop\n    /* \"#utility.yul\":448:803   */\n  swap3\n  swap2\n  pop\n  pop\n  jump\t// out\n    /* \"#utility.yul\":809:1333   */\ntag_6:\n    /* \"#utility.yul\":889:895   */\n  0x00\n    /* \"#utility.yul\":938:940   */\n  0x20\n    /* \"#utility.yul\":926:935   */\n  dup3\n    /* \"#utility.yul\":917:924   */\n  dup5\n    /* \"#utility.yul\":913:936   */\n  sub\n    /* \"#utility.yul\":909:941   */\n  slt\n    /* \"#utility.yul\":906:1025   */\n  iszero\n  tag_43\n  jumpi\n    /* \"#utility.yul\":944:1023   */\n  tag_44\n  tag_45\n  jump\t// in\ntag_44:\n    /* \"#utility.yul\":906:1025   */\ntag_43:\n    /* \"#utility.yul\":1085:1086   */\n  0x00\n    /* \"#utility.yul\":1074:1083   */\n  dup3\n    /* \"#utility.yul\":1070:1087   */\n  add\n    /* \"#utility.yul\":1064:1088   */\n  mload\n    /* \"#utility.yul\":1115:1133   */\n  0xffffffffffffffff\n    /* \"#utility.yul\":1107:1113   */\n  dup2\n    /* \"#utility.yul\":1104:1134   */\n  gt\n    /* \"#utility.yul\":1101:1218   */\n  iszero\n  tag_46\n  jumpi\n    /* \"#utility.yul\":1137:1216   */\n  tag_47\n  tag_48\n  jump\t// in\ntag_47:\n    /* \"#utility.yul\":1101:1218   */\ntag_46:\n    /* \"#utility.yul\":1242:1316   */\n  tag_49\n    /* \"#utility.yul\":1308:1315   */\n  dup5\n    /* \"#utility.yul\":1299:1305   */\n  dup3\n    /* \"#utility.yul\":1288:1297   */\n  dup6\n    /* \"#utility.yul\":1284:1306   */\n  add\n    /* \"#utility.yul\":1242:1316   */\n  tag_36\n  jump\t// in\ntag_49:\n    /* \"#utility.yul\":1232:1316   */\n  swap2\n  pop\n    /* \"#utility.yul\":1035:1326   */\n  pop\n    /* \"#utility.yul\":809:1333   */\n  swap3\n  swap2\n  pop\n  pop\n  jump\t// out\n    /* \"#utility.yul\":1339:1468   */\ntag_30:\n    /* \"#utility.yul\":1373:1379   */\n  0x00\n    /* \"#utility.yul\":1400:1420   */\n  tag_51\n  tag_52\n  jump\t// in\ntag_51:\n    /* \"#utility.yul\":1390:1420   */\n  swap1\n  pop\n    /* \"#utility.yul\":1429:1462   */\n  tag_53\n    /* \"#utility.yul\":1457:1461   */\n  dup3\n    /* \"#utility.yul\":1449:1455   */\n  dup3\n    /* \"#utility.yul\":1429:1462   */\n  tag_54\n  jump\t// in\ntag_53:\n    /* \"#utility.yul\":1339:1468   */\n  swap2\n  swap1\n  pop\n  jump\t// out\n    /* \"#utility.yul\":1474:1549   */\ntag_52:\n    /* \"#utility.yul\":1507:1513   */\n  0x00\n    /* \"#utility.yul\":1540:1542   */\n  0x40\n    /* \"#utility.yul\":1534:1543   */\n  mload\n    /* \"#utility.yul\":1524:1543   */\n  swap1\n  pop\n    /* \"#utility.yul\":1474:1549   */\n  swap1\n  jump\t// out\n    /* \"#utility.yul\":1555:1863   */\ntag_29:\n    /* \"#utility.yul\":1617:1621   */\n  0x00\n    /* \"#utility.yul\":1707:1725   */\n  0xffffffffffffffff\n    /* \"#utility.yul\":1699:1705   */\n  dup3\n    /* \"#utility.yul\":1696:1726   */\n  gt\n    /* \"#utility.yul\":1693:1749   */\n  iszero\n  tag_57\n  jumpi\n    /* \"#utility.yul\":1729:1747   */\n  tag_58\n  tag_59\n  jump\t// in\ntag_58:\n    /* \"#utility.yul\":1693:1749   */\ntag_57:\n    /* \"#utility.yul\":1767:1796   */\n  tag_60\n    /* \"#utility.yul\":1789:1795   */\n  dup3\n    /* \"#utility.yul\":1767:1796   */\n  tag_61\n  jump\t// in\ntag_60:\n    /* \"#utility.yul\":1759:1796   */\n  swap1\n  pop\n    /* \"#utility.yul\":1851:1855   */\n  0x20\n    /* \"#utility.yul\":1845:1849   */\n  dup2\n    /* \"#utility.yul\":1841:1856   */\n  add\n    /* \"#utility.yul\":1833:1856   */\n  swap1\n  pop\n    /* \"#utility.yul\":1555:1863   */\n  swap2\n  swap1\n  pop\n  jump\t// out\n    /* \"#utility.yul\":1869:2176   */\ntag_35:\n    /* \"#utility.yul\":1937:1938   */\n  0x00\n    /* \"#utility.yul\":1947:2060   */\ntag_63:\n    /* \"#utility.yul\":1961:1967   */\n  dup4\n    /* \"#utility.yul\":1958:1959   */\n  dup2\n    /* \"#utility.yul\":1955:1968   */\n  lt\n    /* \"#utility.yul\":1947:2060   */\n  iszero\n  tag_65\n  jumpi\n    /* \"#utility.yul\":2046:2047   */\n  dup1\n    /* \"#utility.yul\":2041:2044   */\n  dup3\n    /* \"#utility.yul\":2037:2048   */\n  add\n    /* \"#utility.yul\":2031:2049   */\n  mload\n    /* \"#utility.yul\":2027:2028   */\n  dup2\n    /* \"#utility.yul\":2022:2025   */\n  dup5\n    /* \"#utility.yul\":2018:2029   */\n  add\n    /* \"#utility.yul\":2011:2050   */\n  mstore\n    /* \"#utility.yul\":1983:1985   */\n  0x20\n    /* \"#utility.yul\":1980:1981   */\n  dup2\n    /* \"#utility.yul\":1976:1986   */\n  add\n    /* \"#utility.yul\":1971:1986   */\n  swap1\n  pop\n    /* \"#utility.yul\":1947:2060   */\n  jump(tag_63)\ntag_65:\n    /* \"#utility.yul\":2078:2084   */\n  dup4\n    /* \"#utility.yul\":2075:2076   */\n  dup2\n    /* \"#utility.yul\":2072:2085   */\n  gt\n    /* \"#utility.yul\":2069:2170   */\n  iszero\n  tag_66\n  jumpi\n    /* \"#utility.yul\":2158:2159   */\n  0x00\n    /* \"#utility.yul\":2149:2155   */\n  dup5\n    /* \"#utility.yul\":2144:2147   */\n  dup5\n    /* \"#utility.yul\":2140:2156   */\n  add\n    /* \"#utility.yul\":2133:2160   */\n  mstore\n    /* \"#utility.yul\":2069:2170   */\ntag_66:\n    /* \"#utility.yul\":1918:2176   */\n  pop\n    /* \"#utility.yul\":1869:2176   */\n  pop\n  pop\n  pop\n  jump\t// out\n    /* \"#utility.yul\":2182:2502   */\ntag_14:\n    /* \"#utility.yul\":2226:2232   */\n  0x00\n    /* \"#utility.yul\":2263:2264   */\n  0x02\n    /* \"#utility.yul\":2257:2261   */\n  dup3\n    /* \"#utility.yul\":2253:2265   */\n  div\n    /* \"#utility.yul\":2243:2265   */\n  swap1\n  pop\n    /* \"#utility.yul\":2310:2311   */\n  0x01\n    /* \"#utility.yul\":2304:2308   */\n  dup3\n    /* \"#utility.yul\":2300:2312   */\n  and\n    /* \"#utility.yul\":2331:2349   */\n  dup1\n    /* \"#utility.yul\":2321:2402   */\n  tag_68\n  jumpi\n    /* \"#utility.yul\":2387:2391   */\n  0x7f\n    /* \"#utility.yul\":2379:2385   */\n  dup3\n    /* \"#utility.yul\":2375:2392   */\n  and\n    /* \"#utility.yul\":2365:2392   */\n  swap2\n  pop\n    /* \"#utility.yul\":2321:2402   */\ntag_68:\n    /* \"#utility.yul\":2449:2451   */\n  0x20\n    /* \"#utility.yul\":2441:2447   */\n  dup3\n    /* \"#utility.yul\":2438:2452   */\n  lt\n    /* \"#utility.yul\":2418:2436   */\n  dup2\n    /* \"#utility.yul\":2415:2453   */\n  eq\n    /* \"#utility.yul\":2412:2496   */\n  iszero\n  tag_69\n  jumpi\n    /* \"#utility.yul\":2468:2486   */\n  tag_70\n  tag_71\n  jump\t// in\ntag_70:\n    /* \"#utility.yul\":2412:2496   */\ntag_69:\n    /* \"#utility.yul\":2233:2502   */\n  pop\n    /* \"#utility.yul\":2182:2502   */\n  swap2\n  swap1\n  pop\n  jump\t// out\n    /* \"#utility.yul\":2508:2789   */\ntag_54:\n    /* \"#utility.yul\":2591:2618   */\n  tag_73\n    /* \"#utility.yul\":2613:2617   */\n  dup3\n    /* \"#utility.yul\":2591:2618   */\n  tag_61\n  jump\t// in\ntag_73:\n    /* \"#utility.yul\":2583:2589   */\n  dup2\n    /* \"#utility.yul\":2579:2619   */\n  add\n    /* \"#utility.yul\":2721:2727   */\n  dup2\n    /* \"#utility.yul\":2709:2719   */\n  dup2\n    /* \"#utility.yul\":2706:2728   */\n  lt\n    /* \"#utility.yul\":2685:2703   */\n  0xffffffffffffffff\n    /* \"#utility.yul\":2673:2683   */\n  dup3\n    /* \"#utility.yul\":2670:2704   */\n  gt\n    /* \"#utility.yul\":2667:2729   */\n  or\n    /* \"#utility.yul\":2664:2752   */\n  iszero\n  tag_74\n  jumpi\n    /* \"#utility.yul\":2732:2750   */\n  tag_75\n  tag_59\n  jump\t// in\ntag_75:\n    /* \"#utility.yul\":2664:2752   */\ntag_74:\n    /* \"#utility.yul\":2772:2782   */\n  dup1\n    /* \"#utility.yul\":2768:2770   */\n  0x40\n    /* \"#utility.yul\":2761:2783   */\n  mstore\n    /* \"#utility.yul\":2551:2789   */\n  pop\n    /* \"#utility.yul\":2508:2789   */\n  pop\n  pop\n  jump\t// out\n    /* \"#utility.yul\":2795:2975   */\ntag_71:\n    /* \"#utility.yul\":2843:2920   */\n  0x4e487b7100000000000000000000000000000000000000000000000000000000\n    /* \"#utility.yul\":2840:2841   */\n  0x00\n    /* \"#utility.yul\":2833:2921   */\n  mstore\n    /* \"#utility.yul\":2940:2944   */\n  0x22\n    /* \"#utility.yul\":2937:2938   */\n  0x04\n    /* \"#utility.yul\":2930:2945   */\n  mstore\n    /* \"#utility.yul\":2964:2968   */\n  0x24\n    /* \"#utility.yul\":2961:2962   */\n  0x00\n    /* \"#utility.yul\":2954:2969   */\n  revert\n    /* \"#utility.yul\":2981:3161   */\ntag_59:\n    /* \"#utility.yul\":3029:3106   */\n  0x4e487b7100000000000000000000000000000000000000000000000000000000\n    /* \"#utility.yul\":3026:3027   */\n  0x00\n    /* \"#utility.yul\":3019:3107   */\n  mstore\n    /* \"#utility.yul\":3126:3130   */\n  0x41\n    /* \"#utility.yul\":3123:3124   */\n  0x04\n    /* \"#utility.yul\":3116:3131   */\n  mstore\n    /* \"#utility.yul\":3150:3154   */\n  0x24\n    /* \"#utility.yul\":3147:3148   */\n  0x00\n    /* \"#utility.yul\":3140:3155   */\n  revert\n    /* \"#utility.yul\":3167:3284   */\ntag_40:\n    /* \"#utility.yul\":3276:3277   */\n  0x00\n    /* \"#utility.yul\":3273:3274   */\n  dup1\n    /* \"#utility.yul\":3266:3278   */\n  revert\n    /* \"#utility.yul\":3290:3407   */\ntag_33:\n    /* \"#utility.yul\":3399:3400   */\n  0x00\n    /* \"#utility.yul\":3396:3397   */\n  dup1\n    /* \"#utility.yul\":3389:3401   */\n  revert\n    /* \"#utility.yul\":3413:3530   */\ntag_48:\n    /* \"#utility.yul\":3522:3523   */\n  0x00\n    /* \"#utility.yul\":3519:3520   */\n  dup1\n    /* \"#utility.yul\":3512:3524   */\n  revert\n    /* \"#utility.yul\":3536:3653   */\ntag_45:\n    /* \"#utility.yul\":3645:3646   */\n  0x00\n    /* \"#utility.yul\":3642:3643   */\n  dup1\n    /* \"#utility.yul\":3635:3647   */\n  revert\n    /* \"#utility.yul\":3659:3761   */\ntag_61:\n    /* \"#utility.yul\":3700:3706   */\n  0x00\n    /* \"#utility.yul\":3751:3753   */\n  0x1f\n    /* \"#utility.yul\":3747:3754   */\n  not\n    /* \"#utility.yul\":3742:3744   */\n  0x1f\n    /* \"#utility.yul\":3735:3740   */\n  dup4\n    /* \"#utility.yul\":3731:3745   */\n  add\n    /* \"#utility.yul\":3727:3755   */\n  and\n    /* \"#utility.yul\":3717:3755   */\n  swap1\n  pop\n    /* \"#utility.yul\":3659:3761   */\n  swap2\n  swap1\n  pop\n  jump\t// out\n    /* \"Ep9/example.sol\":491:622  contract Basic1 is Basic {\r... */\ntag_12:\n  dataSize(sub_0)\n  dup1\n  dataOffset(sub_0)\n  0x00\n  codecopy\n  0x00\n  return\nstop\n\nsub_0: assembly {\n        /* \"Ep9/example.sol\":491:622  contract Basic1 is Basic {\r... */\n      mstore(0x40, 0x80)\n      callvalue\n      dup1\n      iszero\n      tag_1\n      jumpi\n      0x00\n      dup1\n      revert\n    tag_1:\n      pop\n      jumpi(tag_2, lt(calldatasize, 0x04))\n      shr(0xe0, calldataload(0x00))\n      dup1\n      0x01770f7a\n      eq\n      tag_3\n      jumpi\n      dup1\n      0x15e8b345\n      eq\n      tag_4\n      jumpi\n      dup1\n      0x4a79d50c\n      eq\n      tag_5\n      jumpi\n      dup1\n      0xff3c1a8f\n      eq\n      tag_6\n      jumpi\n    tag_2:\n      0x00\n      dup1\n      revert\n        /* \"Ep9/example.sol\":523:554  string public basic1 = \"basic1\" */\n    tag_3:\n      tag_7\n      tag_8\n      jump\t// in\n    tag_7:\n      mload(0x40)\n      tag_9\n      swap2\n      swap1\n      tag_10\n      jump\t// in\n    tag_9:\n      mload(0x40)\n      dup1\n      swap2\n      sub\n      swap1\n      return\n        /* \"Ep9/example.sol\":83:112  string public basic = \"basic\" */\n    tag_4:\n      tag_11\n      tag_12\n      jump\t// in\n    tag_11:\n      mload(0x40)\n      tag_13\n      swap2\n      swap1\n      tag_10\n      jump\t// in\n    tag_13:\n      mload(0x40)\n      dup1\n      swap2\n      sub\n      swap1\n      return\n        /* \"Ep9/example.sol\":118:137  string public title */\n    tag_5:\n      tag_14\n      tag_15\n      jump\t// in\n    tag_14:\n      mload(0x40)\n      tag_16\n      swap2\n      swap1\n      tag_10\n      jump\t// in\n    tag_16:\n      mload(0x40)\n      dup1\n      swap2\n      sub\n      swap1\n      return\n        /* \"Ep9/example.sol\":217:301  function getTitle() public view returns(string memory) {\r... */\n    tag_6:\n      tag_17\n      tag_18\n      jump\t// in\n    tag_17:\n      mload(0x40)\n      tag_19\n      swap2\n      swap1\n      tag_10\n      jump\t// in\n    tag_19:\n      mload(0x40)\n      dup1\n      swap2\n      sub\n      swap1\n      return\n        /* \"Ep9/example.sol\":523:554  string public basic1 = \"basic1\" */\n    tag_8:\n      0x02\n      dup1\n      sload\n      tag_20\n      swap1\n      tag_21\n      jump\t// in\n    tag_20:\n      dup1\n      0x1f\n      add\n      0x20\n      dup1\n      swap2\n      div\n      mul\n      0x20\n      add\n      mload(0x40)\n      swap1\n      dup2\n      add\n      0x40\n      mstore\n      dup1\n      swap3\n      swap2\n      swap1\n      dup2\n      dup2\n      mstore\n      0x20\n      add\n      dup3\n      dup1\n      sload\n      tag_22\n      swap1\n      tag_21\n      jump\t// in\n    tag_22:\n      dup1\n      iszero\n      tag_23\n      jumpi\n      dup1\n      0x1f\n      lt\n      tag_24\n      jumpi\n      0x0100\n      dup1\n      dup4\n      sload\n      div\n      mul\n      dup4\n      mstore\n      swap2\n      0x20\n      add\n      swap2\n      jump(tag_23)\n    tag_24:\n      dup3\n      add\n      swap2\n      swap1\n      0x00\n      mstore\n      keccak256(0x00, 0x20)\n      swap1\n    tag_25:\n      dup2\n      sload\n      dup2\n      mstore\n      swap1\n      0x01\n      add\n      swap1\n      0x20\n      add\n      dup1\n      dup4\n      gt\n      tag_25\n      jumpi\n      dup3\n      swap1\n      sub\n      0x1f\n      and\n      dup3\n      add\n      swap2\n    tag_23:\n      pop\n      pop\n      pop\n      pop\n      pop\n      dup2\n      jump\t// out\n        /* \"Ep9/example.sol\":83:112  string public basic = \"basic\" */\n    tag_12:\n      0x00\n      dup1\n      sload\n      tag_26\n      swap1\n      tag_21\n      jump\t// in\n    tag_26:\n      dup1\n      0x1f\n      add\n      0x20\n      dup1\n      swap2\n      div\n      mul\n      0x20\n      add\n      mload(0x40)\n      swap1\n      dup2\n      add\n      0x40\n      mstore\n      dup1\n      swap3\n      swap2\n      swap1\n      dup2\n      dup2\n      mstore\n      0x20\n      add\n      dup3\n      dup1\n      sload\n      tag_27\n      swap1\n      tag_21\n      jump\t// in\n    tag_27:\n      dup1\n      iszero\n      tag_28\n      jumpi\n      dup1\n      0x1f\n      lt\n      tag_29\n      jumpi\n      0x0100\n      dup1\n      dup4\n      sload\n      div\n      mul\n      dup4\n      mstore\n      swap2\n      0x20\n      add\n      swap2\n      jump(tag_28)\n    tag_29:\n      dup3\n      add\n      swap2\n      swap1\n      0x00\n      mstore\n      keccak256(0x00, 0x20)\n      swap1\n    tag_30:\n      dup2\n      sload\n      dup2\n      mstore\n      swap1\n      0x01\n      add\n      swap1\n      0x20\n      add\n      dup1\n      dup4\n      gt\n      tag_30\n      jumpi\n      dup3\n      swap1\n      sub\n      0x1f\n      and\n      dup3\n      add\n      swap2\n    tag_28:\n      pop\n      pop\n      pop\n      pop\n      pop\n      dup2\n      jump\t// out\n        /* \"Ep9/example.sol\":118:137  string public title */\n    tag_15:\n      0x01\n      dup1\n      sload\n      tag_31\n      swap1\n      tag_21\n      jump\t// in\n    tag_31:\n      dup1\n      0x1f\n      add\n      0x20\n      dup1\n      swap2\n      div\n      mul\n      0x20\n      add\n      mload(0x40)\n      swap1\n      dup2\n      add\n      0x40\n      mstore\n      dup1\n      swap3\n      swap2\n      swap1\n      dup2\n      dup2\n      mstore\n      0x20\n      add\n      dup3\n      dup1\n      sload\n      tag_32\n      swap1\n      tag_21\n      jump\t// in\n    tag_32:\n      dup1\n      iszero\n      tag_33\n      jumpi\n      dup1\n      0x1f\n      lt\n      tag_34\n      jumpi\n      0x0100\n      dup1\n      dup4\n      sload\n      div\n      mul\n      dup4\n      mstore\n      swap2\n      0x20\n      add\n      swap2\n      jump(tag_33)\n    tag_34:\n      dup3\n      add\n      swap2\n      swap1\n      0x00\n      mstore\n      keccak256(0x00, 0x20)\n      swap1\n    tag_35:\n      dup2\n      sload\n      dup2\n      mstore\n      swap1\n      0x01\n      add\n      swap1\n      0x20\n      add\n      dup1\n      dup4\n      gt\n      tag_35\n      jumpi\n      dup3\n      swap1\n      sub\n      0x1f\n      and\n      dup3\n      add\n      swap2\n    tag_33:\n      pop\n      pop\n      pop\n      pop\n      pop\n      dup2\n      jump\t// out\n        /* \"Ep9/example.sol\":217:301  function getTitle() public view returns(string memory) {\r... */\n    tag_18:\n        /* \"Ep9/example.sol\":257:270  string memory */\n      0x60\n        /* \"Ep9/example.sol\":289:294  title */\n      0x01\n        /* \"Ep9/example.sol\":282:294  return title */\n      dup1\n      sload\n      tag_37\n      swap1\n      tag_21\n      jump\t// in\n    tag_37:\n      dup1\n      0x1f\n      add\n      0x20\n      dup1\n      swap2\n      div\n      mul\n      0x20\n      add\n      mload(0x40)\n      swap1\n      dup2\n      add\n      0x40\n      mstore\n      dup1\n      swap3\n      swap2\n      swap1\n      dup2\n      dup2\n      mstore\n      0x20\n      add\n      dup3\n      dup1\n      sload\n      tag_38\n      swap1\n      tag_21\n      jump\t// in\n    tag_38:\n      dup1\n      iszero\n      tag_39\n      jumpi\n      dup1\n      0x1f\n      lt\n      tag_40\n      jumpi\n      0x0100\n      dup1\n      dup4\n      sload\n      div\n      mul\n      dup4\n      mstore\n      swap2\n      0x20\n      add\n      swap2\n      jump(tag_39)\n    tag_40:\n      dup3\n      add\n      swap2\n      swap1\n      0x00\n      mstore\n      keccak256(0x00, 0x20)\n      swap1\n    tag_41:\n      dup2\n      sload\n      dup2\n      mstore\n      swap1\n      0x01\n      add\n      swap1\n      0x20\n      add\n      dup1\n      dup4\n      gt\n      tag_41\n      jumpi\n      dup3\n      swap1\n      sub\n      0x1f\n      and\n      dup3\n      add\n      swap2\n    tag_39:\n      pop\n      pop\n      pop\n      pop\n      pop\n      swap1\n      pop\n        /* \"Ep9/example.sol\":217:301  function getTitle() public view returns(string memory) {\r... */\n      swap1\n      jump\t// out\n        /* \"#utility.yul\":7:371   */\n    tag_43:\n        /* \"#utility.yul\":95:98   */\n      0x00\n        /* \"#utility.yul\":123:162   */\n      tag_45\n        /* \"#utility.yul\":156:161   */\n      dup3\n        /* \"#utility.yul\":123:162   */\n      tag_46\n      jump\t// in\n    tag_45:\n        /* \"#utility.yul\":178:249   */\n      tag_47\n        /* \"#utility.yul\":242:248   */\n      dup2\n        /* \"#utility.yul\":237:240   */\n      dup6\n        /* \"#utility.yul\":178:249   */\n      tag_48\n      jump\t// in\n    tag_47:\n        /* \"#utility.yul\":171:249   */\n      swap4\n      pop\n        /* \"#utility.yul\":258:310   */\n      tag_49\n        /* \"#utility.yul\":303:309   */\n      dup2\n        /* \"#utility.yul\":298:301   */\n      dup6\n        /* \"#utility.yul\":291:295   */\n      0x20\n        /* \"#utility.yul\":284:289   */\n      dup7\n        /* \"#utility.yul\":280:296   */\n      add\n        /* \"#utility.yul\":258:310   */\n      tag_50\n      jump\t// in\n    tag_49:\n        /* \"#utility.yul\":335:364   */\n      tag_51\n        /* \"#utility.yul\":357:363   */\n      dup2\n        /* \"#utility.yul\":335:364   */\n      tag_52\n      jump\t// in\n    tag_51:\n        /* \"#utility.yul\":330:333   */\n      dup5\n        /* \"#utility.yul\":326:365   */\n      add\n        /* \"#utility.yul\":319:365   */\n      swap2\n      pop\n        /* \"#utility.yul\":99:371   */\n      pop\n        /* \"#utility.yul\":7:371   */\n      swap3\n      swap2\n      pop\n      pop\n      jump\t// out\n        /* \"#utility.yul\":377:690   */\n    tag_10:\n        /* \"#utility.yul\":490:494   */\n      0x00\n        /* \"#utility.yul\":528:530   */\n      0x20\n        /* \"#utility.yul\":517:526   */\n      dup3\n        /* \"#utility.yul\":513:531   */\n      add\n        /* \"#utility.yul\":505:531   */\n      swap1\n      pop\n        /* \"#utility.yul\":577:586   */\n      dup2\n        /* \"#utility.yul\":571:575   */\n      dup2\n        /* \"#utility.yul\":567:587   */\n      sub\n        /* \"#utility.yul\":563:564   */\n      0x00\n        /* \"#utility.yul\":552:561   */\n      dup4\n        /* \"#utility.yul\":548:565   */\n      add\n        /* \"#utility.yul\":541:588   */\n      mstore\n        /* \"#utility.yul\":605:683   */\n      tag_54\n        /* \"#utility.yul\":678:682   */\n      dup2\n        /* \"#utility.yul\":669:675   */\n      dup5\n        /* \"#utility.yul\":605:683   */\n      tag_43\n      jump\t// in\n    tag_54:\n        /* \"#utility.yul\":597:683   */\n      swap1\n      pop\n        /* \"#utility.yul\":377:690   */\n      swap3\n      swap2\n      pop\n      pop\n      jump\t// out\n        /* \"#utility.yul\":696:795   */\n    tag_46:\n        /* \"#utility.yul\":748:754   */\n      0x00\n        /* \"#utility.yul\":782:787   */\n      dup2\n        /* \"#utility.yul\":776:788   */\n      mload\n        /* \"#utility.yul\":766:788   */\n      swap1\n      pop\n        /* \"#utility.yul\":696:795   */\n      swap2\n      swap1\n      pop\n      jump\t// out\n        /* \"#utility.yul\":801:970   */\n    tag_48:\n        /* \"#utility.yul\":885:896   */\n      0x00\n        /* \"#utility.yul\":919:925   */\n      dup3\n        /* \"#utility.yul\":914:917   */\n      dup3\n        /* \"#utility.yul\":907:926   */\n      mstore\n        /* \"#utility.yul\":959:963   */\n      0x20\n        /* \"#utility.yul\":954:957   */\n      dup3\n        /* \"#utility.yul\":950:964   */\n      add\n        /* \"#utility.yul\":935:964   */\n      swap1\n      pop\n        /* \"#utility.yul\":801:970   */\n      swap3\n      swap2\n      pop\n      pop\n      jump\t// out\n        /* \"#utility.yul\":976:1283   */\n    tag_50:\n        /* \"#utility.yul\":1044:1045   */\n      0x00\n        /* \"#utility.yul\":1054:1167   */\n    tag_58:\n        /* \"#utility.yul\":1068:1074   */\n      dup4\n        /* \"#utility.yul\":1065:1066   */\n      dup2\n        /* \"#utility.yul\":1062:1075   */\n      lt\n        /* \"#utility.yul\":1054:1167   */\n      iszero\n      tag_60\n      jumpi\n        /* \"#utility.yul\":1153:1154   */\n      dup1\n        /* \"#utility.yul\":1148:1151   */\n      dup3\n        /* \"#utility.yul\":1144:1155   */\n      add\n        /* \"#utility.yul\":1138:1156   */\n      mload\n        /* \"#utility.yul\":1134:1135   */\n      dup2\n        /* \"#utility.yul\":1129:1132   */\n      dup5\n        /* \"#utility.yul\":1125:1136   */\n      add\n        /* \"#utility.yul\":1118:1157   */\n      mstore\n        /* \"#utility.yul\":1090:1092   */\n      0x20\n        /* \"#utility.yul\":1087:1088   */\n      dup2\n        /* \"#utility.yul\":1083:1093   */\n      add\n        /* \"#utility.yul\":1078:1093   */\n      swap1\n      pop\n        /* \"#utility.yul\":1054:1167   */\n      jump(tag_58)\n    tag_60:\n        /* \"#utility.yul\":1185:1191   */\n      dup4\n        /* \"#utility.yul\":1182:1183   */\n      dup2\n        /* \"#utility.yul\":1179:1192   */\n      gt\n        /* \"#utility.yul\":1176:1277   */\n      iszero\n      tag_61\n      jumpi\n        /* \"#utility.yul\":1265:1266   */\n      0x00\n        /* \"#utility.yul\":1256:1262   */\n      dup5\n        /* \"#utility.yul\":1251:1254   */\n      dup5\n        /* \"#utility.yul\":1247:1263   */\n      add\n        /* \"#utility.yul\":1240:1267   */\n      mstore\n        /* \"#utility.yul\":1176:1277   */\n    tag_61:\n        /* \"#utility.yul\":1025:1283   */\n      pop\n        /* \"#utility.yul\":976:1283   */\n      pop\n      pop\n      pop\n      jump\t// out\n        /* \"#utility.yul\":1289:1609   */\n    tag_21:\n        /* \"#utility.yul\":1333:1339   */\n      0x00\n        /* \"#utility.yul\":1370:1371   */\n      0x02\n        /* \"#utility.yul\":1364:1368   */\n      dup3\n        /* \"#utility.yul\":1360:1372   */\n      div\n        /* \"#utility.yul\":1350:1372   */\n      swap1\n      pop\n        /* \"#utility.yul\":1417:1418   */\n      0x01\n        /* \"#utility.yul\":1411:1415   */\n      dup3\n        /* \"#utility.yul\":1407:1419   */\n      and\n        /* \"#utility.yul\":1438:1456   */\n      dup1\n        /* \"#utility.yul\":1428:1509   */\n      tag_63\n      jumpi\n        /* \"#utility.yul\":1494:1498   */\n      0x7f\n        /* \"#utility.yul\":1486:1492   */\n      dup3\n        /* \"#utility.yul\":1482:1499   */\n      and\n        /* \"#utility.yul\":1472:1499   */\n      swap2\n      pop\n        /* \"#utility.yul\":1428:1509   */\n    tag_63:\n        /* \"#utility.yul\":1556:1558   */\n      0x20\n        /* \"#utility.yul\":1548:1554   */\n      dup3\n        /* \"#utility.yul\":1545:1559   */\n      lt\n        /* \"#utility.yul\":1525:1543   */\n      dup2\n        /* \"#utility.yul\":1522:1560   */\n      eq\n        /* \"#utility.yul\":1519:1603   */\n      iszero\n      tag_64\n      jumpi\n        /* \"#utility.yul\":1575:1593   */\n      tag_65\n      tag_66\n      jump\t// in\n    tag_65:\n        /* \"#utility.yul\":1519:1603   */\n    tag_64:\n        /* \"#utility.yul\":1340:1609   */\n      pop\n        /* \"#utility.yul\":1289:1609   */\n      swap2\n      swap1\n      pop\n      jump\t// out\n        /* \"#utility.yul\":1615:1795   */\n    tag_66:\n        /* \"#utility.yul\":1663:1740   */\n      0x4e487b7100000000000000000000000000000000000000000000000000000000\n        /* \"#utility.yul\":1660:1661   */\n      0x00\n        /* \"#utility.yul\":1653:1741   */\n      mstore\n        /* \"#utility.yul\":1760:1764   */\n      0x22\n        /* \"#utility.yul\":1757:1758   */\n      0x04\n        /* \"#utility.yul\":1750:1765   */\n      mstore\n        /* \"#utility.yul\":1784:1788   */\n      0x24\n        /* \"#utility.yul\":1781:1782   */\n      0x00\n        /* \"#utility.yul\":1774:1789   */\n      revert\n        /* \"#utility.yul\":1801:1903   */\n    tag_52:\n        /* \"#utility.yul\":1842:1848   */\n      0x00\n        /* \"#utility.yul\":1893:1895   */\n      0x1f\n        /* \"#utility.yul\":1889:1896   */\n      not\n        /* \"#utility.yul\":1884:1886   */\n      0x1f\n        /* \"#utility.yul\":1877:1882   */\n      dup4\n        /* \"#utility.yul\":1873:1887   */\n      add\n        /* \"#utility.yul\":1869:1897   */\n      and\n        /* \"#utility.yul\":1859:1897   */\n      swap1\n      pop\n        /* \"#utility.yul\":1801:1903   */\n      swap2\n      swap1\n      pop\n      jump\t// out\n\n    auxdata: 0xa26469706673582212206e186ffedd608f984cf1aca6038d5720fa266a5937ce943e9bf13641c271b42c64736f6c63430008070033\n}\n",
				"bytecode": {
					"linkReferences": {},
					"object": "60806040526040518060400160405280600581526020017f62617369630000000000000000000000000000000000000000000000000000008152506000908051906020019062000051929190620000f5565b506040518060400160405280600681526020017f6261736963310000000000000000000000000000000000000000000000000000815250600290805190602001906200009f929190620000f5565b50348015620000ad57600080fd5b506040516200085f3803806200085f8339818101604052810190620000d3919062000223565b808060019080519060200190620000ec929190620000f5565b505050620003f8565b828054620001039062000309565b90600052602060002090601f01602090048101928262000127576000855562000173565b82601f106200014257805160ff191683800117855562000173565b8280016001018555821562000173579182015b828111156200017257825182559160200191906001019062000155565b5b50905062000182919062000186565b5090565b5b80821115620001a157600081600090555060010162000187565b5090565b6000620001bc620001b6846200029d565b62000274565b905082815260208101848484011115620001db57620001da620003d8565b5b620001e8848285620002d3565b509392505050565b600082601f830112620002085762000207620003d3565b5b81516200021a848260208601620001a5565b91505092915050565b6000602082840312156200023c576200023b620003e2565b5b600082015167ffffffffffffffff8111156200025d576200025c620003dd565b5b6200026b84828501620001f0565b91505092915050565b60006200028062000293565b90506200028e82826200033f565b919050565b6000604051905090565b600067ffffffffffffffff821115620002bb57620002ba620003a4565b5b620002c682620003e7565b9050602081019050919050565b60005b83811015620002f3578082015181840152602081019050620002d6565b8381111562000303576000848401525b50505050565b600060028204905060018216806200032257607f821691505b6020821081141562000339576200033862000375565b5b50919050565b6200034a82620003e7565b810181811067ffffffffffffffff821117156200036c576200036b620003a4565b5b80604052505050565b7f4e487b7100000000000000000000000000000000000000000000000000000000600052602260045260246000fd5b7f4e487b7100000000000000000000000000000000000000000000000000000000600052604160045260246000fd5b600080fd5b600080fd5b600080fd5b600080fd5b6000601f19601f8301169050919050565b61045780620004086000396000f3fe608060405234801561001057600080fd5b506004361061004c5760003560e01c806301770f7a1461005157806315e8b3451461006f5780634a79d50c1461008d578063ff3c1a8f146100ab575b600080fd5b6100596100c9565b604051610066919061033e565b60405180910390f35b610077610157565b604051610084919061033e565b60405180910390f35b6100956101e5565b6040516100a2919061033e565b60405180910390f35b6100b3610273565b6040516100c0919061033e565b60405180910390f35b600280546100d6906103af565b80601f0160208091040260200160405190810160405280929190818152602001828054610102906103af565b801561014f5780601f106101245761010080835404028352916020019161014f565b820191906000526020600020905b81548152906001019060200180831161013257829003601f168201915b505050505081565b60008054610164906103af565b80601f0160208091040260200160405190810160405280929190818152602001828054610190906103af565b80156101dd5780601f106101b2576101008083540402835291602001916101dd565b820191906000526020600020905b8154815290600101906020018083116101c057829003601f168201915b505050505081565b600180546101f2906103af565b80601f016020809104026020016040519081016040528092919081815260200182805461021e906103af565b801561026b5780601f106102405761010080835404028352916020019161026b565b820191906000526020600020905b81548152906001019060200180831161024e57829003601f168201915b505050505081565b606060018054610282906103af565b80601f01602080910402602001604051908101604052809291908181526020018280546102ae906103af565b80156102fb5780601f106102d0576101008083540402835291602001916102fb565b820191906000526020600020905b8154815290600101906020018083116102de57829003601f168201915b5050505050905090565b600061031082610360565b61031a818561036b565b935061032a81856020860161037c565b61033381610410565b840191505092915050565b600060208201905081810360008301526103588184610305565b905092915050565b600081519050919050565b600082825260208201905092915050565b60005b8381101561039a57808201518184015260208101905061037f565b838111156103a9576000848401525b50505050565b600060028204905060018216806103c757607f821691505b602082108114156103db576103da6103e1565b5b50919050565b7f4e487b7100000000000000000000000000000000000000000000000000000000600052602260045260246000fd5b6000601f19601f830116905091905056fea26469706673582212206e186ffedd608f984cf1aca6038d5720fa266a5937ce943e9bf13641c271b42c64736f6c63430008070033",
					"opcodes": "PUSH1 0x80 PUSH1 0x40 MSTORE PUSH1 0x40 MLOAD DUP1 PUSH1 0x40 ADD PUSH1 0x40 MSTORE DUP1 PUSH1 0x5 DUP2 MSTORE PUSH1 0x20 ADD PUSH32 0x6261736963000000000000000000000000000000000000000000000000000000 DUP2 MSTORE POP PUSH1 0x0 SWAP1 DUP1 MLOAD SWAP1 PUSH1 0x20 ADD SWAP1 PUSH3 0x51 SWAP3 SWAP2 SWAP1 PUSH3 0xF5 JUMP JUMPDEST POP PUSH1 0x40 MLOAD DUP1 PUSH1 0x40 ADD PUSH1 0x40 MSTORE DUP1 PUSH1 0x6 DUP2 MSTORE PUSH1 0x20 ADD PUSH32 0x6261736963310000000000000000000000000000000000000000000000000000 DUP2 MSTORE POP PUSH1 0x2 SWAP1 DUP1 MLOAD SWAP1 PUSH1 0x20 ADD SWAP1 PUSH3 0x9F SWAP3 SWAP2 SWAP1 PUSH3 0xF5 JUMP JUMPDEST POP CALLVALUE DUP1 ISZERO PUSH3 0xAD JUMPI PUSH1 0x0 DUP1 REVERT JUMPDEST POP PUSH1 0x40 MLOAD PUSH3 0x85F CODESIZE SUB DUP1 PUSH3 0x85F DUP4 CODECOPY DUP2 DUP2 ADD PUSH1 0x40 MSTORE DUP2 ADD SWAP1 PUSH3 0xD3 SWAP2 SWAP1 PUSH3 0x223 JUMP JUMPDEST DUP1 DUP1 PUSH1 0x1 SWAP1 DUP1 MLOAD SWAP1 PUSH1 0x20 ADD SWAP1 PUSH3 0xEC SWAP3 SWAP2 SWAP1 PUSH3 0xF5 JUMP JUMPDEST POP POP POP PUSH3 0x3F8 JUMP JUMPDEST DUP3 DUP1 SLOAD PUSH3 0x103 SWAP1 PUSH3 0x309 JUMP JUMPDEST SWAP1 PUSH1 0x0 MSTORE PUSH1 0x20 PUSH1 0x0 KECCAK256 SWAP1 PUSH1 0x1F ADD PUSH1 0x20 SWAP1 DIV DUP2 ADD SWAP3 DUP3 PUSH3 0x127 JUMPI PUSH1 0x0 DUP6 SSTORE PUSH3 0x173 JUMP JUMPDEST DUP3 PUSH1 0x1F LT PUSH3 0x142 JUMPI DUP1 MLOAD PUSH1 0xFF NOT AND DUP4 DUP1 ADD OR DUP6 SSTORE PUSH3 0x173 JUMP JUMPDEST DUP3 DUP1 ADD PUSH1 0x1 ADD DUP6 SSTORE DUP3 ISZERO PUSH3 0x173 JUMPI SWAP2 DUP3 ADD JUMPDEST DUP3 DUP2 GT ISZERO PUSH3 0x172 JUMPI DUP3 MLOAD DUP3 SSTORE SWAP2 PUSH1 0x20 ADD SWAP2 SWAP1 PUSH1 0x1 ADD SWAP1 PUSH3 0x155 JUMP JUMPDEST JUMPDEST POP SWAP1 POP PUSH3 0x182 SWAP2 SWAP1 PUSH3 0x186 JUMP JUMPDEST POP SWAP1 JUMP JUMPDEST JUMPDEST DUP1 DUP3 GT ISZERO PUSH3 0x1A1 JUMPI PUSH1 0x0 DUP2 PUSH1 0x0 SWAP1 SSTORE POP PUSH1 0x1 ADD PUSH3 0x187 JUMP JUMPDEST POP SWAP1 JUMP JUMPDEST PUSH1 0x0 PUSH3 0x1BC PUSH3 0x1B6 DUP5 PUSH3 0x29D JUMP JUMPDEST PUSH3 0x274 JUMP JUMPDEST SWAP1 POP DUP3 DUP2 MSTORE PUSH1 0x20 DUP2 ADD DUP5 DUP5 DUP5 ADD GT ISZERO PUSH3 0x1DB JUMPI PUSH3 0x1DA PUSH3 0x3D8 JUMP JUMPDEST JUMPDEST PUSH3 0x1E8 DUP5 DUP3 DUP6 PUSH3 0x2D3 JUMP JUMPDEST POP SWAP4 SWAP3 POP POP POP JUMP JUMPDEST PUSH1 0x0 DUP3 PUSH1 0x1F DUP4 ADD SLT PUSH3 0x208 JUMPI PUSH3 0x207 PUSH3 0x3D3 JUMP JUMPDEST JUMPDEST DUP2 MLOAD PUSH3 0x21A DUP5 DUP3 PUSH1 0x20 DUP7 ADD PUSH3 0x1A5 JUMP JUMPDEST SWAP2 POP POP SWAP3 SWAP2 POP POP JUMP JUMPDEST PUSH1 0x0 PUSH1 0x20 DUP3 DUP5 SUB SLT ISZERO PUSH3 0x23C JUMPI PUSH3 0x23B PUSH3 0x3E2 JUMP JUMPDEST JUMPDEST PUSH1 0x0 DUP3 ADD MLOAD PUSH8 0xFFFFFFFFFFFFFFFF DUP2 GT ISZERO PUSH3 0x25D JUMPI PUSH3 0x25C PUSH3 0x3DD JUMP JUMPDEST JUMPDEST PUSH3 0x26B DUP5 DUP3 DUP6 ADD PUSH3 0x1F0 JUMP JUMPDEST SWAP2 POP POP SWAP3 SWAP2 POP POP JUMP JUMPDEST PUSH1 0x0 PUSH3 0x280 PUSH3 0x293 JUMP JUMPDEST SWAP1 POP PUSH3 0x28E DUP3 DUP3 PUSH3 0x33F JUMP JUMPDEST SWAP2 SWAP1 POP JUMP JUMPDEST PUSH1 0x0 PUSH1 0x40 MLOAD SWAP1 POP SWAP1 JUMP JUMPDEST PUSH1 0x0 PUSH8 0xFFFFFFFFFFFFFFFF DUP3 GT ISZERO PUSH3 0x2BB JUMPI PUSH3 0x2BA PUSH3 0x3A4 JUMP JUMPDEST JUMPDEST PUSH3 0x2C6 DUP3 PUSH3 0x3E7 JUMP JUMPDEST SWAP1 POP PUSH1 0x20 DUP2 ADD SWAP1 POP SWAP2 SWAP1 POP JUMP JUMPDEST PUSH1 0x0 JUMPDEST DUP4 DUP2 LT ISZERO PUSH3 0x2F3 JUMPI DUP1 DUP3 ADD MLOAD DUP2 DUP5 ADD MSTORE PUSH1 0x20 DUP2 ADD SWAP1 POP PUSH3 0x2D6 JUMP JUMPDEST DUP4 DUP2 GT ISZERO PUSH3 0x303 JUMPI PUSH1 0x0 DUP5 DUP5 ADD MSTORE JUMPDEST POP POP POP POP JUMP JUMPDEST PUSH1 0x0 PUSH1 0x2 DUP3 DIV SWAP1 POP PUSH1 0x1 DUP3 AND DUP1 PUSH3 0x322 JUMPI PUSH1 0x7F DUP3 AND SWAP2 POP JUMPDEST PUSH1 0x20 DUP3 LT DUP2 EQ ISZERO PUSH3 0x339 JUMPI PUSH3 0x338 PUSH3 0x375 JUMP JUMPDEST JUMPDEST POP SWAP2 SWAP1 POP JUMP JUMPDEST PUSH3 0x34A DUP3 PUSH3 0x3E7 JUMP JUMPDEST DUP2 ADD DUP2 DUP2 LT PUSH8 0xFFFFFFFFFFFFFFFF DUP3 GT OR ISZERO PUSH3 0x36C JUMPI PUSH3 0x36B PUSH3 0x3A4 JUMP JUMPDEST JUMPDEST DUP1 PUSH1 0x40 MSTORE POP POP POP JUMP JUMPDEST PUSH32 0x4E487B7100000000000000000000000000000000000000000000000000000000 PUSH1 0x0 MSTORE PUSH1 0x22 PUSH1 0x4 MSTORE PUSH1 0x24 PUSH1 0x0 REVERT JUMPDEST PUSH32 0x4E487B7100000000000000000000000000000000000000000000000000000000 PUSH1 0x0 MSTORE PUSH1 0x41 PUSH1 0x4 MSTORE PUSH1 0x24 PUSH1 0x0 REVERT JUMPDEST PUSH1 0x0 DUP1 REVERT JUMPDEST PUSH1 0x0 DUP1 REVERT JUMPDEST PUSH1 0x0 DUP1 REVERT JUMPDEST PUSH1 0x0 DUP1 REVERT JUMPDEST PUSH1 0x0 PUSH1 0x1F NOT PUSH1 0x1F DUP4 ADD AND SWAP1 POP SWAP2 SWAP1 POP JUMP JUMPDEST PUSH2 0x457 DUP1 PUSH3 0x408 PUSH1 0x0 CODECOPY PUSH1 0x0 RETURN INVALID PUSH1 0x80 PUSH1 0x40 MSTORE CALLVALUE DUP1 ISZERO PUSH2 0x10 JUMPI PUSH1 0x0 DUP1 REVERT JUMPDEST POP PUSH1 0x4 CALLDATASIZE LT PUSH2 0x4C JUMPI PUSH1 0x0 CALLDATALOAD PUSH1 0xE0 SHR DUP1 PUSH4 0x1770F7A EQ PUSH2 0x51 JUMPI DUP1 PUSH4 0x15E8B345 EQ PUSH2 0x6F JUMPI DUP1 PUSH4 0x4A79D50C EQ PUSH2 0x8D JUMPI DUP1 PUSH4 0xFF3C1A8F EQ PUSH2 0xAB JUMPI JUMPDEST PUSH1 0x0 DUP1 REVERT JUMPDEST PUSH2 0x59 PUSH2 0xC9 JUMP JUMPDEST PUSH1 0x40 MLOAD PUSH2 0x66 SWAP2 SWAP1 PUSH2 0x33E JUMP JUMPDEST PUSH1 0x40 MLOAD DUP1 SWAP2 SUB SWAP1 RETURN JUMPDEST PUSH2 0x77 PUSH2 0x157 JUMP JUMPDEST PUSH1 0x40 MLOAD PUSH2 0x84 SWAP2 SWAP1 PUSH2 0x33E JUMP JUMPDEST PUSH1 0x40 MLOAD DUP1 SWAP2 SUB SWAP1 RETURN JUMPDEST PUSH2 0x95 PUSH2 0x1E5 JUMP JUMPDEST PUSH1 0x40 MLOAD PUSH2 0xA2 SWAP2 SWAP1 PUSH2 0x33E JUMP JUMPDEST PUSH1 0x40 MLOAD DUP1 SWAP2 SUB SWAP1 RETURN JUMPDEST PUSH2 0xB3 PUSH2 0x273 JUMP JUMPDEST PUSH1 0x40 MLOAD PUSH2 0xC0 SWAP2 SWAP1 PUSH2 0x33E JUMP JUMPDEST PUSH1 0x40 MLOAD DUP1 SWAP2 SUB SWAP1 RETURN JUMPDEST PUSH1 0x2 DUP1 SLOAD PUSH2 0xD6 SWAP1 PUSH2 0x3AF JUMP JUMPDEST DUP1 PUSH1 0x1F ADD PUSH1 0x20 DUP1 SWAP2 DIV MUL PUSH1 0x20 ADD PUSH1 0x40 MLOAD SWAP1 DUP2 ADD PUSH1 0x40 MSTORE DUP1 SWAP3 SWAP2 SWAP1 DUP2 DUP2 MSTORE PUSH1 0x20 ADD DUP3 DUP1 SLOAD PUSH2 0x102 SWAP1 PUSH2 0x3AF JUMP JUMPDEST DUP1 ISZERO PUSH2 0x14F JUMPI DUP1 PUSH1 0x1F LT PUSH2 0x124 JUMPI PUSH2 0x100 DUP1 DUP4 SLOAD DIV MUL DUP4 MSTORE SWAP2 PUSH1 0x20 ADD SWAP2 PUSH2 0x14F JUMP JUMPDEST DUP3 ADD SWAP2 SWAP1 PUSH1 0x0 MSTORE PUSH1 0x20 PUSH1 0x0 KECCAK256 SWAP1 JUMPDEST DUP2 SLOAD DUP2 MSTORE SWAP1 PUSH1 0x1 ADD SWAP1 PUSH1 0x20 ADD DUP1 DUP4 GT PUSH2 0x132 JUMPI DUP3 SWAP1 SUB PUSH1 0x1F AND DUP3 ADD SWAP2 JUMPDEST POP POP POP POP POP DUP2 JUMP JUMPDEST PUSH1 0x0 DUP1 SLOAD PUSH2 0x164 SWAP1 PUSH2 0x3AF JUMP JUMPDEST DUP1 PUSH1 0x1F ADD PUSH1 0x20 DUP1 SWAP2 DIV MUL PUSH1 0x20 ADD PUSH1 0x40 MLOAD SWAP1 DUP2 ADD PUSH1 0x40 MSTORE DUP1 SWAP3 SWAP2 SWAP1 DUP2 DUP2 MSTORE PUSH1 0x20 ADD DUP3 DUP1 SLOAD PUSH2 0x190 SWAP1 PUSH2 0x3AF JUMP JUMPDEST DUP1 ISZERO PUSH2 0x1DD JUMPI DUP1 PUSH1 0x1F LT PUSH2 0x1B2 JUMPI PUSH2 0x100 DUP1 DUP4 SLOAD DIV MUL DUP4 MSTORE SWAP2 PUSH1 0x20 ADD SWAP2 PUSH2 0x1DD JUMP JUMPDEST DUP3 ADD SWAP2 SWAP1 PUSH1 0x0 MSTORE PUSH1 0x20 PUSH1 0x0 KECCAK256 SWAP1 JUMPDEST DUP2 SLOAD DUP2 MSTORE SWAP1 PUSH1 0x1 ADD SWAP1 PUSH1 0x20 ADD DUP1 DUP4 GT PUSH2 0x1C0 JUMPI DUP3 SWAP1 SUB PUSH1 0x1F AND DUP3 ADD SWAP2 JUMPDEST POP POP POP POP POP DUP2 JUMP JUMPDEST PUSH1 0x1 DUP1 SLOAD PUSH2 0x1F2 SWAP1 PUSH2 0x3AF JUMP JUMPDEST DUP1 PUSH1 0x1F ADD PUSH1 0x20 DUP1 SWAP2 DIV MUL PUSH1 0x20 ADD PUSH1 0x40 MLOAD SWAP1 DUP2 ADD PUSH1 0x40 MSTORE DUP1 SWAP3 SWAP2 SWAP1 DUP2 DUP2 MSTORE PUSH1 0x20 ADD DUP3 DUP1 SLOAD PUSH2 0x21E SWAP1 PUSH2 0x3AF JUMP JUMPDEST DUP1 ISZERO PUSH2 0x26B JUMPI DUP1 PUSH1 0x1F LT PUSH2 0x240 JUMPI PUSH2 0x100 DUP1 DUP4 SLOAD DIV MUL DUP4 MSTORE SWAP2 PUSH1 0x20 ADD SWAP2 PUSH2 0x26B JUMP JUMPDEST DUP3 ADD SWAP2 SWAP1 PUSH1 0x0 MSTORE PUSH1 0x20 PUSH1 0x0 KECCAK256 SWAP1 JUMPDEST DUP2 SLOAD DUP2 MSTORE SWAP1 PUSH1 0x1 ADD SWAP1 PUSH1 0x20 ADD DUP1 DUP4 GT PUSH2 0x24E JUMPI DUP3 SWAP1 SUB PUSH1 0x1F AND DUP3 ADD SWAP2 JUMPDEST POP POP POP POP POP DUP2 JUMP JUMPDEST PUSH1 0x60 PUSH1 0x1 DUP1 SLOAD PUSH2 0x282 SWAP1 PUSH2 0x3AF JUMP JUMPDEST DUP1 PUSH1 0x1F ADD PUSH1 0x20 DUP1 SWAP2 DIV MUL PUSH1 0x20 ADD PUSH1 0x40 MLOAD SWAP1 DUP2 ADD PUSH1 0x40 MSTORE DUP1 SWAP3 SWAP2 SWAP1 DUP2 DUP2 MSTORE PUSH1 0x20 ADD DUP3 DUP1 SLOAD PUSH2 0x2AE SWAP1 PUSH2 0x3AF JUMP JUMPDEST DUP1 ISZERO PUSH2 0x2FB JUMPI DUP1 PUSH1 0x1F LT PUSH2 0x2D0 JUMPI PUSH2 0x100 DUP1 DUP4 SLOAD DIV MUL DUP4 MSTORE SWAP2 PUSH1 0x20 ADD SWAP2 PUSH2 0x2FB JUMP JUMPDEST DUP3 ADD SWAP2 SWAP1 PUSH1 0x0 MSTORE PUSH1 0x20 PUSH1 0x0 KECCAK256 SWAP1 JUMPDEST DUP2 SLOAD DUP2 MSTORE SWAP1 PUSH1 0x1 ADD SWAP1 PUSH1 0x20 ADD DUP1 DUP4 GT PUSH2 0x2DE JUMPI DUP3 SWAP1 SUB PUSH1 0x1F AND DUP3 ADD SWAP2 JUMPDEST POP POP POP POP POP SWAP1 POP SWAP1 JUMP JUMPDEST PUSH1 0x0 PUSH2 0x310 DUP3 PUSH2 0x360 JUMP JUMPDEST PUSH2 0x31A DUP2 DUP6 PUSH2 0x36B JUMP JUMPDEST SWAP4 POP PUSH2 0x32A DUP2 DUP6 PUSH1 0x20 DUP7 ADD PUSH2 0x37C JUMP JUMPDEST PUSH2 0x333 DUP2 PUSH2 0x410 JUMP JUMPDEST DUP5 ADD SWAP2 POP POP SWAP3 SWAP2 POP POP JUMP JUMPDEST PUSH1 0x0 PUSH1 0x20 DUP3 ADD SWAP1 POP DUP2 DUP2 SUB PUSH1 0x0 DUP4 ADD MSTORE PUSH2 0x358 DUP2 DUP5 PUSH2 0x305 JUMP JUMPDEST SWAP1 POP SWAP3 SWAP2 POP POP JUMP JUMPDEST PUSH1 0x0 DUP2 MLOAD SWAP1 POP SWAP2 SWAP1 POP JUMP JUMPDEST PUSH1 0x0 DUP3 DUP3 MSTORE PUSH1 0x20 DUP3 ADD SWAP1 POP SWAP3 SWAP2 POP POP JUMP JUMPDEST PUSH1 0x0 JUMPDEST DUP4 DUP2 LT ISZERO PUSH2 0x39A JUMPI DUP1 DUP3 ADD MLOAD DUP2 DUP5 ADD MSTORE PUSH1 0x20 DUP2 ADD SWAP1 POP PUSH2 0x37F JUMP JUMPDEST DUP4 DUP2 GT ISZERO PUSH2 0x3A9 JUMPI PUSH1 0x0 DUP5 DUP5 ADD MSTORE JUMPDEST POP POP POP POP JUMP JUMPDEST PUSH1 0x0 PUSH1 0x2 DUP3 DIV SWAP1 POP PUSH1 0x1 DUP3 AND DUP1 PUSH2 0x3C7 JUMPI PUSH1 0x7F DUP3 AND SWAP2 POP JUMPDEST PUSH1 0x20 DUP3 LT DUP2 EQ ISZERO PUSH2 0x3DB JUMPI PUSH2 0x3DA PUSH2 0x3E1 JUMP JUMPDEST JUMPDEST POP SWAP2 SWAP1 POP JUMP JUMPDEST PUSH32 0x4E487B7100000000000000000000000000000000000000000000000000000000 PUSH1 0x0 MSTORE PUSH1 0x22 PUSH1 0x4 MSTORE PUSH1 0x24 PUSH1 0x0 REVERT JUMPDEST PUSH1 0x0 PUSH1 0x1F NOT PUSH1 0x1F DUP4 ADD AND SWAP1 POP SWAP2 SWAP1 POP JUMP INVALID LOG2 PUSH5 0x6970667358 0x22 SLT KECCAK256 PUSH15 0x186FFEDD608F984CF1ACA6038D5720 STATICCALL 0x26 PUSH11 0x5937CE943E9BF13641C271 0xB4 0x2C PUSH5 0x736F6C6343 STOP ADDMOD SMOD STOP CALLER "
				},
				"gasEstimates": {
					"creation": {
						"codeDepositCost": "222200",
						"executionCost": "infinite",
						"totalCost": "infinite"
					},
					"external": {
						"basic()": "infinite",
						"basic1()": "infinite",
						"getTitle()": "infinite",
						"title()": "infinite"
					}
				},
				"methodIdentifiers": {
					"basic()": "15e8b345",
					"basic1()": "01770f7a",
					"getTitle()": "ff3c1a8f",
					"title()": "4a79d50c"
				}
			},
			"storageLayout": {
				"storage": [
					{
						"astId": 4,
						"contract": "Ep9/example.sol:Basic1",
						"label": "basic",
						"offset": 0,
						"slot": "0",
						"type": "t_string_storage"
					},
					{
						"astId": 6,
						"contract": "Ep9/example.sol:Basic1",
						"label": "title",
						"offset": 0,
						"slot": "1",
						"type": "t_string_storage"
					},
					{
						"astId": 37,
						"contract": "Ep9/example.sol:Basic1",
						"label": "basic1",
						"offset": 0,
						"slot": "2",
						"type": "t_string_storage"
					}
				],
				"types": {
					"t_string_storage": {
						"encoding": "bytes",
						"label": "string",
						"numberOfBytes": "32"
					}
				}
			},
			"userdoc": {
				"kind": "user",
				"methods": {},
				"version": 1
			}
		}
	}
}