{
	"Ep9/example.sol": {
		"Basic2": {
			"abi": [
				{
					"anonymous": false,
					"inputs": [
						{
							"indexed": false,
							"internalType": "string",
							"name": "msg",
							"type": "string"
						}
					],
					"name": "Log",
					"type": "event"
				},
				{
					"inputs": [],
					"name": "basic",
					"outputs": [
						{
							"internalType": "string",
							"name": "",
							"type": "string"
						}
					],
					"stateMutability": "view",
					"type": "function"
				},
				{
					"inputs": [],
					"name": "basic0",
					"outputs": [
						{
							"internalType": "string",
							"name": "",
							"type": "string"
						}
					],
					"stateMutability": "view",
					"type": "function"
				},
				{
					"inputs": [],
					"name": "getTitle",
					"outputs": [
						{
							"internalType": "string",
							"name": "",
							"type": "string"
						}
					],
					"stateMutability": "view",
					"type": "function"
				},
				{
					"inputs": [],
					"name": "test",
					"outputs": [],
					"stateMutability": "nonpayable",
					"type": "function"
				},
				{
					"inputs": [],
					"name": "title",
					"outputs": [
						{
							"internalType": "string",
							"name": "",
							"type": "string"
						}
					],
					"stateMutability": "view",
					"type": "function"
				}
			],
			"devdoc": {
				"kind": "dev",
				"methods": {},
				"version": 1
			},
			"evm": {
				"assembly": "    /* \"Ep9/example.sol\":626:822  contract Basic2 is Basic, Basic0 {\r... */\n  mstore(0x40, 0x80)\n    /* \"Ep9/example.sol\":83:112  string public basic = \"basic\" */\n  mload(0x40)\n  dup1\n  0x40\n  add\n  0x40\n  mstore\n  dup1\n  0x05\n  dup2\n  mstore\n  0x20\n  add\n  0x6261736963000000000000000000000000000000000000000000000000000000\n  dup2\n  mstore\n  pop\n  0x00\n  swap1\n  dup1\n  mload\n  swap1\n  0x20\n  add\n  swap1\n  tag_1\n  swap3\n  swap2\n  swap1\n  tag_2\n  jump\t// in\ntag_1:\n  pop\n    /* \"Ep9/example.sol\":398:429  string public basic0 = \"basic0\" */\n  mload(0x40)\n  dup1\n  0x40\n  add\n  0x40\n  mstore\n  dup1\n  0x06\n  dup2\n  mstore\n  0x20\n  add\n  0x6261736963300000000000000000000000000000000000000000000000000000\n  dup2\n  mstore\n  pop\n  0x02\n  swap1\n  dup1\n  mload\n  swap1\n  0x20\n  add\n  swap1\n  tag_3\n  swap3\n  swap2\n  swap1\n  tag_2\n  jump\t// in\ntag_3:\n  pop\n    /* \"Ep9/example.sol\":626:822  contract Basic2 is Basic, Basic0 {\r... */\n  callvalue\n  dup1\n  iszero\n  tag_4\n  jumpi\n  0x00\n  dup1\n  revert\ntag_4:\n  pop\n    /* \"Ep9/example.sol\":145:210  constructor(string memory _title) {\r... */\n  mload(0x40)\n  dup1\n  0x40\n  add\n  0x40\n  mstore\n  dup1\n  0x0b\n  dup2\n  mstore\n  0x20\n  add\n  0x6920616d20426173696330000000000000000000000000000000000000000000\n  dup2\n  mstore\n  pop\n    /* \"Ep9/example.sol\":197:203  _title */\n  dup1\n    /* \"Ep9/example.sol\":189:194  title */\n  0x01\n    /* \"Ep9/example.sol\":189:203  title = _title */\n  swap1\n  dup1\n  mload\n  swap1\n  0x20\n  add\n  swap1\n  tag_7\n  swap3\n  swap2\n  swap1\n  tag_2\n  jump\t// in\ntag_7:\n  pop\n    /* \"Ep9/example.sol\":145:210  constructor(string memory _title) {\r... */\n  pop\n    /* \"Ep9/example.sol\":626:822  contract Basic2 is Basic, Basic0 {\r... */\n  jump(tag_8)\ntag_2:\n  dup3\n  dup1\n  sload\n  tag_9\n  swap1\n  tag_10\n  jump\t// in\ntag_9:\n  swap1\n  0x00\n  mstore\n  keccak256(0x00, 0x20)\n  swap1\n  0x1f\n  add\n  0x20\n  swap1\n  div\n  dup2\n  add\n  swap3\n  dup3\n  tag_12\n  jumpi\n  0x00\n  dup6\n  sstore\n  jump(tag_11)\ntag_12:\n  dup3\n  0x1f\n  lt\n  tag_13\n  jumpi\n  dup1\n  mload\n  not(0xff)\n  and\n  dup4\n  dup1\n  add\n  or\n  dup6\n  sstore\n  jump(tag_11)\ntag_13:\n  dup3\n  dup1\n  add\n  0x01\n  add\n  dup6\n  sstore\n  dup3\n  iszero\n  tag_11\n  jumpi\n  swap2\n  dup3\n  add\ntag_14:\n  dup3\n  dup2\n  gt\n  iszero\n  tag_15\n  jumpi\n  dup3\n  mload\n  dup3\n  sstore\n  swap2\n  0x20\n  add\n  swap2\n  swap1\n  0x01\n  add\n  swap1\n  jump(tag_14)\ntag_15:\ntag_11:\n  pop\n  swap1\n  pop\n  tag_16\n  swap2\n  swap1\n  tag_17\n  jump\t// in\ntag_16:\n  pop\n  swap1\n  jump\t// out\ntag_17:\ntag_18:\n  dup1\n  dup3\n  gt\n  iszero\n  tag_19\n  jumpi\n  0x00\n  dup2\n  0x00\n  swap1\n  sstore\n  pop\n  0x01\n  add\n  jump(tag_18)\ntag_19:\n  pop\n  swap1\n  jump\t// out\n    /* \"#utility.yul\":7:327   */\ntag_10:\n    /* \"#utility.yul\":51:57   */\n  0x00\n    /* \"#utility.yul\":88:89   */\n  0x02\n    /* \"#utility.yul\":82:86   */\n  dup3\n    /* \"#utility.yul\":78:90   */\n  div\n    /* \"#utility.yul\":68:90   */\n  swap1\n  pop\n    /* \"#utility.yul\":135:136   */\n  0x01\n    /* \"#utility.yul\":129:133   */\n  dup3\n    /* \"#utility.yul\":125:137   */\n  and\n    /* \"#utility.yul\":156:174   */\n  dup1\n    /* \"#utility.yul\":146:227   */\n  tag_22\n  jumpi\n    /* \"#utility.yul\":212:216   */\n  0x7f\n    /* \"#utility.yul\":204:210   */\n  dup3\n    /* \"#utility.yul\":200:217   */\n  and\n    /* \"#utility.yul\":190:217   */\n  swap2\n  pop\n    /* \"#utility.yul\":146:227   */\ntag_22:\n    /* \"#utility.yul\":274:276   */\n  0x20\n    /* \"#utility.yul\":266:272   */\n  dup3\n    /* \"#utility.yul\":263:277   */\n  lt\n    /* \"#utility.yul\":243:261   */\n  dup2\n    /* \"#utility.yul\":240:278   */\n  eq\n    /* \"#utility.yul\":237:321   */\n  iszero\n  tag_23\n  jumpi\n    /* \"#utility.yul\":293:311   */\n  tag_24\n  tag_25\n  jump\t// in\ntag_24:\n    /* \"#utility.yul\":237:321   */\ntag_23:\n    /* \"#utility.yul\":58:327   */\n  pop\n    /* \"#utility.yul\":7:327   */\n  swap2\n  swap1\n  pop\n  jump\t// out\n    /* \"#utility.yul\":333:513   */\ntag_25:\n    /* \"#utility.yul\":381:458   */\n  0x4e487b7100000000000000000000000000000000000000000000000000000000\n    /* \"#utility.yul\":378:379   */\n  0x00\n    /* \"#utility.yul\":371:459   */\n  mstore\n    /* \"#utility.yul\":478:482   */\n  0x22\n    /* \"#utility.yul\":475:476   */\n  0x04\n    /* \"#utility.yul\":468:483   */\n  mstore\n    /* \"#utility.yul\":502:506   */\n  0x24\n    /* \"#utility.yul\":499:500   */\n  0x00\n    /* \"#utility.yul\":492:507   */\n  revert\n    /* \"Ep9/example.sol\":626:822  contract Basic2 is Basic, Basic0 {\r... */\ntag_8:\n  dataSize(sub_0)\n  dup1\n  dataOffset(sub_0)\n  0x00\n  codecopy\n  0x00\n  return\nstop\n\nsub_0: assembly {\n        /* \"Ep9/example.sol\":626:822  contract Basic2 is Basic, Basic0 {\r... */\n      mstore(0x40, 0x80)\n      callvalue\n      dup1\n      iszero\n      tag_1\n      jumpi\n      0x00\n      dup1\n      revert\n    tag_1:\n      pop\n      jumpi(tag_2, lt(calldatasize, 0x04))\n      shr(0xe0, calldataload(0x00))\n      dup1\n      0x15e8b345\n      eq\n      tag_3\n      jumpi\n      dup1\n      0x4a79d50c\n      eq\n      tag_4\n      jumpi\n      dup1\n      0x8fddaed0\n      eq\n      tag_5\n      jumpi\n      dup1\n      0xf8a8fd6d\n      eq\n      tag_6\n      jumpi\n      dup1\n      0xff3c1a8f\n      eq\n      tag_7\n      jumpi\n    tag_2:\n      0x00\n      dup1\n      revert\n        /* \"Ep9/example.sol\":83:112  string public basic = \"basic\" */\n    tag_3:\n      tag_8\n      tag_9\n      jump\t// in\n    tag_8:\n      mload(0x40)\n      tag_10\n      swap2\n      swap1\n      tag_11\n      jump\t// in\n    tag_10:\n      mload(0x40)\n      dup1\n      swap2\n      sub\n      swap1\n      return\n        /* \"Ep9/example.sol\":118:137  string public title */\n    tag_4:\n      tag_12\n      tag_13\n      jump\t// in\n    tag_12:\n      mload(0x40)\n      tag_14\n      swap2\n      swap1\n      tag_11\n      jump\t// in\n    tag_14:\n      mload(0x40)\n      dup1\n      swap2\n      sub\n      swap1\n      return\n        /* \"Ep9/example.sol\":398:429  string public basic0 = \"basic0\" */\n    tag_5:\n      tag_15\n      tag_16\n      jump\t// in\n    tag_15:\n      mload(0x40)\n      tag_17\n      swap2\n      swap1\n      tag_11\n      jump\t// in\n    tag_17:\n      mload(0x40)\n      dup1\n      swap2\n      sub\n      swap1\n      return\n        /* \"Ep9/example.sol\":735:819  function test() public {\r... */\n    tag_6:\n      tag_18\n      tag_19\n      jump\t// in\n    tag_18:\n      stop\n        /* \"Ep9/example.sol\":217:301  function getTitle() public view returns(string memory) {\r... */\n    tag_7:\n      tag_20\n      tag_21\n      jump\t// in\n    tag_20:\n      mload(0x40)\n      tag_22\n      swap2\n      swap1\n      tag_11\n      jump\t// in\n    tag_22:\n      mload(0x40)\n      dup1\n      swap2\n      sub\n      swap1\n      return\n        /* \"Ep9/example.sol\":83:112  string public basic = \"basic\" */\n    tag_9:\n      0x00\n      dup1\n      sload\n      tag_23\n      swap1\n      tag_24\n      jump\t// in\n    tag_23:\n      dup1\n      0x1f\n      add\n      0x20\n      dup1\n      swap2\n      div\n      mul\n      0x20\n      add\n      mload(0x40)\n      swap1\n      dup2\n      add\n      0x40\n      mstore\n      dup1\n      swap3\n      swap2\n      swap1\n      dup2\n      dup2\n      mstore\n      0x20\n      add\n      dup3\n      dup1\n      sload\n      tag_25\n      swap1\n      tag_24\n      jump\t// in\n    tag_25:\n      dup1\n      iszero\n      tag_26\n      jumpi\n      dup1\n      0x1f\n      lt\n      tag_27\n      jumpi\n      0x0100\n      dup1\n      dup4\n      sload\n      div\n      mul\n      dup4\n      mstore\n      swap2\n      0x20\n      add\n      swap2\n      jump(tag_26)\n    tag_27:\n      dup3\n      add\n      swap2\n      swap1\n      0x00\n      mstore\n      keccak256(0x00, 0x20)\n      swap1\n    tag_28:\n      dup2\n      sload\n      dup2\n      mstore\n      swap1\n      0x01\n      add\n      swap1\n      0x20\n      add\n      dup1\n      dup4\n      gt\n      tag_28\n      jumpi\n      dup3\n      swap1\n      sub\n      0x1f\n      and\n      dup3\n      add\n      swap2\n    tag_26:\n      pop\n      pop\n      pop\n      pop\n      pop\n      dup2\n      jump\t// out\n        /* \"Ep9/example.sol\":118:137  string public title */\n    tag_13:\n      0x01\n      dup1\n      sload\n      tag_29\n      swap1\n      tag_24\n      jump\t// in\n    tag_29:\n      dup1\n      0x1f\n      add\n      0x20\n      dup1\n      swap2\n      div\n      mul\n      0x20\n      add\n      mload(0x40)\n      swap1\n      dup2\n      add\n      0x40\n      mstore\n      dup1\n      swap3\n      swap2\n      swap1\n      dup2\n      dup2\n      mstore\n      0x20\n      add\n      dup3\n      dup1\n      sload\n      tag_30\n      swap1\n      tag_24\n      jump\t// in\n    tag_30:\n      dup1\n      iszero\n      tag_31\n      jumpi\n      dup1\n      0x1f\n      lt\n      tag_32\n      jumpi\n      0x0100\n      dup1\n      dup4\n      sload\n      div\n      mul\n      dup4\n      mstore\n      swap2\n      0x20\n      add\n      swap2\n      jump(tag_31)\n    tag_32:\n      dup3\n      add\n      swap2\n      swap1\n      0x00\n      mstore\n      keccak256(0x00, 0x20)\n      swap1\n    tag_33:\n      dup2\n      sload\n      dup2\n      mstore\n      swap1\n      0x01\n      add\n      swap1\n      0x20\n      add\n      dup1\n      dup4\n      gt\n      tag_33\n      jumpi\n      dup3\n      swap1\n      sub\n      0x1f\n      and\n      dup3\n      add\n      swap2\n    tag_31:\n      pop\n      pop\n      pop\n      pop\n      pop\n      dup2\n      jump\t// out\n        /* \"Ep9/example.sol\":398:429  string public basic0 = \"basic0\" */\n    tag_16:\n      0x02\n      dup1\n      sload\n      tag_34\n      swap1\n      tag_24\n      jump\t// in\n    tag_34:\n      dup1\n      0x1f\n      add\n      0x20\n      dup1\n      swap2\n      div\n      mul\n      0x20\n      add\n      mload(0x40)\n      swap1\n      dup2\n      add\n      0x40\n      mstore\n      dup1\n      swap3\n      swap2\n      swap1\n      dup2\n      dup2\n      mstore\n      0x20\n      add\n      dup3\n      dup1\n      sload\n      tag_35\n      swap1\n      tag_24\n      jump\t// in\n    tag_35:\n      dup1\n      iszero\n      tag_36\n      jumpi\n      dup1\n      0x1f\n      lt\n      tag_37\n      jumpi\n      0x0100\n      dup1\n      dup4\n      sload\n      div\n      mul\n      dup4\n      mstore\n      swap2\n      0x20\n      add\n      swap2\n      jump(tag_36)\n    tag_37:\n      dup3\n      add\n      swap2\n      swap1\n      0x00\n      mstore\n      keccak256(0x00, 0x20)\n      swap1\n    tag_38:\n      dup2\n      sload\n      dup2\n      mstore\n      swap1\n      0x01\n      add\n      swap1\n      0x20\n      add\n      dup1\n      dup4\n      gt\n      tag_38\n      jumpi\n      dup3\n      swap1\n      sub\n      0x1f\n      and\n      dup3\n      add\n      swap2\n    tag_36:\n      pop\n      pop\n      pop\n      pop\n      pop\n      dup2\n      jump\t// out\n        /* \"Ep9/example.sol\":735:819  function test() public {\r... */\n    tag_19:\n        /* \"Ep9/example.sol\":774:784  Log(basic) */\n      0xcf34ef537ac33ee1ac626ca1587a0a7e8e51561e5514f8cb36afa1c5102b3bab\n        /* \"Ep9/example.sol\":778:783  basic */\n      0x00\n        /* \"Ep9/example.sol\":774:784  Log(basic) */\n      mload(0x40)\n      tag_40\n      swap2\n      swap1\n      tag_41\n      jump\t// in\n    tag_40:\n      mload(0x40)\n      dup1\n      swap2\n      sub\n      swap1\n      log1\n        /* \"Ep9/example.sol\":800:811  Log(basic0) */\n      0xcf34ef537ac33ee1ac626ca1587a0a7e8e51561e5514f8cb36afa1c5102b3bab\n        /* \"Ep9/example.sol\":804:810  basic0 */\n      0x02\n        /* \"Ep9/example.sol\":800:811  Log(basic0) */\n      mload(0x40)\n      tag_42\n      swap2\n      swap1\n      tag_41\n      jump\t// in\n    tag_42:\n      mload(0x40)\n      dup1\n      swap2\n      sub\n      swap1\n      log1\n        /* \"Ep9/example.sol\":735:819  function test() public {\r... */\n      jump\t// out\n        /* \"Ep9/example.sol\":217:301  function getTitle() public view returns(string memory) {\r... */\n    tag_21:\n        /* \"Ep9/example.sol\":257:270  string memory */\n      0x60\n        /* \"Ep9/example.sol\":289:294  title */\n      0x01\n        /* \"Ep9/example.sol\":282:294  return title */\n      dup1\n      sload\n      tag_44\n      swap1\n      tag_24\n      jump\t// in\n    tag_44:\n      dup1\n      0x1f\n      add\n      0x20\n      dup1\n      swap2\n      div\n      mul\n      0x20\n      add\n      mload(0x40)\n      swap1\n      dup2\n      add\n      0x40\n      mstore\n      dup1\n      swap3\n      swap2\n      swap1\n      dup2\n      dup2\n      mstore\n      0x20\n      add\n      dup3\n      dup1\n      sload\n      tag_45\n      swap1\n      tag_24\n      jump\t// in\n    tag_45:\n      dup1\n      iszero\n      tag_46\n      jumpi\n      dup1\n      0x1f\n      lt\n      tag_47\n      jumpi\n      0x0100\n      dup1\n      dup4\n      sload\n      div\n      mul\n      dup4\n      mstore\n      swap2\n      0x20\n      add\n      swap2\n      jump(tag_46)\n    tag_47:\n      dup3\n      add\n      swap2\n      swap1\n      0x00\n      mstore\n      keccak256(0x00, 0x20)\n      swap1\n    tag_48:\n      dup2\n      sload\n      dup2\n      mstore\n      swap1\n      0x01\n      add\n      swap1\n      0x20\n      add\n      dup1\n      dup4\n      gt\n      tag_48\n      jumpi\n      dup3\n      swap1\n      sub\n      0x1f\n      and\n      dup3\n      add\n      swap2\n    tag_46:\n      pop\n      pop\n      pop\n      pop\n      pop\n      swap1\n      pop\n        /* \"Ep9/example.sol\":217:301  function getTitle() public view returns(string memory) {\r... */\n      swap1\n      jump\t// out\n        /* \"#utility.yul\":7:371   */\n    tag_50:\n        /* \"#utility.yul\":95:98   */\n      0x00\n        /* \"#utility.yul\":123:162   */\n      tag_52\n        /* \"#utility.yul\":156:161   */\n      dup3\n        /* \"#utility.yul\":123:162   */\n      tag_53\n      jump\t// in\n    tag_52:\n        /* \"#utility.yul\":178:249   */\n      tag_54\n        /* \"#utility.yul\":242:248   */\n      dup2\n        /* \"#utility.yul\":237:240   */\n      dup6\n        /* \"#utility.yul\":178:249   */\n      tag_55\n      jump\t// in\n    tag_54:\n        /* \"#utility.yul\":171:249   */\n      swap4\n      pop\n        /* \"#utility.yul\":258:310   */\n      tag_56\n        /* \"#utility.yul\":303:309   */\n      dup2\n        /* \"#utility.yul\":298:301   */\n      dup6\n        /* \"#utility.yul\":291:295   */\n      0x20\n        /* \"#utility.yul\":284:289   */\n      dup7\n        /* \"#utility.yul\":280:296   */\n      add\n        /* \"#utility.yul\":258:310   */\n      tag_57\n      jump\t// in\n    tag_56:\n        /* \"#utility.yul\":335:364   */\n      tag_58\n        /* \"#utility.yul\":357:363   */\n      dup2\n        /* \"#utility.yul\":335:364   */\n      tag_59\n      jump\t// in\n    tag_58:\n        /* \"#utility.yul\":330:333   */\n      dup5\n        /* \"#utility.yul\":326:365   */\n      add\n        /* \"#utility.yul\":319:365   */\n      swap2\n      pop\n        /* \"#utility.yul\":99:371   */\n      pop\n        /* \"#utility.yul\":7:371   */\n      swap3\n      swap2\n      pop\n      pop\n      jump\t// out\n        /* \"#utility.yul\":401:1203   */\n    tag_60:\n        /* \"#utility.yul\":486:489   */\n      0x00\n        /* \"#utility.yul\":523:528   */\n      dup2\n        /* \"#utility.yul\":517:529   */\n      sload\n        /* \"#utility.yul\":552:588   */\n      tag_62\n        /* \"#utility.yul\":578:587   */\n      dup2\n        /* \"#utility.yul\":552:588   */\n      tag_24\n      jump\t// in\n    tag_62:\n        /* \"#utility.yul\":604:675   */\n      tag_63\n        /* \"#utility.yul\":668:674   */\n      dup2\n        /* \"#utility.yul\":663:666   */\n      dup7\n        /* \"#utility.yul\":604:675   */\n      tag_55\n      jump\t// in\n    tag_63:\n        /* \"#utility.yul\":597:675   */\n      swap5\n      pop\n        /* \"#utility.yul\":706:707   */\n      0x01\n        /* \"#utility.yul\":695:704   */\n      dup3\n        /* \"#utility.yul\":691:708   */\n      and\n        /* \"#utility.yul\":722:723   */\n      0x00\n        /* \"#utility.yul\":717:852   */\n      dup2\n      eq\n      tag_65\n      jumpi\n        /* \"#utility.yul\":866:867   */\n      0x01\n        /* \"#utility.yul\":861:1197   */\n      dup2\n      eq\n      tag_66\n      jumpi\n        /* \"#utility.yul\":684:1197   */\n      jump(tag_64)\n        /* \"#utility.yul\":717:852   */\n    tag_65:\n        /* \"#utility.yul\":801:805   */\n      0xff\n        /* \"#utility.yul\":797:806   */\n      not\n        /* \"#utility.yul\":786:795   */\n      dup4\n        /* \"#utility.yul\":782:807   */\n      and\n        /* \"#utility.yul\":777:780   */\n      dup7\n        /* \"#utility.yul\":770:808   */\n      mstore\n        /* \"#utility.yul\":837:841   */\n      0x20\n        /* \"#utility.yul\":832:835   */\n      dup7\n        /* \"#utility.yul\":828:842   */\n      add\n        /* \"#utility.yul\":821:842   */\n      swap4\n      pop\n        /* \"#utility.yul\":717:852   */\n      jump(tag_64)\n        /* \"#utility.yul\":861:1197   */\n    tag_66:\n        /* \"#utility.yul\":928:966   */\n      tag_67\n        /* \"#utility.yul\":960:965   */\n      dup6\n        /* \"#utility.yul\":928:966   */\n      tag_68\n      jump\t// in\n    tag_67:\n        /* \"#utility.yul\":988:989   */\n      0x00\n        /* \"#utility.yul\":1002:1156   */\n    tag_69:\n        /* \"#utility.yul\":1016:1022   */\n      dup4\n        /* \"#utility.yul\":1013:1014   */\n      dup2\n        /* \"#utility.yul\":1010:1023   */\n      lt\n        /* \"#utility.yul\":1002:1156   */\n      iszero\n      tag_71\n      jumpi\n        /* \"#utility.yul\":1090:1097   */\n      dup2\n        /* \"#utility.yul\":1084:1098   */\n      sload\n        /* \"#utility.yul\":1080:1081   */\n      dup2\n        /* \"#utility.yul\":1075:1078   */\n      dup10\n        /* \"#utility.yul\":1071:1082   */\n      add\n        /* \"#utility.yul\":1064:1099   */\n      mstore\n        /* \"#utility.yul\":1140:1141   */\n      0x01\n        /* \"#utility.yul\":1131:1138   */\n      dup3\n        /* \"#utility.yul\":1127:1142   */\n      add\n        /* \"#utility.yul\":1116:1142   */\n      swap2\n      pop\n        /* \"#utility.yul\":1038:1042   */\n      0x20\n        /* \"#utility.yul\":1035:1036   */\n      dup2\n        /* \"#utility.yul\":1031:1043   */\n      add\n        /* \"#utility.yul\":1026:1043   */\n      swap1\n      pop\n        /* \"#utility.yul\":1002:1156   */\n      jump(tag_69)\n    tag_71:\n        /* \"#utility.yul\":1185:1186   */\n      dup1\n        /* \"#utility.yul\":1180:1183   */\n      dup9\n        /* \"#utility.yul\":1176:1187   */\n      add\n        /* \"#utility.yul\":1169:1187   */\n      swap6\n      pop\n        /* \"#utility.yul\":868:1197   */\n      pop\n      pop\n        /* \"#utility.yul\":684:1197   */\n    tag_64:\n      pop\n        /* \"#utility.yul\":490:1203   */\n      pop\n      pop\n        /* \"#utility.yul\":401:1203   */\n      swap3\n      swap2\n      pop\n      pop\n      jump\t// out\n        /* \"#utility.yul\":1209:1522   */\n    tag_11:\n        /* \"#utility.yul\":1322:1326   */\n      0x00\n        /* \"#utility.yul\":1360:1362   */\n      0x20\n        /* \"#utility.yul\":1349:1358   */\n      dup3\n        /* \"#utility.yul\":1345:1363   */\n      add\n        /* \"#utility.yul\":1337:1363   */\n      swap1\n      pop\n        /* \"#utility.yul\":1409:1418   */\n      dup2\n        /* \"#utility.yul\":1403:1407   */\n      dup2\n        /* \"#utility.yul\":1399:1419   */\n      sub\n        /* \"#utility.yul\":1395:1396   */\n      0x00\n        /* \"#utility.yul\":1384:1393   */\n      dup4\n        /* \"#utility.yul\":1380:1397   */\n      add\n        /* \"#utility.yul\":1373:1420   */\n      mstore\n        /* \"#utility.yul\":1437:1515   */\n      tag_73\n        /* \"#utility.yul\":1510:1514   */\n      dup2\n        /* \"#utility.yul\":1501:1507   */\n      dup5\n        /* \"#utility.yul\":1437:1515   */\n      tag_50\n      jump\t// in\n    tag_73:\n        /* \"#utility.yul\":1429:1515   */\n      swap1\n      pop\n        /* \"#utility.yul\":1209:1522   */\n      swap3\n      swap2\n      pop\n      pop\n      jump\t// out\n        /* \"#utility.yul\":1528:1835   */\n    tag_41:\n        /* \"#utility.yul\":1638:1642   */\n      0x00\n        /* \"#utility.yul\":1676:1678   */\n      0x20\n        /* \"#utility.yul\":1665:1674   */\n      dup3\n        /* \"#utility.yul\":1661:1679   */\n      add\n        /* \"#utility.yul\":1653:1679   */\n      swap1\n      pop\n        /* \"#utility.yul\":1725:1734   */\n      dup2\n        /* \"#utility.yul\":1719:1723   */\n      dup2\n        /* \"#utility.yul\":1715:1735   */\n      sub\n        /* \"#utility.yul\":1711:1712   */\n      0x00\n        /* \"#utility.yul\":1700:1709   */\n      dup4\n        /* \"#utility.yul\":1696:1713   */\n      add\n        /* \"#utility.yul\":1689:1736   */\n      mstore\n        /* \"#utility.yul\":1753:1828   */\n      tag_75\n        /* \"#utility.yul\":1823:1827   */\n      dup2\n        /* \"#utility.yul\":1814:1820   */\n      dup5\n        /* \"#utility.yul\":1753:1828   */\n      tag_60\n      jump\t// in\n    tag_75:\n        /* \"#utility.yul\":1745:1828   */\n      swap1\n      pop\n        /* \"#utility.yul\":1528:1835   */\n      swap3\n      swap2\n      pop\n      pop\n      jump\t// out\n        /* \"#utility.yul\":1841:1982   */\n    tag_68:\n        /* \"#utility.yul\":1890:1894   */\n      0x00\n        /* \"#utility.yul\":1913:1916   */\n      dup2\n        /* \"#utility.yul\":1905:1916   */\n      swap1\n      pop\n        /* \"#utility.yul\":1936:1939   */\n      dup2\n        /* \"#utility.yul\":1933:1934   */\n      0x00\n        /* \"#utility.yul\":1926:1940   */\n      mstore\n        /* \"#utility.yul\":1970:1974   */\n      0x20\n        /* \"#utility.yul\":1967:1968   */\n      0x00\n        /* \"#utility.yul\":1957:1975   */\n      keccak256\n        /* \"#utility.yul\":1949:1975   */\n      swap1\n      pop\n        /* \"#utility.yul\":1841:1982   */\n      swap2\n      swap1\n      pop\n      jump\t// out\n        /* \"#utility.yul\":1988:2087   */\n    tag_53:\n        /* \"#utility.yul\":2040:2046   */\n      0x00\n        /* \"#utility.yul\":2074:2079   */\n      dup2\n        /* \"#utility.yul\":2068:2080   */\n      mload\n        /* \"#utility.yul\":2058:2080   */\n      swap1\n      pop\n        /* \"#utility.yul\":1988:2087   */\n      swap2\n      swap1\n      pop\n      jump\t// out\n        /* \"#utility.yul\":2093:2262   */\n    tag_55:\n        /* \"#utility.yul\":2177:2188   */\n      0x00\n        /* \"#utility.yul\":2211:2217   */\n      dup3\n        /* \"#utility.yul\":2206:2209   */\n      dup3\n        /* \"#utility.yul\":2199:2218   */\n      mstore\n        /* \"#utility.yul\":2251:2255   */\n      0x20\n        /* \"#utility.yul\":2246:2249   */\n      dup3\n        /* \"#utility.yul\":2242:2256   */\n      add\n        /* \"#utility.yul\":2227:2256   */\n      swap1\n      pop\n        /* \"#utility.yul\":2093:2262   */\n      swap3\n      swap2\n      pop\n      pop\n      jump\t// out\n        /* \"#utility.yul\":2268:2575   */\n    tag_57:\n        /* \"#utility.yul\":2336:2337   */\n      0x00\n        /* \"#utility.yul\":2346:2459   */\n    tag_80:\n        /* \"#utility.yul\":2360:2366   */\n      dup4\n        /* \"#utility.yul\":2357:2358   */\n      dup2\n        /* \"#utility.yul\":2354:2367   */\n      lt\n        /* \"#utility.yul\":2346:2459   */\n      iszero\n      tag_82\n      jumpi\n        /* \"#utility.yul\":2445:2446   */\n      dup1\n        /* \"#utility.yul\":2440:2443   */\n      dup3\n        /* \"#utility.yul\":2436:2447   */\n      add\n        /* \"#utility.yul\":2430:2448   */\n      mload\n        /* \"#utility.yul\":2426:2427   */\n      dup2\n        /* \"#utility.yul\":2421:2424   */\n      dup5\n        /* \"#utility.yul\":2417:2428   */\n      add\n        /* \"#utility.yul\":2410:2449   */\n      mstore\n        /* \"#utility.yul\":2382:2384   */\n      0x20\n        /* \"#utility.yul\":2379:2380   */\n      dup2\n        /* \"#utility.yul\":2375:2385   */\n      add\n        /* \"#utility.yul\":2370:2385   */\n      swap1\n      pop\n        /* \"#utility.yul\":2346:2459   */\n      jump(tag_80)\n    tag_82:\n        /* \"#utility.yul\":2477:2483   */\n      dup4\n        /* \"#utility.yul\":2474:2475   */\n      dup2\n        /* \"#utility.yul\":2471:2484   */\n      gt\n        /* \"#utility.yul\":2468:2569   */\n      iszero\n      tag_83\n      jumpi\n        /* \"#utility.yul\":2557:2558   */\n      0x00\n        /* \"#utility.yul\":2548:2554   */\n      dup5\n        /* \"#utility.yul\":2543:2546   */\n      dup5\n        /* \"#utility.yul\":2539:2555   */\n      add\n        /* \"#utility.yul\":2532:2559   */\n      mstore\n        /* \"#utility.yul\":2468:2569   */\n    tag_83:\n        /* \"#utility.yul\":2317:2575   */\n      pop\n        /* \"#utility.yul\":2268:2575   */\n      pop\n      pop\n      pop\n      jump\t// out\n        /* \"#utility.yul\":2581:2901   */\n    tag_24:\n        /* \"#utility.yul\":2625:2631   */\n      0x00\n        /* \"#utility.yul\":2662:2663   */\n      0x02\n        /* \"#utility.yul\":2656:2660   */\n      dup3\n        /* \"#utility.yul\":2652:2664   */\n      div\n        /* \"#utility.yul\":2642:2664   */\n      swap1\n      pop\n        /* \"#utility.yul\":2709:2710   */\n      0x01\n        /* \"#utility.yul\":2703:2707   */\n      dup3\n        /* \"#utility.yul\":2699:2711   */\n      and\n        /* \"#utility.yul\":2730:2748   */\n      dup1\n        /* \"#utility.yul\":2720:2801   */\n      tag_85\n      jumpi\n        /* \"#utility.yul\":2786:2790   */\n      0x7f\n        /* \"#utility.yul\":2778:2784   */\n      dup3\n        /* \"#utility.yul\":2774:2791   */\n      and\n        /* \"#utility.yul\":2764:2791   */\n      swap2\n      pop\n        /* \"#utility.yul\":2720:2801   */\n    tag_85:\n        /* \"#utility.yul\":2848:2850   */\n      0x20\n        /* \"#utility.yul\":2840:2846   */\n      dup3\n        /* \"#utility.yul\":2837:2851   */\n      lt\n        /* \"#utility.yul\":2817:2835   */\n      dup2\n        /* \"#utility.yul\":2814:2852   */\n      eq\n        /* \"#utility.yul\":2811:2895   */\n      iszero\n      tag_86\n      jumpi\n        /* \"#utility.yul\":2867:2885   */\n      tag_87\n      tag_88\n      jump\t// in\n    tag_87:\n        /* \"#utility.yul\":2811:2895   */\n    tag_86:\n        /* \"#utility.yul\":2632:2901   */\n      pop\n        /* \"#utility.yul\":2581:2901   */\n      swap2\n      swap1\n      pop\n      jump\t// out\n        /* \"#utility.yul\":2907:3087   */\n    tag_88:\n        /* \"#utility.yul\":2955:3032   */\n      0x4e487b7100000000000000000000000000000000000000000000000000000000\n        /* \"#utility.yul\":2952:2953   */\n      0x00\n        /* \"#utility.yul\":2945:3033   */\n      mstore\n        /* \"#utility.yul\":3052:3056   */\n      0x22\n        /* \"#utility.yul\":3049:3050   */\n      0x04\n        /* \"#utility.yul\":3042:3057   */\n      mstore\n        /* \"#utility.yul\":3076:3080   */\n      0x24\n        /* \"#utility.yul\":3073:3074   */\n      0x00\n        /* \"#utility.yul\":3066:3081   */\n      revert\n        /* \"#utility.yul\":3093:3195   */\n    tag_59:\n        /* \"#utility.yul\":3134:3140   */\n      0x00\n        /* \"#utility.yul\":3185:3187   */\n      0x1f\n        /* \"#utility.yul\":3181:3188   */\n      not\n        /* \"#utility.yul\":3176:3178   */\n      0x1f\n        /* \"#utility.yul\":3169:3174   */\n      dup4\n        /* \"#utility.yul\":3165:3179   */\n      add\n        /* \"#utility.yul\":3161:3189   */\n      and\n        /* \"#utility.yul\":3151:3189   */\n      swap1\n      pop\n        /* \"#utility.yul\":3093:3195   */\n      swap2\n      swap1\n      pop\n      jump\t// out\n\n    auxdata: 0xa26469706673582212205bc3f4ac0e24399b7dec1d44d1ac43bb8aeb366d7243111b06e60cf5d7d45e1c64736f6c63430008070033\n}\n",
				"bytecode": {
					"linkReferences": {},
					"object": "60806040526040518060400160405280600581526020017f62617369630000000000000000000000000000000000000000000000000000008152506000908051906020019061004f9291906100fc565b506040518060400160405280600681526020017f62617369633000000000000000000000000000000000000000000000000000008152506002908051906020019061009b9291906100fc565b503480156100a857600080fd5b506040518060400160405280600b81526020017f6920616d2042617369633000000000000000000000000000000000000000000081525080600190805190602001906100f59291906100fc565b5050610200565b8280546101089061019f565b90600052602060002090601f01602090048101928261012a5760008555610171565b82601f1061014357805160ff1916838001178555610171565b82800160010185558215610171579182015b82811115610170578251825591602001919060010190610155565b5b50905061017e9190610182565b5090565b5b8082111561019b576000816000905550600101610183565b5090565b600060028204905060018216806101b757607f821691505b602082108114156101cb576101ca6101d1565b5b50919050565b7f4e487b7100000000000000000000000000000000000000000000000000000000600052602260045260246000fd5b6105958061020f6000396000f3fe608060405234801561001057600080fd5b50600436106100575760003560e01c806315e8b3451461005c5780634a79d50c1461007a5780638fddaed014610098578063f8a8fd6d146100b6578063ff3c1a8f146100c0575b600080fd5b6100646100de565b6040516100719190610445565b60405180910390f35b61008261016c565b60405161008f9190610445565b60405180910390f35b6100a06101fa565b6040516100ad9190610445565b60405180910390f35b6100be610288565b005b6100c86102fa565b6040516100d59190610445565b60405180910390f35b600080546100eb906104ed565b80601f0160208091040260200160405190810160405280929190818152602001828054610117906104ed565b80156101645780601f1061013957610100808354040283529160200191610164565b820191906000526020600020905b81548152906001019060200180831161014757829003601f168201915b505050505081565b60018054610179906104ed565b80601f01602080910402602001604051908101604052809291908181526020018280546101a5906104ed565b80156101f25780601f106101c7576101008083540402835291602001916101f2565b820191906000526020600020905b8154815290600101906020018083116101d557829003601f168201915b505050505081565b60028054610207906104ed565b80601f0160208091040260200160405190810160405280929190818152602001828054610233906104ed565b80156102805780601f1061025557610100808354040283529160200191610280565b820191906000526020600020905b81548152906001019060200180831161026357829003601f168201915b505050505081565b7fcf34ef537ac33ee1ac626ca1587a0a7e8e51561e5514f8cb36afa1c5102b3bab60006040516102b89190610467565b60405180910390a17fcf34ef537ac33ee1ac626ca1587a0a7e8e51561e5514f8cb36afa1c5102b3bab60026040516102f09190610467565b60405180910390a1565b606060018054610309906104ed565b80601f0160208091040260200160405190810160405280929190818152602001828054610335906104ed565b80156103825780601f1061035757610100808354040283529160200191610382565b820191906000526020600020905b81548152906001019060200180831161036557829003601f168201915b5050505050905090565b60006103978261049e565b6103a181856104a9565b93506103b18185602086016104ba565b6103ba8161054e565b840191505092915050565b600081546103d2816104ed565b6103dc81866104a9565b945060018216600081146103f757600181146104095761043c565b60ff198316865260208601935061043c565b61041285610489565b60005b8381101561043457815481890152600182019150602081019050610415565b808801955050505b50505092915050565b6000602082019050818103600083015261045f818461038c565b905092915050565b6000602082019050818103600083015261048181846103c5565b905092915050565b60008190508160005260206000209050919050565b600081519050919050565b600082825260208201905092915050565b60005b838110156104d85780820151818401526020810190506104bd565b838111156104e7576000848401525b50505050565b6000600282049050600182168061050557607f821691505b602082108114156105195761051861051f565b5b50919050565b7f4e487b7100000000000000000000000000000000000000000000000000000000600052602260045260246000fd5b6000601f19601f830116905091905056fea26469706673582212205bc3f4ac0e24399b7dec1d44d1ac43bb8aeb366d7243111b06e60cf5d7d45e1c64736f6c63430008070033",
					"opcodes": "PUSH1 0x80 PUSH1 0x40 MSTORE PUSH1 0x40 MLOAD DUP1 PUSH1 0x40 ADD PUSH1 0x40 MSTORE DUP1 PUSH1 0x5 DUP2 MSTORE PUSH1 0x20 ADD PUSH32 0x6261736963000000000000000000000000000000000000000000000000000000 DUP2 MSTORE POP PUSH1 0x0 SWAP1 DUP1 MLOAD SWAP1 PUSH1 0x20 ADD SWAP1 PUSH2 0x4F SWAP3 SWAP2 SWAP1 PUSH2 0xFC JUMP JUMPDEST POP PUSH1 0x40 MLOAD DUP1 PUSH1 0x40 ADD PUSH1 0x40 MSTORE DUP1 PUSH1 0x6 DUP2 MSTORE PUSH1 0x20 ADD PUSH32 0x6261736963300000000000000000000000000000000000000000000000000000 DUP2 MSTORE POP PUSH1 0x2 SWAP1 DUP1 MLOAD SWAP1 PUSH1 0x20 ADD SWAP1 PUSH2 0x9B SWAP3 SWAP2 SWAP1 PUSH2 0xFC JUMP JUMPDEST POP CALLVALUE DUP1 ISZERO PUSH2 0xA8 JUMPI PUSH1 0x0 DUP1 REVERT JUMPDEST POP PUSH1 0x40 MLOAD DUP1 PUSH1 0x40 ADD PUSH1 0x40 MSTORE DUP1 PUSH1 0xB DUP2 MSTORE PUSH1 0x20 ADD PUSH32 0x6920616D20426173696330000000000000000000000000000000000000000000 DUP2 MSTORE POP DUP1 PUSH1 0x1 SWAP1 DUP1 MLOAD SWAP1 PUSH1 0x20 ADD SWAP1 PUSH2 0xF5 SWAP3 SWAP2 SWAP1 PUSH2 0xFC JUMP JUMPDEST POP POP PUSH2 0x200 JUMP JUMPDEST DUP3 DUP1 SLOAD PUSH2 0x108 SWAP1 PUSH2 0x19F JUMP JUMPDEST SWAP1 PUSH1 0x0 MSTORE PUSH1 0x20 PUSH1 0x0 KECCAK256 SWAP1 PUSH1 0x1F ADD PUSH1 0x20 SWAP1 DIV DUP2 ADD SWAP3 DUP3 PUSH2 0x12A JUMPI PUSH1 0x0 DUP6 SSTORE PUSH2 0x171 JUMP JUMPDEST DUP3 PUSH1 0x1F LT PUSH2 0x143 JUMPI DUP1 MLOAD PUSH1 0xFF NOT AND DUP4 DUP1 ADD OR DUP6 SSTORE PUSH2 0x171 JUMP JUMPDEST DUP3 DUP1 ADD PUSH1 0x1 ADD DUP6 SSTORE DUP3 ISZERO PUSH2 0x171 JUMPI SWAP2 DUP3 ADD JUMPDEST DUP3 DUP2 GT ISZERO PUSH2 0x170 JUMPI DUP3 MLOAD DUP3 SSTORE SWAP2 PUSH1 0x20 ADD SWAP2 SWAP1 PUSH1 0x1 ADD SWAP1 PUSH2 0x155 JUMP JUMPDEST JUMPDEST POP SWAP1 POP PUSH2 0x17E SWAP2 SWAP1 PUSH2 0x182 JUMP JUMPDEST POP SWAP1 JUMP JUMPDEST JUMPDEST DUP1 DUP3 GT ISZERO PUSH2 0x19B JUMPI PUSH1 0x0 DUP2 PUSH1 0x0 SWAP1 SSTORE POP PUSH1 0x1 ADD PUSH2 0x183 JUMP JUMPDEST POP SWAP1 JUMP JUMPDEST PUSH1 0x0 PUSH1 0x2 DUP3 DIV SWAP1 POP PUSH1 0x1 DUP3 AND DUP1 PUSH2 0x1B7 JUMPI PUSH1 0x7F DUP3 AND SWAP2 POP JUMPDEST PUSH1 0x20 DUP3 LT DUP2 EQ ISZERO PUSH2 0x1CB JUMPI PUSH2 0x1CA PUSH2 0x1D1 JUMP JUMPDEST JUMPDEST POP SWAP2 SWAP1 POP JUMP JUMPDEST PUSH32 0x4E487B7100000000000000000000000000000000000000000000000000000000 PUSH1 0x0 MSTORE PUSH1 0x22 PUSH1 0x4 MSTORE PUSH1 0x24 PUSH1 0x0 REVERT JUMPDEST PUSH2 0x595 DUP1 PUSH2 0x20F PUSH1 0x0 CODECOPY PUSH1 0x0 RETURN INVALID PUSH1 0x80 PUSH1 0x40 MSTORE CALLVALUE DUP1 ISZERO PUSH2 0x10 JUMPI PUSH1 0x0 DUP1 REVERT JUMPDEST POP PUSH1 0x4 CALLDATASIZE LT PUSH2 0x57 JUMPI PUSH1 0x0 CALLDATALOAD PUSH1 0xE0 SHR DUP1 PUSH4 0x15E8B345 EQ PUSH2 0x5C JUMPI DUP1 PUSH4 0x4A79D50C EQ PUSH2 0x7A JUMPI DUP1 PUSH4 0x8FDDAED0 EQ PUSH2 0x98 JUMPI DUP1 PUSH4 0xF8A8FD6D EQ PUSH2 0xB6 JUMPI DUP1 PUSH4 0xFF3C1A8F EQ PUSH2 0xC0 JUMPI JUMPDEST PUSH1 0x0 DUP1 REVERT JUMPDEST PUSH2 0x64 PUSH2 0xDE JUMP JUMPDEST PUSH1 0x40 MLOAD PUSH2 0x71 SWAP2 SWAP1 PUSH2 0x445 JUMP JUMPDEST PUSH1 0x40 MLOAD DUP1 SWAP2 SUB SWAP1 RETURN JUMPDEST PUSH2 0x82 PUSH2 0x16C JUMP JUMPDEST PUSH1 0x40 MLOAD PUSH2 0x8F SWAP2 SWAP1 PUSH2 0x445 JUMP JUMPDEST PUSH1 0x40 MLOAD DUP1 SWAP2 SUB SWAP1 RETURN JUMPDEST PUSH2 0xA0 PUSH2 0x1FA JUMP JUMPDEST PUSH1 0x40 MLOAD PUSH2 0xAD SWAP2 SWAP1 PUSH2 0x445 JUMP JUMPDEST PUSH1 0x40 MLOAD DUP1 SWAP2 SUB SWAP1 RETURN JUMPDEST PUSH2 0xBE PUSH2 0x288 JUMP JUMPDEST STOP JUMPDEST PUSH2 0xC8 PUSH2 0x2FA JUMP JUMPDEST PUSH1 0x40 MLOAD PUSH2 0xD5 SWAP2 SWAP1 PUSH2 0x445 JUMP JUMPDEST PUSH1 0x40 MLOAD DUP1 SWAP2 SUB SWAP1 RETURN JUMPDEST PUSH1 0x0 DUP1 SLOAD PUSH2 0xEB SWAP1 PUSH2 0x4ED JUMP JUMPDEST DUP1 PUSH1 0x1F ADD PUSH1 0x20 DUP1 SWAP2 DIV MUL PUSH1 0x20 ADD PUSH1 0x40 MLOAD SWAP1 DUP2 ADD PUSH1 0x40 MSTORE DUP1 SWAP3 SWAP2 SWAP1 DUP2 DUP2 MSTORE PUSH1 0x20 ADD DUP3 DUP1 SLOAD PUSH2 0x117 SWAP1 PUSH2 0x4ED JUMP JUMPDEST DUP1 ISZERO PUSH2 0x164 JUMPI DUP1 PUSH1 0x1F LT PUSH2 0x139 JUMPI PUSH2 0x100 DUP1 DUP4 SLOAD DIV MUL DUP4 MSTORE SWAP2 PUSH1 0x20 ADD SWAP2 PUSH2 0x164 JUMP JUMPDEST DUP3 ADD SWAP2 SWAP1 PUSH1 0x0 MSTORE PUSH1 0x20 PUSH1 0x0 KECCAK256 SWAP1 JUMPDEST DUP2 SLOAD DUP2 MSTORE SWAP1 PUSH1 0x1 ADD SWAP1 PUSH1 0x20 ADD DUP1 DUP4 GT PUSH2 0x147 JUMPI DUP3 SWAP1 SUB PUSH1 0x1F AND DUP3 ADD SWAP2 JUMPDEST POP POP POP POP POP DUP2 JUMP JUMPDEST PUSH1 0x1 DUP1 SLOAD PUSH2 0x179 SWAP1 PUSH2 0x4ED JUMP JUMPDEST DUP1 PUSH1 0x1F ADD PUSH1 0x20 DUP1 SWAP2 DIV MUL PUSH1 0x20 ADD PUSH1 0x40 MLOAD SWAP1 DUP2 ADD PUSH1 0x40 MSTORE DUP1 SWAP3 SWAP2 SWAP1 DUP2 DUP2 MSTORE PUSH1 0x20 ADD DUP3 DUP1 SLOAD PUSH2 0x1A5 SWAP1 PUSH2 0x4ED JUMP JUMPDEST DUP1 ISZERO PUSH2 0x1F2 JUMPI DUP1 PUSH1 0x1F LT PUSH2 0x1C7 JUMPI PUSH2 0x100 DUP1 DUP4 SLOAD DIV MUL DUP4 MSTORE SWAP2 PUSH1 0x20 ADD SWAP2 PUSH2 0x1F2 JUMP JUMPDEST DUP3 ADD SWAP2 SWAP1 PUSH1 0x0 MSTORE PUSH1 0x20 PUSH1 0x0 KECCAK256 SWAP1 JUMPDEST DUP2 SLOAD DUP2 MSTORE SWAP1 PUSH1 0x1 ADD SWAP1 PUSH1 0x20 ADD DUP1 DUP4 GT PUSH2 0x1D5 JUMPI DUP3 SWAP1 SUB PUSH1 0x1F AND DUP3 ADD SWAP2 JUMPDEST POP POP POP POP POP DUP2 JUMP JUMPDEST PUSH1 0x2 DUP1 SLOAD PUSH2 0x207 SWAP1 PUSH2 0x4ED JUMP JUMPDEST DUP1 PUSH1 0x1F ADD PUSH1 0x20 DUP1 SWAP2 DIV MUL PUSH1 0x20 ADD PUSH1 0x40 MLOAD SWAP1 DUP2 ADD PUSH1 0x40 MSTORE DUP1 SWAP3 SWAP2 SWAP1 DUP2 DUP2 MSTORE PUSH1 0x20 ADD DUP3 DUP1 SLOAD PUSH2 0x233 SWAP1 PUSH2 0x4ED JUMP JUMPDEST DUP1 ISZERO PUSH2 0x280 JUMPI DUP1 PUSH1 0x1F LT PUSH2 0x255 JUMPI PUSH2 0x100 DUP1 DUP4 SLOAD DIV MUL DUP4 MSTORE SWAP2 PUSH1 0x20 ADD SWAP2 PUSH2 0x280 JUMP JUMPDEST DUP3 ADD SWAP2 SWAP1 PUSH1 0x0 MSTORE PUSH1 0x20 PUSH1 0x0 KECCAK256 SWAP1 JUMPDEST DUP2 SLOAD DUP2 MSTORE SWAP1 PUSH1 0x1 ADD SWAP1 PUSH1 0x20 ADD DUP1 DUP4 GT PUSH2 0x263 JUMPI DUP3 SWAP1 SUB PUSH1 0x1F AND DUP3 ADD SWAP2 JUMPDEST POP POP POP POP POP DUP2 JUMP JUMPDEST PUSH32 0xCF34EF537AC33EE1AC626CA1587A0A7E8E51561E5514F8CB36AFA1C5102B3BAB PUSH1 0x0 PUSH1 0x40 MLOAD PUSH2 0x2B8 SWAP2 SWAP1 PUSH2 0x467 JUMP JUMPDEST PUSH1 0x40 MLOAD DUP1 SWAP2 SUB SWAP1 LOG1 PUSH32 0xCF34EF537AC33EE1AC626CA1587A0A7E8E51561E5514F8CB36AFA1C5102B3BAB PUSH1 0x2 PUSH1 0x40 MLOAD PUSH2 0x2F0 SWAP2 SWAP1 PUSH2 0x467 JUMP JUMPDEST PUSH1 0x40 MLOAD DUP1 SWAP2 SUB SWAP1 LOG1 JUMP JUMPDEST PUSH1 0x60 PUSH1 0x1 DUP1 SLOAD PUSH2 0x309 SWAP1 PUSH2 0x4ED JUMP JUMPDEST DUP1 PUSH1 0x1F ADD PUSH1 0x20 DUP1 SWAP2 DIV MUL PUSH1 0x20 ADD PUSH1 0x40 MLOAD SWAP1 DUP2 ADD PUSH1 0x40 MSTORE DUP1 SWAP3 SWAP2 SWAP1 DUP2 DUP2 MSTORE PUSH1 0x20 ADD DUP3 DUP1 SLOAD PUSH2 0x335 SWAP1 PUSH2 0x4ED JUMP JUMPDEST DUP1 ISZERO PUSH2 0x382 JUMPI DUP1 PUSH1 0x1F LT PUSH2 0x357 JUMPI PUSH2 0x100 DUP1 DUP4 SLOAD DIV MUL DUP4 MSTORE SWAP2 PUSH1 0x20 ADD SWAP2 PUSH2 0x382 JUMP JUMPDEST DUP3 ADD SWAP2 SWAP1 PUSH1 0x0 MSTORE PUSH1 0x20 PUSH1 0x0 KECCAK256 SWAP1 JUMPDEST DUP2 SLOAD DUP2 MSTORE SWAP1 PUSH1 0x1 ADD SWAP1 PUSH1 0x20 ADD DUP1 DUP4 GT PUSH2 0x365 JUMPI DUP3 SWAP1 SUB PUSH1 0x1F AND DUP3 ADD SWAP2 JUMPDEST POP POP POP POP POP SWAP1 POP SWAP1 JUMP JUMPDEST PUSH1 0x0 PUSH2 0x397 DUP3 PUSH2 0x49E JUMP JUMPDEST PUSH2 0x3A1 DUP2 DUP6 PUSH2 0x4A9 JUMP JUMPDEST SWAP4 POP PUSH2 0x3B1 DUP2 DUP6 PUSH1 0x20 DUP7 ADD PUSH2 0x4BA JUMP JUMPDEST PUSH2 0x3BA DUP2 PUSH2 0x54E JUMP JUMPDEST DUP5 ADD SWAP2 POP POP SWAP3 SWAP2 POP POP JUMP JUMPDEST PUSH1 0x0 DUP2 SLOAD PUSH2 0x3D2 DUP2 PUSH2 0x4ED JUMP JUMPDEST PUSH2 0x3DC DUP2 DUP7 PUSH2 0x4A9 JUMP JUMPDEST SWAP5 POP PUSH1 0x1 DUP3 AND PUSH1 0x0 DUP2 EQ PUSH2 0x3F7 JUMPI PUSH1 0x1 DUP2 EQ PUSH2 0x409 JUMPI PUSH2 0x43C JUMP JUMPDEST PUSH1 0xFF NOT DUP4 AND DUP7 MSTORE PUSH1 0x20 DUP7 ADD SWAP4 POP PUSH2 0x43C JUMP JUMPDEST PUSH2 0x412 DUP6 PUSH2 0x489 JUMP JUMPDEST PUSH1 0x0 JUMPDEST DUP4 DUP2 LT ISZERO PUSH2 0x434 JUMPI DUP2 SLOAD DUP2 DUP10 ADD MSTORE PUSH1 0x1 DUP3 ADD SWAP2 POP PUSH1 0x20 DUP2 ADD SWAP1 POP PUSH2 0x415 JUMP JUMPDEST DUP1 DUP9 ADD SWAP6 POP POP POP JUMPDEST POP POP POP SWAP3 SWAP2 POP POP JUMP JUMPDEST PUSH1 0x0 PUSH1 0x20 DUP3 ADD SWAP1 POP DUP2 DUP2 SUB PUSH1 0x0 DUP4 ADD MSTORE PUSH2 0x45F DUP2 DUP5 PUSH2 0x38C JUMP JUMPDEST SWAP1 POP SWAP3 SWAP2 POP POP JUMP JUMPDEST PUSH1 0x0 PUSH1 0x20 DUP3 ADD SWAP1 POP DUP2 DUP2 SUB PUSH1 0x0 DUP4 ADD MSTORE PUSH2 0x481 DUP2 DUP5 PUSH2 0x3C5 JUMP JUMPDEST SWAP1 POP SWAP3 SWAP2 POP POP JUMP JUMPDEST PUSH1 0x0 DUP2 SWAP1 POP DUP2 PUSH1 0x0 MSTORE PUSH1 0x20 PUSH1 0x0 KECCAK256 SWAP1 POP SWAP2 SWAP1 POP JUMP JUMPDEST PUSH1 0x0 DUP2 MLOAD SWAP1 POP SWAP2 SWAP1 POP JUMP JUMPDEST PUSH1 0x0 DUP3 DUP3 MSTORE PUSH1 0x20 DUP3 ADD SWAP1 POP SWAP3 SWAP2 POP POP JUMP JUMPDEST PUSH1 0x0 JUMPDEST DUP4 DUP2 LT ISZERO PUSH2 0x4D8 JUMPI DUP1 DUP3 ADD MLOAD DUP2 DUP5 ADD MSTORE PUSH1 0x20 DUP2 ADD SWAP1 POP PUSH2 0x4BD JUMP JUMPDEST DUP4 DUP2 GT ISZERO PUSH2 0x4E7 JUMPI PUSH1 0x0 DUP5 DUP5 ADD MSTORE JUMPDEST POP POP POP POP JUMP JUMPDEST PUSH1 0x0 PUSH1 0x2 DUP3 DIV SWAP1 POP PUSH1 0x1 DUP3 AND DUP1 PUSH2 0x505 JUMPI PUSH1 0x7F DUP3 AND SWAP2 POP JUMPDEST PUSH1 0x20 DUP3 LT DUP2 EQ ISZERO PUSH2 0x519 JUMPI PUSH2 0x518 PUSH2 0x51F JUMP JUMPDEST JUMPDEST POP SWAP2 SWAP1 POP JUMP JUMPDEST PUSH32 0x4E487B7100000000000000000000000000000000000000000000000000000000 PUSH1 0x0 MSTORE PUSH1 0x22 PUSH1 0x4 MSTORE PUSH1 0x24 PUSH1 0x0 REVERT JUMPDEST PUSH1 0x0 PUSH1 0x1F NOT PUSH1 0x1F DUP4 ADD AND SWAP1 POP SWAP2 SWAP1 POP JUMP INVALID LOG2 PUSH5 0x6970667358 0x22 SLT KECCAK256 JUMPDEST 0xC3 DELEGATECALL 0xAC 0xE 0x24 CODECOPY SWAP12 PUSH30 0xEC1D44D1AC43BB8AEB366D7243111B06E60CF5D7D45E1C64736F6C634300 ADDMOD SMOD STOP CALLER "
				},
				"gasEstimates": {
					"creation": {
						"codeDepositCost": "285800",
						"executionCost": "infinite",
						"totalCost": "infinite"
					},
					"external": {
						"basic()": "infinite",
						"basic0()": "infinite",
						"getTitle()": "infinite",
						"test()": "infinite",
						"title()": "infinite"
					}
				},
				"methodIdentifiers": {
					"basic()": "15e8b345",
					"basic0()": "8fddaed0",
					"getTitle()": "ff3c1a8f",
					"test()": "f8a8fd6d",
					"title()": "4a79d50c"
				}
			},
			"storageLayout": {
				"storage": [
					{
						"astId": 4,
						"contract": "Ep9/example.sol:Basic2",
						"label": "basic",
						"offset": 0,
						"slot": "0",
						"type": "t_string_storage"
					},
					{
						"astId": 6,
						"contract": "Ep9/example.sol:Basic2",
						"label": "title",
						"offset": 0,
						"slot": "1",
						"type": "t_string_storage"
					},
					{
						"astId": 31,
						"contract": "Ep9/example.sol:Basic2",
						"label": "basic0",
						"offset": 0,
						"slot": "2",
						"type": "t_string_storage"
					}
				],
				"types": {
					"t_string_storage": {
						"encoding": "bytes",
						"label": "string",
						"numberOfBytes": "32"
					}
				}
			},
			"userdoc": {
				"kind": "user",
				"methods": {},
				"version": 1
			}
		}
	}
}