{
	"Ep6/example.sol": {
		"External": {
			"abi": [
				{
					"inputs": [],
					"name": "testScope",
					"outputs": [],
					"stateMutability": "nonpayable",
					"type": "function"
				}
			],
			"devdoc": {
				"kind": "dev",
				"methods": {},
				"version": 1
			},
			"evm": {
				"assembly": "    /* \"Ep6/example.sol\":3301:3471  contract External {\r... */\n  mstore(0x40, 0x80)\n  callvalue\n  dup1\n  iszero\n  tag_1\n  jumpi\n  0x00\n  dup1\n  revert\ntag_1:\n  pop\n  dataSize(sub_0)\n  dup1\n  dataOffset(sub_0)\n  0x00\n  codecopy\n  0x00\n  return\nstop\n\nsub_0: assembly {\n        /* \"Ep6/example.sol\":3301:3471  contract External {\r... */\n      mstore(0x40, 0x80)\n      callvalue\n      dup1\n      iszero\n      tag_1\n      jumpi\n      0x00\n      dup1\n      revert\n    tag_1:\n      pop\n      jumpi(tag_2, lt(calldatasize, 0x04))\n      shr(0xe0, calldataload(0x00))\n      dup1\n      0xfcc91b35\n      eq\n      tag_3\n      jumpi\n    tag_2:\n      0x00\n      dup1\n      revert\n        /* \"Ep6/example.sol\":3326:3468  function testScope() public {\r... */\n    tag_3:\n      tag_4\n      tag_5\n      jump\t// in\n    tag_4:\n      stop\n    tag_5:\n        /* \"Ep6/example.sol\":3415:3421  Base b */\n      0x00\n        /* \"Ep6/example.sol\":3424:3434  new Base() */\n      mload(0x40)\n      tag_7\n      swap1\n      tag_8\n      jump\t// in\n    tag_7:\n      mload(0x40)\n      dup1\n      swap2\n      sub\n      swap1\n      0x00\n      create\n      dup1\n      iszero\n      dup1\n      iszero\n      tag_9\n      jumpi\n      returndatasize\n      0x00\n      dup1\n      returndatacopy\n      revert(0x00, returndatasize)\n    tag_9:\n      pop\n        /* \"Ep6/example.sol\":3415:3434  Base b = new Base() */\n      swap1\n      pop\n        /* \"Ep6/example.sol\":3445:3446  b */\n      dup1\n        /* \"Ep6/example.sol\":3445:3458  b.externalJob */\n      0xffffffffffffffffffffffffffffffffffffffff\n      and\n      0x628e6fa1\n        /* \"Ep6/example.sol\":3445:3460  b.externalJob() */\n      mload(0x40)\n      dup2\n      0xffffffff\n      and\n      0xe0\n      shl\n      dup2\n      mstore\n      0x04\n      add\n      0x00\n      mload(0x40)\n      dup1\n      dup4\n      sub\n      dup2\n      dup7\n      dup1\n      extcodesize\n      iszero\n      dup1\n      iszero\n      tag_10\n      jumpi\n      0x00\n      dup1\n      revert\n    tag_10:\n      pop\n      gas\n      staticcall\n      iszero\n      dup1\n      iszero\n      tag_12\n      jumpi\n      returndatasize\n      0x00\n      dup1\n      returndatacopy\n      revert(0x00, returndatasize)\n    tag_12:\n      pop\n      pop\n      pop\n      pop\n      mload(0x40)\n      returndatasize\n      0x00\n      dup3\n      returndatacopy\n      returndatasize\n      not(0x1f)\n      0x1f\n      dup3\n      add\n      and\n      dup3\n      add\n      dup1\n      0x40\n      mstore\n      pop\n      dup2\n      add\n      swap1\n      tag_13\n      swap2\n      swap1\n      tag_14\n      jump\t// in\n    tag_13:\n      pop\n        /* \"Ep6/example.sol\":3354:3468  {\r... */\n      pop\n        /* \"Ep6/example.sol\":3326:3468  function testScope() public {\r... */\n      jump\t// out\n    tag_8:\n      dataSize(sub_0)\n      dup1\n      dataOffset(sub_0)\n      dup4\n      codecopy\n      add\n      swap1\n      jump\t// out\n        /* \"#utility.yul\":7:428   */\n    tag_16:\n        /* \"#utility.yul\":96:101   */\n      0x00\n        /* \"#utility.yul\":121:187   */\n      tag_18\n        /* \"#utility.yul\":137:186   */\n      tag_19\n        /* \"#utility.yul\":179:185   */\n      dup5\n        /* \"#utility.yul\":137:186   */\n      tag_20\n      jump\t// in\n    tag_19:\n        /* \"#utility.yul\":121:187   */\n      tag_21\n      jump\t// in\n    tag_18:\n        /* \"#utility.yul\":112:187   */\n      swap1\n      pop\n        /* \"#utility.yul\":210:216   */\n      dup3\n        /* \"#utility.yul\":203:208   */\n      dup2\n        /* \"#utility.yul\":196:217   */\n      mstore\n        /* \"#utility.yul\":248:252   */\n      0x20\n        /* \"#utility.yul\":241:246   */\n      dup2\n        /* \"#utility.yul\":237:253   */\n      add\n        /* \"#utility.yul\":286:289   */\n      dup5\n        /* \"#utility.yul\":277:283   */\n      dup5\n        /* \"#utility.yul\":272:275   */\n      dup5\n        /* \"#utility.yul\":268:284   */\n      add\n        /* \"#utility.yul\":265:290   */\n      gt\n        /* \"#utility.yul\":262:374   */\n      iszero\n      tag_22\n      jumpi\n        /* \"#utility.yul\":293:372   */\n      tag_23\n      tag_24\n      jump\t// in\n    tag_23:\n        /* \"#utility.yul\":262:374   */\n    tag_22:\n        /* \"#utility.yul\":383:422   */\n      tag_25\n        /* \"#utility.yul\":415:421   */\n      dup5\n        /* \"#utility.yul\":410:413   */\n      dup3\n        /* \"#utility.yul\":405:408   */\n      dup6\n        /* \"#utility.yul\":383:422   */\n      tag_26\n      jump\t// in\n    tag_25:\n        /* \"#utility.yul\":102:428   */\n      pop\n        /* \"#utility.yul\":7:428   */\n      swap4\n      swap3\n      pop\n      pop\n      pop\n      jump\t// out\n        /* \"#utility.yul\":448:803   */\n    tag_27:\n        /* \"#utility.yul\":515:520   */\n      0x00\n        /* \"#utility.yul\":564:567   */\n      dup3\n        /* \"#utility.yul\":557:561   */\n      0x1f\n        /* \"#utility.yul\":549:555   */\n      dup4\n        /* \"#utility.yul\":545:562   */\n      add\n        /* \"#utility.yul\":541:568   */\n      slt\n        /* \"#utility.yul\":531:653   */\n      tag_29\n      jumpi\n        /* \"#utility.yul\":572:651   */\n      tag_30\n      tag_31\n      jump\t// in\n    tag_30:\n        /* \"#utility.yul\":531:653   */\n    tag_29:\n        /* \"#utility.yul\":682:688   */\n      dup2\n        /* \"#utility.yul\":676:689   */\n      mload\n        /* \"#utility.yul\":707:797   */\n      tag_32\n        /* \"#utility.yul\":793:796   */\n      dup5\n        /* \"#utility.yul\":785:791   */\n      dup3\n        /* \"#utility.yul\":778:782   */\n      0x20\n        /* \"#utility.yul\":770:776   */\n      dup7\n        /* \"#utility.yul\":766:783   */\n      add\n        /* \"#utility.yul\":707:797   */\n      tag_16\n      jump\t// in\n    tag_32:\n        /* \"#utility.yul\":698:797   */\n      swap2\n      pop\n        /* \"#utility.yul\":521:803   */\n      pop\n        /* \"#utility.yul\":448:803   */\n      swap3\n      swap2\n      pop\n      pop\n      jump\t// out\n        /* \"#utility.yul\":809:1333   */\n    tag_14:\n        /* \"#utility.yul\":889:895   */\n      0x00\n        /* \"#utility.yul\":938:940   */\n      0x20\n        /* \"#utility.yul\":926:935   */\n      dup3\n        /* \"#utility.yul\":917:924   */\n      dup5\n        /* \"#utility.yul\":913:936   */\n      sub\n        /* \"#utility.yul\":909:941   */\n      slt\n        /* \"#utility.yul\":906:1025   */\n      iszero\n      tag_34\n      jumpi\n        /* \"#utility.yul\":944:1023   */\n      tag_35\n      tag_36\n      jump\t// in\n    tag_35:\n        /* \"#utility.yul\":906:1025   */\n    tag_34:\n        /* \"#utility.yul\":1085:1086   */\n      0x00\n        /* \"#utility.yul\":1074:1083   */\n      dup3\n        /* \"#utility.yul\":1070:1087   */\n      add\n        /* \"#utility.yul\":1064:1088   */\n      mload\n        /* \"#utility.yul\":1115:1133   */\n      0xffffffffffffffff\n        /* \"#utility.yul\":1107:1113   */\n      dup2\n        /* \"#utility.yul\":1104:1134   */\n      gt\n        /* \"#utility.yul\":1101:1218   */\n      iszero\n      tag_37\n      jumpi\n        /* \"#utility.yul\":1137:1216   */\n      tag_38\n      tag_39\n      jump\t// in\n    tag_38:\n        /* \"#utility.yul\":1101:1218   */\n    tag_37:\n        /* \"#utility.yul\":1242:1316   */\n      tag_40\n        /* \"#utility.yul\":1308:1315   */\n      dup5\n        /* \"#utility.yul\":1299:1305   */\n      dup3\n        /* \"#utility.yul\":1288:1297   */\n      dup6\n        /* \"#utility.yul\":1284:1306   */\n      add\n        /* \"#utility.yul\":1242:1316   */\n      tag_27\n      jump\t// in\n    tag_40:\n        /* \"#utility.yul\":1232:1316   */\n      swap2\n      pop\n        /* \"#utility.yul\":1035:1326   */\n      pop\n        /* \"#utility.yul\":809:1333   */\n      swap3\n      swap2\n      pop\n      pop\n      jump\t// out\n        /* \"#utility.yul\":1339:1468   */\n    tag_21:\n        /* \"#utility.yul\":1373:1379   */\n      0x00\n        /* \"#utility.yul\":1400:1420   */\n      tag_42\n      tag_43\n      jump\t// in\n    tag_42:\n        /* \"#utility.yul\":1390:1420   */\n      swap1\n      pop\n        /* \"#utility.yul\":1429:1462   */\n      tag_44\n        /* \"#utility.yul\":1457:1461   */\n      dup3\n        /* \"#utility.yul\":1449:1455   */\n      dup3\n        /* \"#utility.yul\":1429:1462   */\n      tag_45\n      jump\t// in\n    tag_44:\n        /* \"#utility.yul\":1339:1468   */\n      swap2\n      swap1\n      pop\n      jump\t// out\n        /* \"#utility.yul\":1474:1549   */\n    tag_43:\n        /* \"#utility.yul\":1507:1513   */\n      0x00\n        /* \"#utility.yul\":1540:1542   */\n      0x40\n        /* \"#utility.yul\":1534:1543   */\n      mload\n        /* \"#utility.yul\":1524:1543   */\n      swap1\n      pop\n        /* \"#utility.yul\":1474:1549   */\n      swap1\n      jump\t// out\n        /* \"#utility.yul\":1555:1863   */\n    tag_20:\n        /* \"#utility.yul\":1617:1621   */\n      0x00\n        /* \"#utility.yul\":1707:1725   */\n      0xffffffffffffffff\n        /* \"#utility.yul\":1699:1705   */\n      dup3\n        /* \"#utility.yul\":1696:1726   */\n      gt\n        /* \"#utility.yul\":1693:1749   */\n      iszero\n      tag_48\n      jumpi\n        /* \"#utility.yul\":1729:1747   */\n      tag_49\n      tag_50\n      jump\t// in\n    tag_49:\n        /* \"#utility.yul\":1693:1749   */\n    tag_48:\n        /* \"#utility.yul\":1767:1796   */\n      tag_51\n        /* \"#utility.yul\":1789:1795   */\n      dup3\n        /* \"#utility.yul\":1767:1796   */\n      tag_52\n      jump\t// in\n    tag_51:\n        /* \"#utility.yul\":1759:1796   */\n      swap1\n      pop\n        /* \"#utility.yul\":1851:1855   */\n      0x20\n        /* \"#utility.yul\":1845:1849   */\n      dup2\n        /* \"#utility.yul\":1841:1856   */\n      add\n        /* \"#utility.yul\":1833:1856   */\n      swap1\n      pop\n        /* \"#utility.yul\":1555:1863   */\n      swap2\n      swap1\n      pop\n      jump\t// out\n        /* \"#utility.yul\":1869:2176   */\n    tag_26:\n        /* \"#utility.yul\":1937:1938   */\n      0x00\n        /* \"#utility.yul\":1947:2060   */\n    tag_54:\n        /* \"#utility.yul\":1961:1967   */\n      dup4\n        /* \"#utility.yul\":1958:1959   */\n      dup2\n        /* \"#utility.yul\":1955:1968   */\n      lt\n        /* \"#utility.yul\":1947:2060   */\n      iszero\n      tag_56\n      jumpi\n        /* \"#utility.yul\":2046:2047   */\n      dup1\n        /* \"#utility.yul\":2041:2044   */\n      dup3\n        /* \"#utility.yul\":2037:2048   */\n      add\n        /* \"#utility.yul\":2031:2049   */\n      mload\n        /* \"#utility.yul\":2027:2028   */\n      dup2\n        /* \"#utility.yul\":2022:2025   */\n      dup5\n        /* \"#utility.yul\":2018:2029   */\n      add\n        /* \"#utility.yul\":2011:2050   */\n      mstore\n        /* \"#utility.yul\":1983:1985   */\n      0x20\n        /* \"#utility.yul\":1980:1981   */\n      dup2\n        /* \"#utility.yul\":1976:1986   */\n      add\n        /* \"#utility.yul\":1971:1986   */\n      swap1\n      pop\n        /* \"#utility.yul\":1947:2060   */\n      jump(tag_54)\n    tag_56:\n        /* \"#utility.yul\":2078:2084   */\n      dup4\n        /* \"#utility.yul\":2075:2076   */\n      dup2\n        /* \"#utility.yul\":2072:2085   */\n      gt\n        /* \"#utility.yul\":2069:2170   */\n      iszero\n      tag_57\n      jumpi\n        /* \"#utility.yul\":2158:2159   */\n      0x00\n        /* \"#utility.yul\":2149:2155   */\n      dup5\n        /* \"#utility.yul\":2144:2147   */\n      dup5\n        /* \"#utility.yul\":2140:2156   */\n      add\n        /* \"#utility.yul\":2133:2160   */\n      mstore\n        /* \"#utility.yul\":2069:2170   */\n    tag_57:\n        /* \"#utility.yul\":1918:2176   */\n      pop\n        /* \"#utility.yul\":1869:2176   */\n      pop\n      pop\n      pop\n      jump\t// out\n        /* \"#utility.yul\":2182:2463   */\n    tag_45:\n        /* \"#utility.yul\":2265:2292   */\n      tag_59\n        /* \"#utility.yul\":2287:2291   */\n      dup3\n        /* \"#utility.yul\":2265:2292   */\n      tag_52\n      jump\t// in\n    tag_59:\n        /* \"#utility.yul\":2257:2263   */\n      dup2\n        /* \"#utility.yul\":2253:2293   */\n      add\n        /* \"#utility.yul\":2395:2401   */\n      dup2\n        /* \"#utility.yul\":2383:2393   */\n      dup2\n        /* \"#utility.yul\":2380:2402   */\n      lt\n        /* \"#utility.yul\":2359:2377   */\n      0xffffffffffffffff\n        /* \"#utility.yul\":2347:2357   */\n      dup3\n        /* \"#utility.yul\":2344:2378   */\n      gt\n        /* \"#utility.yul\":2341:2403   */\n      or\n        /* \"#utility.yul\":2338:2426   */\n      iszero\n      tag_60\n      jumpi\n        /* \"#utility.yul\":2406:2424   */\n      tag_61\n      tag_50\n      jump\t// in\n    tag_61:\n        /* \"#utility.yul\":2338:2426   */\n    tag_60:\n        /* \"#utility.yul\":2446:2456   */\n      dup1\n        /* \"#utility.yul\":2442:2444   */\n      0x40\n        /* \"#utility.yul\":2435:2457   */\n      mstore\n        /* \"#utility.yul\":2225:2463   */\n      pop\n        /* \"#utility.yul\":2182:2463   */\n      pop\n      pop\n      jump\t// out\n        /* \"#utility.yul\":2469:2649   */\n    tag_50:\n        /* \"#utility.yul\":2517:2594   */\n      0x4e487b7100000000000000000000000000000000000000000000000000000000\n        /* \"#utility.yul\":2514:2515   */\n      0x00\n        /* \"#utility.yul\":2507:2595   */\n      mstore\n        /* \"#utility.yul\":2614:2618   */\n      0x41\n        /* \"#utility.yul\":2611:2612   */\n      0x04\n        /* \"#utility.yul\":2604:2619   */\n      mstore\n        /* \"#utility.yul\":2638:2642   */\n      0x24\n        /* \"#utility.yul\":2635:2636   */\n      0x00\n        /* \"#utility.yul\":2628:2643   */\n      revert\n        /* \"#utility.yul\":2655:2772   */\n    tag_31:\n        /* \"#utility.yul\":2764:2765   */\n      0x00\n        /* \"#utility.yul\":2761:2762   */\n      dup1\n        /* \"#utility.yul\":2754:2766   */\n      revert\n        /* \"#utility.yul\":2778:2895   */\n    tag_24:\n        /* \"#utility.yul\":2887:2888   */\n      0x00\n        /* \"#utility.yul\":2884:2885   */\n      dup1\n        /* \"#utility.yul\":2877:2889   */\n      revert\n        /* \"#utility.yul\":2901:3018   */\n    tag_39:\n        /* \"#utility.yul\":3010:3011   */\n      0x00\n        /* \"#utility.yul\":3007:3008   */\n      dup1\n        /* \"#utility.yul\":3000:3012   */\n      revert\n        /* \"#utility.yul\":3024:3141   */\n    tag_36:\n        /* \"#utility.yul\":3133:3134   */\n      0x00\n        /* \"#utility.yul\":3130:3131   */\n      dup1\n        /* \"#utility.yul\":3123:3135   */\n      revert\n        /* \"#utility.yul\":3147:3249   */\n    tag_52:\n        /* \"#utility.yul\":3188:3194   */\n      0x00\n        /* \"#utility.yul\":3239:3241   */\n      0x1f\n        /* \"#utility.yul\":3235:3242   */\n      not\n        /* \"#utility.yul\":3230:3232   */\n      0x1f\n        /* \"#utility.yul\":3223:3228   */\n      dup4\n        /* \"#utility.yul\":3219:3233   */\n      add\n        /* \"#utility.yul\":3215:3243   */\n      and\n        /* \"#utility.yul\":3205:3243   */\n      swap1\n      pop\n        /* \"#utility.yul\":3147:3249   */\n      swap2\n      swap1\n      pop\n      jump\t// out\n    stop\n\n    sub_0: assembly {\n            /* \"Ep6/example.sol\":62:2178  contract Base {\r... */\n          mstore(0x40, 0x80)\n            /* \"Ep6/example.sol\":156:209  string private privateMsg = \"private state variables\" */\n          mload(0x40)\n          dup1\n          0x40\n          add\n          0x40\n          mstore\n          dup1\n          0x17\n          dup2\n          mstore\n          0x20\n          add\n          0x70726976617465207374617465207661726961626c6573000000000000000000\n          dup2\n          mstore\n          pop\n          0x00\n          swap1\n          dup1\n          mload\n          swap1\n          0x20\n          add\n          swap1\n          tag_1\n          swap3\n          swap2\n          swap1\n          tag_2\n          jump\t// in\n        tag_1:\n          pop\n            /* \"Ep6/example.sol\":323:379  string internal internalMsg = \"internal state variables\" */\n          mload(0x40)\n          dup1\n          0x40\n          add\n          0x40\n          mstore\n          dup1\n          0x18\n          dup2\n          mstore\n          0x20\n          add\n          0x696e7465726e616c207374617465207661726961626c65730000000000000000\n          dup2\n          mstore\n          pop\n          0x01\n          swap1\n          dup1\n          mload\n          swap1\n          0x20\n          add\n          swap1\n          tag_3\n          swap3\n          swap2\n          swap1\n          tag_2\n          jump\t// in\n        tag_3:\n          pop\n            /* \"Ep6/example.sol\":525:575  string public publicMsg = \"public state variables\" */\n          mload(0x40)\n          dup1\n          0x40\n          add\n          0x40\n          mstore\n          dup1\n          0x16\n          dup2\n          mstore\n          0x20\n          add\n          0x7075626c6963207374617465207661726961626c657300000000000000000000\n          dup2\n          mstore\n          pop\n          0x02\n          swap1\n          dup1\n          mload\n          swap1\n          0x20\n          add\n          swap1\n          tag_4\n          swap3\n          swap2\n          swap1\n          tag_2\n          jump\t// in\n        tag_4:\n          pop\n            /* \"Ep6/example.sol\":62:2178  contract Base {\r... */\n          callvalue\n          dup1\n          iszero\n          tag_5\n          jumpi\n          0x00\n          dup1\n          revert\n        tag_5:\n          pop\n          jump(tag_6)\n        tag_2:\n          dup3\n          dup1\n          sload\n          tag_7\n          swap1\n          tag_8\n          jump\t// in\n        tag_7:\n          swap1\n          0x00\n          mstore\n          keccak256(0x00, 0x20)\n          swap1\n          0x1f\n          add\n          0x20\n          swap1\n          div\n          dup2\n          add\n          swap3\n          dup3\n          tag_10\n          jumpi\n          0x00\n          dup6\n          sstore\n          jump(tag_9)\n        tag_10:\n          dup3\n          0x1f\n          lt\n          tag_11\n          jumpi\n          dup1\n          mload\n          not(0xff)\n          and\n          dup4\n          dup1\n          add\n          or\n          dup6\n          sstore\n          jump(tag_9)\n        tag_11:\n          dup3\n          dup1\n          add\n          0x01\n          add\n          dup6\n          sstore\n          dup3\n          iszero\n          tag_9\n          jumpi\n          swap2\n          dup3\n          add\n        tag_12:\n          dup3\n          dup2\n          gt\n          iszero\n          tag_13\n          jumpi\n          dup3\n          mload\n          dup3\n          sstore\n          swap2\n          0x20\n          add\n          swap2\n          swap1\n          0x01\n          add\n          swap1\n          jump(tag_12)\n        tag_13:\n        tag_9:\n          pop\n          swap1\n          pop\n          tag_14\n          swap2\n          swap1\n          tag_15\n          jump\t// in\n        tag_14:\n          pop\n          swap1\n          jump\t// out\n        tag_15:\n        tag_16:\n          dup1\n          dup3\n          gt\n          iszero\n          tag_17\n          jumpi\n          0x00\n          dup2\n          0x00\n          swap1\n          sstore\n          pop\n          0x01\n          add\n          jump(tag_16)\n        tag_17:\n          pop\n          swap1\n          jump\t// out\n            /* \"#utility.yul\":7:327   */\n        tag_8:\n            /* \"#utility.yul\":51:57   */\n          0x00\n            /* \"#utility.yul\":88:89   */\n          0x02\n            /* \"#utility.yul\":82:86   */\n          dup3\n            /* \"#utility.yul\":78:90   */\n          div\n            /* \"#utility.yul\":68:90   */\n          swap1\n          pop\n            /* \"#utility.yul\":135:136   */\n          0x01\n            /* \"#utility.yul\":129:133   */\n          dup3\n            /* \"#utility.yul\":125:137   */\n          and\n            /* \"#utility.yul\":156:174   */\n          dup1\n            /* \"#utility.yul\":146:227   */\n          tag_20\n          jumpi\n            /* \"#utility.yul\":212:216   */\n          0x7f\n            /* \"#utility.yul\":204:210   */\n          dup3\n            /* \"#utility.yul\":200:217   */\n          and\n            /* \"#utility.yul\":190:217   */\n          swap2\n          pop\n            /* \"#utility.yul\":146:227   */\n        tag_20:\n            /* \"#utility.yul\":274:276   */\n          0x20\n            /* \"#utility.yul\":266:272   */\n          dup3\n            /* \"#utility.yul\":263:277   */\n          lt\n            /* \"#utility.yul\":243:261   */\n          dup2\n            /* \"#utility.yul\":240:278   */\n          eq\n            /* \"#utility.yul\":237:321   */\n          iszero\n          tag_21\n          jumpi\n            /* \"#utility.yul\":293:311   */\n          tag_22\n          tag_23\n          jump\t// in\n        tag_22:\n            /* \"#utility.yul\":237:321   */\n        tag_21:\n            /* \"#utility.yul\":58:327   */\n          pop\n            /* \"#utility.yul\":7:327   */\n          swap2\n          swap1\n          pop\n          jump\t// out\n            /* \"#utility.yul\":333:513   */\n        tag_23:\n            /* \"#utility.yul\":381:458   */\n          0x4e487b7100000000000000000000000000000000000000000000000000000000\n            /* \"#utility.yul\":378:379   */\n          0x00\n            /* \"#utility.yul\":371:459   */\n          mstore\n            /* \"#utility.yul\":478:482   */\n          0x22\n            /* \"#utility.yul\":475:476   */\n          0x04\n            /* \"#utility.yul\":468:483   */\n          mstore\n            /* \"#utility.yul\":502:506   */\n          0x24\n            /* \"#utility.yul\":499:500   */\n          0x00\n            /* \"#utility.yul\":492:507   */\n          revert\n            /* \"Ep6/example.sol\":62:2178  contract Base {\r... */\n        tag_6:\n          dataSize(sub_0)\n          dup1\n          dataOffset(sub_0)\n          0x00\n          codecopy\n          0x00\n          return\n        stop\n\n        sub_0: assembly {\n                /* \"Ep6/example.sol\":62:2178  contract Base {\r... */\n              mstore(0x40, 0x80)\n              callvalue\n              dup1\n              iszero\n              tag_1\n              jumpi\n              0x00\n              dup1\n              revert\n            tag_1:\n              pop\n              jumpi(tag_2, lt(calldatasize, 0x04))\n              shr(0xe0, calldataload(0x00))\n              dup1\n              0x628e6fa1\n              eq\n              tag_3\n              jumpi\n              dup1\n              0xa23a028b\n              eq\n              tag_4\n              jumpi\n              dup1\n              0xc6c41055\n              eq\n              tag_5\n              jumpi\n              dup1\n              0xce283084\n              eq\n              tag_6\n              jumpi\n            tag_2:\n              0x00\n              dup1\n              revert\n                /* \"Ep6/example.sol\":1258:1366  function externalJob() external pure returns (string memory) {\r... */\n            tag_3:\n              tag_7\n              tag_8\n              jump\t// in\n            tag_7:\n              mload(0x40)\n              tag_9\n              swap2\n              swap1\n              tag_10\n              jump\t// in\n            tag_9:\n              mload(0x40)\n              dup1\n              swap2\n              sub\n              swap1\n              return\n                /* \"Ep6/example.sol\":1103:1205  function publicJob() public pure returns (string memory) {\r... */\n            tag_4:\n              tag_11\n              tag_12\n              jump\t// in\n            tag_11:\n              mload(0x40)\n              tag_13\n              swap2\n              swap1\n              tag_10\n              jump\t// in\n            tag_13:\n              mload(0x40)\n              dup1\n              swap2\n              sub\n              swap1\n              return\n                /* \"Ep6/example.sol\":525:575  string public publicMsg = \"public state variables\" */\n            tag_5:\n              tag_14\n              tag_15\n              jump\t// in\n            tag_14:\n              mload(0x40)\n              tag_16\n              swap2\n              swap1\n              tag_10\n              jump\t// in\n            tag_16:\n              mload(0x40)\n              dup1\n              swap2\n              sub\n              swap1\n              return\n                /* \"Ep6/example.sol\":1376:2173  function testScopeOfBase() public view {\r... */\n            tag_6:\n              tag_17\n              tag_18\n              jump\t// in\n            tag_17:\n              stop\n                /* \"Ep6/example.sol\":1258:1366  function externalJob() external pure returns (string memory) {\r... */\n            tag_8:\n                /* \"Ep6/example.sol\":1304:1317  string memory */\n              0x60\n                /* \"Ep6/example.sol\":1330:1358  return \"external job called\" */\n              mload(0x40)\n              dup1\n              0x40\n              add\n              0x40\n              mstore\n              dup1\n              0x13\n              dup2\n              mstore\n              0x20\n              add\n              0x65787465726e616c206a6f622063616c6c656400000000000000000000000000\n              dup2\n              mstore\n              pop\n              swap1\n              pop\n                /* \"Ep6/example.sol\":1258:1366  function externalJob() external pure returns (string memory) {\r... */\n              swap1\n              jump\t// out\n                /* \"Ep6/example.sol\":1103:1205  function publicJob() public pure returns (string memory) {\r... */\n            tag_12:\n                /* \"Ep6/example.sol\":1145:1158  string memory */\n              0x60\n                /* \"Ep6/example.sol\":1171:1197  return \"public job called\" */\n              mload(0x40)\n              dup1\n              0x40\n              add\n              0x40\n              mstore\n              dup1\n              0x11\n              dup2\n              mstore\n              0x20\n              add\n              0x7075626c6963206a6f622063616c6c6564000000000000000000000000000000\n              dup2\n              mstore\n              pop\n              swap1\n              pop\n                /* \"Ep6/example.sol\":1103:1205  function publicJob() public pure returns (string memory) {\r... */\n              swap1\n              jump\t// out\n                /* \"Ep6/example.sol\":525:575  string public publicMsg = \"public state variables\" */\n            tag_15:\n              0x02\n              dup1\n              sload\n              tag_21\n              swap1\n              tag_22\n              jump\t// in\n            tag_21:\n              dup1\n              0x1f\n              add\n              0x20\n              dup1\n              swap2\n              div\n              mul\n              0x20\n              add\n              mload(0x40)\n              swap1\n              dup2\n              add\n              0x40\n              mstore\n              dup1\n              swap3\n              swap2\n              swap1\n              dup2\n              dup2\n              mstore\n              0x20\n              add\n              dup3\n              dup1\n              sload\n              tag_23\n              swap1\n              tag_22\n              jump\t// in\n            tag_23:\n              dup1\n              iszero\n              tag_24\n              jumpi\n              dup1\n              0x1f\n              lt\n              tag_25\n              jumpi\n              0x0100\n              dup1\n              dup4\n              sload\n              div\n              mul\n              dup4\n              mstore\n              swap2\n              0x20\n              add\n              swap2\n              jump(tag_24)\n            tag_25:\n              dup3\n              add\n              swap2\n              swap1\n              0x00\n              mstore\n              keccak256(0x00, 0x20)\n              swap1\n            tag_26:\n              dup2\n              sload\n              dup2\n              mstore\n              swap1\n              0x01\n              add\n              swap1\n              0x20\n              add\n              dup1\n              dup4\n              gt\n              tag_26\n              jumpi\n              dup3\n              swap1\n              sub\n              0x1f\n              and\n              dup3\n              add\n              swap2\n            tag_24:\n              pop\n              pop\n              pop\n              pop\n              pop\n              dup2\n              jump\t// out\n                /* \"Ep6/example.sol\":1376:2173  function testScopeOfBase() public view {\r... */\n            tag_18:\n                /* \"Ep6/example.sol\":1460:1472  privateJob() */\n              tag_28\n                /* \"Ep6/example.sol\":1460:1470  privateJob */\n              tag_29\n                /* \"Ep6/example.sol\":1460:1472  privateJob() */\n              jump\t// in\n            tag_28:\n              pop\n                /* \"Ep6/example.sol\":1519:1532  internalJob() */\n              tag_30\n                /* \"Ep6/example.sol\":1519:1530  internalJob */\n              tag_31\n                /* \"Ep6/example.sol\":1519:1532  internalJob() */\n              jump\t// in\n            tag_30:\n              pop\n                /* \"Ep6/example.sol\":1579:1590  publicJob() */\n              tag_32\n                /* \"Ep6/example.sol\":1579:1588  publicJob */\n              tag_12\n                /* \"Ep6/example.sol\":1579:1590  publicJob() */\n              jump\t// in\n            tag_32:\n              pop\n                /* \"Ep6/example.sol\":1943:1944  0 */\n              0x00\n                /* \"Ep6/example.sol\":1922:1932  privateMsg */\n              dup1\n                /* \"Ep6/example.sol\":1916:1940  bytes(privateMsg).length */\n              dup1\n              sload\n              tag_33\n              swap1\n              tag_22\n              jump\t// in\n            tag_33:\n              swap1\n              pop\n                /* \"Ep6/example.sol\":1916:1944  bytes(privateMsg).length > 0 */\n              gt\n                /* \"Ep6/example.sol\":1908:1985  require(bytes(privateMsg).length > 0, \"cannot access private state variable\") */\n              tag_34\n              jumpi\n              mload(0x40)\n              0x08c379a000000000000000000000000000000000000000000000000000000000\n              dup2\n              mstore\n              0x04\n              add\n              tag_35\n              swap1\n              tag_36\n              jump\t// in\n            tag_35:\n              mload(0x40)\n              dup1\n              swap2\n              sub\n              swap1\n              revert\n            tag_34:\n                /* \"Ep6/example.sol\":2034:2035  0 */\n              0x00\n                /* \"Ep6/example.sol\":2012:2023  internalMsg */\n              0x01\n                /* \"Ep6/example.sol\":2006:2031  bytes(internalMsg).length */\n              dup1\n              sload\n              tag_37\n              swap1\n              tag_22\n              jump\t// in\n            tag_37:\n              swap1\n              pop\n                /* \"Ep6/example.sol\":2006:2035  bytes(internalMsg).length > 0 */\n              gt\n                /* \"Ep6/example.sol\":1998:2077  require(bytes(internalMsg).length > 0, \"cannot access internal state variable\") */\n              tag_38\n              jumpi\n              mload(0x40)\n              0x08c379a000000000000000000000000000000000000000000000000000000000\n              dup2\n              mstore\n              0x04\n              add\n              tag_39\n              swap1\n              tag_40\n              jump\t// in\n            tag_39:\n              mload(0x40)\n              dup1\n              swap2\n              sub\n              swap1\n              revert\n            tag_38:\n                /* \"Ep6/example.sol\":2124:2125  0 */\n              0x00\n                /* \"Ep6/example.sol\":2104:2113  publicMsg */\n              0x02\n                /* \"Ep6/example.sol\":2098:2121  bytes(publicMsg).length */\n              dup1\n              sload\n              tag_41\n              swap1\n              tag_22\n              jump\t// in\n            tag_41:\n              swap1\n              pop\n                /* \"Ep6/example.sol\":2098:2125  bytes(publicMsg).length > 0 */\n              gt\n                /* \"Ep6/example.sol\":2090:2165  require(bytes(publicMsg).length > 0, \"cannot access public state variable\") */\n              tag_42\n              jumpi\n              mload(0x40)\n              0x08c379a000000000000000000000000000000000000000000000000000000000\n              dup2\n              mstore\n              0x04\n              add\n              tag_43\n              swap1\n              tag_44\n              jump\t// in\n            tag_43:\n              mload(0x40)\n              dup1\n              swap2\n              sub\n              swap1\n              revert\n            tag_42:\n                /* \"Ep6/example.sol\":1376:2173  function testScopeOfBase() public view {\r... */\n              jump\t// out\n                /* \"Ep6/example.sol\":633:737  function privateJob() private pure returns(string memory) {\r... */\n            tag_29:\n                /* \"Ep6/example.sol\":676:689  string memory */\n              0x60\n                /* \"Ep6/example.sol\":702:729  return \"private job called\" */\n              mload(0x40)\n              dup1\n              0x40\n              add\n              0x40\n              mstore\n              dup1\n              0x12\n              dup2\n              mstore\n              0x20\n              add\n              0x70726976617465206a6f622063616c6c65640000000000000000000000000000\n              dup2\n              mstore\n              pop\n              swap1\n              pop\n                /* \"Ep6/example.sol\":633:737  function privateJob() private pure returns(string memory) {\r... */\n              swap1\n              jump\t// out\n                /* \"Ep6/example.sol\":850:958  function internalJob() internal pure returns (string memory) {\r... */\n            tag_31:\n                /* \"Ep6/example.sol\":896:909  string memory */\n              0x60\n                /* \"Ep6/example.sol\":922:950  return \"internal job called\" */\n              mload(0x40)\n              dup1\n              0x40\n              add\n              0x40\n              mstore\n              dup1\n              0x13\n              dup2\n              mstore\n              0x20\n              add\n              0x696e7465726e616c206a6f622063616c6c656400000000000000000000000000\n              dup2\n              mstore\n              pop\n              swap1\n              pop\n                /* \"Ep6/example.sol\":850:958  function internalJob() internal pure returns (string memory) {\r... */\n              swap1\n              jump\t// out\n                /* \"#utility.yul\":7:371   */\n            tag_48:\n                /* \"#utility.yul\":95:98   */\n              0x00\n                /* \"#utility.yul\":123:162   */\n              tag_50\n                /* \"#utility.yul\":156:161   */\n              dup3\n                /* \"#utility.yul\":123:162   */\n              tag_51\n              jump\t// in\n            tag_50:\n                /* \"#utility.yul\":178:249   */\n              tag_52\n                /* \"#utility.yul\":242:248   */\n              dup2\n                /* \"#utility.yul\":237:240   */\n              dup6\n                /* \"#utility.yul\":178:249   */\n              tag_53\n              jump\t// in\n            tag_52:\n                /* \"#utility.yul\":171:249   */\n              swap4\n              pop\n                /* \"#utility.yul\":258:310   */\n              tag_54\n                /* \"#utility.yul\":303:309   */\n              dup2\n                /* \"#utility.yul\":298:301   */\n              dup6\n                /* \"#utility.yul\":291:295   */\n              0x20\n                /* \"#utility.yul\":284:289   */\n              dup7\n                /* \"#utility.yul\":280:296   */\n              add\n                /* \"#utility.yul\":258:310   */\n              tag_55\n              jump\t// in\n            tag_54:\n                /* \"#utility.yul\":335:364   */\n              tag_56\n                /* \"#utility.yul\":357:363   */\n              dup2\n                /* \"#utility.yul\":335:364   */\n              tag_57\n              jump\t// in\n            tag_56:\n                /* \"#utility.yul\":330:333   */\n              dup5\n                /* \"#utility.yul\":326:365   */\n              add\n                /* \"#utility.yul\":319:365   */\n              swap2\n              pop\n                /* \"#utility.yul\":99:371   */\n              pop\n                /* \"#utility.yul\":7:371   */\n              swap3\n              swap2\n              pop\n              pop\n              jump\t// out\n                /* \"#utility.yul\":377:743   */\n            tag_58:\n                /* \"#utility.yul\":519:522   */\n              0x00\n                /* \"#utility.yul\":540:607   */\n              tag_60\n                /* \"#utility.yul\":604:606   */\n              0x25\n                /* \"#utility.yul\":599:602   */\n              dup4\n                /* \"#utility.yul\":540:607   */\n              tag_53\n              jump\t// in\n            tag_60:\n                /* \"#utility.yul\":533:607   */\n              swap2\n              pop\n                /* \"#utility.yul\":616:709   */\n              tag_61\n                /* \"#utility.yul\":705:708   */\n              dup3\n                /* \"#utility.yul\":616:709   */\n              tag_62\n              jump\t// in\n            tag_61:\n                /* \"#utility.yul\":734:736   */\n              0x40\n                /* \"#utility.yul\":729:732   */\n              dup3\n                /* \"#utility.yul\":725:737   */\n              add\n                /* \"#utility.yul\":718:737   */\n              swap1\n              pop\n                /* \"#utility.yul\":377:743   */\n              swap2\n              swap1\n              pop\n              jump\t// out\n                /* \"#utility.yul\":749:1115   */\n            tag_63:\n                /* \"#utility.yul\":891:894   */\n              0x00\n                /* \"#utility.yul\":912:979   */\n              tag_65\n                /* \"#utility.yul\":976:978   */\n              0x24\n                /* \"#utility.yul\":971:974   */\n              dup4\n                /* \"#utility.yul\":912:979   */\n              tag_53\n              jump\t// in\n            tag_65:\n                /* \"#utility.yul\":905:979   */\n              swap2\n              pop\n                /* \"#utility.yul\":988:1081   */\n              tag_66\n                /* \"#utility.yul\":1077:1080   */\n              dup3\n                /* \"#utility.yul\":988:1081   */\n              tag_67\n              jump\t// in\n            tag_66:\n                /* \"#utility.yul\":1106:1108   */\n              0x40\n                /* \"#utility.yul\":1101:1104   */\n              dup3\n                /* \"#utility.yul\":1097:1109   */\n              add\n                /* \"#utility.yul\":1090:1109   */\n              swap1\n              pop\n                /* \"#utility.yul\":749:1115   */\n              swap2\n              swap1\n              pop\n              jump\t// out\n                /* \"#utility.yul\":1121:1487   */\n            tag_68:\n                /* \"#utility.yul\":1263:1266   */\n              0x00\n                /* \"#utility.yul\":1284:1351   */\n              tag_70\n                /* \"#utility.yul\":1348:1350   */\n              0x23\n                /* \"#utility.yul\":1343:1346   */\n              dup4\n                /* \"#utility.yul\":1284:1351   */\n              tag_53\n              jump\t// in\n            tag_70:\n                /* \"#utility.yul\":1277:1351   */\n              swap2\n              pop\n                /* \"#utility.yul\":1360:1453   */\n              tag_71\n                /* \"#utility.yul\":1449:1452   */\n              dup3\n                /* \"#utility.yul\":1360:1453   */\n              tag_72\n              jump\t// in\n            tag_71:\n                /* \"#utility.yul\":1478:1480   */\n              0x40\n                /* \"#utility.yul\":1473:1476   */\n              dup3\n                /* \"#utility.yul\":1469:1481   */\n              add\n                /* \"#utility.yul\":1462:1481   */\n              swap1\n              pop\n                /* \"#utility.yul\":1121:1487   */\n              swap2\n              swap1\n              pop\n              jump\t// out\n                /* \"#utility.yul\":1493:1806   */\n            tag_10:\n                /* \"#utility.yul\":1606:1610   */\n              0x00\n                /* \"#utility.yul\":1644:1646   */\n              0x20\n                /* \"#utility.yul\":1633:1642   */\n              dup3\n                /* \"#utility.yul\":1629:1647   */\n              add\n                /* \"#utility.yul\":1621:1647   */\n              swap1\n              pop\n                /* \"#utility.yul\":1693:1702   */\n              dup2\n                /* \"#utility.yul\":1687:1691   */\n              dup2\n                /* \"#utility.yul\":1683:1703   */\n              sub\n                /* \"#utility.yul\":1679:1680   */\n              0x00\n                /* \"#utility.yul\":1668:1677   */\n              dup4\n                /* \"#utility.yul\":1664:1681   */\n              add\n                /* \"#utility.yul\":1657:1704   */\n              mstore\n                /* \"#utility.yul\":1721:1799   */\n              tag_74\n                /* \"#utility.yul\":1794:1798   */\n              dup2\n                /* \"#utility.yul\":1785:1791   */\n              dup5\n                /* \"#utility.yul\":1721:1799   */\n              tag_48\n              jump\t// in\n            tag_74:\n                /* \"#utility.yul\":1713:1799   */\n              swap1\n              pop\n                /* \"#utility.yul\":1493:1806   */\n              swap3\n              swap2\n              pop\n              pop\n              jump\t// out\n                /* \"#utility.yul\":1812:2231   */\n            tag_40:\n                /* \"#utility.yul\":1978:1982   */\n              0x00\n                /* \"#utility.yul\":2016:2018   */\n              0x20\n                /* \"#utility.yul\":2005:2014   */\n              dup3\n                /* \"#utility.yul\":2001:2019   */\n              add\n                /* \"#utility.yul\":1993:2019   */\n              swap1\n              pop\n                /* \"#utility.yul\":2065:2074   */\n              dup2\n                /* \"#utility.yul\":2059:2063   */\n              dup2\n                /* \"#utility.yul\":2055:2075   */\n              sub\n                /* \"#utility.yul\":2051:2052   */\n              0x00\n                /* \"#utility.yul\":2040:2049   */\n              dup4\n                /* \"#utility.yul\":2036:2053   */\n              add\n                /* \"#utility.yul\":2029:2076   */\n              mstore\n                /* \"#utility.yul\":2093:2224   */\n              tag_76\n                /* \"#utility.yul\":2219:2223   */\n              dup2\n                /* \"#utility.yul\":2093:2224   */\n              tag_58\n              jump\t// in\n            tag_76:\n                /* \"#utility.yul\":2085:2224   */\n              swap1\n              pop\n                /* \"#utility.yul\":1812:2231   */\n              swap2\n              swap1\n              pop\n              jump\t// out\n                /* \"#utility.yul\":2237:2656   */\n            tag_36:\n                /* \"#utility.yul\":2403:2407   */\n              0x00\n                /* \"#utility.yul\":2441:2443   */\n              0x20\n                /* \"#utility.yul\":2430:2439   */\n              dup3\n                /* \"#utility.yul\":2426:2444   */\n              add\n                /* \"#utility.yul\":2418:2444   */\n              swap1\n              pop\n                /* \"#utility.yul\":2490:2499   */\n              dup2\n                /* \"#utility.yul\":2484:2488   */\n              dup2\n                /* \"#utility.yul\":2480:2500   */\n              sub\n                /* \"#utility.yul\":2476:2477   */\n              0x00\n                /* \"#utility.yul\":2465:2474   */\n              dup4\n                /* \"#utility.yul\":2461:2478   */\n              add\n                /* \"#utility.yul\":2454:2501   */\n              mstore\n                /* \"#utility.yul\":2518:2649   */\n              tag_78\n                /* \"#utility.yul\":2644:2648   */\n              dup2\n                /* \"#utility.yul\":2518:2649   */\n              tag_63\n              jump\t// in\n            tag_78:\n                /* \"#utility.yul\":2510:2649   */\n              swap1\n              pop\n                /* \"#utility.yul\":2237:2656   */\n              swap2\n              swap1\n              pop\n              jump\t// out\n                /* \"#utility.yul\":2662:3081   */\n            tag_44:\n                /* \"#utility.yul\":2828:2832   */\n              0x00\n                /* \"#utility.yul\":2866:2868   */\n              0x20\n                /* \"#utility.yul\":2855:2864   */\n              dup3\n                /* \"#utility.yul\":2851:2869   */\n              add\n                /* \"#utility.yul\":2843:2869   */\n              swap1\n              pop\n                /* \"#utility.yul\":2915:2924   */\n              dup2\n                /* \"#utility.yul\":2909:2913   */\n              dup2\n                /* \"#utility.yul\":2905:2925   */\n              sub\n                /* \"#utility.yul\":2901:2902   */\n              0x00\n                /* \"#utility.yul\":2890:2899   */\n              dup4\n                /* \"#utility.yul\":2886:2903   */\n              add\n                /* \"#utility.yul\":2879:2926   */\n              mstore\n                /* \"#utility.yul\":2943:3074   */\n              tag_80\n                /* \"#utility.yul\":3069:3073   */\n              dup2\n                /* \"#utility.yul\":2943:3074   */\n              tag_68\n              jump\t// in\n            tag_80:\n                /* \"#utility.yul\":2935:3074   */\n              swap1\n              pop\n                /* \"#utility.yul\":2662:3081   */\n              swap2\n              swap1\n              pop\n              jump\t// out\n                /* \"#utility.yul\":3087:3186   */\n            tag_51:\n                /* \"#utility.yul\":3139:3145   */\n              0x00\n                /* \"#utility.yul\":3173:3178   */\n              dup2\n                /* \"#utility.yul\":3167:3179   */\n              mload\n                /* \"#utility.yul\":3157:3179   */\n              swap1\n              pop\n                /* \"#utility.yul\":3087:3186   */\n              swap2\n              swap1\n              pop\n              jump\t// out\n                /* \"#utility.yul\":3192:3361   */\n            tag_53:\n                /* \"#utility.yul\":3276:3287   */\n              0x00\n                /* \"#utility.yul\":3310:3316   */\n              dup3\n                /* \"#utility.yul\":3305:3308   */\n              dup3\n                /* \"#utility.yul\":3298:3317   */\n              mstore\n                /* \"#utility.yul\":3350:3354   */\n              0x20\n                /* \"#utility.yul\":3345:3348   */\n              dup3\n                /* \"#utility.yul\":3341:3355   */\n              add\n                /* \"#utility.yul\":3326:3355   */\n              swap1\n              pop\n                /* \"#utility.yul\":3192:3361   */\n              swap3\n              swap2\n              pop\n              pop\n              jump\t// out\n                /* \"#utility.yul\":3367:3674   */\n            tag_55:\n                /* \"#utility.yul\":3435:3436   */\n              0x00\n                /* \"#utility.yul\":3445:3558   */\n            tag_84:\n                /* \"#utility.yul\":3459:3465   */\n              dup4\n                /* \"#utility.yul\":3456:3457   */\n              dup2\n                /* \"#utility.yul\":3453:3466   */\n              lt\n                /* \"#utility.yul\":3445:3558   */\n              iszero\n              tag_86\n              jumpi\n                /* \"#utility.yul\":3544:3545   */\n              dup1\n                /* \"#utility.yul\":3539:3542   */\n              dup3\n                /* \"#utility.yul\":3535:3546   */\n              add\n                /* \"#utility.yul\":3529:3547   */\n              mload\n                /* \"#utility.yul\":3525:3526   */\n              dup2\n                /* \"#utility.yul\":3520:3523   */\n              dup5\n                /* \"#utility.yul\":3516:3527   */\n              add\n                /* \"#utility.yul\":3509:3548   */\n              mstore\n                /* \"#utility.yul\":3481:3483   */\n              0x20\n                /* \"#utility.yul\":3478:3479   */\n              dup2\n                /* \"#utility.yul\":3474:3484   */\n              add\n                /* \"#utility.yul\":3469:3484   */\n              swap1\n              pop\n                /* \"#utility.yul\":3445:3558   */\n              jump(tag_84)\n            tag_86:\n                /* \"#utility.yul\":3576:3582   */\n              dup4\n                /* \"#utility.yul\":3573:3574   */\n              dup2\n                /* \"#utility.yul\":3570:3583   */\n              gt\n                /* \"#utility.yul\":3567:3668   */\n              iszero\n              tag_87\n              jumpi\n                /* \"#utility.yul\":3656:3657   */\n              0x00\n                /* \"#utility.yul\":3647:3653   */\n              dup5\n                /* \"#utility.yul\":3642:3645   */\n              dup5\n                /* \"#utility.yul\":3638:3654   */\n              add\n                /* \"#utility.yul\":3631:3658   */\n              mstore\n                /* \"#utility.yul\":3567:3668   */\n            tag_87:\n                /* \"#utility.yul\":3416:3674   */\n              pop\n                /* \"#utility.yul\":3367:3674   */\n              pop\n              pop\n              pop\n              jump\t// out\n                /* \"#utility.yul\":3680:4000   */\n            tag_22:\n                /* \"#utility.yul\":3724:3730   */\n              0x00\n                /* \"#utility.yul\":3761:3762   */\n              0x02\n                /* \"#utility.yul\":3755:3759   */\n              dup3\n                /* \"#utility.yul\":3751:3763   */\n              div\n                /* \"#utility.yul\":3741:3763   */\n              swap1\n              pop\n                /* \"#utility.yul\":3808:3809   */\n              0x01\n                /* \"#utility.yul\":3802:3806   */\n              dup3\n                /* \"#utility.yul\":3798:3810   */\n              and\n                /* \"#utility.yul\":3829:3847   */\n              dup1\n                /* \"#utility.yul\":3819:3900   */\n              tag_89\n              jumpi\n                /* \"#utility.yul\":3885:3889   */\n              0x7f\n                /* \"#utility.yul\":3877:3883   */\n              dup3\n                /* \"#utility.yul\":3873:3890   */\n              and\n                /* \"#utility.yul\":3863:3890   */\n              swap2\n              pop\n                /* \"#utility.yul\":3819:3900   */\n            tag_89:\n                /* \"#utility.yul\":3947:3949   */\n              0x20\n                /* \"#utility.yul\":3939:3945   */\n              dup3\n                /* \"#utility.yul\":3936:3950   */\n              lt\n                /* \"#utility.yul\":3916:3934   */\n              dup2\n                /* \"#utility.yul\":3913:3951   */\n              eq\n                /* \"#utility.yul\":3910:3994   */\n              iszero\n              tag_90\n              jumpi\n                /* \"#utility.yul\":3966:3984   */\n              tag_91\n              tag_92\n              jump\t// in\n            tag_91:\n                /* \"#utility.yul\":3910:3994   */\n            tag_90:\n                /* \"#utility.yul\":3731:4000   */\n              pop\n                /* \"#utility.yul\":3680:4000   */\n              swap2\n              swap1\n              pop\n              jump\t// out\n                /* \"#utility.yul\":4006:4186   */\n            tag_92:\n                /* \"#utility.yul\":4054:4131   */\n              0x4e487b7100000000000000000000000000000000000000000000000000000000\n                /* \"#utility.yul\":4051:4052   */\n              0x00\n                /* \"#utility.yul\":4044:4132   */\n              mstore\n                /* \"#utility.yul\":4151:4155   */\n              0x22\n                /* \"#utility.yul\":4148:4149   */\n              0x04\n                /* \"#utility.yul\":4141:4156   */\n              mstore\n                /* \"#utility.yul\":4175:4179   */\n              0x24\n                /* \"#utility.yul\":4172:4173   */\n              0x00\n                /* \"#utility.yul\":4165:4180   */\n              revert\n                /* \"#utility.yul\":4192:4294   */\n            tag_57:\n                /* \"#utility.yul\":4233:4239   */\n              0x00\n                /* \"#utility.yul\":4284:4286   */\n              0x1f\n                /* \"#utility.yul\":4280:4287   */\n              not\n                /* \"#utility.yul\":4275:4277   */\n              0x1f\n                /* \"#utility.yul\":4268:4273   */\n              dup4\n                /* \"#utility.yul\":4264:4278   */\n              add\n                /* \"#utility.yul\":4260:4288   */\n              and\n                /* \"#utility.yul\":4250:4288   */\n              swap1\n              pop\n                /* \"#utility.yul\":4192:4294   */\n              swap2\n              swap1\n              pop\n              jump\t// out\n                /* \"#utility.yul\":4300:4524   */\n            tag_62:\n                /* \"#utility.yul\":4440:4474   */\n              0x63616e6e6f742061636365737320696e7465726e616c20737461746520766172\n                /* \"#utility.yul\":4436:4437   */\n              0x00\n                /* \"#utility.yul\":4428:4434   */\n              dup3\n                /* \"#utility.yul\":4424:4438   */\n              add\n                /* \"#utility.yul\":4417:4475   */\n              mstore\n                /* \"#utility.yul\":4509:4516   */\n              0x6961626c65000000000000000000000000000000000000000000000000000000\n                /* \"#utility.yul\":4504:4506   */\n              0x20\n                /* \"#utility.yul\":4496:4502   */\n              dup3\n                /* \"#utility.yul\":4492:4507   */\n              add\n                /* \"#utility.yul\":4485:4517   */\n              mstore\n                /* \"#utility.yul\":4300:4524   */\n              pop\n              jump\t// out\n                /* \"#utility.yul\":4530:4753   */\n            tag_67:\n                /* \"#utility.yul\":4670:4704   */\n              0x63616e6e6f742061636365737320707269766174652073746174652076617269\n                /* \"#utility.yul\":4666:4667   */\n              0x00\n                /* \"#utility.yul\":4658:4664   */\n              dup3\n                /* \"#utility.yul\":4654:4668   */\n              add\n                /* \"#utility.yul\":4647:4705   */\n              mstore\n                /* \"#utility.yul\":4739:4745   */\n              0x61626c6500000000000000000000000000000000000000000000000000000000\n                /* \"#utility.yul\":4734:4736   */\n              0x20\n                /* \"#utility.yul\":4726:4732   */\n              dup3\n                /* \"#utility.yul\":4722:4737   */\n              add\n                /* \"#utility.yul\":4715:4746   */\n              mstore\n                /* \"#utility.yul\":4530:4753   */\n              pop\n              jump\t// out\n                /* \"#utility.yul\":4759:4981   */\n            tag_72:\n                /* \"#utility.yul\":4899:4933   */\n              0x63616e6e6f7420616363657373207075626c6963207374617465207661726961\n                /* \"#utility.yul\":4895:4896   */\n              0x00\n                /* \"#utility.yul\":4887:4893   */\n              dup3\n                /* \"#utility.yul\":4883:4897   */\n              add\n                /* \"#utility.yul\":4876:4934   */\n              mstore\n                /* \"#utility.yul\":4968:4973   */\n              0x626c650000000000000000000000000000000000000000000000000000000000\n                /* \"#utility.yul\":4963:4965   */\n              0x20\n                /* \"#utility.yul\":4955:4961   */\n              dup3\n                /* \"#utility.yul\":4951:4966   */\n              add\n                /* \"#utility.yul\":4944:4974   */\n              mstore\n                /* \"#utility.yul\":4759:4981   */\n              pop\n              jump\t// out\n\n            auxdata: 0xa2646970667358221220841add35f2008d076a1d23d7cc95e4c5dba77bc00b118bd817a3755463e5dc6a64736f6c63430008070033\n        }\n    }\n\n    auxdata: 0xa264697066735822122042782bf001c0f9fd87fc2e70fe7832a7a66d570ff483b0157e5851fb5694acf064736f6c63430008070033\n}\n",
				"bytecode": {
					"linkReferences": {},
					"object": "608060405234801561001057600080fd5b50610b53806100206000396000f3fe608060405234801561001057600080fd5b506004361061002b5760003560e01c8063fcc91b3514610030575b600080fd5b61003861003a565b005b6000604051610048906100ee565b604051809103906000f080158015610064573d6000803e3d6000fd5b5090508073ffffffffffffffffffffffffffffffffffffffff1663628e6fa16040518163ffffffff1660e01b815260040160006040518083038186803b1580156100ad57600080fd5b505afa1580156100c1573d6000803e3d6000fd5b505050506040513d6000823e3d601f19601f820116820180604052508101906100ea919061016b565b5050565b61085b806102c383390190565b600061010e610109846101d9565b6101b4565b90508281526020810184848401111561012a576101296102a2565b5b61013584828561020a565b509392505050565b600082601f8301126101525761015161029d565b5b81516101628482602086016100fb565b91505092915050565b600060208284031215610181576101806102ac565b5b600082015167ffffffffffffffff81111561019f5761019e6102a7565b5b6101ab8482850161013d565b91505092915050565b60006101be6101cf565b90506101ca828261023d565b919050565b6000604051905090565b600067ffffffffffffffff8211156101f4576101f361026e565b5b6101fd826102b1565b9050602081019050919050565b60005b8381101561022857808201518184015260208101905061020d565b83811115610237576000848401525b50505050565b610246826102b1565b810181811067ffffffffffffffff821117156102655761026461026e565b5b80604052505050565b7f4e487b7100000000000000000000000000000000000000000000000000000000600052604160045260246000fd5b600080fd5b600080fd5b600080fd5b600080fd5b6000601f19601f830116905091905056fe60806040526040518060400160405280601781526020017f70726976617465207374617465207661726961626c65730000000000000000008152506000908051906020019061004f9291906100fa565b506040518060400160405280601881526020017f696e7465726e616c207374617465207661726961626c657300000000000000008152506001908051906020019061009b9291906100fa565b506040518060400160405280601681526020017f7075626c6963207374617465207661726961626c657300000000000000000000815250600290805190602001906100e79291906100fa565b503480156100f457600080fd5b506101fe565b8280546101069061019d565b90600052602060002090601f016020900481019282610128576000855561016f565b82601f1061014157805160ff191683800117855561016f565b8280016001018555821561016f579182015b8281111561016e578251825591602001919060010190610153565b5b50905061017c9190610180565b5090565b5b80821115610199576000816000905550600101610181565b5090565b600060028204905060018216806101b557607f821691505b602082108114156101c9576101c86101cf565b5b50919050565b7f4e487b7100000000000000000000000000000000000000000000000000000000600052602260045260246000fd5b61064e8061020d6000396000f3fe608060405234801561001057600080fd5b506004361061004c5760003560e01c8063628e6fa114610051578063a23a028b1461006f578063c6c410551461008d578063ce283084146100ab575b600080fd5b6100596100b5565b60405161006691906103e8565b60405180910390f35b6100776100f2565b60405161008491906103e8565b60405180910390f35b61009561012f565b6040516100a291906103e8565b60405180910390f35b6100b36101bd565b005b60606040518060400160405280601381526020017f65787465726e616c206a6f622063616c6c656400000000000000000000000000815250905090565b60606040518060400160405280601181526020017f7075626c6963206a6f622063616c6c6564000000000000000000000000000000815250905090565b6002805461013c906104b9565b80601f0160208091040260200160405190810160405280929190818152602001828054610168906104b9565b80156101b55780601f1061018a576101008083540402835291602001916101b5565b820191906000526020600020905b81548152906001019060200180831161019857829003601f168201915b505050505081565b6101c56102cc565b506101ce610309565b506101d76100f2565b5060008080546101e6906104b9565b905011610228576040517f08c379a000000000000000000000000000000000000000000000000000000000815260040161021f9061042a565b60405180910390fd5b600060018054610237906104b9565b905011610279576040517f08c379a00000000000000000000000000000000000000000000000000000000081526004016102709061040a565b60405180910390fd5b600060028054610288906104b9565b9050116102ca576040517f08c379a00000000000000000000000000000000000000000000000000000000081526004016102c19061044a565b60405180910390fd5b565b60606040518060400160405280601281526020017f70726976617465206a6f622063616c6c65640000000000000000000000000000815250905090565b60606040518060400160405280601381526020017f696e7465726e616c206a6f622063616c6c656400000000000000000000000000815250905090565b60006103518261046a565b61035b8185610475565b935061036b818560208601610486565b6103748161051a565b840191505092915050565b600061038c602583610475565b91506103978261052b565b604082019050919050565b60006103af602483610475565b91506103ba8261057a565b604082019050919050565b60006103d2602383610475565b91506103dd826105c9565b604082019050919050565b600060208201905081810360008301526104028184610346565b905092915050565b600060208201905081810360008301526104238161037f565b9050919050565b60006020820190508181036000830152610443816103a2565b9050919050565b60006020820190508181036000830152610463816103c5565b9050919050565b600081519050919050565b600082825260208201905092915050565b60005b838110156104a4578082015181840152602081019050610489565b838111156104b3576000848401525b50505050565b600060028204905060018216806104d157607f821691505b602082108114156104e5576104e46104eb565b5b50919050565b7f4e487b7100000000000000000000000000000000000000000000000000000000600052602260045260246000fd5b6000601f19601f8301169050919050565b7f63616e6e6f742061636365737320696e7465726e616c2073746174652076617260008201527f6961626c65000000000000000000000000000000000000000000000000000000602082015250565b7f63616e6e6f74206163636573732070726976617465207374617465207661726960008201527f61626c6500000000000000000000000000000000000000000000000000000000602082015250565b7f63616e6e6f7420616363657373207075626c696320737461746520766172696160008201527f626c65000000000000000000000000000000000000000000000000000000000060208201525056fea2646970667358221220841add35f2008d076a1d23d7cc95e4c5dba77bc00b118bd817a3755463e5dc6a64736f6c63430008070033a264697066735822122042782bf001c0f9fd87fc2e70fe7832a7a66d570ff483b0157e5851fb5694acf064736f6c63430008070033",
					"opcodes": "PUSH1 0x80 PUSH1 0x40 MSTORE CALLVALUE DUP1 ISZERO PUSH2 0x10 JUMPI PUSH1 0x0 DUP1 REVERT JUMPDEST POP PUSH2 0xB53 DUP1 PUSH2 0x20 PUSH1 0x0 CODECOPY PUSH1 0x0 RETURN INVALID PUSH1 0x80 PUSH1 0x40 MSTORE CALLVALUE DUP1 ISZERO PUSH2 0x10 JUMPI PUSH1 0x0 DUP1 REVERT JUMPDEST POP PUSH1 0x4 CALLDATASIZE LT PUSH2 0x2B JUMPI PUSH1 0x0 CALLDATALOAD PUSH1 0xE0 SHR DUP1 PUSH4 0xFCC91B35 EQ PUSH2 0x30 JUMPI JUMPDEST PUSH1 0x0 DUP1 REVERT JUMPDEST PUSH2 0x38 PUSH2 0x3A JUMP JUMPDEST STOP JUMPDEST PUSH1 0x0 PUSH1 0x40 MLOAD PUSH2 0x48 SWAP1 PUSH2 0xEE JUMP JUMPDEST PUSH1 0x40 MLOAD DUP1 SWAP2 SUB SWAP1 PUSH1 0x0 CREATE DUP1 ISZERO DUP1 ISZERO PUSH2 0x64 JUMPI RETURNDATASIZE PUSH1 0x0 DUP1 RETURNDATACOPY RETURNDATASIZE PUSH1 0x0 REVERT JUMPDEST POP SWAP1 POP DUP1 PUSH20 0xFFFFFFFFFFFFFFFFFFFFFFFFFFFFFFFFFFFFFFFF AND PUSH4 0x628E6FA1 PUSH1 0x40 MLOAD DUP2 PUSH4 0xFFFFFFFF AND PUSH1 0xE0 SHL DUP2 MSTORE PUSH1 0x4 ADD PUSH1 0x0 PUSH1 0x40 MLOAD DUP1 DUP4 SUB DUP2 DUP7 DUP1 EXTCODESIZE ISZERO DUP1 ISZERO PUSH2 0xAD JUMPI PUSH1 0x0 DUP1 REVERT JUMPDEST POP GAS STATICCALL ISZERO DUP1 ISZERO PUSH2 0xC1 JUMPI RETURNDATASIZE PUSH1 0x0 DUP1 RETURNDATACOPY RETURNDATASIZE PUSH1 0x0 REVERT JUMPDEST POP POP POP POP PUSH1 0x40 MLOAD RETURNDATASIZE PUSH1 0x0 DUP3 RETURNDATACOPY RETURNDATASIZE PUSH1 0x1F NOT PUSH1 0x1F DUP3 ADD AND DUP3 ADD DUP1 PUSH1 0x40 MSTORE POP DUP2 ADD SWAP1 PUSH2 0xEA SWAP2 SWAP1 PUSH2 0x16B JUMP JUMPDEST POP POP JUMP JUMPDEST PUSH2 0x85B DUP1 PUSH2 0x2C3 DUP4 CODECOPY ADD SWAP1 JUMP JUMPDEST PUSH1 0x0 PUSH2 0x10E PUSH2 0x109 DUP5 PUSH2 0x1D9 JUMP JUMPDEST PUSH2 0x1B4 JUMP JUMPDEST SWAP1 POP DUP3 DUP2 MSTORE PUSH1 0x20 DUP2 ADD DUP5 DUP5 DUP5 ADD GT ISZERO PUSH2 0x12A JUMPI PUSH2 0x129 PUSH2 0x2A2 JUMP JUMPDEST JUMPDEST PUSH2 0x135 DUP5 DUP3 DUP6 PUSH2 0x20A JUMP JUMPDEST POP SWAP4 SWAP3 POP POP POP JUMP JUMPDEST PUSH1 0x0 DUP3 PUSH1 0x1F DUP4 ADD SLT PUSH2 0x152 JUMPI PUSH2 0x151 PUSH2 0x29D JUMP JUMPDEST JUMPDEST DUP2 MLOAD PUSH2 0x162 DUP5 DUP3 PUSH1 0x20 DUP7 ADD PUSH2 0xFB JUMP JUMPDEST SWAP2 POP POP SWAP3 SWAP2 POP POP JUMP JUMPDEST PUSH1 0x0 PUSH1 0x20 DUP3 DUP5 SUB SLT ISZERO PUSH2 0x181 JUMPI PUSH2 0x180 PUSH2 0x2AC JUMP JUMPDEST JUMPDEST PUSH1 0x0 DUP3 ADD MLOAD PUSH8 0xFFFFFFFFFFFFFFFF DUP2 GT ISZERO PUSH2 0x19F JUMPI PUSH2 0x19E PUSH2 0x2A7 JUMP JUMPDEST JUMPDEST PUSH2 0x1AB DUP5 DUP3 DUP6 ADD PUSH2 0x13D JUMP JUMPDEST SWAP2 POP POP SWAP3 SWAP2 POP POP JUMP JUMPDEST PUSH1 0x0 PUSH2 0x1BE PUSH2 0x1CF JUMP JUMPDEST SWAP1 POP PUSH2 0x1CA DUP3 DUP3 PUSH2 0x23D JUMP JUMPDEST SWAP2 SWAP1 POP JUMP JUMPDEST PUSH1 0x0 PUSH1 0x40 MLOAD SWAP1 POP SWAP1 JUMP JUMPDEST PUSH1 0x0 PUSH8 0xFFFFFFFFFFFFFFFF DUP3 GT ISZERO PUSH2 0x1F4 JUMPI PUSH2 0x1F3 PUSH2 0x26E JUMP JUMPDEST JUMPDEST PUSH2 0x1FD DUP3 PUSH2 0x2B1 JUMP JUMPDEST SWAP1 POP PUSH1 0x20 DUP2 ADD SWAP1 POP SWAP2 SWAP1 POP JUMP JUMPDEST PUSH1 0x0 JUMPDEST DUP4 DUP2 LT ISZERO PUSH2 0x228 JUMPI DUP1 DUP3 ADD MLOAD DUP2 DUP5 ADD MSTORE PUSH1 0x20 DUP2 ADD SWAP1 POP PUSH2 0x20D JUMP JUMPDEST DUP4 DUP2 GT ISZERO PUSH2 0x237 JUMPI PUSH1 0x0 DUP5 DUP5 ADD MSTORE JUMPDEST POP POP POP POP JUMP JUMPDEST PUSH2 0x246 DUP3 PUSH2 0x2B1 JUMP JUMPDEST DUP2 ADD DUP2 DUP2 LT PUSH8 0xFFFFFFFFFFFFFFFF DUP3 GT OR ISZERO PUSH2 0x265 JUMPI PUSH2 0x264 PUSH2 0x26E JUMP JUMPDEST JUMPDEST DUP1 PUSH1 0x40 MSTORE POP POP POP JUMP JUMPDEST PUSH32 0x4E487B7100000000000000000000000000000000000000000000000000000000 PUSH1 0x0 MSTORE PUSH1 0x41 PUSH1 0x4 MSTORE PUSH1 0x24 PUSH1 0x0 REVERT JUMPDEST PUSH1 0x0 DUP1 REVERT JUMPDEST PUSH1 0x0 DUP1 REVERT JUMPDEST PUSH1 0x0 DUP1 REVERT JUMPDEST PUSH1 0x0 DUP1 REVERT JUMPDEST PUSH1 0x0 PUSH1 0x1F NOT PUSH1 0x1F DUP4 ADD AND SWAP1 POP SWAP2 SWAP1 POP JUMP INVALID PUSH1 0x80 PUSH1 0x40 MSTORE PUSH1 0x40 MLOAD DUP1 PUSH1 0x40 ADD PUSH1 0x40 MSTORE DUP1 PUSH1 0x17 DUP2 MSTORE PUSH1 0x20 ADD PUSH32 0x70726976617465207374617465207661726961626C6573000000000000000000 DUP2 MSTORE POP PUSH1 0x0 SWAP1 DUP1 MLOAD SWAP1 PUSH1 0x20 ADD SWAP1 PUSH2 0x4F SWAP3 SWAP2 SWAP1 PUSH2 0xFA JUMP JUMPDEST POP PUSH1 0x40 MLOAD DUP1 PUSH1 0x40 ADD PUSH1 0x40 MSTORE DUP1 PUSH1 0x18 DUP2 MSTORE PUSH1 0x20 ADD PUSH32 0x696E7465726E616C207374617465207661726961626C65730000000000000000 DUP2 MSTORE POP PUSH1 0x1 SWAP1 DUP1 MLOAD SWAP1 PUSH1 0x20 ADD SWAP1 PUSH2 0x9B SWAP3 SWAP2 SWAP1 PUSH2 0xFA JUMP JUMPDEST POP PUSH1 0x40 MLOAD DUP1 PUSH1 0x40 ADD PUSH1 0x40 MSTORE DUP1 PUSH1 0x16 DUP2 MSTORE PUSH1 0x20 ADD PUSH32 0x7075626C6963207374617465207661726961626C657300000000000000000000 DUP2 MSTORE POP PUSH1 0x2 SWAP1 DUP1 MLOAD SWAP1 PUSH1 0x20 ADD SWAP1 PUSH2 0xE7 SWAP3 SWAP2 SWAP1 PUSH2 0xFA JUMP JUMPDEST POP CALLVALUE DUP1 ISZERO PUSH2 0xF4 JUMPI PUSH1 0x0 DUP1 REVERT JUMPDEST POP PUSH2 0x1FE JUMP JUMPDEST DUP3 DUP1 SLOAD PUSH2 0x106 SWAP1 PUSH2 0x19D JUMP JUMPDEST SWAP1 PUSH1 0x0 MSTORE PUSH1 0x20 PUSH1 0x0 KECCAK256 SWAP1 PUSH1 0x1F ADD PUSH1 0x20 SWAP1 DIV DUP2 ADD SWAP3 DUP3 PUSH2 0x128 JUMPI PUSH1 0x0 DUP6 SSTORE PUSH2 0x16F JUMP JUMPDEST DUP3 PUSH1 0x1F LT PUSH2 0x141 JUMPI DUP1 MLOAD PUSH1 0xFF NOT AND DUP4 DUP1 ADD OR DUP6 SSTORE PUSH2 0x16F JUMP JUMPDEST DUP3 DUP1 ADD PUSH1 0x1 ADD DUP6 SSTORE DUP3 ISZERO PUSH2 0x16F JUMPI SWAP2 DUP3 ADD JUMPDEST DUP3 DUP2 GT ISZERO PUSH2 0x16E JUMPI DUP3 MLOAD DUP3 SSTORE SWAP2 PUSH1 0x20 ADD SWAP2 SWAP1 PUSH1 0x1 ADD SWAP1 PUSH2 0x153 JUMP JUMPDEST JUMPDEST POP SWAP1 POP PUSH2 0x17C SWAP2 SWAP1 PUSH2 0x180 JUMP JUMPDEST POP SWAP1 JUMP JUMPDEST JUMPDEST DUP1 DUP3 GT ISZERO PUSH2 0x199 JUMPI PUSH1 0x0 DUP2 PUSH1 0x0 SWAP1 SSTORE POP PUSH1 0x1 ADD PUSH2 0x181 JUMP JUMPDEST POP SWAP1 JUMP JUMPDEST PUSH1 0x0 PUSH1 0x2 DUP3 DIV SWAP1 POP PUSH1 0x1 DUP3 AND DUP1 PUSH2 0x1B5 JUMPI PUSH1 0x7F DUP3 AND SWAP2 POP JUMPDEST PUSH1 0x20 DUP3 LT DUP2 EQ ISZERO PUSH2 0x1C9 JUMPI PUSH2 0x1C8 PUSH2 0x1CF JUMP JUMPDEST JUMPDEST POP SWAP2 SWAP1 POP JUMP JUMPDEST PUSH32 0x4E487B7100000000000000000000000000000000000000000000000000000000 PUSH1 0x0 MSTORE PUSH1 0x22 PUSH1 0x4 MSTORE PUSH1 0x24 PUSH1 0x0 REVERT JUMPDEST PUSH2 0x64E DUP1 PUSH2 0x20D PUSH1 0x0 CODECOPY PUSH1 0x0 RETURN INVALID PUSH1 0x80 PUSH1 0x40 MSTORE CALLVALUE DUP1 ISZERO PUSH2 0x10 JUMPI PUSH1 0x0 DUP1 REVERT JUMPDEST POP PUSH1 0x4 CALLDATASIZE LT PUSH2 0x4C JUMPI PUSH1 0x0 CALLDATALOAD PUSH1 0xE0 SHR DUP1 PUSH4 0x628E6FA1 EQ PUSH2 0x51 JUMPI DUP1 PUSH4 0xA23A028B EQ PUSH2 0x6F JUMPI DUP1 PUSH4 0xC6C41055 EQ PUSH2 0x8D JUMPI DUP1 PUSH4 0xCE283084 EQ PUSH2 0xAB JUMPI JUMPDEST PUSH1 0x0 DUP1 REVERT JUMPDEST PUSH2 0x59 PUSH2 0xB5 JUMP JUMPDEST PUSH1 0x40 MLOAD PUSH2 0x66 SWAP2 SWAP1 PUSH2 0x3E8 JUMP JUMPDEST PUSH1 0x40 MLOAD DUP1 SWAP2 SUB SWAP1 RETURN JUMPDEST PUSH2 0x77 PUSH2 0xF2 JUMP JUMPDEST PUSH1 0x40 MLOAD PUSH2 0x84 SWAP2 SWAP1 PUSH2 0x3E8 JUMP JUMPDEST PUSH1 0x40 MLOAD DUP1 SWAP2 SUB SWAP1 RETURN JUMPDEST PUSH2 0x95 PUSH2 0x12F JUMP JUMPDEST PUSH1 0x40 MLOAD PUSH2 0xA2 SWAP2 SWAP1 PUSH2 0x3E8 JUMP JUMPDEST PUSH1 0x40 MLOAD DUP1 SWAP2 SUB SWAP1 RETURN JUMPDEST PUSH2 0xB3 PUSH2 0x1BD JUMP JUMPDEST STOP JUMPDEST PUSH1 0x60 PUSH1 0x40 MLOAD DUP1 PUSH1 0x40 ADD PUSH1 0x40 MSTORE DUP1 PUSH1 0x13 DUP2 MSTORE PUSH1 0x20 ADD PUSH32 0x65787465726E616C206A6F622063616C6C656400000000000000000000000000 DUP2 MSTORE POP SWAP1 POP SWAP1 JUMP JUMPDEST PUSH1 0x60 PUSH1 0x40 MLOAD DUP1 PUSH1 0x40 ADD PUSH1 0x40 MSTORE DUP1 PUSH1 0x11 DUP2 MSTORE PUSH1 0x20 ADD PUSH32 0x7075626C6963206A6F622063616C6C6564000000000000000000000000000000 DUP2 MSTORE POP SWAP1 POP SWAP1 JUMP JUMPDEST PUSH1 0x2 DUP1 SLOAD PUSH2 0x13C SWAP1 PUSH2 0x4B9 JUMP JUMPDEST DUP1 PUSH1 0x1F ADD PUSH1 0x20 DUP1 SWAP2 DIV MUL PUSH1 0x20 ADD PUSH1 0x40 MLOAD SWAP1 DUP2 ADD PUSH1 0x40 MSTORE DUP1 SWAP3 SWAP2 SWAP1 DUP2 DUP2 MSTORE PUSH1 0x20 ADD DUP3 DUP1 SLOAD PUSH2 0x168 SWAP1 PUSH2 0x4B9 JUMP JUMPDEST DUP1 ISZERO PUSH2 0x1B5 JUMPI DUP1 PUSH1 0x1F LT PUSH2 0x18A JUMPI PUSH2 0x100 DUP1 DUP4 SLOAD DIV MUL DUP4 MSTORE SWAP2 PUSH1 0x20 ADD SWAP2 PUSH2 0x1B5 JUMP JUMPDEST DUP3 ADD SWAP2 SWAP1 PUSH1 0x0 MSTORE PUSH1 0x20 PUSH1 0x0 KECCAK256 SWAP1 JUMPDEST DUP2 SLOAD DUP2 MSTORE SWAP1 PUSH1 0x1 ADD SWAP1 PUSH1 0x20 ADD DUP1 DUP4 GT PUSH2 0x198 JUMPI DUP3 SWAP1 SUB PUSH1 0x1F AND DUP3 ADD SWAP2 JUMPDEST POP POP POP POP POP DUP2 JUMP JUMPDEST PUSH2 0x1C5 PUSH2 0x2CC JUMP JUMPDEST POP PUSH2 0x1CE PUSH2 0x309 JUMP JUMPDEST POP PUSH2 0x1D7 PUSH2 0xF2 JUMP JUMPDEST POP PUSH1 0x0 DUP1 DUP1 SLOAD PUSH2 0x1E6 SWAP1 PUSH2 0x4B9 JUMP JUMPDEST SWAP1 POP GT PUSH2 0x228 JUMPI PUSH1 0x40 MLOAD PUSH32 0x8C379A000000000000000000000000000000000000000000000000000000000 DUP2 MSTORE PUSH1 0x4 ADD PUSH2 0x21F SWAP1 PUSH2 0x42A JUMP JUMPDEST PUSH1 0x40 MLOAD DUP1 SWAP2 SUB SWAP1 REVERT JUMPDEST PUSH1 0x0 PUSH1 0x1 DUP1 SLOAD PUSH2 0x237 SWAP1 PUSH2 0x4B9 JUMP JUMPDEST SWAP1 POP GT PUSH2 0x279 JUMPI PUSH1 0x40 MLOAD PUSH32 0x8C379A000000000000000000000000000000000000000000000000000000000 DUP2 MSTORE PUSH1 0x4 ADD PUSH2 0x270 SWAP1 PUSH2 0x40A JUMP JUMPDEST PUSH1 0x40 MLOAD DUP1 SWAP2 SUB SWAP1 REVERT JUMPDEST PUSH1 0x0 PUSH1 0x2 DUP1 SLOAD PUSH2 0x288 SWAP1 PUSH2 0x4B9 JUMP JUMPDEST SWAP1 POP GT PUSH2 0x2CA JUMPI PUSH1 0x40 MLOAD PUSH32 0x8C379A000000000000000000000000000000000000000000000000000000000 DUP2 MSTORE PUSH1 0x4 ADD PUSH2 0x2C1 SWAP1 PUSH2 0x44A JUMP JUMPDEST PUSH1 0x40 MLOAD DUP1 SWAP2 SUB SWAP1 REVERT JUMPDEST JUMP JUMPDEST PUSH1 0x60 PUSH1 0x40 MLOAD DUP1 PUSH1 0x40 ADD PUSH1 0x40 MSTORE DUP1 PUSH1 0x12 DUP2 MSTORE PUSH1 0x20 ADD PUSH32 0x70726976617465206A6F622063616C6C65640000000000000000000000000000 DUP2 MSTORE POP SWAP1 POP SWAP1 JUMP JUMPDEST PUSH1 0x60 PUSH1 0x40 MLOAD DUP1 PUSH1 0x40 ADD PUSH1 0x40 MSTORE DUP1 PUSH1 0x13 DUP2 MSTORE PUSH1 0x20 ADD PUSH32 0x696E7465726E616C206A6F622063616C6C656400000000000000000000000000 DUP2 MSTORE POP SWAP1 POP SWAP1 JUMP JUMPDEST PUSH1 0x0 PUSH2 0x351 DUP3 PUSH2 0x46A JUMP JUMPDEST PUSH2 0x35B DUP2 DUP6 PUSH2 0x475 JUMP JUMPDEST SWAP4 POP PUSH2 0x36B DUP2 DUP6 PUSH1 0x20 DUP7 ADD PUSH2 0x486 JUMP JUMPDEST PUSH2 0x374 DUP2 PUSH2 0x51A JUMP JUMPDEST DUP5 ADD SWAP2 POP POP SWAP3 SWAP2 POP POP JUMP JUMPDEST PUSH1 0x0 PUSH2 0x38C PUSH1 0x25 DUP4 PUSH2 0x475 JUMP JUMPDEST SWAP2 POP PUSH2 0x397 DUP3 PUSH2 0x52B JUMP JUMPDEST PUSH1 0x40 DUP3 ADD SWAP1 POP SWAP2 SWAP1 POP JUMP JUMPDEST PUSH1 0x0 PUSH2 0x3AF PUSH1 0x24 DUP4 PUSH2 0x475 JUMP JUMPDEST SWAP2 POP PUSH2 0x3BA DUP3 PUSH2 0x57A JUMP JUMPDEST PUSH1 0x40 DUP3 ADD SWAP1 POP SWAP2 SWAP1 POP JUMP JUMPDEST PUSH1 0x0 PUSH2 0x3D2 PUSH1 0x23 DUP4 PUSH2 0x475 JUMP JUMPDEST SWAP2 POP PUSH2 0x3DD DUP3 PUSH2 0x5C9 JUMP JUMPDEST PUSH1 0x40 DUP3 ADD SWAP1 POP SWAP2 SWAP1 POP JUMP JUMPDEST PUSH1 0x0 PUSH1 0x20 DUP3 ADD SWAP1 POP DUP2 DUP2 SUB PUSH1 0x0 DUP4 ADD MSTORE PUSH2 0x402 DUP2 DUP5 PUSH2 0x346 JUMP JUMPDEST SWAP1 POP SWAP3 SWAP2 POP POP JUMP JUMPDEST PUSH1 0x0 PUSH1 0x20 DUP3 ADD SWAP1 POP DUP2 DUP2 SUB PUSH1 0x0 DUP4 ADD MSTORE PUSH2 0x423 DUP2 PUSH2 0x37F JUMP JUMPDEST SWAP1 POP SWAP2 SWAP1 POP JUMP JUMPDEST PUSH1 0x0 PUSH1 0x20 DUP3 ADD SWAP1 POP DUP2 DUP2 SUB PUSH1 0x0 DUP4 ADD MSTORE PUSH2 0x443 DUP2 PUSH2 0x3A2 JUMP JUMPDEST SWAP1 POP SWAP2 SWAP1 POP JUMP JUMPDEST PUSH1 0x0 PUSH1 0x20 DUP3 ADD SWAP1 POP DUP2 DUP2 SUB PUSH1 0x0 DUP4 ADD MSTORE PUSH2 0x463 DUP2 PUSH2 0x3C5 JUMP JUMPDEST SWAP1 POP SWAP2 SWAP1 POP JUMP JUMPDEST PUSH1 0x0 DUP2 MLOAD SWAP1 POP SWAP2 SWAP1 POP JUMP JUMPDEST PUSH1 0x0 DUP3 DUP3 MSTORE PUSH1 0x20 DUP3 ADD SWAP1 POP SWAP3 SWAP2 POP POP JUMP JUMPDEST PUSH1 0x0 JUMPDEST DUP4 DUP2 LT ISZERO PUSH2 0x4A4 JUMPI DUP1 DUP3 ADD MLOAD DUP2 DUP5 ADD MSTORE PUSH1 0x20 DUP2 ADD SWAP1 POP PUSH2 0x489 JUMP JUMPDEST DUP4 DUP2 GT ISZERO PUSH2 0x4B3 JUMPI PUSH1 0x0 DUP5 DUP5 ADD MSTORE JUMPDEST POP POP POP POP JUMP JUMPDEST PUSH1 0x0 PUSH1 0x2 DUP3 DIV SWAP1 POP PUSH1 0x1 DUP3 AND DUP1 PUSH2 0x4D1 JUMPI PUSH1 0x7F DUP3 AND SWAP2 POP JUMPDEST PUSH1 0x20 DUP3 LT DUP2 EQ ISZERO PUSH2 0x4E5 JUMPI PUSH2 0x4E4 PUSH2 0x4EB JUMP JUMPDEST JUMPDEST POP SWAP2 SWAP1 POP JUMP JUMPDEST PUSH32 0x4E487B7100000000000000000000000000000000000000000000000000000000 PUSH1 0x0 MSTORE PUSH1 0x22 PUSH1 0x4 MSTORE PUSH1 0x24 PUSH1 0x0 REVERT JUMPDEST PUSH1 0x0 PUSH1 0x1F NOT PUSH1 0x1F DUP4 ADD AND SWAP1 POP SWAP2 SWAP1 POP JUMP JUMPDEST PUSH32 0x63616E6E6F742061636365737320696E7465726E616C20737461746520766172 PUSH1 0x0 DUP3 ADD MSTORE PUSH32 0x6961626C65000000000000000000000000000000000000000000000000000000 PUSH1 0x20 DUP3 ADD MSTORE POP JUMP JUMPDEST PUSH32 0x63616E6E6F742061636365737320707269766174652073746174652076617269 PUSH1 0x0 DUP3 ADD MSTORE PUSH32 0x61626C6500000000000000000000000000000000000000000000000000000000 PUSH1 0x20 DUP3 ADD MSTORE POP JUMP JUMPDEST PUSH32 0x63616E6E6F7420616363657373207075626C6963207374617465207661726961 PUSH1 0x0 DUP3 ADD MSTORE PUSH32 0x626C650000000000000000000000000000000000000000000000000000000000 PUSH1 0x20 DUP3 ADD MSTORE POP JUMP INVALID LOG2 PUSH5 0x6970667358 0x22 SLT KECCAK256 DUP5 BYTE 0xDD CALLDATALOAD CALLCODE STOP DUP14 SMOD PUSH11 0x1D23D7CC95E4C5DBA77BC0 SIGNEXTEND GT DUP12 0xD8 OR LOG3 PUSH22 0x5463E5DC6A64736F6C63430008070033A26469706673 PC 0x22 SLT KECCAK256 TIMESTAMP PUSH25 0x2BF001C0F9FD87FC2E70FE7832A7A66D570FF483B0157E5851 0xFB JUMP SWAP5 0xAC CREATE PUSH5 0x736F6C6343 STOP ADDMOD SMOD STOP CALLER "
				},
				"gasEstimates": {
					"creation": {
						"codeDepositCost": "579800",
						"executionCost": "613",
						"totalCost": "580413"
					},
					"external": {
						"testScope()": "infinite"
					}
				},
				"methodIdentifiers": {
					"testScope()": "fcc91b35"
				}
			},
			"storageLayout": {
				"storage": [],
				"types": null
			},
			"userdoc": {
				"kind": "user",
				"methods": {},
				"version": 1
			}
		}
	}
}