{
	"Ep6/example.sol": {
		"Base0": {
			"abi": [
				{
					"inputs": [],
					"name": "externalJob",
					"outputs": [
						{
							"internalType": "string",
							"name": "",
							"type": "string"
						}
					],
					"stateMutability": "pure",
					"type": "function"
				},
				{
					"inputs": [],
					"name": "publicJob",
					"outputs": [
						{
							"internalType": "string",
							"name": "",
							"type": "string"
						}
					],
					"stateMutability": "pure",
					"type": "function"
				},
				{
					"inputs": [],
					"name": "publicMsg",
					"outputs": [
						{
							"internalType": "string",
							"name": "",
							"type": "string"
						}
					],
					"stateMutability": "view",
					"type": "function"
				},
				{
					"inputs": [],
					"name": "testScopeOfBase",
					"outputs": [],
					"stateMutability": "view",
					"type": "function"
				},
				{
					"inputs": [],
					"name": "testScopeOfBase0",
					"outputs": [],
					"stateMutability": "view",
					"type": "function"
				}
			],
			"devdoc": {
				"kind": "dev",
				"methods": {},
				"version": 1
			},
			"evm": {
				"assembly": "    /* \"Ep6/example.sol\":2183:3297  contract Base0 is Base {\r... */\n  mstore(0x40, 0x80)\n    /* \"Ep6/example.sol\":156:209  string private privateMsg = \"private state variables\" */\n  mload(0x40)\n  dup1\n  0x40\n  add\n  0x40\n  mstore\n  dup1\n  0x17\n  dup2\n  mstore\n  0x20\n  add\n  0x70726976617465207374617465207661726961626c6573000000000000000000\n  dup2\n  mstore\n  pop\n  0x00\n  swap1\n  dup1\n  mload\n  swap1\n  0x20\n  add\n  swap1\n  tag_1\n  swap3\n  swap2\n  swap1\n  tag_2\n  jump\t// in\ntag_1:\n  pop\n    /* \"Ep6/example.sol\":323:379  string internal internalMsg = \"internal state variables\" */\n  mload(0x40)\n  dup1\n  0x40\n  add\n  0x40\n  mstore\n  dup1\n  0x18\n  dup2\n  mstore\n  0x20\n  add\n  0x696e7465726e616c207374617465207661726961626c65730000000000000000\n  dup2\n  mstore\n  pop\n  0x01\n  swap1\n  dup1\n  mload\n  swap1\n  0x20\n  add\n  swap1\n  tag_3\n  swap3\n  swap2\n  swap1\n  tag_2\n  jump\t// in\ntag_3:\n  pop\n    /* \"Ep6/example.sol\":525:575  string public publicMsg = \"public state variables\" */\n  mload(0x40)\n  dup1\n  0x40\n  add\n  0x40\n  mstore\n  dup1\n  0x16\n  dup2\n  mstore\n  0x20\n  add\n  0x7075626c6963207374617465207661726961626c657300000000000000000000\n  dup2\n  mstore\n  pop\n  0x02\n  swap1\n  dup1\n  mload\n  swap1\n  0x20\n  add\n  swap1\n  tag_4\n  swap3\n  swap2\n  swap1\n  tag_2\n  jump\t// in\ntag_4:\n  pop\n    /* \"Ep6/example.sol\":2183:3297  contract Base0 is Base {\r... */\n  callvalue\n  dup1\n  iszero\n  tag_5\n  jumpi\n  0x00\n  dup1\n  revert\ntag_5:\n  pop\n  jump(tag_6)\ntag_2:\n  dup3\n  dup1\n  sload\n  tag_7\n  swap1\n  tag_8\n  jump\t// in\ntag_7:\n  swap1\n  0x00\n  mstore\n  keccak256(0x00, 0x20)\n  swap1\n  0x1f\n  add\n  0x20\n  swap1\n  div\n  dup2\n  add\n  swap3\n  dup3\n  tag_10\n  jumpi\n  0x00\n  dup6\n  sstore\n  jump(tag_9)\ntag_10:\n  dup3\n  0x1f\n  lt\n  tag_11\n  jumpi\n  dup1\n  mload\n  not(0xff)\n  and\n  dup4\n  dup1\n  add\n  or\n  dup6\n  sstore\n  jump(tag_9)\ntag_11:\n  dup3\n  dup1\n  add\n  0x01\n  add\n  dup6\n  sstore\n  dup3\n  iszero\n  tag_9\n  jumpi\n  swap2\n  dup3\n  add\ntag_12:\n  dup3\n  dup2\n  gt\n  iszero\n  tag_13\n  jumpi\n  dup3\n  mload\n  dup3\n  sstore\n  swap2\n  0x20\n  add\n  swap2\n  swap1\n  0x01\n  add\n  swap1\n  jump(tag_12)\ntag_13:\ntag_9:\n  pop\n  swap1\n  pop\n  tag_14\n  swap2\n  swap1\n  tag_15\n  jump\t// in\ntag_14:\n  pop\n  swap1\n  jump\t// out\ntag_15:\ntag_16:\n  dup1\n  dup3\n  gt\n  iszero\n  tag_17\n  jumpi\n  0x00\n  dup2\n  0x00\n  swap1\n  sstore\n  pop\n  0x01\n  add\n  jump(tag_16)\ntag_17:\n  pop\n  swap1\n  jump\t// out\n    /* \"#utility.yul\":7:327   */\ntag_8:\n    /* \"#utility.yul\":51:57   */\n  0x00\n    /* \"#utility.yul\":88:89   */\n  0x02\n    /* \"#utility.yul\":82:86   */\n  dup3\n    /* \"#utility.yul\":78:90   */\n  div\n    /* \"#utility.yul\":68:90   */\n  swap1\n  pop\n    /* \"#utility.yul\":135:136   */\n  0x01\n    /* \"#utility.yul\":129:133   */\n  dup3\n    /* \"#utility.yul\":125:137   */\n  and\n    /* \"#utility.yul\":156:174   */\n  dup1\n    /* \"#utility.yul\":146:227   */\n  tag_20\n  jumpi\n    /* \"#utility.yul\":212:216   */\n  0x7f\n    /* \"#utility.yul\":204:210   */\n  dup3\n    /* \"#utility.yul\":200:217   */\n  and\n    /* \"#utility.yul\":190:217   */\n  swap2\n  pop\n    /* \"#utility.yul\":146:227   */\ntag_20:\n    /* \"#utility.yul\":274:276   */\n  0x20\n    /* \"#utility.yul\":266:272   */\n  dup3\n    /* \"#utility.yul\":263:277   */\n  lt\n    /* \"#utility.yul\":243:261   */\n  dup2\n    /* \"#utility.yul\":240:278   */\n  eq\n    /* \"#utility.yul\":237:321   */\n  iszero\n  tag_21\n  jumpi\n    /* \"#utility.yul\":293:311   */\n  tag_22\n  tag_23\n  jump\t// in\ntag_22:\n    /* \"#utility.yul\":237:321   */\ntag_21:\n    /* \"#utility.yul\":58:327   */\n  pop\n    /* \"#utility.yul\":7:327   */\n  swap2\n  swap1\n  pop\n  jump\t// out\n    /* \"#utility.yul\":333:513   */\ntag_23:\n    /* \"#utility.yul\":381:458   */\n  0x4e487b7100000000000000000000000000000000000000000000000000000000\n    /* \"#utility.yul\":378:379   */\n  0x00\n    /* \"#utility.yul\":371:459   */\n  mstore\n    /* \"#utility.yul\":478:482   */\n  0x22\n    /* \"#utility.yul\":475:476   */\n  0x04\n    /* \"#utility.yul\":468:483   */\n  mstore\n    /* \"#utility.yul\":502:506   */\n  0x24\n    /* \"#utility.yul\":499:500   */\n  0x00\n    /* \"#utility.yul\":492:507   */\n  revert\n    /* \"Ep6/example.sol\":2183:3297  contract Base0 is Base {\r... */\ntag_6:\n  dataSize(sub_0)\n  dup1\n  dataOffset(sub_0)\n  0x00\n  codecopy\n  0x00\n  return\nstop\n\nsub_0: assembly {\n        /* \"Ep6/example.sol\":2183:3297  contract Base0 is Base {\r... */\n      mstore(0x40, 0x80)\n      callvalue\n      dup1\n      iszero\n      tag_1\n      jumpi\n      0x00\n      dup1\n      revert\n    tag_1:\n      pop\n      jumpi(tag_2, lt(calldatasize, 0x04))\n      shr(0xe0, calldataload(0x00))\n      dup1\n      0x4492288c\n      eq\n      tag_3\n      jumpi\n      dup1\n      0x628e6fa1\n      eq\n      tag_4\n      jumpi\n      dup1\n      0xa23a028b\n      eq\n      tag_5\n      jumpi\n      dup1\n      0xc6c41055\n      eq\n      tag_6\n      jumpi\n      dup1\n      0xce283084\n      eq\n      tag_7\n      jumpi\n    tag_2:\n      0x00\n      dup1\n      revert\n        /* \"Ep6/example.sol\":2215:3294  function testScopeOfBase0() public view {\r... */\n    tag_3:\n      tag_8\n      tag_9\n      jump\t// in\n    tag_8:\n      stop\n        /* \"Ep6/example.sol\":1258:1366  function externalJob() external pure returns (string memory) {\r... */\n    tag_4:\n      tag_10\n      tag_11\n      jump\t// in\n    tag_10:\n      mload(0x40)\n      tag_12\n      swap2\n      swap1\n      tag_13\n      jump\t// in\n    tag_12:\n      mload(0x40)\n      dup1\n      swap2\n      sub\n      swap1\n      return\n        /* \"Ep6/example.sol\":1103:1205  function publicJob() public pure returns (string memory) {\r... */\n    tag_5:\n      tag_14\n      tag_15\n      jump\t// in\n    tag_14:\n      mload(0x40)\n      tag_16\n      swap2\n      swap1\n      tag_13\n      jump\t// in\n    tag_16:\n      mload(0x40)\n      dup1\n      swap2\n      sub\n      swap1\n      return\n        /* \"Ep6/example.sol\":525:575  string public publicMsg = \"public state variables\" */\n    tag_6:\n      tag_17\n      tag_18\n      jump\t// in\n    tag_17:\n      mload(0x40)\n      tag_19\n      swap2\n      swap1\n      tag_13\n      jump\t// in\n    tag_19:\n      mload(0x40)\n      dup1\n      swap2\n      sub\n      swap1\n      return\n        /* \"Ep6/example.sol\":1376:2173  function testScopeOfBase() public view {\r... */\n    tag_7:\n      tag_20\n      tag_21\n      jump\t// in\n    tag_20:\n      stop\n        /* \"Ep6/example.sol\":2215:3294  function testScopeOfBase0() public view {\r... */\n    tag_9:\n        /* \"Ep6/example.sol\":2476:2489  internalJob() */\n      tag_23\n        /* \"Ep6/example.sol\":2476:2487  internalJob */\n      tag_24\n        /* \"Ep6/example.sol\":2476:2489  internalJob() */\n      jump\t// in\n    tag_23:\n      pop\n        /* \"Ep6/example.sol\":2537:2548  publicJob() */\n      tag_25\n        /* \"Ep6/example.sol\":2537:2546  publicJob */\n      tag_15\n        /* \"Ep6/example.sol\":2537:2548  publicJob() */\n      jump\t// in\n    tag_25:\n      pop\n        /* \"Ep6/example.sol\":3155:3156  0 */\n      0x00\n        /* \"Ep6/example.sol\":3133:3144  internalMsg */\n      0x01\n        /* \"Ep6/example.sol\":3127:3152  bytes(internalMsg).length */\n      dup1\n      sload\n      tag_26\n      swap1\n      tag_27\n      jump\t// in\n    tag_26:\n      swap1\n      pop\n        /* \"Ep6/example.sol\":3127:3156  bytes(internalMsg).length > 0 */\n      gt\n        /* \"Ep6/example.sol\":3119:3198  require(bytes(internalMsg).length > 0, \"cannot access internal state variable\") */\n      tag_28\n      jumpi\n      mload(0x40)\n      0x08c379a000000000000000000000000000000000000000000000000000000000\n      dup2\n      mstore\n      0x04\n      add\n      tag_29\n      swap1\n      tag_30\n      jump\t// in\n    tag_29:\n      mload(0x40)\n      dup1\n      swap2\n      sub\n      swap1\n      revert\n    tag_28:\n        /* \"Ep6/example.sol\":3245:3246  0 */\n      0x00\n        /* \"Ep6/example.sol\":3225:3234  publicMsg */\n      0x02\n        /* \"Ep6/example.sol\":3219:3242  bytes(publicMsg).length */\n      dup1\n      sload\n      tag_31\n      swap1\n      tag_27\n      jump\t// in\n    tag_31:\n      swap1\n      pop\n        /* \"Ep6/example.sol\":3219:3246  bytes(publicMsg).length > 0 */\n      gt\n        /* \"Ep6/example.sol\":3211:3286  require(bytes(publicMsg).length > 0, \"cannot access public state variable\") */\n      tag_32\n      jumpi\n      mload(0x40)\n      0x08c379a000000000000000000000000000000000000000000000000000000000\n      dup2\n      mstore\n      0x04\n      add\n      tag_33\n      swap1\n      tag_34\n      jump\t// in\n    tag_33:\n      mload(0x40)\n      dup1\n      swap2\n      sub\n      swap1\n      revert\n    tag_32:\n        /* \"Ep6/example.sol\":2215:3294  function testScopeOfBase0() public view {\r... */\n      jump\t// out\n        /* \"Ep6/example.sol\":1258:1366  function externalJob() external pure returns (string memory) {\r... */\n    tag_11:\n        /* \"Ep6/example.sol\":1304:1317  string memory */\n      0x60\n        /* \"Ep6/example.sol\":1330:1358  return \"external job called\" */\n      mload(0x40)\n      dup1\n      0x40\n      add\n      0x40\n      mstore\n      dup1\n      0x13\n      dup2\n      mstore\n      0x20\n      add\n      0x65787465726e616c206a6f622063616c6c656400000000000000000000000000\n      dup2\n      mstore\n      pop\n      swap1\n      pop\n        /* \"Ep6/example.sol\":1258:1366  function externalJob() external pure returns (string memory) {\r... */\n      swap1\n      jump\t// out\n        /* \"Ep6/example.sol\":1103:1205  function publicJob() public pure returns (string memory) {\r... */\n    tag_15:\n        /* \"Ep6/example.sol\":1145:1158  string memory */\n      0x60\n        /* \"Ep6/example.sol\":1171:1197  return \"public job called\" */\n      mload(0x40)\n      dup1\n      0x40\n      add\n      0x40\n      mstore\n      dup1\n      0x11\n      dup2\n      mstore\n      0x20\n      add\n      0x7075626c6963206a6f622063616c6c6564000000000000000000000000000000\n      dup2\n      mstore\n      pop\n      swap1\n      pop\n        /* \"Ep6/example.sol\":1103:1205  function publicJob() public pure returns (string memory) {\r... */\n      swap1\n      jump\t// out\n        /* \"Ep6/example.sol\":525:575  string public publicMsg = \"public state variables\" */\n    tag_18:\n      0x02\n      dup1\n      sload\n      tag_37\n      swap1\n      tag_27\n      jump\t// in\n    tag_37:\n      dup1\n      0x1f\n      add\n      0x20\n      dup1\n      swap2\n      div\n      mul\n      0x20\n      add\n      mload(0x40)\n      swap1\n      dup2\n      add\n      0x40\n      mstore\n      dup1\n      swap3\n      swap2\n      swap1\n      dup2\n      dup2\n      mstore\n      0x20\n      add\n      dup3\n      dup1\n      sload\n      tag_38\n      swap1\n      tag_27\n      jump\t// in\n    tag_38:\n      dup1\n      iszero\n      tag_39\n      jumpi\n      dup1\n      0x1f\n      lt\n      tag_40\n      jumpi\n      0x0100\n      dup1\n      dup4\n      sload\n      div\n      mul\n      dup4\n      mstore\n      swap2\n      0x20\n      add\n      swap2\n      jump(tag_39)\n    tag_40:\n      dup3\n      add\n      swap2\n      swap1\n      0x00\n      mstore\n      keccak256(0x00, 0x20)\n      swap1\n    tag_41:\n      dup2\n      sload\n      dup2\n      mstore\n      swap1\n      0x01\n      add\n      swap1\n      0x20\n      add\n      dup1\n      dup4\n      gt\n      tag_41\n      jumpi\n      dup3\n      swap1\n      sub\n      0x1f\n      and\n      dup3\n      add\n      swap2\n    tag_39:\n      pop\n      pop\n      pop\n      pop\n      pop\n      dup2\n      jump\t// out\n        /* \"Ep6/example.sol\":1376:2173  function testScopeOfBase() public view {\r... */\n    tag_21:\n        /* \"Ep6/example.sol\":1460:1472  privateJob() */\n      tag_43\n        /* \"Ep6/example.sol\":1460:1470  privateJob */\n      tag_44\n        /* \"Ep6/example.sol\":1460:1472  privateJob() */\n      jump\t// in\n    tag_43:\n      pop\n        /* \"Ep6/example.sol\":1519:1532  internalJob() */\n      tag_45\n        /* \"Ep6/example.sol\":1519:1530  internalJob */\n      tag_24\n        /* \"Ep6/example.sol\":1519:1532  internalJob() */\n      jump\t// in\n    tag_45:\n      pop\n        /* \"Ep6/example.sol\":1579:1590  publicJob() */\n      tag_46\n        /* \"Ep6/example.sol\":1579:1588  publicJob */\n      tag_15\n        /* \"Ep6/example.sol\":1579:1590  publicJob() */\n      jump\t// in\n    tag_46:\n      pop\n        /* \"Ep6/example.sol\":1943:1944  0 */\n      0x00\n        /* \"Ep6/example.sol\":1922:1932  privateMsg */\n      dup1\n        /* \"Ep6/example.sol\":1916:1940  bytes(privateMsg).length */\n      dup1\n      sload\n      tag_47\n      swap1\n      tag_27\n      jump\t// in\n    tag_47:\n      swap1\n      pop\n        /* \"Ep6/example.sol\":1916:1944  bytes(privateMsg).length > 0 */\n      gt\n        /* \"Ep6/example.sol\":1908:1985  require(bytes(privateMsg).length > 0, \"cannot access private state variable\") */\n      tag_48\n      jumpi\n      mload(0x40)\n      0x08c379a000000000000000000000000000000000000000000000000000000000\n      dup2\n      mstore\n      0x04\n      add\n      tag_49\n      swap1\n      tag_50\n      jump\t// in\n    tag_49:\n      mload(0x40)\n      dup1\n      swap2\n      sub\n      swap1\n      revert\n    tag_48:\n        /* \"Ep6/example.sol\":2034:2035  0 */\n      0x00\n        /* \"Ep6/example.sol\":2012:2023  internalMsg */\n      0x01\n        /* \"Ep6/example.sol\":2006:2031  bytes(internalMsg).length */\n      dup1\n      sload\n      tag_51\n      swap1\n      tag_27\n      jump\t// in\n    tag_51:\n      swap1\n      pop\n        /* \"Ep6/example.sol\":2006:2035  bytes(internalMsg).length > 0 */\n      gt\n        /* \"Ep6/example.sol\":1998:2077  require(bytes(internalMsg).length > 0, \"cannot access internal state variable\") */\n      tag_52\n      jumpi\n      mload(0x40)\n      0x08c379a000000000000000000000000000000000000000000000000000000000\n      dup2\n      mstore\n      0x04\n      add\n      tag_53\n      swap1\n      tag_30\n      jump\t// in\n    tag_53:\n      mload(0x40)\n      dup1\n      swap2\n      sub\n      swap1\n      revert\n    tag_52:\n        /* \"Ep6/example.sol\":2124:2125  0 */\n      0x00\n        /* \"Ep6/example.sol\":2104:2113  publicMsg */\n      0x02\n        /* \"Ep6/example.sol\":2098:2121  bytes(publicMsg).length */\n      dup1\n      sload\n      tag_54\n      swap1\n      tag_27\n      jump\t// in\n    tag_54:\n      swap1\n      pop\n        /* \"Ep6/example.sol\":2098:2125  bytes(publicMsg).length > 0 */\n      gt\n        /* \"Ep6/example.sol\":2090:2165  require(bytes(publicMsg).length > 0, \"cannot access public state variable\") */\n      tag_55\n      jumpi\n      mload(0x40)\n      0x08c379a000000000000000000000000000000000000000000000000000000000\n      dup2\n      mstore\n      0x04\n      add\n      tag_56\n      swap1\n      tag_34\n      jump\t// in\n    tag_56:\n      mload(0x40)\n      dup1\n      swap2\n      sub\n      swap1\n      revert\n    tag_55:\n        /* \"Ep6/example.sol\":1376:2173  function testScopeOfBase() public view {\r... */\n      jump\t// out\n        /* \"Ep6/example.sol\":850:958  function internalJob() internal pure returns (string memory) {\r... */\n    tag_24:\n        /* \"Ep6/example.sol\":896:909  string memory */\n      0x60\n        /* \"Ep6/example.sol\":922:950  return \"internal job called\" */\n      mload(0x40)\n      dup1\n      0x40\n      add\n      0x40\n      mstore\n      dup1\n      0x13\n      dup2\n      mstore\n      0x20\n      add\n      0x696e7465726e616c206a6f622063616c6c656400000000000000000000000000\n      dup2\n      mstore\n      pop\n      swap1\n      pop\n        /* \"Ep6/example.sol\":850:958  function internalJob() internal pure returns (string memory) {\r... */\n      swap1\n      jump\t// out\n        /* \"Ep6/example.sol\":633:737  function privateJob() private pure returns(string memory) {\r... */\n    tag_44:\n        /* \"Ep6/example.sol\":676:689  string memory */\n      0x60\n        /* \"Ep6/example.sol\":702:729  return \"private job called\" */\n      mload(0x40)\n      dup1\n      0x40\n      add\n      0x40\n      mstore\n      dup1\n      0x12\n      dup2\n      mstore\n      0x20\n      add\n      0x70726976617465206a6f622063616c6c65640000000000000000000000000000\n      dup2\n      mstore\n      pop\n      swap1\n      pop\n        /* \"Ep6/example.sol\":633:737  function privateJob() private pure returns(string memory) {\r... */\n      swap1\n      jump\t// out\n        /* \"#utility.yul\":7:371   */\n    tag_60:\n        /* \"#utility.yul\":95:98   */\n      0x00\n        /* \"#utility.yul\":123:162   */\n      tag_62\n        /* \"#utility.yul\":156:161   */\n      dup3\n        /* \"#utility.yul\":123:162   */\n      tag_63\n      jump\t// in\n    tag_62:\n        /* \"#utility.yul\":178:249   */\n      tag_64\n        /* \"#utility.yul\":242:248   */\n      dup2\n        /* \"#utility.yul\":237:240   */\n      dup6\n        /* \"#utility.yul\":178:249   */\n      tag_65\n      jump\t// in\n    tag_64:\n        /* \"#utility.yul\":171:249   */\n      swap4\n      pop\n        /* \"#utility.yul\":258:310   */\n      tag_66\n        /* \"#utility.yul\":303:309   */\n      dup2\n        /* \"#utility.yul\":298:301   */\n      dup6\n        /* \"#utility.yul\":291:295   */\n      0x20\n        /* \"#utility.yul\":284:289   */\n      dup7\n        /* \"#utility.yul\":280:296   */\n      add\n        /* \"#utility.yul\":258:310   */\n      tag_67\n      jump\t// in\n    tag_66:\n        /* \"#utility.yul\":335:364   */\n      tag_68\n        /* \"#utility.yul\":357:363   */\n      dup2\n        /* \"#utility.yul\":335:364   */\n      tag_69\n      jump\t// in\n    tag_68:\n        /* \"#utility.yul\":330:333   */\n      dup5\n        /* \"#utility.yul\":326:365   */\n      add\n        /* \"#utility.yul\":319:365   */\n      swap2\n      pop\n        /* \"#utility.yul\":99:371   */\n      pop\n        /* \"#utility.yul\":7:371   */\n      swap3\n      swap2\n      pop\n      pop\n      jump\t// out\n        /* \"#utility.yul\":377:743   */\n    tag_70:\n        /* \"#utility.yul\":519:522   */\n      0x00\n        /* \"#utility.yul\":540:607   */\n      tag_72\n        /* \"#utility.yul\":604:606   */\n      0x25\n        /* \"#utility.yul\":599:602   */\n      dup4\n        /* \"#utility.yul\":540:607   */\n      tag_65\n      jump\t// in\n    tag_72:\n        /* \"#utility.yul\":533:607   */\n      swap2\n      pop\n        /* \"#utility.yul\":616:709   */\n      tag_73\n        /* \"#utility.yul\":705:708   */\n      dup3\n        /* \"#utility.yul\":616:709   */\n      tag_74\n      jump\t// in\n    tag_73:\n        /* \"#utility.yul\":734:736   */\n      0x40\n        /* \"#utility.yul\":729:732   */\n      dup3\n        /* \"#utility.yul\":725:737   */\n      add\n        /* \"#utility.yul\":718:737   */\n      swap1\n      pop\n        /* \"#utility.yul\":377:743   */\n      swap2\n      swap1\n      pop\n      jump\t// out\n        /* \"#utility.yul\":749:1115   */\n    tag_75:\n        /* \"#utility.yul\":891:894   */\n      0x00\n        /* \"#utility.yul\":912:979   */\n      tag_77\n        /* \"#utility.yul\":976:978   */\n      0x24\n        /* \"#utility.yul\":971:974   */\n      dup4\n        /* \"#utility.yul\":912:979   */\n      tag_65\n      jump\t// in\n    tag_77:\n        /* \"#utility.yul\":905:979   */\n      swap2\n      pop\n        /* \"#utility.yul\":988:1081   */\n      tag_78\n        /* \"#utility.yul\":1077:1080   */\n      dup3\n        /* \"#utility.yul\":988:1081   */\n      tag_79\n      jump\t// in\n    tag_78:\n        /* \"#utility.yul\":1106:1108   */\n      0x40\n        /* \"#utility.yul\":1101:1104   */\n      dup3\n        /* \"#utility.yul\":1097:1109   */\n      add\n        /* \"#utility.yul\":1090:1109   */\n      swap1\n      pop\n        /* \"#utility.yul\":749:1115   */\n      swap2\n      swap1\n      pop\n      jump\t// out\n        /* \"#utility.yul\":1121:1487   */\n    tag_80:\n        /* \"#utility.yul\":1263:1266   */\n      0x00\n        /* \"#utility.yul\":1284:1351   */\n      tag_82\n        /* \"#utility.yul\":1348:1350   */\n      0x23\n        /* \"#utility.yul\":1343:1346   */\n      dup4\n        /* \"#utility.yul\":1284:1351   */\n      tag_65\n      jump\t// in\n    tag_82:\n        /* \"#utility.yul\":1277:1351   */\n      swap2\n      pop\n        /* \"#utility.yul\":1360:1453   */\n      tag_83\n        /* \"#utility.yul\":1449:1452   */\n      dup3\n        /* \"#utility.yul\":1360:1453   */\n      tag_84\n      jump\t// in\n    tag_83:\n        /* \"#utility.yul\":1478:1480   */\n      0x40\n        /* \"#utility.yul\":1473:1476   */\n      dup3\n        /* \"#utility.yul\":1469:1481   */\n      add\n        /* \"#utility.yul\":1462:1481   */\n      swap1\n      pop\n        /* \"#utility.yul\":1121:1487   */\n      swap2\n      swap1\n      pop\n      jump\t// out\n        /* \"#utility.yul\":1493:1806   */\n    tag_13:\n        /* \"#utility.yul\":1606:1610   */\n      0x00\n        /* \"#utility.yul\":1644:1646   */\n      0x20\n        /* \"#utility.yul\":1633:1642   */\n      dup3\n        /* \"#utility.yul\":1629:1647   */\n      add\n        /* \"#utility.yul\":1621:1647   */\n      swap1\n      pop\n        /* \"#utility.yul\":1693:1702   */\n      dup2\n        /* \"#utility.yul\":1687:1691   */\n      dup2\n        /* \"#utility.yul\":1683:1703   */\n      sub\n        /* \"#utility.yul\":1679:1680   */\n      0x00\n        /* \"#utility.yul\":1668:1677   */\n      dup4\n        /* \"#utility.yul\":1664:1681   */\n      add\n        /* \"#utility.yul\":1657:1704   */\n      mstore\n        /* \"#utility.yul\":1721:1799   */\n      tag_86\n        /* \"#utility.yul\":1794:1798   */\n      dup2\n        /* \"#utility.yul\":1785:1791   */\n      dup5\n        /* \"#utility.yul\":1721:1799   */\n      tag_60\n      jump\t// in\n    tag_86:\n        /* \"#utility.yul\":1713:1799   */\n      swap1\n      pop\n        /* \"#utility.yul\":1493:1806   */\n      swap3\n      swap2\n      pop\n      pop\n      jump\t// out\n        /* \"#utility.yul\":1812:2231   */\n    tag_30:\n        /* \"#utility.yul\":1978:1982   */\n      0x00\n        /* \"#utility.yul\":2016:2018   */\n      0x20\n        /* \"#utility.yul\":2005:2014   */\n      dup3\n        /* \"#utility.yul\":2001:2019   */\n      add\n        /* \"#utility.yul\":1993:2019   */\n      swap1\n      pop\n        /* \"#utility.yul\":2065:2074   */\n      dup2\n        /* \"#utility.yul\":2059:2063   */\n      dup2\n        /* \"#utility.yul\":2055:2075   */\n      sub\n        /* \"#utility.yul\":2051:2052   */\n      0x00\n        /* \"#utility.yul\":2040:2049   */\n      dup4\n        /* \"#utility.yul\":2036:2053   */\n      add\n        /* \"#utility.yul\":2029:2076   */\n      mstore\n        /* \"#utility.yul\":2093:2224   */\n      tag_88\n        /* \"#utility.yul\":2219:2223   */\n      dup2\n        /* \"#utility.yul\":2093:2224   */\n      tag_70\n      jump\t// in\n    tag_88:\n        /* \"#utility.yul\":2085:2224   */\n      swap1\n      pop\n        /* \"#utility.yul\":1812:2231   */\n      swap2\n      swap1\n      pop\n      jump\t// out\n        /* \"#utility.yul\":2237:2656   */\n    tag_50:\n        /* \"#utility.yul\":2403:2407   */\n      0x00\n        /* \"#utility.yul\":2441:2443   */\n      0x20\n        /* \"#utility.yul\":2430:2439   */\n      dup3\n        /* \"#utility.yul\":2426:2444   */\n      add\n        /* \"#utility.yul\":2418:2444   */\n      swap1\n      pop\n        /* \"#utility.yul\":2490:2499   */\n      dup2\n        /* \"#utility.yul\":2484:2488   */\n      dup2\n        /* \"#utility.yul\":2480:2500   */\n      sub\n        /* \"#utility.yul\":2476:2477   */\n      0x00\n        /* \"#utility.yul\":2465:2474   */\n      dup4\n        /* \"#utility.yul\":2461:2478   */\n      add\n        /* \"#utility.yul\":2454:2501   */\n      mstore\n        /* \"#utility.yul\":2518:2649   */\n      tag_90\n        /* \"#utility.yul\":2644:2648   */\n      dup2\n        /* \"#utility.yul\":2518:2649   */\n      tag_75\n      jump\t// in\n    tag_90:\n        /* \"#utility.yul\":2510:2649   */\n      swap1\n      pop\n        /* \"#utility.yul\":2237:2656   */\n      swap2\n      swap1\n      pop\n      jump\t// out\n        /* \"#utility.yul\":2662:3081   */\n    tag_34:\n        /* \"#utility.yul\":2828:2832   */\n      0x00\n        /* \"#utility.yul\":2866:2868   */\n      0x20\n        /* \"#utility.yul\":2855:2864   */\n      dup3\n        /* \"#utility.yul\":2851:2869   */\n      add\n        /* \"#utility.yul\":2843:2869   */\n      swap1\n      pop\n        /* \"#utility.yul\":2915:2924   */\n      dup2\n        /* \"#utility.yul\":2909:2913   */\n      dup2\n        /* \"#utility.yul\":2905:2925   */\n      sub\n        /* \"#utility.yul\":2901:2902   */\n      0x00\n        /* \"#utility.yul\":2890:2899   */\n      dup4\n        /* \"#utility.yul\":2886:2903   */\n      add\n        /* \"#utility.yul\":2879:2926   */\n      mstore\n        /* \"#utility.yul\":2943:3074   */\n      tag_92\n        /* \"#utility.yul\":3069:3073   */\n      dup2\n        /* \"#utility.yul\":2943:3074   */\n      tag_80\n      jump\t// in\n    tag_92:\n        /* \"#utility.yul\":2935:3074   */\n      swap1\n      pop\n        /* \"#utility.yul\":2662:3081   */\n      swap2\n      swap1\n      pop\n      jump\t// out\n        /* \"#utility.yul\":3087:3186   */\n    tag_63:\n        /* \"#utility.yul\":3139:3145   */\n      0x00\n        /* \"#utility.yul\":3173:3178   */\n      dup2\n        /* \"#utility.yul\":3167:3179   */\n      mload\n        /* \"#utility.yul\":3157:3179   */\n      swap1\n      pop\n        /* \"#utility.yul\":3087:3186   */\n      swap2\n      swap1\n      pop\n      jump\t// out\n        /* \"#utility.yul\":3192:3361   */\n    tag_65:\n        /* \"#utility.yul\":3276:3287   */\n      0x00\n        /* \"#utility.yul\":3310:3316   */\n      dup3\n        /* \"#utility.yul\":3305:3308   */\n      dup3\n        /* \"#utility.yul\":3298:3317   */\n      mstore\n        /* \"#utility.yul\":3350:3354   */\n      0x20\n        /* \"#utility.yul\":3345:3348   */\n      dup3\n        /* \"#utility.yul\":3341:3355   */\n      add\n        /* \"#utility.yul\":3326:3355   */\n      swap1\n      pop\n        /* \"#utility.yul\":3192:3361   */\n      swap3\n      swap2\n      pop\n      pop\n      jump\t// out\n        /* \"#utility.yul\":3367:3674   */\n    tag_67:\n        /* \"#utility.yul\":3435:3436   */\n      0x00\n        /* \"#utility.yul\":3445:3558   */\n    tag_96:\n        /* \"#utility.yul\":3459:3465   */\n      dup4\n        /* \"#utility.yul\":3456:3457   */\n      dup2\n        /* \"#utility.yul\":3453:3466   */\n      lt\n        /* \"#utility.yul\":3445:3558   */\n      iszero\n      tag_98\n      jumpi\n        /* \"#utility.yul\":3544:3545   */\n      dup1\n        /* \"#utility.yul\":3539:3542   */\n      dup3\n        /* \"#utility.yul\":3535:3546   */\n      add\n        /* \"#utility.yul\":3529:3547   */\n      mload\n        /* \"#utility.yul\":3525:3526   */\n      dup2\n        /* \"#utility.yul\":3520:3523   */\n      dup5\n        /* \"#utility.yul\":3516:3527   */\n      add\n        /* \"#utility.yul\":3509:3548   */\n      mstore\n        /* \"#utility.yul\":3481:3483   */\n      0x20\n        /* \"#utility.yul\":3478:3479   */\n      dup2\n        /* \"#utility.yul\":3474:3484   */\n      add\n        /* \"#utility.yul\":3469:3484   */\n      swap1\n      pop\n        /* \"#utility.yul\":3445:3558   */\n      jump(tag_96)\n    tag_98:\n        /* \"#utility.yul\":3576:3582   */\n      dup4\n        /* \"#utility.yul\":3573:3574   */\n      dup2\n        /* \"#utility.yul\":3570:3583   */\n      gt\n        /* \"#utility.yul\":3567:3668   */\n      iszero\n      tag_99\n      jumpi\n        /* \"#utility.yul\":3656:3657   */\n      0x00\n        /* \"#utility.yul\":3647:3653   */\n      dup5\n        /* \"#utility.yul\":3642:3645   */\n      dup5\n        /* \"#utility.yul\":3638:3654   */\n      add\n        /* \"#utility.yul\":3631:3658   */\n      mstore\n        /* \"#utility.yul\":3567:3668   */\n    tag_99:\n        /* \"#utility.yul\":3416:3674   */\n      pop\n        /* \"#utility.yul\":3367:3674   */\n      pop\n      pop\n      pop\n      jump\t// out\n        /* \"#utility.yul\":3680:4000   */\n    tag_27:\n        /* \"#utility.yul\":3724:3730   */\n      0x00\n        /* \"#utility.yul\":3761:3762   */\n      0x02\n        /* \"#utility.yul\":3755:3759   */\n      dup3\n        /* \"#utility.yul\":3751:3763   */\n      div\n        /* \"#utility.yul\":3741:3763   */\n      swap1\n      pop\n        /* \"#utility.yul\":3808:3809   */\n      0x01\n        /* \"#utility.yul\":3802:3806   */\n      dup3\n        /* \"#utility.yul\":3798:3810   */\n      and\n        /* \"#utility.yul\":3829:3847   */\n      dup1\n        /* \"#utility.yul\":3819:3900   */\n      tag_101\n      jumpi\n        /* \"#utility.yul\":3885:3889   */\n      0x7f\n        /* \"#utility.yul\":3877:3883   */\n      dup3\n        /* \"#utility.yul\":3873:3890   */\n      and\n        /* \"#utility.yul\":3863:3890   */\n      swap2\n      pop\n        /* \"#utility.yul\":3819:3900   */\n    tag_101:\n        /* \"#utility.yul\":3947:3949   */\n      0x20\n        /* \"#utility.yul\":3939:3945   */\n      dup3\n        /* \"#utility.yul\":3936:3950   */\n      lt\n        /* \"#utility.yul\":3916:3934   */\n      dup2\n        /* \"#utility.yul\":3913:3951   */\n      eq\n        /* \"#utility.yul\":3910:3994   */\n      iszero\n      tag_102\n      jumpi\n        /* \"#utility.yul\":3966:3984   */\n      tag_103\n      tag_104\n      jump\t// in\n    tag_103:\n        /* \"#utility.yul\":3910:3994   */\n    tag_102:\n        /* \"#utility.yul\":3731:4000   */\n      pop\n        /* \"#utility.yul\":3680:4000   */\n      swap2\n      swap1\n      pop\n      jump\t// out\n        /* \"#utility.yul\":4006:4186   */\n    tag_104:\n        /* \"#utility.yul\":4054:4131   */\n      0x4e487b7100000000000000000000000000000000000000000000000000000000\n        /* \"#utility.yul\":4051:4052   */\n      0x00\n        /* \"#utility.yul\":4044:4132   */\n      mstore\n        /* \"#utility.yul\":4151:4155   */\n      0x22\n        /* \"#utility.yul\":4148:4149   */\n      0x04\n        /* \"#utility.yul\":4141:4156   */\n      mstore\n        /* \"#utility.yul\":4175:4179   */\n      0x24\n        /* \"#utility.yul\":4172:4173   */\n      0x00\n        /* \"#utility.yul\":4165:4180   */\n      revert\n        /* \"#utility.yul\":4192:4294   */\n    tag_69:\n        /* \"#utility.yul\":4233:4239   */\n      0x00\n        /* \"#utility.yul\":4284:4286   */\n      0x1f\n        /* \"#utility.yul\":4280:4287   */\n      not\n        /* \"#utility.yul\":4275:4277   */\n      0x1f\n        /* \"#utility.yul\":4268:4273   */\n      dup4\n        /* \"#utility.yul\":4264:4278   */\n      add\n        /* \"#utility.yul\":4260:4288   */\n      and\n        /* \"#utility.yul\":4250:4288   */\n      swap1\n      pop\n        /* \"#utility.yul\":4192:4294   */\n      swap2\n      swap1\n      pop\n      jump\t// out\n        /* \"#utility.yul\":4300:4524   */\n    tag_74:\n        /* \"#utility.yul\":4440:4474   */\n      0x63616e6e6f742061636365737320696e7465726e616c20737461746520766172\n        /* \"#utility.yul\":4436:4437   */\n      0x00\n        /* \"#utility.yul\":4428:4434   */\n      dup3\n        /* \"#utility.yul\":4424:4438   */\n      add\n        /* \"#utility.yul\":4417:4475   */\n      mstore\n        /* \"#utility.yul\":4509:4516   */\n      0x6961626c65000000000000000000000000000000000000000000000000000000\n        /* \"#utility.yul\":4504:4506   */\n      0x20\n        /* \"#utility.yul\":4496:4502   */\n      dup3\n        /* \"#utility.yul\":4492:4507   */\n      add\n        /* \"#utility.yul\":4485:4517   */\n      mstore\n        /* \"#utility.yul\":4300:4524   */\n      pop\n      jump\t// out\n        /* \"#utility.yul\":4530:4753   */\n    tag_79:\n        /* \"#utility.yul\":4670:4704   */\n      0x63616e6e6f742061636365737320707269766174652073746174652076617269\n        /* \"#utility.yul\":4666:4667   */\n      0x00\n        /* \"#utility.yul\":4658:4664   */\n      dup3\n        /* \"#utility.yul\":4654:4668   */\n      add\n        /* \"#utility.yul\":4647:4705   */\n      mstore\n        /* \"#utility.yul\":4739:4745   */\n      0x61626c6500000000000000000000000000000000000000000000000000000000\n        /* \"#utility.yul\":4734:4736   */\n      0x20\n        /* \"#utility.yul\":4726:4732   */\n      dup3\n        /* \"#utility.yul\":4722:4737   */\n      add\n        /* \"#utility.yul\":4715:4746   */\n      mstore\n        /* \"#utility.yul\":4530:4753   */\n      pop\n      jump\t// out\n        /* \"#utility.yul\":4759:4981   */\n    tag_84:\n        /* \"#utility.yul\":4899:4933   */\n      0x63616e6e6f7420616363657373207075626c6963207374617465207661726961\n        /* \"#utility.yul\":4895:4896   */\n      0x00\n        /* \"#utility.yul\":4887:4893   */\n      dup3\n        /* \"#utility.yul\":4883:4897   */\n      add\n        /* \"#utility.yul\":4876:4934   */\n      mstore\n        /* \"#utility.yul\":4968:4973   */\n      0x626c650000000000000000000000000000000000000000000000000000000000\n        /* \"#utility.yul\":4963:4965   */\n      0x20\n        /* \"#utility.yul\":4955:4961   */\n      dup3\n        /* \"#utility.yul\":4951:4966   */\n      add\n        /* \"#utility.yul\":4944:4974   */\n      mstore\n        /* \"#utility.yul\":4759:4981   */\n      pop\n      jump\t// out\n\n    auxdata: 0xa2646970667358221220aa1fdeabedca67d494795a353633aed55ee75176fa90f4eab976b51eda41d89f64736f6c63430008070033\n}\n",
				"bytecode": {
					"linkReferences": {},
					"object": "60806040526040518060400160405280601781526020017f70726976617465207374617465207661726961626c65730000000000000000008152506000908051906020019061004f9291906100fa565b506040518060400160405280601881526020017f696e7465726e616c207374617465207661726961626c657300000000000000008152506001908051906020019061009b9291906100fa565b506040518060400160405280601681526020017f7075626c6963207374617465207661726961626c657300000000000000000000815250600290805190602001906100e79291906100fa565b503480156100f457600080fd5b506101fe565b8280546101069061019d565b90600052602060002090601f016020900481019282610128576000855561016f565b82601f1061014157805160ff191683800117855561016f565b8280016001018555821561016f579182015b8281111561016e578251825591602001919060010190610153565b5b50905061017c9190610180565b5090565b5b80821115610199576000816000905550600101610181565b5090565b600060028204905060018216806101b557607f821691505b602082108114156101c9576101c86101cf565b5b50919050565b7f4e487b7100000000000000000000000000000000000000000000000000000000600052602260045260246000fd5b6107198061020d6000396000f3fe608060405234801561001057600080fd5b50600436106100575760003560e01c80634492288c1461005c578063628e6fa114610066578063a23a028b14610084578063c6c41055146100a2578063ce283084146100c0575b600080fd5b6100646100ca565b005b61006e610180565b60405161007b91906104b3565b60405180910390f35b61008c6101bd565b60405161009991906104b3565b60405180910390f35b6100aa6101fa565b6040516100b791906104b3565b60405180910390f35b6100c8610288565b005b6100d2610397565b506100db6101bd565b506000600180546100eb90610584565b90501161012d576040517f08c379a0000000000000000000000000000000000000000000000000000000008152600401610124906104d5565b60405180910390fd5b60006002805461013c90610584565b90501161017e576040517f08c379a000000000000000000000000000000000000000000000000000000000815260040161017590610515565b60405180910390fd5b565b60606040518060400160405280601381526020017f65787465726e616c206a6f622063616c6c656400000000000000000000000000815250905090565b60606040518060400160405280601181526020017f7075626c6963206a6f622063616c6c6564000000000000000000000000000000815250905090565b6002805461020790610584565b80601f016020809104026020016040519081016040528092919081815260200182805461023390610584565b80156102805780601f1061025557610100808354040283529160200191610280565b820191906000526020600020905b81548152906001019060200180831161026357829003601f168201915b505050505081565b6102906103d4565b50610299610397565b506102a26101bd565b5060008080546102b190610584565b9050116102f3576040517f08c379a00000000000000000000000000000000000000000000000000000000081526004016102ea906104f5565b60405180910390fd5b60006001805461030290610584565b905011610344576040517f08c379a000000000000000000000000000000000000000000000000000000000815260040161033b906104d5565b60405180910390fd5b60006002805461035390610584565b905011610395576040517f08c379a000000000000000000000000000000000000000000000000000000000815260040161038c90610515565b60405180910390fd5b565b60606040518060400160405280601381526020017f696e7465726e616c206a6f622063616c6c656400000000000000000000000000815250905090565b60606040518060400160405280601281526020017f70726976617465206a6f622063616c6c65640000000000000000000000000000815250905090565b600061041c82610535565b6104268185610540565b9350610436818560208601610551565b61043f816105e5565b840191505092915050565b6000610457602583610540565b9150610462826105f6565b604082019050919050565b600061047a602483610540565b915061048582610645565b604082019050919050565b600061049d602383610540565b91506104a882610694565b604082019050919050565b600060208201905081810360008301526104cd8184610411565b905092915050565b600060208201905081810360008301526104ee8161044a565b9050919050565b6000602082019050818103600083015261050e8161046d565b9050919050565b6000602082019050818103600083015261052e81610490565b9050919050565b600081519050919050565b600082825260208201905092915050565b60005b8381101561056f578082015181840152602081019050610554565b8381111561057e576000848401525b50505050565b6000600282049050600182168061059c57607f821691505b602082108114156105b0576105af6105b6565b5b50919050565b7f4e487b7100000000000000000000000000000000000000000000000000000000600052602260045260246000fd5b6000601f19601f8301169050919050565b7f63616e6e6f742061636365737320696e7465726e616c2073746174652076617260008201527f6961626c65000000000000000000000000000000000000000000000000000000602082015250565b7f63616e6e6f74206163636573732070726976617465207374617465207661726960008201527f61626c6500000000000000000000000000000000000000000000000000000000602082015250565b7f63616e6e6f7420616363657373207075626c696320737461746520766172696160008201527f626c65000000000000000000000000000000000000000000000000000000000060208201525056fea2646970667358221220aa1fdeabedca67d494795a353633aed55ee75176fa90f4eab976b51eda41d89f64736f6c63430008070033",
					"opcodes": "PUSH1 0x80 PUSH1 0x40 MSTORE PUSH1 0x40 MLOAD DUP1 PUSH1 0x40 ADD PUSH1 0x40 MSTORE DUP1 PUSH1 0x17 DUP2 MSTORE PUSH1 0x20 ADD PUSH32 0x70726976617465207374617465207661726961626C6573000000000000000000 DUP2 MSTORE POP PUSH1 0x0 SWAP1 DUP1 MLOAD SWAP1 PUSH1 0x20 ADD SWAP1 PUSH2 0x4F SWAP3 SWAP2 SWAP1 PUSH2 0xFA JUMP JUMPDEST POP PUSH1 0x40 MLOAD DUP1 PUSH1 0x40 ADD PUSH1 0x40 MSTORE DUP1 PUSH1 0x18 DUP2 MSTORE PUSH1 0x20 ADD PUSH32 0x696E7465726E616C207374617465207661726961626C65730000000000000000 DUP2 MSTORE POP PUSH1 0x1 SWAP1 DUP1 MLOAD SWAP1 PUSH1 0x20 ADD SWAP1 PUSH2 0x9B SWAP3 SWAP2 SWAP1 PUSH2 0xFA JUMP JUMPDEST POP PUSH1 0x40 MLOAD DUP1 PUSH1 0x40 ADD PUSH1 0x40 MSTORE DUP1 PUSH1 0x16 DUP2 MSTORE PUSH1 0x20 ADD PUSH32 0x7075626C6963207374617465207661726961626C657300000000000000000000 DUP2 MSTORE POP PUSH1 0x2 SWAP1 DUP1 MLOAD SWAP1 PUSH1 0x20 ADD SWAP1 PUSH2 0xE7 SWAP3 SWAP2 SWAP1 PUSH2 0xFA JUMP JUMPDEST POP CALLVALUE DUP1 ISZERO PUSH2 0xF4 JUMPI PUSH1 0x0 DUP1 REVERT JUMPDEST POP PUSH2 0x1FE JUMP JUMPDEST DUP3 DUP1 SLOAD PUSH2 0x106 SWAP1 PUSH2 0x19D JUMP JUMPDEST SWAP1 PUSH1 0x0 MSTORE PUSH1 0x20 PUSH1 0x0 KECCAK256 SWAP1 PUSH1 0x1F ADD PUSH1 0x20 SWAP1 DIV DUP2 ADD SWAP3 DUP3 PUSH2 0x128 JUMPI PUSH1 0x0 DUP6 SSTORE PUSH2 0x16F JUMP JUMPDEST DUP3 PUSH1 0x1F LT PUSH2 0x141 JUMPI DUP1 MLOAD PUSH1 0xFF NOT AND DUP4 DUP1 ADD OR DUP6 SSTORE PUSH2 0x16F JUMP JUMPDEST DUP3 DUP1 ADD PUSH1 0x1 ADD DUP6 SSTORE DUP3 ISZERO PUSH2 0x16F JUMPI SWAP2 DUP3 ADD JUMPDEST DUP3 DUP2 GT ISZERO PUSH2 0x16E JUMPI DUP3 MLOAD DUP3 SSTORE SWAP2 PUSH1 0x20 ADD SWAP2 SWAP1 PUSH1 0x1 ADD SWAP1 PUSH2 0x153 JUMP JUMPDEST JUMPDEST POP SWAP1 POP PUSH2 0x17C SWAP2 SWAP1 PUSH2 0x180 JUMP JUMPDEST POP SWAP1 JUMP JUMPDEST JUMPDEST DUP1 DUP3 GT ISZERO PUSH2 0x199 JUMPI PUSH1 0x0 DUP2 PUSH1 0x0 SWAP1 SSTORE POP PUSH1 0x1 ADD PUSH2 0x181 JUMP JUMPDEST POP SWAP1 JUMP JUMPDEST PUSH1 0x0 PUSH1 0x2 DUP3 DIV SWAP1 POP PUSH1 0x1 DUP3 AND DUP1 PUSH2 0x1B5 JUMPI PUSH1 0x7F DUP3 AND SWAP2 POP JUMPDEST PUSH1 0x20 DUP3 LT DUP2 EQ ISZERO PUSH2 0x1C9 JUMPI PUSH2 0x1C8 PUSH2 0x1CF JUMP JUMPDEST JUMPDEST POP SWAP2 SWAP1 POP JUMP JUMPDEST PUSH32 0x4E487B7100000000000000000000000000000000000000000000000000000000 PUSH1 0x0 MSTORE PUSH1 0x22 PUSH1 0x4 MSTORE PUSH1 0x24 PUSH1 0x0 REVERT JUMPDEST PUSH2 0x719 DUP1 PUSH2 0x20D PUSH1 0x0 CODECOPY PUSH1 0x0 RETURN INVALID PUSH1 0x80 PUSH1 0x40 MSTORE CALLVALUE DUP1 ISZERO PUSH2 0x10 JUMPI PUSH1 0x0 DUP1 REVERT JUMPDEST POP PUSH1 0x4 CALLDATASIZE LT PUSH2 0x57 JUMPI PUSH1 0x0 CALLDATALOAD PUSH1 0xE0 SHR DUP1 PUSH4 0x4492288C EQ PUSH2 0x5C JUMPI DUP1 PUSH4 0x628E6FA1 EQ PUSH2 0x66 JUMPI DUP1 PUSH4 0xA23A028B EQ PUSH2 0x84 JUMPI DUP1 PUSH4 0xC6C41055 EQ PUSH2 0xA2 JUMPI DUP1 PUSH4 0xCE283084 EQ PUSH2 0xC0 JUMPI JUMPDEST PUSH1 0x0 DUP1 REVERT JUMPDEST PUSH2 0x64 PUSH2 0xCA JUMP JUMPDEST STOP JUMPDEST PUSH2 0x6E PUSH2 0x180 JUMP JUMPDEST PUSH1 0x40 MLOAD PUSH2 0x7B SWAP2 SWAP1 PUSH2 0x4B3 JUMP JUMPDEST PUSH1 0x40 MLOAD DUP1 SWAP2 SUB SWAP1 RETURN JUMPDEST PUSH2 0x8C PUSH2 0x1BD JUMP JUMPDEST PUSH1 0x40 MLOAD PUSH2 0x99 SWAP2 SWAP1 PUSH2 0x4B3 JUMP JUMPDEST PUSH1 0x40 MLOAD DUP1 SWAP2 SUB SWAP1 RETURN JUMPDEST PUSH2 0xAA PUSH2 0x1FA JUMP JUMPDEST PUSH1 0x40 MLOAD PUSH2 0xB7 SWAP2 SWAP1 PUSH2 0x4B3 JUMP JUMPDEST PUSH1 0x40 MLOAD DUP1 SWAP2 SUB SWAP1 RETURN JUMPDEST PUSH2 0xC8 PUSH2 0x288 JUMP JUMPDEST STOP JUMPDEST PUSH2 0xD2 PUSH2 0x397 JUMP JUMPDEST POP PUSH2 0xDB PUSH2 0x1BD JUMP JUMPDEST POP PUSH1 0x0 PUSH1 0x1 DUP1 SLOAD PUSH2 0xEB SWAP1 PUSH2 0x584 JUMP JUMPDEST SWAP1 POP GT PUSH2 0x12D JUMPI PUSH1 0x40 MLOAD PUSH32 0x8C379A000000000000000000000000000000000000000000000000000000000 DUP2 MSTORE PUSH1 0x4 ADD PUSH2 0x124 SWAP1 PUSH2 0x4D5 JUMP JUMPDEST PUSH1 0x40 MLOAD DUP1 SWAP2 SUB SWAP1 REVERT JUMPDEST PUSH1 0x0 PUSH1 0x2 DUP1 SLOAD PUSH2 0x13C SWAP1 PUSH2 0x584 JUMP JUMPDEST SWAP1 POP GT PUSH2 0x17E JUMPI PUSH1 0x40 MLOAD PUSH32 0x8C379A000000000000000000000000000000000000000000000000000000000 DUP2 MSTORE PUSH1 0x4 ADD PUSH2 0x175 SWAP1 PUSH2 0x515 JUMP JUMPDEST PUSH1 0x40 MLOAD DUP1 SWAP2 SUB SWAP1 REVERT JUMPDEST JUMP JUMPDEST PUSH1 0x60 PUSH1 0x40 MLOAD DUP1 PUSH1 0x40 ADD PUSH1 0x40 MSTORE DUP1 PUSH1 0x13 DUP2 MSTORE PUSH1 0x20 ADD PUSH32 0x65787465726E616C206A6F622063616C6C656400000000000000000000000000 DUP2 MSTORE POP SWAP1 POP SWAP1 JUMP JUMPDEST PUSH1 0x60 PUSH1 0x40 MLOAD DUP1 PUSH1 0x40 ADD PUSH1 0x40 MSTORE DUP1 PUSH1 0x11 DUP2 MSTORE PUSH1 0x20 ADD PUSH32 0x7075626C6963206A6F622063616C6C6564000000000000000000000000000000 DUP2 MSTORE POP SWAP1 POP SWAP1 JUMP JUMPDEST PUSH1 0x2 DUP1 SLOAD PUSH2 0x207 SWAP1 PUSH2 0x584 JUMP JUMPDEST DUP1 PUSH1 0x1F ADD PUSH1 0x20 DUP1 SWAP2 DIV MUL PUSH1 0x20 ADD PUSH1 0x40 MLOAD SWAP1 DUP2 ADD PUSH1 0x40 MSTORE DUP1 SWAP3 SWAP2 SWAP1 DUP2 DUP2 MSTORE PUSH1 0x20 ADD DUP3 DUP1 SLOAD PUSH2 0x233 SWAP1 PUSH2 0x584 JUMP JUMPDEST DUP1 ISZERO PUSH2 0x280 JUMPI DUP1 PUSH1 0x1F LT PUSH2 0x255 JUMPI PUSH2 0x100 DUP1 DUP4 SLOAD DIV MUL DUP4 MSTORE SWAP2 PUSH1 0x20 ADD SWAP2 PUSH2 0x280 JUMP JUMPDEST DUP3 ADD SWAP2 SWAP1 PUSH1 0x0 MSTORE PUSH1 0x20 PUSH1 0x0 KECCAK256 SWAP1 JUMPDEST DUP2 SLOAD DUP2 MSTORE SWAP1 PUSH1 0x1 ADD SWAP1 PUSH1 0x20 ADD DUP1 DUP4 GT PUSH2 0x263 JUMPI DUP3 SWAP1 SUB PUSH1 0x1F AND DUP3 ADD SWAP2 JUMPDEST POP POP POP POP POP DUP2 JUMP JUMPDEST PUSH2 0x290 PUSH2 0x3D4 JUMP JUMPDEST POP PUSH2 0x299 PUSH2 0x397 JUMP JUMPDEST POP PUSH2 0x2A2 PUSH2 0x1BD JUMP JUMPDEST POP PUSH1 0x0 DUP1 DUP1 SLOAD PUSH2 0x2B1 SWAP1 PUSH2 0x584 JUMP JUMPDEST SWAP1 POP GT PUSH2 0x2F3 JUMPI PUSH1 0x40 MLOAD PUSH32 0x8C379A000000000000000000000000000000000000000000000000000000000 DUP2 MSTORE PUSH1 0x4 ADD PUSH2 0x2EA SWAP1 PUSH2 0x4F5 JUMP JUMPDEST PUSH1 0x40 MLOAD DUP1 SWAP2 SUB SWAP1 REVERT JUMPDEST PUSH1 0x0 PUSH1 0x1 DUP1 SLOAD PUSH2 0x302 SWAP1 PUSH2 0x584 JUMP JUMPDEST SWAP1 POP GT PUSH2 0x344 JUMPI PUSH1 0x40 MLOAD PUSH32 0x8C379A000000000000000000000000000000000000000000000000000000000 DUP2 MSTORE PUSH1 0x4 ADD PUSH2 0x33B SWAP1 PUSH2 0x4D5 JUMP JUMPDEST PUSH1 0x40 MLOAD DUP1 SWAP2 SUB SWAP1 REVERT JUMPDEST PUSH1 0x0 PUSH1 0x2 DUP1 SLOAD PUSH2 0x353 SWAP1 PUSH2 0x584 JUMP JUMPDEST SWAP1 POP GT PUSH2 0x395 JUMPI PUSH1 0x40 MLOAD PUSH32 0x8C379A000000000000000000000000000000000000000000000000000000000 DUP2 MSTORE PUSH1 0x4 ADD PUSH2 0x38C SWAP1 PUSH2 0x515 JUMP JUMPDEST PUSH1 0x40 MLOAD DUP1 SWAP2 SUB SWAP1 REVERT JUMPDEST JUMP JUMPDEST PUSH1 0x60 PUSH1 0x40 MLOAD DUP1 PUSH1 0x40 ADD PUSH1 0x40 MSTORE DUP1 PUSH1 0x13 DUP2 MSTORE PUSH1 0x20 ADD PUSH32 0x696E7465726E616C206A6F622063616C6C656400000000000000000000000000 DUP2 MSTORE POP SWAP1 POP SWAP1 JUMP JUMPDEST PUSH1 0x60 PUSH1 0x40 MLOAD DUP1 PUSH1 0x40 ADD PUSH1 0x40 MSTORE DUP1 PUSH1 0x12 DUP2 MSTORE PUSH1 0x20 ADD PUSH32 0x70726976617465206A6F622063616C6C65640000000000000000000000000000 DUP2 MSTORE POP SWAP1 POP SWAP1 JUMP JUMPDEST PUSH1 0x0 PUSH2 0x41C DUP3 PUSH2 0x535 JUMP JUMPDEST PUSH2 0x426 DUP2 DUP6 PUSH2 0x540 JUMP JUMPDEST SWAP4 POP PUSH2 0x436 DUP2 DUP6 PUSH1 0x20 DUP7 ADD PUSH2 0x551 JUMP JUMPDEST PUSH2 0x43F DUP2 PUSH2 0x5E5 JUMP JUMPDEST DUP5 ADD SWAP2 POP POP SWAP3 SWAP2 POP POP JUMP JUMPDEST PUSH1 0x0 PUSH2 0x457 PUSH1 0x25 DUP4 PUSH2 0x540 JUMP JUMPDEST SWAP2 POP PUSH2 0x462 DUP3 PUSH2 0x5F6 JUMP JUMPDEST PUSH1 0x40 DUP3 ADD SWAP1 POP SWAP2 SWAP1 POP JUMP JUMPDEST PUSH1 0x0 PUSH2 0x47A PUSH1 0x24 DUP4 PUSH2 0x540 JUMP JUMPDEST SWAP2 POP PUSH2 0x485 DUP3 PUSH2 0x645 JUMP JUMPDEST PUSH1 0x40 DUP3 ADD SWAP1 POP SWAP2 SWAP1 POP JUMP JUMPDEST PUSH1 0x0 PUSH2 0x49D PUSH1 0x23 DUP4 PUSH2 0x540 JUMP JUMPDEST SWAP2 POP PUSH2 0x4A8 DUP3 PUSH2 0x694 JUMP JUMPDEST PUSH1 0x40 DUP3 ADD SWAP1 POP SWAP2 SWAP1 POP JUMP JUMPDEST PUSH1 0x0 PUSH1 0x20 DUP3 ADD SWAP1 POP DUP2 DUP2 SUB PUSH1 0x0 DUP4 ADD MSTORE PUSH2 0x4CD DUP2 DUP5 PUSH2 0x411 JUMP JUMPDEST SWAP1 POP SWAP3 SWAP2 POP POP JUMP JUMPDEST PUSH1 0x0 PUSH1 0x20 DUP3 ADD SWAP1 POP DUP2 DUP2 SUB PUSH1 0x0 DUP4 ADD MSTORE PUSH2 0x4EE DUP2 PUSH2 0x44A JUMP JUMPDEST SWAP1 POP SWAP2 SWAP1 POP JUMP JUMPDEST PUSH1 0x0 PUSH1 0x20 DUP3 ADD SWAP1 POP DUP2 DUP2 SUB PUSH1 0x0 DUP4 ADD MSTORE PUSH2 0x50E DUP2 PUSH2 0x46D JUMP JUMPDEST SWAP1 POP SWAP2 SWAP1 POP JUMP JUMPDEST PUSH1 0x0 PUSH1 0x20 DUP3 ADD SWAP1 POP DUP2 DUP2 SUB PUSH1 0x0 DUP4 ADD MSTORE PUSH2 0x52E DUP2 PUSH2 0x490 JUMP JUMPDEST SWAP1 POP SWAP2 SWAP1 POP JUMP JUMPDEST PUSH1 0x0 DUP2 MLOAD SWAP1 POP SWAP2 SWAP1 POP JUMP JUMPDEST PUSH1 0x0 DUP3 DUP3 MSTORE PUSH1 0x20 DUP3 ADD SWAP1 POP SWAP3 SWAP2 POP POP JUMP JUMPDEST PUSH1 0x0 JUMPDEST DUP4 DUP2 LT ISZERO PUSH2 0x56F JUMPI DUP1 DUP3 ADD MLOAD DUP2 DUP5 ADD MSTORE PUSH1 0x20 DUP2 ADD SWAP1 POP PUSH2 0x554 JUMP JUMPDEST DUP4 DUP2 GT ISZERO PUSH2 0x57E JUMPI PUSH1 0x0 DUP5 DUP5 ADD MSTORE JUMPDEST POP POP POP POP JUMP JUMPDEST PUSH1 0x0 PUSH1 0x2 DUP3 DIV SWAP1 POP PUSH1 0x1 DUP3 AND DUP1 PUSH2 0x59C JUMPI PUSH1 0x7F DUP3 AND SWAP2 POP JUMPDEST PUSH1 0x20 DUP3 LT DUP2 EQ ISZERO PUSH2 0x5B0 JUMPI PUSH2 0x5AF PUSH2 0x5B6 JUMP JUMPDEST JUMPDEST POP SWAP2 SWAP1 POP JUMP JUMPDEST PUSH32 0x4E487B7100000000000000000000000000000000000000000000000000000000 PUSH1 0x0 MSTORE PUSH1 0x22 PUSH1 0x4 MSTORE PUSH1 0x24 PUSH1 0x0 REVERT JUMPDEST PUSH1 0x0 PUSH1 0x1F NOT PUSH1 0x1F DUP4 ADD AND SWAP1 POP SWAP2 SWAP1 POP JUMP JUMPDEST PUSH32 0x63616E6E6F742061636365737320696E7465726E616C20737461746520766172 PUSH1 0x0 DUP3 ADD MSTORE PUSH32 0x6961626C65000000000000000000000000000000000000000000000000000000 PUSH1 0x20 DUP3 ADD MSTORE POP JUMP JUMPDEST PUSH32 0x63616E6E6F742061636365737320707269766174652073746174652076617269 PUSH1 0x0 DUP3 ADD MSTORE PUSH32 0x61626C6500000000000000000000000000000000000000000000000000000000 PUSH1 0x20 DUP3 ADD MSTORE POP JUMP JUMPDEST PUSH32 0x63616E6E6F7420616363657373207075626C6963207374617465207661726961 PUSH1 0x0 DUP3 ADD MSTORE PUSH32 0x626C650000000000000000000000000000000000000000000000000000000000 PUSH1 0x20 DUP3 ADD MSTORE POP JUMP INVALID LOG2 PUSH5 0x6970667358 0x22 SLT KECCAK256 0xAA 0x1F 0xDE 0xAB 0xED 0xCA PUSH8 0xD494795A353633AE 0xD5 0x5E 0xE7 MLOAD PUSH23 0xFA90F4EAB976B51EDA41D89F64736F6C63430008070033 "
				},
				"gasEstimates": {
					"creation": {
						"codeDepositCost": "363400",
						"executionCost": "infinite",
						"totalCost": "infinite"
					},
					"external": {
						"externalJob()": "infinite",
						"publicJob()": "infinite",
						"publicMsg()": "infinite",
						"testScopeOfBase()": "infinite",
						"testScopeOfBase0()": "infinite"
					}
				},
				"methodIdentifiers": {
					"externalJob()": "628e6fa1",
					"publicJob()": "a23a028b",
					"publicMsg()": "c6c41055",
					"testScopeOfBase()": "ce283084",
					"testScopeOfBase0()": "4492288c"
				}
			},
			"storageLayout": {
				"storage": [
					{
						"astId": 4,
						"contract": "Ep6/example.sol:Base0",
						"label": "privateMsg",
						"offset": 0,
						"slot": "0",
						"type": "t_string_storage"
					},
					{
						"astId": 7,
						"contract": "Ep6/example.sol:Base0",
						"label": "internalMsg",
						"offset": 0,
						"slot": "1",
						"type": "t_string_storage"
					},
					{
						"astId": 10,
						"contract": "Ep6/example.sol:Base0",
						"label": "publicMsg",
						"offset": 0,
						"slot": "2",
						"type": "t_string_storage"
					}
				],
				"types": {
					"t_string_storage": {
						"encoding": "bytes",
						"label": "string",
						"numberOfBytes": "32"
					}
				}
			},
			"userdoc": {
				"kind": "user",
				"methods": {},
				"version": 1
			}
		}
	}
}