{
	"Ep6/example.sol": {
		"Extend": {
			"abi": [
				{
					"inputs": [],
					"name": "externalJob",
					"outputs": [
						{
							"internalType": "string",
							"name": "",
							"type": "string"
						}
					],
					"stateMutability": "pure",
					"type": "function"
				},
				{
					"inputs": [],
					"name": "publicJob",
					"outputs": [
						{
							"internalType": "string",
							"name": "",
							"type": "string"
						}
					],
					"stateMutability": "pure",
					"type": "function"
				},
				{
					"inputs": [],
					"name": "publicMsg",
					"outputs": [
						{
							"internalType": "string",
							"name": "",
							"type": "string"
						}
					],
					"stateMutability": "view",
					"type": "function"
				},
				{
					"inputs": [],
					"name": "testScope",
					"outputs": [],
					"stateMutability": "view",
					"type": "function"
				}
			],
			"devdoc": {
				"kind": "dev",
				"methods": {},
				"version": 1
			},
			"evm": {
				"assembly": "    /* \"Ep6/example.sol\":2546:3828  contract Extend is Base {\r... */\n  mstore(0x40, 0x80)\n    /* \"Ep6/example.sol\":156:209  string private privateMsg = \"private state variables\" */\n  mload(0x40)\n  dup1\n  0x40\n  add\n  0x40\n  mstore\n  dup1\n  0x17\n  dup2\n  mstore\n  0x20\n  add\n  0x70726976617465207374617465207661726961626c6573000000000000000000\n  dup2\n  mstore\n  pop\n  0x00\n  swap1\n  dup1\n  mload\n  swap1\n  0x20\n  add\n  swap1\n  tag_1\n  swap3\n  swap2\n  swap1\n  tag_2\n  jump\t// in\ntag_1:\n  pop\n    /* \"Ep6/example.sol\":323:379  string internal internalMsg = \"internal state variables\" */\n  mload(0x40)\n  dup1\n  0x40\n  add\n  0x40\n  mstore\n  dup1\n  0x18\n  dup2\n  mstore\n  0x20\n  add\n  0x696e7465726e616c207374617465207661726961626c65730000000000000000\n  dup2\n  mstore\n  pop\n  0x01\n  swap1\n  dup1\n  mload\n  swap1\n  0x20\n  add\n  swap1\n  tag_3\n  swap3\n  swap2\n  swap1\n  tag_2\n  jump\t// in\ntag_3:\n  pop\n    /* \"Ep6/example.sol\":525:575  string public publicMsg = \"public state variables\" */\n  mload(0x40)\n  dup1\n  0x40\n  add\n  0x40\n  mstore\n  dup1\n  0x16\n  dup2\n  mstore\n  0x20\n  add\n  0x7075626c6963207374617465207661726961626c657300000000000000000000\n  dup2\n  mstore\n  pop\n  0x02\n  swap1\n  dup1\n  mload\n  swap1\n  0x20\n  add\n  swap1\n  tag_4\n  swap3\n  swap2\n  swap1\n  tag_2\n  jump\t// in\ntag_4:\n  pop\n    /* \"Ep6/example.sol\":2546:3828  contract Extend is Base {\r... */\n  callvalue\n  dup1\n  iszero\n  tag_5\n  jumpi\n  0x00\n  dup1\n  revert\ntag_5:\n  pop\n  jump(tag_6)\ntag_2:\n  dup3\n  dup1\n  sload\n  tag_7\n  swap1\n  tag_8\n  jump\t// in\ntag_7:\n  swap1\n  0x00\n  mstore\n  keccak256(0x00, 0x20)\n  swap1\n  0x1f\n  add\n  0x20\n  swap1\n  div\n  dup2\n  add\n  swap3\n  dup3\n  tag_10\n  jumpi\n  0x00\n  dup6\n  sstore\n  jump(tag_9)\ntag_10:\n  dup3\n  0x1f\n  lt\n  tag_11\n  jumpi\n  dup1\n  mload\n  not(0xff)\n  and\n  dup4\n  dup1\n  add\n  or\n  dup6\n  sstore\n  jump(tag_9)\ntag_11:\n  dup3\n  dup1\n  add\n  0x01\n  add\n  dup6\n  sstore\n  dup3\n  iszero\n  tag_9\n  jumpi\n  swap2\n  dup3\n  add\ntag_12:\n  dup3\n  dup2\n  gt\n  iszero\n  tag_13\n  jumpi\n  dup3\n  mload\n  dup3\n  sstore\n  swap2\n  0x20\n  add\n  swap2\n  swap1\n  0x01\n  add\n  swap1\n  jump(tag_12)\ntag_13:\ntag_9:\n  pop\n  swap1\n  pop\n  tag_14\n  swap2\n  swap1\n  tag_15\n  jump\t// in\ntag_14:\n  pop\n  swap1\n  jump\t// out\ntag_15:\ntag_16:\n  dup1\n  dup3\n  gt\n  iszero\n  tag_17\n  jumpi\n  0x00\n  dup2\n  0x00\n  swap1\n  sstore\n  pop\n  0x01\n  add\n  jump(tag_16)\ntag_17:\n  pop\n  swap1\n  jump\t// out\n    /* \"#utility.yul\":7:327   */\ntag_8:\n    /* \"#utility.yul\":51:57   */\n  0x00\n    /* \"#utility.yul\":88:89   */\n  0x02\n    /* \"#utility.yul\":82:86   */\n  dup3\n    /* \"#utility.yul\":78:90   */\n  div\n    /* \"#utility.yul\":68:90   */\n  swap1\n  pop\n    /* \"#utility.yul\":135:136   */\n  0x01\n    /* \"#utility.yul\":129:133   */\n  dup3\n    /* \"#utility.yul\":125:137   */\n  and\n    /* \"#utility.yul\":156:174   */\n  dup1\n    /* \"#utility.yul\":146:227   */\n  tag_20\n  jumpi\n    /* \"#utility.yul\":212:216   */\n  0x7f\n    /* \"#utility.yul\":204:210   */\n  dup3\n    /* \"#utility.yul\":200:217   */\n  and\n    /* \"#utility.yul\":190:217   */\n  swap2\n  pop\n    /* \"#utility.yul\":146:227   */\ntag_20:\n    /* \"#utility.yul\":274:276   */\n  0x20\n    /* \"#utility.yul\":266:272   */\n  dup3\n    /* \"#utility.yul\":263:277   */\n  lt\n    /* \"#utility.yul\":243:261   */\n  dup2\n    /* \"#utility.yul\":240:278   */\n  eq\n    /* \"#utility.yul\":237:321   */\n  iszero\n  tag_21\n  jumpi\n    /* \"#utility.yul\":293:311   */\n  tag_22\n  tag_23\n  jump\t// in\ntag_22:\n    /* \"#utility.yul\":237:321   */\ntag_21:\n    /* \"#utility.yul\":58:327   */\n  pop\n    /* \"#utility.yul\":7:327   */\n  swap2\n  swap1\n  pop\n  jump\t// out\n    /* \"#utility.yul\":333:513   */\ntag_23:\n    /* \"#utility.yul\":381:458   */\n  0x4e487b7100000000000000000000000000000000000000000000000000000000\n    /* \"#utility.yul\":378:379   */\n  0x00\n    /* \"#utility.yul\":371:459   */\n  mstore\n    /* \"#utility.yul\":478:482   */\n  0x22\n    /* \"#utility.yul\":475:476   */\n  0x04\n    /* \"#utility.yul\":468:483   */\n  mstore\n    /* \"#utility.yul\":502:506   */\n  0x24\n    /* \"#utility.yul\":499:500   */\n  0x00\n    /* \"#utility.yul\":492:507   */\n  revert\n    /* \"Ep6/example.sol\":2546:3828  contract Extend is Base {\r... */\ntag_6:\n  dataSize(sub_0)\n  dup1\n  dataOffset(sub_0)\n  0x00\n  codecopy\n  0x00\n  return\nstop\n\nsub_0: assembly {\n        /* \"Ep6/example.sol\":2546:3828  contract Extend is Base {\r... */\n      mstore(0x40, 0x80)\n      callvalue\n      dup1\n      iszero\n      tag_1\n      jumpi\n      0x00\n      dup1\n      revert\n    tag_1:\n      pop\n      jumpi(tag_2, lt(calldatasize, 0x04))\n      shr(0xe0, calldataload(0x00))\n      dup1\n      0x628e6fa1\n      eq\n      tag_3\n      jumpi\n      dup1\n      0xa23a028b\n      eq\n      tag_4\n      jumpi\n      dup1\n      0xc6c41055\n      eq\n      tag_5\n      jumpi\n      dup1\n      0xfcc91b35\n      eq\n      tag_6\n      jumpi\n    tag_2:\n      0x00\n      dup1\n      revert\n        /* \"Ep6/example.sol\":1258:1366  function externalJob() external pure returns (string memory) {\r... */\n    tag_3:\n      tag_7\n      tag_8\n      jump\t// in\n    tag_7:\n      mload(0x40)\n      tag_9\n      swap2\n      swap1\n      tag_10\n      jump\t// in\n    tag_9:\n      mload(0x40)\n      dup1\n      swap2\n      sub\n      swap1\n      return\n        /* \"Ep6/example.sol\":1103:1205  function publicJob() public pure returns (string memory) {\r... */\n    tag_4:\n      tag_11\n      tag_12\n      jump\t// in\n    tag_11:\n      mload(0x40)\n      tag_13\n      swap2\n      swap1\n      tag_10\n      jump\t// in\n    tag_13:\n      mload(0x40)\n      dup1\n      swap2\n      sub\n      swap1\n      return\n        /* \"Ep6/example.sol\":525:575  string public publicMsg = \"public state variables\" */\n    tag_5:\n      tag_14\n      tag_15\n      jump\t// in\n    tag_14:\n      mload(0x40)\n      tag_16\n      swap2\n      swap1\n      tag_10\n      jump\t// in\n    tag_16:\n      mload(0x40)\n      dup1\n      swap2\n      sub\n      swap1\n      return\n        /* \"Ep6/example.sol\":2579:3825  function testScope() public view override {\r... */\n    tag_6:\n      tag_17\n      tag_18\n      jump\t// in\n    tag_17:\n      stop\n        /* \"Ep6/example.sol\":1258:1366  function externalJob() external pure returns (string memory) {\r... */\n    tag_8:\n        /* \"Ep6/example.sol\":1304:1317  string memory */\n      0x60\n        /* \"Ep6/example.sol\":1330:1358  return \"external job called\" */\n      mload(0x40)\n      dup1\n      0x40\n      add\n      0x40\n      mstore\n      dup1\n      0x13\n      dup2\n      mstore\n      0x20\n      add\n      0x65787465726e616c206a6f622063616c6c656400000000000000000000000000\n      dup2\n      mstore\n      pop\n      swap1\n      pop\n        /* \"Ep6/example.sol\":1258:1366  function externalJob() external pure returns (string memory) {\r... */\n      swap1\n      jump\t// out\n        /* \"Ep6/example.sol\":1103:1205  function publicJob() public pure returns (string memory) {\r... */\n    tag_12:\n        /* \"Ep6/example.sol\":1145:1158  string memory */\n      0x60\n        /* \"Ep6/example.sol\":1171:1197  return \"public job called\" */\n      mload(0x40)\n      dup1\n      0x40\n      add\n      0x40\n      mstore\n      dup1\n      0x11\n      dup2\n      mstore\n      0x20\n      add\n      0x7075626c6963206a6f622063616c6c6564000000000000000000000000000000\n      dup2\n      mstore\n      pop\n      swap1\n      pop\n        /* \"Ep6/example.sol\":1103:1205  function publicJob() public pure returns (string memory) {\r... */\n      swap1\n      jump\t// out\n        /* \"Ep6/example.sol\":525:575  string public publicMsg = \"public state variables\" */\n    tag_15:\n      0x02\n      dup1\n      sload\n      tag_21\n      swap1\n      tag_22\n      jump\t// in\n    tag_21:\n      dup1\n      0x1f\n      add\n      0x20\n      dup1\n      swap2\n      div\n      mul\n      0x20\n      add\n      mload(0x40)\n      swap1\n      dup2\n      add\n      0x40\n      mstore\n      dup1\n      swap3\n      swap2\n      swap1\n      dup2\n      dup2\n      mstore\n      0x20\n      add\n      dup3\n      dup1\n      sload\n      tag_23\n      swap1\n      tag_22\n      jump\t// in\n    tag_23:\n      dup1\n      iszero\n      tag_24\n      jumpi\n      dup1\n      0x1f\n      lt\n      tag_25\n      jumpi\n      0x0100\n      dup1\n      dup4\n      sload\n      div\n      mul\n      dup4\n      mstore\n      swap2\n      0x20\n      add\n      swap2\n      jump(tag_24)\n    tag_25:\n      dup3\n      add\n      swap2\n      swap1\n      0x00\n      mstore\n      keccak256(0x00, 0x20)\n      swap1\n    tag_26:\n      dup2\n      sload\n      dup2\n      mstore\n      swap1\n      0x01\n      add\n      swap1\n      0x20\n      add\n      dup1\n      dup4\n      gt\n      tag_26\n      jumpi\n      dup3\n      swap1\n      sub\n      0x1f\n      and\n      dup3\n      add\n      swap2\n    tag_24:\n      pop\n      pop\n      pop\n      pop\n      pop\n      dup2\n      jump\t// out\n        /* \"Ep6/example.sol\":2579:3825  function testScope() public view override {\r... */\n    tag_18:\n        /* \"Ep6/example.sol\":2913:2924  publicJob() */\n      tag_28\n        /* \"Ep6/example.sol\":2913:2922  publicJob */\n      tag_12\n        /* \"Ep6/example.sol\":2913:2924  publicJob() */\n      jump\t// in\n    tag_28:\n      pop\n        /* \"Ep6/example.sol\":2999:3012  internalJob() */\n      tag_29\n        /* \"Ep6/example.sol\":2999:3010  internalJob */\n      tag_30\n        /* \"Ep6/example.sol\":2999:3012  internalJob() */\n      jump\t// in\n    tag_29:\n      pop\n        /* \"Ep6/example.sol\":3628:3629  0 */\n      0x00\n        /* \"Ep6/example.sol\":3606:3617  internalMsg */\n      0x01\n        /* \"Ep6/example.sol\":3600:3625  bytes(internalMsg).length */\n      dup1\n      sload\n      tag_31\n      swap1\n      tag_22\n      jump\t// in\n    tag_31:\n      swap1\n      pop\n        /* \"Ep6/example.sol\":3600:3629  bytes(internalMsg).length > 0 */\n      gt\n        /* \"Ep6/example.sol\":3592:3671  require(bytes(internalMsg).length > 0, \"cannot access internal state variable\") */\n      tag_32\n      jumpi\n      mload(0x40)\n      0x08c379a000000000000000000000000000000000000000000000000000000000\n      dup2\n      mstore\n      0x04\n      add\n      tag_33\n      swap1\n      tag_34\n      jump\t// in\n    tag_33:\n      mload(0x40)\n      dup1\n      swap2\n      sub\n      swap1\n      revert\n    tag_32:\n        /* \"Ep6/example.sol\":3776:3777  0 */\n      0x00\n        /* \"Ep6/example.sol\":3756:3765  publicMsg */\n      0x02\n        /* \"Ep6/example.sol\":3750:3773  bytes(publicMsg).length */\n      dup1\n      sload\n      tag_35\n      swap1\n      tag_22\n      jump\t// in\n    tag_35:\n      swap1\n      pop\n        /* \"Ep6/example.sol\":3750:3777  bytes(publicMsg).length > 0 */\n      gt\n        /* \"Ep6/example.sol\":3742:3817  require(bytes(publicMsg).length > 0, \"cannot access public state variable\") */\n      tag_36\n      jumpi\n      mload(0x40)\n      0x08c379a000000000000000000000000000000000000000000000000000000000\n      dup2\n      mstore\n      0x04\n      add\n      tag_37\n      swap1\n      tag_38\n      jump\t// in\n    tag_37:\n      mload(0x40)\n      dup1\n      swap2\n      sub\n      swap1\n      revert\n    tag_36:\n        /* \"Ep6/example.sol\":2579:3825  function testScope() public view override {\r... */\n      jump\t// out\n        /* \"Ep6/example.sol\":850:958  function internalJob() internal pure returns (string memory) {\r... */\n    tag_30:\n        /* \"Ep6/example.sol\":896:909  string memory */\n      0x60\n        /* \"Ep6/example.sol\":922:950  return \"internal job called\" */\n      mload(0x40)\n      dup1\n      0x40\n      add\n      0x40\n      mstore\n      dup1\n      0x13\n      dup2\n      mstore\n      0x20\n      add\n      0x696e7465726e616c206a6f622063616c6c656400000000000000000000000000\n      dup2\n      mstore\n      pop\n      swap1\n      pop\n        /* \"Ep6/example.sol\":850:958  function internalJob() internal pure returns (string memory) {\r... */\n      swap1\n      jump\t// out\n        /* \"#utility.yul\":7:371   */\n    tag_41:\n        /* \"#utility.yul\":95:98   */\n      0x00\n        /* \"#utility.yul\":123:162   */\n      tag_43\n        /* \"#utility.yul\":156:161   */\n      dup3\n        /* \"#utility.yul\":123:162   */\n      tag_44\n      jump\t// in\n    tag_43:\n        /* \"#utility.yul\":178:249   */\n      tag_45\n        /* \"#utility.yul\":242:248   */\n      dup2\n        /* \"#utility.yul\":237:240   */\n      dup6\n        /* \"#utility.yul\":178:249   */\n      tag_46\n      jump\t// in\n    tag_45:\n        /* \"#utility.yul\":171:249   */\n      swap4\n      pop\n        /* \"#utility.yul\":258:310   */\n      tag_47\n        /* \"#utility.yul\":303:309   */\n      dup2\n        /* \"#utility.yul\":298:301   */\n      dup6\n        /* \"#utility.yul\":291:295   */\n      0x20\n        /* \"#utility.yul\":284:289   */\n      dup7\n        /* \"#utility.yul\":280:296   */\n      add\n        /* \"#utility.yul\":258:310   */\n      tag_48\n      jump\t// in\n    tag_47:\n        /* \"#utility.yul\":335:364   */\n      tag_49\n        /* \"#utility.yul\":357:363   */\n      dup2\n        /* \"#utility.yul\":335:364   */\n      tag_50\n      jump\t// in\n    tag_49:\n        /* \"#utility.yul\":330:333   */\n      dup5\n        /* \"#utility.yul\":326:365   */\n      add\n        /* \"#utility.yul\":319:365   */\n      swap2\n      pop\n        /* \"#utility.yul\":99:371   */\n      pop\n        /* \"#utility.yul\":7:371   */\n      swap3\n      swap2\n      pop\n      pop\n      jump\t// out\n        /* \"#utility.yul\":377:743   */\n    tag_51:\n        /* \"#utility.yul\":519:522   */\n      0x00\n        /* \"#utility.yul\":540:607   */\n      tag_53\n        /* \"#utility.yul\":604:606   */\n      0x25\n        /* \"#utility.yul\":599:602   */\n      dup4\n        /* \"#utility.yul\":540:607   */\n      tag_46\n      jump\t// in\n    tag_53:\n        /* \"#utility.yul\":533:607   */\n      swap2\n      pop\n        /* \"#utility.yul\":616:709   */\n      tag_54\n        /* \"#utility.yul\":705:708   */\n      dup3\n        /* \"#utility.yul\":616:709   */\n      tag_55\n      jump\t// in\n    tag_54:\n        /* \"#utility.yul\":734:736   */\n      0x40\n        /* \"#utility.yul\":729:732   */\n      dup3\n        /* \"#utility.yul\":725:737   */\n      add\n        /* \"#utility.yul\":718:737   */\n      swap1\n      pop\n        /* \"#utility.yul\":377:743   */\n      swap2\n      swap1\n      pop\n      jump\t// out\n        /* \"#utility.yul\":749:1115   */\n    tag_56:\n        /* \"#utility.yul\":891:894   */\n      0x00\n        /* \"#utility.yul\":912:979   */\n      tag_58\n        /* \"#utility.yul\":976:978   */\n      0x23\n        /* \"#utility.yul\":971:974   */\n      dup4\n        /* \"#utility.yul\":912:979   */\n      tag_46\n      jump\t// in\n    tag_58:\n        /* \"#utility.yul\":905:979   */\n      swap2\n      pop\n        /* \"#utility.yul\":988:1081   */\n      tag_59\n        /* \"#utility.yul\":1077:1080   */\n      dup3\n        /* \"#utility.yul\":988:1081   */\n      tag_60\n      jump\t// in\n    tag_59:\n        /* \"#utility.yul\":1106:1108   */\n      0x40\n        /* \"#utility.yul\":1101:1104   */\n      dup3\n        /* \"#utility.yul\":1097:1109   */\n      add\n        /* \"#utility.yul\":1090:1109   */\n      swap1\n      pop\n        /* \"#utility.yul\":749:1115   */\n      swap2\n      swap1\n      pop\n      jump\t// out\n        /* \"#utility.yul\":1121:1434   */\n    tag_10:\n        /* \"#utility.yul\":1234:1238   */\n      0x00\n        /* \"#utility.yul\":1272:1274   */\n      0x20\n        /* \"#utility.yul\":1261:1270   */\n      dup3\n        /* \"#utility.yul\":1257:1275   */\n      add\n        /* \"#utility.yul\":1249:1275   */\n      swap1\n      pop\n        /* \"#utility.yul\":1321:1330   */\n      dup2\n        /* \"#utility.yul\":1315:1319   */\n      dup2\n        /* \"#utility.yul\":1311:1331   */\n      sub\n        /* \"#utility.yul\":1307:1308   */\n      0x00\n        /* \"#utility.yul\":1296:1305   */\n      dup4\n        /* \"#utility.yul\":1292:1309   */\n      add\n        /* \"#utility.yul\":1285:1332   */\n      mstore\n        /* \"#utility.yul\":1349:1427   */\n      tag_62\n        /* \"#utility.yul\":1422:1426   */\n      dup2\n        /* \"#utility.yul\":1413:1419   */\n      dup5\n        /* \"#utility.yul\":1349:1427   */\n      tag_41\n      jump\t// in\n    tag_62:\n        /* \"#utility.yul\":1341:1427   */\n      swap1\n      pop\n        /* \"#utility.yul\":1121:1434   */\n      swap3\n      swap2\n      pop\n      pop\n      jump\t// out\n        /* \"#utility.yul\":1440:1859   */\n    tag_34:\n        /* \"#utility.yul\":1606:1610   */\n      0x00\n        /* \"#utility.yul\":1644:1646   */\n      0x20\n        /* \"#utility.yul\":1633:1642   */\n      dup3\n        /* \"#utility.yul\":1629:1647   */\n      add\n        /* \"#utility.yul\":1621:1647   */\n      swap1\n      pop\n        /* \"#utility.yul\":1693:1702   */\n      dup2\n        /* \"#utility.yul\":1687:1691   */\n      dup2\n        /* \"#utility.yul\":1683:1703   */\n      sub\n        /* \"#utility.yul\":1679:1680   */\n      0x00\n        /* \"#utility.yul\":1668:1677   */\n      dup4\n        /* \"#utility.yul\":1664:1681   */\n      add\n        /* \"#utility.yul\":1657:1704   */\n      mstore\n        /* \"#utility.yul\":1721:1852   */\n      tag_64\n        /* \"#utility.yul\":1847:1851   */\n      dup2\n        /* \"#utility.yul\":1721:1852   */\n      tag_51\n      jump\t// in\n    tag_64:\n        /* \"#utility.yul\":1713:1852   */\n      swap1\n      pop\n        /* \"#utility.yul\":1440:1859   */\n      swap2\n      swap1\n      pop\n      jump\t// out\n        /* \"#utility.yul\":1865:2284   */\n    tag_38:\n        /* \"#utility.yul\":2031:2035   */\n      0x00\n        /* \"#utility.yul\":2069:2071   */\n      0x20\n        /* \"#utility.yul\":2058:2067   */\n      dup3\n        /* \"#utility.yul\":2054:2072   */\n      add\n        /* \"#utility.yul\":2046:2072   */\n      swap1\n      pop\n        /* \"#utility.yul\":2118:2127   */\n      dup2\n        /* \"#utility.yul\":2112:2116   */\n      dup2\n        /* \"#utility.yul\":2108:2128   */\n      sub\n        /* \"#utility.yul\":2104:2105   */\n      0x00\n        /* \"#utility.yul\":2093:2102   */\n      dup4\n        /* \"#utility.yul\":2089:2106   */\n      add\n        /* \"#utility.yul\":2082:2129   */\n      mstore\n        /* \"#utility.yul\":2146:2277   */\n      tag_66\n        /* \"#utility.yul\":2272:2276   */\n      dup2\n        /* \"#utility.yul\":2146:2277   */\n      tag_56\n      jump\t// in\n    tag_66:\n        /* \"#utility.yul\":2138:2277   */\n      swap1\n      pop\n        /* \"#utility.yul\":1865:2284   */\n      swap2\n      swap1\n      pop\n      jump\t// out\n        /* \"#utility.yul\":2290:2389   */\n    tag_44:\n        /* \"#utility.yul\":2342:2348   */\n      0x00\n        /* \"#utility.yul\":2376:2381   */\n      dup2\n        /* \"#utility.yul\":2370:2382   */\n      mload\n        /* \"#utility.yul\":2360:2382   */\n      swap1\n      pop\n        /* \"#utility.yul\":2290:2389   */\n      swap2\n      swap1\n      pop\n      jump\t// out\n        /* \"#utility.yul\":2395:2564   */\n    tag_46:\n        /* \"#utility.yul\":2479:2490   */\n      0x00\n        /* \"#utility.yul\":2513:2519   */\n      dup3\n        /* \"#utility.yul\":2508:2511   */\n      dup3\n        /* \"#utility.yul\":2501:2520   */\n      mstore\n        /* \"#utility.yul\":2553:2557   */\n      0x20\n        /* \"#utility.yul\":2548:2551   */\n      dup3\n        /* \"#utility.yul\":2544:2558   */\n      add\n        /* \"#utility.yul\":2529:2558   */\n      swap1\n      pop\n        /* \"#utility.yul\":2395:2564   */\n      swap3\n      swap2\n      pop\n      pop\n      jump\t// out\n        /* \"#utility.yul\":2570:2877   */\n    tag_48:\n        /* \"#utility.yul\":2638:2639   */\n      0x00\n        /* \"#utility.yul\":2648:2761   */\n    tag_70:\n        /* \"#utility.yul\":2662:2668   */\n      dup4\n        /* \"#utility.yul\":2659:2660   */\n      dup2\n        /* \"#utility.yul\":2656:2669   */\n      lt\n        /* \"#utility.yul\":2648:2761   */\n      iszero\n      tag_72\n      jumpi\n        /* \"#utility.yul\":2747:2748   */\n      dup1\n        /* \"#utility.yul\":2742:2745   */\n      dup3\n        /* \"#utility.yul\":2738:2749   */\n      add\n        /* \"#utility.yul\":2732:2750   */\n      mload\n        /* \"#utility.yul\":2728:2729   */\n      dup2\n        /* \"#utility.yul\":2723:2726   */\n      dup5\n        /* \"#utility.yul\":2719:2730   */\n      add\n        /* \"#utility.yul\":2712:2751   */\n      mstore\n        /* \"#utility.yul\":2684:2686   */\n      0x20\n        /* \"#utility.yul\":2681:2682   */\n      dup2\n        /* \"#utility.yul\":2677:2687   */\n      add\n        /* \"#utility.yul\":2672:2687   */\n      swap1\n      pop\n        /* \"#utility.yul\":2648:2761   */\n      jump(tag_70)\n    tag_72:\n        /* \"#utility.yul\":2779:2785   */\n      dup4\n        /* \"#utility.yul\":2776:2777   */\n      dup2\n        /* \"#utility.yul\":2773:2786   */\n      gt\n        /* \"#utility.yul\":2770:2871   */\n      iszero\n      tag_73\n      jumpi\n        /* \"#utility.yul\":2859:2860   */\n      0x00\n        /* \"#utility.yul\":2850:2856   */\n      dup5\n        /* \"#utility.yul\":2845:2848   */\n      dup5\n        /* \"#utility.yul\":2841:2857   */\n      add\n        /* \"#utility.yul\":2834:2861   */\n      mstore\n        /* \"#utility.yul\":2770:2871   */\n    tag_73:\n        /* \"#utility.yul\":2619:2877   */\n      pop\n        /* \"#utility.yul\":2570:2877   */\n      pop\n      pop\n      pop\n      jump\t// out\n        /* \"#utility.yul\":2883:3203   */\n    tag_22:\n        /* \"#utility.yul\":2927:2933   */\n      0x00\n        /* \"#utility.yul\":2964:2965   */\n      0x02\n        /* \"#utility.yul\":2958:2962   */\n      dup3\n        /* \"#utility.yul\":2954:2966   */\n      div\n        /* \"#utility.yul\":2944:2966   */\n      swap1\n      pop\n        /* \"#utility.yul\":3011:3012   */\n      0x01\n        /* \"#utility.yul\":3005:3009   */\n      dup3\n        /* \"#utility.yul\":3001:3013   */\n      and\n        /* \"#utility.yul\":3032:3050   */\n      dup1\n        /* \"#utility.yul\":3022:3103   */\n      tag_75\n      jumpi\n        /* \"#utility.yul\":3088:3092   */\n      0x7f\n        /* \"#utility.yul\":3080:3086   */\n      dup3\n        /* \"#utility.yul\":3076:3093   */\n      and\n        /* \"#utility.yul\":3066:3093   */\n      swap2\n      pop\n        /* \"#utility.yul\":3022:3103   */\n    tag_75:\n        /* \"#utility.yul\":3150:3152   */\n      0x20\n        /* \"#utility.yul\":3142:3148   */\n      dup3\n        /* \"#utility.yul\":3139:3153   */\n      lt\n        /* \"#utility.yul\":3119:3137   */\n      dup2\n        /* \"#utility.yul\":3116:3154   */\n      eq\n        /* \"#utility.yul\":3113:3197   */\n      iszero\n      tag_76\n      jumpi\n        /* \"#utility.yul\":3169:3187   */\n      tag_77\n      tag_78\n      jump\t// in\n    tag_77:\n        /* \"#utility.yul\":3113:3197   */\n    tag_76:\n        /* \"#utility.yul\":2934:3203   */\n      pop\n        /* \"#utility.yul\":2883:3203   */\n      swap2\n      swap1\n      pop\n      jump\t// out\n        /* \"#utility.yul\":3209:3389   */\n    tag_78:\n        /* \"#utility.yul\":3257:3334   */\n      0x4e487b7100000000000000000000000000000000000000000000000000000000\n        /* \"#utility.yul\":3254:3255   */\n      0x00\n        /* \"#utility.yul\":3247:3335   */\n      mstore\n        /* \"#utility.yul\":3354:3358   */\n      0x22\n        /* \"#utility.yul\":3351:3352   */\n      0x04\n        /* \"#utility.yul\":3344:3359   */\n      mstore\n        /* \"#utility.yul\":3378:3382   */\n      0x24\n        /* \"#utility.yul\":3375:3376   */\n      0x00\n        /* \"#utility.yul\":3368:3383   */\n      revert\n        /* \"#utility.yul\":3395:3497   */\n    tag_50:\n        /* \"#utility.yul\":3436:3442   */\n      0x00\n        /* \"#utility.yul\":3487:3489   */\n      0x1f\n        /* \"#utility.yul\":3483:3490   */\n      not\n        /* \"#utility.yul\":3478:3480   */\n      0x1f\n        /* \"#utility.yul\":3471:3476   */\n      dup4\n        /* \"#utility.yul\":3467:3481   */\n      add\n        /* \"#utility.yul\":3463:3491   */\n      and\n        /* \"#utility.yul\":3453:3491   */\n      swap1\n      pop\n        /* \"#utility.yul\":3395:3497   */\n      swap2\n      swap1\n      pop\n      jump\t// out\n        /* \"#utility.yul\":3503:3727   */\n    tag_55:\n        /* \"#utility.yul\":3643:3677   */\n      0x63616e6e6f742061636365737320696e7465726e616c20737461746520766172\n        /* \"#utility.yul\":3639:3640   */\n      0x00\n        /* \"#utility.yul\":3631:3637   */\n      dup3\n        /* \"#utility.yul\":3627:3641   */\n      add\n        /* \"#utility.yul\":3620:3678   */\n      mstore\n        /* \"#utility.yul\":3712:3719   */\n      0x6961626c65000000000000000000000000000000000000000000000000000000\n        /* \"#utility.yul\":3707:3709   */\n      0x20\n        /* \"#utility.yul\":3699:3705   */\n      dup3\n        /* \"#utility.yul\":3695:3710   */\n      add\n        /* \"#utility.yul\":3688:3720   */\n      mstore\n        /* \"#utility.yul\":3503:3727   */\n      pop\n      jump\t// out\n        /* \"#utility.yul\":3733:3955   */\n    tag_60:\n        /* \"#utility.yul\":3873:3907   */\n      0x63616e6e6f7420616363657373207075626c6963207374617465207661726961\n        /* \"#utility.yul\":3869:3870   */\n      0x00\n        /* \"#utility.yul\":3861:3867   */\n      dup3\n        /* \"#utility.yul\":3857:3871   */\n      add\n        /* \"#utility.yul\":3850:3908   */\n      mstore\n        /* \"#utility.yul\":3942:3947   */\n      0x626c650000000000000000000000000000000000000000000000000000000000\n        /* \"#utility.yul\":3937:3939   */\n      0x20\n        /* \"#utility.yul\":3929:3935   */\n      dup3\n        /* \"#utility.yul\":3925:3940   */\n      add\n        /* \"#utility.yul\":3918:3948   */\n      mstore\n        /* \"#utility.yul\":3733:3955   */\n      pop\n      jump\t// out\n\n    auxdata: 0xa26469706673582212205dcdddcad4cf06e95bb8424c8ff6fb8a52d5ef4ce03c263fa6b37c66d03b3e0964736f6c63430008070033\n}\n",
				"bytecode": {
					"linkReferences": {},
					"object": "60806040526040518060400160405280601781526020017f70726976617465207374617465207661726961626c65730000000000000000008152506000908051906020019061004f9291906100fa565b506040518060400160405280601881526020017f696e7465726e616c207374617465207661726961626c657300000000000000008152506001908051906020019061009b9291906100fa565b506040518060400160405280601681526020017f7075626c6963207374617465207661726961626c657300000000000000000000815250600290805190602001906100e79291906100fa565b503480156100f457600080fd5b506101fe565b8280546101069061019d565b90600052602060002090601f016020900481019282610128576000855561016f565b82601f1061014157805160ff191683800117855561016f565b8280016001018555821561016f579182015b8281111561016e578251825591602001919060010190610153565b5b50905061017c9190610180565b5090565b5b80821115610199576000816000905550600101610181565b5090565b600060028204905060018216806101b557607f821691505b602082108114156101c9576101c86101cf565b5b50919050565b7f4e487b7100000000000000000000000000000000000000000000000000000000600052602260045260246000fd5b6105268061020d6000396000f3fe608060405234801561001057600080fd5b506004361061004c5760003560e01c8063628e6fa114610051578063a23a028b1461006f578063c6c410551461008d578063fcc91b35146100ab575b600080fd5b6100596100b5565b604051610066919061032f565b60405180910390f35b6100776100f2565b604051610084919061032f565b60405180910390f35b61009561012f565b6040516100a2919061032f565b60405180910390f35b6100b36101bd565b005b60606040518060400160405280601381526020017f65787465726e616c206a6f622063616c6c656400000000000000000000000000815250905090565b60606040518060400160405280601181526020017f7075626c6963206a6f622063616c6c6564000000000000000000000000000000815250905090565b6002805461013c906103e0565b80601f0160208091040260200160405190810160405280929190818152602001828054610168906103e0565b80156101b55780601f1061018a576101008083540402835291602001916101b5565b820191906000526020600020905b81548152906001019060200180831161019857829003601f168201915b505050505081565b6101c56100f2565b506101ce610273565b506000600180546101de906103e0565b905011610220576040517f08c379a000000000000000000000000000000000000000000000000000000000815260040161021790610351565b60405180910390fd5b60006002805461022f906103e0565b905011610271576040517f08c379a000000000000000000000000000000000000000000000000000000000815260040161026890610371565b60405180910390fd5b565b60606040518060400160405280601381526020017f696e7465726e616c206a6f622063616c6c656400000000000000000000000000815250905090565b60006102bb82610391565b6102c5818561039c565b93506102d58185602086016103ad565b6102de81610441565b840191505092915050565b60006102f660258361039c565b915061030182610452565b604082019050919050565b600061031960238361039c565b9150610324826104a1565b604082019050919050565b6000602082019050818103600083015261034981846102b0565b905092915050565b6000602082019050818103600083015261036a816102e9565b9050919050565b6000602082019050818103600083015261038a8161030c565b9050919050565b600081519050919050565b600082825260208201905092915050565b60005b838110156103cb5780820151818401526020810190506103b0565b838111156103da576000848401525b50505050565b600060028204905060018216806103f857607f821691505b6020821081141561040c5761040b610412565b5b50919050565b7f4e487b7100000000000000000000000000000000000000000000000000000000600052602260045260246000fd5b6000601f19601f8301169050919050565b7f63616e6e6f742061636365737320696e7465726e616c2073746174652076617260008201527f6961626c65000000000000000000000000000000000000000000000000000000602082015250565b7f63616e6e6f7420616363657373207075626c696320737461746520766172696160008201527f626c65000000000000000000000000000000000000000000000000000000000060208201525056fea26469706673582212205dcdddcad4cf06e95bb8424c8ff6fb8a52d5ef4ce03c263fa6b37c66d03b3e0964736f6c63430008070033",
					"opcodes": "PUSH1 0x80 PUSH1 0x40 MSTORE PUSH1 0x40 MLOAD DUP1 PUSH1 0x40 ADD PUSH1 0x40 MSTORE DUP1 PUSH1 0x17 DUP2 MSTORE PUSH1 0x20 ADD PUSH32 0x70726976617465207374617465207661726961626C6573000000000000000000 DUP2 MSTORE POP PUSH1 0x0 SWAP1 DUP1 MLOAD SWAP1 PUSH1 0x20 ADD SWAP1 PUSH2 0x4F SWAP3 SWAP2 SWAP1 PUSH2 0xFA JUMP JUMPDEST POP PUSH1 0x40 MLOAD DUP1 PUSH1 0x40 ADD PUSH1 0x40 MSTORE DUP1 PUSH1 0x18 DUP2 MSTORE PUSH1 0x20 ADD PUSH32 0x696E7465726E616C207374617465207661726961626C65730000000000000000 DUP2 MSTORE POP PUSH1 0x1 SWAP1 DUP1 MLOAD SWAP1 PUSH1 0x20 ADD SWAP1 PUSH2 0x9B SWAP3 SWAP2 SWAP1 PUSH2 0xFA JUMP JUMPDEST POP PUSH1 0x40 MLOAD DUP1 PUSH1 0x40 ADD PUSH1 0x40 MSTORE DUP1 PUSH1 0x16 DUP2 MSTORE PUSH1 0x20 ADD PUSH32 0x7075626C6963207374617465207661726961626C657300000000000000000000 DUP2 MSTORE POP PUSH1 0x2 SWAP1 DUP1 MLOAD SWAP1 PUSH1 0x20 ADD SWAP1 PUSH2 0xE7 SWAP3 SWAP2 SWAP1 PUSH2 0xFA JUMP JUMPDEST POP CALLVALUE DUP1 ISZERO PUSH2 0xF4 JUMPI PUSH1 0x0 DUP1 REVERT JUMPDEST POP PUSH2 0x1FE JUMP JUMPDEST DUP3 DUP1 SLOAD PUSH2 0x106 SWAP1 PUSH2 0x19D JUMP JUMPDEST SWAP1 PUSH1 0x0 MSTORE PUSH1 0x20 PUSH1 0x0 KECCAK256 SWAP1 PUSH1 0x1F ADD PUSH1 0x20 SWAP1 DIV DUP2 ADD SWAP3 DUP3 PUSH2 0x128 JUMPI PUSH1 0x0 DUP6 SSTORE PUSH2 0x16F JUMP JUMPDEST DUP3 PUSH1 0x1F LT PUSH2 0x141 JUMPI DUP1 MLOAD PUSH1 0xFF NOT AND DUP4 DUP1 ADD OR DUP6 SSTORE PUSH2 0x16F JUMP JUMPDEST DUP3 DUP1 ADD PUSH1 0x1 ADD DUP6 SSTORE DUP3 ISZERO PUSH2 0x16F JUMPI SWAP2 DUP3 ADD JUMPDEST DUP3 DUP2 GT ISZERO PUSH2 0x16E JUMPI DUP3 MLOAD DUP3 SSTORE SWAP2 PUSH1 0x20 ADD SWAP2 SWAP1 PUSH1 0x1 ADD SWAP1 PUSH2 0x153 JUMP JUMPDEST JUMPDEST POP SWAP1 POP PUSH2 0x17C SWAP2 SWAP1 PUSH2 0x180 JUMP JUMPDEST POP SWAP1 JUMP JUMPDEST JUMPDEST DUP1 DUP3 GT ISZERO PUSH2 0x199 JUMPI PUSH1 0x0 DUP2 PUSH1 0x0 SWAP1 SSTORE POP PUSH1 0x1 ADD PUSH2 0x181 JUMP JUMPDEST POP SWAP1 JUMP JUMPDEST PUSH1 0x0 PUSH1 0x2 DUP3 DIV SWAP1 POP PUSH1 0x1 DUP3 AND DUP1 PUSH2 0x1B5 JUMPI PUSH1 0x7F DUP3 AND SWAP2 POP JUMPDEST PUSH1 0x20 DUP3 LT DUP2 EQ ISZERO PUSH2 0x1C9 JUMPI PUSH2 0x1C8 PUSH2 0x1CF JUMP JUMPDEST JUMPDEST POP SWAP2 SWAP1 POP JUMP JUMPDEST PUSH32 0x4E487B7100000000000000000000000000000000000000000000000000000000 PUSH1 0x0 MSTORE PUSH1 0x22 PUSH1 0x4 MSTORE PUSH1 0x24 PUSH1 0x0 REVERT JUMPDEST PUSH2 0x526 DUP1 PUSH2 0x20D PUSH1 0x0 CODECOPY PUSH1 0x0 RETURN INVALID PUSH1 0x80 PUSH1 0x40 MSTORE CALLVALUE DUP1 ISZERO PUSH2 0x10 JUMPI PUSH1 0x0 DUP1 REVERT JUMPDEST POP PUSH1 0x4 CALLDATASIZE LT PUSH2 0x4C JUMPI PUSH1 0x0 CALLDATALOAD PUSH1 0xE0 SHR DUP1 PUSH4 0x628E6FA1 EQ PUSH2 0x51 JUMPI DUP1 PUSH4 0xA23A028B EQ PUSH2 0x6F JUMPI DUP1 PUSH4 0xC6C41055 EQ PUSH2 0x8D JUMPI DUP1 PUSH4 0xFCC91B35 EQ PUSH2 0xAB JUMPI JUMPDEST PUSH1 0x0 DUP1 REVERT JUMPDEST PUSH2 0x59 PUSH2 0xB5 JUMP JUMPDEST PUSH1 0x40 MLOAD PUSH2 0x66 SWAP2 SWAP1 PUSH2 0x32F JUMP JUMPDEST PUSH1 0x40 MLOAD DUP1 SWAP2 SUB SWAP1 RETURN JUMPDEST PUSH2 0x77 PUSH2 0xF2 JUMP JUMPDEST PUSH1 0x40 MLOAD PUSH2 0x84 SWAP2 SWAP1 PUSH2 0x32F JUMP JUMPDEST PUSH1 0x40 MLOAD DUP1 SWAP2 SUB SWAP1 RETURN JUMPDEST PUSH2 0x95 PUSH2 0x12F JUMP JUMPDEST PUSH1 0x40 MLOAD PUSH2 0xA2 SWAP2 SWAP1 PUSH2 0x32F JUMP JUMPDEST PUSH1 0x40 MLOAD DUP1 SWAP2 SUB SWAP1 RETURN JUMPDEST PUSH2 0xB3 PUSH2 0x1BD JUMP JUMPDEST STOP JUMPDEST PUSH1 0x60 PUSH1 0x40 MLOAD DUP1 PUSH1 0x40 ADD PUSH1 0x40 MSTORE DUP1 PUSH1 0x13 DUP2 MSTORE PUSH1 0x20 ADD PUSH32 0x65787465726E616C206A6F622063616C6C656400000000000000000000000000 DUP2 MSTORE POP SWAP1 POP SWAP1 JUMP JUMPDEST PUSH1 0x60 PUSH1 0x40 MLOAD DUP1 PUSH1 0x40 ADD PUSH1 0x40 MSTORE DUP1 PUSH1 0x11 DUP2 MSTORE PUSH1 0x20 ADD PUSH32 0x7075626C6963206A6F622063616C6C6564000000000000000000000000000000 DUP2 MSTORE POP SWAP1 POP SWAP1 JUMP JUMPDEST PUSH1 0x2 DUP1 SLOAD PUSH2 0x13C SWAP1 PUSH2 0x3E0 JUMP JUMPDEST DUP1 PUSH1 0x1F ADD PUSH1 0x20 DUP1 SWAP2 DIV MUL PUSH1 0x20 ADD PUSH1 0x40 MLOAD SWAP1 DUP2 ADD PUSH1 0x40 MSTORE DUP1 SWAP3 SWAP2 SWAP1 DUP2 DUP2 MSTORE PUSH1 0x20 ADD DUP3 DUP1 SLOAD PUSH2 0x168 SWAP1 PUSH2 0x3E0 JUMP JUMPDEST DUP1 ISZERO PUSH2 0x1B5 JUMPI DUP1 PUSH1 0x1F LT PUSH2 0x18A JUMPI PUSH2 0x100 DUP1 DUP4 SLOAD DIV MUL DUP4 MSTORE SWAP2 PUSH1 0x20 ADD SWAP2 PUSH2 0x1B5 JUMP JUMPDEST DUP3 ADD SWAP2 SWAP1 PUSH1 0x0 MSTORE PUSH1 0x20 PUSH1 0x0 KECCAK256 SWAP1 JUMPDEST DUP2 SLOAD DUP2 MSTORE SWAP1 PUSH1 0x1 ADD SWAP1 PUSH1 0x20 ADD DUP1 DUP4 GT PUSH2 0x198 JUMPI DUP3 SWAP1 SUB PUSH1 0x1F AND DUP3 ADD SWAP2 JUMPDEST POP POP POP POP POP DUP2 JUMP JUMPDEST PUSH2 0x1C5 PUSH2 0xF2 JUMP JUMPDEST POP PUSH2 0x1CE PUSH2 0x273 JUMP JUMPDEST POP PUSH1 0x0 PUSH1 0x1 DUP1 SLOAD PUSH2 0x1DE SWAP1 PUSH2 0x3E0 JUMP JUMPDEST SWAP1 POP GT PUSH2 0x220 JUMPI PUSH1 0x40 MLOAD PUSH32 0x8C379A000000000000000000000000000000000000000000000000000000000 DUP2 MSTORE PUSH1 0x4 ADD PUSH2 0x217 SWAP1 PUSH2 0x351 JUMP JUMPDEST PUSH1 0x40 MLOAD DUP1 SWAP2 SUB SWAP1 REVERT JUMPDEST PUSH1 0x0 PUSH1 0x2 DUP1 SLOAD PUSH2 0x22F SWAP1 PUSH2 0x3E0 JUMP JUMPDEST SWAP1 POP GT PUSH2 0x271 JUMPI PUSH1 0x40 MLOAD PUSH32 0x8C379A000000000000000000000000000000000000000000000000000000000 DUP2 MSTORE PUSH1 0x4 ADD PUSH2 0x268 SWAP1 PUSH2 0x371 JUMP JUMPDEST PUSH1 0x40 MLOAD DUP1 SWAP2 SUB SWAP1 REVERT JUMPDEST JUMP JUMPDEST PUSH1 0x60 PUSH1 0x40 MLOAD DUP1 PUSH1 0x40 ADD PUSH1 0x40 MSTORE DUP1 PUSH1 0x13 DUP2 MSTORE PUSH1 0x20 ADD PUSH32 0x696E7465726E616C206A6F622063616C6C656400000000000000000000000000 DUP2 MSTORE POP SWAP1 POP SWAP1 JUMP JUMPDEST PUSH1 0x0 PUSH2 0x2BB DUP3 PUSH2 0x391 JUMP JUMPDEST PUSH2 0x2C5 DUP2 DUP6 PUSH2 0x39C JUMP JUMPDEST SWAP4 POP PUSH2 0x2D5 DUP2 DUP6 PUSH1 0x20 DUP7 ADD PUSH2 0x3AD JUMP JUMPDEST PUSH2 0x2DE DUP2 PUSH2 0x441 JUMP JUMPDEST DUP5 ADD SWAP2 POP POP SWAP3 SWAP2 POP POP JUMP JUMPDEST PUSH1 0x0 PUSH2 0x2F6 PUSH1 0x25 DUP4 PUSH2 0x39C JUMP JUMPDEST SWAP2 POP PUSH2 0x301 DUP3 PUSH2 0x452 JUMP JUMPDEST PUSH1 0x40 DUP3 ADD SWAP1 POP SWAP2 SWAP1 POP JUMP JUMPDEST PUSH1 0x0 PUSH2 0x319 PUSH1 0x23 DUP4 PUSH2 0x39C JUMP JUMPDEST SWAP2 POP PUSH2 0x324 DUP3 PUSH2 0x4A1 JUMP JUMPDEST PUSH1 0x40 DUP3 ADD SWAP1 POP SWAP2 SWAP1 POP JUMP JUMPDEST PUSH1 0x0 PUSH1 0x20 DUP3 ADD SWAP1 POP DUP2 DUP2 SUB PUSH1 0x0 DUP4 ADD MSTORE PUSH2 0x349 DUP2 DUP5 PUSH2 0x2B0 JUMP JUMPDEST SWAP1 POP SWAP3 SWAP2 POP POP JUMP JUMPDEST PUSH1 0x0 PUSH1 0x20 DUP3 ADD SWAP1 POP DUP2 DUP2 SUB PUSH1 0x0 DUP4 ADD MSTORE PUSH2 0x36A DUP2 PUSH2 0x2E9 JUMP JUMPDEST SWAP1 POP SWAP2 SWAP1 POP JUMP JUMPDEST PUSH1 0x0 PUSH1 0x20 DUP3 ADD SWAP1 POP DUP2 DUP2 SUB PUSH1 0x0 DUP4 ADD MSTORE PUSH2 0x38A DUP2 PUSH2 0x30C JUMP JUMPDEST SWAP1 POP SWAP2 SWAP1 POP JUMP JUMPDEST PUSH1 0x0 DUP2 MLOAD SWAP1 POP SWAP2 SWAP1 POP JUMP JUMPDEST PUSH1 0x0 DUP3 DUP3 MSTORE PUSH1 0x20 DUP3 ADD SWAP1 POP SWAP3 SWAP2 POP POP JUMP JUMPDEST PUSH1 0x0 JUMPDEST DUP4 DUP2 LT ISZERO PUSH2 0x3CB JUMPI DUP1 DUP3 ADD MLOAD DUP2 DUP5 ADD MSTORE PUSH1 0x20 DUP2 ADD SWAP1 POP PUSH2 0x3B0 JUMP JUMPDEST DUP4 DUP2 GT ISZERO PUSH2 0x3DA JUMPI PUSH1 0x0 DUP5 DUP5 ADD MSTORE JUMPDEST POP POP POP POP JUMP JUMPDEST PUSH1 0x0 PUSH1 0x2 DUP3 DIV SWAP1 POP PUSH1 0x1 DUP3 AND DUP1 PUSH2 0x3F8 JUMPI PUSH1 0x7F DUP3 AND SWAP2 POP JUMPDEST PUSH1 0x20 DUP3 LT DUP2 EQ ISZERO PUSH2 0x40C JUMPI PUSH2 0x40B PUSH2 0x412 JUMP JUMPDEST JUMPDEST POP SWAP2 SWAP1 POP JUMP JUMPDEST PUSH32 0x4E487B7100000000000000000000000000000000000000000000000000000000 PUSH1 0x0 MSTORE PUSH1 0x22 PUSH1 0x4 MSTORE PUSH1 0x24 PUSH1 0x0 REVERT JUMPDEST PUSH1 0x0 PUSH1 0x1F NOT PUSH1 0x1F DUP4 ADD AND SWAP1 POP SWAP2 SWAP1 POP JUMP JUMPDEST PUSH32 0x63616E6E6F742061636365737320696E7465726E616C20737461746520766172 PUSH1 0x0 DUP3 ADD MSTORE PUSH32 0x6961626C65000000000000000000000000000000000000000000000000000000 PUSH1 0x20 DUP3 ADD MSTORE POP JUMP JUMPDEST PUSH32 0x63616E6E6F7420616363657373207075626C6963207374617465207661726961 PUSH1 0x0 DUP3 ADD MSTORE PUSH32 0x626C650000000000000000000000000000000000000000000000000000000000 PUSH1 0x20 DUP3 ADD MSTORE POP JUMP INVALID LOG2 PUSH5 0x6970667358 0x22 SLT KECCAK256 0x5D 0xCD 0xDD 0xCA 0xD4 0xCF MOD 0xE9 JUMPDEST 0xB8 TIMESTAMP 0x4C DUP16 0xF6 0xFB DUP11 MSTORE 0xD5 0xEF 0x4C 0xE0 EXTCODECOPY 0x26 EXTCODEHASH 0xA6 0xB3 PUSH29 0x66D03B3E0964736F6C6343000807003300000000000000000000000000 "
				},
				"gasEstimates": {
					"creation": {
						"codeDepositCost": "263600",
						"executionCost": "infinite",
						"totalCost": "infinite"
					},
					"external": {
						"externalJob()": "infinite",
						"publicJob()": "infinite",
						"publicMsg()": "infinite",
						"testScope()": "infinite"
					}
				},
				"methodIdentifiers": {
					"externalJob()": "628e6fa1",
					"publicJob()": "a23a028b",
					"publicMsg()": "c6c41055",
					"testScope()": "fcc91b35"
				}
			},
			"storageLayout": {
				"storage": [
					{
						"astId": 4,
						"contract": "Ep6/example.sol:Extend",
						"label": "privateMsg",
						"offset": 0,
						"slot": "0",
						"type": "t_string_storage"
					},
					{
						"astId": 7,
						"contract": "Ep6/example.sol:Extend",
						"label": "internalMsg",
						"offset": 0,
						"slot": "1",
						"type": "t_string_storage"
					},
					{
						"astId": 10,
						"contract": "Ep6/example.sol:Extend",
						"label": "publicMsg",
						"offset": 0,
						"slot": "2",
						"type": "t_string_storage"
					}
				],
				"types": {
					"t_string_storage": {
						"encoding": "bytes",
						"label": "string",
						"numberOfBytes": "32"
					}
				}
			},
			"userdoc": {
				"kind": "user",
				"methods": {},
				"version": 1
			}
		}
	}
}