{
	"Ep6/example.sol": {
		"Base": {
			"abi": [
				{
					"inputs": [],
					"name": "externalJob",
					"outputs": [
						{
							"internalType": "string",
							"name": "",
							"type": "string"
						}
					],
					"stateMutability": "pure",
					"type": "function"
				},
				{
					"inputs": [],
					"name": "publicJob",
					"outputs": [
						{
							"internalType": "string",
							"name": "",
							"type": "string"
						}
					],
					"stateMutability": "pure",
					"type": "function"
				},
				{
					"inputs": [],
					"name": "publicMsg",
					"outputs": [
						{
							"internalType": "string",
							"name": "",
							"type": "string"
						}
					],
					"stateMutability": "view",
					"type": "function"
				},
				{
					"inputs": [],
					"name": "testScope",
					"outputs": [],
					"stateMutability": "nonpayable",
					"type": "function"
				}
			],
			"devdoc": {
				"kind": "dev",
				"methods": {},
				"version": 1
			},
			"evm": {
				"assembly": "    /* \"Ep6/example.sol\":62:2541  contract Base {\r... */\n  mstore(0x40, 0x80)\n    /* \"Ep6/example.sol\":156:209  string private privateMsg = \"private state variables\" */\n  mload(0x40)\n  dup1\n  0x40\n  add\n  0x40\n  mstore\n  dup1\n  0x17\n  dup2\n  mstore\n  0x20\n  add\n  0x70726976617465207374617465207661726961626c6573000000000000000000\n  dup2\n  mstore\n  pop\n  0x00\n  swap1\n  dup1\n  mload\n  swap1\n  0x20\n  add\n  swap1\n  tag_1\n  swap3\n  swap2\n  swap1\n  tag_2\n  jump\t// in\ntag_1:\n  pop\n    /* \"Ep6/example.sol\":323:379  string internal internalMsg = \"internal state variables\" */\n  mload(0x40)\n  dup1\n  0x40\n  add\n  0x40\n  mstore\n  dup1\n  0x18\n  dup2\n  mstore\n  0x20\n  add\n  0x696e7465726e616c207374617465207661726961626c65730000000000000000\n  dup2\n  mstore\n  pop\n  0x01\n  swap1\n  dup1\n  mload\n  swap1\n  0x20\n  add\n  swap1\n  tag_3\n  swap3\n  swap2\n  swap1\n  tag_2\n  jump\t// in\ntag_3:\n  pop\n    /* \"Ep6/example.sol\":525:575  string public publicMsg = \"public state variables\" */\n  mload(0x40)\n  dup1\n  0x40\n  add\n  0x40\n  mstore\n  dup1\n  0x16\n  dup2\n  mstore\n  0x20\n  add\n  0x7075626c6963207374617465207661726961626c657300000000000000000000\n  dup2\n  mstore\n  pop\n  0x02\n  swap1\n  dup1\n  mload\n  swap1\n  0x20\n  add\n  swap1\n  tag_4\n  swap3\n  swap2\n  swap1\n  tag_2\n  jump\t// in\ntag_4:\n  pop\n    /* \"Ep6/example.sol\":62:2541  contract Base {\r... */\n  callvalue\n  dup1\n  iszero\n  tag_5\n  jumpi\n  0x00\n  dup1\n  revert\ntag_5:\n  pop\n  jump(tag_6)\ntag_2:\n  dup3\n  dup1\n  sload\n  tag_7\n  swap1\n  tag_8\n  jump\t// in\ntag_7:\n  swap1\n  0x00\n  mstore\n  keccak256(0x00, 0x20)\n  swap1\n  0x1f\n  add\n  0x20\n  swap1\n  div\n  dup2\n  add\n  swap3\n  dup3\n  tag_10\n  jumpi\n  0x00\n  dup6\n  sstore\n  jump(tag_9)\ntag_10:\n  dup3\n  0x1f\n  lt\n  tag_11\n  jumpi\n  dup1\n  mload\n  not(0xff)\n  and\n  dup4\n  dup1\n  add\n  or\n  dup6\n  sstore\n  jump(tag_9)\ntag_11:\n  dup3\n  dup1\n  add\n  0x01\n  add\n  dup6\n  sstore\n  dup3\n  iszero\n  tag_9\n  jumpi\n  swap2\n  dup3\n  add\ntag_12:\n  dup3\n  dup2\n  gt\n  iszero\n  tag_13\n  jumpi\n  dup3\n  mload\n  dup3\n  sstore\n  swap2\n  0x20\n  add\n  swap2\n  swap1\n  0x01\n  add\n  swap1\n  jump(tag_12)\ntag_13:\ntag_9:\n  pop\n  swap1\n  pop\n  tag_14\n  swap2\n  swap1\n  tag_15\n  jump\t// in\ntag_14:\n  pop\n  swap1\n  jump\t// out\ntag_15:\ntag_16:\n  dup1\n  dup3\n  gt\n  iszero\n  tag_17\n  jumpi\n  0x00\n  dup2\n  0x00\n  swap1\n  sstore\n  pop\n  0x01\n  add\n  jump(tag_16)\ntag_17:\n  pop\n  swap1\n  jump\t// out\n    /* \"#utility.yul\":7:327   */\ntag_8:\n    /* \"#utility.yul\":51:57   */\n  0x00\n    /* \"#utility.yul\":88:89   */\n  0x02\n    /* \"#utility.yul\":82:86   */\n  dup3\n    /* \"#utility.yul\":78:90   */\n  div\n    /* \"#utility.yul\":68:90   */\n  swap1\n  pop\n    /* \"#utility.yul\":135:136   */\n  0x01\n    /* \"#utility.yul\":129:133   */\n  dup3\n    /* \"#utility.yul\":125:137   */\n  and\n    /* \"#utility.yul\":156:174   */\n  dup1\n    /* \"#utility.yul\":146:227   */\n  tag_20\n  jumpi\n    /* \"#utility.yul\":212:216   */\n  0x7f\n    /* \"#utility.yul\":204:210   */\n  dup3\n    /* \"#utility.yul\":200:217   */\n  and\n    /* \"#utility.yul\":190:217   */\n  swap2\n  pop\n    /* \"#utility.yul\":146:227   */\ntag_20:\n    /* \"#utility.yul\":274:276   */\n  0x20\n    /* \"#utility.yul\":266:272   */\n  dup3\n    /* \"#utility.yul\":263:277   */\n  lt\n    /* \"#utility.yul\":243:261   */\n  dup2\n    /* \"#utility.yul\":240:278   */\n  eq\n    /* \"#utility.yul\":237:321   */\n  iszero\n  tag_21\n  jumpi\n    /* \"#utility.yul\":293:311   */\n  tag_22\n  tag_23\n  jump\t// in\ntag_22:\n    /* \"#utility.yul\":237:321   */\ntag_21:\n    /* \"#utility.yul\":58:327   */\n  pop\n    /* \"#utility.yul\":7:327   */\n  swap2\n  swap1\n  pop\n  jump\t// out\n    /* \"#utility.yul\":333:513   */\ntag_23:\n    /* \"#utility.yul\":381:458   */\n  0x4e487b7100000000000000000000000000000000000000000000000000000000\n    /* \"#utility.yul\":378:379   */\n  0x00\n    /* \"#utility.yul\":371:459   */\n  mstore\n    /* \"#utility.yul\":478:482   */\n  0x22\n    /* \"#utility.yul\":475:476   */\n  0x04\n    /* \"#utility.yul\":468:483   */\n  mstore\n    /* \"#utility.yul\":502:506   */\n  0x24\n    /* \"#utility.yul\":499:500   */\n  0x00\n    /* \"#utility.yul\":492:507   */\n  revert\n    /* \"Ep6/example.sol\":62:2541  contract Base {\r... */\ntag_6:\n  dataSize(sub_0)\n  dup1\n  dataOffset(sub_0)\n  0x00\n  codecopy\n  0x00\n  return\nstop\n\nsub_0: assembly {\n        /* \"Ep6/example.sol\":62:2541  contract Base {\r... */\n      mstore(0x40, 0x80)\n      callvalue\n      dup1\n      iszero\n      tag_1\n      jumpi\n      0x00\n      dup1\n      revert\n    tag_1:\n      pop\n      jumpi(tag_2, lt(calldatasize, 0x04))\n      shr(0xe0, calldataload(0x00))\n      dup1\n      0x628e6fa1\n      eq\n      tag_3\n      jumpi\n      dup1\n      0xa23a028b\n      eq\n      tag_4\n      jumpi\n      dup1\n      0xc6c41055\n      eq\n      tag_5\n      jumpi\n      dup1\n      0xfcc91b35\n      eq\n      tag_6\n      jumpi\n    tag_2:\n      0x00\n      dup1\n      revert\n        /* \"Ep6/example.sol\":1258:1366  function externalJob() external pure returns (string memory) {\r... */\n    tag_3:\n      tag_7\n      tag_8\n      jump\t// in\n    tag_7:\n      mload(0x40)\n      tag_9\n      swap2\n      swap1\n      tag_10\n      jump\t// in\n    tag_9:\n      mload(0x40)\n      dup1\n      swap2\n      sub\n      swap1\n      return\n        /* \"Ep6/example.sol\":1103:1205  function publicJob() public pure returns (string memory) {\r... */\n    tag_4:\n      tag_11\n      tag_12\n      jump\t// in\n    tag_11:\n      mload(0x40)\n      tag_13\n      swap2\n      swap1\n      tag_10\n      jump\t// in\n    tag_13:\n      mload(0x40)\n      dup1\n      swap2\n      sub\n      swap1\n      return\n        /* \"Ep6/example.sol\":525:575  string public publicMsg = \"public state variables\" */\n    tag_5:\n      tag_14\n      tag_15\n      jump\t// in\n    tag_14:\n      mload(0x40)\n      tag_16\n      swap2\n      swap1\n      tag_10\n      jump\t// in\n    tag_16:\n      mload(0x40)\n      dup1\n      swap2\n      sub\n      swap1\n      return\n        /* \"Ep6/example.sol\":1376:2536  function testScope() public virtual  {\r... */\n    tag_6:\n      tag_17\n      tag_18\n      jump\t// in\n    tag_17:\n      stop\n        /* \"Ep6/example.sol\":1258:1366  function externalJob() external pure returns (string memory) {\r... */\n    tag_8:\n        /* \"Ep6/example.sol\":1304:1317  string memory */\n      0x60\n        /* \"Ep6/example.sol\":1330:1358  return \"external job called\" */\n      mload(0x40)\n      dup1\n      0x40\n      add\n      0x40\n      mstore\n      dup1\n      0x13\n      dup2\n      mstore\n      0x20\n      add\n      0x65787465726e616c206a6f622063616c6c656400000000000000000000000000\n      dup2\n      mstore\n      pop\n      swap1\n      pop\n        /* \"Ep6/example.sol\":1258:1366  function externalJob() external pure returns (string memory) {\r... */\n      swap1\n      jump\t// out\n        /* \"Ep6/example.sol\":1103:1205  function publicJob() public pure returns (string memory) {\r... */\n    tag_12:\n        /* \"Ep6/example.sol\":1145:1158  string memory */\n      0x60\n        /* \"Ep6/example.sol\":1171:1197  return \"public job called\" */\n      mload(0x40)\n      dup1\n      0x40\n      add\n      0x40\n      mstore\n      dup1\n      0x11\n      dup2\n      mstore\n      0x20\n      add\n      0x7075626c6963206a6f622063616c6c6564000000000000000000000000000000\n      dup2\n      mstore\n      pop\n      swap1\n      pop\n        /* \"Ep6/example.sol\":1103:1205  function publicJob() public pure returns (string memory) {\r... */\n      swap1\n      jump\t// out\n        /* \"Ep6/example.sol\":525:575  string public publicMsg = \"public state variables\" */\n    tag_15:\n      0x02\n      dup1\n      sload\n      tag_21\n      swap1\n      tag_22\n      jump\t// in\n    tag_21:\n      dup1\n      0x1f\n      add\n      0x20\n      dup1\n      swap2\n      div\n      mul\n      0x20\n      add\n      mload(0x40)\n      swap1\n      dup2\n      add\n      0x40\n      mstore\n      dup1\n      swap3\n      swap2\n      swap1\n      dup2\n      dup2\n      mstore\n      0x20\n      add\n      dup3\n      dup1\n      sload\n      tag_23\n      swap1\n      tag_22\n      jump\t// in\n    tag_23:\n      dup1\n      iszero\n      tag_24\n      jumpi\n      dup1\n      0x1f\n      lt\n      tag_25\n      jumpi\n      0x0100\n      dup1\n      dup4\n      sload\n      div\n      mul\n      dup4\n      mstore\n      swap2\n      0x20\n      add\n      swap2\n      jump(tag_24)\n    tag_25:\n      dup3\n      add\n      swap2\n      swap1\n      0x00\n      mstore\n      keccak256(0x00, 0x20)\n      swap1\n    tag_26:\n      dup2\n      sload\n      dup2\n      mstore\n      swap1\n      0x01\n      add\n      swap1\n      0x20\n      add\n      dup1\n      dup4\n      gt\n      tag_26\n      jumpi\n      dup3\n      swap1\n      sub\n      0x1f\n      and\n      dup3\n      add\n      swap2\n    tag_24:\n      pop\n      pop\n      pop\n      pop\n      pop\n      dup2\n      jump\t// out\n        /* \"Ep6/example.sol\":1376:2536  function testScope() public virtual  {\r... */\n    tag_18:\n        /* \"Ep6/example.sol\":1697:1701  this */\n      address\n        /* \"Ep6/example.sol\":1697:1713  this.externalJob */\n      0xffffffffffffffffffffffffffffffffffffffff\n      and\n      0x628e6fa1\n        /* \"Ep6/example.sol\":1697:1715  this.externalJob() */\n      mload(0x40)\n      dup2\n      0xffffffff\n      and\n      0xe0\n      shl\n      dup2\n      mstore\n      0x04\n      add\n      0x00\n      mload(0x40)\n      dup1\n      dup4\n      sub\n      dup2\n      dup7\n      dup1\n      extcodesize\n      iszero\n      dup1\n      iszero\n      tag_28\n      jumpi\n      0x00\n      dup1\n      revert\n    tag_28:\n      pop\n      gas\n      staticcall\n      iszero\n      dup1\n      iszero\n      tag_30\n      jumpi\n      returndatasize\n      0x00\n      dup1\n      returndatacopy\n      revert(0x00, returndatasize)\n    tag_30:\n      pop\n      pop\n      pop\n      pop\n      mload(0x40)\n      returndatasize\n      0x00\n      dup3\n      returndatacopy\n      returndatasize\n      not(0x1f)\n      0x1f\n      dup3\n      add\n      and\n      dup3\n      add\n      dup1\n      0x40\n      mstore\n      pop\n      dup2\n      add\n      swap1\n      tag_31\n      swap2\n      swap1\n      tag_32\n      jump\t// in\n    tag_31:\n      pop\n        /* \"Ep6/example.sol\":1788:1799  publicJob() */\n      tag_33\n        /* \"Ep6/example.sol\":1788:1797  publicJob */\n      tag_12\n        /* \"Ep6/example.sol\":1788:1799  publicJob() */\n      jump\t// in\n    tag_33:\n      pop\n        /* \"Ep6/example.sol\":1874:1887  internalJob() */\n      tag_34\n        /* \"Ep6/example.sol\":1874:1885  internalJob */\n      tag_35\n        /* \"Ep6/example.sol\":1874:1887  internalJob() */\n      jump\t// in\n    tag_34:\n      pop\n        /* \"Ep6/example.sol\":1962:1974  privateJob() */\n      tag_36\n        /* \"Ep6/example.sol\":1962:1972  privateJob */\n      tag_37\n        /* \"Ep6/example.sol\":1962:1974  privateJob() */\n      jump\t// in\n    tag_36:\n      pop\n        /* \"Ep6/example.sol\":2188:2189  0 */\n      0x00\n        /* \"Ep6/example.sol\":2167:2177  privateMsg */\n      dup1\n        /* \"Ep6/example.sol\":2161:2185  bytes(privateMsg).length */\n      dup1\n      sload\n      tag_38\n      swap1\n      tag_22\n      jump\t// in\n    tag_38:\n      swap1\n      pop\n        /* \"Ep6/example.sol\":2161:2189  bytes(privateMsg).length > 0 */\n      gt\n        /* \"Ep6/example.sol\":2153:2230  require(bytes(privateMsg).length > 0, \"cannot access private state variable\") */\n      tag_39\n      jumpi\n      mload(0x40)\n      0x08c379a000000000000000000000000000000000000000000000000000000000\n      dup2\n      mstore\n      0x04\n      add\n      tag_40\n      swap1\n      tag_41\n      jump\t// in\n    tag_40:\n      mload(0x40)\n      dup1\n      swap2\n      sub\n      swap1\n      revert\n    tag_39:\n        /* \"Ep6/example.sol\":2339:2340  0 */\n      0x00\n        /* \"Ep6/example.sol\":2317:2328  internalMsg */\n      0x01\n        /* \"Ep6/example.sol\":2311:2336  bytes(internalMsg).length */\n      dup1\n      sload\n      tag_42\n      swap1\n      tag_22\n      jump\t// in\n    tag_42:\n      swap1\n      pop\n        /* \"Ep6/example.sol\":2311:2340  bytes(internalMsg).length > 0 */\n      gt\n        /* \"Ep6/example.sol\":2303:2382  require(bytes(internalMsg).length > 0, \"cannot access internal state variable\") */\n      tag_43\n      jumpi\n      mload(0x40)\n      0x08c379a000000000000000000000000000000000000000000000000000000000\n      dup2\n      mstore\n      0x04\n      add\n      tag_44\n      swap1\n      tag_45\n      jump\t// in\n    tag_44:\n      mload(0x40)\n      dup1\n      swap2\n      sub\n      swap1\n      revert\n    tag_43:\n        /* \"Ep6/example.sol\":2487:2488  0 */\n      0x00\n        /* \"Ep6/example.sol\":2467:2476  publicMsg */\n      0x02\n        /* \"Ep6/example.sol\":2461:2484  bytes(publicMsg).length */\n      dup1\n      sload\n      tag_46\n      swap1\n      tag_22\n      jump\t// in\n    tag_46:\n      swap1\n      pop\n        /* \"Ep6/example.sol\":2461:2488  bytes(publicMsg).length > 0 */\n      gt\n        /* \"Ep6/example.sol\":2453:2528  require(bytes(publicMsg).length > 0, \"cannot access public state variable\") */\n      tag_47\n      jumpi\n      mload(0x40)\n      0x08c379a000000000000000000000000000000000000000000000000000000000\n      dup2\n      mstore\n      0x04\n      add\n      tag_48\n      swap1\n      tag_49\n      jump\t// in\n    tag_48:\n      mload(0x40)\n      dup1\n      swap2\n      sub\n      swap1\n      revert\n    tag_47:\n        /* \"Ep6/example.sol\":1376:2536  function testScope() public virtual  {\r... */\n      jump\t// out\n        /* \"Ep6/example.sol\":850:958  function internalJob() internal pure returns (string memory) {\r... */\n    tag_35:\n        /* \"Ep6/example.sol\":896:909  string memory */\n      0x60\n        /* \"Ep6/example.sol\":922:950  return \"internal job called\" */\n      mload(0x40)\n      dup1\n      0x40\n      add\n      0x40\n      mstore\n      dup1\n      0x13\n      dup2\n      mstore\n      0x20\n      add\n      0x696e7465726e616c206a6f622063616c6c656400000000000000000000000000\n      dup2\n      mstore\n      pop\n      swap1\n      pop\n        /* \"Ep6/example.sol\":850:958  function internalJob() internal pure returns (string memory) {\r... */\n      swap1\n      jump\t// out\n        /* \"Ep6/example.sol\":633:737  function privateJob() private pure returns(string memory) {\r... */\n    tag_37:\n        /* \"Ep6/example.sol\":676:689  string memory */\n      0x60\n        /* \"Ep6/example.sol\":702:729  return \"private job called\" */\n      mload(0x40)\n      dup1\n      0x40\n      add\n      0x40\n      mstore\n      dup1\n      0x12\n      dup2\n      mstore\n      0x20\n      add\n      0x70726976617465206a6f622063616c6c65640000000000000000000000000000\n      dup2\n      mstore\n      pop\n      swap1\n      pop\n        /* \"Ep6/example.sol\":633:737  function privateJob() private pure returns(string memory) {\r... */\n      swap1\n      jump\t// out\n        /* \"#utility.yul\":7:428   */\n    tag_53:\n        /* \"#utility.yul\":96:101   */\n      0x00\n        /* \"#utility.yul\":121:187   */\n      tag_55\n        /* \"#utility.yul\":137:186   */\n      tag_56\n        /* \"#utility.yul\":179:185   */\n      dup5\n        /* \"#utility.yul\":137:186   */\n      tag_57\n      jump\t// in\n    tag_56:\n        /* \"#utility.yul\":121:187   */\n      tag_58\n      jump\t// in\n    tag_55:\n        /* \"#utility.yul\":112:187   */\n      swap1\n      pop\n        /* \"#utility.yul\":210:216   */\n      dup3\n        /* \"#utility.yul\":203:208   */\n      dup2\n        /* \"#utility.yul\":196:217   */\n      mstore\n        /* \"#utility.yul\":248:252   */\n      0x20\n        /* \"#utility.yul\":241:246   */\n      dup2\n        /* \"#utility.yul\":237:253   */\n      add\n        /* \"#utility.yul\":286:289   */\n      dup5\n        /* \"#utility.yul\":277:283   */\n      dup5\n        /* \"#utility.yul\":272:275   */\n      dup5\n        /* \"#utility.yul\":268:284   */\n      add\n        /* \"#utility.yul\":265:290   */\n      gt\n        /* \"#utility.yul\":262:374   */\n      iszero\n      tag_59\n      jumpi\n        /* \"#utility.yul\":293:372   */\n      tag_60\n      tag_61\n      jump\t// in\n    tag_60:\n        /* \"#utility.yul\":262:374   */\n    tag_59:\n        /* \"#utility.yul\":383:422   */\n      tag_62\n        /* \"#utility.yul\":415:421   */\n      dup5\n        /* \"#utility.yul\":410:413   */\n      dup3\n        /* \"#utility.yul\":405:408   */\n      dup6\n        /* \"#utility.yul\":383:422   */\n      tag_63\n      jump\t// in\n    tag_62:\n        /* \"#utility.yul\":102:428   */\n      pop\n        /* \"#utility.yul\":7:428   */\n      swap4\n      swap3\n      pop\n      pop\n      pop\n      jump\t// out\n        /* \"#utility.yul\":448:803   */\n    tag_64:\n        /* \"#utility.yul\":515:520   */\n      0x00\n        /* \"#utility.yul\":564:567   */\n      dup3\n        /* \"#utility.yul\":557:561   */\n      0x1f\n        /* \"#utility.yul\":549:555   */\n      dup4\n        /* \"#utility.yul\":545:562   */\n      add\n        /* \"#utility.yul\":541:568   */\n      slt\n        /* \"#utility.yul\":531:653   */\n      tag_66\n      jumpi\n        /* \"#utility.yul\":572:651   */\n      tag_67\n      tag_68\n      jump\t// in\n    tag_67:\n        /* \"#utility.yul\":531:653   */\n    tag_66:\n        /* \"#utility.yul\":682:688   */\n      dup2\n        /* \"#utility.yul\":676:689   */\n      mload\n        /* \"#utility.yul\":707:797   */\n      tag_69\n        /* \"#utility.yul\":793:796   */\n      dup5\n        /* \"#utility.yul\":785:791   */\n      dup3\n        /* \"#utility.yul\":778:782   */\n      0x20\n        /* \"#utility.yul\":770:776   */\n      dup7\n        /* \"#utility.yul\":766:783   */\n      add\n        /* \"#utility.yul\":707:797   */\n      tag_53\n      jump\t// in\n    tag_69:\n        /* \"#utility.yul\":698:797   */\n      swap2\n      pop\n        /* \"#utility.yul\":521:803   */\n      pop\n        /* \"#utility.yul\":448:803   */\n      swap3\n      swap2\n      pop\n      pop\n      jump\t// out\n        /* \"#utility.yul\":809:1333   */\n    tag_32:\n        /* \"#utility.yul\":889:895   */\n      0x00\n        /* \"#utility.yul\":938:940   */\n      0x20\n        /* \"#utility.yul\":926:935   */\n      dup3\n        /* \"#utility.yul\":917:924   */\n      dup5\n        /* \"#utility.yul\":913:936   */\n      sub\n        /* \"#utility.yul\":909:941   */\n      slt\n        /* \"#utility.yul\":906:1025   */\n      iszero\n      tag_71\n      jumpi\n        /* \"#utility.yul\":944:1023   */\n      tag_72\n      tag_73\n      jump\t// in\n    tag_72:\n        /* \"#utility.yul\":906:1025   */\n    tag_71:\n        /* \"#utility.yul\":1085:1086   */\n      0x00\n        /* \"#utility.yul\":1074:1083   */\n      dup3\n        /* \"#utility.yul\":1070:1087   */\n      add\n        /* \"#utility.yul\":1064:1088   */\n      mload\n        /* \"#utility.yul\":1115:1133   */\n      0xffffffffffffffff\n        /* \"#utility.yul\":1107:1113   */\n      dup2\n        /* \"#utility.yul\":1104:1134   */\n      gt\n        /* \"#utility.yul\":1101:1218   */\n      iszero\n      tag_74\n      jumpi\n        /* \"#utility.yul\":1137:1216   */\n      tag_75\n      tag_76\n      jump\t// in\n    tag_75:\n        /* \"#utility.yul\":1101:1218   */\n    tag_74:\n        /* \"#utility.yul\":1242:1316   */\n      tag_77\n        /* \"#utility.yul\":1308:1315   */\n      dup5\n        /* \"#utility.yul\":1299:1305   */\n      dup3\n        /* \"#utility.yul\":1288:1297   */\n      dup6\n        /* \"#utility.yul\":1284:1306   */\n      add\n        /* \"#utility.yul\":1242:1316   */\n      tag_64\n      jump\t// in\n    tag_77:\n        /* \"#utility.yul\":1232:1316   */\n      swap2\n      pop\n        /* \"#utility.yul\":1035:1326   */\n      pop\n        /* \"#utility.yul\":809:1333   */\n      swap3\n      swap2\n      pop\n      pop\n      jump\t// out\n        /* \"#utility.yul\":1339:1703   */\n    tag_78:\n        /* \"#utility.yul\":1427:1430   */\n      0x00\n        /* \"#utility.yul\":1455:1494   */\n      tag_80\n        /* \"#utility.yul\":1488:1493   */\n      dup3\n        /* \"#utility.yul\":1455:1494   */\n      tag_81\n      jump\t// in\n    tag_80:\n        /* \"#utility.yul\":1510:1581   */\n      tag_82\n        /* \"#utility.yul\":1574:1580   */\n      dup2\n        /* \"#utility.yul\":1569:1572   */\n      dup6\n        /* \"#utility.yul\":1510:1581   */\n      tag_83\n      jump\t// in\n    tag_82:\n        /* \"#utility.yul\":1503:1581   */\n      swap4\n      pop\n        /* \"#utility.yul\":1590:1642   */\n      tag_84\n        /* \"#utility.yul\":1635:1641   */\n      dup2\n        /* \"#utility.yul\":1630:1633   */\n      dup6\n        /* \"#utility.yul\":1623:1627   */\n      0x20\n        /* \"#utility.yul\":1616:1621   */\n      dup7\n        /* \"#utility.yul\":1612:1628   */\n      add\n        /* \"#utility.yul\":1590:1642   */\n      tag_63\n      jump\t// in\n    tag_84:\n        /* \"#utility.yul\":1667:1696   */\n      tag_85\n        /* \"#utility.yul\":1689:1695   */\n      dup2\n        /* \"#utility.yul\":1667:1696   */\n      tag_86\n      jump\t// in\n    tag_85:\n        /* \"#utility.yul\":1662:1665   */\n      dup5\n        /* \"#utility.yul\":1658:1697   */\n      add\n        /* \"#utility.yul\":1651:1697   */\n      swap2\n      pop\n        /* \"#utility.yul\":1431:1703   */\n      pop\n        /* \"#utility.yul\":1339:1703   */\n      swap3\n      swap2\n      pop\n      pop\n      jump\t// out\n        /* \"#utility.yul\":1709:2075   */\n    tag_87:\n        /* \"#utility.yul\":1851:1854   */\n      0x00\n        /* \"#utility.yul\":1872:1939   */\n      tag_89\n        /* \"#utility.yul\":1936:1938   */\n      0x25\n        /* \"#utility.yul\":1931:1934   */\n      dup4\n        /* \"#utility.yul\":1872:1939   */\n      tag_83\n      jump\t// in\n    tag_89:\n        /* \"#utility.yul\":1865:1939   */\n      swap2\n      pop\n        /* \"#utility.yul\":1948:2041   */\n      tag_90\n        /* \"#utility.yul\":2037:2040   */\n      dup3\n        /* \"#utility.yul\":1948:2041   */\n      tag_91\n      jump\t// in\n    tag_90:\n        /* \"#utility.yul\":2066:2068   */\n      0x40\n        /* \"#utility.yul\":2061:2064   */\n      dup3\n        /* \"#utility.yul\":2057:2069   */\n      add\n        /* \"#utility.yul\":2050:2069   */\n      swap1\n      pop\n        /* \"#utility.yul\":1709:2075   */\n      swap2\n      swap1\n      pop\n      jump\t// out\n        /* \"#utility.yul\":2081:2447   */\n    tag_92:\n        /* \"#utility.yul\":2223:2226   */\n      0x00\n        /* \"#utility.yul\":2244:2311   */\n      tag_94\n        /* \"#utility.yul\":2308:2310   */\n      0x24\n        /* \"#utility.yul\":2303:2306   */\n      dup4\n        /* \"#utility.yul\":2244:2311   */\n      tag_83\n      jump\t// in\n    tag_94:\n        /* \"#utility.yul\":2237:2311   */\n      swap2\n      pop\n        /* \"#utility.yul\":2320:2413   */\n      tag_95\n        /* \"#utility.yul\":2409:2412   */\n      dup3\n        /* \"#utility.yul\":2320:2413   */\n      tag_96\n      jump\t// in\n    tag_95:\n        /* \"#utility.yul\":2438:2440   */\n      0x40\n        /* \"#utility.yul\":2433:2436   */\n      dup3\n        /* \"#utility.yul\":2429:2441   */\n      add\n        /* \"#utility.yul\":2422:2441   */\n      swap1\n      pop\n        /* \"#utility.yul\":2081:2447   */\n      swap2\n      swap1\n      pop\n      jump\t// out\n        /* \"#utility.yul\":2453:2819   */\n    tag_97:\n        /* \"#utility.yul\":2595:2598   */\n      0x00\n        /* \"#utility.yul\":2616:2683   */\n      tag_99\n        /* \"#utility.yul\":2680:2682   */\n      0x23\n        /* \"#utility.yul\":2675:2678   */\n      dup4\n        /* \"#utility.yul\":2616:2683   */\n      tag_83\n      jump\t// in\n    tag_99:\n        /* \"#utility.yul\":2609:2683   */\n      swap2\n      pop\n        /* \"#utility.yul\":2692:2785   */\n      tag_100\n        /* \"#utility.yul\":2781:2784   */\n      dup3\n        /* \"#utility.yul\":2692:2785   */\n      tag_101\n      jump\t// in\n    tag_100:\n        /* \"#utility.yul\":2810:2812   */\n      0x40\n        /* \"#utility.yul\":2805:2808   */\n      dup3\n        /* \"#utility.yul\":2801:2813   */\n      add\n        /* \"#utility.yul\":2794:2813   */\n      swap1\n      pop\n        /* \"#utility.yul\":2453:2819   */\n      swap2\n      swap1\n      pop\n      jump\t// out\n        /* \"#utility.yul\":2825:3138   */\n    tag_10:\n        /* \"#utility.yul\":2938:2942   */\n      0x00\n        /* \"#utility.yul\":2976:2978   */\n      0x20\n        /* \"#utility.yul\":2965:2974   */\n      dup3\n        /* \"#utility.yul\":2961:2979   */\n      add\n        /* \"#utility.yul\":2953:2979   */\n      swap1\n      pop\n        /* \"#utility.yul\":3025:3034   */\n      dup2\n        /* \"#utility.yul\":3019:3023   */\n      dup2\n        /* \"#utility.yul\":3015:3035   */\n      sub\n        /* \"#utility.yul\":3011:3012   */\n      0x00\n        /* \"#utility.yul\":3000:3009   */\n      dup4\n        /* \"#utility.yul\":2996:3013   */\n      add\n        /* \"#utility.yul\":2989:3036   */\n      mstore\n        /* \"#utility.yul\":3053:3131   */\n      tag_103\n        /* \"#utility.yul\":3126:3130   */\n      dup2\n        /* \"#utility.yul\":3117:3123   */\n      dup5\n        /* \"#utility.yul\":3053:3131   */\n      tag_78\n      jump\t// in\n    tag_103:\n        /* \"#utility.yul\":3045:3131   */\n      swap1\n      pop\n        /* \"#utility.yul\":2825:3138   */\n      swap3\n      swap2\n      pop\n      pop\n      jump\t// out\n        /* \"#utility.yul\":3144:3563   */\n    tag_45:\n        /* \"#utility.yul\":3310:3314   */\n      0x00\n        /* \"#utility.yul\":3348:3350   */\n      0x20\n        /* \"#utility.yul\":3337:3346   */\n      dup3\n        /* \"#utility.yul\":3333:3351   */\n      add\n        /* \"#utility.yul\":3325:3351   */\n      swap1\n      pop\n        /* \"#utility.yul\":3397:3406   */\n      dup2\n        /* \"#utility.yul\":3391:3395   */\n      dup2\n        /* \"#utility.yul\":3387:3407   */\n      sub\n        /* \"#utility.yul\":3383:3384   */\n      0x00\n        /* \"#utility.yul\":3372:3381   */\n      dup4\n        /* \"#utility.yul\":3368:3385   */\n      add\n        /* \"#utility.yul\":3361:3408   */\n      mstore\n        /* \"#utility.yul\":3425:3556   */\n      tag_105\n        /* \"#utility.yul\":3551:3555   */\n      dup2\n        /* \"#utility.yul\":3425:3556   */\n      tag_87\n      jump\t// in\n    tag_105:\n        /* \"#utility.yul\":3417:3556   */\n      swap1\n      pop\n        /* \"#utility.yul\":3144:3563   */\n      swap2\n      swap1\n      pop\n      jump\t// out\n        /* \"#utility.yul\":3569:3988   */\n    tag_41:\n        /* \"#utility.yul\":3735:3739   */\n      0x00\n        /* \"#utility.yul\":3773:3775   */\n      0x20\n        /* \"#utility.yul\":3762:3771   */\n      dup3\n        /* \"#utility.yul\":3758:3776   */\n      add\n        /* \"#utility.yul\":3750:3776   */\n      swap1\n      pop\n        /* \"#utility.yul\":3822:3831   */\n      dup2\n        /* \"#utility.yul\":3816:3820   */\n      dup2\n        /* \"#utility.yul\":3812:3832   */\n      sub\n        /* \"#utility.yul\":3808:3809   */\n      0x00\n        /* \"#utility.yul\":3797:3806   */\n      dup4\n        /* \"#utility.yul\":3793:3810   */\n      add\n        /* \"#utility.yul\":3786:3833   */\n      mstore\n        /* \"#utility.yul\":3850:3981   */\n      tag_107\n        /* \"#utility.yul\":3976:3980   */\n      dup2\n        /* \"#utility.yul\":3850:3981   */\n      tag_92\n      jump\t// in\n    tag_107:\n        /* \"#utility.yul\":3842:3981   */\n      swap1\n      pop\n        /* \"#utility.yul\":3569:3988   */\n      swap2\n      swap1\n      pop\n      jump\t// out\n        /* \"#utility.yul\":3994:4413   */\n    tag_49:\n        /* \"#utility.yul\":4160:4164   */\n      0x00\n        /* \"#utility.yul\":4198:4200   */\n      0x20\n        /* \"#utility.yul\":4187:4196   */\n      dup3\n        /* \"#utility.yul\":4183:4201   */\n      add\n        /* \"#utility.yul\":4175:4201   */\n      swap1\n      pop\n        /* \"#utility.yul\":4247:4256   */\n      dup2\n        /* \"#utility.yul\":4241:4245   */\n      dup2\n        /* \"#utility.yul\":4237:4257   */\n      sub\n        /* \"#utility.yul\":4233:4234   */\n      0x00\n        /* \"#utility.yul\":4222:4231   */\n      dup4\n        /* \"#utility.yul\":4218:4235   */\n      add\n        /* \"#utility.yul\":4211:4258   */\n      mstore\n        /* \"#utility.yul\":4275:4406   */\n      tag_109\n        /* \"#utility.yul\":4401:4405   */\n      dup2\n        /* \"#utility.yul\":4275:4406   */\n      tag_97\n      jump\t// in\n    tag_109:\n        /* \"#utility.yul\":4267:4406   */\n      swap1\n      pop\n        /* \"#utility.yul\":3994:4413   */\n      swap2\n      swap1\n      pop\n      jump\t// out\n        /* \"#utility.yul\":4419:4548   */\n    tag_58:\n        /* \"#utility.yul\":4453:4459   */\n      0x00\n        /* \"#utility.yul\":4480:4500   */\n      tag_111\n      tag_112\n      jump\t// in\n    tag_111:\n        /* \"#utility.yul\":4470:4500   */\n      swap1\n      pop\n        /* \"#utility.yul\":4509:4542   */\n      tag_113\n        /* \"#utility.yul\":4537:4541   */\n      dup3\n        /* \"#utility.yul\":4529:4535   */\n      dup3\n        /* \"#utility.yul\":4509:4542   */\n      tag_114\n      jump\t// in\n    tag_113:\n        /* \"#utility.yul\":4419:4548   */\n      swap2\n      swap1\n      pop\n      jump\t// out\n        /* \"#utility.yul\":4554:4629   */\n    tag_112:\n        /* \"#utility.yul\":4587:4593   */\n      0x00\n        /* \"#utility.yul\":4620:4622   */\n      0x40\n        /* \"#utility.yul\":4614:4623   */\n      mload\n        /* \"#utility.yul\":4604:4623   */\n      swap1\n      pop\n        /* \"#utility.yul\":4554:4629   */\n      swap1\n      jump\t// out\n        /* \"#utility.yul\":4635:4943   */\n    tag_57:\n        /* \"#utility.yul\":4697:4701   */\n      0x00\n        /* \"#utility.yul\":4787:4805   */\n      0xffffffffffffffff\n        /* \"#utility.yul\":4779:4785   */\n      dup3\n        /* \"#utility.yul\":4776:4806   */\n      gt\n        /* \"#utility.yul\":4773:4829   */\n      iszero\n      tag_117\n      jumpi\n        /* \"#utility.yul\":4809:4827   */\n      tag_118\n      tag_119\n      jump\t// in\n    tag_118:\n        /* \"#utility.yul\":4773:4829   */\n    tag_117:\n        /* \"#utility.yul\":4847:4876   */\n      tag_120\n        /* \"#utility.yul\":4869:4875   */\n      dup3\n        /* \"#utility.yul\":4847:4876   */\n      tag_86\n      jump\t// in\n    tag_120:\n        /* \"#utility.yul\":4839:4876   */\n      swap1\n      pop\n        /* \"#utility.yul\":4931:4935   */\n      0x20\n        /* \"#utility.yul\":4925:4929   */\n      dup2\n        /* \"#utility.yul\":4921:4936   */\n      add\n        /* \"#utility.yul\":4913:4936   */\n      swap1\n      pop\n        /* \"#utility.yul\":4635:4943   */\n      swap2\n      swap1\n      pop\n      jump\t// out\n        /* \"#utility.yul\":4949:5048   */\n    tag_81:\n        /* \"#utility.yul\":5001:5007   */\n      0x00\n        /* \"#utility.yul\":5035:5040   */\n      dup2\n        /* \"#utility.yul\":5029:5041   */\n      mload\n        /* \"#utility.yul\":5019:5041   */\n      swap1\n      pop\n        /* \"#utility.yul\":4949:5048   */\n      swap2\n      swap1\n      pop\n      jump\t// out\n        /* \"#utility.yul\":5054:5223   */\n    tag_83:\n        /* \"#utility.yul\":5138:5149   */\n      0x00\n        /* \"#utility.yul\":5172:5178   */\n      dup3\n        /* \"#utility.yul\":5167:5170   */\n      dup3\n        /* \"#utility.yul\":5160:5179   */\n      mstore\n        /* \"#utility.yul\":5212:5216   */\n      0x20\n        /* \"#utility.yul\":5207:5210   */\n      dup3\n        /* \"#utility.yul\":5203:5217   */\n      add\n        /* \"#utility.yul\":5188:5217   */\n      swap1\n      pop\n        /* \"#utility.yul\":5054:5223   */\n      swap3\n      swap2\n      pop\n      pop\n      jump\t// out\n        /* \"#utility.yul\":5229:5536   */\n    tag_63:\n        /* \"#utility.yul\":5297:5298   */\n      0x00\n        /* \"#utility.yul\":5307:5420   */\n    tag_124:\n        /* \"#utility.yul\":5321:5327   */\n      dup4\n        /* \"#utility.yul\":5318:5319   */\n      dup2\n        /* \"#utility.yul\":5315:5328   */\n      lt\n        /* \"#utility.yul\":5307:5420   */\n      iszero\n      tag_126\n      jumpi\n        /* \"#utility.yul\":5406:5407   */\n      dup1\n        /* \"#utility.yul\":5401:5404   */\n      dup3\n        /* \"#utility.yul\":5397:5408   */\n      add\n        /* \"#utility.yul\":5391:5409   */\n      mload\n        /* \"#utility.yul\":5387:5388   */\n      dup2\n        /* \"#utility.yul\":5382:5385   */\n      dup5\n        /* \"#utility.yul\":5378:5389   */\n      add\n        /* \"#utility.yul\":5371:5410   */\n      mstore\n        /* \"#utility.yul\":5343:5345   */\n      0x20\n        /* \"#utility.yul\":5340:5341   */\n      dup2\n        /* \"#utility.yul\":5336:5346   */\n      add\n        /* \"#utility.yul\":5331:5346   */\n      swap1\n      pop\n        /* \"#utility.yul\":5307:5420   */\n      jump(tag_124)\n    tag_126:\n        /* \"#utility.yul\":5438:5444   */\n      dup4\n        /* \"#utility.yul\":5435:5436   */\n      dup2\n        /* \"#utility.yul\":5432:5445   */\n      gt\n        /* \"#utility.yul\":5429:5530   */\n      iszero\n      tag_127\n      jumpi\n        /* \"#utility.yul\":5518:5519   */\n      0x00\n        /* \"#utility.yul\":5509:5515   */\n      dup5\n        /* \"#utility.yul\":5504:5507   */\n      dup5\n        /* \"#utility.yul\":5500:5516   */\n      add\n        /* \"#utility.yul\":5493:5520   */\n      mstore\n        /* \"#utility.yul\":5429:5530   */\n    tag_127:\n        /* \"#utility.yul\":5278:5536   */\n      pop\n        /* \"#utility.yul\":5229:5536   */\n      pop\n      pop\n      pop\n      jump\t// out\n        /* \"#utility.yul\":5542:5862   */\n    tag_22:\n        /* \"#utility.yul\":5586:5592   */\n      0x00\n        /* \"#utility.yul\":5623:5624   */\n      0x02\n        /* \"#utility.yul\":5617:5621   */\n      dup3\n        /* \"#utility.yul\":5613:5625   */\n      div\n        /* \"#utility.yul\":5603:5625   */\n      swap1\n      pop\n        /* \"#utility.yul\":5670:5671   */\n      0x01\n        /* \"#utility.yul\":5664:5668   */\n      dup3\n        /* \"#utility.yul\":5660:5672   */\n      and\n        /* \"#utility.yul\":5691:5709   */\n      dup1\n        /* \"#utility.yul\":5681:5762   */\n      tag_129\n      jumpi\n        /* \"#utility.yul\":5747:5751   */\n      0x7f\n        /* \"#utility.yul\":5739:5745   */\n      dup3\n        /* \"#utility.yul\":5735:5752   */\n      and\n        /* \"#utility.yul\":5725:5752   */\n      swap2\n      pop\n        /* \"#utility.yul\":5681:5762   */\n    tag_129:\n        /* \"#utility.yul\":5809:5811   */\n      0x20\n        /* \"#utility.yul\":5801:5807   */\n      dup3\n        /* \"#utility.yul\":5798:5812   */\n      lt\n        /* \"#utility.yul\":5778:5796   */\n      dup2\n        /* \"#utility.yul\":5775:5813   */\n      eq\n        /* \"#utility.yul\":5772:5856   */\n      iszero\n      tag_130\n      jumpi\n        /* \"#utility.yul\":5828:5846   */\n      tag_131\n      tag_132\n      jump\t// in\n    tag_131:\n        /* \"#utility.yul\":5772:5856   */\n    tag_130:\n        /* \"#utility.yul\":5593:5862   */\n      pop\n        /* \"#utility.yul\":5542:5862   */\n      swap2\n      swap1\n      pop\n      jump\t// out\n        /* \"#utility.yul\":5868:6149   */\n    tag_114:\n        /* \"#utility.yul\":5951:5978   */\n      tag_134\n        /* \"#utility.yul\":5973:5977   */\n      dup3\n        /* \"#utility.yul\":5951:5978   */\n      tag_86\n      jump\t// in\n    tag_134:\n        /* \"#utility.yul\":5943:5949   */\n      dup2\n        /* \"#utility.yul\":5939:5979   */\n      add\n        /* \"#utility.yul\":6081:6087   */\n      dup2\n        /* \"#utility.yul\":6069:6079   */\n      dup2\n        /* \"#utility.yul\":6066:6088   */\n      lt\n        /* \"#utility.yul\":6045:6063   */\n      0xffffffffffffffff\n        /* \"#utility.yul\":6033:6043   */\n      dup3\n        /* \"#utility.yul\":6030:6064   */\n      gt\n        /* \"#utility.yul\":6027:6089   */\n      or\n        /* \"#utility.yul\":6024:6112   */\n      iszero\n      tag_135\n      jumpi\n        /* \"#utility.yul\":6092:6110   */\n      tag_136\n      tag_119\n      jump\t// in\n    tag_136:\n        /* \"#utility.yul\":6024:6112   */\n    tag_135:\n        /* \"#utility.yul\":6132:6142   */\n      dup1\n        /* \"#utility.yul\":6128:6130   */\n      0x40\n        /* \"#utility.yul\":6121:6143   */\n      mstore\n        /* \"#utility.yul\":5911:6149   */\n      pop\n        /* \"#utility.yul\":5868:6149   */\n      pop\n      pop\n      jump\t// out\n        /* \"#utility.yul\":6155:6335   */\n    tag_132:\n        /* \"#utility.yul\":6203:6280   */\n      0x4e487b7100000000000000000000000000000000000000000000000000000000\n        /* \"#utility.yul\":6200:6201   */\n      0x00\n        /* \"#utility.yul\":6193:6281   */\n      mstore\n        /* \"#utility.yul\":6300:6304   */\n      0x22\n        /* \"#utility.yul\":6297:6298   */\n      0x04\n        /* \"#utility.yul\":6290:6305   */\n      mstore\n        /* \"#utility.yul\":6324:6328   */\n      0x24\n        /* \"#utility.yul\":6321:6322   */\n      0x00\n        /* \"#utility.yul\":6314:6329   */\n      revert\n        /* \"#utility.yul\":6341:6521   */\n    tag_119:\n        /* \"#utility.yul\":6389:6466   */\n      0x4e487b7100000000000000000000000000000000000000000000000000000000\n        /* \"#utility.yul\":6386:6387   */\n      0x00\n        /* \"#utility.yul\":6379:6467   */\n      mstore\n        /* \"#utility.yul\":6486:6490   */\n      0x41\n        /* \"#utility.yul\":6483:6484   */\n      0x04\n        /* \"#utility.yul\":6476:6491   */\n      mstore\n        /* \"#utility.yul\":6510:6514   */\n      0x24\n        /* \"#utility.yul\":6507:6508   */\n      0x00\n        /* \"#utility.yul\":6500:6515   */\n      revert\n        /* \"#utility.yul\":6527:6644   */\n    tag_68:\n        /* \"#utility.yul\":6636:6637   */\n      0x00\n        /* \"#utility.yul\":6633:6634   */\n      dup1\n        /* \"#utility.yul\":6626:6638   */\n      revert\n        /* \"#utility.yul\":6650:6767   */\n    tag_61:\n        /* \"#utility.yul\":6759:6760   */\n      0x00\n        /* \"#utility.yul\":6756:6757   */\n      dup1\n        /* \"#utility.yul\":6749:6761   */\n      revert\n        /* \"#utility.yul\":6773:6890   */\n    tag_76:\n        /* \"#utility.yul\":6882:6883   */\n      0x00\n        /* \"#utility.yul\":6879:6880   */\n      dup1\n        /* \"#utility.yul\":6872:6884   */\n      revert\n        /* \"#utility.yul\":6896:7013   */\n    tag_73:\n        /* \"#utility.yul\":7005:7006   */\n      0x00\n        /* \"#utility.yul\":7002:7003   */\n      dup1\n        /* \"#utility.yul\":6995:7007   */\n      revert\n        /* \"#utility.yul\":7019:7121   */\n    tag_86:\n        /* \"#utility.yul\":7060:7066   */\n      0x00\n        /* \"#utility.yul\":7111:7113   */\n      0x1f\n        /* \"#utility.yul\":7107:7114   */\n      not\n        /* \"#utility.yul\":7102:7104   */\n      0x1f\n        /* \"#utility.yul\":7095:7100   */\n      dup4\n        /* \"#utility.yul\":7091:7105   */\n      add\n        /* \"#utility.yul\":7087:7115   */\n      and\n        /* \"#utility.yul\":7077:7115   */\n      swap1\n      pop\n        /* \"#utility.yul\":7019:7121   */\n      swap2\n      swap1\n      pop\n      jump\t// out\n        /* \"#utility.yul\":7127:7351   */\n    tag_91:\n        /* \"#utility.yul\":7267:7301   */\n      0x63616e6e6f742061636365737320696e7465726e616c20737461746520766172\n        /* \"#utility.yul\":7263:7264   */\n      0x00\n        /* \"#utility.yul\":7255:7261   */\n      dup3\n        /* \"#utility.yul\":7251:7265   */\n      add\n        /* \"#utility.yul\":7244:7302   */\n      mstore\n        /* \"#utility.yul\":7336:7343   */\n      0x6961626c65000000000000000000000000000000000000000000000000000000\n        /* \"#utility.yul\":7331:7333   */\n      0x20\n        /* \"#utility.yul\":7323:7329   */\n      dup3\n        /* \"#utility.yul\":7319:7334   */\n      add\n        /* \"#utility.yul\":7312:7344   */\n      mstore\n        /* \"#utility.yul\":7127:7351   */\n      pop\n      jump\t// out\n        /* \"#utility.yul\":7357:7580   */\n    tag_96:\n        /* \"#utility.yul\":7497:7531   */\n      0x63616e6e6f742061636365737320707269766174652073746174652076617269\n        /* \"#utility.yul\":7493:7494   */\n      0x00\n        /* \"#utility.yul\":7485:7491   */\n      dup3\n        /* \"#utility.yul\":7481:7495   */\n      add\n        /* \"#utility.yul\":7474:7532   */\n      mstore\n        /* \"#utility.yul\":7566:7572   */\n      0x61626c6500000000000000000000000000000000000000000000000000000000\n        /* \"#utility.yul\":7561:7563   */\n      0x20\n        /* \"#utility.yul\":7553:7559   */\n      dup3\n        /* \"#utility.yul\":7549:7564   */\n      add\n        /* \"#utility.yul\":7542:7573   */\n      mstore\n        /* \"#utility.yul\":7357:7580   */\n      pop\n      jump\t// out\n        /* \"#utility.yul\":7586:7808   */\n    tag_101:\n        /* \"#utility.yul\":7726:7760   */\n      0x63616e6e6f7420616363657373207075626c6963207374617465207661726961\n        /* \"#utility.yul\":7722:7723   */\n      0x00\n        /* \"#utility.yul\":7714:7720   */\n      dup3\n        /* \"#utility.yul\":7710:7724   */\n      add\n        /* \"#utility.yul\":7703:7761   */\n      mstore\n        /* \"#utility.yul\":7795:7800   */\n      0x626c650000000000000000000000000000000000000000000000000000000000\n        /* \"#utility.yul\":7790:7792   */\n      0x20\n        /* \"#utility.yul\":7782:7788   */\n      dup3\n        /* \"#utility.yul\":7778:7793   */\n      add\n        /* \"#utility.yul\":7771:7801   */\n      mstore\n        /* \"#utility.yul\":7586:7808   */\n      pop\n      jump\t// out\n\n    auxdata: 0xa2646970667358221220cd936b1da2255a05cd8b8a8dbe726b7485ed8f111b92b42740d064422a60984264736f6c63430008070033\n}\n",
				"bytecode": {
					"linkReferences": {},
					"object": "60806040526040518060400160405280601781526020017f70726976617465207374617465207661726961626c65730000000000000000008152506000908051906020019061004f9291906100fa565b506040518060400160405280601881526020017f696e7465726e616c207374617465207661726961626c657300000000000000008152506001908051906020019061009b9291906100fa565b506040518060400160405280601681526020017f7075626c6963207374617465207661726961626c657300000000000000000000815250600290805190602001906100e79291906100fa565b503480156100f457600080fd5b506101fe565b8280546101069061019d565b90600052602060002090601f016020900481019282610128576000855561016f565b82601f1061014157805160ff191683800117855561016f565b8280016001018555821561016f579182015b8281111561016e578251825591602001919060010190610153565b5b50905061017c9190610180565b5090565b5b80821115610199576000816000905550600101610181565b5090565b600060028204905060018216806101b557607f821691505b602082108114156101c9576101c86101cf565b5b50919050565b7f4e487b7100000000000000000000000000000000000000000000000000000000600052602260045260246000fd5b6108558061020d6000396000f3fe608060405234801561001057600080fd5b506004361061004c5760003560e01c8063628e6fa114610051578063a23a028b1461006f578063c6c410551461008d578063fcc91b35146100ab575b600080fd5b6100596100b5565b6040516100669190610525565b60405180910390f35b6100776100f2565b6040516100849190610525565b60405180910390f35b61009561012f565b6040516100a29190610525565b60405180910390f35b6100b36101bd565b005b60606040518060400160405280601381526020017f65787465726e616c206a6f622063616c6c656400000000000000000000000000815250905090565b60606040518060400160405280601181526020017f7075626c6963206a6f622063616c6c6564000000000000000000000000000000815250905090565b6002805461013c9061064c565b80601f01602080910402602001604051908101604052809291908181526020018280546101689061064c565b80156101b55780601f1061018a576101008083540402835291602001916101b5565b820191906000526020600020905b81548152906001019060200180831161019857829003601f168201915b505050505081565b3073ffffffffffffffffffffffffffffffffffffffff1663628e6fa16040518163ffffffff1660e01b815260040160006040518083038186803b15801561020357600080fd5b505afa158015610217573d6000803e3d6000fd5b505050506040513d6000823e3d601f19601f82011682018060405250810190610240919061043a565b506102496100f2565b50610252610350565b5061025b61038d565b50600080805461026a9061064c565b9050116102ac576040517f08c379a00000000000000000000000000000000000000000000000000000000081526004016102a390610567565b60405180910390fd5b6000600180546102bb9061064c565b9050116102fd576040517f08c379a00000000000000000000000000000000000000000000000000000000081526004016102f490610547565b60405180910390fd5b60006002805461030c9061064c565b90501161034e576040517f08c379a000000000000000000000000000000000000000000000000000000000815260040161034590610587565b60405180910390fd5b565b60606040518060400160405280601381526020017f696e7465726e616c206a6f622063616c6c656400000000000000000000000000815250905090565b60606040518060400160405280601281526020017f70726976617465206a6f622063616c6c65640000000000000000000000000000815250905090565b60006103dd6103d8846105cc565b6105a7565b9050828152602081018484840111156103f9576103f8610712565b5b610404848285610619565b509392505050565b600082601f8301126104215761042061070d565b5b81516104318482602086016103ca565b91505092915050565b6000602082840312156104505761044f61071c565b5b600082015167ffffffffffffffff81111561046e5761046d610717565b5b61047a8482850161040c565b91505092915050565b600061048e826105fd565b6104988185610608565b93506104a8818560208601610619565b6104b181610721565b840191505092915050565b60006104c9602583610608565b91506104d482610732565b604082019050919050565b60006104ec602483610608565b91506104f782610781565b604082019050919050565b600061050f602383610608565b915061051a826107d0565b604082019050919050565b6000602082019050818103600083015261053f8184610483565b905092915050565b60006020820190508181036000830152610560816104bc565b9050919050565b60006020820190508181036000830152610580816104df565b9050919050565b600060208201905081810360008301526105a081610502565b9050919050565b60006105b16105c2565b90506105bd828261067e565b919050565b6000604051905090565b600067ffffffffffffffff8211156105e7576105e66106de565b5b6105f082610721565b9050602081019050919050565b600081519050919050565b600082825260208201905092915050565b60005b8381101561063757808201518184015260208101905061061c565b83811115610646576000848401525b50505050565b6000600282049050600182168061066457607f821691505b60208210811415610678576106776106af565b5b50919050565b61068782610721565b810181811067ffffffffffffffff821117156106a6576106a56106de565b5b80604052505050565b7f4e487b7100000000000000000000000000000000000000000000000000000000600052602260045260246000fd5b7f4e487b7100000000000000000000000000000000000000000000000000000000600052604160045260246000fd5b600080fd5b600080fd5b600080fd5b600080fd5b6000601f19601f8301169050919050565b7f63616e6e6f742061636365737320696e7465726e616c2073746174652076617260008201527f6961626c65000000000000000000000000000000000000000000000000000000602082015250565b7f63616e6e6f74206163636573732070726976617465207374617465207661726960008201527f61626c6500000000000000000000000000000000000000000000000000000000602082015250565b7f63616e6e6f7420616363657373207075626c696320737461746520766172696160008201527f626c65000000000000000000000000000000000000000000000000000000000060208201525056fea2646970667358221220cd936b1da2255a05cd8b8a8dbe726b7485ed8f111b92b42740d064422a60984264736f6c63430008070033",
					"opcodes": "PUSH1 0x80 PUSH1 0x40 MSTORE PUSH1 0x40 MLOAD DUP1 PUSH1 0x40 ADD PUSH1 0x40 MSTORE DUP1 PUSH1 0x17 DUP2 MSTORE PUSH1 0x20 ADD PUSH32 0x70726976617465207374617465207661726961626C6573000000000000000000 DUP2 MSTORE POP PUSH1 0x0 SWAP1 DUP1 MLOAD SWAP1 PUSH1 0x20 ADD SWAP1 PUSH2 0x4F SWAP3 SWAP2 SWAP1 PUSH2 0xFA JUMP JUMPDEST POP PUSH1 0x40 MLOAD DUP1 PUSH1 0x40 ADD PUSH1 0x40 MSTORE DUP1 PUSH1 0x18 DUP2 MSTORE PUSH1 0x20 ADD PUSH32 0x696E7465726E616C207374617465207661726961626C65730000000000000000 DUP2 MSTORE POP PUSH1 0x1 SWAP1 DUP1 MLOAD SWAP1 PUSH1 0x20 ADD SWAP1 PUSH2 0x9B SWAP3 SWAP2 SWAP1 PUSH2 0xFA JUMP JUMPDEST POP PUSH1 0x40 MLOAD DUP1 PUSH1 0x40 ADD PUSH1 0x40 MSTORE DUP1 PUSH1 0x16 DUP2 MSTORE PUSH1 0x20 ADD PUSH32 0x7075626C6963207374617465207661726961626C657300000000000000000000 DUP2 MSTORE POP PUSH1 0x2 SWAP1 DUP1 MLOAD SWAP1 PUSH1 0x20 ADD SWAP1 PUSH2 0xE7 SWAP3 SWAP2 SWAP1 PUSH2 0xFA JUMP JUMPDEST POP CALLVALUE DUP1 ISZERO PUSH2 0xF4 JUMPI PUSH1 0x0 DUP1 REVERT JUMPDEST POP PUSH2 0x1FE JUMP JUMPDEST DUP3 DUP1 SLOAD PUSH2 0x106 SWAP1 PUSH2 0x19D JUMP JUMPDEST SWAP1 PUSH1 0x0 MSTORE PUSH1 0x20 PUSH1 0x0 KECCAK256 SWAP1 PUSH1 0x1F ADD PUSH1 0x20 SWAP1 DIV DUP2 ADD SWAP3 DUP3 PUSH2 0x128 JUMPI PUSH1 0x0 DUP6 SSTORE PUSH2 0x16F JUMP JUMPDEST DUP3 PUSH1 0x1F LT PUSH2 0x141 JUMPI DUP1 MLOAD PUSH1 0xFF NOT AND DUP4 DUP1 ADD OR DUP6 SSTORE PUSH2 0x16F JUMP JUMPDEST DUP3 DUP1 ADD PUSH1 0x1 ADD DUP6 SSTORE DUP3 ISZERO PUSH2 0x16F JUMPI SWAP2 DUP3 ADD JUMPDEST DUP3 DUP2 GT ISZERO PUSH2 0x16E JUMPI DUP3 MLOAD DUP3 SSTORE SWAP2 PUSH1 0x20 ADD SWAP2 SWAP1 PUSH1 0x1 ADD SWAP1 PUSH2 0x153 JUMP JUMPDEST JUMPDEST POP SWAP1 POP PUSH2 0x17C SWAP2 SWAP1 PUSH2 0x180 JUMP JUMPDEST POP SWAP1 JUMP JUMPDEST JUMPDEST DUP1 DUP3 GT ISZERO PUSH2 0x199 JUMPI PUSH1 0x0 DUP2 PUSH1 0x0 SWAP1 SSTORE POP PUSH1 0x1 ADD PUSH2 0x181 JUMP JUMPDEST POP SWAP1 JUMP JUMPDEST PUSH1 0x0 PUSH1 0x2 DUP3 DIV SWAP1 POP PUSH1 0x1 DUP3 AND DUP1 PUSH2 0x1B5 JUMPI PUSH1 0x7F DUP3 AND SWAP2 POP JUMPDEST PUSH1 0x20 DUP3 LT DUP2 EQ ISZERO PUSH2 0x1C9 JUMPI PUSH2 0x1C8 PUSH2 0x1CF JUMP JUMPDEST JUMPDEST POP SWAP2 SWAP1 POP JUMP JUMPDEST PUSH32 0x4E487B7100000000000000000000000000000000000000000000000000000000 PUSH1 0x0 MSTORE PUSH1 0x22 PUSH1 0x4 MSTORE PUSH1 0x24 PUSH1 0x0 REVERT JUMPDEST PUSH2 0x855 DUP1 PUSH2 0x20D PUSH1 0x0 CODECOPY PUSH1 0x0 RETURN INVALID PUSH1 0x80 PUSH1 0x40 MSTORE CALLVALUE DUP1 ISZERO PUSH2 0x10 JUMPI PUSH1 0x0 DUP1 REVERT JUMPDEST POP PUSH1 0x4 CALLDATASIZE LT PUSH2 0x4C JUMPI PUSH1 0x0 CALLDATALOAD PUSH1 0xE0 SHR DUP1 PUSH4 0x628E6FA1 EQ PUSH2 0x51 JUMPI DUP1 PUSH4 0xA23A028B EQ PUSH2 0x6F JUMPI DUP1 PUSH4 0xC6C41055 EQ PUSH2 0x8D JUMPI DUP1 PUSH4 0xFCC91B35 EQ PUSH2 0xAB JUMPI JUMPDEST PUSH1 0x0 DUP1 REVERT JUMPDEST PUSH2 0x59 PUSH2 0xB5 JUMP JUMPDEST PUSH1 0x40 MLOAD PUSH2 0x66 SWAP2 SWAP1 PUSH2 0x525 JUMP JUMPDEST PUSH1 0x40 MLOAD DUP1 SWAP2 SUB SWAP1 RETURN JUMPDEST PUSH2 0x77 PUSH2 0xF2 JUMP JUMPDEST PUSH1 0x40 MLOAD PUSH2 0x84 SWAP2 SWAP1 PUSH2 0x525 JUMP JUMPDEST PUSH1 0x40 MLOAD DUP1 SWAP2 SUB SWAP1 RETURN JUMPDEST PUSH2 0x95 PUSH2 0x12F JUMP JUMPDEST PUSH1 0x40 MLOAD PUSH2 0xA2 SWAP2 SWAP1 PUSH2 0x525 JUMP JUMPDEST PUSH1 0x40 MLOAD DUP1 SWAP2 SUB SWAP1 RETURN JUMPDEST PUSH2 0xB3 PUSH2 0x1BD JUMP JUMPDEST STOP JUMPDEST PUSH1 0x60 PUSH1 0x40 MLOAD DUP1 PUSH1 0x40 ADD PUSH1 0x40 MSTORE DUP1 PUSH1 0x13 DUP2 MSTORE PUSH1 0x20 ADD PUSH32 0x65787465726E616C206A6F622063616C6C656400000000000000000000000000 DUP2 MSTORE POP SWAP1 POP SWAP1 JUMP JUMPDEST PUSH1 0x60 PUSH1 0x40 MLOAD DUP1 PUSH1 0x40 ADD PUSH1 0x40 MSTORE DUP1 PUSH1 0x11 DUP2 MSTORE PUSH1 0x20 ADD PUSH32 0x7075626C6963206A6F622063616C6C6564000000000000000000000000000000 DUP2 MSTORE POP SWAP1 POP SWAP1 JUMP JUMPDEST PUSH1 0x2 DUP1 SLOAD PUSH2 0x13C SWAP1 PUSH2 0x64C JUMP JUMPDEST DUP1 PUSH1 0x1F ADD PUSH1 0x20 DUP1 SWAP2 DIV MUL PUSH1 0x20 ADD PUSH1 0x40 MLOAD SWAP1 DUP2 ADD PUSH1 0x40 MSTORE DUP1 SWAP3 SWAP2 SWAP1 DUP2 DUP2 MSTORE PUSH1 0x20 ADD DUP3 DUP1 SLOAD PUSH2 0x168 SWAP1 PUSH2 0x64C JUMP JUMPDEST DUP1 ISZERO PUSH2 0x1B5 JUMPI DUP1 PUSH1 0x1F LT PUSH2 0x18A JUMPI PUSH2 0x100 DUP1 DUP4 SLOAD DIV MUL DUP4 MSTORE SWAP2 PUSH1 0x20 ADD SWAP2 PUSH2 0x1B5 JUMP JUMPDEST DUP3 ADD SWAP2 SWAP1 PUSH1 0x0 MSTORE PUSH1 0x20 PUSH1 0x0 KECCAK256 SWAP1 JUMPDEST DUP2 SLOAD DUP2 MSTORE SWAP1 PUSH1 0x1 ADD SWAP1 PUSH1 0x20 ADD DUP1 DUP4 GT PUSH2 0x198 JUMPI DUP3 SWAP1 SUB PUSH1 0x1F AND DUP3 ADD SWAP2 JUMPDEST POP POP POP POP POP DUP2 JUMP JUMPDEST ADDRESS PUSH20 0xFFFFFFFFFFFFFFFFFFFFFFFFFFFFFFFFFFFFFFFF AND PUSH4 0x628E6FA1 PUSH1 0x40 MLOAD DUP2 PUSH4 0xFFFFFFFF AND PUSH1 0xE0 SHL DUP2 MSTORE PUSH1 0x4 ADD PUSH1 0x0 PUSH1 0x40 MLOAD DUP1 DUP4 SUB DUP2 DUP7 DUP1 EXTCODESIZE ISZERO DUP1 ISZERO PUSH2 0x203 JUMPI PUSH1 0x0 DUP1 REVERT JUMPDEST POP GAS STATICCALL ISZERO DUP1 ISZERO PUSH2 0x217 JUMPI RETURNDATASIZE PUSH1 0x0 DUP1 RETURNDATACOPY RETURNDATASIZE PUSH1 0x0 REVERT JUMPDEST POP POP POP POP PUSH1 0x40 MLOAD RETURNDATASIZE PUSH1 0x0 DUP3 RETURNDATACOPY RETURNDATASIZE PUSH1 0x1F NOT PUSH1 0x1F DUP3 ADD AND DUP3 ADD DUP1 PUSH1 0x40 MSTORE POP DUP2 ADD SWAP1 PUSH2 0x240 SWAP2 SWAP1 PUSH2 0x43A JUMP JUMPDEST POP PUSH2 0x249 PUSH2 0xF2 JUMP JUMPDEST POP PUSH2 0x252 PUSH2 0x350 JUMP JUMPDEST POP PUSH2 0x25B PUSH2 0x38D JUMP JUMPDEST POP PUSH1 0x0 DUP1 DUP1 SLOAD PUSH2 0x26A SWAP1 PUSH2 0x64C JUMP JUMPDEST SWAP1 POP GT PUSH2 0x2AC JUMPI PUSH1 0x40 MLOAD PUSH32 0x8C379A000000000000000000000000000000000000000000000000000000000 DUP2 MSTORE PUSH1 0x4 ADD PUSH2 0x2A3 SWAP1 PUSH2 0x567 JUMP JUMPDEST PUSH1 0x40 MLOAD DUP1 SWAP2 SUB SWAP1 REVERT JUMPDEST PUSH1 0x0 PUSH1 0x1 DUP1 SLOAD PUSH2 0x2BB SWAP1 PUSH2 0x64C JUMP JUMPDEST SWAP1 POP GT PUSH2 0x2FD JUMPI PUSH1 0x40 MLOAD PUSH32 0x8C379A000000000000000000000000000000000000000000000000000000000 DUP2 MSTORE PUSH1 0x4 ADD PUSH2 0x2F4 SWAP1 PUSH2 0x547 JUMP JUMPDEST PUSH1 0x40 MLOAD DUP1 SWAP2 SUB SWAP1 REVERT JUMPDEST PUSH1 0x0 PUSH1 0x2 DUP1 SLOAD PUSH2 0x30C SWAP1 PUSH2 0x64C JUMP JUMPDEST SWAP1 POP GT PUSH2 0x34E JUMPI PUSH1 0x40 MLOAD PUSH32 0x8C379A000000000000000000000000000000000000000000000000000000000 DUP2 MSTORE PUSH1 0x4 ADD PUSH2 0x345 SWAP1 PUSH2 0x587 JUMP JUMPDEST PUSH1 0x40 MLOAD DUP1 SWAP2 SUB SWAP1 REVERT JUMPDEST JUMP JUMPDEST PUSH1 0x60 PUSH1 0x40 MLOAD DUP1 PUSH1 0x40 ADD PUSH1 0x40 MSTORE DUP1 PUSH1 0x13 DUP2 MSTORE PUSH1 0x20 ADD PUSH32 0x696E7465726E616C206A6F622063616C6C656400000000000000000000000000 DUP2 MSTORE POP SWAP1 POP SWAP1 JUMP JUMPDEST PUSH1 0x60 PUSH1 0x40 MLOAD DUP1 PUSH1 0x40 ADD PUSH1 0x40 MSTORE DUP1 PUSH1 0x12 DUP2 MSTORE PUSH1 0x20 ADD PUSH32 0x70726976617465206A6F622063616C6C65640000000000000000000000000000 DUP2 MSTORE POP SWAP1 POP SWAP1 JUMP JUMPDEST PUSH1 0x0 PUSH2 0x3DD PUSH2 0x3D8 DUP5 PUSH2 0x5CC JUMP JUMPDEST PUSH2 0x5A7 JUMP JUMPDEST SWAP1 POP DUP3 DUP2 MSTORE PUSH1 0x20 DUP2 ADD DUP5 DUP5 DUP5 ADD GT ISZERO PUSH2 0x3F9 JUMPI PUSH2 0x3F8 PUSH2 0x712 JUMP JUMPDEST JUMPDEST PUSH2 0x404 DUP5 DUP3 DUP6 PUSH2 0x619 JUMP JUMPDEST POP SWAP4 SWAP3 POP POP POP JUMP JUMPDEST PUSH1 0x0 DUP3 PUSH1 0x1F DUP4 ADD SLT PUSH2 0x421 JUMPI PUSH2 0x420 PUSH2 0x70D JUMP JUMPDEST JUMPDEST DUP2 MLOAD PUSH2 0x431 DUP5 DUP3 PUSH1 0x20 DUP7 ADD PUSH2 0x3CA JUMP JUMPDEST SWAP2 POP POP SWAP3 SWAP2 POP POP JUMP JUMPDEST PUSH1 0x0 PUSH1 0x20 DUP3 DUP5 SUB SLT ISZERO PUSH2 0x450 JUMPI PUSH2 0x44F PUSH2 0x71C JUMP JUMPDEST JUMPDEST PUSH1 0x0 DUP3 ADD MLOAD PUSH8 0xFFFFFFFFFFFFFFFF DUP2 GT ISZERO PUSH2 0x46E JUMPI PUSH2 0x46D PUSH2 0x717 JUMP JUMPDEST JUMPDEST PUSH2 0x47A DUP5 DUP3 DUP6 ADD PUSH2 0x40C JUMP JUMPDEST SWAP2 POP POP SWAP3 SWAP2 POP POP JUMP JUMPDEST PUSH1 0x0 PUSH2 0x48E DUP3 PUSH2 0x5FD JUMP JUMPDEST PUSH2 0x498 DUP2 DUP6 PUSH2 0x608 JUMP JUMPDEST SWAP4 POP PUSH2 0x4A8 DUP2 DUP6 PUSH1 0x20 DUP7 ADD PUSH2 0x619 JUMP JUMPDEST PUSH2 0x4B1 DUP2 PUSH2 0x721 JUMP JUMPDEST DUP5 ADD SWAP2 POP POP SWAP3 SWAP2 POP POP JUMP JUMPDEST PUSH1 0x0 PUSH2 0x4C9 PUSH1 0x25 DUP4 PUSH2 0x608 JUMP JUMPDEST SWAP2 POP PUSH2 0x4D4 DUP3 PUSH2 0x732 JUMP JUMPDEST PUSH1 0x40 DUP3 ADD SWAP1 POP SWAP2 SWAP1 POP JUMP JUMPDEST PUSH1 0x0 PUSH2 0x4EC PUSH1 0x24 DUP4 PUSH2 0x608 JUMP JUMPDEST SWAP2 POP PUSH2 0x4F7 DUP3 PUSH2 0x781 JUMP JUMPDEST PUSH1 0x40 DUP3 ADD SWAP1 POP SWAP2 SWAP1 POP JUMP JUMPDEST PUSH1 0x0 PUSH2 0x50F PUSH1 0x23 DUP4 PUSH2 0x608 JUMP JUMPDEST SWAP2 POP PUSH2 0x51A DUP3 PUSH2 0x7D0 JUMP JUMPDEST PUSH1 0x40 DUP3 ADD SWAP1 POP SWAP2 SWAP1 POP JUMP JUMPDEST PUSH1 0x0 PUSH1 0x20 DUP3 ADD SWAP1 POP DUP2 DUP2 SUB PUSH1 0x0 DUP4 ADD MSTORE PUSH2 0x53F DUP2 DUP5 PUSH2 0x483 JUMP JUMPDEST SWAP1 POP SWAP3 SWAP2 POP POP JUMP JUMPDEST PUSH1 0x0 PUSH1 0x20 DUP3 ADD SWAP1 POP DUP2 DUP2 SUB PUSH1 0x0 DUP4 ADD MSTORE PUSH2 0x560 DUP2 PUSH2 0x4BC JUMP JUMPDEST SWAP1 POP SWAP2 SWAP1 POP JUMP JUMPDEST PUSH1 0x0 PUSH1 0x20 DUP3 ADD SWAP1 POP DUP2 DUP2 SUB PUSH1 0x0 DUP4 ADD MSTORE PUSH2 0x580 DUP2 PUSH2 0x4DF JUMP JUMPDEST SWAP1 POP SWAP2 SWAP1 POP JUMP JUMPDEST PUSH1 0x0 PUSH1 0x20 DUP3 ADD SWAP1 POP DUP2 DUP2 SUB PUSH1 0x0 DUP4 ADD MSTORE PUSH2 0x5A0 DUP2 PUSH2 0x502 JUMP JUMPDEST SWAP1 POP SWAP2 SWAP1 POP JUMP JUMPDEST PUSH1 0x0 PUSH2 0x5B1 PUSH2 0x5C2 JUMP JUMPDEST SWAP1 POP PUSH2 0x5BD DUP3 DUP3 PUSH2 0x67E JUMP JUMPDEST SWAP2 SWAP1 POP JUMP JUMPDEST PUSH1 0x0 PUSH1 0x40 MLOAD SWAP1 POP SWAP1 JUMP JUMPDEST PUSH1 0x0 PUSH8 0xFFFFFFFFFFFFFFFF DUP3 GT ISZERO PUSH2 0x5E7 JUMPI PUSH2 0x5E6 PUSH2 0x6DE JUMP JUMPDEST JUMPDEST PUSH2 0x5F0 DUP3 PUSH2 0x721 JUMP JUMPDEST SWAP1 POP PUSH1 0x20 DUP2 ADD SWAP1 POP SWAP2 SWAP1 POP JUMP JUMPDEST PUSH1 0x0 DUP2 MLOAD SWAP1 POP SWAP2 SWAP1 POP JUMP JUMPDEST PUSH1 0x0 DUP3 DUP3 MSTORE PUSH1 0x20 DUP3 ADD SWAP1 POP SWAP3 SWAP2 POP POP JUMP JUMPDEST PUSH1 0x0 JUMPDEST DUP4 DUP2 LT ISZERO PUSH2 0x637 JUMPI DUP1 DUP3 ADD MLOAD DUP2 DUP5 ADD MSTORE PUSH1 0x20 DUP2 ADD SWAP1 POP PUSH2 0x61C JUMP JUMPDEST DUP4 DUP2 GT ISZERO PUSH2 0x646 JUMPI PUSH1 0x0 DUP5 DUP5 ADD MSTORE JUMPDEST POP POP POP POP JUMP JUMPDEST PUSH1 0x0 PUSH1 0x2 DUP3 DIV SWAP1 POP PUSH1 0x1 DUP3 AND DUP1 PUSH2 0x664 JUMPI PUSH1 0x7F DUP3 AND SWAP2 POP JUMPDEST PUSH1 0x20 DUP3 LT DUP2 EQ ISZERO PUSH2 0x678 JUMPI PUSH2 0x677 PUSH2 0x6AF JUMP JUMPDEST JUMPDEST POP SWAP2 SWAP1 POP JUMP JUMPDEST PUSH2 0x687 DUP3 PUSH2 0x721 JUMP JUMPDEST DUP2 ADD DUP2 DUP2 LT PUSH8 0xFFFFFFFFFFFFFFFF DUP3 GT OR ISZERO PUSH2 0x6A6 JUMPI PUSH2 0x6A5 PUSH2 0x6DE JUMP JUMPDEST JUMPDEST DUP1 PUSH1 0x40 MSTORE POP POP POP JUMP JUMPDEST PUSH32 0x4E487B7100000000000000000000000000000000000000000000000000000000 PUSH1 0x0 MSTORE PUSH1 0x22 PUSH1 0x4 MSTORE PUSH1 0x24 PUSH1 0x0 REVERT JUMPDEST PUSH32 0x4E487B7100000000000000000000000000000000000000000000000000000000 PUSH1 0x0 MSTORE PUSH1 0x41 PUSH1 0x4 MSTORE PUSH1 0x24 PUSH1 0x0 REVERT JUMPDEST PUSH1 0x0 DUP1 REVERT JUMPDEST PUSH1 0x0 DUP1 REVERT JUMPDEST PUSH1 0x0 DUP1 REVERT JUMPDEST PUSH1 0x0 DUP1 REVERT JUMPDEST PUSH1 0x0 PUSH1 0x1F NOT PUSH1 0x1F DUP4 ADD AND SWAP1 POP SWAP2 SWAP1 POP JUMP JUMPDEST PUSH32 0x63616E6E6F742061636365737320696E7465726E616C20737461746520766172 PUSH1 0x0 DUP3 ADD MSTORE PUSH32 0x6961626C65000000000000000000000000000000000000000000000000000000 PUSH1 0x20 DUP3 ADD MSTORE POP JUMP JUMPDEST PUSH32 0x63616E6E6F742061636365737320707269766174652073746174652076617269 PUSH1 0x0 DUP3 ADD MSTORE PUSH32 0x61626C6500000000000000000000000000000000000000000000000000000000 PUSH1 0x20 DUP3 ADD MSTORE POP JUMP JUMPDEST PUSH32 0x63616E6E6F7420616363657373207075626C6963207374617465207661726961 PUSH1 0x0 DUP3 ADD MSTORE PUSH32 0x626C650000000000000000000000000000000000000000000000000000000000 PUSH1 0x20 DUP3 ADD MSTORE POP JUMP INVALID LOG2 PUSH5 0x6970667358 0x22 SLT KECCAK256 0xCD SWAP4 PUSH12 0x1DA2255A05CD8B8A8DBE726B PUSH21 0x85ED8F111B92B42740D064422A60984264736F6C63 NUMBER STOP ADDMOD SMOD STOP CALLER "
				},
				"gasEstimates": {
					"creation": {
						"codeDepositCost": "426600",
						"executionCost": "infinite",
						"totalCost": "infinite"
					},
					"external": {
						"externalJob()": "infinite",
						"publicJob()": "infinite",
						"publicMsg()": "infinite",
						"testScope()": "infinite"
					},
					"internal": {
						"internalJob()": "infinite",
						"privateJob()": "infinite"
					}
				},
				"methodIdentifiers": {
					"externalJob()": "628e6fa1",
					"publicJob()": "a23a028b",
					"publicMsg()": "c6c41055",
					"testScope()": "fcc91b35"
				}
			},
			"storageLayout": {
				"storage": [
					{
						"astId": 4,
						"contract": "Ep6/example.sol:Base",
						"label": "privateMsg",
						"offset": 0,
						"slot": "0",
						"type": "t_string_storage"
					},
					{
						"astId": 7,
						"contract": "Ep6/example.sol:Base",
						"label": "internalMsg",
						"offset": 0,
						"slot": "1",
						"type": "t_string_storage"
					},
					{
						"astId": 10,
						"contract": "Ep6/example.sol:Base",
						"label": "publicMsg",
						"offset": 0,
						"slot": "2",
						"type": "t_string_storage"
					}
				],
				"types": {
					"t_string_storage": {
						"encoding": "bytes",
						"label": "string",
						"numberOfBytes": "32"
					}
				}
			},
			"userdoc": {
				"kind": "user",
				"methods": {},
				"version": 1
			}
		}
	}
}