{
	"Ep6/example.sol": {
		"Base0": {
			"abi": [
				{
					"inputs": [],
					"name": "externalJob",
					"outputs": [
						{
							"internalType": "string",
							"name": "",
							"type": "string"
						}
					],
					"stateMutability": "pure",
					"type": "function"
				},
				{
					"inputs": [],
					"name": "publicJob",
					"outputs": [
						{
							"internalType": "string",
							"name": "",
							"type": "string"
						}
					],
					"stateMutability": "pure",
					"type": "function"
				},
				{
					"inputs": [],
					"name": "publicMsg",
					"outputs": [
						{
							"internalType": "string",
							"name": "",
							"type": "string"
						}
					],
					"stateMutability": "view",
					"type": "function"
				},
				{
					"inputs": [],
					"name": "testScopeOfBaseContract",
					"outputs": [],
					"stateMutability": "pure",
					"type": "function"
				},
				{
					"inputs": [],
					"name": "testScopeOfFunctions",
					"outputs": [],
					"stateMutability": "nonpayable",
					"type": "function"
				},
				{
					"inputs": [],
					"name": "testScopeOfStateVariables",
					"outputs": [],
					"stateMutability": "pure",
					"type": "function"
				}
			],
			"devdoc": {
				"kind": "dev",
				"methods": {},
				"version": 1
			},
			"evm": {
				"assembly": "    /* \"Ep6/example.sol\":1720:2411  contract Base0 is Base {\r... */\n  mstore(0x40, 0x80)\n    /* \"Ep6/example.sol\":156:209  string private privateMsg = \"private state variables\" */\n  mload(0x40)\n  dup1\n  0x40\n  add\n  0x40\n  mstore\n  dup1\n  0x17\n  dup2\n  mstore\n  0x20\n  add\n  0x70726976617465207374617465207661726961626c6573000000000000000000\n  dup2\n  mstore\n  pop\n  0x00\n  swap1\n  dup1\n  mload\n  swap1\n  0x20\n  add\n  swap1\n  tag_1\n  swap3\n  swap2\n  swap1\n  tag_2\n  jump\t// in\ntag_1:\n  pop\n    /* \"Ep6/example.sol\":323:379  string internal internalMsg = \"internal state variables\" */\n  mload(0x40)\n  dup1\n  0x40\n  add\n  0x40\n  mstore\n  dup1\n  0x18\n  dup2\n  mstore\n  0x20\n  add\n  0x696e7465726e616c207374617465207661726961626c65730000000000000000\n  dup2\n  mstore\n  pop\n  0x01\n  swap1\n  dup1\n  mload\n  swap1\n  0x20\n  add\n  swap1\n  tag_3\n  swap3\n  swap2\n  swap1\n  tag_2\n  jump\t// in\ntag_3:\n  pop\n    /* \"Ep6/example.sol\":525:575  string public publicMsg = \"public state variables\" */\n  mload(0x40)\n  dup1\n  0x40\n  add\n  0x40\n  mstore\n  dup1\n  0x16\n  dup2\n  mstore\n  0x20\n  add\n  0x7075626c6963207374617465207661726961626c657300000000000000000000\n  dup2\n  mstore\n  pop\n  0x02\n  swap1\n  dup1\n  mload\n  swap1\n  0x20\n  add\n  swap1\n  tag_4\n  swap3\n  swap2\n  swap1\n  tag_2\n  jump\t// in\ntag_4:\n  pop\n    /* \"Ep6/example.sol\":1720:2411  contract Base0 is Base {\r... */\n  callvalue\n  dup1\n  iszero\n  tag_5\n  jumpi\n  0x00\n  dup1\n  revert\ntag_5:\n  pop\n  jump(tag_6)\ntag_2:\n  dup3\n  dup1\n  sload\n  tag_7\n  swap1\n  tag_8\n  jump\t// in\ntag_7:\n  swap1\n  0x00\n  mstore\n  keccak256(0x00, 0x20)\n  swap1\n  0x1f\n  add\n  0x20\n  swap1\n  div\n  dup2\n  add\n  swap3\n  dup3\n  tag_10\n  jumpi\n  0x00\n  dup6\n  sstore\n  jump(tag_9)\ntag_10:\n  dup3\n  0x1f\n  lt\n  tag_11\n  jumpi\n  dup1\n  mload\n  not(0xff)\n  and\n  dup4\n  dup1\n  add\n  or\n  dup6\n  sstore\n  jump(tag_9)\ntag_11:\n  dup3\n  dup1\n  add\n  0x01\n  add\n  dup6\n  sstore\n  dup3\n  iszero\n  tag_9\n  jumpi\n  swap2\n  dup3\n  add\ntag_12:\n  dup3\n  dup2\n  gt\n  iszero\n  tag_13\n  jumpi\n  dup3\n  mload\n  dup3\n  sstore\n  swap2\n  0x20\n  add\n  swap2\n  swap1\n  0x01\n  add\n  swap1\n  jump(tag_12)\ntag_13:\ntag_9:\n  pop\n  swap1\n  pop\n  tag_14\n  swap2\n  swap1\n  tag_15\n  jump\t// in\ntag_14:\n  pop\n  swap1\n  jump\t// out\ntag_15:\ntag_16:\n  dup1\n  dup3\n  gt\n  iszero\n  tag_17\n  jumpi\n  0x00\n  dup2\n  0x00\n  swap1\n  sstore\n  pop\n  0x01\n  add\n  jump(tag_16)\ntag_17:\n  pop\n  swap1\n  jump\t// out\n    /* \"#utility.yul\":7:327   */\ntag_8:\n    /* \"#utility.yul\":51:57   */\n  0x00\n    /* \"#utility.yul\":88:89   */\n  0x02\n    /* \"#utility.yul\":82:86   */\n  dup3\n    /* \"#utility.yul\":78:90   */\n  div\n    /* \"#utility.yul\":68:90   */\n  swap1\n  pop\n    /* \"#utility.yul\":135:136   */\n  0x01\n    /* \"#utility.yul\":129:133   */\n  dup3\n    /* \"#utility.yul\":125:137   */\n  and\n    /* \"#utility.yul\":156:174   */\n  dup1\n    /* \"#utility.yul\":146:227   */\n  tag_20\n  jumpi\n    /* \"#utility.yul\":212:216   */\n  0x7f\n    /* \"#utility.yul\":204:210   */\n  dup3\n    /* \"#utility.yul\":200:217   */\n  and\n    /* \"#utility.yul\":190:217   */\n  swap2\n  pop\n    /* \"#utility.yul\":146:227   */\ntag_20:\n    /* \"#utility.yul\":274:276   */\n  0x20\n    /* \"#utility.yul\":266:272   */\n  dup3\n    /* \"#utility.yul\":263:277   */\n  lt\n    /* \"#utility.yul\":243:261   */\n  dup2\n    /* \"#utility.yul\":240:278   */\n  eq\n    /* \"#utility.yul\":237:321   */\n  iszero\n  tag_21\n  jumpi\n    /* \"#utility.yul\":293:311   */\n  tag_22\n  tag_23\n  jump\t// in\ntag_22:\n    /* \"#utility.yul\":237:321   */\ntag_21:\n    /* \"#utility.yul\":58:327   */\n  pop\n    /* \"#utility.yul\":7:327   */\n  swap2\n  swap1\n  pop\n  jump\t// out\n    /* \"#utility.yul\":333:513   */\ntag_23:\n    /* \"#utility.yul\":381:458   */\n  0x4e487b7100000000000000000000000000000000000000000000000000000000\n    /* \"#utility.yul\":378:379   */\n  0x00\n    /* \"#utility.yul\":371:459   */\n  mstore\n    /* \"#utility.yul\":478:482   */\n  0x22\n    /* \"#utility.yul\":475:476   */\n  0x04\n    /* \"#utility.yul\":468:483   */\n  mstore\n    /* \"#utility.yul\":502:506   */\n  0x24\n    /* \"#utility.yul\":499:500   */\n  0x00\n    /* \"#utility.yul\":492:507   */\n  revert\n    /* \"Ep6/example.sol\":1720:2411  contract Base0 is Base {\r... */\ntag_6:\n  dataSize(sub_0)\n  dup1\n  dataOffset(sub_0)\n  0x00\n  codecopy\n  0x00\n  return\nstop\n\nsub_0: assembly {\n        /* \"Ep6/example.sol\":1720:2411  contract Base0 is Base {\r... */\n      mstore(0x40, 0x80)\n      callvalue\n      dup1\n      iszero\n      tag_1\n      jumpi\n      0x00\n      dup1\n      revert\n    tag_1:\n      pop\n      jumpi(tag_2, lt(calldatasize, 0x04))\n      shr(0xe0, calldataload(0x00))\n      dup1\n      0x26588bdf\n      eq\n      tag_3\n      jumpi\n      dup1\n      0x53fc97c7\n      eq\n      tag_4\n      jumpi\n      dup1\n      0x61845130\n      eq\n      tag_5\n      jumpi\n      dup1\n      0x628e6fa1\n      eq\n      tag_6\n      jumpi\n      dup1\n      0xa23a028b\n      eq\n      tag_7\n      jumpi\n      dup1\n      0xc6c41055\n      eq\n      tag_8\n      jumpi\n    tag_2:\n      0x00\n      dup1\n      revert\n        /* \"Ep6/example.sol\":1815:2408  function testScopeOfFunctions() public {\r... */\n    tag_3:\n      tag_9\n      tag_10\n      jump\t// in\n    tag_9:\n      stop\n        /* \"Ep6/example.sol\":1376:1710  function testScopeOfBaseContract() public pure {\r... */\n    tag_4:\n      tag_11\n      tag_12\n      jump\t// in\n    tag_11:\n      stop\n        /* \"Ep6/example.sol\":1750:1807  function testScopeOfStateVariables() public pure {\r... */\n    tag_5:\n      tag_13\n      tag_14\n      jump\t// in\n    tag_13:\n      stop\n        /* \"Ep6/example.sol\":1258:1366  function externalJob() external pure returns (string memory) {\r... */\n    tag_6:\n      tag_15\n      tag_16\n      jump\t// in\n    tag_15:\n      mload(0x40)\n      tag_17\n      swap2\n      swap1\n      tag_18\n      jump\t// in\n    tag_17:\n      mload(0x40)\n      dup1\n      swap2\n      sub\n      swap1\n      return\n        /* \"Ep6/example.sol\":1103:1205  function publicJob() public pure returns (string memory) {\r... */\n    tag_7:\n      tag_19\n      tag_20\n      jump\t// in\n    tag_19:\n      mload(0x40)\n      tag_21\n      swap2\n      swap1\n      tag_18\n      jump\t// in\n    tag_21:\n      mload(0x40)\n      dup1\n      swap2\n      sub\n      swap1\n      return\n        /* \"Ep6/example.sol\":525:575  string public publicMsg = \"public state variables\" */\n    tag_8:\n      tag_22\n      tag_23\n      jump\t// in\n    tag_22:\n      mload(0x40)\n      tag_24\n      swap2\n      swap1\n      tag_18\n      jump\t// in\n    tag_24:\n      mload(0x40)\n      dup1\n      swap2\n      sub\n      swap1\n      return\n        /* \"Ep6/example.sol\":1815:2408  function testScopeOfFunctions() public {\r... */\n    tag_10:\n        /* \"Ep6/example.sol\":2075:2088  internalJob() */\n      tag_26\n        /* \"Ep6/example.sol\":2075:2086  internalJob */\n      tag_27\n        /* \"Ep6/example.sol\":2075:2088  internalJob() */\n      jump\t// in\n    tag_26:\n      pop\n        /* \"Ep6/example.sol\":2136:2147  publicJob() */\n      tag_28\n        /* \"Ep6/example.sol\":2136:2145  publicJob */\n      tag_20\n        /* \"Ep6/example.sol\":2136:2147  publicJob() */\n      jump\t// in\n    tag_28:\n      pop\n        /* \"Ep6/example.sol\":2160:2166  Base b */\n      0x00\n        /* \"Ep6/example.sol\":2169:2179  new Base() */\n      mload(0x40)\n      tag_29\n      swap1\n      tag_30\n      jump\t// in\n    tag_29:\n      mload(0x40)\n      dup1\n      swap2\n      sub\n      swap1\n      0x00\n      create\n      dup1\n      iszero\n      dup1\n      iszero\n      tag_31\n      jumpi\n      returndatasize\n      0x00\n      dup1\n      returndatacopy\n      revert(0x00, returndatasize)\n    tag_31:\n      pop\n        /* \"Ep6/example.sol\":2160:2179  Base b = new Base() */\n      swap1\n      pop\n        /* \"Ep6/example.sol\":2385:2386  b */\n      dup1\n        /* \"Ep6/example.sol\":2385:2398  b.externalJob */\n      0xffffffffffffffffffffffffffffffffffffffff\n      and\n      0x628e6fa1\n        /* \"Ep6/example.sol\":2385:2400  b.externalJob() */\n      mload(0x40)\n      dup2\n      0xffffffff\n      and\n      0xe0\n      shl\n      dup2\n      mstore\n      0x04\n      add\n      0x00\n      mload(0x40)\n      dup1\n      dup4\n      sub\n      dup2\n      dup7\n      dup1\n      extcodesize\n      iszero\n      dup1\n      iszero\n      tag_32\n      jumpi\n      0x00\n      dup1\n      revert\n    tag_32:\n      pop\n      gas\n      staticcall\n      iszero\n      dup1\n      iszero\n      tag_34\n      jumpi\n      returndatasize\n      0x00\n      dup1\n      returndatacopy\n      revert(0x00, returndatasize)\n    tag_34:\n      pop\n      pop\n      pop\n      pop\n      mload(0x40)\n      returndatasize\n      0x00\n      dup3\n      returndatacopy\n      returndatasize\n      not(0x1f)\n      0x1f\n      dup3\n      add\n      and\n      dup3\n      add\n      dup1\n      0x40\n      mstore\n      pop\n      dup2\n      add\n      swap1\n      tag_35\n      swap2\n      swap1\n      tag_36\n      jump\t// in\n    tag_35:\n      pop\n        /* \"Ep6/example.sol\":1854:2408  {\r... */\n      pop\n        /* \"Ep6/example.sol\":1815:2408  function testScopeOfFunctions() public {\r... */\n      jump\t// out\n        /* \"Ep6/example.sol\":1376:1710  function testScopeOfBaseContract() public pure {\r... */\n    tag_12:\n        /* \"Ep6/example.sol\":1434:1446  privateJob() */\n      tag_38\n        /* \"Ep6/example.sol\":1434:1444  privateJob */\n      tag_39\n        /* \"Ep6/example.sol\":1434:1446  privateJob() */\n      jump\t// in\n    tag_38:\n      pop\n        /* \"Ep6/example.sol\":1459:1472  internalJob() */\n      tag_40\n        /* \"Ep6/example.sol\":1459:1470  internalJob */\n      tag_27\n        /* \"Ep6/example.sol\":1459:1472  internalJob() */\n      jump\t// in\n    tag_40:\n      pop\n        /* \"Ep6/example.sol\":1485:1496  publicJob() */\n      tag_41\n        /* \"Ep6/example.sol\":1485:1494  publicJob */\n      tag_20\n        /* \"Ep6/example.sol\":1485:1496  publicJob() */\n      jump\t// in\n    tag_41:\n      pop\n        /* \"Ep6/example.sol\":1376:1710  function testScopeOfBaseContract() public pure {\r... */\n      jump\t// out\n        /* \"Ep6/example.sol\":1750:1807  function testScopeOfStateVariables() public pure {\r... */\n    tag_14:\n      jump\t// out\n        /* \"Ep6/example.sol\":1258:1366  function externalJob() external pure returns (string memory) {\r... */\n    tag_16:\n        /* \"Ep6/example.sol\":1304:1317  string memory */\n      0x60\n        /* \"Ep6/example.sol\":1330:1358  return \"external job called\" */\n      mload(0x40)\n      dup1\n      0x40\n      add\n      0x40\n      mstore\n      dup1\n      0x13\n      dup2\n      mstore\n      0x20\n      add\n      0x65787465726e616c206a6f622063616c6c656400000000000000000000000000\n      dup2\n      mstore\n      pop\n      swap1\n      pop\n        /* \"Ep6/example.sol\":1258:1366  function externalJob() external pure returns (string memory) {\r... */\n      swap1\n      jump\t// out\n        /* \"Ep6/example.sol\":1103:1205  function publicJob() public pure returns (string memory) {\r... */\n    tag_20:\n        /* \"Ep6/example.sol\":1145:1158  string memory */\n      0x60\n        /* \"Ep6/example.sol\":1171:1197  return \"public job called\" */\n      mload(0x40)\n      dup1\n      0x40\n      add\n      0x40\n      mstore\n      dup1\n      0x11\n      dup2\n      mstore\n      0x20\n      add\n      0x7075626c6963206a6f622063616c6c6564000000000000000000000000000000\n      dup2\n      mstore\n      pop\n      swap1\n      pop\n        /* \"Ep6/example.sol\":1103:1205  function publicJob() public pure returns (string memory) {\r... */\n      swap1\n      jump\t// out\n        /* \"Ep6/example.sol\":525:575  string public publicMsg = \"public state variables\" */\n    tag_23:\n      0x02\n      dup1\n      sload\n      tag_45\n      swap1\n      tag_46\n      jump\t// in\n    tag_45:\n      dup1\n      0x1f\n      add\n      0x20\n      dup1\n      swap2\n      div\n      mul\n      0x20\n      add\n      mload(0x40)\n      swap1\n      dup2\n      add\n      0x40\n      mstore\n      dup1\n      swap3\n      swap2\n      swap1\n      dup2\n      dup2\n      mstore\n      0x20\n      add\n      dup3\n      dup1\n      sload\n      tag_47\n      swap1\n      tag_46\n      jump\t// in\n    tag_47:\n      dup1\n      iszero\n      tag_48\n      jumpi\n      dup1\n      0x1f\n      lt\n      tag_49\n      jumpi\n      0x0100\n      dup1\n      dup4\n      sload\n      div\n      mul\n      dup4\n      mstore\n      swap2\n      0x20\n      add\n      swap2\n      jump(tag_48)\n    tag_49:\n      dup3\n      add\n      swap2\n      swap1\n      0x00\n      mstore\n      keccak256(0x00, 0x20)\n      swap1\n    tag_50:\n      dup2\n      sload\n      dup2\n      mstore\n      swap1\n      0x01\n      add\n      swap1\n      0x20\n      add\n      dup1\n      dup4\n      gt\n      tag_50\n      jumpi\n      dup3\n      swap1\n      sub\n      0x1f\n      and\n      dup3\n      add\n      swap2\n    tag_48:\n      pop\n      pop\n      pop\n      pop\n      pop\n      dup2\n      jump\t// out\n        /* \"Ep6/example.sol\":850:958  function internalJob() internal pure returns (string memory) {\r... */\n    tag_27:\n        /* \"Ep6/example.sol\":896:909  string memory */\n      0x60\n        /* \"Ep6/example.sol\":922:950  return \"internal job called\" */\n      mload(0x40)\n      dup1\n      0x40\n      add\n      0x40\n      mstore\n      dup1\n      0x13\n      dup2\n      mstore\n      0x20\n      add\n      0x696e7465726e616c206a6f622063616c6c656400000000000000000000000000\n      dup2\n      mstore\n      pop\n      swap1\n      pop\n        /* \"Ep6/example.sol\":850:958  function internalJob() internal pure returns (string memory) {\r... */\n      swap1\n      jump\t// out\n        /* \"Ep6/example.sol\":633:737  function privateJob() private pure returns(string memory) {\r... */\n    tag_39:\n        /* \"Ep6/example.sol\":676:689  string memory */\n      0x60\n        /* \"Ep6/example.sol\":702:729  return \"private job called\" */\n      mload(0x40)\n      dup1\n      0x40\n      add\n      0x40\n      mstore\n      dup1\n      0x12\n      dup2\n      mstore\n      0x20\n      add\n      0x70726976617465206a6f622063616c6c65640000000000000000000000000000\n      dup2\n      mstore\n      pop\n      swap1\n      pop\n        /* \"Ep6/example.sol\":633:737  function privateJob() private pure returns(string memory) {\r... */\n      swap1\n      jump\t// out\n    tag_30:\n      dataSize(sub_0)\n      dup1\n      dataOffset(sub_0)\n      dup4\n      codecopy\n      add\n      swap1\n      jump\t// out\n        /* \"#utility.yul\":7:428   */\n    tag_54:\n        /* \"#utility.yul\":96:101   */\n      0x00\n        /* \"#utility.yul\":121:187   */\n      tag_56\n        /* \"#utility.yul\":137:186   */\n      tag_57\n        /* \"#utility.yul\":179:185   */\n      dup5\n        /* \"#utility.yul\":137:186   */\n      tag_58\n      jump\t// in\n    tag_57:\n        /* \"#utility.yul\":121:187   */\n      tag_59\n      jump\t// in\n    tag_56:\n        /* \"#utility.yul\":112:187   */\n      swap1\n      pop\n        /* \"#utility.yul\":210:216   */\n      dup3\n        /* \"#utility.yul\":203:208   */\n      dup2\n        /* \"#utility.yul\":196:217   */\n      mstore\n        /* \"#utility.yul\":248:252   */\n      0x20\n        /* \"#utility.yul\":241:246   */\n      dup2\n        /* \"#utility.yul\":237:253   */\n      add\n        /* \"#utility.yul\":286:289   */\n      dup5\n        /* \"#utility.yul\":277:283   */\n      dup5\n        /* \"#utility.yul\":272:275   */\n      dup5\n        /* \"#utility.yul\":268:284   */\n      add\n        /* \"#utility.yul\":265:290   */\n      gt\n        /* \"#utility.yul\":262:374   */\n      iszero\n      tag_60\n      jumpi\n        /* \"#utility.yul\":293:372   */\n      tag_61\n      tag_62\n      jump\t// in\n    tag_61:\n        /* \"#utility.yul\":262:374   */\n    tag_60:\n        /* \"#utility.yul\":383:422   */\n      tag_63\n        /* \"#utility.yul\":415:421   */\n      dup5\n        /* \"#utility.yul\":410:413   */\n      dup3\n        /* \"#utility.yul\":405:408   */\n      dup6\n        /* \"#utility.yul\":383:422   */\n      tag_64\n      jump\t// in\n    tag_63:\n        /* \"#utility.yul\":102:428   */\n      pop\n        /* \"#utility.yul\":7:428   */\n      swap4\n      swap3\n      pop\n      pop\n      pop\n      jump\t// out\n        /* \"#utility.yul\":448:803   */\n    tag_65:\n        /* \"#utility.yul\":515:520   */\n      0x00\n        /* \"#utility.yul\":564:567   */\n      dup3\n        /* \"#utility.yul\":557:561   */\n      0x1f\n        /* \"#utility.yul\":549:555   */\n      dup4\n        /* \"#utility.yul\":545:562   */\n      add\n        /* \"#utility.yul\":541:568   */\n      slt\n        /* \"#utility.yul\":531:653   */\n      tag_67\n      jumpi\n        /* \"#utility.yul\":572:651   */\n      tag_68\n      tag_69\n      jump\t// in\n    tag_68:\n        /* \"#utility.yul\":531:653   */\n    tag_67:\n        /* \"#utility.yul\":682:688   */\n      dup2\n        /* \"#utility.yul\":676:689   */\n      mload\n        /* \"#utility.yul\":707:797   */\n      tag_70\n        /* \"#utility.yul\":793:796   */\n      dup5\n        /* \"#utility.yul\":785:791   */\n      dup3\n        /* \"#utility.yul\":778:782   */\n      0x20\n        /* \"#utility.yul\":770:776   */\n      dup7\n        /* \"#utility.yul\":766:783   */\n      add\n        /* \"#utility.yul\":707:797   */\n      tag_54\n      jump\t// in\n    tag_70:\n        /* \"#utility.yul\":698:797   */\n      swap2\n      pop\n        /* \"#utility.yul\":521:803   */\n      pop\n        /* \"#utility.yul\":448:803   */\n      swap3\n      swap2\n      pop\n      pop\n      jump\t// out\n        /* \"#utility.yul\":809:1333   */\n    tag_36:\n        /* \"#utility.yul\":889:895   */\n      0x00\n        /* \"#utility.yul\":938:940   */\n      0x20\n        /* \"#utility.yul\":926:935   */\n      dup3\n        /* \"#utility.yul\":917:924   */\n      dup5\n        /* \"#utility.yul\":913:936   */\n      sub\n        /* \"#utility.yul\":909:941   */\n      slt\n        /* \"#utility.yul\":906:1025   */\n      iszero\n      tag_72\n      jumpi\n        /* \"#utility.yul\":944:1023   */\n      tag_73\n      tag_74\n      jump\t// in\n    tag_73:\n        /* \"#utility.yul\":906:1025   */\n    tag_72:\n        /* \"#utility.yul\":1085:1086   */\n      0x00\n        /* \"#utility.yul\":1074:1083   */\n      dup3\n        /* \"#utility.yul\":1070:1087   */\n      add\n        /* \"#utility.yul\":1064:1088   */\n      mload\n        /* \"#utility.yul\":1115:1133   */\n      0xffffffffffffffff\n        /* \"#utility.yul\":1107:1113   */\n      dup2\n        /* \"#utility.yul\":1104:1134   */\n      gt\n        /* \"#utility.yul\":1101:1218   */\n      iszero\n      tag_75\n      jumpi\n        /* \"#utility.yul\":1137:1216   */\n      tag_76\n      tag_77\n      jump\t// in\n    tag_76:\n        /* \"#utility.yul\":1101:1218   */\n    tag_75:\n        /* \"#utility.yul\":1242:1316   */\n      tag_78\n        /* \"#utility.yul\":1308:1315   */\n      dup5\n        /* \"#utility.yul\":1299:1305   */\n      dup3\n        /* \"#utility.yul\":1288:1297   */\n      dup6\n        /* \"#utility.yul\":1284:1306   */\n      add\n        /* \"#utility.yul\":1242:1316   */\n      tag_65\n      jump\t// in\n    tag_78:\n        /* \"#utility.yul\":1232:1316   */\n      swap2\n      pop\n        /* \"#utility.yul\":1035:1326   */\n      pop\n        /* \"#utility.yul\":809:1333   */\n      swap3\n      swap2\n      pop\n      pop\n      jump\t// out\n        /* \"#utility.yul\":1339:1703   */\n    tag_79:\n        /* \"#utility.yul\":1427:1430   */\n      0x00\n        /* \"#utility.yul\":1455:1494   */\n      tag_81\n        /* \"#utility.yul\":1488:1493   */\n      dup3\n        /* \"#utility.yul\":1455:1494   */\n      tag_82\n      jump\t// in\n    tag_81:\n        /* \"#utility.yul\":1510:1581   */\n      tag_83\n        /* \"#utility.yul\":1574:1580   */\n      dup2\n        /* \"#utility.yul\":1569:1572   */\n      dup6\n        /* \"#utility.yul\":1510:1581   */\n      tag_84\n      jump\t// in\n    tag_83:\n        /* \"#utility.yul\":1503:1581   */\n      swap4\n      pop\n        /* \"#utility.yul\":1590:1642   */\n      tag_85\n        /* \"#utility.yul\":1635:1641   */\n      dup2\n        /* \"#utility.yul\":1630:1633   */\n      dup6\n        /* \"#utility.yul\":1623:1627   */\n      0x20\n        /* \"#utility.yul\":1616:1621   */\n      dup7\n        /* \"#utility.yul\":1612:1628   */\n      add\n        /* \"#utility.yul\":1590:1642   */\n      tag_64\n      jump\t// in\n    tag_85:\n        /* \"#utility.yul\":1667:1696   */\n      tag_86\n        /* \"#utility.yul\":1689:1695   */\n      dup2\n        /* \"#utility.yul\":1667:1696   */\n      tag_87\n      jump\t// in\n    tag_86:\n        /* \"#utility.yul\":1662:1665   */\n      dup5\n        /* \"#utility.yul\":1658:1697   */\n      add\n        /* \"#utility.yul\":1651:1697   */\n      swap2\n      pop\n        /* \"#utility.yul\":1431:1703   */\n      pop\n        /* \"#utility.yul\":1339:1703   */\n      swap3\n      swap2\n      pop\n      pop\n      jump\t// out\n        /* \"#utility.yul\":1709:2022   */\n    tag_18:\n        /* \"#utility.yul\":1822:1826   */\n      0x00\n        /* \"#utility.yul\":1860:1862   */\n      0x20\n        /* \"#utility.yul\":1849:1858   */\n      dup3\n        /* \"#utility.yul\":1845:1863   */\n      add\n        /* \"#utility.yul\":1837:1863   */\n      swap1\n      pop\n        /* \"#utility.yul\":1909:1918   */\n      dup2\n        /* \"#utility.yul\":1903:1907   */\n      dup2\n        /* \"#utility.yul\":1899:1919   */\n      sub\n        /* \"#utility.yul\":1895:1896   */\n      0x00\n        /* \"#utility.yul\":1884:1893   */\n      dup4\n        /* \"#utility.yul\":1880:1897   */\n      add\n        /* \"#utility.yul\":1873:1920   */\n      mstore\n        /* \"#utility.yul\":1937:2015   */\n      tag_89\n        /* \"#utility.yul\":2010:2014   */\n      dup2\n        /* \"#utility.yul\":2001:2007   */\n      dup5\n        /* \"#utility.yul\":1937:2015   */\n      tag_79\n      jump\t// in\n    tag_89:\n        /* \"#utility.yul\":1929:2015   */\n      swap1\n      pop\n        /* \"#utility.yul\":1709:2022   */\n      swap3\n      swap2\n      pop\n      pop\n      jump\t// out\n        /* \"#utility.yul\":2028:2157   */\n    tag_59:\n        /* \"#utility.yul\":2062:2068   */\n      0x00\n        /* \"#utility.yul\":2089:2109   */\n      tag_91\n      tag_92\n      jump\t// in\n    tag_91:\n        /* \"#utility.yul\":2079:2109   */\n      swap1\n      pop\n        /* \"#utility.yul\":2118:2151   */\n      tag_93\n        /* \"#utility.yul\":2146:2150   */\n      dup3\n        /* \"#utility.yul\":2138:2144   */\n      dup3\n        /* \"#utility.yul\":2118:2151   */\n      tag_94\n      jump\t// in\n    tag_93:\n        /* \"#utility.yul\":2028:2157   */\n      swap2\n      swap1\n      pop\n      jump\t// out\n        /* \"#utility.yul\":2163:2238   */\n    tag_92:\n        /* \"#utility.yul\":2196:2202   */\n      0x00\n        /* \"#utility.yul\":2229:2231   */\n      0x40\n        /* \"#utility.yul\":2223:2232   */\n      mload\n        /* \"#utility.yul\":2213:2232   */\n      swap1\n      pop\n        /* \"#utility.yul\":2163:2238   */\n      swap1\n      jump\t// out\n        /* \"#utility.yul\":2244:2552   */\n    tag_58:\n        /* \"#utility.yul\":2306:2310   */\n      0x00\n        /* \"#utility.yul\":2396:2414   */\n      0xffffffffffffffff\n        /* \"#utility.yul\":2388:2394   */\n      dup3\n        /* \"#utility.yul\":2385:2415   */\n      gt\n        /* \"#utility.yul\":2382:2438   */\n      iszero\n      tag_97\n      jumpi\n        /* \"#utility.yul\":2418:2436   */\n      tag_98\n      tag_99\n      jump\t// in\n    tag_98:\n        /* \"#utility.yul\":2382:2438   */\n    tag_97:\n        /* \"#utility.yul\":2456:2485   */\n      tag_100\n        /* \"#utility.yul\":2478:2484   */\n      dup3\n        /* \"#utility.yul\":2456:2485   */\n      tag_87\n      jump\t// in\n    tag_100:\n        /* \"#utility.yul\":2448:2485   */\n      swap1\n      pop\n        /* \"#utility.yul\":2540:2544   */\n      0x20\n        /* \"#utility.yul\":2534:2538   */\n      dup2\n        /* \"#utility.yul\":2530:2545   */\n      add\n        /* \"#utility.yul\":2522:2545   */\n      swap1\n      pop\n        /* \"#utility.yul\":2244:2552   */\n      swap2\n      swap1\n      pop\n      jump\t// out\n        /* \"#utility.yul\":2558:2657   */\n    tag_82:\n        /* \"#utility.yul\":2610:2616   */\n      0x00\n        /* \"#utility.yul\":2644:2649   */\n      dup2\n        /* \"#utility.yul\":2638:2650   */\n      mload\n        /* \"#utility.yul\":2628:2650   */\n      swap1\n      pop\n        /* \"#utility.yul\":2558:2657   */\n      swap2\n      swap1\n      pop\n      jump\t// out\n        /* \"#utility.yul\":2663:2832   */\n    tag_84:\n        /* \"#utility.yul\":2747:2758   */\n      0x00\n        /* \"#utility.yul\":2781:2787   */\n      dup3\n        /* \"#utility.yul\":2776:2779   */\n      dup3\n        /* \"#utility.yul\":2769:2788   */\n      mstore\n        /* \"#utility.yul\":2821:2825   */\n      0x20\n        /* \"#utility.yul\":2816:2819   */\n      dup3\n        /* \"#utility.yul\":2812:2826   */\n      add\n        /* \"#utility.yul\":2797:2826   */\n      swap1\n      pop\n        /* \"#utility.yul\":2663:2832   */\n      swap3\n      swap2\n      pop\n      pop\n      jump\t// out\n        /* \"#utility.yul\":2838:3145   */\n    tag_64:\n        /* \"#utility.yul\":2906:2907   */\n      0x00\n        /* \"#utility.yul\":2916:3029   */\n    tag_104:\n        /* \"#utility.yul\":2930:2936   */\n      dup4\n        /* \"#utility.yul\":2927:2928   */\n      dup2\n        /* \"#utility.yul\":2924:2937   */\n      lt\n        /* \"#utility.yul\":2916:3029   */\n      iszero\n      tag_106\n      jumpi\n        /* \"#utility.yul\":3015:3016   */\n      dup1\n        /* \"#utility.yul\":3010:3013   */\n      dup3\n        /* \"#utility.yul\":3006:3017   */\n      add\n        /* \"#utility.yul\":3000:3018   */\n      mload\n        /* \"#utility.yul\":2996:2997   */\n      dup2\n        /* \"#utility.yul\":2991:2994   */\n      dup5\n        /* \"#utility.yul\":2987:2998   */\n      add\n        /* \"#utility.yul\":2980:3019   */\n      mstore\n        /* \"#utility.yul\":2952:2954   */\n      0x20\n        /* \"#utility.yul\":2949:2950   */\n      dup2\n        /* \"#utility.yul\":2945:2955   */\n      add\n        /* \"#utility.yul\":2940:2955   */\n      swap1\n      pop\n        /* \"#utility.yul\":2916:3029   */\n      jump(tag_104)\n    tag_106:\n        /* \"#utility.yul\":3047:3053   */\n      dup4\n        /* \"#utility.yul\":3044:3045   */\n      dup2\n        /* \"#utility.yul\":3041:3054   */\n      gt\n        /* \"#utility.yul\":3038:3139   */\n      iszero\n      tag_107\n      jumpi\n        /* \"#utility.yul\":3127:3128   */\n      0x00\n        /* \"#utility.yul\":3118:3124   */\n      dup5\n        /* \"#utility.yul\":3113:3116   */\n      dup5\n        /* \"#utility.yul\":3109:3125   */\n      add\n        /* \"#utility.yul\":3102:3129   */\n      mstore\n        /* \"#utility.yul\":3038:3139   */\n    tag_107:\n        /* \"#utility.yul\":2887:3145   */\n      pop\n        /* \"#utility.yul\":2838:3145   */\n      pop\n      pop\n      pop\n      jump\t// out\n        /* \"#utility.yul\":3151:3471   */\n    tag_46:\n        /* \"#utility.yul\":3195:3201   */\n      0x00\n        /* \"#utility.yul\":3232:3233   */\n      0x02\n        /* \"#utility.yul\":3226:3230   */\n      dup3\n        /* \"#utility.yul\":3222:3234   */\n      div\n        /* \"#utility.yul\":3212:3234   */\n      swap1\n      pop\n        /* \"#utility.yul\":3279:3280   */\n      0x01\n        /* \"#utility.yul\":3273:3277   */\n      dup3\n        /* \"#utility.yul\":3269:3281   */\n      and\n        /* \"#utility.yul\":3300:3318   */\n      dup1\n        /* \"#utility.yul\":3290:3371   */\n      tag_109\n      jumpi\n        /* \"#utility.yul\":3356:3360   */\n      0x7f\n        /* \"#utility.yul\":3348:3354   */\n      dup3\n        /* \"#utility.yul\":3344:3361   */\n      and\n        /* \"#utility.yul\":3334:3361   */\n      swap2\n      pop\n        /* \"#utility.yul\":3290:3371   */\n    tag_109:\n        /* \"#utility.yul\":3418:3420   */\n      0x20\n        /* \"#utility.yul\":3410:3416   */\n      dup3\n        /* \"#utility.yul\":3407:3421   */\n      lt\n        /* \"#utility.yul\":3387:3405   */\n      dup2\n        /* \"#utility.yul\":3384:3422   */\n      eq\n        /* \"#utility.yul\":3381:3465   */\n      iszero\n      tag_110\n      jumpi\n        /* \"#utility.yul\":3437:3455   */\n      tag_111\n      tag_112\n      jump\t// in\n    tag_111:\n        /* \"#utility.yul\":3381:3465   */\n    tag_110:\n        /* \"#utility.yul\":3202:3471   */\n      pop\n        /* \"#utility.yul\":3151:3471   */\n      swap2\n      swap1\n      pop\n      jump\t// out\n        /* \"#utility.yul\":3477:3758   */\n    tag_94:\n        /* \"#utility.yul\":3560:3587   */\n      tag_114\n        /* \"#utility.yul\":3582:3586   */\n      dup3\n        /* \"#utility.yul\":3560:3587   */\n      tag_87\n      jump\t// in\n    tag_114:\n        /* \"#utility.yul\":3552:3558   */\n      dup2\n        /* \"#utility.yul\":3548:3588   */\n      add\n        /* \"#utility.yul\":3690:3696   */\n      dup2\n        /* \"#utility.yul\":3678:3688   */\n      dup2\n        /* \"#utility.yul\":3675:3697   */\n      lt\n        /* \"#utility.yul\":3654:3672   */\n      0xffffffffffffffff\n        /* \"#utility.yul\":3642:3652   */\n      dup3\n        /* \"#utility.yul\":3639:3673   */\n      gt\n        /* \"#utility.yul\":3636:3698   */\n      or\n        /* \"#utility.yul\":3633:3721   */\n      iszero\n      tag_115\n      jumpi\n        /* \"#utility.yul\":3701:3719   */\n      tag_116\n      tag_99\n      jump\t// in\n    tag_116:\n        /* \"#utility.yul\":3633:3721   */\n    tag_115:\n        /* \"#utility.yul\":3741:3751   */\n      dup1\n        /* \"#utility.yul\":3737:3739   */\n      0x40\n        /* \"#utility.yul\":3730:3752   */\n      mstore\n        /* \"#utility.yul\":3520:3758   */\n      pop\n        /* \"#utility.yul\":3477:3758   */\n      pop\n      pop\n      jump\t// out\n        /* \"#utility.yul\":3764:3944   */\n    tag_112:\n        /* \"#utility.yul\":3812:3889   */\n      0x4e487b7100000000000000000000000000000000000000000000000000000000\n        /* \"#utility.yul\":3809:3810   */\n      0x00\n        /* \"#utility.yul\":3802:3890   */\n      mstore\n        /* \"#utility.yul\":3909:3913   */\n      0x22\n        /* \"#utility.yul\":3906:3907   */\n      0x04\n        /* \"#utility.yul\":3899:3914   */\n      mstore\n        /* \"#utility.yul\":3933:3937   */\n      0x24\n        /* \"#utility.yul\":3930:3931   */\n      0x00\n        /* \"#utility.yul\":3923:3938   */\n      revert\n        /* \"#utility.yul\":3950:4130   */\n    tag_99:\n        /* \"#utility.yul\":3998:4075   */\n      0x4e487b7100000000000000000000000000000000000000000000000000000000\n        /* \"#utility.yul\":3995:3996   */\n      0x00\n        /* \"#utility.yul\":3988:4076   */\n      mstore\n        /* \"#utility.yul\":4095:4099   */\n      0x41\n        /* \"#utility.yul\":4092:4093   */\n      0x04\n        /* \"#utility.yul\":4085:4100   */\n      mstore\n        /* \"#utility.yul\":4119:4123   */\n      0x24\n        /* \"#utility.yul\":4116:4117   */\n      0x00\n        /* \"#utility.yul\":4109:4124   */\n      revert\n        /* \"#utility.yul\":4136:4253   */\n    tag_69:\n        /* \"#utility.yul\":4245:4246   */\n      0x00\n        /* \"#utility.yul\":4242:4243   */\n      dup1\n        /* \"#utility.yul\":4235:4247   */\n      revert\n        /* \"#utility.yul\":4259:4376   */\n    tag_62:\n        /* \"#utility.yul\":4368:4369   */\n      0x00\n        /* \"#utility.yul\":4365:4366   */\n      dup1\n        /* \"#utility.yul\":4358:4370   */\n      revert\n        /* \"#utility.yul\":4382:4499   */\n    tag_77:\n        /* \"#utility.yul\":4491:4492   */\n      0x00\n        /* \"#utility.yul\":4488:4489   */\n      dup1\n        /* \"#utility.yul\":4481:4493   */\n      revert\n        /* \"#utility.yul\":4505:4622   */\n    tag_74:\n        /* \"#utility.yul\":4614:4615   */\n      0x00\n        /* \"#utility.yul\":4611:4612   */\n      dup1\n        /* \"#utility.yul\":4604:4616   */\n      revert\n        /* \"#utility.yul\":4628:4730   */\n    tag_87:\n        /* \"#utility.yul\":4669:4675   */\n      0x00\n        /* \"#utility.yul\":4720:4722   */\n      0x1f\n        /* \"#utility.yul\":4716:4723   */\n      not\n        /* \"#utility.yul\":4711:4713   */\n      0x1f\n        /* \"#utility.yul\":4704:4709   */\n      dup4\n        /* \"#utility.yul\":4700:4714   */\n      add\n        /* \"#utility.yul\":4696:4724   */\n      and\n        /* \"#utility.yul\":4686:4724   */\n      swap1\n      pop\n        /* \"#utility.yul\":4628:4730   */\n      swap2\n      swap1\n      pop\n      jump\t// out\n    stop\n\n    sub_0: assembly {\n            /* \"Ep6/example.sol\":62:1715  contract Base {\r... */\n          mstore(0x40, 0x80)\n            /* \"Ep6/example.sol\":156:209  string private privateMsg = \"private state variables\" */\n          mload(0x40)\n          dup1\n          0x40\n          add\n          0x40\n          mstore\n          dup1\n          0x17\n          dup2\n          mstore\n          0x20\n          add\n          0x70726976617465207374617465207661726961626c6573000000000000000000\n          dup2\n          mstore\n          pop\n          0x00\n          swap1\n          dup1\n          mload\n          swap1\n          0x20\n          add\n          swap1\n          tag_1\n          swap3\n          swap2\n          swap1\n          tag_2\n          jump\t// in\n        tag_1:\n          pop\n            /* \"Ep6/example.sol\":323:379  string internal internalMsg = \"internal state variables\" */\n          mload(0x40)\n          dup1\n          0x40\n          add\n          0x40\n          mstore\n          dup1\n          0x18\n          dup2\n          mstore\n          0x20\n          add\n          0x696e7465726e616c207374617465207661726961626c65730000000000000000\n          dup2\n          mstore\n          pop\n          0x01\n          swap1\n          dup1\n          mload\n          swap1\n          0x20\n          add\n          swap1\n          tag_3\n          swap3\n          swap2\n          swap1\n          tag_2\n          jump\t// in\n        tag_3:\n          pop\n            /* \"Ep6/example.sol\":525:575  string public publicMsg = \"public state variables\" */\n          mload(0x40)\n          dup1\n          0x40\n          add\n          0x40\n          mstore\n          dup1\n          0x16\n          dup2\n          mstore\n          0x20\n          add\n          0x7075626c6963207374617465207661726961626c657300000000000000000000\n          dup2\n          mstore\n          pop\n          0x02\n          swap1\n          dup1\n          mload\n          swap1\n          0x20\n          add\n          swap1\n          tag_4\n          swap3\n          swap2\n          swap1\n          tag_2\n          jump\t// in\n        tag_4:\n          pop\n            /* \"Ep6/example.sol\":62:1715  contract Base {\r... */\n          callvalue\n          dup1\n          iszero\n          tag_5\n          jumpi\n          0x00\n          dup1\n          revert\n        tag_5:\n          pop\n          jump(tag_6)\n        tag_2:\n          dup3\n          dup1\n          sload\n          tag_7\n          swap1\n          tag_8\n          jump\t// in\n        tag_7:\n          swap1\n          0x00\n          mstore\n          keccak256(0x00, 0x20)\n          swap1\n          0x1f\n          add\n          0x20\n          swap1\n          div\n          dup2\n          add\n          swap3\n          dup3\n          tag_10\n          jumpi\n          0x00\n          dup6\n          sstore\n          jump(tag_9)\n        tag_10:\n          dup3\n          0x1f\n          lt\n          tag_11\n          jumpi\n          dup1\n          mload\n          not(0xff)\n          and\n          dup4\n          dup1\n          add\n          or\n          dup6\n          sstore\n          jump(tag_9)\n        tag_11:\n          dup3\n          dup1\n          add\n          0x01\n          add\n          dup6\n          sstore\n          dup3\n          iszero\n          tag_9\n          jumpi\n          swap2\n          dup3\n          add\n        tag_12:\n          dup3\n          dup2\n          gt\n          iszero\n          tag_13\n          jumpi\n          dup3\n          mload\n          dup3\n          sstore\n          swap2\n          0x20\n          add\n          swap2\n          swap1\n          0x01\n          add\n          swap1\n          jump(tag_12)\n        tag_13:\n        tag_9:\n          pop\n          swap1\n          pop\n          tag_14\n          swap2\n          swap1\n          tag_15\n          jump\t// in\n        tag_14:\n          pop\n          swap1\n          jump\t// out\n        tag_15:\n        tag_16:\n          dup1\n          dup3\n          gt\n          iszero\n          tag_17\n          jumpi\n          0x00\n          dup2\n          0x00\n          swap1\n          sstore\n          pop\n          0x01\n          add\n          jump(tag_16)\n        tag_17:\n          pop\n          swap1\n          jump\t// out\n            /* \"#utility.yul\":7:327   */\n        tag_8:\n            /* \"#utility.yul\":51:57   */\n          0x00\n            /* \"#utility.yul\":88:89   */\n          0x02\n            /* \"#utility.yul\":82:86   */\n          dup3\n            /* \"#utility.yul\":78:90   */\n          div\n            /* \"#utility.yul\":68:90   */\n          swap1\n          pop\n            /* \"#utility.yul\":135:136   */\n          0x01\n            /* \"#utility.yul\":129:133   */\n          dup3\n            /* \"#utility.yul\":125:137   */\n          and\n            /* \"#utility.yul\":156:174   */\n          dup1\n            /* \"#utility.yul\":146:227   */\n          tag_20\n          jumpi\n            /* \"#utility.yul\":212:216   */\n          0x7f\n            /* \"#utility.yul\":204:210   */\n          dup3\n            /* \"#utility.yul\":200:217   */\n          and\n            /* \"#utility.yul\":190:217   */\n          swap2\n          pop\n            /* \"#utility.yul\":146:227   */\n        tag_20:\n            /* \"#utility.yul\":274:276   */\n          0x20\n            /* \"#utility.yul\":266:272   */\n          dup3\n            /* \"#utility.yul\":263:277   */\n          lt\n            /* \"#utility.yul\":243:261   */\n          dup2\n            /* \"#utility.yul\":240:278   */\n          eq\n            /* \"#utility.yul\":237:321   */\n          iszero\n          tag_21\n          jumpi\n            /* \"#utility.yul\":293:311   */\n          tag_22\n          tag_23\n          jump\t// in\n        tag_22:\n            /* \"#utility.yul\":237:321   */\n        tag_21:\n            /* \"#utility.yul\":58:327   */\n          pop\n            /* \"#utility.yul\":7:327   */\n          swap2\n          swap1\n          pop\n          jump\t// out\n            /* \"#utility.yul\":333:513   */\n        tag_23:\n            /* \"#utility.yul\":381:458   */\n          0x4e487b7100000000000000000000000000000000000000000000000000000000\n            /* \"#utility.yul\":378:379   */\n          0x00\n            /* \"#utility.yul\":371:459   */\n          mstore\n            /* \"#utility.yul\":478:482   */\n          0x22\n            /* \"#utility.yul\":475:476   */\n          0x04\n            /* \"#utility.yul\":468:483   */\n          mstore\n            /* \"#utility.yul\":502:506   */\n          0x24\n            /* \"#utility.yul\":499:500   */\n          0x00\n            /* \"#utility.yul\":492:507   */\n          revert\n            /* \"Ep6/example.sol\":62:1715  contract Base {\r... */\n        tag_6:\n          dataSize(sub_0)\n          dup1\n          dataOffset(sub_0)\n          0x00\n          codecopy\n          0x00\n          return\n        stop\n\n        sub_0: assembly {\n                /* \"Ep6/example.sol\":62:1715  contract Base {\r... */\n              mstore(0x40, 0x80)\n              callvalue\n              dup1\n              iszero\n              tag_1\n              jumpi\n              0x00\n              dup1\n              revert\n            tag_1:\n              pop\n              jumpi(tag_2, lt(calldatasize, 0x04))\n              shr(0xe0, calldataload(0x00))\n              dup1\n              0x53fc97c7\n              eq\n              tag_3\n              jumpi\n              dup1\n              0x628e6fa1\n              eq\n              tag_4\n              jumpi\n              dup1\n              0xa23a028b\n              eq\n              tag_5\n              jumpi\n              dup1\n              0xc6c41055\n              eq\n              tag_6\n              jumpi\n            tag_2:\n              0x00\n              dup1\n              revert\n                /* \"Ep6/example.sol\":1376:1710  function testScopeOfBaseContract() public pure {\r... */\n            tag_3:\n              tag_7\n              tag_8\n              jump\t// in\n            tag_7:\n              stop\n                /* \"Ep6/example.sol\":1258:1366  function externalJob() external pure returns (string memory) {\r... */\n            tag_4:\n              tag_9\n              tag_10\n              jump\t// in\n            tag_9:\n              mload(0x40)\n              tag_11\n              swap2\n              swap1\n              tag_12\n              jump\t// in\n            tag_11:\n              mload(0x40)\n              dup1\n              swap2\n              sub\n              swap1\n              return\n                /* \"Ep6/example.sol\":1103:1205  function publicJob() public pure returns (string memory) {\r... */\n            tag_5:\n              tag_13\n              tag_14\n              jump\t// in\n            tag_13:\n              mload(0x40)\n              tag_15\n              swap2\n              swap1\n              tag_12\n              jump\t// in\n            tag_15:\n              mload(0x40)\n              dup1\n              swap2\n              sub\n              swap1\n              return\n                /* \"Ep6/example.sol\":525:575  string public publicMsg = \"public state variables\" */\n            tag_6:\n              tag_16\n              tag_17\n              jump\t// in\n            tag_16:\n              mload(0x40)\n              tag_18\n              swap2\n              swap1\n              tag_12\n              jump\t// in\n            tag_18:\n              mload(0x40)\n              dup1\n              swap2\n              sub\n              swap1\n              return\n                /* \"Ep6/example.sol\":1376:1710  function testScopeOfBaseContract() public pure {\r... */\n            tag_8:\n                /* \"Ep6/example.sol\":1434:1446  privateJob() */\n              tag_20\n                /* \"Ep6/example.sol\":1434:1444  privateJob */\n              tag_21\n                /* \"Ep6/example.sol\":1434:1446  privateJob() */\n              jump\t// in\n            tag_20:\n              pop\n                /* \"Ep6/example.sol\":1459:1472  internalJob() */\n              tag_22\n                /* \"Ep6/example.sol\":1459:1470  internalJob */\n              tag_23\n                /* \"Ep6/example.sol\":1459:1472  internalJob() */\n              jump\t// in\n            tag_22:\n              pop\n                /* \"Ep6/example.sol\":1485:1496  publicJob() */\n              tag_24\n                /* \"Ep6/example.sol\":1485:1494  publicJob */\n              tag_14\n                /* \"Ep6/example.sol\":1485:1496  publicJob() */\n              jump\t// in\n            tag_24:\n              pop\n                /* \"Ep6/example.sol\":1376:1710  function testScopeOfBaseContract() public pure {\r... */\n              jump\t// out\n                /* \"Ep6/example.sol\":1258:1366  function externalJob() external pure returns (string memory) {\r... */\n            tag_10:\n                /* \"Ep6/example.sol\":1304:1317  string memory */\n              0x60\n                /* \"Ep6/example.sol\":1330:1358  return \"external job called\" */\n              mload(0x40)\n              dup1\n              0x40\n              add\n              0x40\n              mstore\n              dup1\n              0x13\n              dup2\n              mstore\n              0x20\n              add\n              0x65787465726e616c206a6f622063616c6c656400000000000000000000000000\n              dup2\n              mstore\n              pop\n              swap1\n              pop\n                /* \"Ep6/example.sol\":1258:1366  function externalJob() external pure returns (string memory) {\r... */\n              swap1\n              jump\t// out\n                /* \"Ep6/example.sol\":1103:1205  function publicJob() public pure returns (string memory) {\r... */\n            tag_14:\n                /* \"Ep6/example.sol\":1145:1158  string memory */\n              0x60\n                /* \"Ep6/example.sol\":1171:1197  return \"public job called\" */\n              mload(0x40)\n              dup1\n              0x40\n              add\n              0x40\n              mstore\n              dup1\n              0x11\n              dup2\n              mstore\n              0x20\n              add\n              0x7075626c6963206a6f622063616c6c6564000000000000000000000000000000\n              dup2\n              mstore\n              pop\n              swap1\n              pop\n                /* \"Ep6/example.sol\":1103:1205  function publicJob() public pure returns (string memory) {\r... */\n              swap1\n              jump\t// out\n                /* \"Ep6/example.sol\":525:575  string public publicMsg = \"public state variables\" */\n            tag_17:\n              0x02\n              dup1\n              sload\n              tag_27\n              swap1\n              tag_28\n              jump\t// in\n            tag_27:\n              dup1\n              0x1f\n              add\n              0x20\n              dup1\n              swap2\n              div\n              mul\n              0x20\n              add\n              mload(0x40)\n              swap1\n              dup2\n              add\n              0x40\n              mstore\n              dup1\n              swap3\n              swap2\n              swap1\n              dup2\n              dup2\n              mstore\n              0x20\n              add\n              dup3\n              dup1\n              sload\n              tag_29\n              swap1\n              tag_28\n              jump\t// in\n            tag_29:\n              dup1\n              iszero\n              tag_30\n              jumpi\n              dup1\n              0x1f\n              lt\n              tag_31\n              jumpi\n              0x0100\n              dup1\n              dup4\n              sload\n              div\n              mul\n              dup4\n              mstore\n              swap2\n              0x20\n              add\n              swap2\n              jump(tag_30)\n            tag_31:\n              dup3\n              add\n              swap2\n              swap1\n              0x00\n              mstore\n              keccak256(0x00, 0x20)\n              swap1\n            tag_32:\n              dup2\n              sload\n              dup2\n              mstore\n              swap1\n              0x01\n              add\n              swap1\n              0x20\n              add\n              dup1\n              dup4\n              gt\n              tag_32\n              jumpi\n              dup3\n              swap1\n              sub\n              0x1f\n              and\n              dup3\n              add\n              swap2\n            tag_30:\n              pop\n              pop\n              pop\n              pop\n              pop\n              dup2\n              jump\t// out\n                /* \"Ep6/example.sol\":633:737  function privateJob() private pure returns(string memory) {\r... */\n            tag_21:\n                /* \"Ep6/example.sol\":676:689  string memory */\n              0x60\n                /* \"Ep6/example.sol\":702:729  return \"private job called\" */\n              mload(0x40)\n              dup1\n              0x40\n              add\n              0x40\n              mstore\n              dup1\n              0x12\n              dup2\n              mstore\n              0x20\n              add\n              0x70726976617465206a6f622063616c6c65640000000000000000000000000000\n              dup2\n              mstore\n              pop\n              swap1\n              pop\n                /* \"Ep6/example.sol\":633:737  function privateJob() private pure returns(string memory) {\r... */\n              swap1\n              jump\t// out\n                /* \"Ep6/example.sol\":850:958  function internalJob() internal pure returns (string memory) {\r... */\n            tag_23:\n                /* \"Ep6/example.sol\":896:909  string memory */\n              0x60\n                /* \"Ep6/example.sol\":922:950  return \"internal job called\" */\n              mload(0x40)\n              dup1\n              0x40\n              add\n              0x40\n              mstore\n              dup1\n              0x13\n              dup2\n              mstore\n              0x20\n              add\n              0x696e7465726e616c206a6f622063616c6c656400000000000000000000000000\n              dup2\n              mstore\n              pop\n              swap1\n              pop\n                /* \"Ep6/example.sol\":850:958  function internalJob() internal pure returns (string memory) {\r... */\n              swap1\n              jump\t// out\n                /* \"#utility.yul\":7:371   */\n            tag_36:\n                /* \"#utility.yul\":95:98   */\n              0x00\n                /* \"#utility.yul\":123:162   */\n              tag_38\n                /* \"#utility.yul\":156:161   */\n              dup3\n                /* \"#utility.yul\":123:162   */\n              tag_39\n              jump\t// in\n            tag_38:\n                /* \"#utility.yul\":178:249   */\n              tag_40\n                /* \"#utility.yul\":242:248   */\n              dup2\n                /* \"#utility.yul\":237:240   */\n              dup6\n                /* \"#utility.yul\":178:249   */\n              tag_41\n              jump\t// in\n            tag_40:\n                /* \"#utility.yul\":171:249   */\n              swap4\n              pop\n                /* \"#utility.yul\":258:310   */\n              tag_42\n                /* \"#utility.yul\":303:309   */\n              dup2\n                /* \"#utility.yul\":298:301   */\n              dup6\n                /* \"#utility.yul\":291:295   */\n              0x20\n                /* \"#utility.yul\":284:289   */\n              dup7\n                /* \"#utility.yul\":280:296   */\n              add\n                /* \"#utility.yul\":258:310   */\n              tag_43\n              jump\t// in\n            tag_42:\n                /* \"#utility.yul\":335:364   */\n              tag_44\n                /* \"#utility.yul\":357:363   */\n              dup2\n                /* \"#utility.yul\":335:364   */\n              tag_45\n              jump\t// in\n            tag_44:\n                /* \"#utility.yul\":330:333   */\n              dup5\n                /* \"#utility.yul\":326:365   */\n              add\n                /* \"#utility.yul\":319:365   */\n              swap2\n              pop\n                /* \"#utility.yul\":99:371   */\n              pop\n                /* \"#utility.yul\":7:371   */\n              swap3\n              swap2\n              pop\n              pop\n              jump\t// out\n                /* \"#utility.yul\":377:690   */\n            tag_12:\n                /* \"#utility.yul\":490:494   */\n              0x00\n                /* \"#utility.yul\":528:530   */\n              0x20\n                /* \"#utility.yul\":517:526   */\n              dup3\n                /* \"#utility.yul\":513:531   */\n              add\n                /* \"#utility.yul\":505:531   */\n              swap1\n              pop\n                /* \"#utility.yul\":577:586   */\n              dup2\n                /* \"#utility.yul\":571:575   */\n              dup2\n                /* \"#utility.yul\":567:587   */\n              sub\n                /* \"#utility.yul\":563:564   */\n              0x00\n                /* \"#utility.yul\":552:561   */\n              dup4\n                /* \"#utility.yul\":548:565   */\n              add\n                /* \"#utility.yul\":541:588   */\n              mstore\n                /* \"#utility.yul\":605:683   */\n              tag_47\n                /* \"#utility.yul\":678:682   */\n              dup2\n                /* \"#utility.yul\":669:675   */\n              dup5\n                /* \"#utility.yul\":605:683   */\n              tag_36\n              jump\t// in\n            tag_47:\n                /* \"#utility.yul\":597:683   */\n              swap1\n              pop\n                /* \"#utility.yul\":377:690   */\n              swap3\n              swap2\n              pop\n              pop\n              jump\t// out\n                /* \"#utility.yul\":696:795   */\n            tag_39:\n                /* \"#utility.yul\":748:754   */\n              0x00\n                /* \"#utility.yul\":782:787   */\n              dup2\n                /* \"#utility.yul\":776:788   */\n              mload\n                /* \"#utility.yul\":766:788   */\n              swap1\n              pop\n                /* \"#utility.yul\":696:795   */\n              swap2\n              swap1\n              pop\n              jump\t// out\n                /* \"#utility.yul\":801:970   */\n            tag_41:\n                /* \"#utility.yul\":885:896   */\n              0x00\n                /* \"#utility.yul\":919:925   */\n              dup3\n                /* \"#utility.yul\":914:917   */\n              dup3\n                /* \"#utility.yul\":907:926   */\n              mstore\n                /* \"#utility.yul\":959:963   */\n              0x20\n                /* \"#utility.yul\":954:957   */\n              dup3\n                /* \"#utility.yul\":950:964   */\n              add\n                /* \"#utility.yul\":935:964   */\n              swap1\n              pop\n                /* \"#utility.yul\":801:970   */\n              swap3\n              swap2\n              pop\n              pop\n              jump\t// out\n                /* \"#utility.yul\":976:1283   */\n            tag_43:\n                /* \"#utility.yul\":1044:1045   */\n              0x00\n                /* \"#utility.yul\":1054:1167   */\n            tag_51:\n                /* \"#utility.yul\":1068:1074   */\n              dup4\n                /* \"#utility.yul\":1065:1066   */\n              dup2\n                /* \"#utility.yul\":1062:1075   */\n              lt\n                /* \"#utility.yul\":1054:1167   */\n              iszero\n              tag_53\n              jumpi\n                /* \"#utility.yul\":1153:1154   */\n              dup1\n                /* \"#utility.yul\":1148:1151   */\n              dup3\n                /* \"#utility.yul\":1144:1155   */\n              add\n                /* \"#utility.yul\":1138:1156   */\n              mload\n                /* \"#utility.yul\":1134:1135   */\n              dup2\n                /* \"#utility.yul\":1129:1132   */\n              dup5\n                /* \"#utility.yul\":1125:1136   */\n              add\n                /* \"#utility.yul\":1118:1157   */\n              mstore\n                /* \"#utility.yul\":1090:1092   */\n              0x20\n                /* \"#utility.yul\":1087:1088   */\n              dup2\n                /* \"#utility.yul\":1083:1093   */\n              add\n                /* \"#utility.yul\":1078:1093   */\n              swap1\n              pop\n                /* \"#utility.yul\":1054:1167   */\n              jump(tag_51)\n            tag_53:\n                /* \"#utility.yul\":1185:1191   */\n              dup4\n                /* \"#utility.yul\":1182:1183   */\n              dup2\n                /* \"#utility.yul\":1179:1192   */\n              gt\n                /* \"#utility.yul\":1176:1277   */\n              iszero\n              tag_54\n              jumpi\n                /* \"#utility.yul\":1265:1266   */\n              0x00\n                /* \"#utility.yul\":1256:1262   */\n              dup5\n                /* \"#utility.yul\":1251:1254   */\n              dup5\n                /* \"#utility.yul\":1247:1263   */\n              add\n                /* \"#utility.yul\":1240:1267   */\n              mstore\n                /* \"#utility.yul\":1176:1277   */\n            tag_54:\n                /* \"#utility.yul\":1025:1283   */\n              pop\n                /* \"#utility.yul\":976:1283   */\n              pop\n              pop\n              pop\n              jump\t// out\n                /* \"#utility.yul\":1289:1609   */\n            tag_28:\n                /* \"#utility.yul\":1333:1339   */\n              0x00\n                /* \"#utility.yul\":1370:1371   */\n              0x02\n                /* \"#utility.yul\":1364:1368   */\n              dup3\n                /* \"#utility.yul\":1360:1372   */\n              div\n                /* \"#utility.yul\":1350:1372   */\n              swap1\n              pop\n                /* \"#utility.yul\":1417:1418   */\n              0x01\n                /* \"#utility.yul\":1411:1415   */\n              dup3\n                /* \"#utility.yul\":1407:1419   */\n              and\n                /* \"#utility.yul\":1438:1456   */\n              dup1\n                /* \"#utility.yul\":1428:1509   */\n              tag_56\n              jumpi\n                /* \"#utility.yul\":1494:1498   */\n              0x7f\n                /* \"#utility.yul\":1486:1492   */\n              dup3\n                /* \"#utility.yul\":1482:1499   */\n              and\n                /* \"#utility.yul\":1472:1499   */\n              swap2\n              pop\n                /* \"#utility.yul\":1428:1509   */\n            tag_56:\n                /* \"#utility.yul\":1556:1558   */\n              0x20\n                /* \"#utility.yul\":1548:1554   */\n              dup3\n                /* \"#utility.yul\":1545:1559   */\n              lt\n                /* \"#utility.yul\":1525:1543   */\n              dup2\n                /* \"#utility.yul\":1522:1560   */\n              eq\n                /* \"#utility.yul\":1519:1603   */\n              iszero\n              tag_57\n              jumpi\n                /* \"#utility.yul\":1575:1593   */\n              tag_58\n              tag_59\n              jump\t// in\n            tag_58:\n                /* \"#utility.yul\":1519:1603   */\n            tag_57:\n                /* \"#utility.yul\":1340:1609   */\n              pop\n                /* \"#utility.yul\":1289:1609   */\n              swap2\n              swap1\n              pop\n              jump\t// out\n                /* \"#utility.yul\":1615:1795   */\n            tag_59:\n                /* \"#utility.yul\":1663:1740   */\n              0x4e487b7100000000000000000000000000000000000000000000000000000000\n                /* \"#utility.yul\":1660:1661   */\n              0x00\n                /* \"#utility.yul\":1653:1741   */\n              mstore\n                /* \"#utility.yul\":1760:1764   */\n              0x22\n                /* \"#utility.yul\":1757:1758   */\n              0x04\n                /* \"#utility.yul\":1750:1765   */\n              mstore\n                /* \"#utility.yul\":1784:1788   */\n              0x24\n                /* \"#utility.yul\":1781:1782   */\n              0x00\n                /* \"#utility.yul\":1774:1789   */\n              revert\n                /* \"#utility.yul\":1801:1903   */\n            tag_45:\n                /* \"#utility.yul\":1842:1848   */\n              0x00\n                /* \"#utility.yul\":1893:1895   */\n              0x1f\n                /* \"#utility.yul\":1889:1896   */\n              not\n                /* \"#utility.yul\":1884:1886   */\n              0x1f\n                /* \"#utility.yul\":1877:1882   */\n              dup4\n                /* \"#utility.yul\":1873:1887   */\n              add\n                /* \"#utility.yul\":1869:1897   */\n              and\n                /* \"#utility.yul\":1859:1897   */\n              swap1\n              pop\n                /* \"#utility.yul\":1801:1903   */\n              swap2\n              swap1\n              pop\n              jump\t// out\n\n            auxdata: 0xa2646970667358221220a461a8730321e7f10919e7049226c8aa38df4fe8eefa55d50bf7329c9b50890964736f6c63430008070033\n        }\n    }\n\n    auxdata: 0xa26469706673582212206615b1c90e0647a906d124a10da7adb7732b60915a607e18da45c1728764833964736f6c63430008070033\n}\n",
				"bytecode": {
					"linkReferences": {},
					"object": "60806040526040518060400160405280601781526020017f70726976617465207374617465207661726961626c65730000000000000000008152506000908051906020019061004f9291906100fa565b506040518060400160405280601881526020017f696e7465726e616c207374617465207661726961626c657300000000000000008152506001908051906020019061009b9291906100fa565b506040518060400160405280601681526020017f7075626c6963207374617465207661726961626c657300000000000000000000815250600290805190602001906100e79291906100fa565b503480156100f457600080fd5b506101fe565b8280546101069061019d565b90600052602060002090601f016020900481019282610128576000855561016f565b82601f1061014157805160ff191683800117855561016f565b8280016001018555821561016f579182015b8281111561016e578251825591602001919060010190610153565b5b50905061017c9190610180565b5090565b5b80821115610199576000816000905550600101610181565b5090565b600060028204905060018216806101b557607f821691505b602082108114156101c9576101c86101cf565b5b50919050565b7f4e487b7100000000000000000000000000000000000000000000000000000000600052602260045260246000fd5b610bdb8061020d6000396000f3fe608060405234801561001057600080fd5b50600436106100625760003560e01c806326588bdf1461006757806353fc97c714610071578063618451301461007b578063628e6fa114610085578063a23a028b146100a3578063c6c41055146100c1575b600080fd5b61006f6100df565b005b6100796101a5565b005b6100836101c2565b005b61008d6101c4565b60405161009a9190610445565b60405180910390f35b6100ab610201565b6040516100b89190610445565b60405180910390f35b6100c961023e565b6040516100d69190610445565b60405180910390f35b6100e76102cc565b506100f0610201565b5060006040516100ff90610346565b604051809103906000f08015801561011b573d6000803e3d6000fd5b5090508073ffffffffffffffffffffffffffffffffffffffff1663628e6fa16040518163ffffffff1660e01b815260040160006040518083038186803b15801561016457600080fd5b505afa158015610178573d6000803e3d6000fd5b505050506040513d6000823e3d601f19601f820116820180604052508101906101a191906103c3565b5050565b6101ad610309565b506101b66102cc565b506101bf610201565b50565b565b60606040518060400160405280601381526020017f65787465726e616c206a6f622063616c6c656400000000000000000000000000815250905090565b60606040518060400160405280601181526020017f7075626c6963206a6f622063616c6c6564000000000000000000000000000000815250905090565b6002805461024b9061050c565b80601f01602080910402602001604051908101604052809291908181526020018280546102779061050c565b80156102c45780601f10610299576101008083540402835291602001916102c4565b820191906000526020600020905b8154815290600101906020018083116102a757829003601f168201915b505050505081565b60606040518060400160405280601381526020017f696e7465726e616c206a6f622063616c6c656400000000000000000000000000815250905090565b60606040518060400160405280601281526020017f70726976617465206a6f622063616c6c65640000000000000000000000000000815250905090565b6105b3806105f383390190565b60006103666103618461048c565b610467565b905082815260208101848484011115610382576103816105d2565b5b61038d8482856104d9565b509392505050565b600082601f8301126103aa576103a96105cd565b5b81516103ba848260208601610353565b91505092915050565b6000602082840312156103d9576103d86105dc565b5b600082015167ffffffffffffffff8111156103f7576103f66105d7565b5b61040384828501610395565b91505092915050565b6000610417826104bd565b61042181856104c8565b93506104318185602086016104d9565b61043a816105e1565b840191505092915050565b6000602082019050818103600083015261045f818461040c565b905092915050565b6000610471610482565b905061047d828261053e565b919050565b6000604051905090565b600067ffffffffffffffff8211156104a7576104a661059e565b5b6104b0826105e1565b9050602081019050919050565b600081519050919050565b600082825260208201905092915050565b60005b838110156104f75780820151818401526020810190506104dc565b83811115610506576000848401525b50505050565b6000600282049050600182168061052457607f821691505b602082108114156105385761053761056f565b5b50919050565b610547826105e1565b810181811067ffffffffffffffff821117156105665761056561059e565b5b80604052505050565b7f4e487b7100000000000000000000000000000000000000000000000000000000600052602260045260246000fd5b7f4e487b7100000000000000000000000000000000000000000000000000000000600052604160045260246000fd5b600080fd5b600080fd5b600080fd5b600080fd5b6000601f19601f830116905091905056fe60806040526040518060400160405280601781526020017f70726976617465207374617465207661726961626c65730000000000000000008152506000908051906020019061004f9291906100fa565b506040518060400160405280601881526020017f696e7465726e616c207374617465207661726961626c657300000000000000008152506001908051906020019061009b9291906100fa565b506040518060400160405280601681526020017f7075626c6963207374617465207661726961626c657300000000000000000000815250600290805190602001906100e79291906100fa565b503480156100f457600080fd5b506101fe565b8280546101069061019d565b90600052602060002090601f016020900481019282610128576000855561016f565b82601f1061014157805160ff191683800117855561016f565b8280016001018555821561016f579182015b8281111561016e578251825591602001919060010190610153565b5b50905061017c9190610180565b5090565b5b80821115610199576000816000905550600101610181565b5090565b600060028204905060018216806101b557607f821691505b602082108114156101c9576101c86101cf565b5b50919050565b7f4e487b7100000000000000000000000000000000000000000000000000000000600052602260045260246000fd5b6103a68061020d6000396000f3fe608060405234801561001057600080fd5b506004361061004c5760003560e01c806353fc97c714610051578063628e6fa11461005b578063a23a028b14610079578063c6c4105514610097575b600080fd5b6100596100b5565b005b6100636100d2565b604051610070919061028d565b60405180910390f35b61008161010f565b60405161008e919061028d565b60405180910390f35b61009f61014c565b6040516100ac919061028d565b60405180910390f35b6100bd6101da565b506100c6610217565b506100cf61010f565b50565b60606040518060400160405280601381526020017f65787465726e616c206a6f622063616c6c656400000000000000000000000000815250905090565b60606040518060400160405280601181526020017f7075626c6963206a6f622063616c6c6564000000000000000000000000000000815250905090565b60028054610159906102fe565b80601f0160208091040260200160405190810160405280929190818152602001828054610185906102fe565b80156101d25780601f106101a7576101008083540402835291602001916101d2565b820191906000526020600020905b8154815290600101906020018083116101b557829003601f168201915b505050505081565b60606040518060400160405280601281526020017f70726976617465206a6f622063616c6c65640000000000000000000000000000815250905090565b60606040518060400160405280601381526020017f696e7465726e616c206a6f622063616c6c656400000000000000000000000000815250905090565b600061025f826102af565b61026981856102ba565b93506102798185602086016102cb565b6102828161035f565b840191505092915050565b600060208201905081810360008301526102a78184610254565b905092915050565b600081519050919050565b600082825260208201905092915050565b60005b838110156102e95780820151818401526020810190506102ce565b838111156102f8576000848401525b50505050565b6000600282049050600182168061031657607f821691505b6020821081141561032a57610329610330565b5b50919050565b7f4e487b7100000000000000000000000000000000000000000000000000000000600052602260045260246000fd5b6000601f19601f830116905091905056fea2646970667358221220a461a8730321e7f10919e7049226c8aa38df4fe8eefa55d50bf7329c9b50890964736f6c63430008070033a26469706673582212206615b1c90e0647a906d124a10da7adb7732b60915a607e18da45c1728764833964736f6c63430008070033",
					"opcodes": "PUSH1 0x80 PUSH1 0x40 MSTORE PUSH1 0x40 MLOAD DUP1 PUSH1 0x40 ADD PUSH1 0x40 MSTORE DUP1 PUSH1 0x17 DUP2 MSTORE PUSH1 0x20 ADD PUSH32 0x70726976617465207374617465207661726961626C6573000000000000000000 DUP2 MSTORE POP PUSH1 0x0 SWAP1 DUP1 MLOAD SWAP1 PUSH1 0x20 ADD SWAP1 PUSH2 0x4F SWAP3 SWAP2 SWAP1 PUSH2 0xFA JUMP JUMPDEST POP PUSH1 0x40 MLOAD DUP1 PUSH1 0x40 ADD PUSH1 0x40 MSTORE DUP1 PUSH1 0x18 DUP2 MSTORE PUSH1 0x20 ADD PUSH32 0x696E7465726E616C207374617465207661726961626C65730000000000000000 DUP2 MSTORE POP PUSH1 0x1 SWAP1 DUP1 MLOAD SWAP1 PUSH1 0x20 ADD SWAP1 PUSH2 0x9B SWAP3 SWAP2 SWAP1 PUSH2 0xFA JUMP JUMPDEST POP PUSH1 0x40 MLOAD DUP1 PUSH1 0x40 ADD PUSH1 0x40 MSTORE DUP1 PUSH1 0x16 DUP2 MSTORE PUSH1 0x20 ADD PUSH32 0x7075626C6963207374617465207661726961626C657300000000000000000000 DUP2 MSTORE POP PUSH1 0x2 SWAP1 DUP1 MLOAD SWAP1 PUSH1 0x20 ADD SWAP1 PUSH2 0xE7 SWAP3 SWAP2 SWAP1 PUSH2 0xFA JUMP JUMPDEST POP CALLVALUE DUP1 ISZERO PUSH2 0xF4 JUMPI PUSH1 0x0 DUP1 REVERT JUMPDEST POP PUSH2 0x1FE JUMP JUMPDEST DUP3 DUP1 SLOAD PUSH2 0x106 SWAP1 PUSH2 0x19D JUMP JUMPDEST SWAP1 PUSH1 0x0 MSTORE PUSH1 0x20 PUSH1 0x0 KECCAK256 SWAP1 PUSH1 0x1F ADD PUSH1 0x20 SWAP1 DIV DUP2 ADD SWAP3 DUP3 PUSH2 0x128 JUMPI PUSH1 0x0 DUP6 SSTORE PUSH2 0x16F JUMP JUMPDEST DUP3 PUSH1 0x1F LT PUSH2 0x141 JUMPI DUP1 MLOAD PUSH1 0xFF NOT AND DUP4 DUP1 ADD OR DUP6 SSTORE PUSH2 0x16F JUMP JUMPDEST DUP3 DUP1 ADD PUSH1 0x1 ADD DUP6 SSTORE DUP3 ISZERO PUSH2 0x16F JUMPI SWAP2 DUP3 ADD JUMPDEST DUP3 DUP2 GT ISZERO PUSH2 0x16E JUMPI DUP3 MLOAD DUP3 SSTORE SWAP2 PUSH1 0x20 ADD SWAP2 SWAP1 PUSH1 0x1 ADD SWAP1 PUSH2 0x153 JUMP JUMPDEST JUMPDEST POP SWAP1 POP PUSH2 0x17C SWAP2 SWAP1 PUSH2 0x180 JUMP JUMPDEST POP SWAP1 JUMP JUMPDEST JUMPDEST DUP1 DUP3 GT ISZERO PUSH2 0x199 JUMPI PUSH1 0x0 DUP2 PUSH1 0x0 SWAP1 SSTORE POP PUSH1 0x1 ADD PUSH2 0x181 JUMP JUMPDEST POP SWAP1 JUMP JUMPDEST PUSH1 0x0 PUSH1 0x2 DUP3 DIV SWAP1 POP PUSH1 0x1 DUP3 AND DUP1 PUSH2 0x1B5 JUMPI PUSH1 0x7F DUP3 AND SWAP2 POP JUMPDEST PUSH1 0x20 DUP3 LT DUP2 EQ ISZERO PUSH2 0x1C9 JUMPI PUSH2 0x1C8 PUSH2 0x1CF JUMP JUMPDEST JUMPDEST POP SWAP2 SWAP1 POP JUMP JUMPDEST PUSH32 0x4E487B7100000000000000000000000000000000000000000000000000000000 PUSH1 0x0 MSTORE PUSH1 0x22 PUSH1 0x4 MSTORE PUSH1 0x24 PUSH1 0x0 REVERT JUMPDEST PUSH2 0xBDB DUP1 PUSH2 0x20D PUSH1 0x0 CODECOPY PUSH1 0x0 RETURN INVALID PUSH1 0x80 PUSH1 0x40 MSTORE CALLVALUE DUP1 ISZERO PUSH2 0x10 JUMPI PUSH1 0x0 DUP1 REVERT JUMPDEST POP PUSH1 0x4 CALLDATASIZE LT PUSH2 0x62 JUMPI PUSH1 0x0 CALLDATALOAD PUSH1 0xE0 SHR DUP1 PUSH4 0x26588BDF EQ PUSH2 0x67 JUMPI DUP1 PUSH4 0x53FC97C7 EQ PUSH2 0x71 JUMPI DUP1 PUSH4 0x61845130 EQ PUSH2 0x7B JUMPI DUP1 PUSH4 0x628E6FA1 EQ PUSH2 0x85 JUMPI DUP1 PUSH4 0xA23A028B EQ PUSH2 0xA3 JUMPI DUP1 PUSH4 0xC6C41055 EQ PUSH2 0xC1 JUMPI JUMPDEST PUSH1 0x0 DUP1 REVERT JUMPDEST PUSH2 0x6F PUSH2 0xDF JUMP JUMPDEST STOP JUMPDEST PUSH2 0x79 PUSH2 0x1A5 JUMP JUMPDEST STOP JUMPDEST PUSH2 0x83 PUSH2 0x1C2 JUMP JUMPDEST STOP JUMPDEST PUSH2 0x8D PUSH2 0x1C4 JUMP JUMPDEST PUSH1 0x40 MLOAD PUSH2 0x9A SWAP2 SWAP1 PUSH2 0x445 JUMP JUMPDEST PUSH1 0x40 MLOAD DUP1 SWAP2 SUB SWAP1 RETURN JUMPDEST PUSH2 0xAB PUSH2 0x201 JUMP JUMPDEST PUSH1 0x40 MLOAD PUSH2 0xB8 SWAP2 SWAP1 PUSH2 0x445 JUMP JUMPDEST PUSH1 0x40 MLOAD DUP1 SWAP2 SUB SWAP1 RETURN JUMPDEST PUSH2 0xC9 PUSH2 0x23E JUMP JUMPDEST PUSH1 0x40 MLOAD PUSH2 0xD6 SWAP2 SWAP1 PUSH2 0x445 JUMP JUMPDEST PUSH1 0x40 MLOAD DUP1 SWAP2 SUB SWAP1 RETURN JUMPDEST PUSH2 0xE7 PUSH2 0x2CC JUMP JUMPDEST POP PUSH2 0xF0 PUSH2 0x201 JUMP JUMPDEST POP PUSH1 0x0 PUSH1 0x40 MLOAD PUSH2 0xFF SWAP1 PUSH2 0x346 JUMP JUMPDEST PUSH1 0x40 MLOAD DUP1 SWAP2 SUB SWAP1 PUSH1 0x0 CREATE DUP1 ISZERO DUP1 ISZERO PUSH2 0x11B JUMPI RETURNDATASIZE PUSH1 0x0 DUP1 RETURNDATACOPY RETURNDATASIZE PUSH1 0x0 REVERT JUMPDEST POP SWAP1 POP DUP1 PUSH20 0xFFFFFFFFFFFFFFFFFFFFFFFFFFFFFFFFFFFFFFFF AND PUSH4 0x628E6FA1 PUSH1 0x40 MLOAD DUP2 PUSH4 0xFFFFFFFF AND PUSH1 0xE0 SHL DUP2 MSTORE PUSH1 0x4 ADD PUSH1 0x0 PUSH1 0x40 MLOAD DUP1 DUP4 SUB DUP2 DUP7 DUP1 EXTCODESIZE ISZERO DUP1 ISZERO PUSH2 0x164 JUMPI PUSH1 0x0 DUP1 REVERT JUMPDEST POP GAS STATICCALL ISZERO DUP1 ISZERO PUSH2 0x178 JUMPI RETURNDATASIZE PUSH1 0x0 DUP1 RETURNDATACOPY RETURNDATASIZE PUSH1 0x0 REVERT JUMPDEST POP POP POP POP PUSH1 0x40 MLOAD RETURNDATASIZE PUSH1 0x0 DUP3 RETURNDATACOPY RETURNDATASIZE PUSH1 0x1F NOT PUSH1 0x1F DUP3 ADD AND DUP3 ADD DUP1 PUSH1 0x40 MSTORE POP DUP2 ADD SWAP1 PUSH2 0x1A1 SWAP2 SWAP1 PUSH2 0x3C3 JUMP JUMPDEST POP POP JUMP JUMPDEST PUSH2 0x1AD PUSH2 0x309 JUMP JUMPDEST POP PUSH2 0x1B6 PUSH2 0x2CC JUMP JUMPDEST POP PUSH2 0x1BF PUSH2 0x201 JUMP JUMPDEST POP JUMP JUMPDEST JUMP JUMPDEST PUSH1 0x60 PUSH1 0x40 MLOAD DUP1 PUSH1 0x40 ADD PUSH1 0x40 MSTORE DUP1 PUSH1 0x13 DUP2 MSTORE PUSH1 0x20 ADD PUSH32 0x65787465726E616C206A6F622063616C6C656400000000000000000000000000 DUP2 MSTORE POP SWAP1 POP SWAP1 JUMP JUMPDEST PUSH1 0x60 PUSH1 0x40 MLOAD DUP1 PUSH1 0x40 ADD PUSH1 0x40 MSTORE DUP1 PUSH1 0x11 DUP2 MSTORE PUSH1 0x20 ADD PUSH32 0x7075626C6963206A6F622063616C6C6564000000000000000000000000000000 DUP2 MSTORE POP SWAP1 POP SWAP1 JUMP JUMPDEST PUSH1 0x2 DUP1 SLOAD PUSH2 0x24B SWAP1 PUSH2 0x50C JUMP JUMPDEST DUP1 PUSH1 0x1F ADD PUSH1 0x20 DUP1 SWAP2 DIV MUL PUSH1 0x20 ADD PUSH1 0x40 MLOAD SWAP1 DUP2 ADD PUSH1 0x40 MSTORE DUP1 SWAP3 SWAP2 SWAP1 DUP2 DUP2 MSTORE PUSH1 0x20 ADD DUP3 DUP1 SLOAD PUSH2 0x277 SWAP1 PUSH2 0x50C JUMP JUMPDEST DUP1 ISZERO PUSH2 0x2C4 JUMPI DUP1 PUSH1 0x1F LT PUSH2 0x299 JUMPI PUSH2 0x100 DUP1 DUP4 SLOAD DIV MUL DUP4 MSTORE SWAP2 PUSH1 0x20 ADD SWAP2 PUSH2 0x2C4 JUMP JUMPDEST DUP3 ADD SWAP2 SWAP1 PUSH1 0x0 MSTORE PUSH1 0x20 PUSH1 0x0 KECCAK256 SWAP1 JUMPDEST DUP2 SLOAD DUP2 MSTORE SWAP1 PUSH1 0x1 ADD SWAP1 PUSH1 0x20 ADD DUP1 DUP4 GT PUSH2 0x2A7 JUMPI DUP3 SWAP1 SUB PUSH1 0x1F AND DUP3 ADD SWAP2 JUMPDEST POP POP POP POP POP DUP2 JUMP JUMPDEST PUSH1 0x60 PUSH1 0x40 MLOAD DUP1 PUSH1 0x40 ADD PUSH1 0x40 MSTORE DUP1 PUSH1 0x13 DUP2 MSTORE PUSH1 0x20 ADD PUSH32 0x696E7465726E616C206A6F622063616C6C656400000000000000000000000000 DUP2 MSTORE POP SWAP1 POP SWAP1 JUMP JUMPDEST PUSH1 0x60 PUSH1 0x40 MLOAD DUP1 PUSH1 0x40 ADD PUSH1 0x40 MSTORE DUP1 PUSH1 0x12 DUP2 MSTORE PUSH1 0x20 ADD PUSH32 0x70726976617465206A6F622063616C6C65640000000000000000000000000000 DUP2 MSTORE POP SWAP1 POP SWAP1 JUMP JUMPDEST PUSH2 0x5B3 DUP1 PUSH2 0x5F3 DUP4 CODECOPY ADD SWAP1 JUMP JUMPDEST PUSH1 0x0 PUSH2 0x366 PUSH2 0x361 DUP5 PUSH2 0x48C JUMP JUMPDEST PUSH2 0x467 JUMP JUMPDEST SWAP1 POP DUP3 DUP2 MSTORE PUSH1 0x20 DUP2 ADD DUP5 DUP5 DUP5 ADD GT ISZERO PUSH2 0x382 JUMPI PUSH2 0x381 PUSH2 0x5D2 JUMP JUMPDEST JUMPDEST PUSH2 0x38D DUP5 DUP3 DUP6 PUSH2 0x4D9 JUMP JUMPDEST POP SWAP4 SWAP3 POP POP POP JUMP JUMPDEST PUSH1 0x0 DUP3 PUSH1 0x1F DUP4 ADD SLT PUSH2 0x3AA JUMPI PUSH2 0x3A9 PUSH2 0x5CD JUMP JUMPDEST JUMPDEST DUP2 MLOAD PUSH2 0x3BA DUP5 DUP3 PUSH1 0x20 DUP7 ADD PUSH2 0x353 JUMP JUMPDEST SWAP2 POP POP SWAP3 SWAP2 POP POP JUMP JUMPDEST PUSH1 0x0 PUSH1 0x20 DUP3 DUP5 SUB SLT ISZERO PUSH2 0x3D9 JUMPI PUSH2 0x3D8 PUSH2 0x5DC JUMP JUMPDEST JUMPDEST PUSH1 0x0 DUP3 ADD MLOAD PUSH8 0xFFFFFFFFFFFFFFFF DUP2 GT ISZERO PUSH2 0x3F7 JUMPI PUSH2 0x3F6 PUSH2 0x5D7 JUMP JUMPDEST JUMPDEST PUSH2 0x403 DUP5 DUP3 DUP6 ADD PUSH2 0x395 JUMP JUMPDEST SWAP2 POP POP SWAP3 SWAP2 POP POP JUMP JUMPDEST PUSH1 0x0 PUSH2 0x417 DUP3 PUSH2 0x4BD JUMP JUMPDEST PUSH2 0x421 DUP2 DUP6 PUSH2 0x4C8 JUMP JUMPDEST SWAP4 POP PUSH2 0x431 DUP2 DUP6 PUSH1 0x20 DUP7 ADD PUSH2 0x4D9 JUMP JUMPDEST PUSH2 0x43A DUP2 PUSH2 0x5E1 JUMP JUMPDEST DUP5 ADD SWAP2 POP POP SWAP3 SWAP2 POP POP JUMP JUMPDEST PUSH1 0x0 PUSH1 0x20 DUP3 ADD SWAP1 POP DUP2 DUP2 SUB PUSH1 0x0 DUP4 ADD MSTORE PUSH2 0x45F DUP2 DUP5 PUSH2 0x40C JUMP JUMPDEST SWAP1 POP SWAP3 SWAP2 POP POP JUMP JUMPDEST PUSH1 0x0 PUSH2 0x471 PUSH2 0x482 JUMP JUMPDEST SWAP1 POP PUSH2 0x47D DUP3 DUP3 PUSH2 0x53E JUMP JUMPDEST SWAP2 SWAP1 POP JUMP JUMPDEST PUSH1 0x0 PUSH1 0x40 MLOAD SWAP1 POP SWAP1 JUMP JUMPDEST PUSH1 0x0 PUSH8 0xFFFFFFFFFFFFFFFF DUP3 GT ISZERO PUSH2 0x4A7 JUMPI PUSH2 0x4A6 PUSH2 0x59E JUMP JUMPDEST JUMPDEST PUSH2 0x4B0 DUP3 PUSH2 0x5E1 JUMP JUMPDEST SWAP1 POP PUSH1 0x20 DUP2 ADD SWAP1 POP SWAP2 SWAP1 POP JUMP JUMPDEST PUSH1 0x0 DUP2 MLOAD SWAP1 POP SWAP2 SWAP1 POP JUMP JUMPDEST PUSH1 0x0 DUP3 DUP3 MSTORE PUSH1 0x20 DUP3 ADD SWAP1 POP SWAP3 SWAP2 POP POP JUMP JUMPDEST PUSH1 0x0 JUMPDEST DUP4 DUP2 LT ISZERO PUSH2 0x4F7 JUMPI DUP1 DUP3 ADD MLOAD DUP2 DUP5 ADD MSTORE PUSH1 0x20 DUP2 ADD SWAP1 POP PUSH2 0x4DC JUMP JUMPDEST DUP4 DUP2 GT ISZERO PUSH2 0x506 JUMPI PUSH1 0x0 DUP5 DUP5 ADD MSTORE JUMPDEST POP POP POP POP JUMP JUMPDEST PUSH1 0x0 PUSH1 0x2 DUP3 DIV SWAP1 POP PUSH1 0x1 DUP3 AND DUP1 PUSH2 0x524 JUMPI PUSH1 0x7F DUP3 AND SWAP2 POP JUMPDEST PUSH1 0x20 DUP3 LT DUP2 EQ ISZERO PUSH2 0x538 JUMPI PUSH2 0x537 PUSH2 0x56F JUMP JUMPDEST JUMPDEST POP SWAP2 SWAP1 POP JUMP JUMPDEST PUSH2 0x547 DUP3 PUSH2 0x5E1 JUMP JUMPDEST DUP2 ADD DUP2 DUP2 LT PUSH8 0xFFFFFFFFFFFFFFFF DUP3 GT OR ISZERO PUSH2 0x566 JUMPI PUSH2 0x565 PUSH2 0x59E JUMP JUMPDEST JUMPDEST DUP1 PUSH1 0x40 MSTORE POP POP POP JUMP JUMPDEST PUSH32 0x4E487B7100000000000000000000000000000000000000000000000000000000 PUSH1 0x0 MSTORE PUSH1 0x22 PUSH1 0x4 MSTORE PUSH1 0x24 PUSH1 0x0 REVERT JUMPDEST PUSH32 0x4E487B7100000000000000000000000000000000000000000000000000000000 PUSH1 0x0 MSTORE PUSH1 0x41 PUSH1 0x4 MSTORE PUSH1 0x24 PUSH1 0x0 REVERT JUMPDEST PUSH1 0x0 DUP1 REVERT JUMPDEST PUSH1 0x0 DUP1 REVERT JUMPDEST PUSH1 0x0 DUP1 REVERT JUMPDEST PUSH1 0x0 DUP1 REVERT JUMPDEST PUSH1 0x0 PUSH1 0x1F NOT PUSH1 0x1F DUP4 ADD AND SWAP1 POP SWAP2 SWAP1 POP JUMP INVALID PUSH1 0x80 PUSH1 0x40 MSTORE PUSH1 0x40 MLOAD DUP1 PUSH1 0x40 ADD PUSH1 0x40 MSTORE DUP1 PUSH1 0x17 DUP2 MSTORE PUSH1 0x20 ADD PUSH32 0x70726976617465207374617465207661726961626C6573000000000000000000 DUP2 MSTORE POP PUSH1 0x0 SWAP1 DUP1 MLOAD SWAP1 PUSH1 0x20 ADD SWAP1 PUSH2 0x4F SWAP3 SWAP2 SWAP1 PUSH2 0xFA JUMP JUMPDEST POP PUSH1 0x40 MLOAD DUP1 PUSH1 0x40 ADD PUSH1 0x40 MSTORE DUP1 PUSH1 0x18 DUP2 MSTORE PUSH1 0x20 ADD PUSH32 0x696E7465726E616C207374617465207661726961626C65730000000000000000 DUP2 MSTORE POP PUSH1 0x1 SWAP1 DUP1 MLOAD SWAP1 PUSH1 0x20 ADD SWAP1 PUSH2 0x9B SWAP3 SWAP2 SWAP1 PUSH2 0xFA JUMP JUMPDEST POP PUSH1 0x40 MLOAD DUP1 PUSH1 0x40 ADD PUSH1 0x40 MSTORE DUP1 PUSH1 0x16 DUP2 MSTORE PUSH1 0x20 ADD PUSH32 0x7075626C6963207374617465207661726961626C657300000000000000000000 DUP2 MSTORE POP PUSH1 0x2 SWAP1 DUP1 MLOAD SWAP1 PUSH1 0x20 ADD SWAP1 PUSH2 0xE7 SWAP3 SWAP2 SWAP1 PUSH2 0xFA JUMP JUMPDEST POP CALLVALUE DUP1 ISZERO PUSH2 0xF4 JUMPI PUSH1 0x0 DUP1 REVERT JUMPDEST POP PUSH2 0x1FE JUMP JUMPDEST DUP3 DUP1 SLOAD PUSH2 0x106 SWAP1 PUSH2 0x19D JUMP JUMPDEST SWAP1 PUSH1 0x0 MSTORE PUSH1 0x20 PUSH1 0x0 KECCAK256 SWAP1 PUSH1 0x1F ADD PUSH1 0x20 SWAP1 DIV DUP2 ADD SWAP3 DUP3 PUSH2 0x128 JUMPI PUSH1 0x0 DUP6 SSTORE PUSH2 0x16F JUMP JUMPDEST DUP3 PUSH1 0x1F LT PUSH2 0x141 JUMPI DUP1 MLOAD PUSH1 0xFF NOT AND DUP4 DUP1 ADD OR DUP6 SSTORE PUSH2 0x16F JUMP JUMPDEST DUP3 DUP1 ADD PUSH1 0x1 ADD DUP6 SSTORE DUP3 ISZERO PUSH2 0x16F JUMPI SWAP2 DUP3 ADD JUMPDEST DUP3 DUP2 GT ISZERO PUSH2 0x16E JUMPI DUP3 MLOAD DUP3 SSTORE SWAP2 PUSH1 0x20 ADD SWAP2 SWAP1 PUSH1 0x1 ADD SWAP1 PUSH2 0x153 JUMP JUMPDEST JUMPDEST POP SWAP1 POP PUSH2 0x17C SWAP2 SWAP1 PUSH2 0x180 JUMP JUMPDEST POP SWAP1 JUMP JUMPDEST JUMPDEST DUP1 DUP3 GT ISZERO PUSH2 0x199 JUMPI PUSH1 0x0 DUP2 PUSH1 0x0 SWAP1 SSTORE POP PUSH1 0x1 ADD PUSH2 0x181 JUMP JUMPDEST POP SWAP1 JUMP JUMPDEST PUSH1 0x0 PUSH1 0x2 DUP3 DIV SWAP1 POP PUSH1 0x1 DUP3 AND DUP1 PUSH2 0x1B5 JUMPI PUSH1 0x7F DUP3 AND SWAP2 POP JUMPDEST PUSH1 0x20 DUP3 LT DUP2 EQ ISZERO PUSH2 0x1C9 JUMPI PUSH2 0x1C8 PUSH2 0x1CF JUMP JUMPDEST JUMPDEST POP SWAP2 SWAP1 POP JUMP JUMPDEST PUSH32 0x4E487B7100000000000000000000000000000000000000000000000000000000 PUSH1 0x0 MSTORE PUSH1 0x22 PUSH1 0x4 MSTORE PUSH1 0x24 PUSH1 0x0 REVERT JUMPDEST PUSH2 0x3A6 DUP1 PUSH2 0x20D PUSH1 0x0 CODECOPY PUSH1 0x0 RETURN INVALID PUSH1 0x80 PUSH1 0x40 MSTORE CALLVALUE DUP1 ISZERO PUSH2 0x10 JUMPI PUSH1 0x0 DUP1 REVERT JUMPDEST POP PUSH1 0x4 CALLDATASIZE LT PUSH2 0x4C JUMPI PUSH1 0x0 CALLDATALOAD PUSH1 0xE0 SHR DUP1 PUSH4 0x53FC97C7 EQ PUSH2 0x51 JUMPI DUP1 PUSH4 0x628E6FA1 EQ PUSH2 0x5B JUMPI DUP1 PUSH4 0xA23A028B EQ PUSH2 0x79 JUMPI DUP1 PUSH4 0xC6C41055 EQ PUSH2 0x97 JUMPI JUMPDEST PUSH1 0x0 DUP1 REVERT JUMPDEST PUSH2 0x59 PUSH2 0xB5 JUMP JUMPDEST STOP JUMPDEST PUSH2 0x63 PUSH2 0xD2 JUMP JUMPDEST PUSH1 0x40 MLOAD PUSH2 0x70 SWAP2 SWAP1 PUSH2 0x28D JUMP JUMPDEST PUSH1 0x40 MLOAD DUP1 SWAP2 SUB SWAP1 RETURN JUMPDEST PUSH2 0x81 PUSH2 0x10F JUMP JUMPDEST PUSH1 0x40 MLOAD PUSH2 0x8E SWAP2 SWAP1 PUSH2 0x28D JUMP JUMPDEST PUSH1 0x40 MLOAD DUP1 SWAP2 SUB SWAP1 RETURN JUMPDEST PUSH2 0x9F PUSH2 0x14C JUMP JUMPDEST PUSH1 0x40 MLOAD PUSH2 0xAC SWAP2 SWAP1 PUSH2 0x28D JUMP JUMPDEST PUSH1 0x40 MLOAD DUP1 SWAP2 SUB SWAP1 RETURN JUMPDEST PUSH2 0xBD PUSH2 0x1DA JUMP JUMPDEST POP PUSH2 0xC6 PUSH2 0x217 JUMP JUMPDEST POP PUSH2 0xCF PUSH2 0x10F JUMP JUMPDEST POP JUMP JUMPDEST PUSH1 0x60 PUSH1 0x40 MLOAD DUP1 PUSH1 0x40 ADD PUSH1 0x40 MSTORE DUP1 PUSH1 0x13 DUP2 MSTORE PUSH1 0x20 ADD PUSH32 0x65787465726E616C206A6F622063616C6C656400000000000000000000000000 DUP2 MSTORE POP SWAP1 POP SWAP1 JUMP JUMPDEST PUSH1 0x60 PUSH1 0x40 MLOAD DUP1 PUSH1 0x40 ADD PUSH1 0x40 MSTORE DUP1 PUSH1 0x11 DUP2 MSTORE PUSH1 0x20 ADD PUSH32 0x7075626C6963206A6F622063616C6C6564000000000000000000000000000000 DUP2 MSTORE POP SWAP1 POP SWAP1 JUMP JUMPDEST PUSH1 0x2 DUP1 SLOAD PUSH2 0x159 SWAP1 PUSH2 0x2FE JUMP JUMPDEST DUP1 PUSH1 0x1F ADD PUSH1 0x20 DUP1 SWAP2 DIV MUL PUSH1 0x20 ADD PUSH1 0x40 MLOAD SWAP1 DUP2 ADD PUSH1 0x40 MSTORE DUP1 SWAP3 SWAP2 SWAP1 DUP2 DUP2 MSTORE PUSH1 0x20 ADD DUP3 DUP1 SLOAD PUSH2 0x185 SWAP1 PUSH2 0x2FE JUMP JUMPDEST DUP1 ISZERO PUSH2 0x1D2 JUMPI DUP1 PUSH1 0x1F LT PUSH2 0x1A7 JUMPI PUSH2 0x100 DUP1 DUP4 SLOAD DIV MUL DUP4 MSTORE SWAP2 PUSH1 0x20 ADD SWAP2 PUSH2 0x1D2 JUMP JUMPDEST DUP3 ADD SWAP2 SWAP1 PUSH1 0x0 MSTORE PUSH1 0x20 PUSH1 0x0 KECCAK256 SWAP1 JUMPDEST DUP2 SLOAD DUP2 MSTORE SWAP1 PUSH1 0x1 ADD SWAP1 PUSH1 0x20 ADD DUP1 DUP4 GT PUSH2 0x1B5 JUMPI DUP3 SWAP1 SUB PUSH1 0x1F AND DUP3 ADD SWAP2 JUMPDEST POP POP POP POP POP DUP2 JUMP JUMPDEST PUSH1 0x60 PUSH1 0x40 MLOAD DUP1 PUSH1 0x40 ADD PUSH1 0x40 MSTORE DUP1 PUSH1 0x12 DUP2 MSTORE PUSH1 0x20 ADD PUSH32 0x70726976617465206A6F622063616C6C65640000000000000000000000000000 DUP2 MSTORE POP SWAP1 POP SWAP1 JUMP JUMPDEST PUSH1 0x60 PUSH1 0x40 MLOAD DUP1 PUSH1 0x40 ADD PUSH1 0x40 MSTORE DUP1 PUSH1 0x13 DUP2 MSTORE PUSH1 0x20 ADD PUSH32 0x696E7465726E616C206A6F622063616C6C656400000000000000000000000000 DUP2 MSTORE POP SWAP1 POP SWAP1 JUMP JUMPDEST PUSH1 0x0 PUSH2 0x25F DUP3 PUSH2 0x2AF JUMP JUMPDEST PUSH2 0x269 DUP2 DUP6 PUSH2 0x2BA JUMP JUMPDEST SWAP4 POP PUSH2 0x279 DUP2 DUP6 PUSH1 0x20 DUP7 ADD PUSH2 0x2CB JUMP JUMPDEST PUSH2 0x282 DUP2 PUSH2 0x35F JUMP JUMPDEST DUP5 ADD SWAP2 POP POP SWAP3 SWAP2 POP POP JUMP JUMPDEST PUSH1 0x0 PUSH1 0x20 DUP3 ADD SWAP1 POP DUP2 DUP2 SUB PUSH1 0x0 DUP4 ADD MSTORE PUSH2 0x2A7 DUP2 DUP5 PUSH2 0x254 JUMP JUMPDEST SWAP1 POP SWAP3 SWAP2 POP POP JUMP JUMPDEST PUSH1 0x0 DUP2 MLOAD SWAP1 POP SWAP2 SWAP1 POP JUMP JUMPDEST PUSH1 0x0 DUP3 DUP3 MSTORE PUSH1 0x20 DUP3 ADD SWAP1 POP SWAP3 SWAP2 POP POP JUMP JUMPDEST PUSH1 0x0 JUMPDEST DUP4 DUP2 LT ISZERO PUSH2 0x2E9 JUMPI DUP1 DUP3 ADD MLOAD DUP2 DUP5 ADD MSTORE PUSH1 0x20 DUP2 ADD SWAP1 POP PUSH2 0x2CE JUMP JUMPDEST DUP4 DUP2 GT ISZERO PUSH2 0x2F8 JUMPI PUSH1 0x0 DUP5 DUP5 ADD MSTORE JUMPDEST POP POP POP POP JUMP JUMPDEST PUSH1 0x0 PUSH1 0x2 DUP3 DIV SWAP1 POP PUSH1 0x1 DUP3 AND DUP1 PUSH2 0x316 JUMPI PUSH1 0x7F DUP3 AND SWAP2 POP JUMPDEST PUSH1 0x20 DUP3 LT DUP2 EQ ISZERO PUSH2 0x32A JUMPI PUSH2 0x329 PUSH2 0x330 JUMP JUMPDEST JUMPDEST POP SWAP2 SWAP1 POP JUMP JUMPDEST PUSH32 0x4E487B7100000000000000000000000000000000000000000000000000000000 PUSH1 0x0 MSTORE PUSH1 0x22 PUSH1 0x4 MSTORE PUSH1 0x24 PUSH1 0x0 REVERT JUMPDEST PUSH1 0x0 PUSH1 0x1F NOT PUSH1 0x1F DUP4 ADD AND SWAP1 POP SWAP2 SWAP1 POP JUMP INVALID LOG2 PUSH5 0x6970667358 0x22 SLT KECCAK256 LOG4 PUSH2 0xA873 SUB 0x21 0xE7 CALL MULMOD NOT 0xE7 DIV SWAP3 0x26 0xC8 0xAA CODESIZE 0xDF 0x4F 0xE8 0xEE STATICCALL SSTORE 0xD5 SIGNEXTEND 0xF7 ORIGIN SWAP13 SWAP12 POP DUP10 MULMOD PUSH5 0x736F6C6343 STOP ADDMOD SMOD STOP CALLER LOG2 PUSH5 0x6970667358 0x22 SLT KECCAK256 PUSH7 0x15B1C90E0647A9 MOD 0xD1 0x24 LOG1 0xD 0xA7 0xAD 0xB7 PUSH20 0x2B60915A607E18DA45C1728764833964736F6C63 NUMBER STOP ADDMOD SMOD STOP CALLER "
				},
				"gasEstimates": {
					"creation": {
						"codeDepositCost": "607000",
						"executionCost": "infinite",
						"totalCost": "infinite"
					},
					"external": {
						"externalJob()": "infinite",
						"publicJob()": "infinite",
						"publicMsg()": "infinite",
						"testScopeOfBaseContract()": "426",
						"testScopeOfFunctions()": "infinite",
						"testScopeOfStateVariables()": "166"
					}
				},
				"methodIdentifiers": {
					"externalJob()": "628e6fa1",
					"publicJob()": "a23a028b",
					"publicMsg()": "c6c41055",
					"testScopeOfBaseContract()": "53fc97c7",
					"testScopeOfFunctions()": "26588bdf",
					"testScopeOfStateVariables()": "61845130"
				}
			},
			"storageLayout": {
				"storage": [
					{
						"astId": 4,
						"contract": "Ep6/example.sol:Base0",
						"label": "privateMsg",
						"offset": 0,
						"slot": "0",
						"type": "t_string_storage"
					},
					{
						"astId": 7,
						"contract": "Ep6/example.sol:Base0",
						"label": "internalMsg",
						"offset": 0,
						"slot": "1",
						"type": "t_string_storage"
					},
					{
						"astId": 10,
						"contract": "Ep6/example.sol:Base0",
						"label": "publicMsg",
						"offset": 0,
						"slot": "2",
						"type": "t_string_storage"
					}
				],
				"types": {
					"t_string_storage": {
						"encoding": "bytes",
						"label": "string",
						"numberOfBytes": "32"
					}
				}
			},
			"userdoc": {
				"kind": "user",
				"methods": {},
				"version": 1
			}
		}
	}
}